{
  "abi": [
    {
      "inputs": [
        {
          "internalType": "string",
          "name": "_uri",
          "type": "string"
        },
        {
          "internalType": "address",
          "name": "_mothership",
          "type": "address"
        }
      ],
      "stateMutability": "nonpayable",
      "type": "constructor"
    },
    {
      "anonymous": false,
      "inputs": [
        {
          "indexed": true,
          "internalType": "address",
          "name": "account",
          "type": "address"
        },
        {
          "indexed": true,
          "internalType": "address",
          "name": "operator",
          "type": "address"
        },
        {
          "indexed": false,
          "internalType": "bool",
          "name": "approved",
          "type": "bool"
        }
      ],
      "name": "ApprovalForAll",
      "type": "event"
    },
    {
      "anonymous": false,
      "inputs": [
        {
          "indexed": false,
          "internalType": "address",
          "name": "market",
          "type": "address"
        },
        {
          "indexed": false,
          "internalType": "uint256",
          "name": "positionId",
          "type": "uint256"
        },
        {
          "indexed": false,
          "internalType": "uint256",
          "name": "oi",
          "type": "uint256"
        },
        {
          "indexed": false,
          "internalType": "uint256",
          "name": "debt",
          "type": "uint256"
        }
      ],
      "name": "Build",
      "type": "event"
    },
    {
      "anonymous": false,
      "inputs": [
        {
          "indexed": false,
          "internalType": "uint256",
          "name": "positionId",
          "type": "uint256"
        },
        {
          "indexed": false,
          "internalType": "uint256",
          "name": "oi",
          "type": "uint256"
        },
        {
          "indexed": false,
          "internalType": "uint256",
          "name": "reward",
          "type": "uint256"
        },
        {
          "indexed": false,
          "internalType": "address",
          "name": "rewarded",
          "type": "address"
        }
      ],
      "name": "Liquidate",
      "type": "event"
    },
    {
      "anonymous": false,
      "inputs": [
        {
          "indexed": true,
          "internalType": "address",
          "name": "operator",
          "type": "address"
        },
        {
          "indexed": true,
          "internalType": "address",
          "name": "from",
          "type": "address"
        },
        {
          "indexed": true,
          "internalType": "address",
          "name": "to",
          "type": "address"
        },
        {
          "indexed": false,
          "internalType": "uint256[]",
          "name": "ids",
          "type": "uint256[]"
        },
        {
          "indexed": false,
          "internalType": "uint256[]",
          "name": "values",
          "type": "uint256[]"
        }
      ],
      "name": "TransferBatch",
      "type": "event"
    },
    {
      "anonymous": false,
      "inputs": [
        {
          "indexed": true,
          "internalType": "address",
          "name": "operator",
          "type": "address"
        },
        {
          "indexed": true,
          "internalType": "address",
          "name": "from",
          "type": "address"
        },
        {
          "indexed": true,
          "internalType": "address",
          "name": "to",
          "type": "address"
        },
        {
          "indexed": false,
          "internalType": "uint256",
          "name": "id",
          "type": "uint256"
        },
        {
          "indexed": false,
          "internalType": "uint256",
          "name": "value",
          "type": "uint256"
        }
      ],
      "name": "TransferSingle",
      "type": "event"
    },
    {
      "anonymous": false,
      "inputs": [
        {
          "indexed": false,
          "internalType": "string",
          "name": "value",
          "type": "string"
        },
        {
          "indexed": true,
          "internalType": "uint256",
          "name": "id",
          "type": "uint256"
        }
      ],
      "name": "URI",
      "type": "event"
    },
    {
      "anonymous": false,
      "inputs": [
        {
          "indexed": false,
          "internalType": "address",
          "name": "market",
          "type": "address"
        },
        {
          "indexed": false,
          "internalType": "uint256",
          "name": "positionId",
          "type": "uint256"
        },
        {
          "indexed": false,
          "internalType": "uint256",
          "name": "oi",
          "type": "uint256"
        },
        {
          "indexed": false,
          "internalType": "uint256",
          "name": "debt",
          "type": "uint256"
        }
      ],
      "name": "Unwind",
      "type": "event"
    },
    {
      "anonymous": false,
      "inputs": [
        {
          "indexed": false,
          "internalType": "uint256",
          "name": "feesCollected",
          "type": "uint256"
        },
        {
          "indexed": false,
          "internalType": "uint256",
          "name": "feesBurned",
          "type": "uint256"
        },
        {
          "indexed": false,
          "internalType": "uint256",
          "name": "liquidationsCollected",
          "type": "uint256"
        },
        {
          "indexed": false,
          "internalType": "uint256",
          "name": "liquidationsBurned",
          "type": "uint256"
        }
      ],
      "name": "Update",
      "type": "event"
    },
    {
      "anonymous": false,
      "inputs": [
        {
          "indexed": false,
          "internalType": "string",
          "name": "k",
          "type": "string"
        },
        {
          "indexed": false,
          "internalType": "uint256",
          "name": "v",
          "type": "uint256"
        }
      ],
      "name": "log",
      "type": "event"
    },
    {
      "anonymous": false,
      "inputs": [
        {
          "indexed": false,
          "internalType": "string",
          "name": "k",
          "type": "string"
        },
        {
          "indexed": false,
          "internalType": "address",
          "name": "v",
          "type": "address"
        }
      ],
      "name": "log_addr",
      "type": "event"
    },
    {
      "inputs": [
        {
          "internalType": "address",
          "name": "account",
          "type": "address"
        },
        {
          "internalType": "uint256",
          "name": "id",
          "type": "uint256"
        }
      ],
      "name": "balanceOf",
      "outputs": [
        {
          "internalType": "uint256",
          "name": "",
          "type": "uint256"
        }
      ],
      "stateMutability": "view",
      "type": "function"
    },
    {
      "inputs": [
        {
          "internalType": "address[]",
          "name": "accounts",
          "type": "address[]"
        },
        {
          "internalType": "uint256[]",
          "name": "ids",
          "type": "uint256[]"
        }
      ],
      "name": "balanceOfBatch",
      "outputs": [
        {
          "internalType": "uint256[]",
          "name": "",
          "type": "uint256[]"
        }
      ],
      "stateMutability": "view",
      "type": "function"
    },
    {
      "inputs": [
        {
          "internalType": "address",
          "name": "_market",
          "type": "address"
        },
        {
          "internalType": "uint256",
          "name": "_collateral",
          "type": "uint256"
        },
        {
          "internalType": "uint256",
          "name": "_leverage",
          "type": "uint256"
        },
        {
          "internalType": "bool",
          "name": "_isLong",
          "type": "bool"
        },
        {
          "internalType": "uint256",
          "name": "_oiMinimum",
          "type": "uint256"
        }
      ],
      "name": "build",
      "outputs": [
        {
          "internalType": "uint256",
          "name": "positionId_",
          "type": "uint256"
        }
      ],
      "stateMutability": "nonpayable",
      "type": "function"
    },
    {
      "inputs": [],
      "name": "disburse",
      "outputs": [],
      "stateMutability": "nonpayable",
      "type": "function"
    },
    {
      "inputs": [
        {
          "internalType": "uint256",
          "name": "id",
          "type": "uint256"
        }
      ],
      "name": "exists",
      "outputs": [
        {
          "internalType": "bool",
          "name": "",
          "type": "bool"
        }
      ],
      "stateMutability": "view",
      "type": "function"
    },
    {
      "inputs": [],
      "name": "fees",
      "outputs": [
        {
          "internalType": "uint256",
          "name": "",
          "type": "uint256"
        }
      ],
      "stateMutability": "view",
      "type": "function"
    },
    {
      "inputs": [
        {
          "internalType": "address",
          "name": "account",
          "type": "address"
        },
        {
          "internalType": "address",
          "name": "operator",
          "type": "address"
        }
      ],
      "name": "isApprovedForAll",
      "outputs": [
        {
          "internalType": "bool",
          "name": "",
          "type": "bool"
        }
      ],
      "stateMutability": "view",
      "type": "function"
    },
    {
      "inputs": [
        {
          "internalType": "uint256",
          "name": "_positionId",
          "type": "uint256"
        },
        {
          "internalType": "address",
          "name": "_rewardsTo",
          "type": "address"
        }
      ],
      "name": "liquidate",
      "outputs": [],
      "stateMutability": "nonpayable",
      "type": "function"
    },
    {
      "inputs": [],
      "name": "liquidations",
      "outputs": [
        {
          "internalType": "uint256",
          "name": "",
          "type": "uint256"
        }
      ],
      "stateMutability": "view",
      "type": "function"
    },
    {
      "inputs": [
        {
          "internalType": "address",
          "name": "_market",
          "type": "address"
        }
      ],
      "name": "marginMaintenance",
      "outputs": [
        {
          "internalType": "uint256",
          "name": "marginMaintenance_",
          "type": "uint256"
        }
      ],
      "stateMutability": "view",
      "type": "function"
    },
    {
      "inputs": [
        {
          "internalType": "address",
          "name": "_market",
          "type": "address"
        }
      ],
      "name": "marginRewardRate",
      "outputs": [
        {
          "internalType": "uint256",
          "name": "marginRewardRate_",
          "type": "uint256"
        }
      ],
      "stateMutability": "view",
      "type": "function"
    },
    {
      "inputs": [
        {
          "internalType": "address",
          "name": "",
          "type": "address"
        }
      ],
      "name": "marketInfo",
      "outputs": [
        {
          "internalType": "uint256",
          "name": "marginMaintenance",
          "type": "uint256"
        },
        {
          "internalType": "uint256",
          "name": "marginRewardRate",
          "type": "uint256"
        },
        {
          "internalType": "uint256",
          "name": "maxLeverage",
          "type": "uint256"
        }
      ],
      "stateMutability": "view",
      "type": "function"
    },
    {
      "inputs": [
        {
          "internalType": "address",
          "name": "_market",
          "type": "address"
        }
      ],
      "name": "maxLeverage",
      "outputs": [
        {
          "internalType": "uint256",
          "name": "maxLeverage_",
          "type": "uint256"
        }
      ],
      "stateMutability": "view",
      "type": "function"
    },
    {
      "inputs": [],
      "name": "mothership",
      "outputs": [
        {
          "internalType": "contract IOverlayV1Mothership",
          "name": "",
          "type": "address"
        }
      ],
      "stateMutability": "view",
      "type": "function"
    },
    {
      "inputs": [],
      "name": "ovl",
      "outputs": [
        {
          "internalType": "contract IOverlayToken",
          "name": "",
          "type": "address"
        }
      ],
      "stateMutability": "view",
      "type": "function"
    },
    {
      "inputs": [
        {
          "internalType": "uint256",
          "name": "",
          "type": "uint256"
        }
      ],
      "name": "positions",
      "outputs": [
        {
          "internalType": "address",
          "name": "market",
          "type": "address"
        },
        {
          "internalType": "bool",
          "name": "isLong",
          "type": "bool"
        },
        {
          "internalType": "uint256",
          "name": "leverage",
          "type": "uint256"
        },
        {
          "internalType": "uint256",
          "name": "pricePoint",
          "type": "uint256"
        },
        {
          "internalType": "uint256",
          "name": "oiShares",
          "type": "uint256"
        },
        {
          "internalType": "uint256",
          "name": "debt",
          "type": "uint256"
        },
        {
          "internalType": "uint256",
          "name": "cost",
          "type": "uint256"
        }
      ],
      "stateMutability": "view",
      "type": "function"
    },
    {
      "inputs": [
        {
          "internalType": "address",
          "name": "from",
          "type": "address"
        },
        {
          "internalType": "address",
          "name": "to",
          "type": "address"
        },
        {
          "internalType": "uint256[]",
          "name": "ids",
          "type": "uint256[]"
        },
        {
          "internalType": "uint256[]",
          "name": "amounts",
          "type": "uint256[]"
        },
        {
          "internalType": "bytes",
          "name": "data",
          "type": "bytes"
        }
      ],
      "name": "safeBatchTransferFrom",
      "outputs": [],
      "stateMutability": "nonpayable",
      "type": "function"
    },
    {
      "inputs": [
        {
          "internalType": "address",
          "name": "from",
          "type": "address"
        },
        {
          "internalType": "address",
          "name": "to",
          "type": "address"
        },
        {
          "internalType": "uint256",
          "name": "id",
          "type": "uint256"
        },
        {
          "internalType": "uint256",
          "name": "amount",
          "type": "uint256"
        },
        {
          "internalType": "bytes",
          "name": "data",
          "type": "bytes"
        }
      ],
      "name": "safeTransferFrom",
      "outputs": [],
      "stateMutability": "nonpayable",
      "type": "function"
    },
    {
      "inputs": [
        {
          "internalType": "address",
          "name": "operator",
          "type": "address"
        },
        {
          "internalType": "bool",
          "name": "approved",
          "type": "bool"
        }
      ],
      "name": "setApprovalForAll",
      "outputs": [],
      "stateMutability": "nonpayable",
      "type": "function"
    },
    {
      "inputs": [
        {
          "internalType": "address",
          "name": "_market",
          "type": "address"
        },
        {
          "internalType": "uint256",
          "name": "_marginMaintenance",
          "type": "uint256"
        },
        {
          "internalType": "uint256",
          "name": "_marginRewardRate",
          "type": "uint256"
        },
        {
          "internalType": "uint256",
          "name": "_maxLeverage",
          "type": "uint256"
        }
      ],
      "name": "setMarketInfo",
      "outputs": [],
      "stateMutability": "nonpayable",
      "type": "function"
    },
    {
      "inputs": [
        {
          "internalType": "bytes4",
          "name": "interfaceId",
          "type": "bytes4"
        }
      ],
      "name": "supportsInterface",
      "outputs": [
        {
          "internalType": "bool",
          "name": "",
          "type": "bool"
        }
      ],
      "stateMutability": "view",
      "type": "function"
    },
    {
      "inputs": [
        {
          "internalType": "uint256",
          "name": "id",
          "type": "uint256"
        }
      ],
      "name": "totalSupply",
      "outputs": [
        {
          "internalType": "uint256",
          "name": "",
          "type": "uint256"
        }
      ],
      "stateMutability": "view",
      "type": "function"
    },
    {
      "inputs": [
        {
          "internalType": "uint256",
          "name": "_positionId",
          "type": "uint256"
        },
        {
          "internalType": "uint256",
          "name": "_shares",
          "type": "uint256"
        }
      ],
      "name": "unwind",
      "outputs": [],
      "stateMutability": "nonpayable",
      "type": "function"
    },
    {
      "inputs": [
        {
          "internalType": "uint256",
          "name": "",
          "type": "uint256"
        }
      ],
      "name": "uri",
      "outputs": [
        {
          "internalType": "string",
          "name": "",
          "type": "string"
        }
      ],
      "stateMutability": "view",
      "type": "function"
    },
    {
      "inputs": [
        {
          "internalType": "uint256",
          "name": "_positionId",
          "type": "uint256"
        }
      ],
      "name": "value",
      "outputs": [
        {
          "internalType": "uint256",
          "name": "value_",
          "type": "uint256"
        }
      ],
      "stateMutability": "view",
      "type": "function"
    }
  ],
  "bytecode": "60c06040523480156200001157600080fd5b5060405162003d7c38038062003d7c833981016040819052620000349162000341565b81620000408162000249565b50806001600160a01b03166080816001600160a01b031660601b81525050806001600160a01b031663b29fa9c36040518163ffffffff1660e01b815260040160206040518083038186803b1580156200009857600080fd5b505afa158015620000ad573d6000803e3d6000fd5b505050506040513d601f19601f82011682018060405250810190620000d391906200031a565b6001600160601b0319606091821b1660a09081526040805160e0810182526000808252602082018181529282018181529482018181526080830182815294830182815260c08401838152600780546001810182559452935160069093027fa66cc928b5edb82af9bd49922954155ab7b0942694bea4ce44661d9a8736c6888101805496511515600160a01b026001600160a81b03199097166001600160a01b0395909516949094179590951790925594517fa66cc928b5edb82af9bd49922954155ab7b0942694bea4ce44661d9a8736c68984015593517fa66cc928b5edb82af9bd49922954155ab7b0942694bea4ce44661d9a8736c68a83015591517fa66cc928b5edb82af9bd49922954155ab7b0942694bea4ce44661d9a8736c68b82015591517fa66cc928b5edb82af9bd49922954155ab7b0942694bea4ce44661d9a8736c68c830155517fa66cc928b5edb82af9bd49922954155ab7b0942694bea4ce44661d9a8736c68d90910155506200049e9050565b80516200025e90600290602084019062000262565b5050565b828054620002709062000432565b90600052602060002090601f016020900481019282620002945760008555620002df565b82601f10620002af57805160ff1916838001178555620002df565b82800160010185558215620002df579182015b82811115620002df578251825591602001919060010190620002c2565b50620002ed929150620002f1565b5090565b5b80821115620002ed5760008155600101620002f2565b8051620003158162000485565b919050565b6000602082840312156200032d57600080fd5b81516200033a8162000485565b9392505050565b600080604083850312156200035557600080fd5b82516001600160401b03808211156200036d57600080fd5b818501915085601f8301126200038257600080fd5b8151818111156200039757620003976200046f565b604051601f8201601f19908116603f01168101908382118183101715620003c257620003c26200046f565b81604052828152602093508884848701011115620003df57600080fd5b600091505b82821015620004035784820184015181830185015290830190620003e4565b82821115620004155760008484830101525b95506200042791505085820162000308565b925050509250929050565b600181811c908216806200044757607f821691505b602082108114156200046957634e487b7160e01b600052602260045260246000fd5b50919050565b634e487b7160e01b600052604160045260246000fd5b6001600160a01b03811681146200049b57600080fd5b50565b60805160601c60a05160601c613857620005256000396000818161039f01528181610b2a01528181610bdb015281816110e1015281816111bb015281816117db015281816118780152818161191401528181611aec0152611b6d01526000818161025301528181610ca101528181610daa015281816115c901526119bb01526138576000f3fe608060405234801561001057600080fd5b50600436106101a25760003560e01c80639a371c84116100ee578063bd85b03911610097578063c5a46ee611610071578063c5a46ee614610457578063e985e9c51461046a578063f242432a146104a6578063ffdbdb08146104b957600080fd5b8063bd85b039146103c1578063c0386611146103e1578063c43513861461040d57600080fd5b8063a750a585116100c8578063a750a5851461037f578063abc6fd0b14610392578063b29fa9c31461039a57600080fd5b80639a371c841461035a5780639af1d35a14610363578063a22cb4651461036c57600080fd5b80634e1273f411610150578063661b7af21161012a578063661b7af2146102e257806396dfb05f146102f557806399fbab881461030857600080fd5b80634e1273f41461028d5780634f558e79146102ad5780635fae8b3d146102cf57600080fd5b80631bf87541116101815780631bf87541146102105780632eb2c2d6146102395780634187b7d61461024e57600080fd5b8062fdd58e146101a757806301ffc9a7146101cd5780630e89341c146101f0575b600080fd5b6101ba6101b536600461316a565b6104e5565b6040519081526020015b60405180910390f35b6101e06101db366004613352565b61057f565b60405190151581526020016101c4565b6102036101fe36600461338c565b6105cf565b6040516101c491906135d3565b6101ba61021e366004612fcf565b6001600160a01b031660009081526006602052604090205490565b61024c610247366004613025565b610663565b005b6102757f000000000000000000000000000000000000000000000000000000000000000081565b6040516001600160a01b0390911681526020016101c4565b6102a061029b366004613262565b610705565b6040516101c4919061359b565b6101e06102bb36600461338c565b600090815260036020526040902054151590565b61024c6102dd3660046133be565b61082f565b61024c6102f03660046131e8565b610c66565b6101ba610303366004613196565b610d88565b61031b61031636600461338c565b61124b565b604080516001600160a01b0390981688529515156020880152948601939093526060850191909152608084015260a083015260c082015260e0016101c4565b6101ba60095481565b6101ba60085481565b61024c61037a36600461313c565b6112a8565b61024c61038d3660046133e3565b61137f565b61024c6119b4565b6102757f000000000000000000000000000000000000000000000000000000000000000081565b6101ba6103cf36600461338c565b60009081526003602052604090205490565b6101ba6103ef366004612fcf565b6001600160a01b031660009081526006602052604090206002015490565b61043c61041b366004612fcf565b60066020526000908152604090208054600182015460029092015490919083565b604080519384526020840192909252908201526060016101c4565b6101ba61046536600461338c565b611c2f565b6101e0610478366004612fec565b6001600160a01b03918216600090815260016020908152604080832093909416825291909152205460ff1690565b61024c6104b43660046130d3565b611d24565b6101ba6104c7366004612fcf565b6001600160a01b031660009081526006602052604090206001015490565b60006001600160a01b0383166105565760405162461bcd60e51b815260206004820152602b60248201527f455243313135353a2062616c616e636520717565727920666f7220746865207a60448201526a65726f206164647265737360a81b60648201526084015b60405180910390fd5b506000818152602081815260408083206001600160a01b03861684529091529020545b92915050565b60006001600160e01b03198216636cdb3d1360e11b14806105b057506001600160e01b031982166303a24d0760e21b145b8061057957506301ffc9a760e01b6001600160e01b0319831614610579565b6060600280546105de9061367a565b80601f016020809104026020016040519081016040528092919081815260200182805461060a9061367a565b80156106575780601f1061062c57610100808354040283529160200191610657565b820191906000526020600020905b81548152906001019060200180831161063a57829003601f168201915b50505050509050919050565b6001600160a01b03851633148061067f575061067f8533610478565b6106f15760405162461bcd60e51b815260206004820152603260248201527f455243313135353a207472616e736665722063616c6c6572206973206e6f742060448201527f6f776e6572206e6f7220617070726f7665640000000000000000000000000000606482015260840161054d565b6106fe8585858585611dab565b5050505050565b6060815183511461076a5760405162461bcd60e51b815260206004820152602960248201527f455243313135353a206163636f756e747320616e6420696473206c656e677468604482015268040dad2e6dac2e8c6d60bb1b606482015260840161054d565b6000835167ffffffffffffffff81111561078657610786613729565b6040519080825280602002602001820160405280156107af578160200160208202803683370190505b50905060005b8451811015610827576107fa8582815181106107d3576107d3613713565b60200260200101518583815181106107ed576107ed613713565b60200260200101516104e5565b82828151811061080c5761080c613713565b6020908102919091010152610820816136e2565b90506107b5565b509392505050565b60006007838154811061084457610844613713565b90600052602060002090600602019050806003015460001061089b5760405162461bcd60e51b815260206004820152601060248201526f13d593158c4e9b1a5c5d5a59185d195960821b604482015260640161054d565b8054600282015460405163200eab6960e11b815260ff600160a01b84041692600092839283926001600160a01b03169163401d56d2916108ea9188916004019115158252602082015260400190565b606060405180830381600087803b15801561090457600080fd5b505af1158015610918573d6000803e3d6000fd5b505050506040513d601f19601f8201168201806040525081019061093c9190613405565b87546001600160a01b03166000908152600660209081526040918290208251606081018452815480825260018301549382019390935260029091015492810192909252939650919450925090610999908790869086908690612017565b6109e55760405162461bcd60e51b815260206004820152601360248201527f4f564c56313a216c6971756964617461626c6500000000000000000000000000604482015260640161054d565b60006109f387868686612084565b87549091506001600160a01b031663e8fd2b7787610a128a89896120fa565b8a600301546000868d60050154610a299190613663565b6040516001600160e01b031960e088901b1681529415156004860152602485019390935260448401919091526064830152608482015260a401600060405180830381600087803b158015610a7c57600080fd5b505af1158015610a90573d6000803e3d6000fd5b5050600060038a0181905560048a018190556020850151909250610ab69150839061216e565b9050610ac28183613663565b60096000828254610ad3919061360a565b9091555050604080518b8152602081018890529081018290526001600160a01b038a1660608201527fa7dea6636c8da6757bedce766781fd072194b0e21c1bc9e1278495b571b850b19060800160405180910390a17f00000000000000000000000000000000000000000000000000000000000000006001600160a01b03166342966c68838a60050154610b679190613663565b6040518263ffffffff1660e01b8152600401610b8591815260200190565b600060405180830381600087803b158015610b9f57600080fd5b505af1158015610bb3573d6000803e3d6000fd5b505060405163a9059cbb60e01b81526001600160a01b038c81166004830152602482018590527f000000000000000000000000000000000000000000000000000000000000000016925063a9059cbb9150604401602060405180830381600087803b158015610c2157600080fd5b505af1158015610c35573d6000803e3d6000fd5b505050506040513d601f19601f82011682018060405250810190610c599190613335565b5050505050505050505050565b604051632474521560e21b81527f1a6838efa4183e08fe3607359d1259272af9d4716f65e1a7b5921f78fd5a3c6a60048201523360248201527f00000000000000000000000000000000000000000000000000000000000000006001600160a01b0316906391d148549060440160206040518083038186803b158015610ceb57600080fd5b505afa158015610cff573d6000803e3d6000fd5b505050506040513d601f19601f82011682018060405250810190610d239190613335565b610d615760405162461bcd60e51b815260206004820152600f60248201526e27ab262b189d10b3b7bb32b93737b960891b604482015260640161054d565b6001600160a01b039093166000908152600660205260409020918255600182015560020155565b60405163eeec7d6f60e01b81526001600160a01b0386811660048301526000917f00000000000000000000000000000000000000000000000000000000000000009091169063eeec7d6f9060240160206040518083038186803b158015610dee57600080fd5b505afa158015610e02573d6000803e3d6000fd5b505050506040513d601f19601f82011682018060405250810190610e269190613335565b610e625760405162461bcd60e51b815260206004820152600d60248201526c13d593158c4e885b585c9ad95d609a1b604482015260640161054d565b6001600160a01b038616600090815260066020526040902060020154841115610ebd5760405162461bcd60e51b815260206004820152600d60248201526c09eac98ac6274d8caec7cdac2f609b1b604482015260640161054d565b83610ef95760405162461bcd60e51b815260206004820152600c60248201526b04f564c56313a6c65763d3d360a41b604482015260640161054d565b604051630f29383960e01b815283151560048201526024810186905260448101859052600090819081908190819081906001600160a01b038d1690630f2938399060640160c060405180830381600087803b158015610f5757600080fd5b505af1158015610f6b573d6000803e3d6000fd5b505050506040513d601f19601f82011682018060405250810190610f8f9190613433565b95509550955095509550955087861015610fda5760405162461bcd60e51b815260206004820152600c60248201526b27ab262b189d37b49e36b4b760a11b604482015260640161054d565b6000610fe88d8b8d856121dc565b9050600060078281548110610fff57610fff613713565b9060005260206000209060060201905087816003016000828254611023919061360a565b925050819055508681600501600082825461103e919061360a565b9250508190555085816004016000828254611059919061360a565b925050819055508460086000828254611072919061360a565b925050819055507f428b559deb78ae264f175a82b90ecac7f28acc5c0bbce329463bcf94aa5ffd538e838a896040516110cf94939291906001600160a01b0394909416845260208401929092526040830152606082015260800190565b60405180910390a16001600160a01b037f0000000000000000000000000000000000000000000000000000000000000000166323b872dd333088611113898d61360a565b61111d919061360a565b6040516001600160e01b031960e086901b1681526001600160a01b0393841660048201529290911660248301526044820152606401602060405180830381600087803b15801561116c57600080fd5b505af1158015611180573d6000803e3d6000fd5b505050506040513d601f19601f820116820180604052508101906111a49190613335565b50604051630852cd8d60e31b8152600481018590527f00000000000000000000000000000000000000000000000000000000000000006001600160a01b0316906342966c6890602401600060405180830381600087803b15801561120757600080fd5b505af115801561121b573d6000803e3d6000fd5b5050505061123a33838a60405180602001604052806000815250612401565b509c9b505050505050505050505050565b6007818154811061125b57600080fd5b60009182526020909120600690910201805460018201546002830154600384015460048501546005909501546001600160a01b0385169650600160a01b90940460ff169492939192909187565b336001600160a01b03831614156113135760405162461bcd60e51b815260206004820152602960248201527f455243313135353a2073657474696e6720617070726f76616c20737461747573604482015268103337b91039b2b63360b91b606482015260840161054d565b3360008181526001602090815260408083206001600160a01b03871680855290835292819020805460ff191686151590811790915590519081529192917f17307eab39ab6107e8899845ad3d59bd9653f200f220920489ca2b5937696c31910160405180910390a35050565b806000108015611398575061139433836104e5565b8111155b6113d45760405162461bcd60e51b815260206004820152600d60248201526c4f564c56313a2173686172657360981b604482015260640161054d565b6000600783815481106113e9576113e9613713565b9060005260206000209060060201905080600301546000106114405760405162461bcd60e51b815260206004820152601060248201526f13d593158c4e9b1a5c5d5a59185d195960821b604482015260640161054d565b8054600282015460405163200eab6960e11b8152600160a01b830460ff16151560048201526024810191909152600091829182916001600160a01b03169063401d56d290604401606060405180830381600087803b1580156114a157600080fd5b505af11580156114b5573d6000803e3d6000fd5b505050506040513d601f19601f820116820180604052508101906114d99190613405565b60038701549295509093509150856000826114f688888888612511565b611500908a613644565b61150a9190613622565b905060008388600401548a61151f9190613644565b6115299190613622565b905060008489600501548b61153e9190613644565b6115489190613622565b90506000856115588b8b8b6120fa565b611562908d613644565b61156c9190613622565b8a54604080516001600160a01b039092168252602082018f90528101829052606081018590529091507fed2784480bdab74064f940b0fbead975d5ce4f0936822552f3b893e1646b22379060800160405180910390a1600061165f7f00000000000000000000000000000000000000000000000000000000000000006001600160a01b031663ddca3f436040518163ffffffff1660e01b815260040160206040518083038186803b15801561162057600080fd5b505afa158015611634573d6000803e3d6000fd5b505050506040513d601f19601f8201168201806040525081019061165891906133a5565b869061216e565b9050600061166d8287613663565b905084811115611688576116818582613663565b90506116a6565b5060008486116116995760006116a3565b6116a38587613663565b91505b81600860008282546116b8919061360a565b92505081905550848c60040160008282546116d39190613663565b92505081905550838c60050160008282546116ee9190613663565b92505081905550868c60030160008282546117099190613663565b90915550508b546001600160a01b0381169063e8fd2b7790600160a01b900460ff16858a85891061173b576000611745565b6117458987613663565b868a1061175b57611756878b613663565b61175e565b60005b6040516001600160e01b031960e088901b1681529415156004860152602485019390935260448401919091526064830152608482015260a401600060405180830381600087803b1580156117b157600080fd5b505af11580156117c5573d6000803e3d6000fd5b505050508084101561186e576001600160a01b037f0000000000000000000000000000000000000000000000000000000000000000166340c10f193061180b8785613663565b6040516001600160e01b031960e085901b1681526001600160a01b0390921660048301526024820152604401600060405180830381600087803b15801561185157600080fd5b505af1158015611865573d6000803e3d6000fd5b505050506118f8565b6001600160a01b037f0000000000000000000000000000000000000000000000000000000000000000166342966c686118a78387613663565b6040518263ffffffff1660e01b81526004016118c591815260200190565b600060405180830381600087803b1580156118df57600080fd5b505af11580156118f3573d6000803e3d6000fd5b505050505b60405163a9059cbb60e01b8152336004820152602481018290527f00000000000000000000000000000000000000000000000000000000000000006001600160a01b03169063a9059cbb90604401602060405180830381600087803b15801561196057600080fd5b505af1158015611974573d6000803e3d6000fd5b505050506040513d601f19601f820116820180604052508101906119989190613335565b5050505050505050505050506119af33848461257d565b505050565b60008060007f00000000000000000000000000000000000000000000000000000000000000006001600160a01b0316636b3222e66040518163ffffffff1660e01b815260040160806040518083038186803b158015611a1257600080fd5b505afa158015611a26573d6000803e3d6000fd5b505050506040513d601f19601f82011682018060405250810190611a4a9190613223565b600854939650909450925060009050611a63828561216e565b9050611a6f8183613663565b6009549092506000611a81828661216e565b9050611a8d8183613663565b600060088190556009556040805186815260208101869052908101829052606081018390529092507fce49b138f2621300a7043a61f472ccfd643162bdf3efb11354e22d5273b77a719060800160405180910390a16001600160a01b037f0000000000000000000000000000000000000000000000000000000000000000166342966c68611b1b838661360a565b6040518263ffffffff1660e01b8152600401611b3991815260200190565b600060405180830381600087803b158015611b5357600080fd5b505af1158015611b67573d6000803e3d6000fd5b505050507f00000000000000000000000000000000000000000000000000000000000000006001600160a01b031663a9059cbb888487611ba7919061360a565b6040516001600160e01b031960e085901b1681526001600160a01b0390921660048301526024820152604401602060405180830381600087803b158015611bed57600080fd5b505af1158015611c01573d6000803e3d6000fd5b505050506040513d601f19601f82011682018060405250810190611c259190613335565b5050505050505050565b60008060078381548110611c4557611c45613713565b90600052602060002090600602019050806003015460001415611c6b5750600092915050565b80546002820154604051636261a6b960e01b8152600160a01b830460ff161515600482015260248101919091526001600160a01b0390911690600090819081908490636261a6b99060440160606040518083038186803b158015611cce57600080fd5b505afa158015611ce2573d6000803e3d6000fd5b505050506040513d601f19601f82011682018060405250810190611d069190613405565b91945092509050611d1985848484612084565b979650505050505050565b6001600160a01b038516331480611d405750611d408533610478565b611d9e5760405162461bcd60e51b815260206004820152602960248201527f455243313135353a2063616c6c6572206973206e6f74206f776e6572206e6f7260448201526808185c1c1c9bdd995960ba1b606482015260840161054d565b6106fe85858585856126f6565b8151835114611e0d5760405162461bcd60e51b815260206004820152602860248201527f455243313135353a2069647320616e6420616d6f756e7473206c656e677468206044820152670dad2e6dac2e8c6d60c31b606482015260840161054d565b6001600160a01b038416611e715760405162461bcd60e51b815260206004820152602560248201527f455243313135353a207472616e7366657220746f20746865207a65726f206164604482015264647265737360d81b606482015260840161054d565b33611e80818787878787612894565b60005b8451811015611fa9576000858281518110611ea057611ea0613713565b602002602001015190506000858381518110611ebe57611ebe613713565b602090810291909101810151600084815280835260408082206001600160a01b038e168352909352919091205490915081811015611f515760405162461bcd60e51b815260206004820152602a60248201527f455243313135353a20696e73756666696369656e742062616c616e636520666f60448201526939103a3930b739b332b960b11b606482015260840161054d565b6000838152602081815260408083206001600160a01b038e8116855292528083208585039055908b16825281208054849290611f8e90849061360a565b9250508190555050505080611fa2906136e2565b9050611e83565b50846001600160a01b0316866001600160a01b0316826001600160a01b03167f4a39dc06d4c0dbc64b70af90fd698a233a518aa5d07e595d983b8c0526c8f7fb8787604051611ff99291906135ae565b60405180910390a461200f8187878787876129a0565b505050505050565b6040805160e08101825286546001600160a01b0381168252600160a01b900460ff16151560208201526001870154918101919091526002860154606082015260038601546080820152600486015460a0820152600586015460c0820152600090611d198187878787612b55565b6040805160e08101825285546001600160a01b0381168252600160a01b900460ff16151560208201526001860154918101919091526002850154606082015260038501546080820152600485015460a0820152600585015460c08201526000906120f081868686612b8e565b9695505050505050565b6040805160e08101825284546001600160a01b0381168252600160a01b900460ff16151560208201526001850154918101919091526002840154606082015260038401546080820152600484015460a0820152600584015460c0820152600090612165818585612c1c565b95945050505050565b60008061217b8385613644565b905061219c8415806121955750836121938684613622565b145b6003612c47565b806121ab576000915050610579565b670de0b6b3a76400006121bf600183613663565b6121c99190613622565b6121d490600161360a565b915050610579565b60008084612201576001600160a01b038616600090815260056020526040902061221a565b6001600160a01b03861660009081526004602052604090205b905080600085815260200190815260200160002054915060006007838154811061224657612246613713565b9060005260206000209060060201905083816002015410156123f7576040805160e0810182526001600160a01b03808a168252881515602083019081529282018881526060830188815260006080850181815260a0860182815260c08701838152600780546001818101835595829052985160069099027fa66cc928b5edb82af9bd49922954155ab7b0942694bea4ce44661d9a8736c688810180549b511515600160a01b0274ffffffffffffffffffffffffffffffffffffffffff19909c169a909916999099179990991790965593517fa66cc928b5edb82af9bd49922954155ab7b0942694bea4ce44661d9a8736c68987015591517fa66cc928b5edb82af9bd49922954155ab7b0942694bea4ce44661d9a8736c68a86015590517fa66cc928b5edb82af9bd49922954155ab7b0942694bea4ce44661d9a8736c68b85015590517fa66cc928b5edb82af9bd49922954155ab7b0942694bea4ce44661d9a8736c68c84015590517fa66cc928b5edb82af9bd49922954155ab7b0942694bea4ce44661d9a8736c68d9092019190915590546123e39190613663565b600086815260208490526040902081905592505b5050949350505050565b6001600160a01b0384166124615760405162461bcd60e51b815260206004820152602160248201527f455243313135353a206d696e7420746f20746865207a65726f206164647265736044820152607360f81b606482015260840161054d565b336124818160008761247288612c59565b61247b88612c59565b87612894565b6000848152602081815260408083206001600160a01b0389168452909152812080548592906124b190849061360a565b909155505060408051858152602081018590526001600160a01b0380881692600092918516917fc3d58168c5ae7397731d063d5bbf3d657854427343f4c083240f7aacaa2d0f62910160405180910390a46106fe81600087878787612ca4565b6040805160e08101825285546001600160a01b0381168252600160a01b900460ff16151560208201526001860154918101919091526002850154606082015260038501546080820152600485015460a0820152600585015460c08201526000906120f081868686612daf565b6001600160a01b0383166125df5760405162461bcd60e51b815260206004820152602360248201527f455243313135353a206275726e2066726f6d20746865207a65726f206164647260448201526265737360e81b606482015260840161054d565b3361260e818560006125f087612c59565b6125f987612c59565b60405180602001604052806000815250612894565b6000838152602081815260408083206001600160a01b03881684529091529020548281101561268b5760405162461bcd60e51b8152602060048201526024808201527f455243313135353a206275726e20616d6f756e7420657863656564732062616c604482015263616e636560e01b606482015260840161054d565b6000848152602081815260408083206001600160a01b03898116808652918452828520888703905582518981529384018890529092908616917fc3d58168c5ae7397731d063d5bbf3d657854427343f4c083240f7aacaa2d0f62910160405180910390a45050505050565b6001600160a01b03841661275a5760405162461bcd60e51b815260206004820152602560248201527f455243313135353a207472616e7366657220746f20746865207a65726f206164604482015264647265737360d81b606482015260840161054d565b3361276a81878761247288612c59565b6000848152602081815260408083206001600160a01b038a168452909152902054838110156127ee5760405162461bcd60e51b815260206004820152602a60248201527f455243313135353a20696e73756666696369656e742062616c616e636520666f60448201526939103a3930b739b332b960b11b606482015260840161054d565b6000858152602081815260408083206001600160a01b038b811685529252808320878503905590881682528120805486929061282b90849061360a565b909155505060408051868152602081018690526001600160a01b03808916928a821692918616917fc3d58168c5ae7397731d063d5bbf3d657854427343f4c083240f7aacaa2d0f62910160405180910390a461288b828888888888612ca4565b50505050505050565b6001600160a01b03851661291b5760005b8351811015612919578281815181106128c0576128c0613713565b6020026020010151600360008684815181106128de576128de613713565b602002602001015181526020019081526020016000206000828254612903919061360a565b909155506129129050816136e2565b90506128a5565b505b6001600160a01b03841661200f5760005b835181101561288b5782818151811061294757612947613713565b60200260200101516003600086848151811061296557612965613713565b60200260200101518152602001908152602001600020600082825461298a9190613663565b909155506129999050816136e2565b905061292c565b6001600160a01b0384163b1561200f5760405163bc197c8160e01b81526001600160a01b0385169063bc197c81906129e49089908990889088908890600401613505565b602060405180830381600087803b1580156129fe57600080fd5b505af1925050508015612a2e575060408051601f3d908101601f19168201909252612a2b9181019061336f565b60015b612ae457612a3a61373f565b806308c379a01415612a745750612a4f61375b565b80612a5a5750612a76565b8060405162461bcd60e51b815260040161054d91906135d3565b505b60405162461bcd60e51b815260206004820152603460248201527f455243313135353a207472616e7366657220746f206e6f6e204552433131353560448201527f526563656976657220696d706c656d656e746572000000000000000000000000606482015260840161054d565b6001600160e01b0319811663bc197c8160e01b1461288b5760405162461bcd60e51b815260206004820152602860248201527f455243313135353a204552433131353552656365697665722072656a656374656044820152676420746f6b656e7360c01b606482015260840161054d565b600080612b6487878787612b8e565b90506000612b7188612dd0565b90506000612b7f828661216e565b90921098975050505050505050565b600080612b9c868686612c1c565b9050856020015115612bd357612bb28184612de6565b9150612bc2828760a00151612e1d565b612bcc9083613663565b9150612c13565b612be581671bc16d674ec80000612de6565b9150612c0982612bf58386612de6565b8860a00151612c04919061360a565b612e1d565b6120f09083613663565b50949350505050565b6000612c3f82612c39858760800151612de690919063ffffffff16565b90612e35565b949350505050565b81612c5557612c5581612e91565b5050565b60408051600180825281830190925260609160009190602080830190803683370190505090508281600081518110612c9357612c93613713565b602090810291909101015292915050565b6001600160a01b0384163b1561200f5760405163f23a6e6160e01b81526001600160a01b0385169063f23a6e6190612ce89089908990889088908890600401613563565b602060405180830381600087803b158015612d0257600080fd5b505af1925050508015612d32575060408051601f3d908101601f19168201909252612d2f9181019061336f565b60015b612d3e57612a3a61373f565b6001600160e01b0319811663f23a6e6160e01b1461288b5760405162461bcd60e51b815260206004820152602860248201527f455243313135353a204552433131353552656365697665722072656a656374656044820152676420746f6b656e7360c01b606482015260840161054d565b600080612dbe86868686612b8e565b90508560a00151816120f0919061360a565b60008160a001518260c00151610579919061360a565b600080612df38385613644565b9050612e0b8415806121955750836121938684613622565b612c3f670de0b6b3a764000082613622565b6000818310612e2c5781612e2e565b825b9392505050565b6000612e448215156004612c47565b82612e5157506000610579565b6000612e65670de0b6b3a764000085613644565b9050612e85670de0b6b3a7640000612e7d8684613622565b146005612c47565b826121bf600183613663565b62461bcd60e51b6000908152602060045260076024526642414c23000030600a808404818106603090810160081b95839006959095019082900491820690940160101b939093010160c81b604452606490fd5b600082601f830112612ef557600080fd5b81356020612f02826135e6565b604051612f0f82826136b5565b8381528281019150858301600585901b87018401881015612f2f57600080fd5b60005b85811015612f4e57813584529284019290840190600101612f32565b5090979650505050505050565b600082601f830112612f6c57600080fd5b813567ffffffffffffffff811115612f8657612f86613729565b604051612f9d601f8301601f1916602001826136b5565b818152846020838601011115612fb257600080fd5b816020850160208301376000918101602001919091529392505050565b600060208284031215612fe157600080fd5b8135612e2e816137e5565b60008060408385031215612fff57600080fd5b823561300a816137e5565b9150602083013561301a816137e5565b809150509250929050565b600080600080600060a0868803121561303d57600080fd5b8535613048816137e5565b94506020860135613058816137e5565b9350604086013567ffffffffffffffff8082111561307557600080fd5b61308189838a01612ee4565b9450606088013591508082111561309757600080fd5b6130a389838a01612ee4565b935060808801359150808211156130b957600080fd5b506130c688828901612f5b565b9150509295509295909350565b600080600080600060a086880312156130eb57600080fd5b85356130f6816137e5565b94506020860135613106816137e5565b93506040860135925060608601359150608086013567ffffffffffffffff81111561313057600080fd5b6130c688828901612f5b565b6000806040838503121561314f57600080fd5b823561315a816137e5565b9150602083013561301a816137fd565b6000806040838503121561317d57600080fd5b8235613188816137e5565b946020939093013593505050565b600080600080600060a086880312156131ae57600080fd5b85356131b9816137e5565b9450602086013593506040860135925060608601356131d7816137fd565b949793965091946080013592915050565b600080600080608085870312156131fe57600080fd5b8435613209816137e5565b966020860135965060408601359560600135945092505050565b6000806000806080858703121561323957600080fd5b8451613244816137e5565b60208601516040870151606090970151919890975090945092505050565b6000806040838503121561327557600080fd5b823567ffffffffffffffff8082111561328d57600080fd5b818501915085601f8301126132a157600080fd5b813560206132ae826135e6565b6040516132bb82826136b5565b8381528281019150858301600585901b870184018b10156132db57600080fd5b600096505b848710156133075780356132f3816137e5565b8352600196909601959183019183016132e0565b509650508601359250508082111561331e57600080fd5b5061332b85828601612ee4565b9150509250929050565b60006020828403121561334757600080fd5b8151612e2e816137fd565b60006020828403121561336457600080fd5b8135612e2e8161380b565b60006020828403121561338157600080fd5b8151612e2e8161380b565b60006020828403121561339e57600080fd5b5035919050565b6000602082840312156133b757600080fd5b5051919050565b600080604083850312156133d157600080fd5b82359150602083013561301a816137e5565b600080604083850312156133f657600080fd5b50508035926020909101359150565b60008060006060848603121561341a57600080fd5b8351925060208401519150604084015190509250925092565b60008060008060008060c0878903121561344c57600080fd5b865195506020870151945060408701519350606087015192506080870151915060a087015190509295509295509295565b600081518084526020808501945080840160005b838110156134ad57815187529582019590820190600101613491565b509495945050505050565b6000815180845260005b818110156134de576020818501810151868301820152016134c2565b818111156134f0576000602083870101525b50601f01601f19169290920160200192915050565b60006001600160a01b03808816835280871660208401525060a0604083015261353160a083018661347d565b8281036060840152613543818661347d565b9050828103608084015261355781856134b8565b98975050505050505050565b60006001600160a01b03808816835280871660208401525084604083015283606083015260a06080830152611d1960a08301846134b8565b602081526000612e2e602083018461347d565b6040815260006135c1604083018561347d565b8281036020840152612165818561347d565b602081526000612e2e60208301846134b8565b600067ffffffffffffffff82111561360057613600613729565b5060051b60200190565b6000821982111561361d5761361d6136fd565b500190565b60008261363f57634e487b7160e01b600052601260045260246000fd5b500490565b600081600019048311821515161561365e5761365e6136fd565b500290565b600082821015613675576136756136fd565b500390565b600181811c9082168061368e57607f821691505b602082108114156136af57634e487b7160e01b600052602260045260246000fd5b50919050565b601f8201601f1916810167ffffffffffffffff811182821017156136db576136db613729565b6040525050565b60006000198214156136f6576136f66136fd565b5060010190565b634e487b7160e01b600052601160045260246000fd5b634e487b7160e01b600052603260045260246000fd5b634e487b7160e01b600052604160045260246000fd5b600060033d11156137585760046000803e5060005160e01c5b90565b600060443d10156137695790565b6040516003193d81016004833e81513d67ffffffffffffffff816024840111818411171561379957505050505090565b82850191508151818111156137b15750505050505090565b843d87010160208285010111156137cb5750505050505090565b6137da602082860101876136b5565b509095945050505050565b6001600160a01b03811681146137fa57600080fd5b50565b80151581146137fa57600080fd5b6001600160e01b0319811681146137fa57600080fdfea26469706673582212207c54e7757f6f0d3a95c7ce40bb6b7f94e1bbd085d96082fa7a9d18f9e82837da64736f6c63430008070033",
  "bytecodeSha1": "26a79332db9e00a7b5acb3ec55092501820d3521",
  "compiler": {
    "evm_version": "london",
    "optimizer": {
      "enabled": true,
      "runs": 400
    },
    "version": "0.8.7+commit.e28d00a7"
  },
  "contractName": "OverlayV1OVLCollateral",
  "language": "Solidity",
  "natspec": {
    "kind": "dev",
    "methods": {
      "balanceOf(address,uint256)": {
        "details": "See {IERC1155-balanceOf}. Requirements: - `account` cannot be the zero address."
      },
      "balanceOfBatch(address[],uint256[])": {
        "details": "See {IERC1155-balanceOfBatch}. Requirements: - `accounts` and `ids` must have the same length."
      },
      "build(address,uint256,uint256,bool,uint256)": {
        "details": "This interacts with an Overlay Market to register oi and hold positions on behalf of users.Build event emitted",
        "notice": "Build a position on Overlay with OVL collateral",
        "params": {
          "_collateral": "The amount of OVL to use as collateral in the position",
          "_isLong": "Whether to take out a position on the long or short side",
          "_leverage": "The amount of leverage to use in the position",
          "_market": "The address of the desired market to interact with"
        },
        "returns": {
          "positionId_": "Id of the built position for on chain convenience"
        }
      },
      "constructor": {
        "details": "Creates a `Position.Info` struct and appends it to `positions` array to track them",
        "notice": "Constructor method",
        "params": {
          "_mothership": "OverlayV1Mothership contract address",
          "_uri": "Unique Resource Identifier of a token"
        }
      },
      "disburse()": {
        "notice": "Disburses fees"
      },
      "exists(uint256)": {
        "details": "Indicates weither any token exist with a given id, or not."
      },
      "isApprovedForAll(address,address)": {
        "details": "See {IERC1155-isApprovedForAll}."
      },
      "liquidate(uint256,address)": {
        "details": "Interacts with an Overlay Market to exit all open interest associated with a liquidatable positoin.",
        "notice": "Liquidates an existing position.",
        "params": {
          "_positionId": "ID of the position being liquidated.",
          "_rewardsTo": "Address to send liquidation reward to."
        }
      },
      "safeBatchTransferFrom(address,address,uint256[],uint256[],bytes)": {
        "details": "See {IERC1155-safeBatchTransferFrom}."
      },
      "safeTransferFrom(address,address,uint256,uint256,bytes)": {
        "details": "See {IERC1155-safeTransferFrom}."
      },
      "setApprovalForAll(address,bool)": {
        "details": "See {IERC1155-setApprovalForAll}."
      },
      "setMarketInfo(address,uint256,uint256,uint256)": {
        "details": "Only the Governor can set market infoAdds market information to the `marketInfo` mapping",
        "notice": "Sets market information",
        "params": {
          "_marginMaintenance": "maintenance margin",
          "_marginRewardRate": "margin reward rate",
          "_market": "Overlay Market contract address",
          "_maxLeverage": "maximum leverage amount"
        }
      },
      "supportsInterface(bytes4)": {
        "details": "See {IERC165-supportsInterface}."
      },
      "totalSupply(uint256)": {
        "details": "Total amount of tokens in with a given id."
      },
      "unwind(uint256,uint256)": {
        "details": "Interacts with a market contract to realize the PnL on a position.",
        "notice": "Unwinds shares of an existing position.",
        "params": {
          "_positionId": "Id of the position to be unwound.",
          "_shares": "Number of shars to unwind from the position."
        }
      },
      "uri(uint256)": {
        "details": "See {IERC1155MetadataURI-uri}. This implementation returns the same URI for *all* token types. It relies on the token type ID substitution mechanism https://eips.ethereum.org/EIPS/eip-1155#metadata[defined in the EIP]. Clients calling this function must replace the `\\{id\\}` substring with the actual token type ID."
      },
      "value(uint256)": {
        "details": "Gets price frame, total open interest and total open interest sharesfrom an Overlay market.",
        "notice": "Retrieves required information from market contract to calculateposition value with.",
        "params": {
          "_positionId": "ID of position to determine value of"
        },
        "returns": {
          "value_": "Value of the position"
        }
      }
    },
    "version": 1
  },
  "opcodes": "PUSH1 0x80 PUSH1 0x40 MSTORE CALLVALUE DUP1 ISZERO PUSH2 0x10 JUMPI PUSH1 0x0 DUP1 REVERT JUMPDEST POP PUSH1 0x4 CALLDATASIZE LT PUSH2 0x1A2 JUMPI PUSH1 0x0 CALLDATALOAD PUSH1 0xE0 SHR DUP1 PUSH4 0x9A371C84 GT PUSH2 0xEE JUMPI DUP1 PUSH4 0xBD85B039 GT PUSH2 0x97 JUMPI DUP1 PUSH4 0xC5A46EE6 GT PUSH2 0x71 JUMPI DUP1 PUSH4 0xC5A46EE6 EQ PUSH2 0x457 JUMPI DUP1 PUSH4 0xE985E9C5 EQ PUSH2 0x46A JUMPI DUP1 PUSH4 0xF242432A EQ PUSH2 0x4A6 JUMPI DUP1 PUSH4 0xFFDBDB08 EQ PUSH2 0x4B9 JUMPI PUSH1 0x0 DUP1 REVERT JUMPDEST DUP1 PUSH4 0xBD85B039 EQ PUSH2 0x3C1 JUMPI DUP1 PUSH4 0xC0386611 EQ PUSH2 0x3E1 JUMPI DUP1 PUSH4 0xC4351386 EQ PUSH2 0x40D JUMPI PUSH1 0x0 DUP1 REVERT JUMPDEST DUP1 PUSH4 0xA750A585 GT PUSH2 0xC8 JUMPI DUP1 PUSH4 0xA750A585 EQ PUSH2 0x37F JUMPI DUP1 PUSH4 0xABC6FD0B EQ PUSH2 0x392 JUMPI DUP1 PUSH4 0xB29FA9C3 EQ PUSH2 0x39A JUMPI PUSH1 0x0 DUP1 REVERT JUMPDEST DUP1 PUSH4 0x9A371C84 EQ PUSH2 0x35A JUMPI DUP1 PUSH4 0x9AF1D35A EQ PUSH2 0x363 JUMPI DUP1 PUSH4 0xA22CB465 EQ PUSH2 0x36C JUMPI PUSH1 0x0 DUP1 REVERT JUMPDEST DUP1 PUSH4 0x4E1273F4 GT PUSH2 0x150 JUMPI DUP1 PUSH4 0x661B7AF2 GT PUSH2 0x12A JUMPI DUP1 PUSH4 0x661B7AF2 EQ PUSH2 0x2E2 JUMPI DUP1 PUSH4 0x96DFB05F EQ PUSH2 0x2F5 JUMPI DUP1 PUSH4 0x99FBAB88 EQ PUSH2 0x308 JUMPI PUSH1 0x0 DUP1 REVERT JUMPDEST DUP1 PUSH4 0x4E1273F4 EQ PUSH2 0x28D JUMPI DUP1 PUSH4 0x4F558E79 EQ PUSH2 0x2AD JUMPI DUP1 PUSH4 0x5FAE8B3D EQ PUSH2 0x2CF JUMPI PUSH1 0x0 DUP1 REVERT JUMPDEST DUP1 PUSH4 0x1BF87541 GT PUSH2 0x181 JUMPI DUP1 PUSH4 0x1BF87541 EQ PUSH2 0x210 JUMPI DUP1 PUSH4 0x2EB2C2D6 EQ PUSH2 0x239 JUMPI DUP1 PUSH4 0x4187B7D6 EQ PUSH2 0x24E JUMPI PUSH1 0x0 DUP1 REVERT JUMPDEST DUP1 PUSH3 0xFDD58E EQ PUSH2 0x1A7 JUMPI DUP1 PUSH4 0x1FFC9A7 EQ PUSH2 0x1CD JUMPI DUP1 PUSH4 0xE89341C EQ PUSH2 0x1F0 JUMPI JUMPDEST PUSH1 0x0 DUP1 REVERT JUMPDEST PUSH2 0x1BA PUSH2 0x1B5 CALLDATASIZE PUSH1 0x4 PUSH2 0x316A JUMP JUMPDEST PUSH2 0x4E5 JUMP JUMPDEST PUSH1 0x40 MLOAD SWAP1 DUP2 MSTORE PUSH1 0x20 ADD JUMPDEST PUSH1 0x40 MLOAD DUP1 SWAP2 SUB SWAP1 RETURN JUMPDEST PUSH2 0x1E0 PUSH2 0x1DB CALLDATASIZE PUSH1 0x4 PUSH2 0x3352 JUMP JUMPDEST PUSH2 0x57F JUMP JUMPDEST PUSH1 0x40 MLOAD SWAP1 ISZERO ISZERO DUP2 MSTORE PUSH1 0x20 ADD PUSH2 0x1C4 JUMP JUMPDEST PUSH2 0x203 PUSH2 0x1FE CALLDATASIZE PUSH1 0x4 PUSH2 0x338C JUMP JUMPDEST PUSH2 0x5CF JUMP JUMPDEST PUSH1 0x40 MLOAD PUSH2 0x1C4 SWAP2 SWAP1 PUSH2 0x35D3 JUMP JUMPDEST PUSH2 0x1BA PUSH2 0x21E CALLDATASIZE PUSH1 0x4 PUSH2 0x2FCF JUMP JUMPDEST PUSH1 0x1 PUSH1 0x1 PUSH1 0xA0 SHL SUB AND PUSH1 0x0 SWAP1 DUP2 MSTORE PUSH1 0x6 PUSH1 0x20 MSTORE PUSH1 0x40 SWAP1 KECCAK256 SLOAD SWAP1 JUMP JUMPDEST PUSH2 0x24C PUSH2 0x247 CALLDATASIZE PUSH1 0x4 PUSH2 0x3025 JUMP JUMPDEST PUSH2 0x663 JUMP JUMPDEST STOP JUMPDEST PUSH2 0x275 PUSH32 0x0 DUP2 JUMP JUMPDEST PUSH1 0x40 MLOAD PUSH1 0x1 PUSH1 0x1 PUSH1 0xA0 SHL SUB SWAP1 SWAP2 AND DUP2 MSTORE PUSH1 0x20 ADD PUSH2 0x1C4 JUMP JUMPDEST PUSH2 0x2A0 PUSH2 0x29B CALLDATASIZE PUSH1 0x4 PUSH2 0x3262 JUMP JUMPDEST PUSH2 0x705 JUMP JUMPDEST PUSH1 0x40 MLOAD PUSH2 0x1C4 SWAP2 SWAP1 PUSH2 0x359B JUMP JUMPDEST PUSH2 0x1E0 PUSH2 0x2BB CALLDATASIZE PUSH1 0x4 PUSH2 0x338C JUMP JUMPDEST PUSH1 0x0 SWAP1 DUP2 MSTORE PUSH1 0x3 PUSH1 0x20 MSTORE PUSH1 0x40 SWAP1 KECCAK256 SLOAD ISZERO ISZERO SWAP1 JUMP JUMPDEST PUSH2 0x24C PUSH2 0x2DD CALLDATASIZE PUSH1 0x4 PUSH2 0x33BE JUMP JUMPDEST PUSH2 0x82F JUMP JUMPDEST PUSH2 0x24C PUSH2 0x2F0 CALLDATASIZE PUSH1 0x4 PUSH2 0x31E8 JUMP JUMPDEST PUSH2 0xC66 JUMP JUMPDEST PUSH2 0x1BA PUSH2 0x303 CALLDATASIZE PUSH1 0x4 PUSH2 0x3196 JUMP JUMPDEST PUSH2 0xD88 JUMP JUMPDEST PUSH2 0x31B PUSH2 0x316 CALLDATASIZE PUSH1 0x4 PUSH2 0x338C JUMP JUMPDEST PUSH2 0x124B JUMP JUMPDEST PUSH1 0x40 DUP1 MLOAD PUSH1 0x1 PUSH1 0x1 PUSH1 0xA0 SHL SUB SWAP1 SWAP9 AND DUP9 MSTORE SWAP6 ISZERO ISZERO PUSH1 0x20 DUP9 ADD MSTORE SWAP5 DUP7 ADD SWAP4 SWAP1 SWAP4 MSTORE PUSH1 0x60 DUP6 ADD SWAP2 SWAP1 SWAP2 MSTORE PUSH1 0x80 DUP5 ADD MSTORE PUSH1 0xA0 DUP4 ADD MSTORE PUSH1 0xC0 DUP3 ADD MSTORE PUSH1 0xE0 ADD PUSH2 0x1C4 JUMP JUMPDEST PUSH2 0x1BA PUSH1 0x9 SLOAD DUP2 JUMP JUMPDEST PUSH2 0x1BA PUSH1 0x8 SLOAD DUP2 JUMP JUMPDEST PUSH2 0x24C PUSH2 0x37A CALLDATASIZE PUSH1 0x4 PUSH2 0x313C JUMP JUMPDEST PUSH2 0x12A8 JUMP JUMPDEST PUSH2 0x24C PUSH2 0x38D CALLDATASIZE PUSH1 0x4 PUSH2 0x33E3 JUMP JUMPDEST PUSH2 0x137F JUMP JUMPDEST PUSH2 0x24C PUSH2 0x19B4 JUMP JUMPDEST PUSH2 0x275 PUSH32 0x0 DUP2 JUMP JUMPDEST PUSH2 0x1BA PUSH2 0x3CF CALLDATASIZE PUSH1 0x4 PUSH2 0x338C JUMP JUMPDEST PUSH1 0x0 SWAP1 DUP2 MSTORE PUSH1 0x3 PUSH1 0x20 MSTORE PUSH1 0x40 SWAP1 KECCAK256 SLOAD SWAP1 JUMP JUMPDEST PUSH2 0x1BA PUSH2 0x3EF CALLDATASIZE PUSH1 0x4 PUSH2 0x2FCF JUMP JUMPDEST PUSH1 0x1 PUSH1 0x1 PUSH1 0xA0 SHL SUB AND PUSH1 0x0 SWAP1 DUP2 MSTORE PUSH1 0x6 PUSH1 0x20 MSTORE PUSH1 0x40 SWAP1 KECCAK256 PUSH1 0x2 ADD SLOAD SWAP1 JUMP JUMPDEST PUSH2 0x43C PUSH2 0x41B CALLDATASIZE PUSH1 0x4 PUSH2 0x2FCF JUMP JUMPDEST PUSH1 0x6 PUSH1 0x20 MSTORE PUSH1 0x0 SWAP1 DUP2 MSTORE PUSH1 0x40 SWAP1 KECCAK256 DUP1 SLOAD PUSH1 0x1 DUP3 ADD SLOAD PUSH1 0x2 SWAP1 SWAP3 ADD SLOAD SWAP1 SWAP2 SWAP1 DUP4 JUMP JUMPDEST PUSH1 0x40 DUP1 MLOAD SWAP4 DUP5 MSTORE PUSH1 0x20 DUP5 ADD SWAP3 SWAP1 SWAP3 MSTORE SWAP1 DUP3 ADD MSTORE PUSH1 0x60 ADD PUSH2 0x1C4 JUMP JUMPDEST PUSH2 0x1BA PUSH2 0x465 CALLDATASIZE PUSH1 0x4 PUSH2 0x338C JUMP JUMPDEST PUSH2 0x1C2F JUMP JUMPDEST PUSH2 0x1E0 PUSH2 0x478 CALLDATASIZE PUSH1 0x4 PUSH2 0x2FEC JUMP JUMPDEST PUSH1 0x1 PUSH1 0x1 PUSH1 0xA0 SHL SUB SWAP2 DUP3 AND PUSH1 0x0 SWAP1 DUP2 MSTORE PUSH1 0x1 PUSH1 0x20 SWAP1 DUP2 MSTORE PUSH1 0x40 DUP1 DUP4 KECCAK256 SWAP4 SWAP1 SWAP5 AND DUP3 MSTORE SWAP2 SWAP1 SWAP2 MSTORE KECCAK256 SLOAD PUSH1 0xFF AND SWAP1 JUMP JUMPDEST PUSH2 0x24C PUSH2 0x4B4 CALLDATASIZE PUSH1 0x4 PUSH2 0x30D3 JUMP JUMPDEST PUSH2 0x1D24 JUMP JUMPDEST PUSH2 0x1BA PUSH2 0x4C7 CALLDATASIZE PUSH1 0x4 PUSH2 0x2FCF JUMP JUMPDEST PUSH1 0x1 PUSH1 0x1 PUSH1 0xA0 SHL SUB AND PUSH1 0x0 SWAP1 DUP2 MSTORE PUSH1 0x6 PUSH1 0x20 MSTORE PUSH1 0x40 SWAP1 KECCAK256 PUSH1 0x1 ADD SLOAD SWAP1 JUMP JUMPDEST PUSH1 0x0 PUSH1 0x1 PUSH1 0x1 PUSH1 0xA0 SHL SUB DUP4 AND PUSH2 0x556 JUMPI PUSH1 0x40 MLOAD PUSH3 0x461BCD PUSH1 0xE5 SHL DUP2 MSTORE PUSH1 0x20 PUSH1 0x4 DUP3 ADD MSTORE PUSH1 0x2B PUSH1 0x24 DUP3 ADD MSTORE PUSH32 0x455243313135353A2062616C616E636520717565727920666F7220746865207A PUSH1 0x44 DUP3 ADD MSTORE PUSH11 0x65726F2061646472657373 PUSH1 0xA8 SHL PUSH1 0x64 DUP3 ADD MSTORE PUSH1 0x84 ADD JUMPDEST PUSH1 0x40 MLOAD DUP1 SWAP2 SUB SWAP1 REVERT JUMPDEST POP PUSH1 0x0 DUP2 DUP2 MSTORE PUSH1 0x20 DUP2 DUP2 MSTORE PUSH1 0x40 DUP1 DUP4 KECCAK256 PUSH1 0x1 PUSH1 0x1 PUSH1 0xA0 SHL SUB DUP7 AND DUP5 MSTORE SWAP1 SWAP2 MSTORE SWAP1 KECCAK256 SLOAD JUMPDEST SWAP3 SWAP2 POP POP JUMP JUMPDEST PUSH1 0x0 PUSH1 0x1 PUSH1 0x1 PUSH1 0xE0 SHL SUB NOT DUP3 AND PUSH4 0x6CDB3D13 PUSH1 0xE1 SHL EQ DUP1 PUSH2 0x5B0 JUMPI POP PUSH1 0x1 PUSH1 0x1 PUSH1 0xE0 SHL SUB NOT DUP3 AND PUSH4 0x3A24D07 PUSH1 0xE2 SHL EQ JUMPDEST DUP1 PUSH2 0x579 JUMPI POP PUSH4 0x1FFC9A7 PUSH1 0xE0 SHL PUSH1 0x1 PUSH1 0x1 PUSH1 0xE0 SHL SUB NOT DUP4 AND EQ PUSH2 0x579 JUMP JUMPDEST PUSH1 0x60 PUSH1 0x2 DUP1 SLOAD PUSH2 0x5DE SWAP1 PUSH2 0x367A JUMP JUMPDEST DUP1 PUSH1 0x1F ADD PUSH1 0x20 DUP1 SWAP2 DIV MUL PUSH1 0x20 ADD PUSH1 0x40 MLOAD SWAP1 DUP2 ADD PUSH1 0x40 MSTORE DUP1 SWAP3 SWAP2 SWAP1 DUP2 DUP2 MSTORE PUSH1 0x20 ADD DUP3 DUP1 SLOAD PUSH2 0x60A SWAP1 PUSH2 0x367A JUMP JUMPDEST DUP1 ISZERO PUSH2 0x657 JUMPI DUP1 PUSH1 0x1F LT PUSH2 0x62C JUMPI PUSH2 0x100 DUP1 DUP4 SLOAD DIV MUL DUP4 MSTORE SWAP2 PUSH1 0x20 ADD SWAP2 PUSH2 0x657 JUMP JUMPDEST DUP3 ADD SWAP2 SWAP1 PUSH1 0x0 MSTORE PUSH1 0x20 PUSH1 0x0 KECCAK256 SWAP1 JUMPDEST DUP2 SLOAD DUP2 MSTORE SWAP1 PUSH1 0x1 ADD SWAP1 PUSH1 0x20 ADD DUP1 DUP4 GT PUSH2 0x63A JUMPI DUP3 SWAP1 SUB PUSH1 0x1F AND DUP3 ADD SWAP2 JUMPDEST POP POP POP POP POP SWAP1 POP SWAP2 SWAP1 POP JUMP JUMPDEST PUSH1 0x1 PUSH1 0x1 PUSH1 0xA0 SHL SUB DUP6 AND CALLER EQ DUP1 PUSH2 0x67F JUMPI POP PUSH2 0x67F DUP6 CALLER PUSH2 0x478 JUMP JUMPDEST PUSH2 0x6F1 JUMPI PUSH1 0x40 MLOAD PUSH3 0x461BCD PUSH1 0xE5 SHL DUP2 MSTORE PUSH1 0x20 PUSH1 0x4 DUP3 ADD MSTORE PUSH1 0x32 PUSH1 0x24 DUP3 ADD MSTORE PUSH32 0x455243313135353A207472616E736665722063616C6C6572206973206E6F7420 PUSH1 0x44 DUP3 ADD MSTORE PUSH32 0x6F776E6572206E6F7220617070726F7665640000000000000000000000000000 PUSH1 0x64 DUP3 ADD MSTORE PUSH1 0x84 ADD PUSH2 0x54D JUMP JUMPDEST PUSH2 0x6FE DUP6 DUP6 DUP6 DUP6 DUP6 PUSH2 0x1DAB JUMP JUMPDEST POP POP POP POP POP JUMP JUMPDEST PUSH1 0x60 DUP2 MLOAD DUP4 MLOAD EQ PUSH2 0x76A JUMPI PUSH1 0x40 MLOAD PUSH3 0x461BCD PUSH1 0xE5 SHL DUP2 MSTORE PUSH1 0x20 PUSH1 0x4 DUP3 ADD MSTORE PUSH1 0x29 PUSH1 0x24 DUP3 ADD MSTORE PUSH32 0x455243313135353A206163636F756E747320616E6420696473206C656E677468 PUSH1 0x44 DUP3 ADD MSTORE PUSH9 0x40DAD2E6DAC2E8C6D PUSH1 0xBB SHL PUSH1 0x64 DUP3 ADD MSTORE PUSH1 0x84 ADD PUSH2 0x54D JUMP JUMPDEST PUSH1 0x0 DUP4 MLOAD PUSH8 0xFFFFFFFFFFFFFFFF DUP2 GT ISZERO PUSH2 0x786 JUMPI PUSH2 0x786 PUSH2 0x3729 JUMP JUMPDEST PUSH1 0x40 MLOAD SWAP1 DUP1 DUP3 MSTORE DUP1 PUSH1 0x20 MUL PUSH1 0x20 ADD DUP3 ADD PUSH1 0x40 MSTORE DUP1 ISZERO PUSH2 0x7AF JUMPI DUP2 PUSH1 0x20 ADD PUSH1 0x20 DUP3 MUL DUP1 CALLDATASIZE DUP4 CALLDATACOPY ADD SWAP1 POP JUMPDEST POP SWAP1 POP PUSH1 0x0 JUMPDEST DUP5 MLOAD DUP2 LT ISZERO PUSH2 0x827 JUMPI PUSH2 0x7FA DUP6 DUP3 DUP2 MLOAD DUP2 LT PUSH2 0x7D3 JUMPI PUSH2 0x7D3 PUSH2 0x3713 JUMP JUMPDEST PUSH1 0x20 MUL PUSH1 0x20 ADD ADD MLOAD DUP6 DUP4 DUP2 MLOAD DUP2 LT PUSH2 0x7ED JUMPI PUSH2 0x7ED PUSH2 0x3713 JUMP JUMPDEST PUSH1 0x20 MUL PUSH1 0x20 ADD ADD MLOAD PUSH2 0x4E5 JUMP JUMPDEST DUP3 DUP3 DUP2 MLOAD DUP2 LT PUSH2 0x80C JUMPI PUSH2 0x80C PUSH2 0x3713 JUMP JUMPDEST PUSH1 0x20 SWAP1 DUP2 MUL SWAP2 SWAP1 SWAP2 ADD ADD MSTORE PUSH2 0x820 DUP2 PUSH2 0x36E2 JUMP JUMPDEST SWAP1 POP PUSH2 0x7B5 JUMP JUMPDEST POP SWAP4 SWAP3 POP POP POP JUMP JUMPDEST PUSH1 0x0 PUSH1 0x7 DUP4 DUP2 SLOAD DUP2 LT PUSH2 0x844 JUMPI PUSH2 0x844 PUSH2 0x3713 JUMP JUMPDEST SWAP1 PUSH1 0x0 MSTORE PUSH1 0x20 PUSH1 0x0 KECCAK256 SWAP1 PUSH1 0x6 MUL ADD SWAP1 POP DUP1 PUSH1 0x3 ADD SLOAD PUSH1 0x0 LT PUSH2 0x89B JUMPI PUSH1 0x40 MLOAD PUSH3 0x461BCD PUSH1 0xE5 SHL DUP2 MSTORE PUSH1 0x20 PUSH1 0x4 DUP3 ADD MSTORE PUSH1 0x10 PUSH1 0x24 DUP3 ADD MSTORE PUSH16 0x13D593158C4E9B1A5C5D5A59185D1959 PUSH1 0x82 SHL PUSH1 0x44 DUP3 ADD MSTORE PUSH1 0x64 ADD PUSH2 0x54D JUMP JUMPDEST DUP1 SLOAD PUSH1 0x2 DUP3 ADD SLOAD PUSH1 0x40 MLOAD PUSH4 0x200EAB69 PUSH1 0xE1 SHL DUP2 MSTORE PUSH1 0xFF PUSH1 0x1 PUSH1 0xA0 SHL DUP5 DIV AND SWAP3 PUSH1 0x0 SWAP3 DUP4 SWAP3 DUP4 SWAP3 PUSH1 0x1 PUSH1 0x1 PUSH1 0xA0 SHL SUB AND SWAP2 PUSH4 0x401D56D2 SWAP2 PUSH2 0x8EA SWAP2 DUP9 SWAP2 PUSH1 0x4 ADD SWAP2 ISZERO ISZERO DUP3 MSTORE PUSH1 0x20 DUP3 ADD MSTORE PUSH1 0x40 ADD SWAP1 JUMP JUMPDEST PUSH1 0x60 PUSH1 0x40 MLOAD DUP1 DUP4 SUB DUP2 PUSH1 0x0 DUP8 DUP1 EXTCODESIZE ISZERO DUP1 ISZERO PUSH2 0x904 JUMPI PUSH1 0x0 DUP1 REVERT JUMPDEST POP GAS CALL ISZERO DUP1 ISZERO PUSH2 0x918 JUMPI RETURNDATASIZE PUSH1 0x0 DUP1 RETURNDATACOPY RETURNDATASIZE PUSH1 0x0 REVERT JUMPDEST POP POP POP POP PUSH1 0x40 MLOAD RETURNDATASIZE PUSH1 0x1F NOT PUSH1 0x1F DUP3 ADD AND DUP3 ADD DUP1 PUSH1 0x40 MSTORE POP DUP2 ADD SWAP1 PUSH2 0x93C SWAP2 SWAP1 PUSH2 0x3405 JUMP JUMPDEST DUP8 SLOAD PUSH1 0x1 PUSH1 0x1 PUSH1 0xA0 SHL SUB AND PUSH1 0x0 SWAP1 DUP2 MSTORE PUSH1 0x6 PUSH1 0x20 SWAP1 DUP2 MSTORE PUSH1 0x40 SWAP2 DUP3 SWAP1 KECCAK256 DUP3 MLOAD PUSH1 0x60 DUP2 ADD DUP5 MSTORE DUP2 SLOAD DUP1 DUP3 MSTORE PUSH1 0x1 DUP4 ADD SLOAD SWAP4 DUP3 ADD SWAP4 SWAP1 SWAP4 MSTORE PUSH1 0x2 SWAP1 SWAP2 ADD SLOAD SWAP3 DUP2 ADD SWAP3 SWAP1 SWAP3 MSTORE SWAP4 SWAP7 POP SWAP2 SWAP5 POP SWAP3 POP SWAP1 PUSH2 0x999 SWAP1 DUP8 SWAP1 DUP7 SWAP1 DUP7 SWAP1 DUP7 SWAP1 PUSH2 0x2017 JUMP JUMPDEST PUSH2 0x9E5 JUMPI PUSH1 0x40 MLOAD PUSH3 0x461BCD PUSH1 0xE5 SHL DUP2 MSTORE PUSH1 0x20 PUSH1 0x4 DUP3 ADD MSTORE PUSH1 0x13 PUSH1 0x24 DUP3 ADD MSTORE PUSH32 0x4F564C56313A216C6971756964617461626C6500000000000000000000000000 PUSH1 0x44 DUP3 ADD MSTORE PUSH1 0x64 ADD PUSH2 0x54D JUMP JUMPDEST PUSH1 0x0 PUSH2 0x9F3 DUP8 DUP7 DUP7 DUP7 PUSH2 0x2084 JUMP JUMPDEST DUP8 SLOAD SWAP1 SWAP2 POP PUSH1 0x1 PUSH1 0x1 PUSH1 0xA0 SHL SUB AND PUSH4 0xE8FD2B77 DUP8 PUSH2 0xA12 DUP11 DUP10 DUP10 PUSH2 0x20FA JUMP JUMPDEST DUP11 PUSH1 0x3 ADD SLOAD PUSH1 0x0 DUP7 DUP14 PUSH1 0x5 ADD SLOAD PUSH2 0xA29 SWAP2 SWAP1 PUSH2 0x3663 JUMP JUMPDEST PUSH1 0x40 MLOAD PUSH1 0x1 PUSH1 0x1 PUSH1 0xE0 SHL SUB NOT PUSH1 0xE0 DUP9 SWAP1 SHL AND DUP2 MSTORE SWAP5 ISZERO ISZERO PUSH1 0x4 DUP7 ADD MSTORE PUSH1 0x24 DUP6 ADD SWAP4 SWAP1 SWAP4 MSTORE PUSH1 0x44 DUP5 ADD SWAP2 SWAP1 SWAP2 MSTORE PUSH1 0x64 DUP4 ADD MSTORE PUSH1 0x84 DUP3 ADD MSTORE PUSH1 0xA4 ADD PUSH1 0x0 PUSH1 0x40 MLOAD DUP1 DUP4 SUB DUP2 PUSH1 0x0 DUP8 DUP1 EXTCODESIZE ISZERO DUP1 ISZERO PUSH2 0xA7C JUMPI PUSH1 0x0 DUP1 REVERT JUMPDEST POP GAS CALL ISZERO DUP1 ISZERO PUSH2 0xA90 JUMPI RETURNDATASIZE PUSH1 0x0 DUP1 RETURNDATACOPY RETURNDATASIZE PUSH1 0x0 REVERT JUMPDEST POP POP PUSH1 0x0 PUSH1 0x3 DUP11 ADD DUP2 SWAP1 SSTORE PUSH1 0x4 DUP11 ADD DUP2 SWAP1 SSTORE PUSH1 0x20 DUP6 ADD MLOAD SWAP1 SWAP3 POP PUSH2 0xAB6 SWAP2 POP DUP4 SWAP1 PUSH2 0x216E JUMP JUMPDEST SWAP1 POP PUSH2 0xAC2 DUP2 DUP4 PUSH2 0x3663 JUMP JUMPDEST PUSH1 0x9 PUSH1 0x0 DUP3 DUP3 SLOAD PUSH2 0xAD3 SWAP2 SWAP1 PUSH2 0x360A JUMP JUMPDEST SWAP1 SWAP2 SSTORE POP POP PUSH1 0x40 DUP1 MLOAD DUP12 DUP2 MSTORE PUSH1 0x20 DUP2 ADD DUP9 SWAP1 MSTORE SWAP1 DUP2 ADD DUP3 SWAP1 MSTORE PUSH1 0x1 PUSH1 0x1 PUSH1 0xA0 SHL SUB DUP11 AND PUSH1 0x60 DUP3 ADD MSTORE PUSH32 0xA7DEA6636C8DA6757BEDCE766781FD072194B0E21C1BC9E1278495B571B850B1 SWAP1 PUSH1 0x80 ADD PUSH1 0x40 MLOAD DUP1 SWAP2 SUB SWAP1 LOG1 PUSH32 0x0 PUSH1 0x1 PUSH1 0x1 PUSH1 0xA0 SHL SUB AND PUSH4 0x42966C68 DUP4 DUP11 PUSH1 0x5 ADD SLOAD PUSH2 0xB67 SWAP2 SWAP1 PUSH2 0x3663 JUMP JUMPDEST PUSH1 0x40 MLOAD DUP3 PUSH4 0xFFFFFFFF AND PUSH1 0xE0 SHL DUP2 MSTORE PUSH1 0x4 ADD PUSH2 0xB85 SWAP2 DUP2 MSTORE PUSH1 0x20 ADD SWAP1 JUMP JUMPDEST PUSH1 0x0 PUSH1 0x40 MLOAD DUP1 DUP4 SUB DUP2 PUSH1 0x0 DUP8 DUP1 EXTCODESIZE ISZERO DUP1 ISZERO PUSH2 0xB9F JUMPI PUSH1 0x0 DUP1 REVERT JUMPDEST POP GAS CALL ISZERO DUP1 ISZERO PUSH2 0xBB3 JUMPI RETURNDATASIZE PUSH1 0x0 DUP1 RETURNDATACOPY RETURNDATASIZE PUSH1 0x0 REVERT JUMPDEST POP POP PUSH1 0x40 MLOAD PUSH4 0xA9059CBB PUSH1 0xE0 SHL DUP2 MSTORE PUSH1 0x1 PUSH1 0x1 PUSH1 0xA0 SHL SUB DUP13 DUP2 AND PUSH1 0x4 DUP4 ADD MSTORE PUSH1 0x24 DUP3 ADD DUP6 SWAP1 MSTORE PUSH32 0x0 AND SWAP3 POP PUSH4 0xA9059CBB SWAP2 POP PUSH1 0x44 ADD PUSH1 0x20 PUSH1 0x40 MLOAD DUP1 DUP4 SUB DUP2 PUSH1 0x0 DUP8 DUP1 EXTCODESIZE ISZERO DUP1 ISZERO PUSH2 0xC21 JUMPI PUSH1 0x0 DUP1 REVERT JUMPDEST POP GAS CALL ISZERO DUP1 ISZERO PUSH2 0xC35 JUMPI RETURNDATASIZE PUSH1 0x0 DUP1 RETURNDATACOPY RETURNDATASIZE PUSH1 0x0 REVERT JUMPDEST POP POP POP POP PUSH1 0x40 MLOAD RETURNDATASIZE PUSH1 0x1F NOT PUSH1 0x1F DUP3 ADD AND DUP3 ADD DUP1 PUSH1 0x40 MSTORE POP DUP2 ADD SWAP1 PUSH2 0xC59 SWAP2 SWAP1 PUSH2 0x3335 JUMP JUMPDEST POP POP POP POP POP POP POP POP POP POP POP JUMP JUMPDEST PUSH1 0x40 MLOAD PUSH4 0x24745215 PUSH1 0xE2 SHL DUP2 MSTORE PUSH32 0x1A6838EFA4183E08FE3607359D1259272AF9D4716F65E1A7B5921F78FD5A3C6A PUSH1 0x4 DUP3 ADD MSTORE CALLER PUSH1 0x24 DUP3 ADD MSTORE PUSH32 0x0 PUSH1 0x1 PUSH1 0x1 PUSH1 0xA0 SHL SUB AND SWAP1 PUSH4 0x91D14854 SWAP1 PUSH1 0x44 ADD PUSH1 0x20 PUSH1 0x40 MLOAD DUP1 DUP4 SUB DUP2 DUP7 DUP1 EXTCODESIZE ISZERO DUP1 ISZERO PUSH2 0xCEB JUMPI PUSH1 0x0 DUP1 REVERT JUMPDEST POP GAS STATICCALL ISZERO DUP1 ISZERO PUSH2 0xCFF JUMPI RETURNDATASIZE PUSH1 0x0 DUP1 RETURNDATACOPY RETURNDATASIZE PUSH1 0x0 REVERT JUMPDEST POP POP POP POP PUSH1 0x40 MLOAD RETURNDATASIZE PUSH1 0x1F NOT PUSH1 0x1F DUP3 ADD AND DUP3 ADD DUP1 PUSH1 0x40 MSTORE POP DUP2 ADD SWAP1 PUSH2 0xD23 SWAP2 SWAP1 PUSH2 0x3335 JUMP JUMPDEST PUSH2 0xD61 JUMPI PUSH1 0x40 MLOAD PUSH3 0x461BCD PUSH1 0xE5 SHL DUP2 MSTORE PUSH1 0x20 PUSH1 0x4 DUP3 ADD MSTORE PUSH1 0xF PUSH1 0x24 DUP3 ADD MSTORE PUSH15 0x27AB262B189D10B3B7BB32B93737B9 PUSH1 0x89 SHL PUSH1 0x44 DUP3 ADD MSTORE PUSH1 0x64 ADD PUSH2 0x54D JUMP JUMPDEST PUSH1 0x1 PUSH1 0x1 PUSH1 0xA0 SHL SUB SWAP1 SWAP4 AND PUSH1 0x0 SWAP1 DUP2 MSTORE PUSH1 0x6 PUSH1 0x20 MSTORE PUSH1 0x40 SWAP1 KECCAK256 SWAP2 DUP3 SSTORE PUSH1 0x1 DUP3 ADD SSTORE PUSH1 0x2 ADD SSTORE JUMP JUMPDEST PUSH1 0x40 MLOAD PUSH4 0xEEEC7D6F PUSH1 0xE0 SHL DUP2 MSTORE PUSH1 0x1 PUSH1 0x1 PUSH1 0xA0 SHL SUB DUP7 DUP2 AND PUSH1 0x4 DUP4 ADD MSTORE PUSH1 0x0 SWAP2 PUSH32 0x0 SWAP1 SWAP2 AND SWAP1 PUSH4 0xEEEC7D6F SWAP1 PUSH1 0x24 ADD PUSH1 0x20 PUSH1 0x40 MLOAD DUP1 DUP4 SUB DUP2 DUP7 DUP1 EXTCODESIZE ISZERO DUP1 ISZERO PUSH2 0xDEE JUMPI PUSH1 0x0 DUP1 REVERT JUMPDEST POP GAS STATICCALL ISZERO DUP1 ISZERO PUSH2 0xE02 JUMPI RETURNDATASIZE PUSH1 0x0 DUP1 RETURNDATACOPY RETURNDATASIZE PUSH1 0x0 REVERT JUMPDEST POP POP POP POP PUSH1 0x40 MLOAD RETURNDATASIZE PUSH1 0x1F NOT PUSH1 0x1F DUP3 ADD AND DUP3 ADD DUP1 PUSH1 0x40 MSTORE POP DUP2 ADD SWAP1 PUSH2 0xE26 SWAP2 SWAP1 PUSH2 0x3335 JUMP JUMPDEST PUSH2 0xE62 JUMPI PUSH1 0x40 MLOAD PUSH3 0x461BCD PUSH1 0xE5 SHL DUP2 MSTORE PUSH1 0x20 PUSH1 0x4 DUP3 ADD MSTORE PUSH1 0xD PUSH1 0x24 DUP3 ADD MSTORE PUSH13 0x13D593158C4E885B585C9AD95D PUSH1 0x9A SHL PUSH1 0x44 DUP3 ADD MSTORE PUSH1 0x64 ADD PUSH2 0x54D JUMP JUMPDEST PUSH1 0x1 PUSH1 0x1 PUSH1 0xA0 SHL SUB DUP7 AND PUSH1 0x0 SWAP1 DUP2 MSTORE PUSH1 0x6 PUSH1 0x20 MSTORE PUSH1 0x40 SWAP1 KECCAK256 PUSH1 0x2 ADD SLOAD DUP5 GT ISZERO PUSH2 0xEBD JUMPI PUSH1 0x40 MLOAD PUSH3 0x461BCD PUSH1 0xE5 SHL DUP2 MSTORE PUSH1 0x20 PUSH1 0x4 DUP3 ADD MSTORE PUSH1 0xD PUSH1 0x24 DUP3 ADD MSTORE PUSH13 0x9EAC98AC6274D8CAEC7CDAC2F PUSH1 0x9B SHL PUSH1 0x44 DUP3 ADD MSTORE PUSH1 0x64 ADD PUSH2 0x54D JUMP JUMPDEST DUP4 PUSH2 0xEF9 JUMPI PUSH1 0x40 MLOAD PUSH3 0x461BCD PUSH1 0xE5 SHL DUP2 MSTORE PUSH1 0x20 PUSH1 0x4 DUP3 ADD MSTORE PUSH1 0xC PUSH1 0x24 DUP3 ADD MSTORE PUSH12 0x4F564C56313A6C65763D3D3 PUSH1 0xA4 SHL PUSH1 0x44 DUP3 ADD MSTORE PUSH1 0x64 ADD PUSH2 0x54D JUMP JUMPDEST PUSH1 0x40 MLOAD PUSH4 0xF293839 PUSH1 0xE0 SHL DUP2 MSTORE DUP4 ISZERO ISZERO PUSH1 0x4 DUP3 ADD MSTORE PUSH1 0x24 DUP2 ADD DUP7 SWAP1 MSTORE PUSH1 0x44 DUP2 ADD DUP6 SWAP1 MSTORE PUSH1 0x0 SWAP1 DUP2 SWAP1 DUP2 SWAP1 DUP2 SWAP1 DUP2 SWAP1 DUP2 SWAP1 PUSH1 0x1 PUSH1 0x1 PUSH1 0xA0 SHL SUB DUP14 AND SWAP1 PUSH4 0xF293839 SWAP1 PUSH1 0x64 ADD PUSH1 0xC0 PUSH1 0x40 MLOAD DUP1 DUP4 SUB DUP2 PUSH1 0x0 DUP8 DUP1 EXTCODESIZE ISZERO DUP1 ISZERO PUSH2 0xF57 JUMPI PUSH1 0x0 DUP1 REVERT JUMPDEST POP GAS CALL ISZERO DUP1 ISZERO PUSH2 0xF6B JUMPI RETURNDATASIZE PUSH1 0x0 DUP1 RETURNDATACOPY RETURNDATASIZE PUSH1 0x0 REVERT JUMPDEST POP POP POP POP PUSH1 0x40 MLOAD RETURNDATASIZE PUSH1 0x1F NOT PUSH1 0x1F DUP3 ADD AND DUP3 ADD DUP1 PUSH1 0x40 MSTORE POP DUP2 ADD SWAP1 PUSH2 0xF8F SWAP2 SWAP1 PUSH2 0x3433 JUMP JUMPDEST SWAP6 POP SWAP6 POP SWAP6 POP SWAP6 POP SWAP6 POP SWAP6 POP DUP8 DUP7 LT ISZERO PUSH2 0xFDA JUMPI PUSH1 0x40 MLOAD PUSH3 0x461BCD PUSH1 0xE5 SHL DUP2 MSTORE PUSH1 0x20 PUSH1 0x4 DUP3 ADD MSTORE PUSH1 0xC PUSH1 0x24 DUP3 ADD MSTORE PUSH12 0x27AB262B189D37B49E36B4B7 PUSH1 0xA1 SHL PUSH1 0x44 DUP3 ADD MSTORE PUSH1 0x64 ADD PUSH2 0x54D JUMP JUMPDEST PUSH1 0x0 PUSH2 0xFE8 DUP14 DUP12 DUP14 DUP6 PUSH2 0x21DC JUMP JUMPDEST SWAP1 POP PUSH1 0x0 PUSH1 0x7 DUP3 DUP2 SLOAD DUP2 LT PUSH2 0xFFF JUMPI PUSH2 0xFFF PUSH2 0x3713 JUMP JUMPDEST SWAP1 PUSH1 0x0 MSTORE PUSH1 0x20 PUSH1 0x0 KECCAK256 SWAP1 PUSH1 0x6 MUL ADD SWAP1 POP DUP8 DUP2 PUSH1 0x3 ADD PUSH1 0x0 DUP3 DUP3 SLOAD PUSH2 0x1023 SWAP2 SWAP1 PUSH2 0x360A JUMP JUMPDEST SWAP3 POP POP DUP2 SWAP1 SSTORE POP DUP7 DUP2 PUSH1 0x5 ADD PUSH1 0x0 DUP3 DUP3 SLOAD PUSH2 0x103E SWAP2 SWAP1 PUSH2 0x360A JUMP JUMPDEST SWAP3 POP POP DUP2 SWAP1 SSTORE POP DUP6 DUP2 PUSH1 0x4 ADD PUSH1 0x0 DUP3 DUP3 SLOAD PUSH2 0x1059 SWAP2 SWAP1 PUSH2 0x360A JUMP JUMPDEST SWAP3 POP POP DUP2 SWAP1 SSTORE POP DUP5 PUSH1 0x8 PUSH1 0x0 DUP3 DUP3 SLOAD PUSH2 0x1072 SWAP2 SWAP1 PUSH2 0x360A JUMP JUMPDEST SWAP3 POP POP DUP2 SWAP1 SSTORE POP PUSH32 0x428B559DEB78AE264F175A82B90ECAC7F28ACC5C0BBCE329463BCF94AA5FFD53 DUP15 DUP4 DUP11 DUP10 PUSH1 0x40 MLOAD PUSH2 0x10CF SWAP5 SWAP4 SWAP3 SWAP2 SWAP1 PUSH1 0x1 PUSH1 0x1 PUSH1 0xA0 SHL SUB SWAP5 SWAP1 SWAP5 AND DUP5 MSTORE PUSH1 0x20 DUP5 ADD SWAP3 SWAP1 SWAP3 MSTORE PUSH1 0x40 DUP4 ADD MSTORE PUSH1 0x60 DUP3 ADD MSTORE PUSH1 0x80 ADD SWAP1 JUMP JUMPDEST PUSH1 0x40 MLOAD DUP1 SWAP2 SUB SWAP1 LOG1 PUSH1 0x1 PUSH1 0x1 PUSH1 0xA0 SHL SUB PUSH32 0x0 AND PUSH4 0x23B872DD CALLER ADDRESS DUP9 PUSH2 0x1113 DUP10 DUP14 PUSH2 0x360A JUMP JUMPDEST PUSH2 0x111D SWAP2 SWAP1 PUSH2 0x360A JUMP JUMPDEST PUSH1 0x40 MLOAD PUSH1 0x1 PUSH1 0x1 PUSH1 0xE0 SHL SUB NOT PUSH1 0xE0 DUP7 SWAP1 SHL AND DUP2 MSTORE PUSH1 0x1 PUSH1 0x1 PUSH1 0xA0 SHL SUB SWAP4 DUP5 AND PUSH1 0x4 DUP3 ADD MSTORE SWAP3 SWAP1 SWAP2 AND PUSH1 0x24 DUP4 ADD MSTORE PUSH1 0x44 DUP3 ADD MSTORE PUSH1 0x64 ADD PUSH1 0x20 PUSH1 0x40 MLOAD DUP1 DUP4 SUB DUP2 PUSH1 0x0 DUP8 DUP1 EXTCODESIZE ISZERO DUP1 ISZERO PUSH2 0x116C JUMPI PUSH1 0x0 DUP1 REVERT JUMPDEST POP GAS CALL ISZERO DUP1 ISZERO PUSH2 0x1180 JUMPI RETURNDATASIZE PUSH1 0x0 DUP1 RETURNDATACOPY RETURNDATASIZE PUSH1 0x0 REVERT JUMPDEST POP POP POP POP PUSH1 0x40 MLOAD RETURNDATASIZE PUSH1 0x1F NOT PUSH1 0x1F DUP3 ADD AND DUP3 ADD DUP1 PUSH1 0x40 MSTORE POP DUP2 ADD SWAP1 PUSH2 0x11A4 SWAP2 SWAP1 PUSH2 0x3335 JUMP JUMPDEST POP PUSH1 0x40 MLOAD PUSH4 0x852CD8D PUSH1 0xE3 SHL DUP2 MSTORE PUSH1 0x4 DUP2 ADD DUP6 SWAP1 MSTORE PUSH32 0x0 PUSH1 0x1 PUSH1 0x1 PUSH1 0xA0 SHL SUB AND SWAP1 PUSH4 0x42966C68 SWAP1 PUSH1 0x24 ADD PUSH1 0x0 PUSH1 0x40 MLOAD DUP1 DUP4 SUB DUP2 PUSH1 0x0 DUP8 DUP1 EXTCODESIZE ISZERO DUP1 ISZERO PUSH2 0x1207 JUMPI PUSH1 0x0 DUP1 REVERT JUMPDEST POP GAS CALL ISZERO DUP1 ISZERO PUSH2 0x121B JUMPI RETURNDATASIZE PUSH1 0x0 DUP1 RETURNDATACOPY RETURNDATASIZE PUSH1 0x0 REVERT JUMPDEST POP POP POP POP PUSH2 0x123A CALLER DUP4 DUP11 PUSH1 0x40 MLOAD DUP1 PUSH1 0x20 ADD PUSH1 0x40 MSTORE DUP1 PUSH1 0x0 DUP2 MSTORE POP PUSH2 0x2401 JUMP JUMPDEST POP SWAP13 SWAP12 POP POP POP POP POP POP POP POP POP POP POP POP JUMP JUMPDEST PUSH1 0x7 DUP2 DUP2 SLOAD DUP2 LT PUSH2 0x125B JUMPI PUSH1 0x0 DUP1 REVERT JUMPDEST PUSH1 0x0 SWAP2 DUP3 MSTORE PUSH1 0x20 SWAP1 SWAP2 KECCAK256 PUSH1 0x6 SWAP1 SWAP2 MUL ADD DUP1 SLOAD PUSH1 0x1 DUP3 ADD SLOAD PUSH1 0x2 DUP4 ADD SLOAD PUSH1 0x3 DUP5 ADD SLOAD PUSH1 0x4 DUP6 ADD SLOAD PUSH1 0x5 SWAP1 SWAP6 ADD SLOAD PUSH1 0x1 PUSH1 0x1 PUSH1 0xA0 SHL SUB DUP6 AND SWAP7 POP PUSH1 0x1 PUSH1 0xA0 SHL SWAP1 SWAP5 DIV PUSH1 0xFF AND SWAP5 SWAP3 SWAP4 SWAP2 SWAP3 SWAP1 SWAP2 DUP8 JUMP JUMPDEST CALLER PUSH1 0x1 PUSH1 0x1 PUSH1 0xA0 SHL SUB DUP4 AND EQ ISZERO PUSH2 0x1313 JUMPI PUSH1 0x40 MLOAD PUSH3 0x461BCD PUSH1 0xE5 SHL DUP2 MSTORE PUSH1 0x20 PUSH1 0x4 DUP3 ADD MSTORE PUSH1 0x29 PUSH1 0x24 DUP3 ADD MSTORE PUSH32 0x455243313135353A2073657474696E6720617070726F76616C20737461747573 PUSH1 0x44 DUP3 ADD MSTORE PUSH9 0x103337B91039B2B633 PUSH1 0xB9 SHL PUSH1 0x64 DUP3 ADD MSTORE PUSH1 0x84 ADD PUSH2 0x54D JUMP JUMPDEST CALLER PUSH1 0x0 DUP2 DUP2 MSTORE PUSH1 0x1 PUSH1 0x20 SWAP1 DUP2 MSTORE PUSH1 0x40 DUP1 DUP4 KECCAK256 PUSH1 0x1 PUSH1 0x1 PUSH1 0xA0 SHL SUB DUP8 AND DUP1 DUP6 MSTORE SWAP1 DUP4 MSTORE SWAP3 DUP2 SWAP1 KECCAK256 DUP1 SLOAD PUSH1 0xFF NOT AND DUP7 ISZERO ISZERO SWAP1 DUP2 OR SWAP1 SWAP2 SSTORE SWAP1 MLOAD SWAP1 DUP2 MSTORE SWAP2 SWAP3 SWAP2 PUSH32 0x17307EAB39AB6107E8899845AD3D59BD9653F200F220920489CA2B5937696C31 SWAP2 ADD PUSH1 0x40 MLOAD DUP1 SWAP2 SUB SWAP1 LOG3 POP POP JUMP JUMPDEST DUP1 PUSH1 0x0 LT DUP1 ISZERO PUSH2 0x1398 JUMPI POP PUSH2 0x1394 CALLER DUP4 PUSH2 0x4E5 JUMP JUMPDEST DUP2 GT ISZERO JUMPDEST PUSH2 0x13D4 JUMPI PUSH1 0x40 MLOAD PUSH3 0x461BCD PUSH1 0xE5 SHL DUP2 MSTORE PUSH1 0x20 PUSH1 0x4 DUP3 ADD MSTORE PUSH1 0xD PUSH1 0x24 DUP3 ADD MSTORE PUSH13 0x4F564C56313A21736861726573 PUSH1 0x98 SHL PUSH1 0x44 DUP3 ADD MSTORE PUSH1 0x64 ADD PUSH2 0x54D JUMP JUMPDEST PUSH1 0x0 PUSH1 0x7 DUP4 DUP2 SLOAD DUP2 LT PUSH2 0x13E9 JUMPI PUSH2 0x13E9 PUSH2 0x3713 JUMP JUMPDEST SWAP1 PUSH1 0x0 MSTORE PUSH1 0x20 PUSH1 0x0 KECCAK256 SWAP1 PUSH1 0x6 MUL ADD SWAP1 POP DUP1 PUSH1 0x3 ADD SLOAD PUSH1 0x0 LT PUSH2 0x1440 JUMPI PUSH1 0x40 MLOAD PUSH3 0x461BCD PUSH1 0xE5 SHL DUP2 MSTORE PUSH1 0x20 PUSH1 0x4 DUP3 ADD MSTORE PUSH1 0x10 PUSH1 0x24 DUP3 ADD MSTORE PUSH16 0x13D593158C4E9B1A5C5D5A59185D1959 PUSH1 0x82 SHL PUSH1 0x44 DUP3 ADD MSTORE PUSH1 0x64 ADD PUSH2 0x54D JUMP JUMPDEST DUP1 SLOAD PUSH1 0x2 DUP3 ADD SLOAD PUSH1 0x40 MLOAD PUSH4 0x200EAB69 PUSH1 0xE1 SHL DUP2 MSTORE PUSH1 0x1 PUSH1 0xA0 SHL DUP4 DIV PUSH1 0xFF AND ISZERO ISZERO PUSH1 0x4 DUP3 ADD MSTORE PUSH1 0x24 DUP2 ADD SWAP2 SWAP1 SWAP2 MSTORE PUSH1 0x0 SWAP2 DUP3 SWAP2 DUP3 SWAP2 PUSH1 0x1 PUSH1 0x1 PUSH1 0xA0 SHL SUB AND SWAP1 PUSH4 0x401D56D2 SWAP1 PUSH1 0x44 ADD PUSH1 0x60 PUSH1 0x40 MLOAD DUP1 DUP4 SUB DUP2 PUSH1 0x0 DUP8 DUP1 EXTCODESIZE ISZERO DUP1 ISZERO PUSH2 0x14A1 JUMPI PUSH1 0x0 DUP1 REVERT JUMPDEST POP GAS CALL ISZERO DUP1 ISZERO PUSH2 0x14B5 JUMPI RETURNDATASIZE PUSH1 0x0 DUP1 RETURNDATACOPY RETURNDATASIZE PUSH1 0x0 REVERT JUMPDEST POP POP POP POP PUSH1 0x40 MLOAD RETURNDATASIZE PUSH1 0x1F NOT PUSH1 0x1F DUP3 ADD AND DUP3 ADD DUP1 PUSH1 0x40 MSTORE POP DUP2 ADD SWAP1 PUSH2 0x14D9 SWAP2 SWAP1 PUSH2 0x3405 JUMP JUMPDEST PUSH1 0x3 DUP8 ADD SLOAD SWAP3 SWAP6 POP SWAP1 SWAP4 POP SWAP2 POP DUP6 PUSH1 0x0 DUP3 PUSH2 0x14F6 DUP9 DUP9 DUP9 DUP9 PUSH2 0x2511 JUMP JUMPDEST PUSH2 0x1500 SWAP1 DUP11 PUSH2 0x3644 JUMP JUMPDEST PUSH2 0x150A SWAP2 SWAP1 PUSH2 0x3622 JUMP JUMPDEST SWAP1 POP PUSH1 0x0 DUP4 DUP9 PUSH1 0x4 ADD SLOAD DUP11 PUSH2 0x151F SWAP2 SWAP1 PUSH2 0x3644 JUMP JUMPDEST PUSH2 0x1529 SWAP2 SWAP1 PUSH2 0x3622 JUMP JUMPDEST SWAP1 POP PUSH1 0x0 DUP5 DUP10 PUSH1 0x5 ADD SLOAD DUP12 PUSH2 0x153E SWAP2 SWAP1 PUSH2 0x3644 JUMP JUMPDEST PUSH2 0x1548 SWAP2 SWAP1 PUSH2 0x3622 JUMP JUMPDEST SWAP1 POP PUSH1 0x0 DUP6 PUSH2 0x1558 DUP12 DUP12 DUP12 PUSH2 0x20FA JUMP JUMPDEST PUSH2 0x1562 SWAP1 DUP14 PUSH2 0x3644 JUMP JUMPDEST PUSH2 0x156C SWAP2 SWAP1 PUSH2 0x3622 JUMP JUMPDEST DUP11 SLOAD PUSH1 0x40 DUP1 MLOAD PUSH1 0x1 PUSH1 0x1 PUSH1 0xA0 SHL SUB SWAP1 SWAP3 AND DUP3 MSTORE PUSH1 0x20 DUP3 ADD DUP16 SWAP1 MSTORE DUP2 ADD DUP3 SWAP1 MSTORE PUSH1 0x60 DUP2 ADD DUP6 SWAP1 MSTORE SWAP1 SWAP2 POP PUSH32 0xED2784480BDAB74064F940B0FBEAD975D5CE4F0936822552F3B893E1646B2237 SWAP1 PUSH1 0x80 ADD PUSH1 0x40 MLOAD DUP1 SWAP2 SUB SWAP1 LOG1 PUSH1 0x0 PUSH2 0x165F PUSH32 0x0 PUSH1 0x1 PUSH1 0x1 PUSH1 0xA0 SHL SUB AND PUSH4 0xDDCA3F43 PUSH1 0x40 MLOAD DUP2 PUSH4 0xFFFFFFFF AND PUSH1 0xE0 SHL DUP2 MSTORE PUSH1 0x4 ADD PUSH1 0x20 PUSH1 0x40 MLOAD DUP1 DUP4 SUB DUP2 DUP7 DUP1 EXTCODESIZE ISZERO DUP1 ISZERO PUSH2 0x1620 JUMPI PUSH1 0x0 DUP1 REVERT JUMPDEST POP GAS STATICCALL ISZERO DUP1 ISZERO PUSH2 0x1634 JUMPI RETURNDATASIZE PUSH1 0x0 DUP1 RETURNDATACOPY RETURNDATASIZE PUSH1 0x0 REVERT JUMPDEST POP POP POP POP PUSH1 0x40 MLOAD RETURNDATASIZE PUSH1 0x1F NOT PUSH1 0x1F DUP3 ADD AND DUP3 ADD DUP1 PUSH1 0x40 MSTORE POP DUP2 ADD SWAP1 PUSH2 0x1658 SWAP2 SWAP1 PUSH2 0x33A5 JUMP JUMPDEST DUP7 SWAP1 PUSH2 0x216E JUMP JUMPDEST SWAP1 POP PUSH1 0x0 PUSH2 0x166D DUP3 DUP8 PUSH2 0x3663 JUMP JUMPDEST SWAP1 POP DUP5 DUP2 GT ISZERO PUSH2 0x1688 JUMPI PUSH2 0x1681 DUP6 DUP3 PUSH2 0x3663 JUMP JUMPDEST SWAP1 POP PUSH2 0x16A6 JUMP JUMPDEST POP PUSH1 0x0 DUP5 DUP7 GT PUSH2 0x1699 JUMPI PUSH1 0x0 PUSH2 0x16A3 JUMP JUMPDEST PUSH2 0x16A3 DUP6 DUP8 PUSH2 0x3663 JUMP JUMPDEST SWAP2 POP JUMPDEST DUP2 PUSH1 0x8 PUSH1 0x0 DUP3 DUP3 SLOAD PUSH2 0x16B8 SWAP2 SWAP1 PUSH2 0x360A JUMP JUMPDEST SWAP3 POP POP DUP2 SWAP1 SSTORE POP DUP5 DUP13 PUSH1 0x4 ADD PUSH1 0x0 DUP3 DUP3 SLOAD PUSH2 0x16D3 SWAP2 SWAP1 PUSH2 0x3663 JUMP JUMPDEST SWAP3 POP POP DUP2 SWAP1 SSTORE POP DUP4 DUP13 PUSH1 0x5 ADD PUSH1 0x0 DUP3 DUP3 SLOAD PUSH2 0x16EE SWAP2 SWAP1 PUSH2 0x3663 JUMP JUMPDEST SWAP3 POP POP DUP2 SWAP1 SSTORE POP DUP7 DUP13 PUSH1 0x3 ADD PUSH1 0x0 DUP3 DUP3 SLOAD PUSH2 0x1709 SWAP2 SWAP1 PUSH2 0x3663 JUMP JUMPDEST SWAP1 SWAP2 SSTORE POP POP DUP12 SLOAD PUSH1 0x1 PUSH1 0x1 PUSH1 0xA0 SHL SUB DUP2 AND SWAP1 PUSH4 0xE8FD2B77 SWAP1 PUSH1 0x1 PUSH1 0xA0 SHL SWAP1 DIV PUSH1 0xFF AND DUP6 DUP11 DUP6 DUP10 LT PUSH2 0x173B JUMPI PUSH1 0x0 PUSH2 0x1745 JUMP JUMPDEST PUSH2 0x1745 DUP10 DUP8 PUSH2 0x3663 JUMP JUMPDEST DUP7 DUP11 LT PUSH2 0x175B JUMPI PUSH2 0x1756 DUP8 DUP12 PUSH2 0x3663 JUMP JUMPDEST PUSH2 0x175E JUMP JUMPDEST PUSH1 0x0 JUMPDEST PUSH1 0x40 MLOAD PUSH1 0x1 PUSH1 0x1 PUSH1 0xE0 SHL SUB NOT PUSH1 0xE0 DUP9 SWAP1 SHL AND DUP2 MSTORE SWAP5 ISZERO ISZERO PUSH1 0x4 DUP7 ADD MSTORE PUSH1 0x24 DUP6 ADD SWAP4 SWAP1 SWAP4 MSTORE PUSH1 0x44 DUP5 ADD SWAP2 SWAP1 SWAP2 MSTORE PUSH1 0x64 DUP4 ADD MSTORE PUSH1 0x84 DUP3 ADD MSTORE PUSH1 0xA4 ADD PUSH1 0x0 PUSH1 0x40 MLOAD DUP1 DUP4 SUB DUP2 PUSH1 0x0 DUP8 DUP1 EXTCODESIZE ISZERO DUP1 ISZERO PUSH2 0x17B1 JUMPI PUSH1 0x0 DUP1 REVERT JUMPDEST POP GAS CALL ISZERO DUP1 ISZERO PUSH2 0x17C5 JUMPI RETURNDATASIZE PUSH1 0x0 DUP1 RETURNDATACOPY RETURNDATASIZE PUSH1 0x0 REVERT JUMPDEST POP POP POP POP DUP1 DUP5 LT ISZERO PUSH2 0x186E JUMPI PUSH1 0x1 PUSH1 0x1 PUSH1 0xA0 SHL SUB PUSH32 0x0 AND PUSH4 0x40C10F19 ADDRESS PUSH2 0x180B DUP8 DUP6 PUSH2 0x3663 JUMP JUMPDEST PUSH1 0x40 MLOAD PUSH1 0x1 PUSH1 0x1 PUSH1 0xE0 SHL SUB NOT PUSH1 0xE0 DUP6 SWAP1 SHL AND DUP2 MSTORE PUSH1 0x1 PUSH1 0x1 PUSH1 0xA0 SHL SUB SWAP1 SWAP3 AND PUSH1 0x4 DUP4 ADD MSTORE PUSH1 0x24 DUP3 ADD MSTORE PUSH1 0x44 ADD PUSH1 0x0 PUSH1 0x40 MLOAD DUP1 DUP4 SUB DUP2 PUSH1 0x0 DUP8 DUP1 EXTCODESIZE ISZERO DUP1 ISZERO PUSH2 0x1851 JUMPI PUSH1 0x0 DUP1 REVERT JUMPDEST POP GAS CALL ISZERO DUP1 ISZERO PUSH2 0x1865 JUMPI RETURNDATASIZE PUSH1 0x0 DUP1 RETURNDATACOPY RETURNDATASIZE PUSH1 0x0 REVERT JUMPDEST POP POP POP POP PUSH2 0x18F8 JUMP JUMPDEST PUSH1 0x1 PUSH1 0x1 PUSH1 0xA0 SHL SUB PUSH32 0x0 AND PUSH4 0x42966C68 PUSH2 0x18A7 DUP4 DUP8 PUSH2 0x3663 JUMP JUMPDEST PUSH1 0x40 MLOAD DUP3 PUSH4 0xFFFFFFFF AND PUSH1 0xE0 SHL DUP2 MSTORE PUSH1 0x4 ADD PUSH2 0x18C5 SWAP2 DUP2 MSTORE PUSH1 0x20 ADD SWAP1 JUMP JUMPDEST PUSH1 0x0 PUSH1 0x40 MLOAD DUP1 DUP4 SUB DUP2 PUSH1 0x0 DUP8 DUP1 EXTCODESIZE ISZERO DUP1 ISZERO PUSH2 0x18DF JUMPI PUSH1 0x0 DUP1 REVERT JUMPDEST POP GAS CALL ISZERO DUP1 ISZERO PUSH2 0x18F3 JUMPI RETURNDATASIZE PUSH1 0x0 DUP1 RETURNDATACOPY RETURNDATASIZE PUSH1 0x0 REVERT JUMPDEST POP POP POP POP JUMPDEST PUSH1 0x40 MLOAD PUSH4 0xA9059CBB PUSH1 0xE0 SHL DUP2 MSTORE CALLER PUSH1 0x4 DUP3 ADD MSTORE PUSH1 0x24 DUP2 ADD DUP3 SWAP1 MSTORE PUSH32 0x0 PUSH1 0x1 PUSH1 0x1 PUSH1 0xA0 SHL SUB AND SWAP1 PUSH4 0xA9059CBB SWAP1 PUSH1 0x44 ADD PUSH1 0x20 PUSH1 0x40 MLOAD DUP1 DUP4 SUB DUP2 PUSH1 0x0 DUP8 DUP1 EXTCODESIZE ISZERO DUP1 ISZERO PUSH2 0x1960 JUMPI PUSH1 0x0 DUP1 REVERT JUMPDEST POP GAS CALL ISZERO DUP1 ISZERO PUSH2 0x1974 JUMPI RETURNDATASIZE PUSH1 0x0 DUP1 RETURNDATACOPY RETURNDATASIZE PUSH1 0x0 REVERT JUMPDEST POP POP POP POP PUSH1 0x40 MLOAD RETURNDATASIZE PUSH1 0x1F NOT PUSH1 0x1F DUP3 ADD AND DUP3 ADD DUP1 PUSH1 0x40 MSTORE POP DUP2 ADD SWAP1 PUSH2 0x1998 SWAP2 SWAP1 PUSH2 0x3335 JUMP JUMPDEST POP POP POP POP POP POP POP POP POP POP POP POP PUSH2 0x19AF CALLER DUP5 DUP5 PUSH2 0x257D JUMP JUMPDEST POP POP POP JUMP JUMPDEST PUSH1 0x0 DUP1 PUSH1 0x0 PUSH32 0x0 PUSH1 0x1 PUSH1 0x1 PUSH1 0xA0 SHL SUB AND PUSH4 0x6B3222E6 PUSH1 0x40 MLOAD DUP2 PUSH4 0xFFFFFFFF AND PUSH1 0xE0 SHL DUP2 MSTORE PUSH1 0x4 ADD PUSH1 0x80 PUSH1 0x40 MLOAD DUP1 DUP4 SUB DUP2 DUP7 DUP1 EXTCODESIZE ISZERO DUP1 ISZERO PUSH2 0x1A12 JUMPI PUSH1 0x0 DUP1 REVERT JUMPDEST POP GAS STATICCALL ISZERO DUP1 ISZERO PUSH2 0x1A26 JUMPI RETURNDATASIZE PUSH1 0x0 DUP1 RETURNDATACOPY RETURNDATASIZE PUSH1 0x0 REVERT JUMPDEST POP POP POP POP PUSH1 0x40 MLOAD RETURNDATASIZE PUSH1 0x1F NOT PUSH1 0x1F DUP3 ADD AND DUP3 ADD DUP1 PUSH1 0x40 MSTORE POP DUP2 ADD SWAP1 PUSH2 0x1A4A SWAP2 SWAP1 PUSH2 0x3223 JUMP JUMPDEST PUSH1 0x8 SLOAD SWAP4 SWAP7 POP SWAP1 SWAP5 POP SWAP3 POP PUSH1 0x0 SWAP1 POP PUSH2 0x1A63 DUP3 DUP6 PUSH2 0x216E JUMP JUMPDEST SWAP1 POP PUSH2 0x1A6F DUP2 DUP4 PUSH2 0x3663 JUMP JUMPDEST PUSH1 0x9 SLOAD SWAP1 SWAP3 POP PUSH1 0x0 PUSH2 0x1A81 DUP3 DUP7 PUSH2 0x216E JUMP JUMPDEST SWAP1 POP PUSH2 0x1A8D DUP2 DUP4 PUSH2 0x3663 JUMP JUMPDEST PUSH1 0x0 PUSH1 0x8 DUP2 SWAP1 SSTORE PUSH1 0x9 SSTORE PUSH1 0x40 DUP1 MLOAD DUP7 DUP2 MSTORE PUSH1 0x20 DUP2 ADD DUP7 SWAP1 MSTORE SWAP1 DUP2 ADD DUP3 SWAP1 MSTORE PUSH1 0x60 DUP2 ADD DUP4 SWAP1 MSTORE SWAP1 SWAP3 POP PUSH32 0xCE49B138F2621300A7043A61F472CCFD643162BDF3EFB11354E22D5273B77A71 SWAP1 PUSH1 0x80 ADD PUSH1 0x40 MLOAD DUP1 SWAP2 SUB SWAP1 LOG1 PUSH1 0x1 PUSH1 0x1 PUSH1 0xA0 SHL SUB PUSH32 0x0 AND PUSH4 0x42966C68 PUSH2 0x1B1B DUP4 DUP7 PUSH2 0x360A JUMP JUMPDEST PUSH1 0x40 MLOAD DUP3 PUSH4 0xFFFFFFFF AND PUSH1 0xE0 SHL DUP2 MSTORE PUSH1 0x4 ADD PUSH2 0x1B39 SWAP2 DUP2 MSTORE PUSH1 0x20 ADD SWAP1 JUMP JUMPDEST PUSH1 0x0 PUSH1 0x40 MLOAD DUP1 DUP4 SUB DUP2 PUSH1 0x0 DUP8 DUP1 EXTCODESIZE ISZERO DUP1 ISZERO PUSH2 0x1B53 JUMPI PUSH1 0x0 DUP1 REVERT JUMPDEST POP GAS CALL ISZERO DUP1 ISZERO PUSH2 0x1B67 JUMPI RETURNDATASIZE PUSH1 0x0 DUP1 RETURNDATACOPY RETURNDATASIZE PUSH1 0x0 REVERT JUMPDEST POP POP POP POP PUSH32 0x0 PUSH1 0x1 PUSH1 0x1 PUSH1 0xA0 SHL SUB AND PUSH4 0xA9059CBB DUP9 DUP5 DUP8 PUSH2 0x1BA7 SWAP2 SWAP1 PUSH2 0x360A JUMP JUMPDEST PUSH1 0x40 MLOAD PUSH1 0x1 PUSH1 0x1 PUSH1 0xE0 SHL SUB NOT PUSH1 0xE0 DUP6 SWAP1 SHL AND DUP2 MSTORE PUSH1 0x1 PUSH1 0x1 PUSH1 0xA0 SHL SUB SWAP1 SWAP3 AND PUSH1 0x4 DUP4 ADD MSTORE PUSH1 0x24 DUP3 ADD MSTORE PUSH1 0x44 ADD PUSH1 0x20 PUSH1 0x40 MLOAD DUP1 DUP4 SUB DUP2 PUSH1 0x0 DUP8 DUP1 EXTCODESIZE ISZERO DUP1 ISZERO PUSH2 0x1BED JUMPI PUSH1 0x0 DUP1 REVERT JUMPDEST POP GAS CALL ISZERO DUP1 ISZERO PUSH2 0x1C01 JUMPI RETURNDATASIZE PUSH1 0x0 DUP1 RETURNDATACOPY RETURNDATASIZE PUSH1 0x0 REVERT JUMPDEST POP POP POP POP PUSH1 0x40 MLOAD RETURNDATASIZE PUSH1 0x1F NOT PUSH1 0x1F DUP3 ADD AND DUP3 ADD DUP1 PUSH1 0x40 MSTORE POP DUP2 ADD SWAP1 PUSH2 0x1C25 SWAP2 SWAP1 PUSH2 0x3335 JUMP JUMPDEST POP POP POP POP POP POP POP POP JUMP JUMPDEST PUSH1 0x0 DUP1 PUSH1 0x7 DUP4 DUP2 SLOAD DUP2 LT PUSH2 0x1C45 JUMPI PUSH2 0x1C45 PUSH2 0x3713 JUMP JUMPDEST SWAP1 PUSH1 0x0 MSTORE PUSH1 0x20 PUSH1 0x0 KECCAK256 SWAP1 PUSH1 0x6 MUL ADD SWAP1 POP DUP1 PUSH1 0x3 ADD SLOAD PUSH1 0x0 EQ ISZERO PUSH2 0x1C6B JUMPI POP PUSH1 0x0 SWAP3 SWAP2 POP POP JUMP JUMPDEST DUP1 SLOAD PUSH1 0x2 DUP3 ADD SLOAD PUSH1 0x40 MLOAD PUSH4 0x6261A6B9 PUSH1 0xE0 SHL DUP2 MSTORE PUSH1 0x1 PUSH1 0xA0 SHL DUP4 DIV PUSH1 0xFF AND ISZERO ISZERO PUSH1 0x4 DUP3 ADD MSTORE PUSH1 0x24 DUP2 ADD SWAP2 SWAP1 SWAP2 MSTORE PUSH1 0x1 PUSH1 0x1 PUSH1 0xA0 SHL SUB SWAP1 SWAP2 AND SWAP1 PUSH1 0x0 SWAP1 DUP2 SWAP1 DUP2 SWAP1 DUP5 SWAP1 PUSH4 0x6261A6B9 SWAP1 PUSH1 0x44 ADD PUSH1 0x60 PUSH1 0x40 MLOAD DUP1 DUP4 SUB DUP2 DUP7 DUP1 EXTCODESIZE ISZERO DUP1 ISZERO PUSH2 0x1CCE JUMPI PUSH1 0x0 DUP1 REVERT JUMPDEST POP GAS STATICCALL ISZERO DUP1 ISZERO PUSH2 0x1CE2 JUMPI RETURNDATASIZE PUSH1 0x0 DUP1 RETURNDATACOPY RETURNDATASIZE PUSH1 0x0 REVERT JUMPDEST POP POP POP POP PUSH1 0x40 MLOAD RETURNDATASIZE PUSH1 0x1F NOT PUSH1 0x1F DUP3 ADD AND DUP3 ADD DUP1 PUSH1 0x40 MSTORE POP DUP2 ADD SWAP1 PUSH2 0x1D06 SWAP2 SWAP1 PUSH2 0x3405 JUMP JUMPDEST SWAP2 SWAP5 POP SWAP3 POP SWAP1 POP PUSH2 0x1D19 DUP6 DUP5 DUP5 DUP5 PUSH2 0x2084 JUMP JUMPDEST SWAP8 SWAP7 POP POP POP POP POP POP POP JUMP JUMPDEST PUSH1 0x1 PUSH1 0x1 PUSH1 0xA0 SHL SUB DUP6 AND CALLER EQ DUP1 PUSH2 0x1D40 JUMPI POP PUSH2 0x1D40 DUP6 CALLER PUSH2 0x478 JUMP JUMPDEST PUSH2 0x1D9E JUMPI PUSH1 0x40 MLOAD PUSH3 0x461BCD PUSH1 0xE5 SHL DUP2 MSTORE PUSH1 0x20 PUSH1 0x4 DUP3 ADD MSTORE PUSH1 0x29 PUSH1 0x24 DUP3 ADD MSTORE PUSH32 0x455243313135353A2063616C6C6572206973206E6F74206F776E6572206E6F72 PUSH1 0x44 DUP3 ADD MSTORE PUSH9 0x8185C1C1C9BDD9959 PUSH1 0xBA SHL PUSH1 0x64 DUP3 ADD MSTORE PUSH1 0x84 ADD PUSH2 0x54D JUMP JUMPDEST PUSH2 0x6FE DUP6 DUP6 DUP6 DUP6 DUP6 PUSH2 0x26F6 JUMP JUMPDEST DUP2 MLOAD DUP4 MLOAD EQ PUSH2 0x1E0D JUMPI PUSH1 0x40 MLOAD PUSH3 0x461BCD PUSH1 0xE5 SHL DUP2 MSTORE PUSH1 0x20 PUSH1 0x4 DUP3 ADD MSTORE PUSH1 0x28 PUSH1 0x24 DUP3 ADD MSTORE PUSH32 0x455243313135353A2069647320616E6420616D6F756E7473206C656E67746820 PUSH1 0x44 DUP3 ADD MSTORE PUSH8 0xDAD2E6DAC2E8C6D PUSH1 0xC3 SHL PUSH1 0x64 DUP3 ADD MSTORE PUSH1 0x84 ADD PUSH2 0x54D JUMP JUMPDEST PUSH1 0x1 PUSH1 0x1 PUSH1 0xA0 SHL SUB DUP5 AND PUSH2 0x1E71 JUMPI PUSH1 0x40 MLOAD PUSH3 0x461BCD PUSH1 0xE5 SHL DUP2 MSTORE PUSH1 0x20 PUSH1 0x4 DUP3 ADD MSTORE PUSH1 0x25 PUSH1 0x24 DUP3 ADD MSTORE PUSH32 0x455243313135353A207472616E7366657220746F20746865207A65726F206164 PUSH1 0x44 DUP3 ADD MSTORE PUSH5 0x6472657373 PUSH1 0xD8 SHL PUSH1 0x64 DUP3 ADD MSTORE PUSH1 0x84 ADD PUSH2 0x54D JUMP JUMPDEST CALLER PUSH2 0x1E80 DUP2 DUP8 DUP8 DUP8 DUP8 DUP8 PUSH2 0x2894 JUMP JUMPDEST PUSH1 0x0 JUMPDEST DUP5 MLOAD DUP2 LT ISZERO PUSH2 0x1FA9 JUMPI PUSH1 0x0 DUP6 DUP3 DUP2 MLOAD DUP2 LT PUSH2 0x1EA0 JUMPI PUSH2 0x1EA0 PUSH2 0x3713 JUMP JUMPDEST PUSH1 0x20 MUL PUSH1 0x20 ADD ADD MLOAD SWAP1 POP PUSH1 0x0 DUP6 DUP4 DUP2 MLOAD DUP2 LT PUSH2 0x1EBE JUMPI PUSH2 0x1EBE PUSH2 0x3713 JUMP JUMPDEST PUSH1 0x20 SWAP1 DUP2 MUL SWAP2 SWAP1 SWAP2 ADD DUP2 ADD MLOAD PUSH1 0x0 DUP5 DUP2 MSTORE DUP1 DUP4 MSTORE PUSH1 0x40 DUP1 DUP3 KECCAK256 PUSH1 0x1 PUSH1 0x1 PUSH1 0xA0 SHL SUB DUP15 AND DUP4 MSTORE SWAP1 SWAP4 MSTORE SWAP2 SWAP1 SWAP2 KECCAK256 SLOAD SWAP1 SWAP2 POP DUP2 DUP2 LT ISZERO PUSH2 0x1F51 JUMPI PUSH1 0x40 MLOAD PUSH3 0x461BCD PUSH1 0xE5 SHL DUP2 MSTORE PUSH1 0x20 PUSH1 0x4 DUP3 ADD MSTORE PUSH1 0x2A PUSH1 0x24 DUP3 ADD MSTORE PUSH32 0x455243313135353A20696E73756666696369656E742062616C616E636520666F PUSH1 0x44 DUP3 ADD MSTORE PUSH10 0x39103A3930B739B332B9 PUSH1 0xB1 SHL PUSH1 0x64 DUP3 ADD MSTORE PUSH1 0x84 ADD PUSH2 0x54D JUMP JUMPDEST PUSH1 0x0 DUP4 DUP2 MSTORE PUSH1 0x20 DUP2 DUP2 MSTORE PUSH1 0x40 DUP1 DUP4 KECCAK256 PUSH1 0x1 PUSH1 0x1 PUSH1 0xA0 SHL SUB DUP15 DUP2 AND DUP6 MSTORE SWAP3 MSTORE DUP1 DUP4 KECCAK256 DUP6 DUP6 SUB SWAP1 SSTORE SWAP1 DUP12 AND DUP3 MSTORE DUP2 KECCAK256 DUP1 SLOAD DUP5 SWAP3 SWAP1 PUSH2 0x1F8E SWAP1 DUP5 SWAP1 PUSH2 0x360A JUMP JUMPDEST SWAP3 POP POP DUP2 SWAP1 SSTORE POP POP POP POP DUP1 PUSH2 0x1FA2 SWAP1 PUSH2 0x36E2 JUMP JUMPDEST SWAP1 POP PUSH2 0x1E83 JUMP JUMPDEST POP DUP5 PUSH1 0x1 PUSH1 0x1 PUSH1 0xA0 SHL SUB AND DUP7 PUSH1 0x1 PUSH1 0x1 PUSH1 0xA0 SHL SUB AND DUP3 PUSH1 0x1 PUSH1 0x1 PUSH1 0xA0 SHL SUB AND PUSH32 0x4A39DC06D4C0DBC64B70AF90FD698A233A518AA5D07E595D983B8C0526C8F7FB DUP8 DUP8 PUSH1 0x40 MLOAD PUSH2 0x1FF9 SWAP3 SWAP2 SWAP1 PUSH2 0x35AE JUMP JUMPDEST PUSH1 0x40 MLOAD DUP1 SWAP2 SUB SWAP1 LOG4 PUSH2 0x200F DUP2 DUP8 DUP8 DUP8 DUP8 DUP8 PUSH2 0x29A0 JUMP JUMPDEST POP POP POP POP POP POP JUMP JUMPDEST PUSH1 0x40 DUP1 MLOAD PUSH1 0xE0 DUP2 ADD DUP3 MSTORE DUP7 SLOAD PUSH1 0x1 PUSH1 0x1 PUSH1 0xA0 SHL SUB DUP2 AND DUP3 MSTORE PUSH1 0x1 PUSH1 0xA0 SHL SWAP1 DIV PUSH1 0xFF AND ISZERO ISZERO PUSH1 0x20 DUP3 ADD MSTORE PUSH1 0x1 DUP8 ADD SLOAD SWAP2 DUP2 ADD SWAP2 SWAP1 SWAP2 MSTORE PUSH1 0x2 DUP7 ADD SLOAD PUSH1 0x60 DUP3 ADD MSTORE PUSH1 0x3 DUP7 ADD SLOAD PUSH1 0x80 DUP3 ADD MSTORE PUSH1 0x4 DUP7 ADD SLOAD PUSH1 0xA0 DUP3 ADD MSTORE PUSH1 0x5 DUP7 ADD SLOAD PUSH1 0xC0 DUP3 ADD MSTORE PUSH1 0x0 SWAP1 PUSH2 0x1D19 DUP2 DUP8 DUP8 DUP8 DUP8 PUSH2 0x2B55 JUMP JUMPDEST PUSH1 0x40 DUP1 MLOAD PUSH1 0xE0 DUP2 ADD DUP3 MSTORE DUP6 SLOAD PUSH1 0x1 PUSH1 0x1 PUSH1 0xA0 SHL SUB DUP2 AND DUP3 MSTORE PUSH1 0x1 PUSH1 0xA0 SHL SWAP1 DIV PUSH1 0xFF AND ISZERO ISZERO PUSH1 0x20 DUP3 ADD MSTORE PUSH1 0x1 DUP7 ADD SLOAD SWAP2 DUP2 ADD SWAP2 SWAP1 SWAP2 MSTORE PUSH1 0x2 DUP6 ADD SLOAD PUSH1 0x60 DUP3 ADD MSTORE PUSH1 0x3 DUP6 ADD SLOAD PUSH1 0x80 DUP3 ADD MSTORE PUSH1 0x4 DUP6 ADD SLOAD PUSH1 0xA0 DUP3 ADD MSTORE PUSH1 0x5 DUP6 ADD SLOAD PUSH1 0xC0 DUP3 ADD MSTORE PUSH1 0x0 SWAP1 PUSH2 0x20F0 DUP2 DUP7 DUP7 DUP7 PUSH2 0x2B8E JUMP JUMPDEST SWAP7 SWAP6 POP POP POP POP POP POP JUMP JUMPDEST PUSH1 0x40 DUP1 MLOAD PUSH1 0xE0 DUP2 ADD DUP3 MSTORE DUP5 SLOAD PUSH1 0x1 PUSH1 0x1 PUSH1 0xA0 SHL SUB DUP2 AND DUP3 MSTORE PUSH1 0x1 PUSH1 0xA0 SHL SWAP1 DIV PUSH1 0xFF AND ISZERO ISZERO PUSH1 0x20 DUP3 ADD MSTORE PUSH1 0x1 DUP6 ADD SLOAD SWAP2 DUP2 ADD SWAP2 SWAP1 SWAP2 MSTORE PUSH1 0x2 DUP5 ADD SLOAD PUSH1 0x60 DUP3 ADD MSTORE PUSH1 0x3 DUP5 ADD SLOAD PUSH1 0x80 DUP3 ADD MSTORE PUSH1 0x4 DUP5 ADD SLOAD PUSH1 0xA0 DUP3 ADD MSTORE PUSH1 0x5 DUP5 ADD SLOAD PUSH1 0xC0 DUP3 ADD MSTORE PUSH1 0x0 SWAP1 PUSH2 0x2165 DUP2 DUP6 DUP6 PUSH2 0x2C1C JUMP JUMPDEST SWAP6 SWAP5 POP POP POP POP POP JUMP JUMPDEST PUSH1 0x0 DUP1 PUSH2 0x217B DUP4 DUP6 PUSH2 0x3644 JUMP JUMPDEST SWAP1 POP PUSH2 0x219C DUP5 ISZERO DUP1 PUSH2 0x2195 JUMPI POP DUP4 PUSH2 0x2193 DUP7 DUP5 PUSH2 0x3622 JUMP JUMPDEST EQ JUMPDEST PUSH1 0x3 PUSH2 0x2C47 JUMP JUMPDEST DUP1 PUSH2 0x21AB JUMPI PUSH1 0x0 SWAP2 POP POP PUSH2 0x579 JUMP JUMPDEST PUSH8 0xDE0B6B3A7640000 PUSH2 0x21BF PUSH1 0x1 DUP4 PUSH2 0x3663 JUMP JUMPDEST PUSH2 0x21C9 SWAP2 SWAP1 PUSH2 0x3622 JUMP JUMPDEST PUSH2 0x21D4 SWAP1 PUSH1 0x1 PUSH2 0x360A JUMP JUMPDEST SWAP2 POP POP PUSH2 0x579 JUMP JUMPDEST PUSH1 0x0 DUP1 DUP5 PUSH2 0x2201 JUMPI PUSH1 0x1 PUSH1 0x1 PUSH1 0xA0 SHL SUB DUP7 AND PUSH1 0x0 SWAP1 DUP2 MSTORE PUSH1 0x5 PUSH1 0x20 MSTORE PUSH1 0x40 SWAP1 KECCAK256 PUSH2 0x221A JUMP JUMPDEST PUSH1 0x1 PUSH1 0x1 PUSH1 0xA0 SHL SUB DUP7 AND PUSH1 0x0 SWAP1 DUP2 MSTORE PUSH1 0x4 PUSH1 0x20 MSTORE PUSH1 0x40 SWAP1 KECCAK256 JUMPDEST SWAP1 POP DUP1 PUSH1 0x0 DUP6 DUP2 MSTORE PUSH1 0x20 ADD SWAP1 DUP2 MSTORE PUSH1 0x20 ADD PUSH1 0x0 KECCAK256 SLOAD SWAP2 POP PUSH1 0x0 PUSH1 0x7 DUP4 DUP2 SLOAD DUP2 LT PUSH2 0x2246 JUMPI PUSH2 0x2246 PUSH2 0x3713 JUMP JUMPDEST SWAP1 PUSH1 0x0 MSTORE PUSH1 0x20 PUSH1 0x0 KECCAK256 SWAP1 PUSH1 0x6 MUL ADD SWAP1 POP DUP4 DUP2 PUSH1 0x2 ADD SLOAD LT ISZERO PUSH2 0x23F7 JUMPI PUSH1 0x40 DUP1 MLOAD PUSH1 0xE0 DUP2 ADD DUP3 MSTORE PUSH1 0x1 PUSH1 0x1 PUSH1 0xA0 SHL SUB DUP1 DUP11 AND DUP3 MSTORE DUP9 ISZERO ISZERO PUSH1 0x20 DUP4 ADD SWAP1 DUP2 MSTORE SWAP3 DUP3 ADD DUP9 DUP2 MSTORE PUSH1 0x60 DUP4 ADD DUP9 DUP2 MSTORE PUSH1 0x0 PUSH1 0x80 DUP6 ADD DUP2 DUP2 MSTORE PUSH1 0xA0 DUP7 ADD DUP3 DUP2 MSTORE PUSH1 0xC0 DUP8 ADD DUP4 DUP2 MSTORE PUSH1 0x7 DUP1 SLOAD PUSH1 0x1 DUP2 DUP2 ADD DUP4 SSTORE SWAP6 DUP3 SWAP1 MSTORE SWAP9 MLOAD PUSH1 0x6 SWAP1 SWAP10 MUL PUSH32 0xA66CC928B5EDB82AF9BD49922954155AB7B0942694BEA4CE44661D9A8736C688 DUP2 ADD DUP1 SLOAD SWAP12 MLOAD ISZERO ISZERO PUSH1 0x1 PUSH1 0xA0 SHL MUL PUSH21 0xFFFFFFFFFFFFFFFFFFFFFFFFFFFFFFFFFFFFFFFFFF NOT SWAP1 SWAP13 AND SWAP11 SWAP1 SWAP10 AND SWAP10 SWAP1 SWAP10 OR SWAP10 SWAP1 SWAP10 OR SWAP1 SWAP7 SSTORE SWAP4 MLOAD PUSH32 0xA66CC928B5EDB82AF9BD49922954155AB7B0942694BEA4CE44661D9A8736C689 DUP8 ADD SSTORE SWAP2 MLOAD PUSH32 0xA66CC928B5EDB82AF9BD49922954155AB7B0942694BEA4CE44661D9A8736C68A DUP7 ADD SSTORE SWAP1 MLOAD PUSH32 0xA66CC928B5EDB82AF9BD49922954155AB7B0942694BEA4CE44661D9A8736C68B DUP6 ADD SSTORE SWAP1 MLOAD PUSH32 0xA66CC928B5EDB82AF9BD49922954155AB7B0942694BEA4CE44661D9A8736C68C DUP5 ADD SSTORE SWAP1 MLOAD PUSH32 0xA66CC928B5EDB82AF9BD49922954155AB7B0942694BEA4CE44661D9A8736C68D SWAP1 SWAP3 ADD SWAP2 SWAP1 SWAP2 SSTORE SWAP1 SLOAD PUSH2 0x23E3 SWAP2 SWAP1 PUSH2 0x3663 JUMP JUMPDEST PUSH1 0x0 DUP7 DUP2 MSTORE PUSH1 0x20 DUP5 SWAP1 MSTORE PUSH1 0x40 SWAP1 KECCAK256 DUP2 SWAP1 SSTORE SWAP3 POP JUMPDEST POP POP SWAP5 SWAP4 POP POP POP POP JUMP JUMPDEST PUSH1 0x1 PUSH1 0x1 PUSH1 0xA0 SHL SUB DUP5 AND PUSH2 0x2461 JUMPI PUSH1 0x40 MLOAD PUSH3 0x461BCD PUSH1 0xE5 SHL DUP2 MSTORE PUSH1 0x20 PUSH1 0x4 DUP3 ADD MSTORE PUSH1 0x21 PUSH1 0x24 DUP3 ADD MSTORE PUSH32 0x455243313135353A206D696E7420746F20746865207A65726F20616464726573 PUSH1 0x44 DUP3 ADD MSTORE PUSH1 0x73 PUSH1 0xF8 SHL PUSH1 0x64 DUP3 ADD MSTORE PUSH1 0x84 ADD PUSH2 0x54D JUMP JUMPDEST CALLER PUSH2 0x2481 DUP2 PUSH1 0x0 DUP8 PUSH2 0x2472 DUP9 PUSH2 0x2C59 JUMP JUMPDEST PUSH2 0x247B DUP9 PUSH2 0x2C59 JUMP JUMPDEST DUP8 PUSH2 0x2894 JUMP JUMPDEST PUSH1 0x0 DUP5 DUP2 MSTORE PUSH1 0x20 DUP2 DUP2 MSTORE PUSH1 0x40 DUP1 DUP4 KECCAK256 PUSH1 0x1 PUSH1 0x1 PUSH1 0xA0 SHL SUB DUP10 AND DUP5 MSTORE SWAP1 SWAP2 MSTORE DUP2 KECCAK256 DUP1 SLOAD DUP6 SWAP3 SWAP1 PUSH2 0x24B1 SWAP1 DUP5 SWAP1 PUSH2 0x360A JUMP JUMPDEST SWAP1 SWAP2 SSTORE POP POP PUSH1 0x40 DUP1 MLOAD DUP6 DUP2 MSTORE PUSH1 0x20 DUP2 ADD DUP6 SWAP1 MSTORE PUSH1 0x1 PUSH1 0x1 PUSH1 0xA0 SHL SUB DUP1 DUP9 AND SWAP3 PUSH1 0x0 SWAP3 SWAP2 DUP6 AND SWAP2 PUSH32 0xC3D58168C5AE7397731D063D5BBF3D657854427343F4C083240F7AACAA2D0F62 SWAP2 ADD PUSH1 0x40 MLOAD DUP1 SWAP2 SUB SWAP1 LOG4 PUSH2 0x6FE DUP2 PUSH1 0x0 DUP8 DUP8 DUP8 DUP8 PUSH2 0x2CA4 JUMP JUMPDEST PUSH1 0x40 DUP1 MLOAD PUSH1 0xE0 DUP2 ADD DUP3 MSTORE DUP6 SLOAD PUSH1 0x1 PUSH1 0x1 PUSH1 0xA0 SHL SUB DUP2 AND DUP3 MSTORE PUSH1 0x1 PUSH1 0xA0 SHL SWAP1 DIV PUSH1 0xFF AND ISZERO ISZERO PUSH1 0x20 DUP3 ADD MSTORE PUSH1 0x1 DUP7 ADD SLOAD SWAP2 DUP2 ADD SWAP2 SWAP1 SWAP2 MSTORE PUSH1 0x2 DUP6 ADD SLOAD PUSH1 0x60 DUP3 ADD MSTORE PUSH1 0x3 DUP6 ADD SLOAD PUSH1 0x80 DUP3 ADD MSTORE PUSH1 0x4 DUP6 ADD SLOAD PUSH1 0xA0 DUP3 ADD MSTORE PUSH1 0x5 DUP6 ADD SLOAD PUSH1 0xC0 DUP3 ADD MSTORE PUSH1 0x0 SWAP1 PUSH2 0x20F0 DUP2 DUP7 DUP7 DUP7 PUSH2 0x2DAF JUMP JUMPDEST PUSH1 0x1 PUSH1 0x1 PUSH1 0xA0 SHL SUB DUP4 AND PUSH2 0x25DF JUMPI PUSH1 0x40 MLOAD PUSH3 0x461BCD PUSH1 0xE5 SHL DUP2 MSTORE PUSH1 0x20 PUSH1 0x4 DUP3 ADD MSTORE PUSH1 0x23 PUSH1 0x24 DUP3 ADD MSTORE PUSH32 0x455243313135353A206275726E2066726F6D20746865207A65726F2061646472 PUSH1 0x44 DUP3 ADD MSTORE PUSH3 0x657373 PUSH1 0xE8 SHL PUSH1 0x64 DUP3 ADD MSTORE PUSH1 0x84 ADD PUSH2 0x54D JUMP JUMPDEST CALLER PUSH2 0x260E DUP2 DUP6 PUSH1 0x0 PUSH2 0x25F0 DUP8 PUSH2 0x2C59 JUMP JUMPDEST PUSH2 0x25F9 DUP8 PUSH2 0x2C59 JUMP JUMPDEST PUSH1 0x40 MLOAD DUP1 PUSH1 0x20 ADD PUSH1 0x40 MSTORE DUP1 PUSH1 0x0 DUP2 MSTORE POP PUSH2 0x2894 JUMP JUMPDEST PUSH1 0x0 DUP4 DUP2 MSTORE PUSH1 0x20 DUP2 DUP2 MSTORE PUSH1 0x40 DUP1 DUP4 KECCAK256 PUSH1 0x1 PUSH1 0x1 PUSH1 0xA0 SHL SUB DUP9 AND DUP5 MSTORE SWAP1 SWAP2 MSTORE SWAP1 KECCAK256 SLOAD DUP3 DUP2 LT ISZERO PUSH2 0x268B JUMPI PUSH1 0x40 MLOAD PUSH3 0x461BCD PUSH1 0xE5 SHL DUP2 MSTORE PUSH1 0x20 PUSH1 0x4 DUP3 ADD MSTORE PUSH1 0x24 DUP1 DUP3 ADD MSTORE PUSH32 0x455243313135353A206275726E20616D6F756E7420657863656564732062616C PUSH1 0x44 DUP3 ADD MSTORE PUSH4 0x616E6365 PUSH1 0xE0 SHL PUSH1 0x64 DUP3 ADD MSTORE PUSH1 0x84 ADD PUSH2 0x54D JUMP JUMPDEST PUSH1 0x0 DUP5 DUP2 MSTORE PUSH1 0x20 DUP2 DUP2 MSTORE PUSH1 0x40 DUP1 DUP4 KECCAK256 PUSH1 0x1 PUSH1 0x1 PUSH1 0xA0 SHL SUB DUP10 DUP2 AND DUP1 DUP7 MSTORE SWAP2 DUP5 MSTORE DUP3 DUP6 KECCAK256 DUP9 DUP8 SUB SWAP1 SSTORE DUP3 MLOAD DUP10 DUP2 MSTORE SWAP4 DUP5 ADD DUP9 SWAP1 MSTORE SWAP1 SWAP3 SWAP1 DUP7 AND SWAP2 PUSH32 0xC3D58168C5AE7397731D063D5BBF3D657854427343F4C083240F7AACAA2D0F62 SWAP2 ADD PUSH1 0x40 MLOAD DUP1 SWAP2 SUB SWAP1 LOG4 POP POP POP POP POP JUMP JUMPDEST PUSH1 0x1 PUSH1 0x1 PUSH1 0xA0 SHL SUB DUP5 AND PUSH2 0x275A JUMPI PUSH1 0x40 MLOAD PUSH3 0x461BCD PUSH1 0xE5 SHL DUP2 MSTORE PUSH1 0x20 PUSH1 0x4 DUP3 ADD MSTORE PUSH1 0x25 PUSH1 0x24 DUP3 ADD MSTORE PUSH32 0x455243313135353A207472616E7366657220746F20746865207A65726F206164 PUSH1 0x44 DUP3 ADD MSTORE PUSH5 0x6472657373 PUSH1 0xD8 SHL PUSH1 0x64 DUP3 ADD MSTORE PUSH1 0x84 ADD PUSH2 0x54D JUMP JUMPDEST CALLER PUSH2 0x276A DUP2 DUP8 DUP8 PUSH2 0x2472 DUP9 PUSH2 0x2C59 JUMP JUMPDEST PUSH1 0x0 DUP5 DUP2 MSTORE PUSH1 0x20 DUP2 DUP2 MSTORE PUSH1 0x40 DUP1 DUP4 KECCAK256 PUSH1 0x1 PUSH1 0x1 PUSH1 0xA0 SHL SUB DUP11 AND DUP5 MSTORE SWAP1 SWAP2 MSTORE SWAP1 KECCAK256 SLOAD DUP4 DUP2 LT ISZERO PUSH2 0x27EE JUMPI PUSH1 0x40 MLOAD PUSH3 0x461BCD PUSH1 0xE5 SHL DUP2 MSTORE PUSH1 0x20 PUSH1 0x4 DUP3 ADD MSTORE PUSH1 0x2A PUSH1 0x24 DUP3 ADD MSTORE PUSH32 0x455243313135353A20696E73756666696369656E742062616C616E636520666F PUSH1 0x44 DUP3 ADD MSTORE PUSH10 0x39103A3930B739B332B9 PUSH1 0xB1 SHL PUSH1 0x64 DUP3 ADD MSTORE PUSH1 0x84 ADD PUSH2 0x54D JUMP JUMPDEST PUSH1 0x0 DUP6 DUP2 MSTORE PUSH1 0x20 DUP2 DUP2 MSTORE PUSH1 0x40 DUP1 DUP4 KECCAK256 PUSH1 0x1 PUSH1 0x1 PUSH1 0xA0 SHL SUB DUP12 DUP2 AND DUP6 MSTORE SWAP3 MSTORE DUP1 DUP4 KECCAK256 DUP8 DUP6 SUB SWAP1 SSTORE SWAP1 DUP9 AND DUP3 MSTORE DUP2 KECCAK256 DUP1 SLOAD DUP7 SWAP3 SWAP1 PUSH2 0x282B SWAP1 DUP5 SWAP1 PUSH2 0x360A JUMP JUMPDEST SWAP1 SWAP2 SSTORE POP POP PUSH1 0x40 DUP1 MLOAD DUP7 DUP2 MSTORE PUSH1 0x20 DUP2 ADD DUP7 SWAP1 MSTORE PUSH1 0x1 PUSH1 0x1 PUSH1 0xA0 SHL SUB DUP1 DUP10 AND SWAP3 DUP11 DUP3 AND SWAP3 SWAP2 DUP7 AND SWAP2 PUSH32 0xC3D58168C5AE7397731D063D5BBF3D657854427343F4C083240F7AACAA2D0F62 SWAP2 ADD PUSH1 0x40 MLOAD DUP1 SWAP2 SUB SWAP1 LOG4 PUSH2 0x288B DUP3 DUP9 DUP9 DUP9 DUP9 DUP9 PUSH2 0x2CA4 JUMP JUMPDEST POP POP POP POP POP POP POP JUMP JUMPDEST PUSH1 0x1 PUSH1 0x1 PUSH1 0xA0 SHL SUB DUP6 AND PUSH2 0x291B JUMPI PUSH1 0x0 JUMPDEST DUP4 MLOAD DUP2 LT ISZERO PUSH2 0x2919 JUMPI DUP3 DUP2 DUP2 MLOAD DUP2 LT PUSH2 0x28C0 JUMPI PUSH2 0x28C0 PUSH2 0x3713 JUMP JUMPDEST PUSH1 0x20 MUL PUSH1 0x20 ADD ADD MLOAD PUSH1 0x3 PUSH1 0x0 DUP7 DUP5 DUP2 MLOAD DUP2 LT PUSH2 0x28DE JUMPI PUSH2 0x28DE PUSH2 0x3713 JUMP JUMPDEST PUSH1 0x20 MUL PUSH1 0x20 ADD ADD MLOAD DUP2 MSTORE PUSH1 0x20 ADD SWAP1 DUP2 MSTORE PUSH1 0x20 ADD PUSH1 0x0 KECCAK256 PUSH1 0x0 DUP3 DUP3 SLOAD PUSH2 0x2903 SWAP2 SWAP1 PUSH2 0x360A JUMP JUMPDEST SWAP1 SWAP2 SSTORE POP PUSH2 0x2912 SWAP1 POP DUP2 PUSH2 0x36E2 JUMP JUMPDEST SWAP1 POP PUSH2 0x28A5 JUMP JUMPDEST POP JUMPDEST PUSH1 0x1 PUSH1 0x1 PUSH1 0xA0 SHL SUB DUP5 AND PUSH2 0x200F JUMPI PUSH1 0x0 JUMPDEST DUP4 MLOAD DUP2 LT ISZERO PUSH2 0x288B JUMPI DUP3 DUP2 DUP2 MLOAD DUP2 LT PUSH2 0x2947 JUMPI PUSH2 0x2947 PUSH2 0x3713 JUMP JUMPDEST PUSH1 0x20 MUL PUSH1 0x20 ADD ADD MLOAD PUSH1 0x3 PUSH1 0x0 DUP7 DUP5 DUP2 MLOAD DUP2 LT PUSH2 0x2965 JUMPI PUSH2 0x2965 PUSH2 0x3713 JUMP JUMPDEST PUSH1 0x20 MUL PUSH1 0x20 ADD ADD MLOAD DUP2 MSTORE PUSH1 0x20 ADD SWAP1 DUP2 MSTORE PUSH1 0x20 ADD PUSH1 0x0 KECCAK256 PUSH1 0x0 DUP3 DUP3 SLOAD PUSH2 0x298A SWAP2 SWAP1 PUSH2 0x3663 JUMP JUMPDEST SWAP1 SWAP2 SSTORE POP PUSH2 0x2999 SWAP1 POP DUP2 PUSH2 0x36E2 JUMP JUMPDEST SWAP1 POP PUSH2 0x292C JUMP JUMPDEST PUSH1 0x1 PUSH1 0x1 PUSH1 0xA0 SHL SUB DUP5 AND EXTCODESIZE ISZERO PUSH2 0x200F JUMPI PUSH1 0x40 MLOAD PUSH4 0xBC197C81 PUSH1 0xE0 SHL DUP2 MSTORE PUSH1 0x1 PUSH1 0x1 PUSH1 0xA0 SHL SUB DUP6 AND SWAP1 PUSH4 0xBC197C81 SWAP1 PUSH2 0x29E4 SWAP1 DUP10 SWAP1 DUP10 SWAP1 DUP9 SWAP1 DUP9 SWAP1 DUP9 SWAP1 PUSH1 0x4 ADD PUSH2 0x3505 JUMP JUMPDEST PUSH1 0x20 PUSH1 0x40 MLOAD DUP1 DUP4 SUB DUP2 PUSH1 0x0 DUP8 DUP1 EXTCODESIZE ISZERO DUP1 ISZERO PUSH2 0x29FE JUMPI PUSH1 0x0 DUP1 REVERT JUMPDEST POP GAS CALL SWAP3 POP POP POP DUP1 ISZERO PUSH2 0x2A2E JUMPI POP PUSH1 0x40 DUP1 MLOAD PUSH1 0x1F RETURNDATASIZE SWAP1 DUP2 ADD PUSH1 0x1F NOT AND DUP3 ADD SWAP1 SWAP3 MSTORE PUSH2 0x2A2B SWAP2 DUP2 ADD SWAP1 PUSH2 0x336F JUMP JUMPDEST PUSH1 0x1 JUMPDEST PUSH2 0x2AE4 JUMPI PUSH2 0x2A3A PUSH2 0x373F JUMP JUMPDEST DUP1 PUSH4 0x8C379A0 EQ ISZERO PUSH2 0x2A74 JUMPI POP PUSH2 0x2A4F PUSH2 0x375B JUMP JUMPDEST DUP1 PUSH2 0x2A5A JUMPI POP PUSH2 0x2A76 JUMP JUMPDEST DUP1 PUSH1 0x40 MLOAD PUSH3 0x461BCD PUSH1 0xE5 SHL DUP2 MSTORE PUSH1 0x4 ADD PUSH2 0x54D SWAP2 SWAP1 PUSH2 0x35D3 JUMP JUMPDEST POP JUMPDEST PUSH1 0x40 MLOAD PUSH3 0x461BCD PUSH1 0xE5 SHL DUP2 MSTORE PUSH1 0x20 PUSH1 0x4 DUP3 ADD MSTORE PUSH1 0x34 PUSH1 0x24 DUP3 ADD MSTORE PUSH32 0x455243313135353A207472616E7366657220746F206E6F6E2045524331313535 PUSH1 0x44 DUP3 ADD MSTORE PUSH32 0x526563656976657220696D706C656D656E746572000000000000000000000000 PUSH1 0x64 DUP3 ADD MSTORE PUSH1 0x84 ADD PUSH2 0x54D JUMP JUMPDEST PUSH1 0x1 PUSH1 0x1 PUSH1 0xE0 SHL SUB NOT DUP2 AND PUSH4 0xBC197C81 PUSH1 0xE0 SHL EQ PUSH2 0x288B JUMPI PUSH1 0x40 MLOAD PUSH3 0x461BCD PUSH1 0xE5 SHL DUP2 MSTORE PUSH1 0x20 PUSH1 0x4 DUP3 ADD MSTORE PUSH1 0x28 PUSH1 0x24 DUP3 ADD MSTORE PUSH32 0x455243313135353A204552433131353552656365697665722072656A65637465 PUSH1 0x44 DUP3 ADD MSTORE PUSH8 0x6420746F6B656E73 PUSH1 0xC0 SHL PUSH1 0x64 DUP3 ADD MSTORE PUSH1 0x84 ADD PUSH2 0x54D JUMP JUMPDEST PUSH1 0x0 DUP1 PUSH2 0x2B64 DUP8 DUP8 DUP8 DUP8 PUSH2 0x2B8E JUMP JUMPDEST SWAP1 POP PUSH1 0x0 PUSH2 0x2B71 DUP9 PUSH2 0x2DD0 JUMP JUMPDEST SWAP1 POP PUSH1 0x0 PUSH2 0x2B7F DUP3 DUP7 PUSH2 0x216E JUMP JUMPDEST SWAP1 SWAP3 LT SWAP9 SWAP8 POP POP POP POP POP POP POP POP JUMP JUMPDEST PUSH1 0x0 DUP1 PUSH2 0x2B9C DUP7 DUP7 DUP7 PUSH2 0x2C1C JUMP JUMPDEST SWAP1 POP DUP6 PUSH1 0x20 ADD MLOAD ISZERO PUSH2 0x2BD3 JUMPI PUSH2 0x2BB2 DUP2 DUP5 PUSH2 0x2DE6 JUMP JUMPDEST SWAP2 POP PUSH2 0x2BC2 DUP3 DUP8 PUSH1 0xA0 ADD MLOAD PUSH2 0x2E1D JUMP JUMPDEST PUSH2 0x2BCC SWAP1 DUP4 PUSH2 0x3663 JUMP JUMPDEST SWAP2 POP PUSH2 0x2C13 JUMP JUMPDEST PUSH2 0x2BE5 DUP2 PUSH8 0x1BC16D674EC80000 PUSH2 0x2DE6 JUMP JUMPDEST SWAP2 POP PUSH2 0x2C09 DUP3 PUSH2 0x2BF5 DUP4 DUP7 PUSH2 0x2DE6 JUMP JUMPDEST DUP9 PUSH1 0xA0 ADD MLOAD PUSH2 0x2C04 SWAP2 SWAP1 PUSH2 0x360A JUMP JUMPDEST PUSH2 0x2E1D JUMP JUMPDEST PUSH2 0x20F0 SWAP1 DUP4 PUSH2 0x3663 JUMP JUMPDEST POP SWAP5 SWAP4 POP POP POP POP JUMP JUMPDEST PUSH1 0x0 PUSH2 0x2C3F DUP3 PUSH2 0x2C39 DUP6 DUP8 PUSH1 0x80 ADD MLOAD PUSH2 0x2DE6 SWAP1 SWAP2 SWAP1 PUSH4 0xFFFFFFFF AND JUMP JUMPDEST SWAP1 PUSH2 0x2E35 JUMP JUMPDEST SWAP5 SWAP4 POP POP POP POP JUMP JUMPDEST DUP2 PUSH2 0x2C55 JUMPI PUSH2 0x2C55 DUP2 PUSH2 0x2E91 JUMP JUMPDEST POP POP JUMP JUMPDEST PUSH1 0x40 DUP1 MLOAD PUSH1 0x1 DUP1 DUP3 MSTORE DUP2 DUP4 ADD SWAP1 SWAP3 MSTORE PUSH1 0x60 SWAP2 PUSH1 0x0 SWAP2 SWAP1 PUSH1 0x20 DUP1 DUP4 ADD SWAP1 DUP1 CALLDATASIZE DUP4 CALLDATACOPY ADD SWAP1 POP POP SWAP1 POP DUP3 DUP2 PUSH1 0x0 DUP2 MLOAD DUP2 LT PUSH2 0x2C93 JUMPI PUSH2 0x2C93 PUSH2 0x3713 JUMP JUMPDEST PUSH1 0x20 SWAP1 DUP2 MUL SWAP2 SWAP1 SWAP2 ADD ADD MSTORE SWAP3 SWAP2 POP POP JUMP JUMPDEST PUSH1 0x1 PUSH1 0x1 PUSH1 0xA0 SHL SUB DUP5 AND EXTCODESIZE ISZERO PUSH2 0x200F JUMPI PUSH1 0x40 MLOAD PUSH4 0xF23A6E61 PUSH1 0xE0 SHL DUP2 MSTORE PUSH1 0x1 PUSH1 0x1 PUSH1 0xA0 SHL SUB DUP6 AND SWAP1 PUSH4 0xF23A6E61 SWAP1 PUSH2 0x2CE8 SWAP1 DUP10 SWAP1 DUP10 SWAP1 DUP9 SWAP1 DUP9 SWAP1 DUP9 SWAP1 PUSH1 0x4 ADD PUSH2 0x3563 JUMP JUMPDEST PUSH1 0x20 PUSH1 0x40 MLOAD DUP1 DUP4 SUB DUP2 PUSH1 0x0 DUP8 DUP1 EXTCODESIZE ISZERO DUP1 ISZERO PUSH2 0x2D02 JUMPI PUSH1 0x0 DUP1 REVERT JUMPDEST POP GAS CALL SWAP3 POP POP POP DUP1 ISZERO PUSH2 0x2D32 JUMPI POP PUSH1 0x40 DUP1 MLOAD PUSH1 0x1F RETURNDATASIZE SWAP1 DUP2 ADD PUSH1 0x1F NOT AND DUP3 ADD SWAP1 SWAP3 MSTORE PUSH2 0x2D2F SWAP2 DUP2 ADD SWAP1 PUSH2 0x336F JUMP JUMPDEST PUSH1 0x1 JUMPDEST PUSH2 0x2D3E JUMPI PUSH2 0x2A3A PUSH2 0x373F JUMP JUMPDEST PUSH1 0x1 PUSH1 0x1 PUSH1 0xE0 SHL SUB NOT DUP2 AND PUSH4 0xF23A6E61 PUSH1 0xE0 SHL EQ PUSH2 0x288B JUMPI PUSH1 0x40 MLOAD PUSH3 0x461BCD PUSH1 0xE5 SHL DUP2 MSTORE PUSH1 0x20 PUSH1 0x4 DUP3 ADD MSTORE PUSH1 0x28 PUSH1 0x24 DUP3 ADD MSTORE PUSH32 0x455243313135353A204552433131353552656365697665722072656A65637465 PUSH1 0x44 DUP3 ADD MSTORE PUSH8 0x6420746F6B656E73 PUSH1 0xC0 SHL PUSH1 0x64 DUP3 ADD MSTORE PUSH1 0x84 ADD PUSH2 0x54D JUMP JUMPDEST PUSH1 0x0 DUP1 PUSH2 0x2DBE DUP7 DUP7 DUP7 DUP7 PUSH2 0x2B8E JUMP JUMPDEST SWAP1 POP DUP6 PUSH1 0xA0 ADD MLOAD DUP2 PUSH2 0x20F0 SWAP2 SWAP1 PUSH2 0x360A JUMP JUMPDEST PUSH1 0x0 DUP2 PUSH1 0xA0 ADD MLOAD DUP3 PUSH1 0xC0 ADD MLOAD PUSH2 0x579 SWAP2 SWAP1 PUSH2 0x360A JUMP JUMPDEST PUSH1 0x0 DUP1 PUSH2 0x2DF3 DUP4 DUP6 PUSH2 0x3644 JUMP JUMPDEST SWAP1 POP PUSH2 0x2E0B DUP5 ISZERO DUP1 PUSH2 0x2195 JUMPI POP DUP4 PUSH2 0x2193 DUP7 DUP5 PUSH2 0x3622 JUMP JUMPDEST PUSH2 0x2C3F PUSH8 0xDE0B6B3A7640000 DUP3 PUSH2 0x3622 JUMP JUMPDEST PUSH1 0x0 DUP2 DUP4 LT PUSH2 0x2E2C JUMPI DUP2 PUSH2 0x2E2E JUMP JUMPDEST DUP3 JUMPDEST SWAP4 SWAP3 POP POP POP JUMP JUMPDEST PUSH1 0x0 PUSH2 0x2E44 DUP3 ISZERO ISZERO PUSH1 0x4 PUSH2 0x2C47 JUMP JUMPDEST DUP3 PUSH2 0x2E51 JUMPI POP PUSH1 0x0 PUSH2 0x579 JUMP JUMPDEST PUSH1 0x0 PUSH2 0x2E65 PUSH8 0xDE0B6B3A7640000 DUP6 PUSH2 0x3644 JUMP JUMPDEST SWAP1 POP PUSH2 0x2E85 PUSH8 0xDE0B6B3A7640000 PUSH2 0x2E7D DUP7 DUP5 PUSH2 0x3622 JUMP JUMPDEST EQ PUSH1 0x5 PUSH2 0x2C47 JUMP JUMPDEST DUP3 PUSH2 0x21BF PUSH1 0x1 DUP4 PUSH2 0x3663 JUMP JUMPDEST PUSH3 0x461BCD PUSH1 0xE5 SHL PUSH1 0x0 SWAP1 DUP2 MSTORE PUSH1 0x20 PUSH1 0x4 MSTORE PUSH1 0x7 PUSH1 0x24 MSTORE PUSH7 0x42414C23000030 PUSH1 0xA DUP1 DUP5 DIV DUP2 DUP2 MOD PUSH1 0x30 SWAP1 DUP2 ADD PUSH1 0x8 SHL SWAP6 DUP4 SWAP1 MOD SWAP6 SWAP1 SWAP6 ADD SWAP1 DUP3 SWAP1 DIV SWAP2 DUP3 MOD SWAP1 SWAP5 ADD PUSH1 0x10 SHL SWAP4 SWAP1 SWAP4 ADD ADD PUSH1 0xC8 SHL PUSH1 0x44 MSTORE PUSH1 0x64 SWAP1 REVERT JUMPDEST PUSH1 0x0 DUP3 PUSH1 0x1F DUP4 ADD SLT PUSH2 0x2EF5 JUMPI PUSH1 0x0 DUP1 REVERT JUMPDEST DUP2 CALLDATALOAD PUSH1 0x20 PUSH2 0x2F02 DUP3 PUSH2 0x35E6 JUMP JUMPDEST PUSH1 0x40 MLOAD PUSH2 0x2F0F DUP3 DUP3 PUSH2 0x36B5 JUMP JUMPDEST DUP4 DUP2 MSTORE DUP3 DUP2 ADD SWAP2 POP DUP6 DUP4 ADD PUSH1 0x5 DUP6 SWAP1 SHL DUP8 ADD DUP5 ADD DUP9 LT ISZERO PUSH2 0x2F2F JUMPI PUSH1 0x0 DUP1 REVERT JUMPDEST PUSH1 0x0 JUMPDEST DUP6 DUP2 LT ISZERO PUSH2 0x2F4E JUMPI DUP2 CALLDATALOAD DUP5 MSTORE SWAP3 DUP5 ADD SWAP3 SWAP1 DUP5 ADD SWAP1 PUSH1 0x1 ADD PUSH2 0x2F32 JUMP JUMPDEST POP SWAP1 SWAP8 SWAP7 POP POP POP POP POP POP POP JUMP JUMPDEST PUSH1 0x0 DUP3 PUSH1 0x1F DUP4 ADD SLT PUSH2 0x2F6C JUMPI PUSH1 0x0 DUP1 REVERT JUMPDEST DUP2 CALLDATALOAD PUSH8 0xFFFFFFFFFFFFFFFF DUP2 GT ISZERO PUSH2 0x2F86 JUMPI PUSH2 0x2F86 PUSH2 0x3729 JUMP JUMPDEST PUSH1 0x40 MLOAD PUSH2 0x2F9D PUSH1 0x1F DUP4 ADD PUSH1 0x1F NOT AND PUSH1 0x20 ADD DUP3 PUSH2 0x36B5 JUMP JUMPDEST DUP2 DUP2 MSTORE DUP5 PUSH1 0x20 DUP4 DUP7 ADD ADD GT ISZERO PUSH2 0x2FB2 JUMPI PUSH1 0x0 DUP1 REVERT JUMPDEST DUP2 PUSH1 0x20 DUP6 ADD PUSH1 0x20 DUP4 ADD CALLDATACOPY PUSH1 0x0 SWAP2 DUP2 ADD PUSH1 0x20 ADD SWAP2 SWAP1 SWAP2 MSTORE SWAP4 SWAP3 POP POP POP JUMP JUMPDEST PUSH1 0x0 PUSH1 0x20 DUP3 DUP5 SUB SLT ISZERO PUSH2 0x2FE1 JUMPI PUSH1 0x0 DUP1 REVERT JUMPDEST DUP2 CALLDATALOAD PUSH2 0x2E2E DUP2 PUSH2 0x37E5 JUMP JUMPDEST PUSH1 0x0 DUP1 PUSH1 0x40 DUP4 DUP6 SUB SLT ISZERO PUSH2 0x2FFF JUMPI PUSH1 0x0 DUP1 REVERT JUMPDEST DUP3 CALLDATALOAD PUSH2 0x300A DUP2 PUSH2 0x37E5 JUMP JUMPDEST SWAP2 POP PUSH1 0x20 DUP4 ADD CALLDATALOAD PUSH2 0x301A DUP2 PUSH2 0x37E5 JUMP JUMPDEST DUP1 SWAP2 POP POP SWAP3 POP SWAP3 SWAP1 POP JUMP JUMPDEST PUSH1 0x0 DUP1 PUSH1 0x0 DUP1 PUSH1 0x0 PUSH1 0xA0 DUP7 DUP9 SUB SLT ISZERO PUSH2 0x303D JUMPI PUSH1 0x0 DUP1 REVERT JUMPDEST DUP6 CALLDATALOAD PUSH2 0x3048 DUP2 PUSH2 0x37E5 JUMP JUMPDEST SWAP5 POP PUSH1 0x20 DUP7 ADD CALLDATALOAD PUSH2 0x3058 DUP2 PUSH2 0x37E5 JUMP JUMPDEST SWAP4 POP PUSH1 0x40 DUP7 ADD CALLDATALOAD PUSH8 0xFFFFFFFFFFFFFFFF DUP1 DUP3 GT ISZERO PUSH2 0x3075 JUMPI PUSH1 0x0 DUP1 REVERT JUMPDEST PUSH2 0x3081 DUP10 DUP4 DUP11 ADD PUSH2 0x2EE4 JUMP JUMPDEST SWAP5 POP PUSH1 0x60 DUP9 ADD CALLDATALOAD SWAP2 POP DUP1 DUP3 GT ISZERO PUSH2 0x3097 JUMPI PUSH1 0x0 DUP1 REVERT JUMPDEST PUSH2 0x30A3 DUP10 DUP4 DUP11 ADD PUSH2 0x2EE4 JUMP JUMPDEST SWAP4 POP PUSH1 0x80 DUP9 ADD CALLDATALOAD SWAP2 POP DUP1 DUP3 GT ISZERO PUSH2 0x30B9 JUMPI PUSH1 0x0 DUP1 REVERT JUMPDEST POP PUSH2 0x30C6 DUP9 DUP3 DUP10 ADD PUSH2 0x2F5B JUMP JUMPDEST SWAP2 POP POP SWAP3 SWAP6 POP SWAP3 SWAP6 SWAP1 SWAP4 POP JUMP JUMPDEST PUSH1 0x0 DUP1 PUSH1 0x0 DUP1 PUSH1 0x0 PUSH1 0xA0 DUP7 DUP9 SUB SLT ISZERO PUSH2 0x30EB JUMPI PUSH1 0x0 DUP1 REVERT JUMPDEST DUP6 CALLDATALOAD PUSH2 0x30F6 DUP2 PUSH2 0x37E5 JUMP JUMPDEST SWAP5 POP PUSH1 0x20 DUP7 ADD CALLDATALOAD PUSH2 0x3106 DUP2 PUSH2 0x37E5 JUMP JUMPDEST SWAP4 POP PUSH1 0x40 DUP7 ADD CALLDATALOAD SWAP3 POP PUSH1 0x60 DUP7 ADD CALLDATALOAD SWAP2 POP PUSH1 0x80 DUP7 ADD CALLDATALOAD PUSH8 0xFFFFFFFFFFFFFFFF DUP2 GT ISZERO PUSH2 0x3130 JUMPI PUSH1 0x0 DUP1 REVERT JUMPDEST PUSH2 0x30C6 DUP9 DUP3 DUP10 ADD PUSH2 0x2F5B JUMP JUMPDEST PUSH1 0x0 DUP1 PUSH1 0x40 DUP4 DUP6 SUB SLT ISZERO PUSH2 0x314F JUMPI PUSH1 0x0 DUP1 REVERT JUMPDEST DUP3 CALLDATALOAD PUSH2 0x315A DUP2 PUSH2 0x37E5 JUMP JUMPDEST SWAP2 POP PUSH1 0x20 DUP4 ADD CALLDATALOAD PUSH2 0x301A DUP2 PUSH2 0x37FD JUMP JUMPDEST PUSH1 0x0 DUP1 PUSH1 0x40 DUP4 DUP6 SUB SLT ISZERO PUSH2 0x317D JUMPI PUSH1 0x0 DUP1 REVERT JUMPDEST DUP3 CALLDATALOAD PUSH2 0x3188 DUP2 PUSH2 0x37E5 JUMP JUMPDEST SWAP5 PUSH1 0x20 SWAP4 SWAP1 SWAP4 ADD CALLDATALOAD SWAP4 POP POP POP JUMP JUMPDEST PUSH1 0x0 DUP1 PUSH1 0x0 DUP1 PUSH1 0x0 PUSH1 0xA0 DUP7 DUP9 SUB SLT ISZERO PUSH2 0x31AE JUMPI PUSH1 0x0 DUP1 REVERT JUMPDEST DUP6 CALLDATALOAD PUSH2 0x31B9 DUP2 PUSH2 0x37E5 JUMP JUMPDEST SWAP5 POP PUSH1 0x20 DUP7 ADD CALLDATALOAD SWAP4 POP PUSH1 0x40 DUP7 ADD CALLDATALOAD SWAP3 POP PUSH1 0x60 DUP7 ADD CALLDATALOAD PUSH2 0x31D7 DUP2 PUSH2 0x37FD JUMP JUMPDEST SWAP5 SWAP8 SWAP4 SWAP7 POP SWAP2 SWAP5 PUSH1 0x80 ADD CALLDATALOAD SWAP3 SWAP2 POP POP JUMP JUMPDEST PUSH1 0x0 DUP1 PUSH1 0x0 DUP1 PUSH1 0x80 DUP6 DUP8 SUB SLT ISZERO PUSH2 0x31FE JUMPI PUSH1 0x0 DUP1 REVERT JUMPDEST DUP5 CALLDATALOAD PUSH2 0x3209 DUP2 PUSH2 0x37E5 JUMP JUMPDEST SWAP7 PUSH1 0x20 DUP7 ADD CALLDATALOAD SWAP7 POP PUSH1 0x40 DUP7 ADD CALLDATALOAD SWAP6 PUSH1 0x60 ADD CALLDATALOAD SWAP5 POP SWAP3 POP POP POP JUMP JUMPDEST PUSH1 0x0 DUP1 PUSH1 0x0 DUP1 PUSH1 0x80 DUP6 DUP8 SUB SLT ISZERO PUSH2 0x3239 JUMPI PUSH1 0x0 DUP1 REVERT JUMPDEST DUP5 MLOAD PUSH2 0x3244 DUP2 PUSH2 0x37E5 JUMP JUMPDEST PUSH1 0x20 DUP7 ADD MLOAD PUSH1 0x40 DUP8 ADD MLOAD PUSH1 0x60 SWAP1 SWAP8 ADD MLOAD SWAP2 SWAP9 SWAP1 SWAP8 POP SWAP1 SWAP5 POP SWAP3 POP POP POP JUMP JUMPDEST PUSH1 0x0 DUP1 PUSH1 0x40 DUP4 DUP6 SUB SLT ISZERO PUSH2 0x3275 JUMPI PUSH1 0x0 DUP1 REVERT JUMPDEST DUP3 CALLDATALOAD PUSH8 0xFFFFFFFFFFFFFFFF DUP1 DUP3 GT ISZERO PUSH2 0x328D JUMPI PUSH1 0x0 DUP1 REVERT JUMPDEST DUP2 DUP6 ADD SWAP2 POP DUP6 PUSH1 0x1F DUP4 ADD SLT PUSH2 0x32A1 JUMPI PUSH1 0x0 DUP1 REVERT JUMPDEST DUP2 CALLDATALOAD PUSH1 0x20 PUSH2 0x32AE DUP3 PUSH2 0x35E6 JUMP JUMPDEST PUSH1 0x40 MLOAD PUSH2 0x32BB DUP3 DUP3 PUSH2 0x36B5 JUMP JUMPDEST DUP4 DUP2 MSTORE DUP3 DUP2 ADD SWAP2 POP DUP6 DUP4 ADD PUSH1 0x5 DUP6 SWAP1 SHL DUP8 ADD DUP5 ADD DUP12 LT ISZERO PUSH2 0x32DB JUMPI PUSH1 0x0 DUP1 REVERT JUMPDEST PUSH1 0x0 SWAP7 POP JUMPDEST DUP5 DUP8 LT ISZERO PUSH2 0x3307 JUMPI DUP1 CALLDATALOAD PUSH2 0x32F3 DUP2 PUSH2 0x37E5 JUMP JUMPDEST DUP4 MSTORE PUSH1 0x1 SWAP7 SWAP1 SWAP7 ADD SWAP6 SWAP2 DUP4 ADD SWAP2 DUP4 ADD PUSH2 0x32E0 JUMP JUMPDEST POP SWAP7 POP POP DUP7 ADD CALLDATALOAD SWAP3 POP POP DUP1 DUP3 GT ISZERO PUSH2 0x331E JUMPI PUSH1 0x0 DUP1 REVERT JUMPDEST POP PUSH2 0x332B DUP6 DUP3 DUP7 ADD PUSH2 0x2EE4 JUMP JUMPDEST SWAP2 POP POP SWAP3 POP SWAP3 SWAP1 POP JUMP JUMPDEST PUSH1 0x0 PUSH1 0x20 DUP3 DUP5 SUB SLT ISZERO PUSH2 0x3347 JUMPI PUSH1 0x0 DUP1 REVERT JUMPDEST DUP2 MLOAD PUSH2 0x2E2E DUP2 PUSH2 0x37FD JUMP JUMPDEST PUSH1 0x0 PUSH1 0x20 DUP3 DUP5 SUB SLT ISZERO PUSH2 0x3364 JUMPI PUSH1 0x0 DUP1 REVERT JUMPDEST DUP2 CALLDATALOAD PUSH2 0x2E2E DUP2 PUSH2 0x380B JUMP JUMPDEST PUSH1 0x0 PUSH1 0x20 DUP3 DUP5 SUB SLT ISZERO PUSH2 0x3381 JUMPI PUSH1 0x0 DUP1 REVERT JUMPDEST DUP2 MLOAD PUSH2 0x2E2E DUP2 PUSH2 0x380B JUMP JUMPDEST PUSH1 0x0 PUSH1 0x20 DUP3 DUP5 SUB SLT ISZERO PUSH2 0x339E JUMPI PUSH1 0x0 DUP1 REVERT JUMPDEST POP CALLDATALOAD SWAP2 SWAP1 POP JUMP JUMPDEST PUSH1 0x0 PUSH1 0x20 DUP3 DUP5 SUB SLT ISZERO PUSH2 0x33B7 JUMPI PUSH1 0x0 DUP1 REVERT JUMPDEST POP MLOAD SWAP2 SWAP1 POP JUMP JUMPDEST PUSH1 0x0 DUP1 PUSH1 0x40 DUP4 DUP6 SUB SLT ISZERO PUSH2 0x33D1 JUMPI PUSH1 0x0 DUP1 REVERT JUMPDEST DUP3 CALLDATALOAD SWAP2 POP PUSH1 0x20 DUP4 ADD CALLDATALOAD PUSH2 0x301A DUP2 PUSH2 0x37E5 JUMP JUMPDEST PUSH1 0x0 DUP1 PUSH1 0x40 DUP4 DUP6 SUB SLT ISZERO PUSH2 0x33F6 JUMPI PUSH1 0x0 DUP1 REVERT JUMPDEST POP POP DUP1 CALLDATALOAD SWAP3 PUSH1 0x20 SWAP1 SWAP2 ADD CALLDATALOAD SWAP2 POP JUMP JUMPDEST PUSH1 0x0 DUP1 PUSH1 0x0 PUSH1 0x60 DUP5 DUP7 SUB SLT ISZERO PUSH2 0x341A JUMPI PUSH1 0x0 DUP1 REVERT JUMPDEST DUP4 MLOAD SWAP3 POP PUSH1 0x20 DUP5 ADD MLOAD SWAP2 POP PUSH1 0x40 DUP5 ADD MLOAD SWAP1 POP SWAP3 POP SWAP3 POP SWAP3 JUMP JUMPDEST PUSH1 0x0 DUP1 PUSH1 0x0 DUP1 PUSH1 0x0 DUP1 PUSH1 0xC0 DUP8 DUP10 SUB SLT ISZERO PUSH2 0x344C JUMPI PUSH1 0x0 DUP1 REVERT JUMPDEST DUP7 MLOAD SWAP6 POP PUSH1 0x20 DUP8 ADD MLOAD SWAP5 POP PUSH1 0x40 DUP8 ADD MLOAD SWAP4 POP PUSH1 0x60 DUP8 ADD MLOAD SWAP3 POP PUSH1 0x80 DUP8 ADD MLOAD SWAP2 POP PUSH1 0xA0 DUP8 ADD MLOAD SWAP1 POP SWAP3 SWAP6 POP SWAP3 SWAP6 POP SWAP3 SWAP6 JUMP JUMPDEST PUSH1 0x0 DUP2 MLOAD DUP1 DUP5 MSTORE PUSH1 0x20 DUP1 DUP6 ADD SWAP5 POP DUP1 DUP5 ADD PUSH1 0x0 JUMPDEST DUP4 DUP2 LT ISZERO PUSH2 0x34AD JUMPI DUP2 MLOAD DUP8 MSTORE SWAP6 DUP3 ADD SWAP6 SWAP1 DUP3 ADD SWAP1 PUSH1 0x1 ADD PUSH2 0x3491 JUMP JUMPDEST POP SWAP5 SWAP6 SWAP5 POP POP POP POP POP JUMP JUMPDEST PUSH1 0x0 DUP2 MLOAD DUP1 DUP5 MSTORE PUSH1 0x0 JUMPDEST DUP2 DUP2 LT ISZERO PUSH2 0x34DE JUMPI PUSH1 0x20 DUP2 DUP6 ADD DUP2 ADD MLOAD DUP7 DUP4 ADD DUP3 ADD MSTORE ADD PUSH2 0x34C2 JUMP JUMPDEST DUP2 DUP2 GT ISZERO PUSH2 0x34F0 JUMPI PUSH1 0x0 PUSH1 0x20 DUP4 DUP8 ADD ADD MSTORE JUMPDEST POP PUSH1 0x1F ADD PUSH1 0x1F NOT AND SWAP3 SWAP1 SWAP3 ADD PUSH1 0x20 ADD SWAP3 SWAP2 POP POP JUMP JUMPDEST PUSH1 0x0 PUSH1 0x1 PUSH1 0x1 PUSH1 0xA0 SHL SUB DUP1 DUP9 AND DUP4 MSTORE DUP1 DUP8 AND PUSH1 0x20 DUP5 ADD MSTORE POP PUSH1 0xA0 PUSH1 0x40 DUP4 ADD MSTORE PUSH2 0x3531 PUSH1 0xA0 DUP4 ADD DUP7 PUSH2 0x347D JUMP JUMPDEST DUP3 DUP2 SUB PUSH1 0x60 DUP5 ADD MSTORE PUSH2 0x3543 DUP2 DUP7 PUSH2 0x347D JUMP JUMPDEST SWAP1 POP DUP3 DUP2 SUB PUSH1 0x80 DUP5 ADD MSTORE PUSH2 0x3557 DUP2 DUP6 PUSH2 0x34B8 JUMP JUMPDEST SWAP9 SWAP8 POP POP POP POP POP POP POP POP JUMP JUMPDEST PUSH1 0x0 PUSH1 0x1 PUSH1 0x1 PUSH1 0xA0 SHL SUB DUP1 DUP9 AND DUP4 MSTORE DUP1 DUP8 AND PUSH1 0x20 DUP5 ADD MSTORE POP DUP5 PUSH1 0x40 DUP4 ADD MSTORE DUP4 PUSH1 0x60 DUP4 ADD MSTORE PUSH1 0xA0 PUSH1 0x80 DUP4 ADD MSTORE PUSH2 0x1D19 PUSH1 0xA0 DUP4 ADD DUP5 PUSH2 0x34B8 JUMP JUMPDEST PUSH1 0x20 DUP2 MSTORE PUSH1 0x0 PUSH2 0x2E2E PUSH1 0x20 DUP4 ADD DUP5 PUSH2 0x347D JUMP JUMPDEST PUSH1 0x40 DUP2 MSTORE PUSH1 0x0 PUSH2 0x35C1 PUSH1 0x40 DUP4 ADD DUP6 PUSH2 0x347D JUMP JUMPDEST DUP3 DUP2 SUB PUSH1 0x20 DUP5 ADD MSTORE PUSH2 0x2165 DUP2 DUP6 PUSH2 0x347D JUMP JUMPDEST PUSH1 0x20 DUP2 MSTORE PUSH1 0x0 PUSH2 0x2E2E PUSH1 0x20 DUP4 ADD DUP5 PUSH2 0x34B8 JUMP JUMPDEST PUSH1 0x0 PUSH8 0xFFFFFFFFFFFFFFFF DUP3 GT ISZERO PUSH2 0x3600 JUMPI PUSH2 0x3600 PUSH2 0x3729 JUMP JUMPDEST POP PUSH1 0x5 SHL PUSH1 0x20 ADD SWAP1 JUMP JUMPDEST PUSH1 0x0 DUP3 NOT DUP3 GT ISZERO PUSH2 0x361D JUMPI PUSH2 0x361D PUSH2 0x36FD JUMP JUMPDEST POP ADD SWAP1 JUMP JUMPDEST PUSH1 0x0 DUP3 PUSH2 0x363F JUMPI PUSH4 0x4E487B71 PUSH1 0xE0 SHL PUSH1 0x0 MSTORE PUSH1 0x12 PUSH1 0x4 MSTORE PUSH1 0x24 PUSH1 0x0 REVERT JUMPDEST POP DIV SWAP1 JUMP JUMPDEST PUSH1 0x0 DUP2 PUSH1 0x0 NOT DIV DUP4 GT DUP3 ISZERO ISZERO AND ISZERO PUSH2 0x365E JUMPI PUSH2 0x365E PUSH2 0x36FD JUMP JUMPDEST POP MUL SWAP1 JUMP JUMPDEST PUSH1 0x0 DUP3 DUP3 LT ISZERO PUSH2 0x3675 JUMPI PUSH2 0x3675 PUSH2 0x36FD JUMP JUMPDEST POP SUB SWAP1 JUMP JUMPDEST PUSH1 0x1 DUP2 DUP2 SHR SWAP1 DUP3 AND DUP1 PUSH2 0x368E JUMPI PUSH1 0x7F DUP3 AND SWAP2 POP JUMPDEST PUSH1 0x20 DUP3 LT DUP2 EQ ISZERO PUSH2 0x36AF JUMPI PUSH4 0x4E487B71 PUSH1 0xE0 SHL PUSH1 0x0 MSTORE PUSH1 0x22 PUSH1 0x4 MSTORE PUSH1 0x24 PUSH1 0x0 REVERT JUMPDEST POP SWAP2 SWAP1 POP JUMP JUMPDEST PUSH1 0x1F DUP3 ADD PUSH1 0x1F NOT AND DUP2 ADD PUSH8 0xFFFFFFFFFFFFFFFF DUP2 GT DUP3 DUP3 LT OR ISZERO PUSH2 0x36DB JUMPI PUSH2 0x36DB PUSH2 0x3729 JUMP JUMPDEST PUSH1 0x40 MSTORE POP POP JUMP JUMPDEST PUSH1 0x0 PUSH1 0x0 NOT DUP3 EQ ISZERO PUSH2 0x36F6 JUMPI PUSH2 0x36F6 PUSH2 0x36FD JUMP JUMPDEST POP PUSH1 0x1 ADD SWAP1 JUMP JUMPDEST PUSH4 0x4E487B71 PUSH1 0xE0 SHL PUSH1 0x0 MSTORE PUSH1 0x11 PUSH1 0x4 MSTORE PUSH1 0x24 PUSH1 0x0 REVERT JUMPDEST PUSH4 0x4E487B71 PUSH1 0xE0 SHL PUSH1 0x0 MSTORE PUSH1 0x32 PUSH1 0x4 MSTORE PUSH1 0x24 PUSH1 0x0 REVERT JUMPDEST PUSH4 0x4E487B71 PUSH1 0xE0 SHL PUSH1 0x0 MSTORE PUSH1 0x41 PUSH1 0x4 MSTORE PUSH1 0x24 PUSH1 0x0 REVERT JUMPDEST PUSH1 0x0 PUSH1 0x3 RETURNDATASIZE GT ISZERO PUSH2 0x3758 JUMPI PUSH1 0x4 PUSH1 0x0 DUP1 RETURNDATACOPY POP PUSH1 0x0 MLOAD PUSH1 0xE0 SHR JUMPDEST SWAP1 JUMP JUMPDEST PUSH1 0x0 PUSH1 0x44 RETURNDATASIZE LT ISZERO PUSH2 0x3769 JUMPI SWAP1 JUMP JUMPDEST PUSH1 0x40 MLOAD PUSH1 0x3 NOT RETURNDATASIZE DUP2 ADD PUSH1 0x4 DUP4 RETURNDATACOPY DUP2 MLOAD RETURNDATASIZE PUSH8 0xFFFFFFFFFFFFFFFF DUP2 PUSH1 0x24 DUP5 ADD GT DUP2 DUP5 GT OR ISZERO PUSH2 0x3799 JUMPI POP POP POP POP POP SWAP1 JUMP JUMPDEST DUP3 DUP6 ADD SWAP2 POP DUP2 MLOAD DUP2 DUP2 GT ISZERO PUSH2 0x37B1 JUMPI POP POP POP POP POP POP SWAP1 JUMP JUMPDEST DUP5 RETURNDATASIZE DUP8 ADD ADD PUSH1 0x20 DUP3 DUP6 ADD ADD GT ISZERO PUSH2 0x37CB JUMPI POP POP POP POP POP POP SWAP1 JUMP JUMPDEST PUSH2 0x37DA PUSH1 0x20 DUP3 DUP7 ADD ADD DUP8 PUSH2 0x36B5 JUMP JUMPDEST POP SWAP1 SWAP6 SWAP5 POP POP POP POP POP JUMP JUMPDEST PUSH1 0x1 PUSH1 0x1 PUSH1 0xA0 SHL SUB DUP2 AND DUP2 EQ PUSH2 0x37FA JUMPI PUSH1 0x0 DUP1 REVERT JUMPDEST POP JUMP JUMPDEST DUP1 ISZERO ISZERO DUP2 EQ PUSH2 0x37FA JUMPI PUSH1 0x0 DUP1 REVERT JUMPDEST PUSH1 0x1 PUSH1 0x1 PUSH1 0xE0 SHL SUB NOT DUP2 AND DUP2 EQ PUSH2 0x37FA JUMPI PUSH1 0x0 DUP1 REVERT INVALID LOG2 PUSH5 0x6970667358 0x22 SLT KECCAK256 PUSH29 0x54E7757F6F0D3A95C7CE40BB6B7F94E1BBD085D96082FA7A9D18F9E828 CALLDATACOPY 0xDA PUSH5 0x736F6C6343 STOP ADDMOD SMOD STOP CALLER ",
  "sha1": "cabff70ca14364e4fb3eb28133f3df73bfe7c5dc",
  "source": "\n// SPDX-License-Identifier: MIT\npragma solidity ^0.8.7;\n\nimport \"../libraries/Position.sol\";\nimport \"../libraries/FixedPoint.sol\";\nimport \"@openzeppelin/contracts/token/ERC1155/extensions/ERC1155Supply.sol\";\nimport \"../interfaces/IOverlayV1Market.sol\";\nimport \"../interfaces/IOverlayV1Mothership.sol\";\nimport \"../interfaces/IOverlayToken.sol\";\n\ncontract OverlayV1OVLCollateral is ERC1155Supply {\n\n    event log(string k, uint v);\n    event log_addr(string k, address v);\n\n    using Position for Position.Info;\n    using FixedPoint for uint256;\n\n    bytes32 constant private GOVERNOR = keccak256(\"GOVERNOR\");\n\n    mapping (address => mapping(uint => uint)) internal currentBlockPositionsLong;\n    mapping (address => mapping(uint => uint)) internal currentBlockPositionsShort;\n    mapping (address => MarketInfo) public marketInfo;\n    struct MarketInfo {\n        uint marginMaintenance;\n        uint marginRewardRate;\n        uint maxLeverage;\n    }\n\n    Position.Info[] public positions;\n\n    IOverlayV1Mothership public immutable mothership;\n    IOverlayToken immutable public ovl;\n\n    uint256 public fees;\n    uint256 public liquidations;\n\n    event Build(\n        address market,\n        uint256 positionId,\n        uint256 oi,\n        uint256 debt\n    );\n\n    event Unwind(\n        address market,\n        uint256 positionId,\n        uint256 oi,\n        uint256 debt\n    );\n\n    event Liquidate(\n        uint256 positionId,\n        uint256 oi,\n        uint256 reward,\n        address rewarded\n    );\n\n    event Update(\n        uint feesCollected,\n        uint feesBurned,\n        uint liquidationsCollected,\n        uint liquidationsBurned\n    );\n\n    modifier onlyGovernor () {\n        require(mothership.hasRole(GOVERNOR, msg.sender), \"OVLV1:!governor\");\n        _;\n    }\n\n    /**\n      @notice Constructor method\n      @dev  Creates a `Position.Info` struct and appends it to `positions` array to track them\n      @param _uri Unique Resource Identifier of a token\n      @param _mothership OverlayV1Mothership contract address\n     */\n    constructor (\n        string memory _uri,\n        address _mothership\n    ) ERC1155(_uri) {\n\n        mothership = IOverlayV1Mothership(_mothership);\n\n        ovl = IOverlayV1Mothership(_mothership).ovl();\n\n        positions.push(Position.Info({\n            market: address(0),\n            isLong: false,\n            leverage: 0,\n            pricePoint: 0,\n            oiShares: 0,\n            debt: 0,\n            cost: 0\n        }));\n\n    }\n\n    /**\n      @notice Sets market information\n      @dev Only the Governor can set market info\n      @dev Adds market information to the `marketInfo` mapping\n      @param _market Overlay Market contract address\n      @param _marginMaintenance maintenance margin\n      @param _marginRewardRate margin reward rate\n      @param _maxLeverage maximum leverage amount\n      */\n    function setMarketInfo (\n        address _market,\n        uint _marginMaintenance,\n        uint _marginRewardRate,\n        uint _maxLeverage\n    ) external onlyGovernor {\n\n\n        marketInfo[_market].marginMaintenance = _marginMaintenance;\n        marketInfo[_market].marginRewardRate = _marginRewardRate;\n        marketInfo[_market].maxLeverage = _maxLeverage;\n\n        // TODO: Fire and event when new market info is set - yes\n\n    }\n\n    function marginMaintenance(\n        address _market\n    ) external view returns (\n        uint marginMaintenance_\n    ) {\n\n        marginMaintenance_ = marketInfo[_market].marginMaintenance;\n\n    }\n\n    function maxLeverage(\n        address _market\n    ) external view returns (\n        uint maxLeverage_\n    ) {\n\n        maxLeverage_ = marketInfo[_market].maxLeverage;\n\n    }\n\n    function marginRewardRate(\n        address _market\n    ) external view returns (\n        uint marginRewardRate_\n    ) {\n\n        marginRewardRate_ = marketInfo[_market].marginRewardRate;\n\n    }\n\n\n    /// @notice Disburses fees\n    function disburse () public {\n\n        (   address _feeTo,,\n            uint256 _feeBurnRate,\n            uint256 _marginBurnRate ) = mothership.getGlobalParams();\n\n        uint _feeForward = fees;\n        uint _feeBurn = _feeForward.mulUp(_feeBurnRate);\n        _feeForward -= _feeBurn;\n\n        uint _liqForward = liquidations;\n        uint _liqBurn = _liqForward.mulUp(_marginBurnRate);\n        _liqForward -= _liqBurn;\n\n        fees = 0;\n        liquidations = 0;\n\n        emit Update(\n            _feeForward,\n            _feeBurn,\n            _liqForward,\n            _liqBurn\n        );\n\n        ovl.burn(_feeBurn + _liqBurn);\n        ovl.transfer(_feeTo, _feeForward + _liqForward);\n\n    }\n\n    function getCurrentBlockPositionId (\n        address _market,\n        bool _isLong,\n        uint _leverage,\n        uint _pricePointNext\n    ) internal returns (\n        uint positionId_\n    ) {\n\n        mapping(uint=>uint) storage _currentBlockPositions = _isLong\n            ? currentBlockPositionsLong[_market]\n            : currentBlockPositionsShort[_market];\n\n        positionId_ = _currentBlockPositions[_leverage];\n\n        Position.Info storage position = positions[positionId_];\n\n        // In a block, which is now the update period (past it was longer)\n        // (related to not making 1155 sharable)\n        // Looks into mapping to see what the position ID of the current\n        // leverage is. Given this leverage and market, is there a current\n        // position being built in the course of this block because that is the\n        // only scenario where the price point would be equal to what we\n        // currently have for the price point\n        // False: if there is a position being built in the same update period\n        // (current block only)\n        // price point of that position would be the price point that has\n        // already been updated and will be updated no more on the market\n        // not smae block then pricepointNext will be greater than prior\n        // position price point - > push new one onto stack\n        if  (position.pricePoint < _pricePointNext) {\n\n            positions.push(Position.Info({\n                market: _market,\n                isLong: _isLong,\n                leverage: _leverage,\n                pricePoint: _pricePointNext,\n                oiShares: 0,\n                debt: 0,\n                cost: 0\n            }));\n\n            positionId_ = positions.length - 1;\n\n            _currentBlockPositions[_leverage] = positionId_;\n\n        }\n\n    }\n\n\n    /**\n      @notice Build a position on Overlay with OVL collateral\n      @dev This interacts with an Overlay Market to register oi and hold\n      positions on behalf of users.\n      @dev Build event emitted\n      @param _market The address of the desired market to interact with\n      @param _collateral The amount of OVL to use as collateral in the position\n      @param _leverage The amount of leverage to use in the position\n      @param _isLong Whether to take out a position on the long or short side\n      @return positionId_ Id of the built position for on chain convenience\n     */\n    function build (\n        address _market,\n        uint256 _collateral,\n        uint256 _leverage,\n        bool _isLong,\n        uint256 _oiMinimum\n    ) external returns (\n        uint positionId_\n    ) {\n\n        require(mothership.marketActive(_market), \"OVLV1:!market\");\n        require(_leverage <= marketInfo[_market].maxLeverage, \"OVLV1:lev>max\");\n        require(_leverage != 0, \"OVLV1:lev==0\");\n\n        (   uint _oiAdjusted,\n            uint _collateralAdjusted,\n            uint _debtAdjusted,\n            uint _fee,\n            uint _impact,\n            uint _pricePointNext ) = IOverlayV1Market(_market)\n                .enterOI(\n                    _isLong,\n                    _collateral,\n                    _leverage\n                );\n\n        require(_oiAdjusted >= _oiMinimum, \"OVLV1:oi<min\");\n\n        uint _positionId = getCurrentBlockPositionId(\n            _market,\n            _isLong,\n            _leverage,\n            _pricePointNext\n        );\n\n        Position.Info storage pos = positions[_positionId];\n\n        pos.oiShares += _oiAdjusted;\n        pos.cost += _collateralAdjusted;\n        pos.debt += _debtAdjusted;\n\n        fees += _fee;\n\n        emit Build(_market, _positionId, _oiAdjusted, _debtAdjusted);\n\n        ovl.transferFrom(msg.sender, address(this), _collateralAdjusted + _impact + _fee);\n\n        ovl.burn(_impact);\n\n        _mint(msg.sender, _positionId, _oiAdjusted, \"\"); // WARNING: last b/c erc1155 callback\n\n        positionId_ = _positionId;\n\n    }\n\n    /**\n      @notice Unwinds shares of an existing position.\n      @dev Interacts with a market contract to realize the PnL on a position.\n      @param _positionId Id of the position to be unwound.\n      @param _shares Number of shars to unwind from the position.\n     */\n    function unwind (\n        uint256 _positionId,\n        uint256 _shares\n    ) external {\n\n        require( 0 < _shares && _shares <= balanceOf(msg.sender, _positionId), \"OVLV1:!shares\");\n\n        Position.Info storage pos = positions[_positionId];\n\n        require(0 < pos.oiShares, \"OVLV1:liquidated\");\n\n        {\n\n        (   uint _oi,\n            uint _oiShares,\n            uint _priceFrame ) = IOverlayV1Market(pos.market)\n                .exitData(\n                    pos.isLong,\n                    pos.pricePoint\n                );\n\n        uint _totalPosShares = pos.oiShares;\n\n        uint _userOiShares = _shares;\n        uint _userNotional = _shares * pos.notional(_oi, _oiShares, _priceFrame) / _totalPosShares;\n        uint _userDebt = _shares * pos.debt / _totalPosShares;\n        uint _userCost = _shares * pos.cost / _totalPosShares;\n        uint _userOi = _shares * pos.oi(_oi, _oiShares) / _totalPosShares;\n\n        emit Unwind(pos.market, _positionId, _userOi, _userDebt);\n\n        uint _feeAmount = _userNotional.mulUp(mothership.fee());\n\n        uint _userValueAdjusted = _userNotional - _feeAmount;\n        if (_userValueAdjusted > _userDebt) {\n            _userValueAdjusted -= _userDebt;\n        } else {\n            // underwater position set to zero value with fees lowered appropriately\n            _userValueAdjusted = 0;\n            _feeAmount = _userNotional > _userDebt ? _userNotional - _userDebt : 0;\n        }\n\n        fees += _feeAmount; // adds to fee pot, which is transferred on disburse\n\n        pos.debt -= _userDebt;\n        pos.cost -= _userCost;\n        pos.oiShares -= _userOiShares;\n\n\n        IOverlayV1Market(pos.market).exitOI(\n            pos.isLong,\n            _userOi,\n            _userOiShares,\n            _userCost < _userValueAdjusted ? _userValueAdjusted - _userCost : 0,\n            _userCost < _userValueAdjusted ? 0 : _userCost - _userValueAdjusted\n        );\n\n        // mint/burn excess PnL = valueAdjusted - cost\n        if (_userCost < _userValueAdjusted) {\n\n\n            ovl.mint(address(this), _userValueAdjusted - _userCost);\n\n        } else {\n\n            ovl.burn(_userCost - _userValueAdjusted);\n\n        }\n\n        ovl.transfer(msg.sender, _userValueAdjusted);\n\n        }\n\n        _burn(msg.sender, _positionId, _shares);\n\n    }\n\n    /**\n    @notice Liquidates an existing position.\n    @dev Interacts with an Overlay Market to exit all open interest\n    associated with a liquidatable positoin.\n    @param _positionId ID of the position being liquidated.\n    @param _rewardsTo Address to send liquidation reward to.\n    */\n    function liquidate (\n        uint256 _positionId,\n        address _rewardsTo\n    ) external {\n\n        Position.Info storage pos = positions[_positionId];\n\n        require(0 < pos.oiShares, \"OVLV1:liquidated\");\n\n        bool _isLong = pos.isLong;\n\n        (   uint _oi,\n            uint _oiShares,\n            uint _priceFrame ) = IOverlayV1Market(pos.market)\n                .exitData(\n                    _isLong,\n                    pos.pricePoint\n                );\n\n        MarketInfo memory _marketInfo = marketInfo[pos.market];\n\n        require(pos.isLiquidatable(\n            _oi,\n            _oiShares,\n            _priceFrame,\n            _marketInfo.marginMaintenance\n        ), \"OVLV1:!liquidatable\");\n\n        uint _value = pos.value(_oi, _oiShares, _priceFrame);\n\n        IOverlayV1Market(pos.market).exitOI(\n            _isLong,\n            pos.oi(_oi, _oiShares),\n            pos.oiShares,\n            0,\n            pos.cost - _value\n        );\n\n        pos.oiShares = 0;\n        pos.debt = 0;\n\n        uint _toReward = _value.mulUp(_marketInfo.marginRewardRate);\n\n        liquidations += _value - _toReward;\n\n        emit Liquidate(\n            _positionId,\n            _oi,\n            _toReward,\n            _rewardsTo\n        );\n\n        ovl.burn(pos.cost - _value);\n        ovl.transfer(_rewardsTo, _toReward);\n\n    }\n\n\n    /**\n    @notice Retrieves required information from market contract to calculate\n    @notice position value with.\n    @dev Gets price frame, total open interest and total open interest shares\n    @dev from an Overlay market.\n    @param _positionId ID of position to determine value of\n    @return value_ Value of the position\n    */\n    function value (\n        uint _positionId\n    ) public view returns (\n        uint256 value_\n    ) {\n\n        Position.Info storage pos = positions[_positionId];\n\n        if (pos.oiShares == 0) return 0; // liquidated\n\n        IOverlayV1Market _market = IOverlayV1Market(pos.market);\n\n        (   uint _oi,\n            uint _oiShares,\n            uint _priceFrame ) = _market\n            .positionInfo(\n                pos.isLong,\n                pos.pricePoint\n            );\n\n        value_ = pos.value(\n            _oi,\n            _oiShares,\n            _priceFrame\n        );\n\n    }\n\n}\n",
  "sourcePath": "contracts/collateral/OverlayV1OVLCollateral.sol",
  "type": "contract"
}