{
  "abi": [
    {
      "inputs": [
        {
          "internalType": "address",
          "name": "_mothership",
          "type": "address"
        },
        {
          "internalType": "address",
          "name": "_ovlFeed",
          "type": "address"
        },
        {
          "internalType": "address",
          "name": "_marketFeed",
          "type": "address"
        },
        {
          "internalType": "address",
          "name": "_quote",
          "type": "address"
        },
        {
          "internalType": "address",
          "name": "_eth",
          "type": "address"
        },
        {
          "internalType": "uint128",
          "name": "_baseAmount",
          "type": "uint128"
        },
        {
          "internalType": "uint256",
          "name": "_macroWindow",
          "type": "uint256"
        },
        {
          "internalType": "uint256",
          "name": "_microWindow",
          "type": "uint256"
        },
        {
          "internalType": "uint256",
          "name": "_priceFrameCap",
          "type": "uint256"
        }
      ],
      "stateMutability": "nonpayable",
      "type": "constructor"
    },
    {
      "anonymous": false,
      "inputs": [
        {
          "indexed": false,
          "internalType": "uint256",
          "name": "oiLong",
          "type": "uint256"
        },
        {
          "indexed": false,
          "internalType": "uint256",
          "name": "oiShort",
          "type": "uint256"
        },
        {
          "indexed": false,
          "internalType": "int256",
          "name": "fundingPaid",
          "type": "int256"
        }
      ],
      "name": "FundingPaid",
      "type": "event"
    },
    {
      "anonymous": false,
      "inputs": [
        {
          "indexed": false,
          "internalType": "uint256",
          "name": "bid",
          "type": "uint256"
        },
        {
          "indexed": false,
          "internalType": "uint256",
          "name": "ask",
          "type": "uint256"
        },
        {
          "indexed": false,
          "internalType": "uint256",
          "name": "depth",
          "type": "uint256"
        }
      ],
      "name": "NewPricePoint",
      "type": "event"
    },
    {
      "anonymous": false,
      "inputs": [
        {
          "indexed": false,
          "internalType": "string",
          "name": "k",
          "type": "string"
        },
        {
          "indexed": false,
          "internalType": "uint256",
          "name": "v",
          "type": "uint256"
        }
      ],
      "name": "log",
      "type": "event"
    },
    {
      "inputs": [],
      "name": "MIN_COLLAT",
      "outputs": [
        {
          "internalType": "uint256",
          "name": "",
          "type": "uint256"
        }
      ],
      "stateMutability": "view",
      "type": "function"
    },
    {
      "inputs": [
        {
          "internalType": "int24",
          "name": "_tick",
          "type": "int24"
        }
      ],
      "name": "_tickToPrice",
      "outputs": [
        {
          "internalType": "uint256",
          "name": "quote_",
          "type": "uint256"
        }
      ],
      "stateMutability": "view",
      "type": "function"
    },
    {
      "inputs": [
        {
          "internalType": "address",
          "name": "_collateral",
          "type": "address"
        }
      ],
      "name": "addCollateral",
      "outputs": [],
      "stateMutability": "nonpayable",
      "type": "function"
    },
    {
      "inputs": [],
      "name": "base",
      "outputs": [
        {
          "internalType": "address",
          "name": "",
          "type": "address"
        }
      ],
      "stateMutability": "view",
      "type": "function"
    },
    {
      "inputs": [
        {
          "internalType": "uint256",
          "name": "",
          "type": "uint256"
        }
      ],
      "name": "brrrrdAccumulator",
      "outputs": [
        {
          "internalType": "uint256",
          "name": "",
          "type": "uint256"
        }
      ],
      "stateMutability": "view",
      "type": "function"
    },
    {
      "inputs": [],
      "name": "brrrrdCycloid",
      "outputs": [
        {
          "internalType": "uint256",
          "name": "",
          "type": "uint256"
        }
      ],
      "stateMutability": "view",
      "type": "function"
    },
    {
      "inputs": [],
      "name": "brrrrdExpected",
      "outputs": [
        {
          "internalType": "uint256",
          "name": "",
          "type": "uint256"
        }
      ],
      "stateMutability": "view",
      "type": "function"
    },
    {
      "inputs": [],
      "name": "brrrrdFiling",
      "outputs": [
        {
          "internalType": "uint256",
          "name": "",
          "type": "uint256"
        }
      ],
      "stateMutability": "view",
      "type": "function"
    },
    {
      "inputs": [
        {
          "internalType": "uint256",
          "name": "",
          "type": "uint256"
        }
      ],
      "name": "brrrrdRollers",
      "outputs": [
        {
          "internalType": "uint256",
          "name": "time",
          "type": "uint256"
        },
        {
          "internalType": "uint256",
          "name": "ying",
          "type": "uint256"
        },
        {
          "internalType": "uint256",
          "name": "yang",
          "type": "uint256"
        }
      ],
      "stateMutability": "view",
      "type": "function"
    },
    {
      "inputs": [],
      "name": "brrrrdWindowMacro",
      "outputs": [
        {
          "internalType": "uint256",
          "name": "",
          "type": "uint256"
        }
      ],
      "stateMutability": "view",
      "type": "function"
    },
    {
      "inputs": [],
      "name": "brrrrdWindowMicro",
      "outputs": [
        {
          "internalType": "uint256",
          "name": "",
          "type": "uint256"
        }
      ],
      "stateMutability": "view",
      "type": "function"
    },
    {
      "inputs": [],
      "name": "compounded",
      "outputs": [
        {
          "internalType": "uint256",
          "name": "",
          "type": "uint256"
        }
      ],
      "stateMutability": "view",
      "type": "function"
    },
    {
      "inputs": [],
      "name": "compoundingPeriod",
      "outputs": [
        {
          "internalType": "uint256",
          "name": "",
          "type": "uint256"
        }
      ],
      "stateMutability": "view",
      "type": "function"
    },
    {
      "inputs": [
        {
          "internalType": "uint256",
          "name": "_marketLiquidity",
          "type": "uint256"
        },
        {
          "internalType": "uint256",
          "name": "_ovlPrice",
          "type": "uint256"
        }
      ],
      "name": "computeDepth",
      "outputs": [
        {
          "internalType": "uint256",
          "name": "depth_",
          "type": "uint256"
        }
      ],
      "stateMutability": "view",
      "type": "function"
    },
    {
      "inputs": [],
      "name": "depth",
      "outputs": [
        {
          "internalType": "uint256",
          "name": "depth_",
          "type": "uint256"
        }
      ],
      "stateMutability": "view",
      "type": "function"
    },
    {
      "inputs": [
        {
          "internalType": "bool",
          "name": "_isLong",
          "type": "bool"
        },
        {
          "internalType": "uint256",
          "name": "_collateral",
          "type": "uint256"
        },
        {
          "internalType": "uint256",
          "name": "_leverage",
          "type": "uint256"
        }
      ],
      "name": "enterOI",
      "outputs": [
        {
          "internalType": "uint256",
          "name": "oiAdjusted_",
          "type": "uint256"
        },
        {
          "internalType": "uint256",
          "name": "collateralAdjusted_",
          "type": "uint256"
        },
        {
          "internalType": "uint256",
          "name": "debtAdjusted_",
          "type": "uint256"
        },
        {
          "internalType": "uint256",
          "name": "fee_",
          "type": "uint256"
        },
        {
          "internalType": "uint256",
          "name": "impact_",
          "type": "uint256"
        },
        {
          "internalType": "uint256",
          "name": "pricePointNext_",
          "type": "uint256"
        }
      ],
      "stateMutability": "nonpayable",
      "type": "function"
    },
    {
      "inputs": [
        {
          "internalType": "uint256",
          "name": "_now",
          "type": "uint256"
        },
        {
          "internalType": "uint256",
          "name": "_compounded",
          "type": "uint256"
        }
      ],
      "name": "epochs",
      "outputs": [
        {
          "internalType": "uint256",
          "name": "compoundings_",
          "type": "uint256"
        },
        {
          "internalType": "uint256",
          "name": "tCompounding_",
          "type": "uint256"
        }
      ],
      "stateMutability": "view",
      "type": "function"
    },
    {
      "inputs": [
        {
          "internalType": "bool",
          "name": "_isLong",
          "type": "bool"
        },
        {
          "internalType": "uint256",
          "name": "_pricePoint",
          "type": "uint256"
        }
      ],
      "name": "exitData",
      "outputs": [
        {
          "internalType": "uint256",
          "name": "oi_",
          "type": "uint256"
        },
        {
          "internalType": "uint256",
          "name": "oiShares_",
          "type": "uint256"
        },
        {
          "internalType": "uint256",
          "name": "priceFrame_",
          "type": "uint256"
        }
      ],
      "stateMutability": "nonpayable",
      "type": "function"
    },
    {
      "inputs": [
        {
          "internalType": "bool",
          "name": "_isLong",
          "type": "bool"
        },
        {
          "internalType": "uint256",
          "name": "_oi",
          "type": "uint256"
        },
        {
          "internalType": "uint256",
          "name": "_oiShares",
          "type": "uint256"
        },
        {
          "internalType": "uint256",
          "name": "_brrrr",
          "type": "uint256"
        },
        {
          "internalType": "uint256",
          "name": "_antiBrrrr",
          "type": "uint256"
        }
      ],
      "name": "exitOI",
      "outputs": [],
      "stateMutability": "nonpayable",
      "type": "function"
    },
    {
      "inputs": [],
      "name": "fetchPricePoint",
      "outputs": [
        {
          "components": [
            {
              "internalType": "int24",
              "name": "macroTick",
              "type": "int24"
            },
            {
              "internalType": "int24",
              "name": "microTick",
              "type": "int24"
            },
            {
              "internalType": "uint256",
              "name": "depth",
              "type": "uint256"
            }
          ],
          "internalType": "struct OverlayV1PricePoint.PricePoint",
          "name": "price_",
          "type": "tuple"
        }
      ],
      "stateMutability": "view",
      "type": "function"
    },
    {
      "inputs": [],
      "name": "getBrrrrd",
      "outputs": [
        {
          "internalType": "uint256",
          "name": "brrrrd_",
          "type": "uint256"
        },
        {
          "internalType": "uint256",
          "name": "antiBrrrrd_",
          "type": "uint256"
        }
      ],
      "stateMutability": "view",
      "type": "function"
    },
    {
      "inputs": [
        {
          "internalType": "bool",
          "name": "_isLong",
          "type": "bool"
        },
        {
          "internalType": "uint256",
          "name": "_oi",
          "type": "uint256"
        },
        {
          "internalType": "uint256",
          "name": "_cap",
          "type": "uint256"
        }
      ],
      "name": "impact",
      "outputs": [
        {
          "internalType": "uint256",
          "name": "impact_",
          "type": "uint256"
        }
      ],
      "stateMutability": "view",
      "type": "function"
    },
    {
      "inputs": [],
      "name": "impactCycloid",
      "outputs": [
        {
          "internalType": "uint256",
          "name": "",
          "type": "uint256"
        }
      ],
      "stateMutability": "view",
      "type": "function"
    },
    {
      "inputs": [
        {
          "internalType": "uint256",
          "name": "",
          "type": "uint256"
        }
      ],
      "name": "impactRollers",
      "outputs": [
        {
          "internalType": "uint256",
          "name": "time",
          "type": "uint256"
        },
        {
          "internalType": "uint256",
          "name": "ying",
          "type": "uint256"
        },
        {
          "internalType": "uint256",
          "name": "yang",
          "type": "uint256"
        }
      ],
      "stateMutability": "view",
      "type": "function"
    },
    {
      "inputs": [],
      "name": "impactWindow",
      "outputs": [
        {
          "internalType": "uint256",
          "name": "",
          "type": "uint256"
        }
      ],
      "stateMutability": "view",
      "type": "function"
    },
    {
      "inputs": [
        {
          "internalType": "address",
          "name": "",
          "type": "address"
        }
      ],
      "name": "isCollateral",
      "outputs": [
        {
          "internalType": "bool",
          "name": "",
          "type": "bool"
        }
      ],
      "stateMutability": "view",
      "type": "function"
    },
    {
      "inputs": [],
      "name": "k",
      "outputs": [
        {
          "internalType": "uint256",
          "name": "",
          "type": "uint256"
        }
      ],
      "stateMutability": "view",
      "type": "function"
    },
    {
      "inputs": [],
      "name": "leverageMax",
      "outputs": [
        {
          "internalType": "uint256",
          "name": "",
          "type": "uint256"
        }
      ],
      "stateMutability": "view",
      "type": "function"
    },
    {
      "inputs": [],
      "name": "lmbda",
      "outputs": [
        {
          "internalType": "uint256",
          "name": "",
          "type": "uint256"
        }
      ],
      "stateMutability": "view",
      "type": "function"
    },
    {
      "inputs": [],
      "name": "macroWindow",
      "outputs": [
        {
          "internalType": "uint256",
          "name": "",
          "type": "uint256"
        }
      ],
      "stateMutability": "view",
      "type": "function"
    },
    {
      "inputs": [],
      "name": "marketFeed",
      "outputs": [
        {
          "internalType": "address",
          "name": "",
          "type": "address"
        }
      ],
      "stateMutability": "view",
      "type": "function"
    },
    {
      "inputs": [],
      "name": "microWindow",
      "outputs": [
        {
          "internalType": "uint256",
          "name": "",
          "type": "uint256"
        }
      ],
      "stateMutability": "view",
      "type": "function"
    },
    {
      "inputs": [],
      "name": "mothership",
      "outputs": [
        {
          "internalType": "contract IOverlayV1Mothership",
          "name": "",
          "type": "address"
        }
      ],
      "stateMutability": "view",
      "type": "function"
    },
    {
      "inputs": [],
      "name": "oi",
      "outputs": [
        {
          "internalType": "uint256",
          "name": "oiLong_",
          "type": "uint256"
        },
        {
          "internalType": "uint256",
          "name": "oiShort_",
          "type": "uint256"
        },
        {
          "internalType": "uint256",
          "name": "oiLongShares_",
          "type": "uint256"
        },
        {
          "internalType": "uint256",
          "name": "oiShortShares_",
          "type": "uint256"
        }
      ],
      "stateMutability": "view",
      "type": "function"
    },
    {
      "inputs": [],
      "name": "oiCap",
      "outputs": [
        {
          "internalType": "uint256",
          "name": "cap_",
          "type": "uint256"
        }
      ],
      "stateMutability": "view",
      "type": "function"
    },
    {
      "inputs": [],
      "name": "oiLong",
      "outputs": [
        {
          "internalType": "uint256",
          "name": "oiLong_",
          "type": "uint256"
        }
      ],
      "stateMutability": "view",
      "type": "function"
    },
    {
      "inputs": [],
      "name": "oiLongShares",
      "outputs": [
        {
          "internalType": "uint256",
          "name": "",
          "type": "uint256"
        }
      ],
      "stateMutability": "view",
      "type": "function"
    },
    {
      "inputs": [],
      "name": "oiShort",
      "outputs": [
        {
          "internalType": "uint256",
          "name": "oiShort_",
          "type": "uint256"
        }
      ],
      "stateMutability": "view",
      "type": "function"
    },
    {
      "inputs": [],
      "name": "oiShortShares",
      "outputs": [
        {
          "internalType": "uint256",
          "name": "",
          "type": "uint256"
        }
      ],
      "stateMutability": "view",
      "type": "function"
    },
    {
      "inputs": [],
      "name": "ovl",
      "outputs": [
        {
          "internalType": "address",
          "name": "",
          "type": "address"
        }
      ],
      "stateMutability": "view",
      "type": "function"
    },
    {
      "inputs": [],
      "name": "ovlFeed",
      "outputs": [
        {
          "internalType": "address",
          "name": "",
          "type": "address"
        }
      ],
      "stateMutability": "view",
      "type": "function"
    },
    {
      "inputs": [],
      "name": "pbnj",
      "outputs": [
        {
          "internalType": "uint256",
          "name": "",
          "type": "uint256"
        }
      ],
      "stateMutability": "view",
      "type": "function"
    },
    {
      "inputs": [
        {
          "internalType": "bool",
          "name": "_isLong",
          "type": "bool"
        },
        {
          "internalType": "uint256",
          "name": "_priceEntry",
          "type": "uint256"
        }
      ],
      "name": "positionInfo",
      "outputs": [
        {
          "internalType": "uint256",
          "name": "oi_",
          "type": "uint256"
        },
        {
          "internalType": "uint256",
          "name": "oiShares_",
          "type": "uint256"
        },
        {
          "internalType": "uint256",
          "name": "priceFrame_",
          "type": "uint256"
        }
      ],
      "stateMutability": "view",
      "type": "function"
    },
    {
      "inputs": [
        {
          "internalType": "bool",
          "name": "_isLong",
          "type": "bool"
        },
        {
          "internalType": "uint256",
          "name": "_oi",
          "type": "uint256"
        },
        {
          "internalType": "uint256",
          "name": "_cap",
          "type": "uint256"
        }
      ],
      "name": "pressure",
      "outputs": [
        {
          "internalType": "uint256",
          "name": "pressure_",
          "type": "uint256"
        }
      ],
      "stateMutability": "view",
      "type": "function"
    },
    {
      "inputs": [],
      "name": "priceFrameCap",
      "outputs": [
        {
          "internalType": "uint256",
          "name": "",
          "type": "uint256"
        }
      ],
      "stateMutability": "view",
      "type": "function"
    },
    {
      "inputs": [],
      "name": "pricePointCurrent",
      "outputs": [
        {
          "internalType": "uint256",
          "name": "bid_",
          "type": "uint256"
        },
        {
          "internalType": "uint256",
          "name": "ask_",
          "type": "uint256"
        },
        {
          "internalType": "uint256",
          "name": "depth_",
          "type": "uint256"
        }
      ],
      "stateMutability": "view",
      "type": "function"
    },
    {
      "inputs": [],
      "name": "pricePointNextIndex",
      "outputs": [
        {
          "internalType": "uint256",
          "name": "nextIndex_",
          "type": "uint256"
        }
      ],
      "stateMutability": "view",
      "type": "function"
    },
    {
      "inputs": [
        {
          "internalType": "uint256",
          "name": "_pricePointIndex",
          "type": "uint256"
        }
      ],
      "name": "pricePoints",
      "outputs": [
        {
          "internalType": "uint256",
          "name": "bid_",
          "type": "uint256"
        },
        {
          "internalType": "uint256",
          "name": "ask_",
          "type": "uint256"
        },
        {
          "internalType": "uint256",
          "name": "depth_",
          "type": "uint256"
        }
      ],
      "stateMutability": "view",
      "type": "function"
    },
    {
      "inputs": [],
      "name": "quote",
      "outputs": [
        {
          "internalType": "address",
          "name": "",
          "type": "address"
        }
      ],
      "stateMutability": "view",
      "type": "function"
    },
    {
      "inputs": [
        {
          "components": [
            {
              "internalType": "int24",
              "name": "macroTick",
              "type": "int24"
            },
            {
              "internalType": "int24",
              "name": "microTick",
              "type": "int24"
            },
            {
              "internalType": "uint256",
              "name": "depth",
              "type": "uint256"
            }
          ],
          "internalType": "struct OverlayV1PricePoint.PricePoint",
          "name": "_pricePoint",
          "type": "tuple"
        }
      ],
      "name": "readPricePoint",
      "outputs": [
        {
          "internalType": "uint256",
          "name": "bid_",
          "type": "uint256"
        },
        {
          "internalType": "uint256",
          "name": "ask_",
          "type": "uint256"
        },
        {
          "internalType": "uint256",
          "name": "depth_",
          "type": "uint256"
        }
      ],
      "stateMutability": "view",
      "type": "function"
    },
    {
      "inputs": [
        {
          "internalType": "uint256",
          "name": "_pricePoint",
          "type": "uint256"
        }
      ],
      "name": "readPricePoint",
      "outputs": [
        {
          "internalType": "uint256",
          "name": "bid_",
          "type": "uint256"
        },
        {
          "internalType": "uint256",
          "name": "ask_",
          "type": "uint256"
        },
        {
          "internalType": "uint256",
          "name": "depth_",
          "type": "uint256"
        }
      ],
      "stateMutability": "view",
      "type": "function"
    },
    {
      "inputs": [
        {
          "internalType": "address",
          "name": "_collateral",
          "type": "address"
        }
      ],
      "name": "removeCollateral",
      "outputs": [],
      "stateMutability": "nonpayable",
      "type": "function"
    },
    {
      "inputs": [
        {
          "internalType": "uint256",
          "name": "_lmbda",
          "type": "uint256"
        },
        {
          "internalType": "uint256",
          "name": "_staticCap",
          "type": "uint256"
        },
        {
          "internalType": "uint256",
          "name": "_brrrrExpected",
          "type": "uint256"
        },
        {
          "internalType": "uint256",
          "name": "_brrrrdWindowMacro",
          "type": "uint256"
        },
        {
          "internalType": "uint256",
          "name": "_brrrrdWindowMicro",
          "type": "uint256"
        }
      ],
      "name": "setComptrollerParams",
      "outputs": [],
      "stateMutability": "nonpayable",
      "type": "function"
    },
    {
      "inputs": [
        {
          "internalType": "uint256",
          "name": "_k",
          "type": "uint256"
        },
        {
          "internalType": "uint256",
          "name": "_pbnj",
          "type": "uint256"
        },
        {
          "internalType": "uint256",
          "name": "_compoundPeriod",
          "type": "uint256"
        },
        {
          "internalType": "uint256",
          "name": "_lmbda",
          "type": "uint256"
        },
        {
          "internalType": "uint256",
          "name": "_staticCap",
          "type": "uint256"
        },
        {
          "internalType": "uint256",
          "name": "_brrrrdExpected",
          "type": "uint256"
        },
        {
          "internalType": "uint256",
          "name": "_brrrrdWindowMacro",
          "type": "uint256"
        },
        {
          "internalType": "uint256",
          "name": "_brrrrdWindowMicro",
          "type": "uint256"
        }
      ],
      "name": "setEverything",
      "outputs": [],
      "stateMutability": "nonpayable",
      "type": "function"
    },
    {
      "inputs": [
        {
          "internalType": "uint256",
          "name": "_k",
          "type": "uint256"
        }
      ],
      "name": "setK",
      "outputs": [],
      "stateMutability": "nonpayable",
      "type": "function"
    },
    {
      "inputs": [
        {
          "internalType": "uint256",
          "name": "_compoundingPeriod",
          "type": "uint256"
        }
      ],
      "name": "setPeriods",
      "outputs": [],
      "stateMutability": "nonpayable",
      "type": "function"
    },
    {
      "inputs": [
        {
          "internalType": "uint256",
          "name": "_pbnj",
          "type": "uint256"
        }
      ],
      "name": "setSpread",
      "outputs": [],
      "stateMutability": "nonpayable",
      "type": "function"
    },
    {
      "inputs": [],
      "name": "update",
      "outputs": [
        {
          "internalType": "uint256",
          "name": "cap_",
          "type": "uint256"
        }
      ],
      "stateMutability": "nonpayable",
      "type": "function"
    },
    {
      "inputs": [],
      "name": "updated",
      "outputs": [
        {
          "internalType": "uint256",
          "name": "",
          "type": "uint256"
        }
      ],
      "stateMutability": "view",
      "type": "function"
    }
  ],
  "bytecode": "610220604052600161017e556c0100000000000000000000000061017f553480156200002a57600080fd5b5060405162005e4d38038062005e4d8339810160408190526200004d9162000ff2565b88808284858060808181525050604051806060016040528042815260200160008152602001600081525060026000603c81106200008e576200008e62001438565b60030201600082015181600001556020820151816001015560408201518160020155905050604051806060016040528042815260200160008152602001600081525060b66000603c8110620000e757620000e762001438565b8251600391909102919091019081556020820151600182015560409091015160029091015550610172554261017355670de0b6b3a7640000811015620001685760405162461bcd60e51b81526020600482015260116024820152704f564c56313a2170726963654672616d6560781b60448201526064015b60405180910390fd5b60a0524261017a556001600160601b0319606082901b1660e0526040805163b29fa9c360e01b815290516001600160a01b0383169163b29fa9c3916004808301926020929190829003018186803b158015620001c357600080fd5b505afa158015620001d8573d6000803e3d6000fd5b505050506040513d601f19601f82011682018060405250810190620001fe919062000fd2565b6001600160a01b031660c0816001600160a01b031660601b815250505050846001600160a01b03166101e0816001600160a01b031660601b81525050846001600160a01b0316886001600160a01b0316630dfe16816040518163ffffffff1660e01b815260040160206040518083038186803b1580156200027e57600080fd5b505afa15801562000293573d6000803e3d6000fd5b505050506040513d601f19601f82011682018060405250810190620002b9919062000fd2565b6001600160a01b039081169190911460f81b610200526001600160601b031960608a811b82166101605289901b16610140526001600160801b0319608086901b166101c05261010084905261012083905260408051630dfe168160e01b815290516000928a1691630dfe1681916004808301926020929190829003018186803b1580156200034657600080fd5b505afa1580156200035b573d6000803e3d6000fd5b505050506040513d601f19601f8201168201806040525081019062000381919062000fd2565b90506000886001600160a01b031663d21220a76040518163ffffffff1660e01b815260040160206040518083038186803b158015620003bf57600080fd5b505afa158015620003d4573d6000803e3d6000fd5b505050506040513d601f19601f82011682018060405250810190620003fa919062000fd2565b9050876001600160a01b0316826001600160a01b031614156200041e578062000420565b815b60601b6001600160601b031916610180526001600160a01b03888116908316146200044c57806200044e565b815b6001600160a01b03166101a0816001600160a01b031660601b815250506000620004868a876000620005e560201b620020af1760201c565b60408051606081018252600283810b80835260208301908152600093830184815261017b805460018101825590865293519383027f46985247fac81b794ada23f07cfef771057cf55c53a3d12054bcb524935683d7810180549351850b62ffffff90811663010000000265ffffffffffff199095169690950b9094169490941791909117909155517f46985247fac81b794ada23f07cfef771057cf55c53a3d12054bcb524935683d8909101559091506200058e82896001600160a01b03878116908e1614156200055857856200055a565b865b8d6001600160a01b0316886001600160a01b0316146200057b57866200057d565b875b620007de60201b620022881760201c565b604080518281526020810183905260008183015290519192507f8371b63c1831915158cdb0bbb5e03eb9c0188dc41aaa16c5ab3598b538a23d20919081900360600190a1505050505050505050505050506200147d565b600080620005f483856200133b565b905063ffffffff8116620006305760405162461bcd60e51b8152602060048201526002602482015261042560f41b60448201526064016200015f565b604080516002808252606082018352600092602083019080368337019050509050848160008151811062000668576200066862001438565b602002602001019063ffffffff16908163ffffffff1681525050838160018151811062000699576200069962001438565b63ffffffff9092166020928302919091019091015260405163883bdbfd60e01b81526000906001600160a01b0388169063883bdbfd90620006df9085906004016200118e565b60006040518083038186803b158015620006f857600080fd5b505afa1580156200070d573d6000803e3d6000fd5b505050506040513d6000823e601f3d908101601f19168201604052620007379190810190620010b0565b50905060008160008151811062000752576200075262001438565b60200260200101518260018151811062000770576200077062001438565b6020026020010151620007849190620012cb565b905062000796600385900b826200124e565b945060008160060b128015620007bd5750620007b7600385900b826200138a565b60060b15155b15620007d35784620007cf8162001363565b9550505b505050509392505050565b600080620007f7866200094b60201b620023961760201c565b90506001600160801b036001600160a01b038216116200089d576000620008286001600160a01b03831680620012a9565b9050836001600160a01b0316856001600160a01b0316106200086f5762000869600160c01b876001600160801b03168362000dac60201b620027ad1760201c565b62000894565b6200089481876001600160801b0316600160c01b62000dac60201b620027ad1760201c565b92505062000942565b6000620008d2826001600160a01b0316836001600160a01b03166801000000000000000062000dac60201b620027ad1760201c565b9050836001600160a01b0316856001600160a01b031610620009195762000913600160801b876001600160801b03168362000dac60201b620027ad1760201c565b6200093e565b6200093e81876001600160801b0316600160801b62000dac60201b620027ad1760201c565b9250505b50949350505050565b60008060008360020b1262000964578260020b62000973565b8260020b6200097390620013ec565b905062000984620d89e719620013c6565b62ffffff16811115620009be5760405162461bcd60e51b81526020600482015260016024820152601560fa1b60448201526064016200015f565b600060018216620009d457600160801b620009e6565b6ffffcb933bd6fad37aa2d162d1a5940015b6001600160881b03169050600282161562000a1e57608062000a19826ffff97272373d413259a46990580e213a620012a9565b901c90505b600482161562000a4b57608062000a46826ffff2e50f5f656932ef12357cf3c7fdcc620012a9565b901c90505b600882161562000a7857608062000a73826fffe5caca7e10e4e61c3624eaa0941cd0620012a9565b901c90505b601082161562000aa557608062000aa0826fffcb9843d60f6159c9db58835c926644620012a9565b901c90505b602082161562000ad257608062000acd826fff973b41fa98c081472e6896dfb254c0620012a9565b901c90505b604082161562000aff57608062000afa826fff2ea16466c96a3843ec78b326b52861620012a9565b901c90505b608082161562000b2c57608062000b27826ffe5dee046a99a2a811c461f1969c3053620012a9565b901c90505b61010082161562000b5a57608062000b55826ffcbe86c7900a88aedcffc83b479aa3a4620012a9565b901c90505b61020082161562000b8857608062000b83826ff987a7253ac413176f2b074cf7815e54620012a9565b901c90505b61040082161562000bb657608062000bb1826ff3392b0822b70005940c7a398e4b70f3620012a9565b901c90505b61080082161562000be457608062000bdf826fe7159475a2c29b7443b29c7fa6e889d9620012a9565b901c90505b61100082161562000c1257608062000c0d826fd097f3bdfd2022b8845ad8f792aa5825620012a9565b901c90505b61200082161562000c4057608062000c3b826fa9f746462d870fdf8a65dc1f90e061e5620012a9565b901c90505b61400082161562000c6e57608062000c69826f70d869a156d2a1b890bb3df62baf32f7620012a9565b901c90505b61800082161562000c9c57608062000c97826f31be135f97d08fd981231505542fcfa6620012a9565b901c90505b6201000082161562000ccb57608062000cc6826f09aa508b5b7a84e1c677de54f3e99bc9620012a9565b901c90505b6202000082161562000cf957608062000cf4826e5d6af8dedb81196699c329225ee604620012a9565b901c90505b6204000082161562000d2657608062000d21826d2216e584f5fa1ea926041bedfe98620012a9565b901c90505b6208000082161562000d5157608062000d4c826b048a170391f7dc42444e8fa2620012a9565b901c90505b60008460020b131562000d6f5762000d6c8160001962001292565b90505b62000d8064010000000082620013af565b1562000d8e57600162000d91565b60005b62000da49060ff16602083901c62001233565b949350505050565b60008080600019858709858702925082811083820303915050806000141562000de9576000841162000ddd57600080fd5b50829004905062000f46565b80841162000df657600080fd5b60008486880980840393811190920391905060008562000e1681620013ec565b1695869004959384900493600081900304600101905062000e388184620012a9565b90931792600062000e4b876003620012a9565b600218905062000e5c8188620012a9565b62000e6990600262001321565b62000e759082620012a9565b905062000e838188620012a9565b62000e9090600262001321565b62000e9c9082620012a9565b905062000eaa8188620012a9565b62000eb790600262001321565b62000ec39082620012a9565b905062000ed18188620012a9565b62000ede90600262001321565b62000eea9082620012a9565b905062000ef88188620012a9565b62000f0590600262001321565b62000f119082620012a9565b905062000f1f8188620012a9565b62000f2c90600262001321565b62000f389082620012a9565b9050620007cf8186620012a9565b9392505050565b600082601f83011262000f5f57600080fd5b8151602062000f7862000f72836200120d565b620011da565b80838252828201915082860187848660051b890101111562000f9957600080fd5b60005b8581101562000fc557815162000fb28162001464565b8452928401929084019060010162000f9c565b5090979650505050505050565b60006020828403121562000fe557600080fd5b815162000f468162001464565b60008060008060008060008060006101208a8c0312156200101257600080fd5b89516200101f8162001464565b60208b0151909950620010328162001464565b60408b0151909850620010458162001464565b60608b0151909750620010588162001464565b60808b01519096506200106b8162001464565b60a08b01519095506001600160801b03811681146200108957600080fd5b8094505060c08a0151925060e08a015191506101008a015190509295985092959850929598565b60008060408385031215620010c457600080fd5b82516001600160401b0380821115620010dc57600080fd5b818501915085601f830112620010f157600080fd5b815160206200110462000f72836200120d565b8083825282820191508286018a848660051b89010111156200112557600080fd5b600096505b848710156200115a5780518060060b81146200114557600080fd5b8352600196909601959183019183016200112a565b50918801519196509093505050808211156200117557600080fd5b50620011848582860162000f4d565b9150509250929050565b6020808252825182820181905260009190848201906040850190845b81811015620011ce57835163ffffffff1683529284019291840191600101620011aa565b50909695505050505050565b604051601f8201601f191681016001600160401b03811182821017156200120557620012056200144e565b604052919050565b60006001600160401b038211156200122957620012296200144e565b5060051b60200190565b600082198211156200124957620012496200140c565b500190565b60008160060b8360060b8062001268576200126862001422565b667fffffffffffff198214600019821416156200128957620012896200140c565b90059392505050565b600082620012a457620012a462001422565b500490565b6000816000190483118215151615620012c657620012c66200140c565b500290565b60008160060b8360060b6000811281667fffffffffffff1901831281151615620012f957620012f96200140c565b81667fffffffffffff0183138116156200131757620013176200140c565b5090039392505050565b6000828210156200133657620013366200140c565b500390565b600063ffffffff838116908316818110156200135b576200135b6200140c565b039392505050565b60008160020b627fffff198114156200138057620013806200140c565b6000190192915050565b60008260060b80620013a057620013a062001422565b808360060b0791505092915050565b600082620013c157620013c162001422565b500690565b60008160020b627fffff19811415620013e357620013e36200140c565b60000392915050565b6000600160ff1b8214156200140557620014056200140c565b5060000390565b634e487b7160e01b600052601160045260246000fd5b634e487b7160e01b600052601260045260246000fd5b634e487b7160e01b600052603260045260246000fd5b634e487b7160e01b600052604160045260246000fd5b6001600160a01b03811681146200147a57600080fd5b50565b60805160a05160c05160601c60e05160601c61010051610120516101405160601c6101605160601c6101805160601c6101a05160601c6101c05160801c6101e05160601c6102005160f81c614854620015f960003960006115a7015260006117b3015260008181611aaf01528181611ae801528181611ba60152611bdf0152600081816106ee01528181611a4e0152611b450152600081816105ba01528181611a780152611b6f01526000818161058b015261168801526000818161077c01526113910152600081816104cf015281816113330152818161149401526115720152600081816107b6015281816112e5015281816114240152818161162a015261171b015260008181610542015281816109b501528181610b6d01528181610ff4015281816111d6015281816118a501528181611c4401528181611d4f0152611fa201526000818161071d015261179201526000818161045a0152612bc101526000818161081801528181610ea401526130a701526148546000f3fe608060405234801561001057600080fd5b50600436106103995760003560e01c80637d2eaf4c116101e9578063d14ca93c1161010f578063ef9b45dc116100ad578063fbaca1131161007c578063fbaca11314610890578063fbefb4b91461089a578063fd84e4de146108a4578063ff1e62f0146108ad57600080fd5b8063ef9b45dc1461084d578063f0d2d5a814610860578063f333fe1314610873578063f8fecbc41461087d57600080fd5b8063e06fc927116100e9578063e06fc927146107ff578063e07b877a14610809578063e6b44e5214610813578063e8fd2b771461083a57600080fd5b8063d14ca93c146107d8578063d28d04fb146107eb578063de51da07146107f557600080fd5b8063b29fa9c311610187578063bccd45c311610156578063bccd45c314610764578063bf8f1d5a14610777578063c99d3a061461079e578063ca2e4f1d146107b157600080fd5b8063b29fa9c314610718578063b4f40c611461073f578063b66a261c14610749578063b77461a51461075c57600080fd5b80639563dbcf116101c35780639563dbcf146106a45780639972b3f8146106b7578063999b93af146106e9578063a2e620451461071057600080fd5b80637d2eaf4c1461065f5780638b759831146106725780638d5a63de1461067c57600080fd5b8063401d56d2116102ce57806358c489bd1161026c57806367de8be91161023b57806367de8be91461062557806368300981146106385780637836efd5146106425780637b2aab031461065557600080fd5b806358c489bd146105ef5780635dedde6d146106025780636261a6b91461060a578063631c56ef1461061d57600080fd5b806343e4a273116102a857806343e4a273146105865780634c9ea13e146105ad5780635001f3b5146105b5578063561fed02146105dc57600080fd5b8063401d56d21461052a5780634187b7d61461053d57806341a3a0921461057c57600080fd5b8063205f47111161033b5780632acb3810116103155780632acb3810146104f15780632c9c34b9146104fb578063366981391461050e578063373e056b1461052157600080fd5b8063205f4711146104ac57806324557b25146104b55780632869f965146104ca57600080fd5b80630f293839116103775780630f293839146104155780630fce7953146104555780631351caa11461047c5780631827696d1461049f57600080fd5b8063091630141461039e5780630a88bd04146103b95780630ee21e54146103e1575b600080fd5b6103a66108c0565b6040519081526020015b60405180910390f35b6103cc6103c736600461441d565b6108d3565b604080519283526020830191909152016103b0565b6104056103ef3660046141c1565b61017d6020526000908152604090205460ff1681565b60405190151581526020016103b0565b6104286104233660046142ef565b610911565b604080519687526020870195909552938501929092526060840152608083015260a082015260c0016103b0565b6103a67f000000000000000000000000000000000000000000000000000000000000000081565b610484610af6565b604080519384526020840192909252908201526060016103b0565b6103a6655af3107a400081565b6103a660005481565b6104c86104c336600461447a565b610b44565b005b6103a67f000000000000000000000000000000000000000000000000000000000000000081565b6103a66101765481565b6104846105093660046143eb565b610c5f565b6103a661051c3660046142ef565b610cf8565b61017b546103a6565b6104846105383660046142c3565b610d6b565b6105647f000000000000000000000000000000000000000000000000000000000000000081565b6040516001600160a01b0390911681526020016103b0565b6103a661016b5481565b6105647f000000000000000000000000000000000000000000000000000000000000000081565b6103cc610e05565b6105647f000000000000000000000000000000000000000000000000000000000000000081565b6103a66105ea3660046142ef565b610e95565b6104846105fd3660046143eb565b610f1f565b6103a6610f46565b6104846106183660046142c3565b610f59565b6103a6610fba565b6104c86106333660046143eb565b610fcb565b6103a66101715481565b610484610650366004614383565b6110ba565b6103a661017a5481565b6103a661066d36600461441d565b611143565b6103a66101735481565b61068461117d565b6040805194855260208501939093529183015260608201526080016103b0565b6104c86106b23660046143eb565b6111ad565b6106bf61129c565b604080518251600290810b825260208085015190910b9082015291810151908201526060016103b0565b6105647f000000000000000000000000000000000000000000000000000000000000000081565b6103a661180e565b6105647f000000000000000000000000000000000000000000000000000000000000000081565b6103a66101785481565b6104c86107573660046143eb565b61187c565b6103a661196b565b6103a6610772366004614368565b611a10565b6105647f000000000000000000000000000000000000000000000000000000000000000081565b6104c86107ac3660046141c1565b611c1b565b6103a67f000000000000000000000000000000000000000000000000000000000000000081565b6104c86107e636600461443f565b611d26565b6103a66101705481565b6103a661016e5481565b6103a661016f5481565b6103a661017c5481565b6103a67f000000000000000000000000000000000000000000000000000000000000000081565b6104c8610848366004614324565b611e2b565b61048461085b3660046143eb565b611f01565b6104c861086e3660046141c1565b611f79565b6103a66101775481565b61048461088b3660046143eb565b612087565b6103a66101725481565b6103a66101795481565b6103a660015481565b6103a66108bb3660046143eb565b612097565b60006108ca61117d565b50909392505050565b610172546000908190806108e785876146bb565b6108f19190614610565b92506108fd8184614624565b6109079085614594565b9150509250929050565b33600090815261017d60205260408120548190819081908190819060ff166109745760405162461bcd60e51b815260206004820152601160248201527013d593158c4e8858dbdb1b185d195c985b607a1b60448201526064015b60405180910390fd5b600061097e61180e565b61017b54909150610991906001906146bb565b9150600061099f898b614624565b905060006109ae8c8385612917565b9050610a4b7f00000000000000000000000000000000000000000000000000000000000000006001600160a01b031663ddca3f436040518163ffffffff1660e01b815260040160206040518083038186803b158015610a0c57600080fd5b505afa158015610a20573d6000803e3d6000fd5b505050506040513d601f19601f82011682018060405250810190610a449190614404565b8390612961565b955093508385610a6182655af3107a4000614594565b610a6b9190614594565b8b1015610aad5760405162461bcd60e51b815260206004820152601060248201526f27ab262b189d31b7b63630ba1e36b4b760811b604482015260640161096b565b85610ab8828d6146bb565b610ac291906146bb565b9750610ace8a89614624565b9850610ada888a6146bb565b9650610ae78c8a856129ab565b50505093975093979195509350565b61017a54600090819081904290808214610b2157610b1561065061129c565b91965094509250610b3d565b61017b54610b359061085b906001906146bb565b919650945092505b5050909192565b604051632474521560e21b81526000805160206147ff83398151915260048201523360248201527f00000000000000000000000000000000000000000000000000000000000000006001600160a01b0316906391d148549060440160206040518083038186803b158015610bb757600080fd5b505afa158015610bcb573d6000803e3d6000fd5b505050506040513d601f19601f82011682018060405250810190610bef91906142a6565b610c2d5760405162461bcd60e51b815260206004820152600f60248201526e27ab262b189d10b3b7bb32b93737b960891b604482015260640161096b565b610c3688610fcb565b610c3f8761187c565b610c48866111ad565b610c558585858585611d26565b5050505050505050565b61017b546000908190819080851080610c8557508085148015610c8557504261017a5414155b610cc05760405162461bcd60e51b815260206004820152600c60248201526b4f564c56313a21707269636560a01b604482015260640161096b565b80851415610cdf57610cd361065061129c565b91955093509150610cf0565b610ce885611f01565b919550935091505b509193909250565b600080610d06858585610e95565b90506000610d208261016b5461296190919063ffffffff16565b9050600082610d30576000610d54565b610d54610d4567051af86713316a9a84612a95565b670de0b6b3a764000090612afa565b9050610d608682612b16565b979650505050505050565b33600090815261017d60205260408120548190819060ff16610dc35760405162461bcd60e51b815260206004820152601160248201527013d593158c4e8858dbdb1b185d195c985b607a1b604482015260640161096b565b610dcb61180e565b508415610de45761017454610176549093509150610df2565b610175546101775490935091505b610dfc8585612b7b565b90509250925092565b600080600080610e1c60b660015461016f54612be5565b92509250508060200151826020015161016c600060028110610e4057610e406147ac565b0154610e4c9190614594565b610e5691906146bb565b93508060400151826040015161016c600160028110610e7757610e776147ac565b0154610e839190614594565b610e8d91906146bb565b925050509091565b6000806000610ec860026000547f0000000000000000000000000000000000000000000000000000000000000000612be5565b925092505085610eeb5780604001518260400151610ee691906146bb565b610eff565b80602001518260200151610eff91906146bb565b9250610f0b8585612cda565b610f159084614594565b9695505050505050565b60b681603c8110610f2f57600080fd5b600302018054600182015460029092015490925083565b6000610f5061117d565b50919392505050565b600080600080610f6c42610173546108d3565b509050600080600080610f7e85612d34565b93509350935093508915610f99578397508782975050610fa2565b82975087819750505b610fac8a8a612b7b565b955050505050509250925092565b6000610fc4610af6565b9392505050565b604051632474521560e21b81526000805160206147ff83398151915260048201523360248201527f00000000000000000000000000000000000000000000000000000000000000006001600160a01b0316906391d148549060440160206040518083038186803b15801561103e57600080fd5b505afa158015611052573d6000803e3d6000fd5b505050506040513d601f19601f8201168201806040525081019061107691906142a6565b6110b45760405162461bcd60e51b815260206004820152600f60248201526e27ab262b189d10b3b7bb32b93737b960891b604482015260640161096b565b61017855565b6000806000806110cd8560200151611a10565b905060006110de8660000151611a10565b6101795490915061110a6110fa6725b946ebc0b3635183612a95565b6111048486612d67565b90612b16565b945061113161112167051af86713316a9a83612a95565b61112b8486612d7e565b90612961565b60409097015196979496955050505050565b6000610fc4671bc16d674ec8000061117761016b548587670de0b6b3a764000061116d9190614624565b6111049190614610565b90612cda565b600080600080600061119242610173546108d3565b50905061119e81612d34565b92989197509550909350915050565b604051632474521560e21b81526000805160206147ff83398151915260048201523360248201527f00000000000000000000000000000000000000000000000000000000000000006001600160a01b0316906391d148549060440160206040518083038186803b15801561122057600080fd5b505afa158015611234573d6000803e3d6000fd5b505050506040513d601f19601f8201168201806040525081019061125891906142a6565b6112965760405162461bcd60e51b815260206004820152600f60248201526e27ab262b189d10b3b7bb32b93737b960891b604482015260640161096b565b61017255565b60408051606080820183526000808352602080840182905283850182905284516003808252608082019096529394929384938392839283928392820188803683370190505090507f000000000000000000000000000000000000000000000000000000000000000081600281518110611317576113176147ac565b602002602001019063ffffffff16908163ffffffff16815250507f000000000000000000000000000000000000000000000000000000000000000081600181518110611365576113656147ac565b63ffffffff9092166020928302919091019091015260405163883bdbfd60e01b81526001600160a01b037f0000000000000000000000000000000000000000000000000000000000000000169063883bdbfd906113c69084906004016144cf565b60006040518083038186803b1580156113de57600080fd5b505afa1580156113f2573d6000803e3d6000fd5b505050506040513d6000823e601f3d908101601f1916820160405261141a91908101906141de565b80975081985050507f000000000000000000000000000000000000000000000000000000000000000060030b87600281518110611459576114596147ac565b602002602001015188600081518110611474576114746147ac565b60200260200101516114869190614643565b61149091906145ac565b91507f000000000000000000000000000000000000000000000000000000000000000060030b876001815181106114c9576114c96147ac565b6020026020010151886000815181106114e4576114e46147ac565b60200260200101516114f69190614643565b61150091906145ac565b9250600061150d84612396565b6001600160a01b0316905060008760018151811061152d5761152d6147ac565b602002602001015188600081518110611548576115486147ac565b602002602001015161155a9190614693565b61159a906fffffffffffffffffffffffffffffffff197f000000000000000000000000000000000000000000000000000000000000000060801b166145ea565b6001600160a01b031690507f00000000000000000000000000000000000000000000000000000000000000006115dd576115d8818361017f546127ad565b6115eb565b6115eb82606083901b614610565b955060009250600291506115fc9050565b604051908082528060200260200182016040528015611625578160200160208202803683370190505b5090507f00000000000000000000000000000000000000000000000000000000000000008160018151811061165c5761165c6147ac565b63ffffffff9092166020928302919091019091015260405163883bdbfd60e01b81526001600160a01b037f0000000000000000000000000000000000000000000000000000000000000000169063883bdbfd906116bd9084906004016144cf565b60006040518083038186803b1580156116d557600080fd5b505afa1580156116e9573d6000803e3d6000fd5b505050506040513d6000823e601f3d908101601f1916820160405261171191908101906141de565b50809750506117d77f000000000000000000000000000000000000000000000000000000000000000060030b88600181518110611750576117506147ac565b60200260200101518960008151811061176b5761176b6147ac565b602002602001015161177d9190614643565b61178791906145ac565b670de0b6b3a76400007f00000000000000000000000000000000000000000000000000000000000000007f0000000000000000000000000000000000000000000000000000000000000000612288565b94505060405180606001604052808360020b81526020018260020b81526020016118018587611143565b9052979650505050505050565b61017a54600090429080821461183b57600061182861129c565b905061183381612d8d565b5061017a8290555b60008061184b84610173546108d3565b9092509050811561186b576118636101785483612e7d565b506101738190555b61187361196b565b94505050505090565b604051632474521560e21b81526000805160206147ff83398151915260048201523360248201527f00000000000000000000000000000000000000000000000000000000000000006001600160a01b0316906391d148549060440160206040518083038186803b1580156118ef57600080fd5b505afa158015611903573d6000803e3d6000fd5b505050506040513d601f19601f8201168201806040525081019061192791906142a6565b6119655760405162461bcd60e51b815260206004820152600f60248201526e27ab262b189d10b3b7bb32b93737b960891b604482015260640161096b565b61017955565b6000806000611978610e05565b610170549193509150600080808486101561199657600192506119b7565b6119a085876146bb565b955083861091506119b2846002614624565b861190505b80611a025782806119c55750815b6119e9576119e460016119d6610fba565b61016a548961017054612ef1565b611a05565b6119e460006119f6610fba565b61016a54600080612ef1565b60005b965050505050505090565b600080611a1c83612396565b90506001600160801b036001600160a01b03821611611b22576000611a4a6001600160a01b03831680614624565b90507f00000000000000000000000000000000000000000000000000000000000000006001600160a01b03167f00000000000000000000000000000000000000000000000000000000000000006001600160a01b031610611ae257611add600160c01b7f00000000000000000000000000000000000000000000000000000000000000006001600160801b0316836127ad565b611b1a565b611b1a817f00000000000000000000000000000000000000000000000000000000000000006001600160801b0316600160c01b6127ad565b925050611c15565b6000611b416001600160a01b03831680680100000000000000006127ad565b90507f00000000000000000000000000000000000000000000000000000000000000006001600160a01b03167f00000000000000000000000000000000000000000000000000000000000000006001600160a01b031610611bd957611bd4600160801b7f00000000000000000000000000000000000000000000000000000000000000006001600160801b0316836127ad565b611c11565b611c11817f00000000000000000000000000000000000000000000000000000000000000006001600160801b0316600160801b6127ad565b9250505b50919050565b604051632474521560e21b81526000805160206147ff83398151915260048201523360248201527f00000000000000000000000000000000000000000000000000000000000000006001600160a01b0316906391d148549060440160206040518083038186803b158015611c8e57600080fd5b505afa158015611ca2573d6000803e3d6000fd5b505050506040513d601f19601f82011682018060405250810190611cc691906142a6565b611d045760405162461bcd60e51b815260206004820152600f60248201526e27ab262b189d10b3b7bb32b93737b960891b604482015260640161096b565b6001600160a01b0316600090815261017d60205260409020805460ff19169055565b604051632474521560e21b81526000805160206147ff83398151915260048201523360248201527f00000000000000000000000000000000000000000000000000000000000000006001600160a01b0316906391d148549060440160206040518083038186803b158015611d9957600080fd5b505afa158015611dad573d6000803e3d6000fd5b505050506040513d601f19601f82011682018060405250810190611dd191906142a6565b611e0f5760405162461bcd60e51b815260206004820152600f60248201526e27ab262b189d10b3b7bb32b93737b960891b604482015260640161096b565b61016b9490945561016a929092556101705561016f5561016e55565b33600090815261017d602052604090205460ff16611e7f5760405162461bcd60e51b815260206004820152601160248201527013d593158c4e8858dbdb1b185d195c985b607a1b604482015260640161096b565b611e898282612f42565b8415611ec757836101746000828254611ea291906146bb565b925050819055836101766000828254611ebb91906146bb565b90915550611efa915050565b836101756000828254611eda91906146bb565b925050819055836101776000828254611ef391906146bb565b9091555050505b5050505050565b6000806000611f6c61017b8581548110611f1d57611f1d6147ac565b6000918252602091829020604080516060810182526002938402909201805480850b850b850b845263010000009004840b840b90930b93820193909352600190910154918101919091526110ba565b9250925092509193909250565b604051632474521560e21b81526000805160206147ff83398151915260048201523360248201527f00000000000000000000000000000000000000000000000000000000000000006001600160a01b0316906391d148549060440160206040518083038186803b158015611fec57600080fd5b505afa158015612000573d6000803e3d6000fd5b505050506040513d601f19601f8201168201806040525081019061202491906142a6565b6120625760405162461bcd60e51b815260206004820152600f60248201526e27ab262b189d10b3b7bb32b93737b960891b604482015260640161096b565b6001600160a01b0316600090815261017d60205260409020805460ff19166001179055565b600281603c8110610f2f57600080fd5b61016c81600281106120a857600080fd5b0154905081565b6000806120bc83856146d2565b905063ffffffff81166120f65760405162461bcd60e51b8152602060048201526002602482015261042560f41b604482015260640161096b565b604080516002808252606082018352600092602083019080368337019050509050848160008151811061212b5761212b6147ac565b602002602001019063ffffffff16908163ffffffff16815250508381600181518110612159576121596147ac565b63ffffffff9092166020928302919091019091015260405163883bdbfd60e01b81526000906001600160a01b0388169063883bdbfd9061219d9085906004016144cf565b60006040518083038186803b1580156121b557600080fd5b505afa1580156121c9573d6000803e3d6000fd5b505050506040513d6000823e601f3d908101601f191682016040526121f191908101906141de565b509050600081600081518110612209576122096147ac565b602002602001015182600181518110612224576122246147ac565b60200260200101516122369190614643565b9050612246600385900b826145ac565b945060008160060b12801561226a5750612264600385900b82614713565b60060b15155b1561227d5784612279816146ef565b9550505b505050509392505050565b60008061229486612396565b90506001600160801b036001600160a01b0382161161231a5760006122c26001600160a01b03831680614624565b9050836001600160a01b0316856001600160a01b0316106122fa576122f5600160c01b876001600160801b0316836127ad565b612312565b61231281876001600160801b0316600160c01b6127ad565b92505061238d565b60006123396001600160a01b03831680680100000000000000006127ad565b9050836001600160a01b0316856001600160a01b0316106123715761236c600160801b876001600160801b0316836127ad565b612389565b61238981876001600160801b0316600160801b6127ad565b9250505b50949350505050565b60008060008360020b126123ad578260020b6123ba565b8260020b6123ba90614763565b90506123c9620d89e719614749565b62ffffff168111156124015760405162461bcd60e51b81526020600482015260016024820152601560fa1b604482015260640161096b565b60006001821661241557600160801b612427565b6ffffcb933bd6fad37aa2d162d1a5940015b70ffffffffffffffffffffffffffffffffff1690506002821615612466576080612461826ffff97272373d413259a46990580e213a614624565b901c90505b600482161561249057608061248b826ffff2e50f5f656932ef12357cf3c7fdcc614624565b901c90505b60088216156124ba5760806124b5826fffe5caca7e10e4e61c3624eaa0941cd0614624565b901c90505b60108216156124e45760806124df826fffcb9843d60f6159c9db58835c926644614624565b901c90505b602082161561250e576080612509826fff973b41fa98c081472e6896dfb254c0614624565b901c90505b6040821615612538576080612533826fff2ea16466c96a3843ec78b326b52861614624565b901c90505b608082161561256257608061255d826ffe5dee046a99a2a811c461f1969c3053614624565b901c90505b61010082161561258d576080612588826ffcbe86c7900a88aedcffc83b479aa3a4614624565b901c90505b6102008216156125b85760806125b3826ff987a7253ac413176f2b074cf7815e54614624565b901c90505b6104008216156125e35760806125de826ff3392b0822b70005940c7a398e4b70f3614624565b901c90505b61080082161561260e576080612609826fe7159475a2c29b7443b29c7fa6e889d9614624565b901c90505b611000821615612639576080612634826fd097f3bdfd2022b8845ad8f792aa5825614624565b901c90505b61200082161561266457608061265f826fa9f746462d870fdf8a65dc1f90e061e5614624565b901c90505b61400082161561268f57608061268a826f70d869a156d2a1b890bb3df62baf32f7614624565b901c90505b6180008216156126ba5760806126b5826f31be135f97d08fd981231505542fcfa6614624565b901c90505b620100008216156126e65760806126e1826f09aa508b5b7a84e1c677de54f3e99bc9614624565b901c90505b6202000082161561271157608061270c826e5d6af8dedb81196699c329225ee604614624565b901c90505b6204000082161561273b576080612736826d2216e584f5fa1ea926041bedfe98614624565b901c90505b6208000082161561276357608061275e826b048a170391f7dc42444e8fa2614624565b901c90505b60008460020b131561277e5761277b81600019614610565b90505b61278d64010000000082614735565b1561279957600161279c565b60005b611c119060ff16602083901c614594565b6000808060001985870985870292508281108382030391505080600014156127e757600084116127dc57600080fd5b508290049050610fc4565b8084116127f357600080fd5b60008486880980840393811190920391905060008561281181614763565b169586900495938490049360008190030460010190506128318184614624565b909317926000612842876003614624565b60021890506128518188614624565b61285c9060026146bb565b6128669082614624565b90506128728188614624565b61287d9060026146bb565b6128879082614624565b90506128938188614624565b61289e9060026146bb565b6128a89082614624565b90506128b48188614624565b6128bf9060026146bb565b6128c99082614624565b90506128d58188614624565b6128e09060026146bb565b6128ea9082614624565b90506128f68188614624565b6129019060026146bb565b61290b9082614624565b90506122798186614624565b600080600080612928878787613071565b92509250925061293d60028484600054613194565b60005561294a8682612b16565b9350612957600085612f42565b5050509392505050565b60008061296e8385614624565b905061298f8415806129885750836129868684614610565b145b600361323f565b6129a1670de0b6b3a764000082614610565b9150505b92915050565b8215612a23578161017660008282546129c49190614594565b9091555050610174546000906129db908490614594565b905081811115612a1a5760405162461bcd60e51b815260206004820152600a60248201526904f564c56313a3e6361760b41b604482015260640161096b565b61017455505050565b816101776000828254612a369190614594565b909155505061017554600090612a4d908490614594565b905081811115612a8c5760405162461bcd60e51b815260206004820152600a60248201526904f564c56313a3e6361760b41b604482015260640161096b565b61017555505050565b600082670de0b6b3a76400001480612aab575081155b15612abf5750670de0b6b3a76400006129a5565b6000612acb8484613251565b90506000612ae5612ade83612710612b16565b6001613331565b9050612af18282613331565b95945050505050565b6000612b0a83831115600161323f565b60006129a183856146bb565b600080612b238385614624565b9050612b3b8415806129885750836129868684614610565b80612b4a5760009150506129a5565b670de0b6b3a7640000612b5e6001836146bb565b612b689190614610565b612b73906001614594565b9150506129a5565b6000806000612b8984611f01565b5091509150600080612b99610af6565b509150915086612bb257612bad818561334e565b610d60565b610d60612bbf8385612cda565b7f0000000000000000000000000000000000000000000000000000000000000000612d7e565b6000612c0b60405180606001604052806000815260200160008152602001600081525090565b612c2f60405180606001604052806000815260200160008152602001600081525090565b428686603c8110612c4257612c426147ac565b60030201604051806060016040529081600082015481526020016001820154815260200160028201548152505092508260000151935060008582612c8691906146bb565b905080846000015111612caf575082526020808301519082015260408083015190820152612cd1565b83518214612cbb578184525b600080612cc98a8a856133a2565b509450505050505b93509350939050565b6000612ce9821515600461323f565b82612cf6575060006129a5565b6000612d0a670de0b6b3a764000085614624565b9050612d2a670de0b6b3a7640000612d228684614610565b14600561323f565b612b738382614610565b610174546101755461017654610177548415612d6057612d5984848761017854613514565b5090945092505b9193509193565b600081831015612d775781610fc4565b5090919050565b6000818310612d775781610fc4565b61017b80546001810182556000918252825160029182027f46985247fac81b794ada23f07cfef771057cf55c53a3d12054bcb524935683d7810180546020870151850b62ffffff90811663010000000265ffffffffffff199092169490950b9094169290921792909217905560408301517f46985247fac81b794ada23f07cfef771057cf55c53a3d12054bcb524935683d8909101558080612e2e846110ba565b604080518481526020810184905290810182905292955090935091507f8371b63c1831915158cdb0bbb5e03eb9c0188dc41aaa16c5ab3598b538a23d209060600160405180910390a150505050565b6000806000612e9461017454610175548688613514565b610174839055610175829055604080518481526020810184905290810182905290955091935091507fbd9b2eb2e69e8d71702753e645d1fbcda9b8473629152f5a3cbc18bc2ceecc2f9060600160405180910390a1505092915050565b60008515612f38576000612f1b85612f098686612cda565b61112b90671bc16d674ec800006146bb565b9050612f3085612f2b8389612d7e565b612d7e565b915050612af1565b610f158486612d7e565b6101715442908082111561303357600154600060b682603c8110612f6857612f686147ac565b604080516060810182526003929092029290920180546001820154602084018181526002909301549484019490945286835261016c5492945092612fad908390614594565b90525061016d54604083018051612fc5908390614594565b905250612fd560b6838386613194565b60015561016c87905561016d86905561016e548080612ff487896146bb565b612ffe9190614610565b6130089190614624565b6130129082614594565b61017160008282546130249190614594565b9091555061306b945050505050565b8361016c60000160008282546130499190614594565b9091555083905061016c60010160008282546130659190614594565b90915550505b50505050565b61309560405180606001604052806000815260200160008152602001600081525090565b60008060008060006130cb60026000547f0000000000000000000000000000000000000000000000000000000000000000612be5565b9194509250905060006130de8989612cda565b905089156131005780836020018181516130f89190614594565b905250613116565b80836040018181516131129190614594565b9052505b60006131578b613139578360400151856040015161313491906146bb565b61314d565b8360200151856020015161314d91906146bb565b61016b5490612961565b9050849650839750816000141561316f576000613184565b613184610d4567051af86713316a9a83612a95565b9550505050505093509350939050565b825160009083146131fe576131aa600183614594565b9150603c8210156131f257838583603c81106131c8576131c86147ac565b60030201600082015181600001556020820151816001015560408201518160020155905050613237565b600091508385836131c8565b838583603c8110613211576132116147ac565b600302016000820151816000015560208201518160010155604082015181600201559050505b509392505050565b8161324d5761324d81613662565b5050565b6000613264600160ff1b8410600661323f565b8261328a770bce5086492111aea88f4bb1ca6bcf584181ea8059f765328410600761323f565b826000670c7d713b49da0000831380156132ab5750670f43fc2c04ee000083125b156132e25760006132bb846136b5565b9050670de0b6b3a764000080820784020583670de0b6b3a7640000830502019150506132f0565b816132ec846137dd565b0290505b670de0b6b3a76400009005613328680238fd42c5cf03ffff198212801590613321575068070c1cc73b00c800008213155b600861323f565b610f1581613b88565b60008061333e8385614594565b9050610fc484821015600061323f565b600061335d821515600461323f565b8261336a575060006129a5565b600061337e670de0b6b3a764000085614624565b9050613396670de0b6b3a7640000612d228684614610565b82612b5e6001836146bb565b6133c660405180606001604052806000815260200160008152602001600081525090565b6133ea60405180606001604052806000815260200160008152602001600081525090565b8484603c81106133fc576133fc6147ac565b6003020160405180606001604052908160008201548152602001600182015481526020016002820154815250509150828260000151116134605781518314156134445761350c565b428152602080830151908201526040808301519082015261350c565b603c61346d856001614594565b6134779190614735565b93508484603c811061348b5761348b6147ac565b600302016040518060600160405290816000820154815260200160018201548152602001600282015481525050915060018260000151116134ed5760408051606081018252865481526001870154602082015260028701549181019190915291505b815183116134fc57508061350c565b613507858486613f6b565b915091505b935093915050565b6000808086158015613524575085155b1561353757506000915081905080613658565b8461354a57508591508490506000613658565b600061356c610d45613565670de0b6b3a76400006002614624565b8790612b16565b905061358a61358387670de0b6b3a7640000614624565b8290612a95565b9050878780821180159061359c579091905b816135c25760006135ad8585612961565b90506135b981856146bb565b95509250613633565b60006135d86135d184866146bb565b8690612961565b905060006135e68486614594565b905060026135f485876146bb565b6135fe9190614610565b9650600261360c8383614594565b6136169190614610565b9450600261362483836146bb565b61362e9190614610565b935050505b8061364857828261364387614763565b61364c565b8183865b91985096509450505050505b9450945094915050565b62461bcd60e51b6000908152602060045260076024526642414c23000030600a808404818106603090810160081b95839006959095019082900491820690940160101b939093010160c81b604452606490fd5b670de0b6b3a7640000026000806ec097ce7bc90715b34b9f1000000000808401906ec097ce7bc90715b34b9f0fffffffff19850102816136f7576136f7614796565b05905060006ec097ce7bc90715b34b9f100000000082800205905081806ec097ce7bc90715b34b9f100000000081840205915060038205016ec097ce7bc90715b34b9f100000000082840205915060058205016ec097ce7bc90715b34b9f100000000082840205915060078205016ec097ce7bc90715b34b9f100000000082840205915060098205016ec097ce7bc90715b34b9f1000000000828402059150600b8205016ec097ce7bc90715b34b9f1000000000828402059150600d8205016ec097ce7bc90715b34b9f1000000000828402059150600f82050160020295945050505050565b6000670de0b6b3a764000082121561381f57613816826ec097ce7bc90715b34b9f10000000008161381057613810614796565b056137dd565b60000392915050565b60007e1600ef3172e58d2e933ec884fde10064c63b5372d805e203c0000000000000831261387057770195e54c5dd42177f53a27172fa9ec630262827000000000830592506806f05b59d3b2000000015b73011798004d755d3c8bc8e03204cf44619e00000083126138a8576b1425982cf597cd205cef7380830592506803782dace9d9000000015b606492830292026e01855144814a7ff805980ff008400083126138f0576e01855144814a7ff805980ff008400068056bc75e2d63100000840205925068ad78ebc5ac62000000015b6b02df0ab5a80a22c61ab5a700831261392b576b02df0ab5a80a22c61ab5a70068056bc75e2d6310000084020592506856bc75e2d631000000015b693f1fce3da636ea5cf850831261396257693f1fce3da636ea5cf85068056bc75e2d631000008402059250682b5e3af16b18800000015b690127fa27722cc06cc5e2831261399957690127fa27722cc06cc5e268056bc75e2d6310000084020592506815af1d78b58c400000015b68280e60114edb805d0383126139ce5768280e60114edb805d0368056bc75e2d631000008402059250680ad78ebc5ac6200000015b680ebc5fb4174612111083126139f957680ebc5fb4174612111068056bc75e2d631000009384020592015b6808f00f760a4b2db55d8312613a2e576808f00f760a4b2db55d68056bc75e2d6310000084020592506802b5e3af16b1880000015b6806f5f17757889379378312613a63576806f5f177578893793768056bc75e2d63100000840205925068015af1d78b58c40000015b6806248f33704b2866038312613a97576806248f33704b28660368056bc75e2d63100000840205925067ad78ebc5ac620000015b6805c548670b9510e7ac8312613acb576805c548670b9510e7ac68056bc75e2d6310000084020592506756bc75e2d6310000015b600068056bc75e2d63100000840168056bc75e2d631000008086030281613af457613af4614796565b059050600068056bc75e2d63100000828002059050818068056bc75e2d63100000818402059150600382050168056bc75e2d63100000828402059150600582050168056bc75e2d63100000828402059150600782050168056bc75e2d63100000828402059150600982050168056bc75e2d63100000828402059150600b820501600202606485820105979650505050505050565b6000613bb7680238fd42c5cf03ffff198312158015613bb0575068070c1cc73b00c800008313155b600961323f565b6000821215613bf057613bcc82600003613b88565b6ec097ce7bc90715b34b9f100000000081613be957613be9614796565b0592915050565b60006806f05b59d3b20000008312613c3057506806f05b59d3b1ffffff1990910190770195e54c5dd42177f53a27172fa9ec630262827000000000613c66565b6803782dace9d90000008312613c6257506803782dace9d8ffffff19909101906b1425982cf597cd205cef7380613c66565b5060015b6064929092029168056bc75e2d6310000068ad78ebc5ac620000008412613cb65768ad78ebc5ac61ffffff199093019268056bc75e2d631000006e01855144814a7ff805980ff008400082020590505b6856bc75e2d6310000008412613cf2576856bc75e2d630ffffff199093019268056bc75e2d631000006b02df0ab5a80a22c61ab5a70082020590505b682b5e3af16b188000008412613d2c57682b5e3af16b187fffff199093019268056bc75e2d63100000693f1fce3da636ea5cf85082020590505b6815af1d78b58c4000008412613d66576815af1d78b58c3fffff199093019268056bc75e2d63100000690127fa27722cc06cc5e282020590505b680ad78ebc5ac62000008412613d9f57680ad78ebc5ac61fffff199093019268056bc75e2d6310000068280e60114edb805d0382020590505b68056bc75e2d631000008412613dd85768056bc75e2d630fffff199093019268056bc75e2d63100000680ebc5fb4174612111082020590505b6802b5e3af16b18800008412613e11576802b5e3af16b187ffff199093019268056bc75e2d631000006808f00f760a4b2db55d82020590505b68015af1d78b58c400008412613e4a5768015af1d78b58c3ffff199093019268056bc75e2d631000006806f5f177578893793782020590505b68056bc75e2d631000008481019085906002908280020505918201919050600368056bc75e2d631000008783020505918201919050600468056bc75e2d631000008783020505918201919050600568056bc75e2d631000008783020505918201919050600668056bc75e2d631000008783020505918201919050600768056bc75e2d631000008783020505918201919050600868056bc75e2d631000008783020505918201919050600968056bc75e2d631000008783020505918201919050600a68056bc75e2d631000008783020505918201919050600b68056bc75e2d631000008783020505918201919050600c68056bc75e2d631000008783020505918201919050606468056bc75e2d63100000848402058502059695505050505050565b613f8f60405180606001604052806000815260200160008152602001600081525090565b613fb360405180606001604052806000815260200160008152602001600081525090565b6000603c613fc285600161456e565b61ffff16613fd09190614735565b905060006001613fe1603c84614594565b613feb91906146bb565b905060005b6002613ffc8385614594565b6140069190614610565b905087614014603c83614735565b603c8110614024576140246147ac565b600302016040518060600160405290816000820154815260200160018201548152602001600282015481525050945060018560000151116140715761406a816001614594565b9250613ff0565b87603c61407f836001614594565b6140899190614735565b603c8110614099576140996147ac565b600302016040518060600160405290816000820154815260200160018201548152602001600282015481525050935060008763ffffffff168660000151111590508080156140ee5750845163ffffffff891611155b156140f95750614124565b80614110576141096001836146bb565b925061411e565b61411b826001614594565b93505b50613ff0565b505050935093915050565b600082601f83011261414057600080fd5b815160206141556141508361454a565b614519565b80838252828201915082860187848660051b890101111561417557600080fd5b60005b8581101561419d57815161418b816147d8565b84529284019290840190600101614178565b5090979650505050505050565b8035600281900b81146141bc57600080fd5b919050565b6000602082840312156141d357600080fd5b8135610fc4816147d8565b600080604083850312156141f157600080fd5b825167ffffffffffffffff8082111561420957600080fd5b818501915085601f83011261421d57600080fd5b8151602061422d6141508361454a565b8083825282820191508286018a848660051b890101111561424d57600080fd5b600096505b8487101561427f5780518060060b811461426b57600080fd5b835260019690960195918301918301614252565b509188015191965090935050508082111561429957600080fd5b506109078582860161412f565b6000602082840312156142b857600080fd5b8151610fc4816147f0565b600080604083850312156142d657600080fd5b82356142e1816147f0565b946020939093013593505050565b60008060006060848603121561430457600080fd5b833561430f816147f0565b95602085013595506040909401359392505050565b600080600080600060a0868803121561433c57600080fd5b8535614347816147f0565b97602087013597506040870135966060810135965060800135945092505050565b60006020828403121561437a57600080fd5b610fc4826141aa565b60006060828403121561439557600080fd5b6040516060810181811067ffffffffffffffff821117156143b8576143b86147c2565b6040526143c4836141aa565b81526143d2602084016141aa565b6020820152604083013560408201528091505092915050565b6000602082840312156143fd57600080fd5b5035919050565b60006020828403121561441657600080fd5b5051919050565b6000806040838503121561443057600080fd5b50508035926020909101359150565b600080600080600060a0868803121561445757600080fd5b505083359560208501359550604085013594606081013594506080013592509050565b600080600080600080600080610100898b03121561449757600080fd5b505086359860208801359850604088013597606081013597506080810135965060a0810135955060c0810135945060e0013592509050565b6020808252825182820181905260009190848201906040850190845b8181101561450d57835163ffffffff16835292840192918401916001016144eb565b50909695505050505050565b604051601f8201601f1916810167ffffffffffffffff81118282101715614542576145426147c2565b604052919050565b600067ffffffffffffffff821115614564576145646147c2565b5060051b60200190565b600061ffff80831681851680830382111561458b5761458b614780565b01949350505050565b600082198211156145a7576145a7614780565b500190565b60008160060b8360060b806145c3576145c3614796565b667fffffffffffff198214600019821416156145e1576145e1614780565b90059392505050565b60006001600160a01b038084168061460457614604614796565b92169190910492915050565b60008261461f5761461f614796565b500490565b600081600019048311821515161561463e5761463e614780565b500290565b60008160060b8360060b6000811281667fffffffffffff190183128115161561466e5761466e614780565b81667fffffffffffff01831381161561468957614689614780565b5090039392505050565b60006001600160a01b03838116908316818110156146b3576146b3614780565b039392505050565b6000828210156146cd576146cd614780565b500390565b600063ffffffff838116908316818110156146b3576146b3614780565b60008160020b627fffff1981141561470957614709614780565b6000190192915050565b60008260060b8061472657614726614796565b808360060b0791505092915050565b60008261474457614744614796565b500690565b60008160020b627fffff1981141561381657613816614780565b6000600160ff1b82141561477957614779614780565b5060000390565b634e487b7160e01b600052601160045260246000fd5b634e487b7160e01b600052601260045260246000fd5b634e487b7160e01b600052603260045260246000fd5b634e487b7160e01b600052604160045260246000fd5b6001600160a01b03811681146147ed57600080fd5b50565b80151581146147ed57600080fdfe1a6838efa4183e08fe3607359d1259272af9d4716f65e1a7b5921f78fd5a3c6aa2646970667358221220287edc78fe152f2c7b6f23a862714f191969af032ebe6075e6a44d51e7941bb864736f6c63430008070033",
  "bytecodeSha1": "4b9b9ede55f9b8053ed25f7ec25e576e2e2287c7",
  "compiler": {
    "evm_version": "london",
    "optimizer": {
      "enabled": true,
      "runs": 400
    },
    "version": "0.8.7+commit.e28d00a7"
  },
  "contractName": "OverlayV1UniswapV3Market",
  "language": "Solidity",
  "natspec": {
    "kind": "dev",
    "methods": {
      "computeDepth(uint256,uint256)": {
        "details": "Derived from cnstant product formula X*Y=K and tailored  to Uniswap V3 selective liquidity provision.",
        "notice": "Arithmetic to get depth",
        "params": {
          "_marketLiquidity": "Amount of liquidity in market in ETH terms.",
          "_ovlPrice": "Price of OVL against ETH."
        },
        "returns": {
          "depth_": "Depth criteria for market in OVL terms."
        }
      },
      "depth()": {
        "details": "Returns the time weighted liquidity of the market feed in OVL terms at the current block.",
        "notice": "The depth of the market feed in OVL terms at the current block.",
        "returns": {
          "depth_": "The time weighted liquidity in OVL terms."
        }
      },
      "enterOI(bool,uint256,uint256)": {
        "details": "This is invoked by Overlay collateral manager contracts, which can be for OVL, ERC20's, Overlay positions, NFTs, or what have you. The calculations for impact and fees are performed here.",
        "notice": "Adds open interest to the market",
        "params": {
          "_collateral": "The amount of collateral in OVL terms to take the position out with.",
          "_isLong": "The side of the market to enter open interest on.",
          "_leverage": "The leverage with which to take out the position."
        },
        "returns": {
          "collateralAdjusted_": "Amount of collateral after impact and fees.",
          "debtAdjusted_": "Amount of debt after impact and fees.",
          "fee_": "The protocol fee to be taken.",
          "impact_": "The market impact for the build.",
          "oiAdjusted_": "Amount of open interest after impact and fees.",
          "pricePointNext_": "The index of the price point for the position."
        }
      },
      "epochs(uint256,uint256)": {
        "details": "This returns the number of compoundings that have passed since the last time funding was paid as well as the timestamp of the current compounding epoch, which come at regular intervals according to the compounding period.",
        "notice": "The compounding information for computing funding.",
        "params": {
          "_compounded": "The last time compounding occurred.",
          "_now": "The timestamp of the current block."
        },
        "returns": {
          "compoundings_": "The number of compounding periods passed since the last time funding was compounded.",
          "tCompounding_": "The current compounding epoch."
        }
      },
      "exitData(bool,uint256)": {
        "details": "This is called by the collateral managers to retrieve the necessary information to calculate the specifics of each position, for instance the PnL or if it is liquidatable. ",
        "notice": "First part of the flow to remove OI from the system",
        "params": {
          "_isLong": "Whether the data is being retrieved for a long or short.",
          "_pricePoint": "Index of the initial price point",
          "oiShares_": "Total outstanding open interest shares on that side.",
          "oi_": "Total outstanding open interest on that side of the market.",
          "priceFrame_": "The price multiple comprised of the entry and exit prices for the position, with the exit price being the current one. Longs receive the bid on exit and the ask on entry shorts the opposite."
        }
      },
      "exitOI(bool,uint256,uint256,uint256,uint256)": {
        "details": "Called as the second part of exiting oi, this function reports the open interest in OVL terms to remove as well as  open interest shares to remove. It also registers printing or burning of OVL in the process.",
        "notice": "Removes open interest from the market",
        "params": {
          "_antiBrrrr": "How much was burnt on closing the position.",
          "_brrrr": "How much was printed on closing the position.",
          "_isLong": "The side from which to remove open interest.",
          "_oi": "The open interest to remove in OVL terms.",
          "_oiShares": "The open interest shares to remove."
        }
      },
      "fetchPricePoint()": {
        "details": "Reads price and depth of market feed",
        "notice": "Reads the current price and depth information",
        "returns": {
          "price_": "Price point"
        }
      },
      "oi()": {
        "details": "Returns all up to date open interest data for the market.",
        "notice": "The current open interest on both sides of the market.",
        "returns": {
          "oiLongShares_": "Current open interest shares on the long side.",
          "oiLong_": "Current open interest on long side.",
          "oiShortShares_": "Current open interest shares on the short side.",
          "oiShort_": "Current open interest on short side."
        }
      },
      "oiCap()": {
        "details": "Returns the open interest cap for the market.",
        "notice": "The open interest cap for the market",
        "returns": {
          "cap_": "The open interest cap."
        }
      },
      "oiLong()": {
        "notice": "The current open interest on the long side.",
        "returns": {
          "oiLong_": "The current open interest on the long side."
        }
      },
      "oiShort()": {
        "notice": "The current open interest on the short side.",
        "returns": {
          "oiShort_": "The current open interest on the short side."
        }
      },
      "positionInfo(bool,uint256)": {
        "details": "These values are required to feed to the position calculations.",
        "notice": "Exposes important info for calculating position metrics.",
        "params": {
          "_isLong": "Whether position is on short or long side of market.",
          "_priceEntry": "Index of entry price"
        },
        "returns": {
          "oiShares_": "The current open interest shares on the chosen side.",
          "oi_": "The current open interest on the chosen side.",
          "priceFrame_": "Price frame resulting from e entry and exit prices."
        }
      },
      "pricePointCurrent()": {
        "details": "Returns the price point if it exists.",
        "notice": "Current price point.",
        "returns": {
          "ask_": "Ask.",
          "bid_": "Bid.",
          "depth_": "Market liquidity in OVL terms."
        }
      },
      "pricePointNextIndex()": {
        "details": "Returns the index of the _next_ price",
        "notice": "Get the index of the next price to be realized",
        "returns": {
          "nextIndex_": "The length of the price point array"
        }
      },
      "pricePoints(uint256)": {
        "details": "Returns the price point if it exists.",
        "notice": "All past price points.",
        "params": {
          "_pricePointIndex": "Index of the price point being queried."
        },
        "returns": {
          "ask_": "Ask.",
          "bid_": "Bid.",
          "depth_": "Market liquidity in OVL terms."
        }
      },
      "update()": {
        "details": "This function updates the market with the latest price and conditionally reads the depth of the market feed. The market needs an update on the first call of any block.",
        "notice": "Internal update function to price, cap, and pay funding.",
        "returns": {
          "cap_": "The open interest cap for the market."
        }
      }
    },
    "version": 1
  },
  "opcodes": "PUSH1 0x80 PUSH1 0x40 MSTORE CALLVALUE DUP1 ISZERO PUSH2 0x10 JUMPI PUSH1 0x0 DUP1 REVERT JUMPDEST POP PUSH1 0x4 CALLDATASIZE LT PUSH2 0x399 JUMPI PUSH1 0x0 CALLDATALOAD PUSH1 0xE0 SHR DUP1 PUSH4 0x7D2EAF4C GT PUSH2 0x1E9 JUMPI DUP1 PUSH4 0xD14CA93C GT PUSH2 0x10F JUMPI DUP1 PUSH4 0xEF9B45DC GT PUSH2 0xAD JUMPI DUP1 PUSH4 0xFBACA113 GT PUSH2 0x7C JUMPI DUP1 PUSH4 0xFBACA113 EQ PUSH2 0x890 JUMPI DUP1 PUSH4 0xFBEFB4B9 EQ PUSH2 0x89A JUMPI DUP1 PUSH4 0xFD84E4DE EQ PUSH2 0x8A4 JUMPI DUP1 PUSH4 0xFF1E62F0 EQ PUSH2 0x8AD JUMPI PUSH1 0x0 DUP1 REVERT JUMPDEST DUP1 PUSH4 0xEF9B45DC EQ PUSH2 0x84D JUMPI DUP1 PUSH4 0xF0D2D5A8 EQ PUSH2 0x860 JUMPI DUP1 PUSH4 0xF333FE13 EQ PUSH2 0x873 JUMPI DUP1 PUSH4 0xF8FECBC4 EQ PUSH2 0x87D JUMPI PUSH1 0x0 DUP1 REVERT JUMPDEST DUP1 PUSH4 0xE06FC927 GT PUSH2 0xE9 JUMPI DUP1 PUSH4 0xE06FC927 EQ PUSH2 0x7FF JUMPI DUP1 PUSH4 0xE07B877A EQ PUSH2 0x809 JUMPI DUP1 PUSH4 0xE6B44E52 EQ PUSH2 0x813 JUMPI DUP1 PUSH4 0xE8FD2B77 EQ PUSH2 0x83A JUMPI PUSH1 0x0 DUP1 REVERT JUMPDEST DUP1 PUSH4 0xD14CA93C EQ PUSH2 0x7D8 JUMPI DUP1 PUSH4 0xD28D04FB EQ PUSH2 0x7EB JUMPI DUP1 PUSH4 0xDE51DA07 EQ PUSH2 0x7F5 JUMPI PUSH1 0x0 DUP1 REVERT JUMPDEST DUP1 PUSH4 0xB29FA9C3 GT PUSH2 0x187 JUMPI DUP1 PUSH4 0xBCCD45C3 GT PUSH2 0x156 JUMPI DUP1 PUSH4 0xBCCD45C3 EQ PUSH2 0x764 JUMPI DUP1 PUSH4 0xBF8F1D5A EQ PUSH2 0x777 JUMPI DUP1 PUSH4 0xC99D3A06 EQ PUSH2 0x79E JUMPI DUP1 PUSH4 0xCA2E4F1D EQ PUSH2 0x7B1 JUMPI PUSH1 0x0 DUP1 REVERT JUMPDEST DUP1 PUSH4 0xB29FA9C3 EQ PUSH2 0x718 JUMPI DUP1 PUSH4 0xB4F40C61 EQ PUSH2 0x73F JUMPI DUP1 PUSH4 0xB66A261C EQ PUSH2 0x749 JUMPI DUP1 PUSH4 0xB77461A5 EQ PUSH2 0x75C JUMPI PUSH1 0x0 DUP1 REVERT JUMPDEST DUP1 PUSH4 0x9563DBCF GT PUSH2 0x1C3 JUMPI DUP1 PUSH4 0x9563DBCF EQ PUSH2 0x6A4 JUMPI DUP1 PUSH4 0x9972B3F8 EQ PUSH2 0x6B7 JUMPI DUP1 PUSH4 0x999B93AF EQ PUSH2 0x6E9 JUMPI DUP1 PUSH4 0xA2E62045 EQ PUSH2 0x710 JUMPI PUSH1 0x0 DUP1 REVERT JUMPDEST DUP1 PUSH4 0x7D2EAF4C EQ PUSH2 0x65F JUMPI DUP1 PUSH4 0x8B759831 EQ PUSH2 0x672 JUMPI DUP1 PUSH4 0x8D5A63DE EQ PUSH2 0x67C JUMPI PUSH1 0x0 DUP1 REVERT JUMPDEST DUP1 PUSH4 0x401D56D2 GT PUSH2 0x2CE JUMPI DUP1 PUSH4 0x58C489BD GT PUSH2 0x26C JUMPI DUP1 PUSH4 0x67DE8BE9 GT PUSH2 0x23B JUMPI DUP1 PUSH4 0x67DE8BE9 EQ PUSH2 0x625 JUMPI DUP1 PUSH4 0x68300981 EQ PUSH2 0x638 JUMPI DUP1 PUSH4 0x7836EFD5 EQ PUSH2 0x642 JUMPI DUP1 PUSH4 0x7B2AAB03 EQ PUSH2 0x655 JUMPI PUSH1 0x0 DUP1 REVERT JUMPDEST DUP1 PUSH4 0x58C489BD EQ PUSH2 0x5EF JUMPI DUP1 PUSH4 0x5DEDDE6D EQ PUSH2 0x602 JUMPI DUP1 PUSH4 0x6261A6B9 EQ PUSH2 0x60A JUMPI DUP1 PUSH4 0x631C56EF EQ PUSH2 0x61D JUMPI PUSH1 0x0 DUP1 REVERT JUMPDEST DUP1 PUSH4 0x43E4A273 GT PUSH2 0x2A8 JUMPI DUP1 PUSH4 0x43E4A273 EQ PUSH2 0x586 JUMPI DUP1 PUSH4 0x4C9EA13E EQ PUSH2 0x5AD JUMPI DUP1 PUSH4 0x5001F3B5 EQ PUSH2 0x5B5 JUMPI DUP1 PUSH4 0x561FED02 EQ PUSH2 0x5DC JUMPI PUSH1 0x0 DUP1 REVERT JUMPDEST DUP1 PUSH4 0x401D56D2 EQ PUSH2 0x52A JUMPI DUP1 PUSH4 0x4187B7D6 EQ PUSH2 0x53D JUMPI DUP1 PUSH4 0x41A3A092 EQ PUSH2 0x57C JUMPI PUSH1 0x0 DUP1 REVERT JUMPDEST DUP1 PUSH4 0x205F4711 GT PUSH2 0x33B JUMPI DUP1 PUSH4 0x2ACB3810 GT PUSH2 0x315 JUMPI DUP1 PUSH4 0x2ACB3810 EQ PUSH2 0x4F1 JUMPI DUP1 PUSH4 0x2C9C34B9 EQ PUSH2 0x4FB JUMPI DUP1 PUSH4 0x36698139 EQ PUSH2 0x50E JUMPI DUP1 PUSH4 0x373E056B EQ PUSH2 0x521 JUMPI PUSH1 0x0 DUP1 REVERT JUMPDEST DUP1 PUSH4 0x205F4711 EQ PUSH2 0x4AC JUMPI DUP1 PUSH4 0x24557B25 EQ PUSH2 0x4B5 JUMPI DUP1 PUSH4 0x2869F965 EQ PUSH2 0x4CA JUMPI PUSH1 0x0 DUP1 REVERT JUMPDEST DUP1 PUSH4 0xF293839 GT PUSH2 0x377 JUMPI DUP1 PUSH4 0xF293839 EQ PUSH2 0x415 JUMPI DUP1 PUSH4 0xFCE7953 EQ PUSH2 0x455 JUMPI DUP1 PUSH4 0x1351CAA1 EQ PUSH2 0x47C JUMPI DUP1 PUSH4 0x1827696D EQ PUSH2 0x49F JUMPI PUSH1 0x0 DUP1 REVERT JUMPDEST DUP1 PUSH4 0x9163014 EQ PUSH2 0x39E JUMPI DUP1 PUSH4 0xA88BD04 EQ PUSH2 0x3B9 JUMPI DUP1 PUSH4 0xEE21E54 EQ PUSH2 0x3E1 JUMPI JUMPDEST PUSH1 0x0 DUP1 REVERT JUMPDEST PUSH2 0x3A6 PUSH2 0x8C0 JUMP JUMPDEST PUSH1 0x40 MLOAD SWAP1 DUP2 MSTORE PUSH1 0x20 ADD JUMPDEST PUSH1 0x40 MLOAD DUP1 SWAP2 SUB SWAP1 RETURN JUMPDEST PUSH2 0x3CC PUSH2 0x3C7 CALLDATASIZE PUSH1 0x4 PUSH2 0x441D JUMP JUMPDEST PUSH2 0x8D3 JUMP JUMPDEST PUSH1 0x40 DUP1 MLOAD SWAP3 DUP4 MSTORE PUSH1 0x20 DUP4 ADD SWAP2 SWAP1 SWAP2 MSTORE ADD PUSH2 0x3B0 JUMP JUMPDEST PUSH2 0x405 PUSH2 0x3EF CALLDATASIZE PUSH1 0x4 PUSH2 0x41C1 JUMP JUMPDEST PUSH2 0x17D PUSH1 0x20 MSTORE PUSH1 0x0 SWAP1 DUP2 MSTORE PUSH1 0x40 SWAP1 KECCAK256 SLOAD PUSH1 0xFF AND DUP2 JUMP JUMPDEST PUSH1 0x40 MLOAD SWAP1 ISZERO ISZERO DUP2 MSTORE PUSH1 0x20 ADD PUSH2 0x3B0 JUMP JUMPDEST PUSH2 0x428 PUSH2 0x423 CALLDATASIZE PUSH1 0x4 PUSH2 0x42EF JUMP JUMPDEST PUSH2 0x911 JUMP JUMPDEST PUSH1 0x40 DUP1 MLOAD SWAP7 DUP8 MSTORE PUSH1 0x20 DUP8 ADD SWAP6 SWAP1 SWAP6 MSTORE SWAP4 DUP6 ADD SWAP3 SWAP1 SWAP3 MSTORE PUSH1 0x60 DUP5 ADD MSTORE PUSH1 0x80 DUP4 ADD MSTORE PUSH1 0xA0 DUP3 ADD MSTORE PUSH1 0xC0 ADD PUSH2 0x3B0 JUMP JUMPDEST PUSH2 0x3A6 PUSH32 0x0 DUP2 JUMP JUMPDEST PUSH2 0x484 PUSH2 0xAF6 JUMP JUMPDEST PUSH1 0x40 DUP1 MLOAD SWAP4 DUP5 MSTORE PUSH1 0x20 DUP5 ADD SWAP3 SWAP1 SWAP3 MSTORE SWAP1 DUP3 ADD MSTORE PUSH1 0x60 ADD PUSH2 0x3B0 JUMP JUMPDEST PUSH2 0x3A6 PUSH6 0x5AF3107A4000 DUP2 JUMP JUMPDEST PUSH2 0x3A6 PUSH1 0x0 SLOAD DUP2 JUMP JUMPDEST PUSH2 0x4C8 PUSH2 0x4C3 CALLDATASIZE PUSH1 0x4 PUSH2 0x447A JUMP JUMPDEST PUSH2 0xB44 JUMP JUMPDEST STOP JUMPDEST PUSH2 0x3A6 PUSH32 0x0 DUP2 JUMP JUMPDEST PUSH2 0x3A6 PUSH2 0x176 SLOAD DUP2 JUMP JUMPDEST PUSH2 0x484 PUSH2 0x509 CALLDATASIZE PUSH1 0x4 PUSH2 0x43EB JUMP JUMPDEST PUSH2 0xC5F JUMP JUMPDEST PUSH2 0x3A6 PUSH2 0x51C CALLDATASIZE PUSH1 0x4 PUSH2 0x42EF JUMP JUMPDEST PUSH2 0xCF8 JUMP JUMPDEST PUSH2 0x17B SLOAD PUSH2 0x3A6 JUMP JUMPDEST PUSH2 0x484 PUSH2 0x538 CALLDATASIZE PUSH1 0x4 PUSH2 0x42C3 JUMP JUMPDEST PUSH2 0xD6B JUMP JUMPDEST PUSH2 0x564 PUSH32 0x0 DUP2 JUMP JUMPDEST PUSH1 0x40 MLOAD PUSH1 0x1 PUSH1 0x1 PUSH1 0xA0 SHL SUB SWAP1 SWAP2 AND DUP2 MSTORE PUSH1 0x20 ADD PUSH2 0x3B0 JUMP JUMPDEST PUSH2 0x3A6 PUSH2 0x16B SLOAD DUP2 JUMP JUMPDEST PUSH2 0x564 PUSH32 0x0 DUP2 JUMP JUMPDEST PUSH2 0x3CC PUSH2 0xE05 JUMP JUMPDEST PUSH2 0x564 PUSH32 0x0 DUP2 JUMP JUMPDEST PUSH2 0x3A6 PUSH2 0x5EA CALLDATASIZE PUSH1 0x4 PUSH2 0x42EF JUMP JUMPDEST PUSH2 0xE95 JUMP JUMPDEST PUSH2 0x484 PUSH2 0x5FD CALLDATASIZE PUSH1 0x4 PUSH2 0x43EB JUMP JUMPDEST PUSH2 0xF1F JUMP JUMPDEST PUSH2 0x3A6 PUSH2 0xF46 JUMP JUMPDEST PUSH2 0x484 PUSH2 0x618 CALLDATASIZE PUSH1 0x4 PUSH2 0x42C3 JUMP JUMPDEST PUSH2 0xF59 JUMP JUMPDEST PUSH2 0x3A6 PUSH2 0xFBA JUMP JUMPDEST PUSH2 0x4C8 PUSH2 0x633 CALLDATASIZE PUSH1 0x4 PUSH2 0x43EB JUMP JUMPDEST PUSH2 0xFCB JUMP JUMPDEST PUSH2 0x3A6 PUSH2 0x171 SLOAD DUP2 JUMP JUMPDEST PUSH2 0x484 PUSH2 0x650 CALLDATASIZE PUSH1 0x4 PUSH2 0x4383 JUMP JUMPDEST PUSH2 0x10BA JUMP JUMPDEST PUSH2 0x3A6 PUSH2 0x17A SLOAD DUP2 JUMP JUMPDEST PUSH2 0x3A6 PUSH2 0x66D CALLDATASIZE PUSH1 0x4 PUSH2 0x441D JUMP JUMPDEST PUSH2 0x1143 JUMP JUMPDEST PUSH2 0x3A6 PUSH2 0x173 SLOAD DUP2 JUMP JUMPDEST PUSH2 0x684 PUSH2 0x117D JUMP JUMPDEST PUSH1 0x40 DUP1 MLOAD SWAP5 DUP6 MSTORE PUSH1 0x20 DUP6 ADD SWAP4 SWAP1 SWAP4 MSTORE SWAP2 DUP4 ADD MSTORE PUSH1 0x60 DUP3 ADD MSTORE PUSH1 0x80 ADD PUSH2 0x3B0 JUMP JUMPDEST PUSH2 0x4C8 PUSH2 0x6B2 CALLDATASIZE PUSH1 0x4 PUSH2 0x43EB JUMP JUMPDEST PUSH2 0x11AD JUMP JUMPDEST PUSH2 0x6BF PUSH2 0x129C JUMP JUMPDEST PUSH1 0x40 DUP1 MLOAD DUP3 MLOAD PUSH1 0x2 SWAP1 DUP2 SIGNEXTEND DUP3 MSTORE PUSH1 0x20 DUP1 DUP6 ADD MLOAD SWAP1 SWAP2 SIGNEXTEND SWAP1 DUP3 ADD MSTORE SWAP2 DUP2 ADD MLOAD SWAP1 DUP3 ADD MSTORE PUSH1 0x60 ADD PUSH2 0x3B0 JUMP JUMPDEST PUSH2 0x564 PUSH32 0x0 DUP2 JUMP JUMPDEST PUSH2 0x3A6 PUSH2 0x180E JUMP JUMPDEST PUSH2 0x564 PUSH32 0x0 DUP2 JUMP JUMPDEST PUSH2 0x3A6 PUSH2 0x178 SLOAD DUP2 JUMP JUMPDEST PUSH2 0x4C8 PUSH2 0x757 CALLDATASIZE PUSH1 0x4 PUSH2 0x43EB JUMP JUMPDEST PUSH2 0x187C JUMP JUMPDEST PUSH2 0x3A6 PUSH2 0x196B JUMP JUMPDEST PUSH2 0x3A6 PUSH2 0x772 CALLDATASIZE PUSH1 0x4 PUSH2 0x4368 JUMP JUMPDEST PUSH2 0x1A10 JUMP JUMPDEST PUSH2 0x564 PUSH32 0x0 DUP2 JUMP JUMPDEST PUSH2 0x4C8 PUSH2 0x7AC CALLDATASIZE PUSH1 0x4 PUSH2 0x41C1 JUMP JUMPDEST PUSH2 0x1C1B JUMP JUMPDEST PUSH2 0x3A6 PUSH32 0x0 DUP2 JUMP JUMPDEST PUSH2 0x4C8 PUSH2 0x7E6 CALLDATASIZE PUSH1 0x4 PUSH2 0x443F JUMP JUMPDEST PUSH2 0x1D26 JUMP JUMPDEST PUSH2 0x3A6 PUSH2 0x170 SLOAD DUP2 JUMP JUMPDEST PUSH2 0x3A6 PUSH2 0x16E SLOAD DUP2 JUMP JUMPDEST PUSH2 0x3A6 PUSH2 0x16F SLOAD DUP2 JUMP JUMPDEST PUSH2 0x3A6 PUSH2 0x17C SLOAD DUP2 JUMP JUMPDEST PUSH2 0x3A6 PUSH32 0x0 DUP2 JUMP JUMPDEST PUSH2 0x4C8 PUSH2 0x848 CALLDATASIZE PUSH1 0x4 PUSH2 0x4324 JUMP JUMPDEST PUSH2 0x1E2B JUMP JUMPDEST PUSH2 0x484 PUSH2 0x85B CALLDATASIZE PUSH1 0x4 PUSH2 0x43EB JUMP JUMPDEST PUSH2 0x1F01 JUMP JUMPDEST PUSH2 0x4C8 PUSH2 0x86E CALLDATASIZE PUSH1 0x4 PUSH2 0x41C1 JUMP JUMPDEST PUSH2 0x1F79 JUMP JUMPDEST PUSH2 0x3A6 PUSH2 0x177 SLOAD DUP2 JUMP JUMPDEST PUSH2 0x484 PUSH2 0x88B CALLDATASIZE PUSH1 0x4 PUSH2 0x43EB JUMP JUMPDEST PUSH2 0x2087 JUMP JUMPDEST PUSH2 0x3A6 PUSH2 0x172 SLOAD DUP2 JUMP JUMPDEST PUSH2 0x3A6 PUSH2 0x179 SLOAD DUP2 JUMP JUMPDEST PUSH2 0x3A6 PUSH1 0x1 SLOAD DUP2 JUMP JUMPDEST PUSH2 0x3A6 PUSH2 0x8BB CALLDATASIZE PUSH1 0x4 PUSH2 0x43EB JUMP JUMPDEST PUSH2 0x2097 JUMP JUMPDEST PUSH1 0x0 PUSH2 0x8CA PUSH2 0x117D JUMP JUMPDEST POP SWAP1 SWAP4 SWAP3 POP POP POP JUMP JUMPDEST PUSH2 0x172 SLOAD PUSH1 0x0 SWAP1 DUP2 SWAP1 DUP1 PUSH2 0x8E7 DUP6 DUP8 PUSH2 0x46BB JUMP JUMPDEST PUSH2 0x8F1 SWAP2 SWAP1 PUSH2 0x4610 JUMP JUMPDEST SWAP3 POP PUSH2 0x8FD DUP2 DUP5 PUSH2 0x4624 JUMP JUMPDEST PUSH2 0x907 SWAP1 DUP6 PUSH2 0x4594 JUMP JUMPDEST SWAP2 POP POP SWAP3 POP SWAP3 SWAP1 POP JUMP JUMPDEST CALLER PUSH1 0x0 SWAP1 DUP2 MSTORE PUSH2 0x17D PUSH1 0x20 MSTORE PUSH1 0x40 DUP2 KECCAK256 SLOAD DUP2 SWAP1 DUP2 SWAP1 DUP2 SWAP1 DUP2 SWAP1 DUP2 SWAP1 PUSH1 0xFF AND PUSH2 0x974 JUMPI PUSH1 0x40 MLOAD PUSH3 0x461BCD PUSH1 0xE5 SHL DUP2 MSTORE PUSH1 0x20 PUSH1 0x4 DUP3 ADD MSTORE PUSH1 0x11 PUSH1 0x24 DUP3 ADD MSTORE PUSH17 0x13D593158C4E8858DBDB1B185D195C985B PUSH1 0x7A SHL PUSH1 0x44 DUP3 ADD MSTORE PUSH1 0x64 ADD JUMPDEST PUSH1 0x40 MLOAD DUP1 SWAP2 SUB SWAP1 REVERT JUMPDEST PUSH1 0x0 PUSH2 0x97E PUSH2 0x180E JUMP JUMPDEST PUSH2 0x17B SLOAD SWAP1 SWAP2 POP PUSH2 0x991 SWAP1 PUSH1 0x1 SWAP1 PUSH2 0x46BB JUMP JUMPDEST SWAP2 POP PUSH1 0x0 PUSH2 0x99F DUP10 DUP12 PUSH2 0x4624 JUMP JUMPDEST SWAP1 POP PUSH1 0x0 PUSH2 0x9AE DUP13 DUP4 DUP6 PUSH2 0x2917 JUMP JUMPDEST SWAP1 POP PUSH2 0xA4B PUSH32 0x0 PUSH1 0x1 PUSH1 0x1 PUSH1 0xA0 SHL SUB AND PUSH4 0xDDCA3F43 PUSH1 0x40 MLOAD DUP2 PUSH4 0xFFFFFFFF AND PUSH1 0xE0 SHL DUP2 MSTORE PUSH1 0x4 ADD PUSH1 0x20 PUSH1 0x40 MLOAD DUP1 DUP4 SUB DUP2 DUP7 DUP1 EXTCODESIZE ISZERO DUP1 ISZERO PUSH2 0xA0C JUMPI PUSH1 0x0 DUP1 REVERT JUMPDEST POP GAS STATICCALL ISZERO DUP1 ISZERO PUSH2 0xA20 JUMPI RETURNDATASIZE PUSH1 0x0 DUP1 RETURNDATACOPY RETURNDATASIZE PUSH1 0x0 REVERT JUMPDEST POP POP POP POP PUSH1 0x40 MLOAD RETURNDATASIZE PUSH1 0x1F NOT PUSH1 0x1F DUP3 ADD AND DUP3 ADD DUP1 PUSH1 0x40 MSTORE POP DUP2 ADD SWAP1 PUSH2 0xA44 SWAP2 SWAP1 PUSH2 0x4404 JUMP JUMPDEST DUP4 SWAP1 PUSH2 0x2961 JUMP JUMPDEST SWAP6 POP SWAP4 POP DUP4 DUP6 PUSH2 0xA61 DUP3 PUSH6 0x5AF3107A4000 PUSH2 0x4594 JUMP JUMPDEST PUSH2 0xA6B SWAP2 SWAP1 PUSH2 0x4594 JUMP JUMPDEST DUP12 LT ISZERO PUSH2 0xAAD JUMPI PUSH1 0x40 MLOAD PUSH3 0x461BCD PUSH1 0xE5 SHL DUP2 MSTORE PUSH1 0x20 PUSH1 0x4 DUP3 ADD MSTORE PUSH1 0x10 PUSH1 0x24 DUP3 ADD MSTORE PUSH16 0x27AB262B189D31B7B63630BA1E36B4B7 PUSH1 0x81 SHL PUSH1 0x44 DUP3 ADD MSTORE PUSH1 0x64 ADD PUSH2 0x96B JUMP JUMPDEST DUP6 PUSH2 0xAB8 DUP3 DUP14 PUSH2 0x46BB JUMP JUMPDEST PUSH2 0xAC2 SWAP2 SWAP1 PUSH2 0x46BB JUMP JUMPDEST SWAP8 POP PUSH2 0xACE DUP11 DUP10 PUSH2 0x4624 JUMP JUMPDEST SWAP9 POP PUSH2 0xADA DUP9 DUP11 PUSH2 0x46BB JUMP JUMPDEST SWAP7 POP PUSH2 0xAE7 DUP13 DUP11 DUP6 PUSH2 0x29AB JUMP JUMPDEST POP POP POP SWAP4 SWAP8 POP SWAP4 SWAP8 SWAP2 SWAP6 POP SWAP4 POP JUMP JUMPDEST PUSH2 0x17A SLOAD PUSH1 0x0 SWAP1 DUP2 SWAP1 DUP2 SWAP1 TIMESTAMP SWAP1 DUP1 DUP3 EQ PUSH2 0xB21 JUMPI PUSH2 0xB15 PUSH2 0x650 PUSH2 0x129C JUMP JUMPDEST SWAP2 SWAP7 POP SWAP5 POP SWAP3 POP PUSH2 0xB3D JUMP JUMPDEST PUSH2 0x17B SLOAD PUSH2 0xB35 SWAP1 PUSH2 0x85B SWAP1 PUSH1 0x1 SWAP1 PUSH2 0x46BB JUMP JUMPDEST SWAP2 SWAP7 POP SWAP5 POP SWAP3 POP JUMPDEST POP POP SWAP1 SWAP2 SWAP3 JUMP JUMPDEST PUSH1 0x40 MLOAD PUSH4 0x24745215 PUSH1 0xE2 SHL DUP2 MSTORE PUSH1 0x0 DUP1 MLOAD PUSH1 0x20 PUSH2 0x47FF DUP4 CODECOPY DUP2 MLOAD SWAP2 MSTORE PUSH1 0x4 DUP3 ADD MSTORE CALLER PUSH1 0x24 DUP3 ADD MSTORE PUSH32 0x0 PUSH1 0x1 PUSH1 0x1 PUSH1 0xA0 SHL SUB AND SWAP1 PUSH4 0x91D14854 SWAP1 PUSH1 0x44 ADD PUSH1 0x20 PUSH1 0x40 MLOAD DUP1 DUP4 SUB DUP2 DUP7 DUP1 EXTCODESIZE ISZERO DUP1 ISZERO PUSH2 0xBB7 JUMPI PUSH1 0x0 DUP1 REVERT JUMPDEST POP GAS STATICCALL ISZERO DUP1 ISZERO PUSH2 0xBCB JUMPI RETURNDATASIZE PUSH1 0x0 DUP1 RETURNDATACOPY RETURNDATASIZE PUSH1 0x0 REVERT JUMPDEST POP POP POP POP PUSH1 0x40 MLOAD RETURNDATASIZE PUSH1 0x1F NOT PUSH1 0x1F DUP3 ADD AND DUP3 ADD DUP1 PUSH1 0x40 MSTORE POP DUP2 ADD SWAP1 PUSH2 0xBEF SWAP2 SWAP1 PUSH2 0x42A6 JUMP JUMPDEST PUSH2 0xC2D JUMPI PUSH1 0x40 MLOAD PUSH3 0x461BCD PUSH1 0xE5 SHL DUP2 MSTORE PUSH1 0x20 PUSH1 0x4 DUP3 ADD MSTORE PUSH1 0xF PUSH1 0x24 DUP3 ADD MSTORE PUSH15 0x27AB262B189D10B3B7BB32B93737B9 PUSH1 0x89 SHL PUSH1 0x44 DUP3 ADD MSTORE PUSH1 0x64 ADD PUSH2 0x96B JUMP JUMPDEST PUSH2 0xC36 DUP9 PUSH2 0xFCB JUMP JUMPDEST PUSH2 0xC3F DUP8 PUSH2 0x187C JUMP JUMPDEST PUSH2 0xC48 DUP7 PUSH2 0x11AD JUMP JUMPDEST PUSH2 0xC55 DUP6 DUP6 DUP6 DUP6 DUP6 PUSH2 0x1D26 JUMP JUMPDEST POP POP POP POP POP POP POP POP JUMP JUMPDEST PUSH2 0x17B SLOAD PUSH1 0x0 SWAP1 DUP2 SWAP1 DUP2 SWAP1 DUP1 DUP6 LT DUP1 PUSH2 0xC85 JUMPI POP DUP1 DUP6 EQ DUP1 ISZERO PUSH2 0xC85 JUMPI POP TIMESTAMP PUSH2 0x17A SLOAD EQ ISZERO JUMPDEST PUSH2 0xCC0 JUMPI PUSH1 0x40 MLOAD PUSH3 0x461BCD PUSH1 0xE5 SHL DUP2 MSTORE PUSH1 0x20 PUSH1 0x4 DUP3 ADD MSTORE PUSH1 0xC PUSH1 0x24 DUP3 ADD MSTORE PUSH12 0x4F564C56313A217072696365 PUSH1 0xA0 SHL PUSH1 0x44 DUP3 ADD MSTORE PUSH1 0x64 ADD PUSH2 0x96B JUMP JUMPDEST DUP1 DUP6 EQ ISZERO PUSH2 0xCDF JUMPI PUSH2 0xCD3 PUSH2 0x650 PUSH2 0x129C JUMP JUMPDEST SWAP2 SWAP6 POP SWAP4 POP SWAP2 POP PUSH2 0xCF0 JUMP JUMPDEST PUSH2 0xCE8 DUP6 PUSH2 0x1F01 JUMP JUMPDEST SWAP2 SWAP6 POP SWAP4 POP SWAP2 POP JUMPDEST POP SWAP2 SWAP4 SWAP1 SWAP3 POP JUMP JUMPDEST PUSH1 0x0 DUP1 PUSH2 0xD06 DUP6 DUP6 DUP6 PUSH2 0xE95 JUMP JUMPDEST SWAP1 POP PUSH1 0x0 PUSH2 0xD20 DUP3 PUSH2 0x16B SLOAD PUSH2 0x2961 SWAP1 SWAP2 SWAP1 PUSH4 0xFFFFFFFF AND JUMP JUMPDEST SWAP1 POP PUSH1 0x0 DUP3 PUSH2 0xD30 JUMPI PUSH1 0x0 PUSH2 0xD54 JUMP JUMPDEST PUSH2 0xD54 PUSH2 0xD45 PUSH8 0x51AF86713316A9A DUP5 PUSH2 0x2A95 JUMP JUMPDEST PUSH8 0xDE0B6B3A7640000 SWAP1 PUSH2 0x2AFA JUMP JUMPDEST SWAP1 POP PUSH2 0xD60 DUP7 DUP3 PUSH2 0x2B16 JUMP JUMPDEST SWAP8 SWAP7 POP POP POP POP POP POP POP JUMP JUMPDEST CALLER PUSH1 0x0 SWAP1 DUP2 MSTORE PUSH2 0x17D PUSH1 0x20 MSTORE PUSH1 0x40 DUP2 KECCAK256 SLOAD DUP2 SWAP1 DUP2 SWAP1 PUSH1 0xFF AND PUSH2 0xDC3 JUMPI PUSH1 0x40 MLOAD PUSH3 0x461BCD PUSH1 0xE5 SHL DUP2 MSTORE PUSH1 0x20 PUSH1 0x4 DUP3 ADD MSTORE PUSH1 0x11 PUSH1 0x24 DUP3 ADD MSTORE PUSH17 0x13D593158C4E8858DBDB1B185D195C985B PUSH1 0x7A SHL PUSH1 0x44 DUP3 ADD MSTORE PUSH1 0x64 ADD PUSH2 0x96B JUMP JUMPDEST PUSH2 0xDCB PUSH2 0x180E JUMP JUMPDEST POP DUP5 ISZERO PUSH2 0xDE4 JUMPI PUSH2 0x174 SLOAD PUSH2 0x176 SLOAD SWAP1 SWAP4 POP SWAP2 POP PUSH2 0xDF2 JUMP JUMPDEST PUSH2 0x175 SLOAD PUSH2 0x177 SLOAD SWAP1 SWAP4 POP SWAP2 POP JUMPDEST PUSH2 0xDFC DUP6 DUP6 PUSH2 0x2B7B JUMP JUMPDEST SWAP1 POP SWAP3 POP SWAP3 POP SWAP3 JUMP JUMPDEST PUSH1 0x0 DUP1 PUSH1 0x0 DUP1 PUSH2 0xE1C PUSH1 0xB6 PUSH1 0x1 SLOAD PUSH2 0x16F SLOAD PUSH2 0x2BE5 JUMP JUMPDEST SWAP3 POP SWAP3 POP POP DUP1 PUSH1 0x20 ADD MLOAD DUP3 PUSH1 0x20 ADD MLOAD PUSH2 0x16C PUSH1 0x0 PUSH1 0x2 DUP2 LT PUSH2 0xE40 JUMPI PUSH2 0xE40 PUSH2 0x47AC JUMP JUMPDEST ADD SLOAD PUSH2 0xE4C SWAP2 SWAP1 PUSH2 0x4594 JUMP JUMPDEST PUSH2 0xE56 SWAP2 SWAP1 PUSH2 0x46BB JUMP JUMPDEST SWAP4 POP DUP1 PUSH1 0x40 ADD MLOAD DUP3 PUSH1 0x40 ADD MLOAD PUSH2 0x16C PUSH1 0x1 PUSH1 0x2 DUP2 LT PUSH2 0xE77 JUMPI PUSH2 0xE77 PUSH2 0x47AC JUMP JUMPDEST ADD SLOAD PUSH2 0xE83 SWAP2 SWAP1 PUSH2 0x4594 JUMP JUMPDEST PUSH2 0xE8D SWAP2 SWAP1 PUSH2 0x46BB JUMP JUMPDEST SWAP3 POP POP POP SWAP1 SWAP2 JUMP JUMPDEST PUSH1 0x0 DUP1 PUSH1 0x0 PUSH2 0xEC8 PUSH1 0x2 PUSH1 0x0 SLOAD PUSH32 0x0 PUSH2 0x2BE5 JUMP JUMPDEST SWAP3 POP SWAP3 POP POP DUP6 PUSH2 0xEEB JUMPI DUP1 PUSH1 0x40 ADD MLOAD DUP3 PUSH1 0x40 ADD MLOAD PUSH2 0xEE6 SWAP2 SWAP1 PUSH2 0x46BB JUMP JUMPDEST PUSH2 0xEFF JUMP JUMPDEST DUP1 PUSH1 0x20 ADD MLOAD DUP3 PUSH1 0x20 ADD MLOAD PUSH2 0xEFF SWAP2 SWAP1 PUSH2 0x46BB JUMP JUMPDEST SWAP3 POP PUSH2 0xF0B DUP6 DUP6 PUSH2 0x2CDA JUMP JUMPDEST PUSH2 0xF15 SWAP1 DUP5 PUSH2 0x4594 JUMP JUMPDEST SWAP7 SWAP6 POP POP POP POP POP POP JUMP JUMPDEST PUSH1 0xB6 DUP2 PUSH1 0x3C DUP2 LT PUSH2 0xF2F JUMPI PUSH1 0x0 DUP1 REVERT JUMPDEST PUSH1 0x3 MUL ADD DUP1 SLOAD PUSH1 0x1 DUP3 ADD SLOAD PUSH1 0x2 SWAP1 SWAP3 ADD SLOAD SWAP1 SWAP3 POP DUP4 JUMP JUMPDEST PUSH1 0x0 PUSH2 0xF50 PUSH2 0x117D JUMP JUMPDEST POP SWAP2 SWAP4 SWAP3 POP POP POP JUMP JUMPDEST PUSH1 0x0 DUP1 PUSH1 0x0 DUP1 PUSH2 0xF6C TIMESTAMP PUSH2 0x173 SLOAD PUSH2 0x8D3 JUMP JUMPDEST POP SWAP1 POP PUSH1 0x0 DUP1 PUSH1 0x0 DUP1 PUSH2 0xF7E DUP6 PUSH2 0x2D34 JUMP JUMPDEST SWAP4 POP SWAP4 POP SWAP4 POP SWAP4 POP DUP10 ISZERO PUSH2 0xF99 JUMPI DUP4 SWAP8 POP DUP8 DUP3 SWAP8 POP POP PUSH2 0xFA2 JUMP JUMPDEST DUP3 SWAP8 POP DUP8 DUP2 SWAP8 POP POP JUMPDEST PUSH2 0xFAC DUP11 DUP11 PUSH2 0x2B7B JUMP JUMPDEST SWAP6 POP POP POP POP POP POP SWAP3 POP SWAP3 POP SWAP3 JUMP JUMPDEST PUSH1 0x0 PUSH2 0xFC4 PUSH2 0xAF6 JUMP JUMPDEST SWAP4 SWAP3 POP POP POP JUMP JUMPDEST PUSH1 0x40 MLOAD PUSH4 0x24745215 PUSH1 0xE2 SHL DUP2 MSTORE PUSH1 0x0 DUP1 MLOAD PUSH1 0x20 PUSH2 0x47FF DUP4 CODECOPY DUP2 MLOAD SWAP2 MSTORE PUSH1 0x4 DUP3 ADD MSTORE CALLER PUSH1 0x24 DUP3 ADD MSTORE PUSH32 0x0 PUSH1 0x1 PUSH1 0x1 PUSH1 0xA0 SHL SUB AND SWAP1 PUSH4 0x91D14854 SWAP1 PUSH1 0x44 ADD PUSH1 0x20 PUSH1 0x40 MLOAD DUP1 DUP4 SUB DUP2 DUP7 DUP1 EXTCODESIZE ISZERO DUP1 ISZERO PUSH2 0x103E JUMPI PUSH1 0x0 DUP1 REVERT JUMPDEST POP GAS STATICCALL ISZERO DUP1 ISZERO PUSH2 0x1052 JUMPI RETURNDATASIZE PUSH1 0x0 DUP1 RETURNDATACOPY RETURNDATASIZE PUSH1 0x0 REVERT JUMPDEST POP POP POP POP PUSH1 0x40 MLOAD RETURNDATASIZE PUSH1 0x1F NOT PUSH1 0x1F DUP3 ADD AND DUP3 ADD DUP1 PUSH1 0x40 MSTORE POP DUP2 ADD SWAP1 PUSH2 0x1076 SWAP2 SWAP1 PUSH2 0x42A6 JUMP JUMPDEST PUSH2 0x10B4 JUMPI PUSH1 0x40 MLOAD PUSH3 0x461BCD PUSH1 0xE5 SHL DUP2 MSTORE PUSH1 0x20 PUSH1 0x4 DUP3 ADD MSTORE PUSH1 0xF PUSH1 0x24 DUP3 ADD MSTORE PUSH15 0x27AB262B189D10B3B7BB32B93737B9 PUSH1 0x89 SHL PUSH1 0x44 DUP3 ADD MSTORE PUSH1 0x64 ADD PUSH2 0x96B JUMP JUMPDEST PUSH2 0x178 SSTORE JUMP JUMPDEST PUSH1 0x0 DUP1 PUSH1 0x0 DUP1 PUSH2 0x10CD DUP6 PUSH1 0x20 ADD MLOAD PUSH2 0x1A10 JUMP JUMPDEST SWAP1 POP PUSH1 0x0 PUSH2 0x10DE DUP7 PUSH1 0x0 ADD MLOAD PUSH2 0x1A10 JUMP JUMPDEST PUSH2 0x179 SLOAD SWAP1 SWAP2 POP PUSH2 0x110A PUSH2 0x10FA PUSH8 0x25B946EBC0B36351 DUP4 PUSH2 0x2A95 JUMP JUMPDEST PUSH2 0x1104 DUP5 DUP7 PUSH2 0x2D67 JUMP JUMPDEST SWAP1 PUSH2 0x2B16 JUMP JUMPDEST SWAP5 POP PUSH2 0x1131 PUSH2 0x1121 PUSH8 0x51AF86713316A9A DUP4 PUSH2 0x2A95 JUMP JUMPDEST PUSH2 0x112B DUP5 DUP7 PUSH2 0x2D7E JUMP JUMPDEST SWAP1 PUSH2 0x2961 JUMP JUMPDEST PUSH1 0x40 SWAP1 SWAP8 ADD MLOAD SWAP7 SWAP8 SWAP5 SWAP7 SWAP6 POP POP POP POP POP JUMP JUMPDEST PUSH1 0x0 PUSH2 0xFC4 PUSH8 0x1BC16D674EC80000 PUSH2 0x1177 PUSH2 0x16B SLOAD DUP6 DUP8 PUSH8 0xDE0B6B3A7640000 PUSH2 0x116D SWAP2 SWAP1 PUSH2 0x4624 JUMP JUMPDEST PUSH2 0x1104 SWAP2 SWAP1 PUSH2 0x4610 JUMP JUMPDEST SWAP1 PUSH2 0x2CDA JUMP JUMPDEST PUSH1 0x0 DUP1 PUSH1 0x0 DUP1 PUSH1 0x0 PUSH2 0x1192 TIMESTAMP PUSH2 0x173 SLOAD PUSH2 0x8D3 JUMP JUMPDEST POP SWAP1 POP PUSH2 0x119E DUP2 PUSH2 0x2D34 JUMP JUMPDEST SWAP3 SWAP9 SWAP2 SWAP8 POP SWAP6 POP SWAP1 SWAP4 POP SWAP2 POP POP JUMP JUMPDEST PUSH1 0x40 MLOAD PUSH4 0x24745215 PUSH1 0xE2 SHL DUP2 MSTORE PUSH1 0x0 DUP1 MLOAD PUSH1 0x20 PUSH2 0x47FF DUP4 CODECOPY DUP2 MLOAD SWAP2 MSTORE PUSH1 0x4 DUP3 ADD MSTORE CALLER PUSH1 0x24 DUP3 ADD MSTORE PUSH32 0x0 PUSH1 0x1 PUSH1 0x1 PUSH1 0xA0 SHL SUB AND SWAP1 PUSH4 0x91D14854 SWAP1 PUSH1 0x44 ADD PUSH1 0x20 PUSH1 0x40 MLOAD DUP1 DUP4 SUB DUP2 DUP7 DUP1 EXTCODESIZE ISZERO DUP1 ISZERO PUSH2 0x1220 JUMPI PUSH1 0x0 DUP1 REVERT JUMPDEST POP GAS STATICCALL ISZERO DUP1 ISZERO PUSH2 0x1234 JUMPI RETURNDATASIZE PUSH1 0x0 DUP1 RETURNDATACOPY RETURNDATASIZE PUSH1 0x0 REVERT JUMPDEST POP POP POP POP PUSH1 0x40 MLOAD RETURNDATASIZE PUSH1 0x1F NOT PUSH1 0x1F DUP3 ADD AND DUP3 ADD DUP1 PUSH1 0x40 MSTORE POP DUP2 ADD SWAP1 PUSH2 0x1258 SWAP2 SWAP1 PUSH2 0x42A6 JUMP JUMPDEST PUSH2 0x1296 JUMPI PUSH1 0x40 MLOAD PUSH3 0x461BCD PUSH1 0xE5 SHL DUP2 MSTORE PUSH1 0x20 PUSH1 0x4 DUP3 ADD MSTORE PUSH1 0xF PUSH1 0x24 DUP3 ADD MSTORE PUSH15 0x27AB262B189D10B3B7BB32B93737B9 PUSH1 0x89 SHL PUSH1 0x44 DUP3 ADD MSTORE PUSH1 0x64 ADD PUSH2 0x96B JUMP JUMPDEST PUSH2 0x172 SSTORE JUMP JUMPDEST PUSH1 0x40 DUP1 MLOAD PUSH1 0x60 DUP1 DUP3 ADD DUP4 MSTORE PUSH1 0x0 DUP1 DUP4 MSTORE PUSH1 0x20 DUP1 DUP5 ADD DUP3 SWAP1 MSTORE DUP4 DUP6 ADD DUP3 SWAP1 MSTORE DUP5 MLOAD PUSH1 0x3 DUP1 DUP3 MSTORE PUSH1 0x80 DUP3 ADD SWAP1 SWAP7 MSTORE SWAP4 SWAP5 SWAP3 SWAP4 DUP5 SWAP4 DUP4 SWAP3 DUP4 SWAP3 DUP4 SWAP3 DUP4 SWAP3 DUP3 ADD DUP9 DUP1 CALLDATASIZE DUP4 CALLDATACOPY ADD SWAP1 POP POP SWAP1 POP PUSH32 0x0 DUP2 PUSH1 0x2 DUP2 MLOAD DUP2 LT PUSH2 0x1317 JUMPI PUSH2 0x1317 PUSH2 0x47AC JUMP JUMPDEST PUSH1 0x20 MUL PUSH1 0x20 ADD ADD SWAP1 PUSH4 0xFFFFFFFF AND SWAP1 DUP2 PUSH4 0xFFFFFFFF AND DUP2 MSTORE POP POP PUSH32 0x0 DUP2 PUSH1 0x1 DUP2 MLOAD DUP2 LT PUSH2 0x1365 JUMPI PUSH2 0x1365 PUSH2 0x47AC JUMP JUMPDEST PUSH4 0xFFFFFFFF SWAP1 SWAP3 AND PUSH1 0x20 SWAP3 DUP4 MUL SWAP2 SWAP1 SWAP2 ADD SWAP1 SWAP2 ADD MSTORE PUSH1 0x40 MLOAD PUSH4 0x883BDBFD PUSH1 0xE0 SHL DUP2 MSTORE PUSH1 0x1 PUSH1 0x1 PUSH1 0xA0 SHL SUB PUSH32 0x0 AND SWAP1 PUSH4 0x883BDBFD SWAP1 PUSH2 0x13C6 SWAP1 DUP5 SWAP1 PUSH1 0x4 ADD PUSH2 0x44CF JUMP JUMPDEST PUSH1 0x0 PUSH1 0x40 MLOAD DUP1 DUP4 SUB DUP2 DUP7 DUP1 EXTCODESIZE ISZERO DUP1 ISZERO PUSH2 0x13DE JUMPI PUSH1 0x0 DUP1 REVERT JUMPDEST POP GAS STATICCALL ISZERO DUP1 ISZERO PUSH2 0x13F2 JUMPI RETURNDATASIZE PUSH1 0x0 DUP1 RETURNDATACOPY RETURNDATASIZE PUSH1 0x0 REVERT JUMPDEST POP POP POP POP PUSH1 0x40 MLOAD RETURNDATASIZE PUSH1 0x0 DUP3 RETURNDATACOPY PUSH1 0x1F RETURNDATASIZE SWAP1 DUP2 ADD PUSH1 0x1F NOT AND DUP3 ADD PUSH1 0x40 MSTORE PUSH2 0x141A SWAP2 SWAP1 DUP2 ADD SWAP1 PUSH2 0x41DE JUMP JUMPDEST DUP1 SWAP8 POP DUP2 SWAP9 POP POP POP PUSH32 0x0 PUSH1 0x3 SIGNEXTEND DUP8 PUSH1 0x2 DUP2 MLOAD DUP2 LT PUSH2 0x1459 JUMPI PUSH2 0x1459 PUSH2 0x47AC JUMP JUMPDEST PUSH1 0x20 MUL PUSH1 0x20 ADD ADD MLOAD DUP9 PUSH1 0x0 DUP2 MLOAD DUP2 LT PUSH2 0x1474 JUMPI PUSH2 0x1474 PUSH2 0x47AC JUMP JUMPDEST PUSH1 0x20 MUL PUSH1 0x20 ADD ADD MLOAD PUSH2 0x1486 SWAP2 SWAP1 PUSH2 0x4643 JUMP JUMPDEST PUSH2 0x1490 SWAP2 SWAP1 PUSH2 0x45AC JUMP JUMPDEST SWAP2 POP PUSH32 0x0 PUSH1 0x3 SIGNEXTEND DUP8 PUSH1 0x1 DUP2 MLOAD DUP2 LT PUSH2 0x14C9 JUMPI PUSH2 0x14C9 PUSH2 0x47AC JUMP JUMPDEST PUSH1 0x20 MUL PUSH1 0x20 ADD ADD MLOAD DUP9 PUSH1 0x0 DUP2 MLOAD DUP2 LT PUSH2 0x14E4 JUMPI PUSH2 0x14E4 PUSH2 0x47AC JUMP JUMPDEST PUSH1 0x20 MUL PUSH1 0x20 ADD ADD MLOAD PUSH2 0x14F6 SWAP2 SWAP1 PUSH2 0x4643 JUMP JUMPDEST PUSH2 0x1500 SWAP2 SWAP1 PUSH2 0x45AC JUMP JUMPDEST SWAP3 POP PUSH1 0x0 PUSH2 0x150D DUP5 PUSH2 0x2396 JUMP JUMPDEST PUSH1 0x1 PUSH1 0x1 PUSH1 0xA0 SHL SUB AND SWAP1 POP PUSH1 0x0 DUP8 PUSH1 0x1 DUP2 MLOAD DUP2 LT PUSH2 0x152D JUMPI PUSH2 0x152D PUSH2 0x47AC JUMP JUMPDEST PUSH1 0x20 MUL PUSH1 0x20 ADD ADD MLOAD DUP9 PUSH1 0x0 DUP2 MLOAD DUP2 LT PUSH2 0x1548 JUMPI PUSH2 0x1548 PUSH2 0x47AC JUMP JUMPDEST PUSH1 0x20 MUL PUSH1 0x20 ADD ADD MLOAD PUSH2 0x155A SWAP2 SWAP1 PUSH2 0x4693 JUMP JUMPDEST PUSH2 0x159A SWAP1 PUSH16 0xFFFFFFFFFFFFFFFFFFFFFFFFFFFFFFFF NOT PUSH32 0x0 PUSH1 0x80 SHL AND PUSH2 0x45EA JUMP JUMPDEST PUSH1 0x1 PUSH1 0x1 PUSH1 0xA0 SHL SUB AND SWAP1 POP PUSH32 0x0 PUSH2 0x15DD JUMPI PUSH2 0x15D8 DUP2 DUP4 PUSH2 0x17F SLOAD PUSH2 0x27AD JUMP JUMPDEST PUSH2 0x15EB JUMP JUMPDEST PUSH2 0x15EB DUP3 PUSH1 0x60 DUP4 SWAP1 SHL PUSH2 0x4610 JUMP JUMPDEST SWAP6 POP PUSH1 0x0 SWAP3 POP PUSH1 0x2 SWAP2 POP PUSH2 0x15FC SWAP1 POP JUMP JUMPDEST PUSH1 0x40 MLOAD SWAP1 DUP1 DUP3 MSTORE DUP1 PUSH1 0x20 MUL PUSH1 0x20 ADD DUP3 ADD PUSH1 0x40 MSTORE DUP1 ISZERO PUSH2 0x1625 JUMPI DUP2 PUSH1 0x20 ADD PUSH1 0x20 DUP3 MUL DUP1 CALLDATASIZE DUP4 CALLDATACOPY ADD SWAP1 POP JUMPDEST POP SWAP1 POP PUSH32 0x0 DUP2 PUSH1 0x1 DUP2 MLOAD DUP2 LT PUSH2 0x165C JUMPI PUSH2 0x165C PUSH2 0x47AC JUMP JUMPDEST PUSH4 0xFFFFFFFF SWAP1 SWAP3 AND PUSH1 0x20 SWAP3 DUP4 MUL SWAP2 SWAP1 SWAP2 ADD SWAP1 SWAP2 ADD MSTORE PUSH1 0x40 MLOAD PUSH4 0x883BDBFD PUSH1 0xE0 SHL DUP2 MSTORE PUSH1 0x1 PUSH1 0x1 PUSH1 0xA0 SHL SUB PUSH32 0x0 AND SWAP1 PUSH4 0x883BDBFD SWAP1 PUSH2 0x16BD SWAP1 DUP5 SWAP1 PUSH1 0x4 ADD PUSH2 0x44CF JUMP JUMPDEST PUSH1 0x0 PUSH1 0x40 MLOAD DUP1 DUP4 SUB DUP2 DUP7 DUP1 EXTCODESIZE ISZERO DUP1 ISZERO PUSH2 0x16D5 JUMPI PUSH1 0x0 DUP1 REVERT JUMPDEST POP GAS STATICCALL ISZERO DUP1 ISZERO PUSH2 0x16E9 JUMPI RETURNDATASIZE PUSH1 0x0 DUP1 RETURNDATACOPY RETURNDATASIZE PUSH1 0x0 REVERT JUMPDEST POP POP POP POP PUSH1 0x40 MLOAD RETURNDATASIZE PUSH1 0x0 DUP3 RETURNDATACOPY PUSH1 0x1F RETURNDATASIZE SWAP1 DUP2 ADD PUSH1 0x1F NOT AND DUP3 ADD PUSH1 0x40 MSTORE PUSH2 0x1711 SWAP2 SWAP1 DUP2 ADD SWAP1 PUSH2 0x41DE JUMP JUMPDEST POP DUP1 SWAP8 POP POP PUSH2 0x17D7 PUSH32 0x0 PUSH1 0x3 SIGNEXTEND DUP9 PUSH1 0x1 DUP2 MLOAD DUP2 LT PUSH2 0x1750 JUMPI PUSH2 0x1750 PUSH2 0x47AC JUMP JUMPDEST PUSH1 0x20 MUL PUSH1 0x20 ADD ADD MLOAD DUP10 PUSH1 0x0 DUP2 MLOAD DUP2 LT PUSH2 0x176B JUMPI PUSH2 0x176B PUSH2 0x47AC JUMP JUMPDEST PUSH1 0x20 MUL PUSH1 0x20 ADD ADD MLOAD PUSH2 0x177D SWAP2 SWAP1 PUSH2 0x4643 JUMP JUMPDEST PUSH2 0x1787 SWAP2 SWAP1 PUSH2 0x45AC JUMP JUMPDEST PUSH8 0xDE0B6B3A7640000 PUSH32 0x0 PUSH32 0x0 PUSH2 0x2288 JUMP JUMPDEST SWAP5 POP POP PUSH1 0x40 MLOAD DUP1 PUSH1 0x60 ADD PUSH1 0x40 MSTORE DUP1 DUP4 PUSH1 0x2 SIGNEXTEND DUP2 MSTORE PUSH1 0x20 ADD DUP3 PUSH1 0x2 SIGNEXTEND DUP2 MSTORE PUSH1 0x20 ADD PUSH2 0x1801 DUP6 DUP8 PUSH2 0x1143 JUMP JUMPDEST SWAP1 MSTORE SWAP8 SWAP7 POP POP POP POP POP POP POP JUMP JUMPDEST PUSH2 0x17A SLOAD PUSH1 0x0 SWAP1 TIMESTAMP SWAP1 DUP1 DUP3 EQ PUSH2 0x183B JUMPI PUSH1 0x0 PUSH2 0x1828 PUSH2 0x129C JUMP JUMPDEST SWAP1 POP PUSH2 0x1833 DUP2 PUSH2 0x2D8D JUMP JUMPDEST POP PUSH2 0x17A DUP3 SWAP1 SSTORE JUMPDEST PUSH1 0x0 DUP1 PUSH2 0x184B DUP5 PUSH2 0x173 SLOAD PUSH2 0x8D3 JUMP JUMPDEST SWAP1 SWAP3 POP SWAP1 POP DUP2 ISZERO PUSH2 0x186B JUMPI PUSH2 0x1863 PUSH2 0x178 SLOAD DUP4 PUSH2 0x2E7D JUMP JUMPDEST POP PUSH2 0x173 DUP2 SWAP1 SSTORE JUMPDEST PUSH2 0x1873 PUSH2 0x196B JUMP JUMPDEST SWAP5 POP POP POP POP POP SWAP1 JUMP JUMPDEST PUSH1 0x40 MLOAD PUSH4 0x24745215 PUSH1 0xE2 SHL DUP2 MSTORE PUSH1 0x0 DUP1 MLOAD PUSH1 0x20 PUSH2 0x47FF DUP4 CODECOPY DUP2 MLOAD SWAP2 MSTORE PUSH1 0x4 DUP3 ADD MSTORE CALLER PUSH1 0x24 DUP3 ADD MSTORE PUSH32 0x0 PUSH1 0x1 PUSH1 0x1 PUSH1 0xA0 SHL SUB AND SWAP1 PUSH4 0x91D14854 SWAP1 PUSH1 0x44 ADD PUSH1 0x20 PUSH1 0x40 MLOAD DUP1 DUP4 SUB DUP2 DUP7 DUP1 EXTCODESIZE ISZERO DUP1 ISZERO PUSH2 0x18EF JUMPI PUSH1 0x0 DUP1 REVERT JUMPDEST POP GAS STATICCALL ISZERO DUP1 ISZERO PUSH2 0x1903 JUMPI RETURNDATASIZE PUSH1 0x0 DUP1 RETURNDATACOPY RETURNDATASIZE PUSH1 0x0 REVERT JUMPDEST POP POP POP POP PUSH1 0x40 MLOAD RETURNDATASIZE PUSH1 0x1F NOT PUSH1 0x1F DUP3 ADD AND DUP3 ADD DUP1 PUSH1 0x40 MSTORE POP DUP2 ADD SWAP1 PUSH2 0x1927 SWAP2 SWAP1 PUSH2 0x42A6 JUMP JUMPDEST PUSH2 0x1965 JUMPI PUSH1 0x40 MLOAD PUSH3 0x461BCD PUSH1 0xE5 SHL DUP2 MSTORE PUSH1 0x20 PUSH1 0x4 DUP3 ADD MSTORE PUSH1 0xF PUSH1 0x24 DUP3 ADD MSTORE PUSH15 0x27AB262B189D10B3B7BB32B93737B9 PUSH1 0x89 SHL PUSH1 0x44 DUP3 ADD MSTORE PUSH1 0x64 ADD PUSH2 0x96B JUMP JUMPDEST PUSH2 0x179 SSTORE JUMP JUMPDEST PUSH1 0x0 DUP1 PUSH1 0x0 PUSH2 0x1978 PUSH2 0xE05 JUMP JUMPDEST PUSH2 0x170 SLOAD SWAP2 SWAP4 POP SWAP2 POP PUSH1 0x0 DUP1 DUP1 DUP5 DUP7 LT ISZERO PUSH2 0x1996 JUMPI PUSH1 0x1 SWAP3 POP PUSH2 0x19B7 JUMP JUMPDEST PUSH2 0x19A0 DUP6 DUP8 PUSH2 0x46BB JUMP JUMPDEST SWAP6 POP DUP4 DUP7 LT SWAP2 POP PUSH2 0x19B2 DUP5 PUSH1 0x2 PUSH2 0x4624 JUMP JUMPDEST DUP7 GT SWAP1 POP JUMPDEST DUP1 PUSH2 0x1A02 JUMPI DUP3 DUP1 PUSH2 0x19C5 JUMPI POP DUP2 JUMPDEST PUSH2 0x19E9 JUMPI PUSH2 0x19E4 PUSH1 0x1 PUSH2 0x19D6 PUSH2 0xFBA JUMP JUMPDEST PUSH2 0x16A SLOAD DUP10 PUSH2 0x170 SLOAD PUSH2 0x2EF1 JUMP JUMPDEST PUSH2 0x1A05 JUMP JUMPDEST PUSH2 0x19E4 PUSH1 0x0 PUSH2 0x19F6 PUSH2 0xFBA JUMP JUMPDEST PUSH2 0x16A SLOAD PUSH1 0x0 DUP1 PUSH2 0x2EF1 JUMP JUMPDEST PUSH1 0x0 JUMPDEST SWAP7 POP POP POP POP POP POP POP SWAP1 JUMP JUMPDEST PUSH1 0x0 DUP1 PUSH2 0x1A1C DUP4 PUSH2 0x2396 JUMP JUMPDEST SWAP1 POP PUSH1 0x1 PUSH1 0x1 PUSH1 0x80 SHL SUB PUSH1 0x1 PUSH1 0x1 PUSH1 0xA0 SHL SUB DUP3 AND GT PUSH2 0x1B22 JUMPI PUSH1 0x0 PUSH2 0x1A4A PUSH1 0x1 PUSH1 0x1 PUSH1 0xA0 SHL SUB DUP4 AND DUP1 PUSH2 0x4624 JUMP JUMPDEST SWAP1 POP PUSH32 0x0 PUSH1 0x1 PUSH1 0x1 PUSH1 0xA0 SHL SUB AND PUSH32 0x0 PUSH1 0x1 PUSH1 0x1 PUSH1 0xA0 SHL SUB AND LT PUSH2 0x1AE2 JUMPI PUSH2 0x1ADD PUSH1 0x1 PUSH1 0xC0 SHL PUSH32 0x0 PUSH1 0x1 PUSH1 0x1 PUSH1 0x80 SHL SUB AND DUP4 PUSH2 0x27AD JUMP JUMPDEST PUSH2 0x1B1A JUMP JUMPDEST PUSH2 0x1B1A DUP2 PUSH32 0x0 PUSH1 0x1 PUSH1 0x1 PUSH1 0x80 SHL SUB AND PUSH1 0x1 PUSH1 0xC0 SHL PUSH2 0x27AD JUMP JUMPDEST SWAP3 POP POP PUSH2 0x1C15 JUMP JUMPDEST PUSH1 0x0 PUSH2 0x1B41 PUSH1 0x1 PUSH1 0x1 PUSH1 0xA0 SHL SUB DUP4 AND DUP1 PUSH9 0x10000000000000000 PUSH2 0x27AD JUMP JUMPDEST SWAP1 POP PUSH32 0x0 PUSH1 0x1 PUSH1 0x1 PUSH1 0xA0 SHL SUB AND PUSH32 0x0 PUSH1 0x1 PUSH1 0x1 PUSH1 0xA0 SHL SUB AND LT PUSH2 0x1BD9 JUMPI PUSH2 0x1BD4 PUSH1 0x1 PUSH1 0x80 SHL PUSH32 0x0 PUSH1 0x1 PUSH1 0x1 PUSH1 0x80 SHL SUB AND DUP4 PUSH2 0x27AD JUMP JUMPDEST PUSH2 0x1C11 JUMP JUMPDEST PUSH2 0x1C11 DUP2 PUSH32 0x0 PUSH1 0x1 PUSH1 0x1 PUSH1 0x80 SHL SUB AND PUSH1 0x1 PUSH1 0x80 SHL PUSH2 0x27AD JUMP JUMPDEST SWAP3 POP POP JUMPDEST POP SWAP2 SWAP1 POP JUMP JUMPDEST PUSH1 0x40 MLOAD PUSH4 0x24745215 PUSH1 0xE2 SHL DUP2 MSTORE PUSH1 0x0 DUP1 MLOAD PUSH1 0x20 PUSH2 0x47FF DUP4 CODECOPY DUP2 MLOAD SWAP2 MSTORE PUSH1 0x4 DUP3 ADD MSTORE CALLER PUSH1 0x24 DUP3 ADD MSTORE PUSH32 0x0 PUSH1 0x1 PUSH1 0x1 PUSH1 0xA0 SHL SUB AND SWAP1 PUSH4 0x91D14854 SWAP1 PUSH1 0x44 ADD PUSH1 0x20 PUSH1 0x40 MLOAD DUP1 DUP4 SUB DUP2 DUP7 DUP1 EXTCODESIZE ISZERO DUP1 ISZERO PUSH2 0x1C8E JUMPI PUSH1 0x0 DUP1 REVERT JUMPDEST POP GAS STATICCALL ISZERO DUP1 ISZERO PUSH2 0x1CA2 JUMPI RETURNDATASIZE PUSH1 0x0 DUP1 RETURNDATACOPY RETURNDATASIZE PUSH1 0x0 REVERT JUMPDEST POP POP POP POP PUSH1 0x40 MLOAD RETURNDATASIZE PUSH1 0x1F NOT PUSH1 0x1F DUP3 ADD AND DUP3 ADD DUP1 PUSH1 0x40 MSTORE POP DUP2 ADD SWAP1 PUSH2 0x1CC6 SWAP2 SWAP1 PUSH2 0x42A6 JUMP JUMPDEST PUSH2 0x1D04 JUMPI PUSH1 0x40 MLOAD PUSH3 0x461BCD PUSH1 0xE5 SHL DUP2 MSTORE PUSH1 0x20 PUSH1 0x4 DUP3 ADD MSTORE PUSH1 0xF PUSH1 0x24 DUP3 ADD MSTORE PUSH15 0x27AB262B189D10B3B7BB32B93737B9 PUSH1 0x89 SHL PUSH1 0x44 DUP3 ADD MSTORE PUSH1 0x64 ADD PUSH2 0x96B JUMP JUMPDEST PUSH1 0x1 PUSH1 0x1 PUSH1 0xA0 SHL SUB AND PUSH1 0x0 SWAP1 DUP2 MSTORE PUSH2 0x17D PUSH1 0x20 MSTORE PUSH1 0x40 SWAP1 KECCAK256 DUP1 SLOAD PUSH1 0xFF NOT AND SWAP1 SSTORE JUMP JUMPDEST PUSH1 0x40 MLOAD PUSH4 0x24745215 PUSH1 0xE2 SHL DUP2 MSTORE PUSH1 0x0 DUP1 MLOAD PUSH1 0x20 PUSH2 0x47FF DUP4 CODECOPY DUP2 MLOAD SWAP2 MSTORE PUSH1 0x4 DUP3 ADD MSTORE CALLER PUSH1 0x24 DUP3 ADD MSTORE PUSH32 0x0 PUSH1 0x1 PUSH1 0x1 PUSH1 0xA0 SHL SUB AND SWAP1 PUSH4 0x91D14854 SWAP1 PUSH1 0x44 ADD PUSH1 0x20 PUSH1 0x40 MLOAD DUP1 DUP4 SUB DUP2 DUP7 DUP1 EXTCODESIZE ISZERO DUP1 ISZERO PUSH2 0x1D99 JUMPI PUSH1 0x0 DUP1 REVERT JUMPDEST POP GAS STATICCALL ISZERO DUP1 ISZERO PUSH2 0x1DAD JUMPI RETURNDATASIZE PUSH1 0x0 DUP1 RETURNDATACOPY RETURNDATASIZE PUSH1 0x0 REVERT JUMPDEST POP POP POP POP PUSH1 0x40 MLOAD RETURNDATASIZE PUSH1 0x1F NOT PUSH1 0x1F DUP3 ADD AND DUP3 ADD DUP1 PUSH1 0x40 MSTORE POP DUP2 ADD SWAP1 PUSH2 0x1DD1 SWAP2 SWAP1 PUSH2 0x42A6 JUMP JUMPDEST PUSH2 0x1E0F JUMPI PUSH1 0x40 MLOAD PUSH3 0x461BCD PUSH1 0xE5 SHL DUP2 MSTORE PUSH1 0x20 PUSH1 0x4 DUP3 ADD MSTORE PUSH1 0xF PUSH1 0x24 DUP3 ADD MSTORE PUSH15 0x27AB262B189D10B3B7BB32B93737B9 PUSH1 0x89 SHL PUSH1 0x44 DUP3 ADD MSTORE PUSH1 0x64 ADD PUSH2 0x96B JUMP JUMPDEST PUSH2 0x16B SWAP5 SWAP1 SWAP5 SSTORE PUSH2 0x16A SWAP3 SWAP1 SWAP3 SSTORE PUSH2 0x170 SSTORE PUSH2 0x16F SSTORE PUSH2 0x16E SSTORE JUMP JUMPDEST CALLER PUSH1 0x0 SWAP1 DUP2 MSTORE PUSH2 0x17D PUSH1 0x20 MSTORE PUSH1 0x40 SWAP1 KECCAK256 SLOAD PUSH1 0xFF AND PUSH2 0x1E7F JUMPI PUSH1 0x40 MLOAD PUSH3 0x461BCD PUSH1 0xE5 SHL DUP2 MSTORE PUSH1 0x20 PUSH1 0x4 DUP3 ADD MSTORE PUSH1 0x11 PUSH1 0x24 DUP3 ADD MSTORE PUSH17 0x13D593158C4E8858DBDB1B185D195C985B PUSH1 0x7A SHL PUSH1 0x44 DUP3 ADD MSTORE PUSH1 0x64 ADD PUSH2 0x96B JUMP JUMPDEST PUSH2 0x1E89 DUP3 DUP3 PUSH2 0x2F42 JUMP JUMPDEST DUP5 ISZERO PUSH2 0x1EC7 JUMPI DUP4 PUSH2 0x174 PUSH1 0x0 DUP3 DUP3 SLOAD PUSH2 0x1EA2 SWAP2 SWAP1 PUSH2 0x46BB JUMP JUMPDEST SWAP3 POP POP DUP2 SWAP1 SSTORE DUP4 PUSH2 0x176 PUSH1 0x0 DUP3 DUP3 SLOAD PUSH2 0x1EBB SWAP2 SWAP1 PUSH2 0x46BB JUMP JUMPDEST SWAP1 SWAP2 SSTORE POP PUSH2 0x1EFA SWAP2 POP POP JUMP JUMPDEST DUP4 PUSH2 0x175 PUSH1 0x0 DUP3 DUP3 SLOAD PUSH2 0x1EDA SWAP2 SWAP1 PUSH2 0x46BB JUMP JUMPDEST SWAP3 POP POP DUP2 SWAP1 SSTORE DUP4 PUSH2 0x177 PUSH1 0x0 DUP3 DUP3 SLOAD PUSH2 0x1EF3 SWAP2 SWAP1 PUSH2 0x46BB JUMP JUMPDEST SWAP1 SWAP2 SSTORE POP POP POP JUMPDEST POP POP POP POP POP JUMP JUMPDEST PUSH1 0x0 DUP1 PUSH1 0x0 PUSH2 0x1F6C PUSH2 0x17B DUP6 DUP2 SLOAD DUP2 LT PUSH2 0x1F1D JUMPI PUSH2 0x1F1D PUSH2 0x47AC JUMP JUMPDEST PUSH1 0x0 SWAP2 DUP3 MSTORE PUSH1 0x20 SWAP2 DUP3 SWAP1 KECCAK256 PUSH1 0x40 DUP1 MLOAD PUSH1 0x60 DUP2 ADD DUP3 MSTORE PUSH1 0x2 SWAP4 DUP5 MUL SWAP1 SWAP3 ADD DUP1 SLOAD DUP1 DUP6 SIGNEXTEND DUP6 SIGNEXTEND DUP6 SIGNEXTEND DUP5 MSTORE PUSH4 0x1000000 SWAP1 DIV DUP5 SIGNEXTEND DUP5 SIGNEXTEND SWAP1 SWAP4 SIGNEXTEND SWAP4 DUP3 ADD SWAP4 SWAP1 SWAP4 MSTORE PUSH1 0x1 SWAP1 SWAP2 ADD SLOAD SWAP2 DUP2 ADD SWAP2 SWAP1 SWAP2 MSTORE PUSH2 0x10BA JUMP JUMPDEST SWAP3 POP SWAP3 POP SWAP3 POP SWAP2 SWAP4 SWAP1 SWAP3 POP JUMP JUMPDEST PUSH1 0x40 MLOAD PUSH4 0x24745215 PUSH1 0xE2 SHL DUP2 MSTORE PUSH1 0x0 DUP1 MLOAD PUSH1 0x20 PUSH2 0x47FF DUP4 CODECOPY DUP2 MLOAD SWAP2 MSTORE PUSH1 0x4 DUP3 ADD MSTORE CALLER PUSH1 0x24 DUP3 ADD MSTORE PUSH32 0x0 PUSH1 0x1 PUSH1 0x1 PUSH1 0xA0 SHL SUB AND SWAP1 PUSH4 0x91D14854 SWAP1 PUSH1 0x44 ADD PUSH1 0x20 PUSH1 0x40 MLOAD DUP1 DUP4 SUB DUP2 DUP7 DUP1 EXTCODESIZE ISZERO DUP1 ISZERO PUSH2 0x1FEC JUMPI PUSH1 0x0 DUP1 REVERT JUMPDEST POP GAS STATICCALL ISZERO DUP1 ISZERO PUSH2 0x2000 JUMPI RETURNDATASIZE PUSH1 0x0 DUP1 RETURNDATACOPY RETURNDATASIZE PUSH1 0x0 REVERT JUMPDEST POP POP POP POP PUSH1 0x40 MLOAD RETURNDATASIZE PUSH1 0x1F NOT PUSH1 0x1F DUP3 ADD AND DUP3 ADD DUP1 PUSH1 0x40 MSTORE POP DUP2 ADD SWAP1 PUSH2 0x2024 SWAP2 SWAP1 PUSH2 0x42A6 JUMP JUMPDEST PUSH2 0x2062 JUMPI PUSH1 0x40 MLOAD PUSH3 0x461BCD PUSH1 0xE5 SHL DUP2 MSTORE PUSH1 0x20 PUSH1 0x4 DUP3 ADD MSTORE PUSH1 0xF PUSH1 0x24 DUP3 ADD MSTORE PUSH15 0x27AB262B189D10B3B7BB32B93737B9 PUSH1 0x89 SHL PUSH1 0x44 DUP3 ADD MSTORE PUSH1 0x64 ADD PUSH2 0x96B JUMP JUMPDEST PUSH1 0x1 PUSH1 0x1 PUSH1 0xA0 SHL SUB AND PUSH1 0x0 SWAP1 DUP2 MSTORE PUSH2 0x17D PUSH1 0x20 MSTORE PUSH1 0x40 SWAP1 KECCAK256 DUP1 SLOAD PUSH1 0xFF NOT AND PUSH1 0x1 OR SWAP1 SSTORE JUMP JUMPDEST PUSH1 0x2 DUP2 PUSH1 0x3C DUP2 LT PUSH2 0xF2F JUMPI PUSH1 0x0 DUP1 REVERT JUMPDEST PUSH2 0x16C DUP2 PUSH1 0x2 DUP2 LT PUSH2 0x20A8 JUMPI PUSH1 0x0 DUP1 REVERT JUMPDEST ADD SLOAD SWAP1 POP DUP2 JUMP JUMPDEST PUSH1 0x0 DUP1 PUSH2 0x20BC DUP4 DUP6 PUSH2 0x46D2 JUMP JUMPDEST SWAP1 POP PUSH4 0xFFFFFFFF DUP2 AND PUSH2 0x20F6 JUMPI PUSH1 0x40 MLOAD PUSH3 0x461BCD PUSH1 0xE5 SHL DUP2 MSTORE PUSH1 0x20 PUSH1 0x4 DUP3 ADD MSTORE PUSH1 0x2 PUSH1 0x24 DUP3 ADD MSTORE PUSH2 0x425 PUSH1 0xF4 SHL PUSH1 0x44 DUP3 ADD MSTORE PUSH1 0x64 ADD PUSH2 0x96B JUMP JUMPDEST PUSH1 0x40 DUP1 MLOAD PUSH1 0x2 DUP1 DUP3 MSTORE PUSH1 0x60 DUP3 ADD DUP4 MSTORE PUSH1 0x0 SWAP3 PUSH1 0x20 DUP4 ADD SWAP1 DUP1 CALLDATASIZE DUP4 CALLDATACOPY ADD SWAP1 POP POP SWAP1 POP DUP5 DUP2 PUSH1 0x0 DUP2 MLOAD DUP2 LT PUSH2 0x212B JUMPI PUSH2 0x212B PUSH2 0x47AC JUMP JUMPDEST PUSH1 0x20 MUL PUSH1 0x20 ADD ADD SWAP1 PUSH4 0xFFFFFFFF AND SWAP1 DUP2 PUSH4 0xFFFFFFFF AND DUP2 MSTORE POP POP DUP4 DUP2 PUSH1 0x1 DUP2 MLOAD DUP2 LT PUSH2 0x2159 JUMPI PUSH2 0x2159 PUSH2 0x47AC JUMP JUMPDEST PUSH4 0xFFFFFFFF SWAP1 SWAP3 AND PUSH1 0x20 SWAP3 DUP4 MUL SWAP2 SWAP1 SWAP2 ADD SWAP1 SWAP2 ADD MSTORE PUSH1 0x40 MLOAD PUSH4 0x883BDBFD PUSH1 0xE0 SHL DUP2 MSTORE PUSH1 0x0 SWAP1 PUSH1 0x1 PUSH1 0x1 PUSH1 0xA0 SHL SUB DUP9 AND SWAP1 PUSH4 0x883BDBFD SWAP1 PUSH2 0x219D SWAP1 DUP6 SWAP1 PUSH1 0x4 ADD PUSH2 0x44CF JUMP JUMPDEST PUSH1 0x0 PUSH1 0x40 MLOAD DUP1 DUP4 SUB DUP2 DUP7 DUP1 EXTCODESIZE ISZERO DUP1 ISZERO PUSH2 0x21B5 JUMPI PUSH1 0x0 DUP1 REVERT JUMPDEST POP GAS STATICCALL ISZERO DUP1 ISZERO PUSH2 0x21C9 JUMPI RETURNDATASIZE PUSH1 0x0 DUP1 RETURNDATACOPY RETURNDATASIZE PUSH1 0x0 REVERT JUMPDEST POP POP POP POP PUSH1 0x40 MLOAD RETURNDATASIZE PUSH1 0x0 DUP3 RETURNDATACOPY PUSH1 0x1F RETURNDATASIZE SWAP1 DUP2 ADD PUSH1 0x1F NOT AND DUP3 ADD PUSH1 0x40 MSTORE PUSH2 0x21F1 SWAP2 SWAP1 DUP2 ADD SWAP1 PUSH2 0x41DE JUMP JUMPDEST POP SWAP1 POP PUSH1 0x0 DUP2 PUSH1 0x0 DUP2 MLOAD DUP2 LT PUSH2 0x2209 JUMPI PUSH2 0x2209 PUSH2 0x47AC JUMP JUMPDEST PUSH1 0x20 MUL PUSH1 0x20 ADD ADD MLOAD DUP3 PUSH1 0x1 DUP2 MLOAD DUP2 LT PUSH2 0x2224 JUMPI PUSH2 0x2224 PUSH2 0x47AC JUMP JUMPDEST PUSH1 0x20 MUL PUSH1 0x20 ADD ADD MLOAD PUSH2 0x2236 SWAP2 SWAP1 PUSH2 0x4643 JUMP JUMPDEST SWAP1 POP PUSH2 0x2246 PUSH1 0x3 DUP6 SWAP1 SIGNEXTEND DUP3 PUSH2 0x45AC JUMP JUMPDEST SWAP5 POP PUSH1 0x0 DUP2 PUSH1 0x6 SIGNEXTEND SLT DUP1 ISZERO PUSH2 0x226A JUMPI POP PUSH2 0x2264 PUSH1 0x3 DUP6 SWAP1 SIGNEXTEND DUP3 PUSH2 0x4713 JUMP JUMPDEST PUSH1 0x6 SIGNEXTEND ISZERO ISZERO JUMPDEST ISZERO PUSH2 0x227D JUMPI DUP5 PUSH2 0x2279 DUP2 PUSH2 0x46EF JUMP JUMPDEST SWAP6 POP POP JUMPDEST POP POP POP POP SWAP4 SWAP3 POP POP POP JUMP JUMPDEST PUSH1 0x0 DUP1 PUSH2 0x2294 DUP7 PUSH2 0x2396 JUMP JUMPDEST SWAP1 POP PUSH1 0x1 PUSH1 0x1 PUSH1 0x80 SHL SUB PUSH1 0x1 PUSH1 0x1 PUSH1 0xA0 SHL SUB DUP3 AND GT PUSH2 0x231A JUMPI PUSH1 0x0 PUSH2 0x22C2 PUSH1 0x1 PUSH1 0x1 PUSH1 0xA0 SHL SUB DUP4 AND DUP1 PUSH2 0x4624 JUMP JUMPDEST SWAP1 POP DUP4 PUSH1 0x1 PUSH1 0x1 PUSH1 0xA0 SHL SUB AND DUP6 PUSH1 0x1 PUSH1 0x1 PUSH1 0xA0 SHL SUB AND LT PUSH2 0x22FA JUMPI PUSH2 0x22F5 PUSH1 0x1 PUSH1 0xC0 SHL DUP8 PUSH1 0x1 PUSH1 0x1 PUSH1 0x80 SHL SUB AND DUP4 PUSH2 0x27AD JUMP JUMPDEST PUSH2 0x2312 JUMP JUMPDEST PUSH2 0x2312 DUP2 DUP8 PUSH1 0x1 PUSH1 0x1 PUSH1 0x80 SHL SUB AND PUSH1 0x1 PUSH1 0xC0 SHL PUSH2 0x27AD JUMP JUMPDEST SWAP3 POP POP PUSH2 0x238D JUMP JUMPDEST PUSH1 0x0 PUSH2 0x2339 PUSH1 0x1 PUSH1 0x1 PUSH1 0xA0 SHL SUB DUP4 AND DUP1 PUSH9 0x10000000000000000 PUSH2 0x27AD JUMP JUMPDEST SWAP1 POP DUP4 PUSH1 0x1 PUSH1 0x1 PUSH1 0xA0 SHL SUB AND DUP6 PUSH1 0x1 PUSH1 0x1 PUSH1 0xA0 SHL SUB AND LT PUSH2 0x2371 JUMPI PUSH2 0x236C PUSH1 0x1 PUSH1 0x80 SHL DUP8 PUSH1 0x1 PUSH1 0x1 PUSH1 0x80 SHL SUB AND DUP4 PUSH2 0x27AD JUMP JUMPDEST PUSH2 0x2389 JUMP JUMPDEST PUSH2 0x2389 DUP2 DUP8 PUSH1 0x1 PUSH1 0x1 PUSH1 0x80 SHL SUB AND PUSH1 0x1 PUSH1 0x80 SHL PUSH2 0x27AD JUMP JUMPDEST SWAP3 POP POP JUMPDEST POP SWAP5 SWAP4 POP POP POP POP JUMP JUMPDEST PUSH1 0x0 DUP1 PUSH1 0x0 DUP4 PUSH1 0x2 SIGNEXTEND SLT PUSH2 0x23AD JUMPI DUP3 PUSH1 0x2 SIGNEXTEND PUSH2 0x23BA JUMP JUMPDEST DUP3 PUSH1 0x2 SIGNEXTEND PUSH2 0x23BA SWAP1 PUSH2 0x4763 JUMP JUMPDEST SWAP1 POP PUSH2 0x23C9 PUSH3 0xD89E7 NOT PUSH2 0x4749 JUMP JUMPDEST PUSH3 0xFFFFFF AND DUP2 GT ISZERO PUSH2 0x2401 JUMPI PUSH1 0x40 MLOAD PUSH3 0x461BCD PUSH1 0xE5 SHL DUP2 MSTORE PUSH1 0x20 PUSH1 0x4 DUP3 ADD MSTORE PUSH1 0x1 PUSH1 0x24 DUP3 ADD MSTORE PUSH1 0x15 PUSH1 0xFA SHL PUSH1 0x44 DUP3 ADD MSTORE PUSH1 0x64 ADD PUSH2 0x96B JUMP JUMPDEST PUSH1 0x0 PUSH1 0x1 DUP3 AND PUSH2 0x2415 JUMPI PUSH1 0x1 PUSH1 0x80 SHL PUSH2 0x2427 JUMP JUMPDEST PUSH16 0xFFFCB933BD6FAD37AA2D162D1A594001 JUMPDEST PUSH17 0xFFFFFFFFFFFFFFFFFFFFFFFFFFFFFFFFFF AND SWAP1 POP PUSH1 0x2 DUP3 AND ISZERO PUSH2 0x2466 JUMPI PUSH1 0x80 PUSH2 0x2461 DUP3 PUSH16 0xFFF97272373D413259A46990580E213A PUSH2 0x4624 JUMP JUMPDEST SWAP1 SHR SWAP1 POP JUMPDEST PUSH1 0x4 DUP3 AND ISZERO PUSH2 0x2490 JUMPI PUSH1 0x80 PUSH2 0x248B DUP3 PUSH16 0xFFF2E50F5F656932EF12357CF3C7FDCC PUSH2 0x4624 JUMP JUMPDEST SWAP1 SHR SWAP1 POP JUMPDEST PUSH1 0x8 DUP3 AND ISZERO PUSH2 0x24BA JUMPI PUSH1 0x80 PUSH2 0x24B5 DUP3 PUSH16 0xFFE5CACA7E10E4E61C3624EAA0941CD0 PUSH2 0x4624 JUMP JUMPDEST SWAP1 SHR SWAP1 POP JUMPDEST PUSH1 0x10 DUP3 AND ISZERO PUSH2 0x24E4 JUMPI PUSH1 0x80 PUSH2 0x24DF DUP3 PUSH16 0xFFCB9843D60F6159C9DB58835C926644 PUSH2 0x4624 JUMP JUMPDEST SWAP1 SHR SWAP1 POP JUMPDEST PUSH1 0x20 DUP3 AND ISZERO PUSH2 0x250E JUMPI PUSH1 0x80 PUSH2 0x2509 DUP3 PUSH16 0xFF973B41FA98C081472E6896DFB254C0 PUSH2 0x4624 JUMP JUMPDEST SWAP1 SHR SWAP1 POP JUMPDEST PUSH1 0x40 DUP3 AND ISZERO PUSH2 0x2538 JUMPI PUSH1 0x80 PUSH2 0x2533 DUP3 PUSH16 0xFF2EA16466C96A3843EC78B326B52861 PUSH2 0x4624 JUMP JUMPDEST SWAP1 SHR SWAP1 POP JUMPDEST PUSH1 0x80 DUP3 AND ISZERO PUSH2 0x2562 JUMPI PUSH1 0x80 PUSH2 0x255D DUP3 PUSH16 0xFE5DEE046A99A2A811C461F1969C3053 PUSH2 0x4624 JUMP JUMPDEST SWAP1 SHR SWAP1 POP JUMPDEST PUSH2 0x100 DUP3 AND ISZERO PUSH2 0x258D JUMPI PUSH1 0x80 PUSH2 0x2588 DUP3 PUSH16 0xFCBE86C7900A88AEDCFFC83B479AA3A4 PUSH2 0x4624 JUMP JUMPDEST SWAP1 SHR SWAP1 POP JUMPDEST PUSH2 0x200 DUP3 AND ISZERO PUSH2 0x25B8 JUMPI PUSH1 0x80 PUSH2 0x25B3 DUP3 PUSH16 0xF987A7253AC413176F2B074CF7815E54 PUSH2 0x4624 JUMP JUMPDEST SWAP1 SHR SWAP1 POP JUMPDEST PUSH2 0x400 DUP3 AND ISZERO PUSH2 0x25E3 JUMPI PUSH1 0x80 PUSH2 0x25DE DUP3 PUSH16 0xF3392B0822B70005940C7A398E4B70F3 PUSH2 0x4624 JUMP JUMPDEST SWAP1 SHR SWAP1 POP JUMPDEST PUSH2 0x800 DUP3 AND ISZERO PUSH2 0x260E JUMPI PUSH1 0x80 PUSH2 0x2609 DUP3 PUSH16 0xE7159475A2C29B7443B29C7FA6E889D9 PUSH2 0x4624 JUMP JUMPDEST SWAP1 SHR SWAP1 POP JUMPDEST PUSH2 0x1000 DUP3 AND ISZERO PUSH2 0x2639 JUMPI PUSH1 0x80 PUSH2 0x2634 DUP3 PUSH16 0xD097F3BDFD2022B8845AD8F792AA5825 PUSH2 0x4624 JUMP JUMPDEST SWAP1 SHR SWAP1 POP JUMPDEST PUSH2 0x2000 DUP3 AND ISZERO PUSH2 0x2664 JUMPI PUSH1 0x80 PUSH2 0x265F DUP3 PUSH16 0xA9F746462D870FDF8A65DC1F90E061E5 PUSH2 0x4624 JUMP JUMPDEST SWAP1 SHR SWAP1 POP JUMPDEST PUSH2 0x4000 DUP3 AND ISZERO PUSH2 0x268F JUMPI PUSH1 0x80 PUSH2 0x268A DUP3 PUSH16 0x70D869A156D2A1B890BB3DF62BAF32F7 PUSH2 0x4624 JUMP JUMPDEST SWAP1 SHR SWAP1 POP JUMPDEST PUSH2 0x8000 DUP3 AND ISZERO PUSH2 0x26BA JUMPI PUSH1 0x80 PUSH2 0x26B5 DUP3 PUSH16 0x31BE135F97D08FD981231505542FCFA6 PUSH2 0x4624 JUMP JUMPDEST SWAP1 SHR SWAP1 POP JUMPDEST PUSH3 0x10000 DUP3 AND ISZERO PUSH2 0x26E6 JUMPI PUSH1 0x80 PUSH2 0x26E1 DUP3 PUSH16 0x9AA508B5B7A84E1C677DE54F3E99BC9 PUSH2 0x4624 JUMP JUMPDEST SWAP1 SHR SWAP1 POP JUMPDEST PUSH3 0x20000 DUP3 AND ISZERO PUSH2 0x2711 JUMPI PUSH1 0x80 PUSH2 0x270C DUP3 PUSH15 0x5D6AF8DEDB81196699C329225EE604 PUSH2 0x4624 JUMP JUMPDEST SWAP1 SHR SWAP1 POP JUMPDEST PUSH3 0x40000 DUP3 AND ISZERO PUSH2 0x273B JUMPI PUSH1 0x80 PUSH2 0x2736 DUP3 PUSH14 0x2216E584F5FA1EA926041BEDFE98 PUSH2 0x4624 JUMP JUMPDEST SWAP1 SHR SWAP1 POP JUMPDEST PUSH3 0x80000 DUP3 AND ISZERO PUSH2 0x2763 JUMPI PUSH1 0x80 PUSH2 0x275E DUP3 PUSH12 0x48A170391F7DC42444E8FA2 PUSH2 0x4624 JUMP JUMPDEST SWAP1 SHR SWAP1 POP JUMPDEST PUSH1 0x0 DUP5 PUSH1 0x2 SIGNEXTEND SGT ISZERO PUSH2 0x277E JUMPI PUSH2 0x277B DUP2 PUSH1 0x0 NOT PUSH2 0x4610 JUMP JUMPDEST SWAP1 POP JUMPDEST PUSH2 0x278D PUSH5 0x100000000 DUP3 PUSH2 0x4735 JUMP JUMPDEST ISZERO PUSH2 0x2799 JUMPI PUSH1 0x1 PUSH2 0x279C JUMP JUMPDEST PUSH1 0x0 JUMPDEST PUSH2 0x1C11 SWAP1 PUSH1 0xFF AND PUSH1 0x20 DUP4 SWAP1 SHR PUSH2 0x4594 JUMP JUMPDEST PUSH1 0x0 DUP1 DUP1 PUSH1 0x0 NOT DUP6 DUP8 MULMOD DUP6 DUP8 MUL SWAP3 POP DUP3 DUP2 LT DUP4 DUP3 SUB SUB SWAP2 POP POP DUP1 PUSH1 0x0 EQ ISZERO PUSH2 0x27E7 JUMPI PUSH1 0x0 DUP5 GT PUSH2 0x27DC JUMPI PUSH1 0x0 DUP1 REVERT JUMPDEST POP DUP3 SWAP1 DIV SWAP1 POP PUSH2 0xFC4 JUMP JUMPDEST DUP1 DUP5 GT PUSH2 0x27F3 JUMPI PUSH1 0x0 DUP1 REVERT JUMPDEST PUSH1 0x0 DUP5 DUP7 DUP9 MULMOD DUP1 DUP5 SUB SWAP4 DUP2 GT SWAP1 SWAP3 SUB SWAP2 SWAP1 POP PUSH1 0x0 DUP6 PUSH2 0x2811 DUP2 PUSH2 0x4763 JUMP JUMPDEST AND SWAP6 DUP7 SWAP1 DIV SWAP6 SWAP4 DUP5 SWAP1 DIV SWAP4 PUSH1 0x0 DUP2 SWAP1 SUB DIV PUSH1 0x1 ADD SWAP1 POP PUSH2 0x2831 DUP2 DUP5 PUSH2 0x4624 JUMP JUMPDEST SWAP1 SWAP4 OR SWAP3 PUSH1 0x0 PUSH2 0x2842 DUP8 PUSH1 0x3 PUSH2 0x4624 JUMP JUMPDEST PUSH1 0x2 XOR SWAP1 POP PUSH2 0x2851 DUP2 DUP9 PUSH2 0x4624 JUMP JUMPDEST PUSH2 0x285C SWAP1 PUSH1 0x2 PUSH2 0x46BB JUMP JUMPDEST PUSH2 0x2866 SWAP1 DUP3 PUSH2 0x4624 JUMP JUMPDEST SWAP1 POP PUSH2 0x2872 DUP2 DUP9 PUSH2 0x4624 JUMP JUMPDEST PUSH2 0x287D SWAP1 PUSH1 0x2 PUSH2 0x46BB JUMP JUMPDEST PUSH2 0x2887 SWAP1 DUP3 PUSH2 0x4624 JUMP JUMPDEST SWAP1 POP PUSH2 0x2893 DUP2 DUP9 PUSH2 0x4624 JUMP JUMPDEST PUSH2 0x289E SWAP1 PUSH1 0x2 PUSH2 0x46BB JUMP JUMPDEST PUSH2 0x28A8 SWAP1 DUP3 PUSH2 0x4624 JUMP JUMPDEST SWAP1 POP PUSH2 0x28B4 DUP2 DUP9 PUSH2 0x4624 JUMP JUMPDEST PUSH2 0x28BF SWAP1 PUSH1 0x2 PUSH2 0x46BB JUMP JUMPDEST PUSH2 0x28C9 SWAP1 DUP3 PUSH2 0x4624 JUMP JUMPDEST SWAP1 POP PUSH2 0x28D5 DUP2 DUP9 PUSH2 0x4624 JUMP JUMPDEST PUSH2 0x28E0 SWAP1 PUSH1 0x2 PUSH2 0x46BB JUMP JUMPDEST PUSH2 0x28EA SWAP1 DUP3 PUSH2 0x4624 JUMP JUMPDEST SWAP1 POP PUSH2 0x28F6 DUP2 DUP9 PUSH2 0x4624 JUMP JUMPDEST PUSH2 0x2901 SWAP1 PUSH1 0x2 PUSH2 0x46BB JUMP JUMPDEST PUSH2 0x290B SWAP1 DUP3 PUSH2 0x4624 JUMP JUMPDEST SWAP1 POP PUSH2 0x2279 DUP2 DUP7 PUSH2 0x4624 JUMP JUMPDEST PUSH1 0x0 DUP1 PUSH1 0x0 DUP1 PUSH2 0x2928 DUP8 DUP8 DUP8 PUSH2 0x3071 JUMP JUMPDEST SWAP3 POP SWAP3 POP SWAP3 POP PUSH2 0x293D PUSH1 0x2 DUP5 DUP5 PUSH1 0x0 SLOAD PUSH2 0x3194 JUMP JUMPDEST PUSH1 0x0 SSTORE PUSH2 0x294A DUP7 DUP3 PUSH2 0x2B16 JUMP JUMPDEST SWAP4 POP PUSH2 0x2957 PUSH1 0x0 DUP6 PUSH2 0x2F42 JUMP JUMPDEST POP POP POP SWAP4 SWAP3 POP POP POP JUMP JUMPDEST PUSH1 0x0 DUP1 PUSH2 0x296E DUP4 DUP6 PUSH2 0x4624 JUMP JUMPDEST SWAP1 POP PUSH2 0x298F DUP5 ISZERO DUP1 PUSH2 0x2988 JUMPI POP DUP4 PUSH2 0x2986 DUP7 DUP5 PUSH2 0x4610 JUMP JUMPDEST EQ JUMPDEST PUSH1 0x3 PUSH2 0x323F JUMP JUMPDEST PUSH2 0x29A1 PUSH8 0xDE0B6B3A7640000 DUP3 PUSH2 0x4610 JUMP JUMPDEST SWAP2 POP POP JUMPDEST SWAP3 SWAP2 POP POP JUMP JUMPDEST DUP3 ISZERO PUSH2 0x2A23 JUMPI DUP2 PUSH2 0x176 PUSH1 0x0 DUP3 DUP3 SLOAD PUSH2 0x29C4 SWAP2 SWAP1 PUSH2 0x4594 JUMP JUMPDEST SWAP1 SWAP2 SSTORE POP POP PUSH2 0x174 SLOAD PUSH1 0x0 SWAP1 PUSH2 0x29DB SWAP1 DUP5 SWAP1 PUSH2 0x4594 JUMP JUMPDEST SWAP1 POP DUP2 DUP2 GT ISZERO PUSH2 0x2A1A JUMPI PUSH1 0x40 MLOAD PUSH3 0x461BCD PUSH1 0xE5 SHL DUP2 MSTORE PUSH1 0x20 PUSH1 0x4 DUP3 ADD MSTORE PUSH1 0xA PUSH1 0x24 DUP3 ADD MSTORE PUSH10 0x4F564C56313A3E63617 PUSH1 0xB4 SHL PUSH1 0x44 DUP3 ADD MSTORE PUSH1 0x64 ADD PUSH2 0x96B JUMP JUMPDEST PUSH2 0x174 SSTORE POP POP POP JUMP JUMPDEST DUP2 PUSH2 0x177 PUSH1 0x0 DUP3 DUP3 SLOAD PUSH2 0x2A36 SWAP2 SWAP1 PUSH2 0x4594 JUMP JUMPDEST SWAP1 SWAP2 SSTORE POP POP PUSH2 0x175 SLOAD PUSH1 0x0 SWAP1 PUSH2 0x2A4D SWAP1 DUP5 SWAP1 PUSH2 0x4594 JUMP JUMPDEST SWAP1 POP DUP2 DUP2 GT ISZERO PUSH2 0x2A8C JUMPI PUSH1 0x40 MLOAD PUSH3 0x461BCD PUSH1 0xE5 SHL DUP2 MSTORE PUSH1 0x20 PUSH1 0x4 DUP3 ADD MSTORE PUSH1 0xA PUSH1 0x24 DUP3 ADD MSTORE PUSH10 0x4F564C56313A3E63617 PUSH1 0xB4 SHL PUSH1 0x44 DUP3 ADD MSTORE PUSH1 0x64 ADD PUSH2 0x96B JUMP JUMPDEST PUSH2 0x175 SSTORE POP POP POP JUMP JUMPDEST PUSH1 0x0 DUP3 PUSH8 0xDE0B6B3A7640000 EQ DUP1 PUSH2 0x2AAB JUMPI POP DUP2 ISZERO JUMPDEST ISZERO PUSH2 0x2ABF JUMPI POP PUSH8 0xDE0B6B3A7640000 PUSH2 0x29A5 JUMP JUMPDEST PUSH1 0x0 PUSH2 0x2ACB DUP5 DUP5 PUSH2 0x3251 JUMP JUMPDEST SWAP1 POP PUSH1 0x0 PUSH2 0x2AE5 PUSH2 0x2ADE DUP4 PUSH2 0x2710 PUSH2 0x2B16 JUMP JUMPDEST PUSH1 0x1 PUSH2 0x3331 JUMP JUMPDEST SWAP1 POP PUSH2 0x2AF1 DUP3 DUP3 PUSH2 0x3331 JUMP JUMPDEST SWAP6 SWAP5 POP POP POP POP POP JUMP JUMPDEST PUSH1 0x0 PUSH2 0x2B0A DUP4 DUP4 GT ISZERO PUSH1 0x1 PUSH2 0x323F JUMP JUMPDEST PUSH1 0x0 PUSH2 0x29A1 DUP4 DUP6 PUSH2 0x46BB JUMP JUMPDEST PUSH1 0x0 DUP1 PUSH2 0x2B23 DUP4 DUP6 PUSH2 0x4624 JUMP JUMPDEST SWAP1 POP PUSH2 0x2B3B DUP5 ISZERO DUP1 PUSH2 0x2988 JUMPI POP DUP4 PUSH2 0x2986 DUP7 DUP5 PUSH2 0x4610 JUMP JUMPDEST DUP1 PUSH2 0x2B4A JUMPI PUSH1 0x0 SWAP2 POP POP PUSH2 0x29A5 JUMP JUMPDEST PUSH8 0xDE0B6B3A7640000 PUSH2 0x2B5E PUSH1 0x1 DUP4 PUSH2 0x46BB JUMP JUMPDEST PUSH2 0x2B68 SWAP2 SWAP1 PUSH2 0x4610 JUMP JUMPDEST PUSH2 0x2B73 SWAP1 PUSH1 0x1 PUSH2 0x4594 JUMP JUMPDEST SWAP2 POP POP PUSH2 0x29A5 JUMP JUMPDEST PUSH1 0x0 DUP1 PUSH1 0x0 PUSH2 0x2B89 DUP5 PUSH2 0x1F01 JUMP JUMPDEST POP SWAP2 POP SWAP2 POP PUSH1 0x0 DUP1 PUSH2 0x2B99 PUSH2 0xAF6 JUMP JUMPDEST POP SWAP2 POP SWAP2 POP DUP7 PUSH2 0x2BB2 JUMPI PUSH2 0x2BAD DUP2 DUP6 PUSH2 0x334E JUMP JUMPDEST PUSH2 0xD60 JUMP JUMPDEST PUSH2 0xD60 PUSH2 0x2BBF DUP4 DUP6 PUSH2 0x2CDA JUMP JUMPDEST PUSH32 0x0 PUSH2 0x2D7E JUMP JUMPDEST PUSH1 0x0 PUSH2 0x2C0B PUSH1 0x40 MLOAD DUP1 PUSH1 0x60 ADD PUSH1 0x40 MSTORE DUP1 PUSH1 0x0 DUP2 MSTORE PUSH1 0x20 ADD PUSH1 0x0 DUP2 MSTORE PUSH1 0x20 ADD PUSH1 0x0 DUP2 MSTORE POP SWAP1 JUMP JUMPDEST PUSH2 0x2C2F PUSH1 0x40 MLOAD DUP1 PUSH1 0x60 ADD PUSH1 0x40 MSTORE DUP1 PUSH1 0x0 DUP2 MSTORE PUSH1 0x20 ADD PUSH1 0x0 DUP2 MSTORE PUSH1 0x20 ADD PUSH1 0x0 DUP2 MSTORE POP SWAP1 JUMP JUMPDEST TIMESTAMP DUP7 DUP7 PUSH1 0x3C DUP2 LT PUSH2 0x2C42 JUMPI PUSH2 0x2C42 PUSH2 0x47AC JUMP JUMPDEST PUSH1 0x3 MUL ADD PUSH1 0x40 MLOAD DUP1 PUSH1 0x60 ADD PUSH1 0x40 MSTORE SWAP1 DUP2 PUSH1 0x0 DUP3 ADD SLOAD DUP2 MSTORE PUSH1 0x20 ADD PUSH1 0x1 DUP3 ADD SLOAD DUP2 MSTORE PUSH1 0x20 ADD PUSH1 0x2 DUP3 ADD SLOAD DUP2 MSTORE POP POP SWAP3 POP DUP3 PUSH1 0x0 ADD MLOAD SWAP4 POP PUSH1 0x0 DUP6 DUP3 PUSH2 0x2C86 SWAP2 SWAP1 PUSH2 0x46BB JUMP JUMPDEST SWAP1 POP DUP1 DUP5 PUSH1 0x0 ADD MLOAD GT PUSH2 0x2CAF JUMPI POP DUP3 MSTORE PUSH1 0x20 DUP1 DUP4 ADD MLOAD SWAP1 DUP3 ADD MSTORE PUSH1 0x40 DUP1 DUP4 ADD MLOAD SWAP1 DUP3 ADD MSTORE PUSH2 0x2CD1 JUMP JUMPDEST DUP4 MLOAD DUP3 EQ PUSH2 0x2CBB JUMPI DUP2 DUP5 MSTORE JUMPDEST PUSH1 0x0 DUP1 PUSH2 0x2CC9 DUP11 DUP11 DUP6 PUSH2 0x33A2 JUMP JUMPDEST POP SWAP5 POP POP POP POP POP JUMPDEST SWAP4 POP SWAP4 POP SWAP4 SWAP1 POP JUMP JUMPDEST PUSH1 0x0 PUSH2 0x2CE9 DUP3 ISZERO ISZERO PUSH1 0x4 PUSH2 0x323F JUMP JUMPDEST DUP3 PUSH2 0x2CF6 JUMPI POP PUSH1 0x0 PUSH2 0x29A5 JUMP JUMPDEST PUSH1 0x0 PUSH2 0x2D0A PUSH8 0xDE0B6B3A7640000 DUP6 PUSH2 0x4624 JUMP JUMPDEST SWAP1 POP PUSH2 0x2D2A PUSH8 0xDE0B6B3A7640000 PUSH2 0x2D22 DUP7 DUP5 PUSH2 0x4610 JUMP JUMPDEST EQ PUSH1 0x5 PUSH2 0x323F JUMP JUMPDEST PUSH2 0x2B73 DUP4 DUP3 PUSH2 0x4610 JUMP JUMPDEST PUSH2 0x174 SLOAD PUSH2 0x175 SLOAD PUSH2 0x176 SLOAD PUSH2 0x177 SLOAD DUP5 ISZERO PUSH2 0x2D60 JUMPI PUSH2 0x2D59 DUP5 DUP5 DUP8 PUSH2 0x178 SLOAD PUSH2 0x3514 JUMP JUMPDEST POP SWAP1 SWAP5 POP SWAP3 POP JUMPDEST SWAP2 SWAP4 POP SWAP2 SWAP4 JUMP JUMPDEST PUSH1 0x0 DUP2 DUP4 LT ISZERO PUSH2 0x2D77 JUMPI DUP2 PUSH2 0xFC4 JUMP JUMPDEST POP SWAP1 SWAP2 SWAP1 POP JUMP JUMPDEST PUSH1 0x0 DUP2 DUP4 LT PUSH2 0x2D77 JUMPI DUP2 PUSH2 0xFC4 JUMP JUMPDEST PUSH2 0x17B DUP1 SLOAD PUSH1 0x1 DUP2 ADD DUP3 SSTORE PUSH1 0x0 SWAP2 DUP3 MSTORE DUP3 MLOAD PUSH1 0x2 SWAP2 DUP3 MUL PUSH32 0x46985247FAC81B794ADA23F07CFEF771057CF55C53A3D12054BCB524935683D7 DUP2 ADD DUP1 SLOAD PUSH1 0x20 DUP8 ADD MLOAD DUP6 SIGNEXTEND PUSH3 0xFFFFFF SWAP1 DUP2 AND PUSH4 0x1000000 MUL PUSH6 0xFFFFFFFFFFFF NOT SWAP1 SWAP3 AND SWAP5 SWAP1 SWAP6 SIGNEXTEND SWAP1 SWAP5 AND SWAP3 SWAP1 SWAP3 OR SWAP3 SWAP1 SWAP3 OR SWAP1 SSTORE PUSH1 0x40 DUP4 ADD MLOAD PUSH32 0x46985247FAC81B794ADA23F07CFEF771057CF55C53A3D12054BCB524935683D8 SWAP1 SWAP2 ADD SSTORE DUP1 DUP1 PUSH2 0x2E2E DUP5 PUSH2 0x10BA JUMP JUMPDEST PUSH1 0x40 DUP1 MLOAD DUP5 DUP2 MSTORE PUSH1 0x20 DUP2 ADD DUP5 SWAP1 MSTORE SWAP1 DUP2 ADD DUP3 SWAP1 MSTORE SWAP3 SWAP6 POP SWAP1 SWAP4 POP SWAP2 POP PUSH32 0x8371B63C1831915158CDB0BBB5E03EB9C0188DC41AAA16C5AB3598B538A23D20 SWAP1 PUSH1 0x60 ADD PUSH1 0x40 MLOAD DUP1 SWAP2 SUB SWAP1 LOG1 POP POP POP POP JUMP JUMPDEST PUSH1 0x0 DUP1 PUSH1 0x0 PUSH2 0x2E94 PUSH2 0x174 SLOAD PUSH2 0x175 SLOAD DUP7 DUP9 PUSH2 0x3514 JUMP JUMPDEST PUSH2 0x174 DUP4 SWAP1 SSTORE PUSH2 0x175 DUP3 SWAP1 SSTORE PUSH1 0x40 DUP1 MLOAD DUP5 DUP2 MSTORE PUSH1 0x20 DUP2 ADD DUP5 SWAP1 MSTORE SWAP1 DUP2 ADD DUP3 SWAP1 MSTORE SWAP1 SWAP6 POP SWAP2 SWAP4 POP SWAP2 POP PUSH32 0xBD9B2EB2E69E8D71702753E645D1FBCDA9B8473629152F5A3CBC18BC2CEECC2F SWAP1 PUSH1 0x60 ADD PUSH1 0x40 MLOAD DUP1 SWAP2 SUB SWAP1 LOG1 POP POP SWAP3 SWAP2 POP POP JUMP JUMPDEST PUSH1 0x0 DUP6 ISZERO PUSH2 0x2F38 JUMPI PUSH1 0x0 PUSH2 0x2F1B DUP6 PUSH2 0x2F09 DUP7 DUP7 PUSH2 0x2CDA JUMP JUMPDEST PUSH2 0x112B SWAP1 PUSH8 0x1BC16D674EC80000 PUSH2 0x46BB JUMP JUMPDEST SWAP1 POP PUSH2 0x2F30 DUP6 PUSH2 0x2F2B DUP4 DUP10 PUSH2 0x2D7E JUMP JUMPDEST PUSH2 0x2D7E JUMP JUMPDEST SWAP2 POP POP PUSH2 0x2AF1 JUMP JUMPDEST PUSH2 0xF15 DUP5 DUP7 PUSH2 0x2D7E JUMP JUMPDEST PUSH2 0x171 SLOAD TIMESTAMP SWAP1 DUP1 DUP3 GT ISZERO PUSH2 0x3033 JUMPI PUSH1 0x1 SLOAD PUSH1 0x0 PUSH1 0xB6 DUP3 PUSH1 0x3C DUP2 LT PUSH2 0x2F68 JUMPI PUSH2 0x2F68 PUSH2 0x47AC JUMP JUMPDEST PUSH1 0x40 DUP1 MLOAD PUSH1 0x60 DUP2 ADD DUP3 MSTORE PUSH1 0x3 SWAP3 SWAP1 SWAP3 MUL SWAP3 SWAP1 SWAP3 ADD DUP1 SLOAD PUSH1 0x1 DUP3 ADD SLOAD PUSH1 0x20 DUP5 ADD DUP2 DUP2 MSTORE PUSH1 0x2 SWAP1 SWAP4 ADD SLOAD SWAP5 DUP5 ADD SWAP5 SWAP1 SWAP5 MSTORE DUP7 DUP4 MSTORE PUSH2 0x16C SLOAD SWAP3 SWAP5 POP SWAP3 PUSH2 0x2FAD SWAP1 DUP4 SWAP1 PUSH2 0x4594 JUMP JUMPDEST SWAP1 MSTORE POP PUSH2 0x16D SLOAD PUSH1 0x40 DUP4 ADD DUP1 MLOAD PUSH2 0x2FC5 SWAP1 DUP4 SWAP1 PUSH2 0x4594 JUMP JUMPDEST SWAP1 MSTORE POP PUSH2 0x2FD5 PUSH1 0xB6 DUP4 DUP4 DUP7 PUSH2 0x3194 JUMP JUMPDEST PUSH1 0x1 SSTORE PUSH2 0x16C DUP8 SWAP1 SSTORE PUSH2 0x16D DUP7 SWAP1 SSTORE PUSH2 0x16E SLOAD DUP1 DUP1 PUSH2 0x2FF4 DUP8 DUP10 PUSH2 0x46BB JUMP JUMPDEST PUSH2 0x2FFE SWAP2 SWAP1 PUSH2 0x4610 JUMP JUMPDEST PUSH2 0x3008 SWAP2 SWAP1 PUSH2 0x4624 JUMP JUMPDEST PUSH2 0x3012 SWAP1 DUP3 PUSH2 0x4594 JUMP JUMPDEST PUSH2 0x171 PUSH1 0x0 DUP3 DUP3 SLOAD PUSH2 0x3024 SWAP2 SWAP1 PUSH2 0x4594 JUMP JUMPDEST SWAP1 SWAP2 SSTORE POP PUSH2 0x306B SWAP5 POP POP POP POP POP JUMP JUMPDEST DUP4 PUSH2 0x16C PUSH1 0x0 ADD PUSH1 0x0 DUP3 DUP3 SLOAD PUSH2 0x3049 SWAP2 SWAP1 PUSH2 0x4594 JUMP JUMPDEST SWAP1 SWAP2 SSTORE POP DUP4 SWAP1 POP PUSH2 0x16C PUSH1 0x1 ADD PUSH1 0x0 DUP3 DUP3 SLOAD PUSH2 0x3065 SWAP2 SWAP1 PUSH2 0x4594 JUMP JUMPDEST SWAP1 SWAP2 SSTORE POP POP JUMPDEST POP POP POP POP JUMP JUMPDEST PUSH2 0x3095 PUSH1 0x40 MLOAD DUP1 PUSH1 0x60 ADD PUSH1 0x40 MSTORE DUP1 PUSH1 0x0 DUP2 MSTORE PUSH1 0x20 ADD PUSH1 0x0 DUP2 MSTORE PUSH1 0x20 ADD PUSH1 0x0 DUP2 MSTORE POP SWAP1 JUMP JUMPDEST PUSH1 0x0 DUP1 PUSH1 0x0 DUP1 PUSH1 0x0 PUSH2 0x30CB PUSH1 0x2 PUSH1 0x0 SLOAD PUSH32 0x0 PUSH2 0x2BE5 JUMP JUMPDEST SWAP2 SWAP5 POP SWAP3 POP SWAP1 POP PUSH1 0x0 PUSH2 0x30DE DUP10 DUP10 PUSH2 0x2CDA JUMP JUMPDEST SWAP1 POP DUP10 ISZERO PUSH2 0x3100 JUMPI DUP1 DUP4 PUSH1 0x20 ADD DUP2 DUP2 MLOAD PUSH2 0x30F8 SWAP2 SWAP1 PUSH2 0x4594 JUMP JUMPDEST SWAP1 MSTORE POP PUSH2 0x3116 JUMP JUMPDEST DUP1 DUP4 PUSH1 0x40 ADD DUP2 DUP2 MLOAD PUSH2 0x3112 SWAP2 SWAP1 PUSH2 0x4594 JUMP JUMPDEST SWAP1 MSTORE POP JUMPDEST PUSH1 0x0 PUSH2 0x3157 DUP12 PUSH2 0x3139 JUMPI DUP4 PUSH1 0x40 ADD MLOAD DUP6 PUSH1 0x40 ADD MLOAD PUSH2 0x3134 SWAP2 SWAP1 PUSH2 0x46BB JUMP JUMPDEST PUSH2 0x314D JUMP JUMPDEST DUP4 PUSH1 0x20 ADD MLOAD DUP6 PUSH1 0x20 ADD MLOAD PUSH2 0x314D SWAP2 SWAP1 PUSH2 0x46BB JUMP JUMPDEST PUSH2 0x16B SLOAD SWAP1 PUSH2 0x2961 JUMP JUMPDEST SWAP1 POP DUP5 SWAP7 POP DUP4 SWAP8 POP DUP2 PUSH1 0x0 EQ ISZERO PUSH2 0x316F JUMPI PUSH1 0x0 PUSH2 0x3184 JUMP JUMPDEST PUSH2 0x3184 PUSH2 0xD45 PUSH8 0x51AF86713316A9A DUP4 PUSH2 0x2A95 JUMP JUMPDEST SWAP6 POP POP POP POP POP POP SWAP4 POP SWAP4 POP SWAP4 SWAP1 POP JUMP JUMPDEST DUP3 MLOAD PUSH1 0x0 SWAP1 DUP4 EQ PUSH2 0x31FE JUMPI PUSH2 0x31AA PUSH1 0x1 DUP4 PUSH2 0x4594 JUMP JUMPDEST SWAP2 POP PUSH1 0x3C DUP3 LT ISZERO PUSH2 0x31F2 JUMPI DUP4 DUP6 DUP4 PUSH1 0x3C DUP2 LT PUSH2 0x31C8 JUMPI PUSH2 0x31C8 PUSH2 0x47AC JUMP JUMPDEST PUSH1 0x3 MUL ADD PUSH1 0x0 DUP3 ADD MLOAD DUP2 PUSH1 0x0 ADD SSTORE PUSH1 0x20 DUP3 ADD MLOAD DUP2 PUSH1 0x1 ADD SSTORE PUSH1 0x40 DUP3 ADD MLOAD DUP2 PUSH1 0x2 ADD SSTORE SWAP1 POP POP PUSH2 0x3237 JUMP JUMPDEST PUSH1 0x0 SWAP2 POP DUP4 DUP6 DUP4 PUSH2 0x31C8 JUMP JUMPDEST DUP4 DUP6 DUP4 PUSH1 0x3C DUP2 LT PUSH2 0x3211 JUMPI PUSH2 0x3211 PUSH2 0x47AC JUMP JUMPDEST PUSH1 0x3 MUL ADD PUSH1 0x0 DUP3 ADD MLOAD DUP2 PUSH1 0x0 ADD SSTORE PUSH1 0x20 DUP3 ADD MLOAD DUP2 PUSH1 0x1 ADD SSTORE PUSH1 0x40 DUP3 ADD MLOAD DUP2 PUSH1 0x2 ADD SSTORE SWAP1 POP POP JUMPDEST POP SWAP4 SWAP3 POP POP POP JUMP JUMPDEST DUP2 PUSH2 0x324D JUMPI PUSH2 0x324D DUP2 PUSH2 0x3662 JUMP JUMPDEST POP POP JUMP JUMPDEST PUSH1 0x0 PUSH2 0x3264 PUSH1 0x1 PUSH1 0xFF SHL DUP5 LT PUSH1 0x6 PUSH2 0x323F JUMP JUMPDEST DUP3 PUSH2 0x328A PUSH24 0xBCE5086492111AEA88F4BB1CA6BCF584181EA8059F76532 DUP5 LT PUSH1 0x7 PUSH2 0x323F JUMP JUMPDEST DUP3 PUSH1 0x0 PUSH8 0xC7D713B49DA0000 DUP4 SGT DUP1 ISZERO PUSH2 0x32AB JUMPI POP PUSH8 0xF43FC2C04EE0000 DUP4 SLT JUMPDEST ISZERO PUSH2 0x32E2 JUMPI PUSH1 0x0 PUSH2 0x32BB DUP5 PUSH2 0x36B5 JUMP JUMPDEST SWAP1 POP PUSH8 0xDE0B6B3A7640000 DUP1 DUP3 SMOD DUP5 MUL SDIV DUP4 PUSH8 0xDE0B6B3A7640000 DUP4 SDIV MUL ADD SWAP2 POP POP PUSH2 0x32F0 JUMP JUMPDEST DUP2 PUSH2 0x32EC DUP5 PUSH2 0x37DD JUMP JUMPDEST MUL SWAP1 POP JUMPDEST PUSH8 0xDE0B6B3A7640000 SWAP1 SDIV PUSH2 0x3328 PUSH9 0x238FD42C5CF03FFFF NOT DUP3 SLT DUP1 ISZERO SWAP1 PUSH2 0x3321 JUMPI POP PUSH9 0x70C1CC73B00C80000 DUP3 SGT ISZERO JUMPDEST PUSH1 0x8 PUSH2 0x323F JUMP JUMPDEST PUSH2 0xF15 DUP2 PUSH2 0x3B88 JUMP JUMPDEST PUSH1 0x0 DUP1 PUSH2 0x333E DUP4 DUP6 PUSH2 0x4594 JUMP JUMPDEST SWAP1 POP PUSH2 0xFC4 DUP5 DUP3 LT ISZERO PUSH1 0x0 PUSH2 0x323F JUMP JUMPDEST PUSH1 0x0 PUSH2 0x335D DUP3 ISZERO ISZERO PUSH1 0x4 PUSH2 0x323F JUMP JUMPDEST DUP3 PUSH2 0x336A JUMPI POP PUSH1 0x0 PUSH2 0x29A5 JUMP JUMPDEST PUSH1 0x0 PUSH2 0x337E PUSH8 0xDE0B6B3A7640000 DUP6 PUSH2 0x4624 JUMP JUMPDEST SWAP1 POP PUSH2 0x3396 PUSH8 0xDE0B6B3A7640000 PUSH2 0x2D22 DUP7 DUP5 PUSH2 0x4610 JUMP JUMPDEST DUP3 PUSH2 0x2B5E PUSH1 0x1 DUP4 PUSH2 0x46BB JUMP JUMPDEST PUSH2 0x33C6 PUSH1 0x40 MLOAD DUP1 PUSH1 0x60 ADD PUSH1 0x40 MSTORE DUP1 PUSH1 0x0 DUP2 MSTORE PUSH1 0x20 ADD PUSH1 0x0 DUP2 MSTORE PUSH1 0x20 ADD PUSH1 0x0 DUP2 MSTORE POP SWAP1 JUMP JUMPDEST PUSH2 0x33EA PUSH1 0x40 MLOAD DUP1 PUSH1 0x60 ADD PUSH1 0x40 MSTORE DUP1 PUSH1 0x0 DUP2 MSTORE PUSH1 0x20 ADD PUSH1 0x0 DUP2 MSTORE PUSH1 0x20 ADD PUSH1 0x0 DUP2 MSTORE POP SWAP1 JUMP JUMPDEST DUP5 DUP5 PUSH1 0x3C DUP2 LT PUSH2 0x33FC JUMPI PUSH2 0x33FC PUSH2 0x47AC JUMP JUMPDEST PUSH1 0x3 MUL ADD PUSH1 0x40 MLOAD DUP1 PUSH1 0x60 ADD PUSH1 0x40 MSTORE SWAP1 DUP2 PUSH1 0x0 DUP3 ADD SLOAD DUP2 MSTORE PUSH1 0x20 ADD PUSH1 0x1 DUP3 ADD SLOAD DUP2 MSTORE PUSH1 0x20 ADD PUSH1 0x2 DUP3 ADD SLOAD DUP2 MSTORE POP POP SWAP2 POP DUP3 DUP3 PUSH1 0x0 ADD MLOAD GT PUSH2 0x3460 JUMPI DUP2 MLOAD DUP4 EQ ISZERO PUSH2 0x3444 JUMPI PUSH2 0x350C JUMP JUMPDEST TIMESTAMP DUP2 MSTORE PUSH1 0x20 DUP1 DUP4 ADD MLOAD SWAP1 DUP3 ADD MSTORE PUSH1 0x40 DUP1 DUP4 ADD MLOAD SWAP1 DUP3 ADD MSTORE PUSH2 0x350C JUMP JUMPDEST PUSH1 0x3C PUSH2 0x346D DUP6 PUSH1 0x1 PUSH2 0x4594 JUMP JUMPDEST PUSH2 0x3477 SWAP2 SWAP1 PUSH2 0x4735 JUMP JUMPDEST SWAP4 POP DUP5 DUP5 PUSH1 0x3C DUP2 LT PUSH2 0x348B JUMPI PUSH2 0x348B PUSH2 0x47AC JUMP JUMPDEST PUSH1 0x3 MUL ADD PUSH1 0x40 MLOAD DUP1 PUSH1 0x60 ADD PUSH1 0x40 MSTORE SWAP1 DUP2 PUSH1 0x0 DUP3 ADD SLOAD DUP2 MSTORE PUSH1 0x20 ADD PUSH1 0x1 DUP3 ADD SLOAD DUP2 MSTORE PUSH1 0x20 ADD PUSH1 0x2 DUP3 ADD SLOAD DUP2 MSTORE POP POP SWAP2 POP PUSH1 0x1 DUP3 PUSH1 0x0 ADD MLOAD GT PUSH2 0x34ED JUMPI PUSH1 0x40 DUP1 MLOAD PUSH1 0x60 DUP2 ADD DUP3 MSTORE DUP7 SLOAD DUP2 MSTORE PUSH1 0x1 DUP8 ADD SLOAD PUSH1 0x20 DUP3 ADD MSTORE PUSH1 0x2 DUP8 ADD SLOAD SWAP2 DUP2 ADD SWAP2 SWAP1 SWAP2 MSTORE SWAP2 POP JUMPDEST DUP2 MLOAD DUP4 GT PUSH2 0x34FC JUMPI POP DUP1 PUSH2 0x350C JUMP JUMPDEST PUSH2 0x3507 DUP6 DUP5 DUP7 PUSH2 0x3F6B JUMP JUMPDEST SWAP2 POP SWAP2 POP JUMPDEST SWAP4 POP SWAP4 SWAP2 POP POP JUMP JUMPDEST PUSH1 0x0 DUP1 DUP1 DUP7 ISZERO DUP1 ISZERO PUSH2 0x3524 JUMPI POP DUP6 ISZERO JUMPDEST ISZERO PUSH2 0x3537 JUMPI POP PUSH1 0x0 SWAP2 POP DUP2 SWAP1 POP DUP1 PUSH2 0x3658 JUMP JUMPDEST DUP5 PUSH2 0x354A JUMPI POP DUP6 SWAP2 POP DUP5 SWAP1 POP PUSH1 0x0 PUSH2 0x3658 JUMP JUMPDEST PUSH1 0x0 PUSH2 0x356C PUSH2 0xD45 PUSH2 0x3565 PUSH8 0xDE0B6B3A7640000 PUSH1 0x2 PUSH2 0x4624 JUMP JUMPDEST DUP8 SWAP1 PUSH2 0x2B16 JUMP JUMPDEST SWAP1 POP PUSH2 0x358A PUSH2 0x3583 DUP8 PUSH8 0xDE0B6B3A7640000 PUSH2 0x4624 JUMP JUMPDEST DUP3 SWAP1 PUSH2 0x2A95 JUMP JUMPDEST SWAP1 POP DUP8 DUP8 DUP1 DUP3 GT DUP1 ISZERO SWAP1 PUSH2 0x359C JUMPI SWAP1 SWAP2 SWAP1 JUMPDEST DUP2 PUSH2 0x35C2 JUMPI PUSH1 0x0 PUSH2 0x35AD DUP6 DUP6 PUSH2 0x2961 JUMP JUMPDEST SWAP1 POP PUSH2 0x35B9 DUP2 DUP6 PUSH2 0x46BB JUMP JUMPDEST SWAP6 POP SWAP3 POP PUSH2 0x3633 JUMP JUMPDEST PUSH1 0x0 PUSH2 0x35D8 PUSH2 0x35D1 DUP5 DUP7 PUSH2 0x46BB JUMP JUMPDEST DUP7 SWAP1 PUSH2 0x2961 JUMP JUMPDEST SWAP1 POP PUSH1 0x0 PUSH2 0x35E6 DUP5 DUP7 PUSH2 0x4594 JUMP JUMPDEST SWAP1 POP PUSH1 0x2 PUSH2 0x35F4 DUP6 DUP8 PUSH2 0x46BB JUMP JUMPDEST PUSH2 0x35FE SWAP2 SWAP1 PUSH2 0x4610 JUMP JUMPDEST SWAP7 POP PUSH1 0x2 PUSH2 0x360C DUP4 DUP4 PUSH2 0x4594 JUMP JUMPDEST PUSH2 0x3616 SWAP2 SWAP1 PUSH2 0x4610 JUMP JUMPDEST SWAP5 POP PUSH1 0x2 PUSH2 0x3624 DUP4 DUP4 PUSH2 0x46BB JUMP JUMPDEST PUSH2 0x362E SWAP2 SWAP1 PUSH2 0x4610 JUMP JUMPDEST SWAP4 POP POP POP JUMPDEST DUP1 PUSH2 0x3648 JUMPI DUP3 DUP3 PUSH2 0x3643 DUP8 PUSH2 0x4763 JUMP JUMPDEST PUSH2 0x364C JUMP JUMPDEST DUP2 DUP4 DUP7 JUMPDEST SWAP2 SWAP9 POP SWAP7 POP SWAP5 POP POP POP POP POP JUMPDEST SWAP5 POP SWAP5 POP SWAP5 SWAP2 POP POP JUMP JUMPDEST PUSH3 0x461BCD PUSH1 0xE5 SHL PUSH1 0x0 SWAP1 DUP2 MSTORE PUSH1 0x20 PUSH1 0x4 MSTORE PUSH1 0x7 PUSH1 0x24 MSTORE PUSH7 0x42414C23000030 PUSH1 0xA DUP1 DUP5 DIV DUP2 DUP2 MOD PUSH1 0x30 SWAP1 DUP2 ADD PUSH1 0x8 SHL SWAP6 DUP4 SWAP1 MOD SWAP6 SWAP1 SWAP6 ADD SWAP1 DUP3 SWAP1 DIV SWAP2 DUP3 MOD SWAP1 SWAP5 ADD PUSH1 0x10 SHL SWAP4 SWAP1 SWAP4 ADD ADD PUSH1 0xC8 SHL PUSH1 0x44 MSTORE PUSH1 0x64 SWAP1 REVERT JUMPDEST PUSH8 0xDE0B6B3A7640000 MUL PUSH1 0x0 DUP1 PUSH15 0xC097CE7BC90715B34B9F1000000000 DUP1 DUP5 ADD SWAP1 PUSH15 0xC097CE7BC90715B34B9F0FFFFFFFFF NOT DUP6 ADD MUL DUP2 PUSH2 0x36F7 JUMPI PUSH2 0x36F7 PUSH2 0x4796 JUMP JUMPDEST SDIV SWAP1 POP PUSH1 0x0 PUSH15 0xC097CE7BC90715B34B9F1000000000 DUP3 DUP1 MUL SDIV SWAP1 POP DUP2 DUP1 PUSH15 0xC097CE7BC90715B34B9F1000000000 DUP2 DUP5 MUL SDIV SWAP2 POP PUSH1 0x3 DUP3 SDIV ADD PUSH15 0xC097CE7BC90715B34B9F1000000000 DUP3 DUP5 MUL SDIV SWAP2 POP PUSH1 0x5 DUP3 SDIV ADD PUSH15 0xC097CE7BC90715B34B9F1000000000 DUP3 DUP5 MUL SDIV SWAP2 POP PUSH1 0x7 DUP3 SDIV ADD PUSH15 0xC097CE7BC90715B34B9F1000000000 DUP3 DUP5 MUL SDIV SWAP2 POP PUSH1 0x9 DUP3 SDIV ADD PUSH15 0xC097CE7BC90715B34B9F1000000000 DUP3 DUP5 MUL SDIV SWAP2 POP PUSH1 0xB DUP3 SDIV ADD PUSH15 0xC097CE7BC90715B34B9F1000000000 DUP3 DUP5 MUL SDIV SWAP2 POP PUSH1 0xD DUP3 SDIV ADD PUSH15 0xC097CE7BC90715B34B9F1000000000 DUP3 DUP5 MUL SDIV SWAP2 POP PUSH1 0xF DUP3 SDIV ADD PUSH1 0x2 MUL SWAP6 SWAP5 POP POP POP POP POP JUMP JUMPDEST PUSH1 0x0 PUSH8 0xDE0B6B3A7640000 DUP3 SLT ISZERO PUSH2 0x381F JUMPI PUSH2 0x3816 DUP3 PUSH15 0xC097CE7BC90715B34B9F1000000000 DUP2 PUSH2 0x3810 JUMPI PUSH2 0x3810 PUSH2 0x4796 JUMP JUMPDEST SDIV PUSH2 0x37DD JUMP JUMPDEST PUSH1 0x0 SUB SWAP3 SWAP2 POP POP JUMP JUMPDEST PUSH1 0x0 PUSH31 0x1600EF3172E58D2E933EC884FDE10064C63B5372D805E203C0000000000000 DUP4 SLT PUSH2 0x3870 JUMPI PUSH24 0x195E54C5DD42177F53A27172FA9EC630262827000000000 DUP4 SDIV SWAP3 POP PUSH9 0x6F05B59D3B2000000 ADD JUMPDEST PUSH20 0x11798004D755D3C8BC8E03204CF44619E000000 DUP4 SLT PUSH2 0x38A8 JUMPI PUSH12 0x1425982CF597CD205CEF7380 DUP4 SDIV SWAP3 POP PUSH9 0x3782DACE9D9000000 ADD JUMPDEST PUSH1 0x64 SWAP3 DUP4 MUL SWAP3 MUL PUSH15 0x1855144814A7FF805980FF0084000 DUP4 SLT PUSH2 0x38F0 JUMPI PUSH15 0x1855144814A7FF805980FF0084000 PUSH9 0x56BC75E2D63100000 DUP5 MUL SDIV SWAP3 POP PUSH9 0xAD78EBC5AC62000000 ADD JUMPDEST PUSH12 0x2DF0AB5A80A22C61AB5A700 DUP4 SLT PUSH2 0x392B JUMPI PUSH12 0x2DF0AB5A80A22C61AB5A700 PUSH9 0x56BC75E2D63100000 DUP5 MUL SDIV SWAP3 POP PUSH9 0x56BC75E2D631000000 ADD JUMPDEST PUSH10 0x3F1FCE3DA636EA5CF850 DUP4 SLT PUSH2 0x3962 JUMPI PUSH10 0x3F1FCE3DA636EA5CF850 PUSH9 0x56BC75E2D63100000 DUP5 MUL SDIV SWAP3 POP PUSH9 0x2B5E3AF16B18800000 ADD JUMPDEST PUSH10 0x127FA27722CC06CC5E2 DUP4 SLT PUSH2 0x3999 JUMPI PUSH10 0x127FA27722CC06CC5E2 PUSH9 0x56BC75E2D63100000 DUP5 MUL SDIV SWAP3 POP PUSH9 0x15AF1D78B58C400000 ADD JUMPDEST PUSH9 0x280E60114EDB805D03 DUP4 SLT PUSH2 0x39CE JUMPI PUSH9 0x280E60114EDB805D03 PUSH9 0x56BC75E2D63100000 DUP5 MUL SDIV SWAP3 POP PUSH9 0xAD78EBC5AC6200000 ADD JUMPDEST PUSH9 0xEBC5FB41746121110 DUP4 SLT PUSH2 0x39F9 JUMPI PUSH9 0xEBC5FB41746121110 PUSH9 0x56BC75E2D63100000 SWAP4 DUP5 MUL SDIV SWAP3 ADD JUMPDEST PUSH9 0x8F00F760A4B2DB55D DUP4 SLT PUSH2 0x3A2E JUMPI PUSH9 0x8F00F760A4B2DB55D PUSH9 0x56BC75E2D63100000 DUP5 MUL SDIV SWAP3 POP PUSH9 0x2B5E3AF16B1880000 ADD JUMPDEST PUSH9 0x6F5F1775788937937 DUP4 SLT PUSH2 0x3A63 JUMPI PUSH9 0x6F5F1775788937937 PUSH9 0x56BC75E2D63100000 DUP5 MUL SDIV SWAP3 POP PUSH9 0x15AF1D78B58C40000 ADD JUMPDEST PUSH9 0x6248F33704B286603 DUP4 SLT PUSH2 0x3A97 JUMPI PUSH9 0x6248F33704B286603 PUSH9 0x56BC75E2D63100000 DUP5 MUL SDIV SWAP3 POP PUSH8 0xAD78EBC5AC620000 ADD JUMPDEST PUSH9 0x5C548670B9510E7AC DUP4 SLT PUSH2 0x3ACB JUMPI PUSH9 0x5C548670B9510E7AC PUSH9 0x56BC75E2D63100000 DUP5 MUL SDIV SWAP3 POP PUSH8 0x56BC75E2D6310000 ADD JUMPDEST PUSH1 0x0 PUSH9 0x56BC75E2D63100000 DUP5 ADD PUSH9 0x56BC75E2D63100000 DUP1 DUP7 SUB MUL DUP2 PUSH2 0x3AF4 JUMPI PUSH2 0x3AF4 PUSH2 0x4796 JUMP JUMPDEST SDIV SWAP1 POP PUSH1 0x0 PUSH9 0x56BC75E2D63100000 DUP3 DUP1 MUL SDIV SWAP1 POP DUP2 DUP1 PUSH9 0x56BC75E2D63100000 DUP2 DUP5 MUL SDIV SWAP2 POP PUSH1 0x3 DUP3 SDIV ADD PUSH9 0x56BC75E2D63100000 DUP3 DUP5 MUL SDIV SWAP2 POP PUSH1 0x5 DUP3 SDIV ADD PUSH9 0x56BC75E2D63100000 DUP3 DUP5 MUL SDIV SWAP2 POP PUSH1 0x7 DUP3 SDIV ADD PUSH9 0x56BC75E2D63100000 DUP3 DUP5 MUL SDIV SWAP2 POP PUSH1 0x9 DUP3 SDIV ADD PUSH9 0x56BC75E2D63100000 DUP3 DUP5 MUL SDIV SWAP2 POP PUSH1 0xB DUP3 SDIV ADD PUSH1 0x2 MUL PUSH1 0x64 DUP6 DUP3 ADD SDIV SWAP8 SWAP7 POP POP POP POP POP POP POP JUMP JUMPDEST PUSH1 0x0 PUSH2 0x3BB7 PUSH9 0x238FD42C5CF03FFFF NOT DUP4 SLT ISZERO DUP1 ISZERO PUSH2 0x3BB0 JUMPI POP PUSH9 0x70C1CC73B00C80000 DUP4 SGT ISZERO JUMPDEST PUSH1 0x9 PUSH2 0x323F JUMP JUMPDEST PUSH1 0x0 DUP3 SLT ISZERO PUSH2 0x3BF0 JUMPI PUSH2 0x3BCC DUP3 PUSH1 0x0 SUB PUSH2 0x3B88 JUMP JUMPDEST PUSH15 0xC097CE7BC90715B34B9F1000000000 DUP2 PUSH2 0x3BE9 JUMPI PUSH2 0x3BE9 PUSH2 0x4796 JUMP JUMPDEST SDIV SWAP3 SWAP2 POP POP JUMP JUMPDEST PUSH1 0x0 PUSH9 0x6F05B59D3B2000000 DUP4 SLT PUSH2 0x3C30 JUMPI POP PUSH9 0x6F05B59D3B1FFFFFF NOT SWAP1 SWAP2 ADD SWAP1 PUSH24 0x195E54C5DD42177F53A27172FA9EC630262827000000000 PUSH2 0x3C66 JUMP JUMPDEST PUSH9 0x3782DACE9D9000000 DUP4 SLT PUSH2 0x3C62 JUMPI POP PUSH9 0x3782DACE9D8FFFFFF NOT SWAP1 SWAP2 ADD SWAP1 PUSH12 0x1425982CF597CD205CEF7380 PUSH2 0x3C66 JUMP JUMPDEST POP PUSH1 0x1 JUMPDEST PUSH1 0x64 SWAP3 SWAP1 SWAP3 MUL SWAP2 PUSH9 0x56BC75E2D63100000 PUSH9 0xAD78EBC5AC62000000 DUP5 SLT PUSH2 0x3CB6 JUMPI PUSH9 0xAD78EBC5AC61FFFFFF NOT SWAP1 SWAP4 ADD SWAP3 PUSH9 0x56BC75E2D63100000 PUSH15 0x1855144814A7FF805980FF0084000 DUP3 MUL SDIV SWAP1 POP JUMPDEST PUSH9 0x56BC75E2D631000000 DUP5 SLT PUSH2 0x3CF2 JUMPI PUSH9 0x56BC75E2D630FFFFFF NOT SWAP1 SWAP4 ADD SWAP3 PUSH9 0x56BC75E2D63100000 PUSH12 0x2DF0AB5A80A22C61AB5A700 DUP3 MUL SDIV SWAP1 POP JUMPDEST PUSH9 0x2B5E3AF16B18800000 DUP5 SLT PUSH2 0x3D2C JUMPI PUSH9 0x2B5E3AF16B187FFFFF NOT SWAP1 SWAP4 ADD SWAP3 PUSH9 0x56BC75E2D63100000 PUSH10 0x3F1FCE3DA636EA5CF850 DUP3 MUL SDIV SWAP1 POP JUMPDEST PUSH9 0x15AF1D78B58C400000 DUP5 SLT PUSH2 0x3D66 JUMPI PUSH9 0x15AF1D78B58C3FFFFF NOT SWAP1 SWAP4 ADD SWAP3 PUSH9 0x56BC75E2D63100000 PUSH10 0x127FA27722CC06CC5E2 DUP3 MUL SDIV SWAP1 POP JUMPDEST PUSH9 0xAD78EBC5AC6200000 DUP5 SLT PUSH2 0x3D9F JUMPI PUSH9 0xAD78EBC5AC61FFFFF NOT SWAP1 SWAP4 ADD SWAP3 PUSH9 0x56BC75E2D63100000 PUSH9 0x280E60114EDB805D03 DUP3 MUL SDIV SWAP1 POP JUMPDEST PUSH9 0x56BC75E2D63100000 DUP5 SLT PUSH2 0x3DD8 JUMPI PUSH9 0x56BC75E2D630FFFFF NOT SWAP1 SWAP4 ADD SWAP3 PUSH9 0x56BC75E2D63100000 PUSH9 0xEBC5FB41746121110 DUP3 MUL SDIV SWAP1 POP JUMPDEST PUSH9 0x2B5E3AF16B1880000 DUP5 SLT PUSH2 0x3E11 JUMPI PUSH9 0x2B5E3AF16B187FFFF NOT SWAP1 SWAP4 ADD SWAP3 PUSH9 0x56BC75E2D63100000 PUSH9 0x8F00F760A4B2DB55D DUP3 MUL SDIV SWAP1 POP JUMPDEST PUSH9 0x15AF1D78B58C40000 DUP5 SLT PUSH2 0x3E4A JUMPI PUSH9 0x15AF1D78B58C3FFFF NOT SWAP1 SWAP4 ADD SWAP3 PUSH9 0x56BC75E2D63100000 PUSH9 0x6F5F1775788937937 DUP3 MUL SDIV SWAP1 POP JUMPDEST PUSH9 0x56BC75E2D63100000 DUP5 DUP2 ADD SWAP1 DUP6 SWAP1 PUSH1 0x2 SWAP1 DUP3 DUP1 MUL SDIV SDIV SWAP2 DUP3 ADD SWAP2 SWAP1 POP PUSH1 0x3 PUSH9 0x56BC75E2D63100000 DUP8 DUP4 MUL SDIV SDIV SWAP2 DUP3 ADD SWAP2 SWAP1 POP PUSH1 0x4 PUSH9 0x56BC75E2D63100000 DUP8 DUP4 MUL SDIV SDIV SWAP2 DUP3 ADD SWAP2 SWAP1 POP PUSH1 0x5 PUSH9 0x56BC75E2D63100000 DUP8 DUP4 MUL SDIV SDIV SWAP2 DUP3 ADD SWAP2 SWAP1 POP PUSH1 0x6 PUSH9 0x56BC75E2D63100000 DUP8 DUP4 MUL SDIV SDIV SWAP2 DUP3 ADD SWAP2 SWAP1 POP PUSH1 0x7 PUSH9 0x56BC75E2D63100000 DUP8 DUP4 MUL SDIV SDIV SWAP2 DUP3 ADD SWAP2 SWAP1 POP PUSH1 0x8 PUSH9 0x56BC75E2D63100000 DUP8 DUP4 MUL SDIV SDIV SWAP2 DUP3 ADD SWAP2 SWAP1 POP PUSH1 0x9 PUSH9 0x56BC75E2D63100000 DUP8 DUP4 MUL SDIV SDIV SWAP2 DUP3 ADD SWAP2 SWAP1 POP PUSH1 0xA PUSH9 0x56BC75E2D63100000 DUP8 DUP4 MUL SDIV SDIV SWAP2 DUP3 ADD SWAP2 SWAP1 POP PUSH1 0xB PUSH9 0x56BC75E2D63100000 DUP8 DUP4 MUL SDIV SDIV SWAP2 DUP3 ADD SWAP2 SWAP1 POP PUSH1 0xC PUSH9 0x56BC75E2D63100000 DUP8 DUP4 MUL SDIV SDIV SWAP2 DUP3 ADD SWAP2 SWAP1 POP PUSH1 0x64 PUSH9 0x56BC75E2D63100000 DUP5 DUP5 MUL SDIV DUP6 MUL SDIV SWAP7 SWAP6 POP POP POP POP POP POP JUMP JUMPDEST PUSH2 0x3F8F PUSH1 0x40 MLOAD DUP1 PUSH1 0x60 ADD PUSH1 0x40 MSTORE DUP1 PUSH1 0x0 DUP2 MSTORE PUSH1 0x20 ADD PUSH1 0x0 DUP2 MSTORE PUSH1 0x20 ADD PUSH1 0x0 DUP2 MSTORE POP SWAP1 JUMP JUMPDEST PUSH2 0x3FB3 PUSH1 0x40 MLOAD DUP1 PUSH1 0x60 ADD PUSH1 0x40 MSTORE DUP1 PUSH1 0x0 DUP2 MSTORE PUSH1 0x20 ADD PUSH1 0x0 DUP2 MSTORE PUSH1 0x20 ADD PUSH1 0x0 DUP2 MSTORE POP SWAP1 JUMP JUMPDEST PUSH1 0x0 PUSH1 0x3C PUSH2 0x3FC2 DUP6 PUSH1 0x1 PUSH2 0x456E JUMP JUMPDEST PUSH2 0xFFFF AND PUSH2 0x3FD0 SWAP2 SWAP1 PUSH2 0x4735 JUMP JUMPDEST SWAP1 POP PUSH1 0x0 PUSH1 0x1 PUSH2 0x3FE1 PUSH1 0x3C DUP5 PUSH2 0x4594 JUMP JUMPDEST PUSH2 0x3FEB SWAP2 SWAP1 PUSH2 0x46BB JUMP JUMPDEST SWAP1 POP PUSH1 0x0 JUMPDEST PUSH1 0x2 PUSH2 0x3FFC DUP4 DUP6 PUSH2 0x4594 JUMP JUMPDEST PUSH2 0x4006 SWAP2 SWAP1 PUSH2 0x4610 JUMP JUMPDEST SWAP1 POP DUP8 PUSH2 0x4014 PUSH1 0x3C DUP4 PUSH2 0x4735 JUMP JUMPDEST PUSH1 0x3C DUP2 LT PUSH2 0x4024 JUMPI PUSH2 0x4024 PUSH2 0x47AC JUMP JUMPDEST PUSH1 0x3 MUL ADD PUSH1 0x40 MLOAD DUP1 PUSH1 0x60 ADD PUSH1 0x40 MSTORE SWAP1 DUP2 PUSH1 0x0 DUP3 ADD SLOAD DUP2 MSTORE PUSH1 0x20 ADD PUSH1 0x1 DUP3 ADD SLOAD DUP2 MSTORE PUSH1 0x20 ADD PUSH1 0x2 DUP3 ADD SLOAD DUP2 MSTORE POP POP SWAP5 POP PUSH1 0x1 DUP6 PUSH1 0x0 ADD MLOAD GT PUSH2 0x4071 JUMPI PUSH2 0x406A DUP2 PUSH1 0x1 PUSH2 0x4594 JUMP JUMPDEST SWAP3 POP PUSH2 0x3FF0 JUMP JUMPDEST DUP8 PUSH1 0x3C PUSH2 0x407F DUP4 PUSH1 0x1 PUSH2 0x4594 JUMP JUMPDEST PUSH2 0x4089 SWAP2 SWAP1 PUSH2 0x4735 JUMP JUMPDEST PUSH1 0x3C DUP2 LT PUSH2 0x4099 JUMPI PUSH2 0x4099 PUSH2 0x47AC JUMP JUMPDEST PUSH1 0x3 MUL ADD PUSH1 0x40 MLOAD DUP1 PUSH1 0x60 ADD PUSH1 0x40 MSTORE SWAP1 DUP2 PUSH1 0x0 DUP3 ADD SLOAD DUP2 MSTORE PUSH1 0x20 ADD PUSH1 0x1 DUP3 ADD SLOAD DUP2 MSTORE PUSH1 0x20 ADD PUSH1 0x2 DUP3 ADD SLOAD DUP2 MSTORE POP POP SWAP4 POP PUSH1 0x0 DUP8 PUSH4 0xFFFFFFFF AND DUP7 PUSH1 0x0 ADD MLOAD GT ISZERO SWAP1 POP DUP1 DUP1 ISZERO PUSH2 0x40EE JUMPI POP DUP5 MLOAD PUSH4 0xFFFFFFFF DUP10 AND GT ISZERO JUMPDEST ISZERO PUSH2 0x40F9 JUMPI POP PUSH2 0x4124 JUMP JUMPDEST DUP1 PUSH2 0x4110 JUMPI PUSH2 0x4109 PUSH1 0x1 DUP4 PUSH2 0x46BB JUMP JUMPDEST SWAP3 POP PUSH2 0x411E JUMP JUMPDEST PUSH2 0x411B DUP3 PUSH1 0x1 PUSH2 0x4594 JUMP JUMPDEST SWAP4 POP JUMPDEST POP PUSH2 0x3FF0 JUMP JUMPDEST POP POP POP SWAP4 POP SWAP4 SWAP2 POP POP JUMP JUMPDEST PUSH1 0x0 DUP3 PUSH1 0x1F DUP4 ADD SLT PUSH2 0x4140 JUMPI PUSH1 0x0 DUP1 REVERT JUMPDEST DUP2 MLOAD PUSH1 0x20 PUSH2 0x4155 PUSH2 0x4150 DUP4 PUSH2 0x454A JUMP JUMPDEST PUSH2 0x4519 JUMP JUMPDEST DUP1 DUP4 DUP3 MSTORE DUP3 DUP3 ADD SWAP2 POP DUP3 DUP7 ADD DUP8 DUP5 DUP7 PUSH1 0x5 SHL DUP10 ADD ADD GT ISZERO PUSH2 0x4175 JUMPI PUSH1 0x0 DUP1 REVERT JUMPDEST PUSH1 0x0 JUMPDEST DUP6 DUP2 LT ISZERO PUSH2 0x419D JUMPI DUP2 MLOAD PUSH2 0x418B DUP2 PUSH2 0x47D8 JUMP JUMPDEST DUP5 MSTORE SWAP3 DUP5 ADD SWAP3 SWAP1 DUP5 ADD SWAP1 PUSH1 0x1 ADD PUSH2 0x4178 JUMP JUMPDEST POP SWAP1 SWAP8 SWAP7 POP POP POP POP POP POP POP JUMP JUMPDEST DUP1 CALLDATALOAD PUSH1 0x2 DUP2 SWAP1 SIGNEXTEND DUP2 EQ PUSH2 0x41BC JUMPI PUSH1 0x0 DUP1 REVERT JUMPDEST SWAP2 SWAP1 POP JUMP JUMPDEST PUSH1 0x0 PUSH1 0x20 DUP3 DUP5 SUB SLT ISZERO PUSH2 0x41D3 JUMPI PUSH1 0x0 DUP1 REVERT JUMPDEST DUP2 CALLDATALOAD PUSH2 0xFC4 DUP2 PUSH2 0x47D8 JUMP JUMPDEST PUSH1 0x0 DUP1 PUSH1 0x40 DUP4 DUP6 SUB SLT ISZERO PUSH2 0x41F1 JUMPI PUSH1 0x0 DUP1 REVERT JUMPDEST DUP3 MLOAD PUSH8 0xFFFFFFFFFFFFFFFF DUP1 DUP3 GT ISZERO PUSH2 0x4209 JUMPI PUSH1 0x0 DUP1 REVERT JUMPDEST DUP2 DUP6 ADD SWAP2 POP DUP6 PUSH1 0x1F DUP4 ADD SLT PUSH2 0x421D JUMPI PUSH1 0x0 DUP1 REVERT JUMPDEST DUP2 MLOAD PUSH1 0x20 PUSH2 0x422D PUSH2 0x4150 DUP4 PUSH2 0x454A JUMP JUMPDEST DUP1 DUP4 DUP3 MSTORE DUP3 DUP3 ADD SWAP2 POP DUP3 DUP7 ADD DUP11 DUP5 DUP7 PUSH1 0x5 SHL DUP10 ADD ADD GT ISZERO PUSH2 0x424D JUMPI PUSH1 0x0 DUP1 REVERT JUMPDEST PUSH1 0x0 SWAP7 POP JUMPDEST DUP5 DUP8 LT ISZERO PUSH2 0x427F JUMPI DUP1 MLOAD DUP1 PUSH1 0x6 SIGNEXTEND DUP2 EQ PUSH2 0x426B JUMPI PUSH1 0x0 DUP1 REVERT JUMPDEST DUP4 MSTORE PUSH1 0x1 SWAP7 SWAP1 SWAP7 ADD SWAP6 SWAP2 DUP4 ADD SWAP2 DUP4 ADD PUSH2 0x4252 JUMP JUMPDEST POP SWAP2 DUP9 ADD MLOAD SWAP2 SWAP7 POP SWAP1 SWAP4 POP POP POP DUP1 DUP3 GT ISZERO PUSH2 0x4299 JUMPI PUSH1 0x0 DUP1 REVERT JUMPDEST POP PUSH2 0x907 DUP6 DUP3 DUP7 ADD PUSH2 0x412F JUMP JUMPDEST PUSH1 0x0 PUSH1 0x20 DUP3 DUP5 SUB SLT ISZERO PUSH2 0x42B8 JUMPI PUSH1 0x0 DUP1 REVERT JUMPDEST DUP2 MLOAD PUSH2 0xFC4 DUP2 PUSH2 0x47F0 JUMP JUMPDEST PUSH1 0x0 DUP1 PUSH1 0x40 DUP4 DUP6 SUB SLT ISZERO PUSH2 0x42D6 JUMPI PUSH1 0x0 DUP1 REVERT JUMPDEST DUP3 CALLDATALOAD PUSH2 0x42E1 DUP2 PUSH2 0x47F0 JUMP JUMPDEST SWAP5 PUSH1 0x20 SWAP4 SWAP1 SWAP4 ADD CALLDATALOAD SWAP4 POP POP POP JUMP JUMPDEST PUSH1 0x0 DUP1 PUSH1 0x0 PUSH1 0x60 DUP5 DUP7 SUB SLT ISZERO PUSH2 0x4304 JUMPI PUSH1 0x0 DUP1 REVERT JUMPDEST DUP4 CALLDATALOAD PUSH2 0x430F DUP2 PUSH2 0x47F0 JUMP JUMPDEST SWAP6 PUSH1 0x20 DUP6 ADD CALLDATALOAD SWAP6 POP PUSH1 0x40 SWAP1 SWAP5 ADD CALLDATALOAD SWAP4 SWAP3 POP POP POP JUMP JUMPDEST PUSH1 0x0 DUP1 PUSH1 0x0 DUP1 PUSH1 0x0 PUSH1 0xA0 DUP7 DUP9 SUB SLT ISZERO PUSH2 0x433C JUMPI PUSH1 0x0 DUP1 REVERT JUMPDEST DUP6 CALLDATALOAD PUSH2 0x4347 DUP2 PUSH2 0x47F0 JUMP JUMPDEST SWAP8 PUSH1 0x20 DUP8 ADD CALLDATALOAD SWAP8 POP PUSH1 0x40 DUP8 ADD CALLDATALOAD SWAP7 PUSH1 0x60 DUP2 ADD CALLDATALOAD SWAP7 POP PUSH1 0x80 ADD CALLDATALOAD SWAP5 POP SWAP3 POP POP POP JUMP JUMPDEST PUSH1 0x0 PUSH1 0x20 DUP3 DUP5 SUB SLT ISZERO PUSH2 0x437A JUMPI PUSH1 0x0 DUP1 REVERT JUMPDEST PUSH2 0xFC4 DUP3 PUSH2 0x41AA JUMP JUMPDEST PUSH1 0x0 PUSH1 0x60 DUP3 DUP5 SUB SLT ISZERO PUSH2 0x4395 JUMPI PUSH1 0x0 DUP1 REVERT JUMPDEST PUSH1 0x40 MLOAD PUSH1 0x60 DUP2 ADD DUP2 DUP2 LT PUSH8 0xFFFFFFFFFFFFFFFF DUP3 GT OR ISZERO PUSH2 0x43B8 JUMPI PUSH2 0x43B8 PUSH2 0x47C2 JUMP JUMPDEST PUSH1 0x40 MSTORE PUSH2 0x43C4 DUP4 PUSH2 0x41AA JUMP JUMPDEST DUP2 MSTORE PUSH2 0x43D2 PUSH1 0x20 DUP5 ADD PUSH2 0x41AA JUMP JUMPDEST PUSH1 0x20 DUP3 ADD MSTORE PUSH1 0x40 DUP4 ADD CALLDATALOAD PUSH1 0x40 DUP3 ADD MSTORE DUP1 SWAP2 POP POP SWAP3 SWAP2 POP POP JUMP JUMPDEST PUSH1 0x0 PUSH1 0x20 DUP3 DUP5 SUB SLT ISZERO PUSH2 0x43FD JUMPI PUSH1 0x0 DUP1 REVERT JUMPDEST POP CALLDATALOAD SWAP2 SWAP1 POP JUMP JUMPDEST PUSH1 0x0 PUSH1 0x20 DUP3 DUP5 SUB SLT ISZERO PUSH2 0x4416 JUMPI PUSH1 0x0 DUP1 REVERT JUMPDEST POP MLOAD SWAP2 SWAP1 POP JUMP JUMPDEST PUSH1 0x0 DUP1 PUSH1 0x40 DUP4 DUP6 SUB SLT ISZERO PUSH2 0x4430 JUMPI PUSH1 0x0 DUP1 REVERT JUMPDEST POP POP DUP1 CALLDATALOAD SWAP3 PUSH1 0x20 SWAP1 SWAP2 ADD CALLDATALOAD SWAP2 POP JUMP JUMPDEST PUSH1 0x0 DUP1 PUSH1 0x0 DUP1 PUSH1 0x0 PUSH1 0xA0 DUP7 DUP9 SUB SLT ISZERO PUSH2 0x4457 JUMPI PUSH1 0x0 DUP1 REVERT JUMPDEST POP POP DUP4 CALLDATALOAD SWAP6 PUSH1 0x20 DUP6 ADD CALLDATALOAD SWAP6 POP PUSH1 0x40 DUP6 ADD CALLDATALOAD SWAP5 PUSH1 0x60 DUP2 ADD CALLDATALOAD SWAP5 POP PUSH1 0x80 ADD CALLDATALOAD SWAP3 POP SWAP1 POP JUMP JUMPDEST PUSH1 0x0 DUP1 PUSH1 0x0 DUP1 PUSH1 0x0 DUP1 PUSH1 0x0 DUP1 PUSH2 0x100 DUP10 DUP12 SUB SLT ISZERO PUSH2 0x4497 JUMPI PUSH1 0x0 DUP1 REVERT JUMPDEST POP POP DUP7 CALLDATALOAD SWAP9 PUSH1 0x20 DUP9 ADD CALLDATALOAD SWAP9 POP PUSH1 0x40 DUP9 ADD CALLDATALOAD SWAP8 PUSH1 0x60 DUP2 ADD CALLDATALOAD SWAP8 POP PUSH1 0x80 DUP2 ADD CALLDATALOAD SWAP7 POP PUSH1 0xA0 DUP2 ADD CALLDATALOAD SWAP6 POP PUSH1 0xC0 DUP2 ADD CALLDATALOAD SWAP5 POP PUSH1 0xE0 ADD CALLDATALOAD SWAP3 POP SWAP1 POP JUMP JUMPDEST PUSH1 0x20 DUP1 DUP3 MSTORE DUP3 MLOAD DUP3 DUP3 ADD DUP2 SWAP1 MSTORE PUSH1 0x0 SWAP2 SWAP1 DUP5 DUP3 ADD SWAP1 PUSH1 0x40 DUP6 ADD SWAP1 DUP5 JUMPDEST DUP2 DUP2 LT ISZERO PUSH2 0x450D JUMPI DUP4 MLOAD PUSH4 0xFFFFFFFF AND DUP4 MSTORE SWAP3 DUP5 ADD SWAP3 SWAP2 DUP5 ADD SWAP2 PUSH1 0x1 ADD PUSH2 0x44EB JUMP JUMPDEST POP SWAP1 SWAP7 SWAP6 POP POP POP POP POP POP JUMP JUMPDEST PUSH1 0x40 MLOAD PUSH1 0x1F DUP3 ADD PUSH1 0x1F NOT AND DUP2 ADD PUSH8 0xFFFFFFFFFFFFFFFF DUP2 GT DUP3 DUP3 LT OR ISZERO PUSH2 0x4542 JUMPI PUSH2 0x4542 PUSH2 0x47C2 JUMP JUMPDEST PUSH1 0x40 MSTORE SWAP2 SWAP1 POP JUMP JUMPDEST PUSH1 0x0 PUSH8 0xFFFFFFFFFFFFFFFF DUP3 GT ISZERO PUSH2 0x4564 JUMPI PUSH2 0x4564 PUSH2 0x47C2 JUMP JUMPDEST POP PUSH1 0x5 SHL PUSH1 0x20 ADD SWAP1 JUMP JUMPDEST PUSH1 0x0 PUSH2 0xFFFF DUP1 DUP4 AND DUP2 DUP6 AND DUP1 DUP4 SUB DUP3 GT ISZERO PUSH2 0x458B JUMPI PUSH2 0x458B PUSH2 0x4780 JUMP JUMPDEST ADD SWAP5 SWAP4 POP POP POP POP JUMP JUMPDEST PUSH1 0x0 DUP3 NOT DUP3 GT ISZERO PUSH2 0x45A7 JUMPI PUSH2 0x45A7 PUSH2 0x4780 JUMP JUMPDEST POP ADD SWAP1 JUMP JUMPDEST PUSH1 0x0 DUP2 PUSH1 0x6 SIGNEXTEND DUP4 PUSH1 0x6 SIGNEXTEND DUP1 PUSH2 0x45C3 JUMPI PUSH2 0x45C3 PUSH2 0x4796 JUMP JUMPDEST PUSH7 0x7FFFFFFFFFFFFF NOT DUP3 EQ PUSH1 0x0 NOT DUP3 EQ AND ISZERO PUSH2 0x45E1 JUMPI PUSH2 0x45E1 PUSH2 0x4780 JUMP JUMPDEST SWAP1 SDIV SWAP4 SWAP3 POP POP POP JUMP JUMPDEST PUSH1 0x0 PUSH1 0x1 PUSH1 0x1 PUSH1 0xA0 SHL SUB DUP1 DUP5 AND DUP1 PUSH2 0x4604 JUMPI PUSH2 0x4604 PUSH2 0x4796 JUMP JUMPDEST SWAP3 AND SWAP2 SWAP1 SWAP2 DIV SWAP3 SWAP2 POP POP JUMP JUMPDEST PUSH1 0x0 DUP3 PUSH2 0x461F JUMPI PUSH2 0x461F PUSH2 0x4796 JUMP JUMPDEST POP DIV SWAP1 JUMP JUMPDEST PUSH1 0x0 DUP2 PUSH1 0x0 NOT DIV DUP4 GT DUP3 ISZERO ISZERO AND ISZERO PUSH2 0x463E JUMPI PUSH2 0x463E PUSH2 0x4780 JUMP JUMPDEST POP MUL SWAP1 JUMP JUMPDEST PUSH1 0x0 DUP2 PUSH1 0x6 SIGNEXTEND DUP4 PUSH1 0x6 SIGNEXTEND PUSH1 0x0 DUP2 SLT DUP2 PUSH7 0x7FFFFFFFFFFFFF NOT ADD DUP4 SLT DUP2 ISZERO AND ISZERO PUSH2 0x466E JUMPI PUSH2 0x466E PUSH2 0x4780 JUMP JUMPDEST DUP2 PUSH7 0x7FFFFFFFFFFFFF ADD DUP4 SGT DUP2 AND ISZERO PUSH2 0x4689 JUMPI PUSH2 0x4689 PUSH2 0x4780 JUMP JUMPDEST POP SWAP1 SUB SWAP4 SWAP3 POP POP POP JUMP JUMPDEST PUSH1 0x0 PUSH1 0x1 PUSH1 0x1 PUSH1 0xA0 SHL SUB DUP4 DUP2 AND SWAP1 DUP4 AND DUP2 DUP2 LT ISZERO PUSH2 0x46B3 JUMPI PUSH2 0x46B3 PUSH2 0x4780 JUMP JUMPDEST SUB SWAP4 SWAP3 POP POP POP JUMP JUMPDEST PUSH1 0x0 DUP3 DUP3 LT ISZERO PUSH2 0x46CD JUMPI PUSH2 0x46CD PUSH2 0x4780 JUMP JUMPDEST POP SUB SWAP1 JUMP JUMPDEST PUSH1 0x0 PUSH4 0xFFFFFFFF DUP4 DUP2 AND SWAP1 DUP4 AND DUP2 DUP2 LT ISZERO PUSH2 0x46B3 JUMPI PUSH2 0x46B3 PUSH2 0x4780 JUMP JUMPDEST PUSH1 0x0 DUP2 PUSH1 0x2 SIGNEXTEND PUSH3 0x7FFFFF NOT DUP2 EQ ISZERO PUSH2 0x4709 JUMPI PUSH2 0x4709 PUSH2 0x4780 JUMP JUMPDEST PUSH1 0x0 NOT ADD SWAP3 SWAP2 POP POP JUMP JUMPDEST PUSH1 0x0 DUP3 PUSH1 0x6 SIGNEXTEND DUP1 PUSH2 0x4726 JUMPI PUSH2 0x4726 PUSH2 0x4796 JUMP JUMPDEST DUP1 DUP4 PUSH1 0x6 SIGNEXTEND SMOD SWAP2 POP POP SWAP3 SWAP2 POP POP JUMP JUMPDEST PUSH1 0x0 DUP3 PUSH2 0x4744 JUMPI PUSH2 0x4744 PUSH2 0x4796 JUMP JUMPDEST POP MOD SWAP1 JUMP JUMPDEST PUSH1 0x0 DUP2 PUSH1 0x2 SIGNEXTEND PUSH3 0x7FFFFF NOT DUP2 EQ ISZERO PUSH2 0x3816 JUMPI PUSH2 0x3816 PUSH2 0x4780 JUMP JUMPDEST PUSH1 0x0 PUSH1 0x1 PUSH1 0xFF SHL DUP3 EQ ISZERO PUSH2 0x4779 JUMPI PUSH2 0x4779 PUSH2 0x4780 JUMP JUMPDEST POP PUSH1 0x0 SUB SWAP1 JUMP JUMPDEST PUSH4 0x4E487B71 PUSH1 0xE0 SHL PUSH1 0x0 MSTORE PUSH1 0x11 PUSH1 0x4 MSTORE PUSH1 0x24 PUSH1 0x0 REVERT JUMPDEST PUSH4 0x4E487B71 PUSH1 0xE0 SHL PUSH1 0x0 MSTORE PUSH1 0x12 PUSH1 0x4 MSTORE PUSH1 0x24 PUSH1 0x0 REVERT JUMPDEST PUSH4 0x4E487B71 PUSH1 0xE0 SHL PUSH1 0x0 MSTORE PUSH1 0x32 PUSH1 0x4 MSTORE PUSH1 0x24 PUSH1 0x0 REVERT JUMPDEST PUSH4 0x4E487B71 PUSH1 0xE0 SHL PUSH1 0x0 MSTORE PUSH1 0x41 PUSH1 0x4 MSTORE PUSH1 0x24 PUSH1 0x0 REVERT JUMPDEST PUSH1 0x1 PUSH1 0x1 PUSH1 0xA0 SHL SUB DUP2 AND DUP2 EQ PUSH2 0x47ED JUMPI PUSH1 0x0 DUP1 REVERT JUMPDEST POP JUMP JUMPDEST DUP1 ISZERO ISZERO DUP2 EQ PUSH2 0x47ED JUMPI PUSH1 0x0 DUP1 REVERT INVALID BYTE PUSH9 0x38EFA4183E08FE3607 CALLDATALOAD SWAP14 SLT MSIZE 0x27 0x2A 0xF9 0xD4 PUSH18 0x6F65E1A7B5921F78FD5A3C6AA26469706673 PC 0x22 SLT KECCAK256 0x28 PUSH31 0xDC78FE152F2C7B6F23A862714F191969AF032EBE6075E6A44D51E7941BB864 PUSH20 0x6F6C634300080700330000000000000000000000 ",
  "sha1": "397da7018ac8874b4359711eb87a54784be854f4",
  "source": "// SPDX-License-Identifier: MIT\npragma solidity ^0.8.7;\n\nimport \"./libraries/FixedPoint.sol\";\nimport \"./libraries/UniswapV3OracleLibrary/UniswapV3OracleLibraryV2.sol\";\nimport \"./interfaces/IUniswapV3Pool.sol\";\nimport \"./market/OverlayV1Market.sol\";\nimport \"./libraries/UniswapV3OracleLibrary/TickMath.sol\";\n\ncontract OverlayV1UniswapV3Market is OverlayV1Market {\n\n    using FixedPoint for uint256;\n\n    uint256 internal X96 = 0x1000000000000000000000000;\n\n    uint256 public immutable macroWindow; // window size for main TWAP\n    uint256 public immutable microWindow; // window size for bid/ask TWAP\n\n    address public immutable marketFeed;\n    address public immutable ovlFeed;\n    address public immutable base;\n    address public immutable quote;\n    uint128 internal immutable baseAmount;\n\n    address internal immutable eth;\n    bool internal immutable ethIs0;\n\n    constructor(\n        address _mothership,\n        address _ovlFeed,\n        address _marketFeed,\n        address _quote,\n        address _eth,\n        uint128 _baseAmount,\n        uint256 _macroWindow,\n        uint256 _microWindow,\n        uint256 _priceFrameCap\n    ) OverlayV1Market (\n        _mothership\n    ) OverlayV1Comptroller (\n        _microWindow\n    ) OverlayV1OI (\n        _microWindow\n    ) OverlayV1PricePoint (\n        _priceFrameCap\n    ) {\n\n        // immutables\n        eth = _eth;\n        ethIs0 = IUniswapV3Pool(_ovlFeed).token0() == _eth;\n        ovlFeed = _ovlFeed;\n        marketFeed = _marketFeed;\n        baseAmount = _baseAmount;\n        macroWindow = _macroWindow;\n        microWindow = _microWindow;\n\n        address _token0 = IUniswapV3Pool(_marketFeed).token0();\n        address _token1 = IUniswapV3Pool(_marketFeed).token1();\n\n        base = _token0 != _quote ? _token0 : _token1;\n        quote = _token0 == _quote ? _token0 : _token1;\n\n        int24 _tick = OracleLibraryV2.consult(\n            _marketFeed,\n            uint32(_macroWindow),\n            uint32(0)\n        );\n\n        _pricePoints.push(PricePoint(\n            _tick, \n            _tick, \n            0\n        ));\n\n        uint _price = OracleLibraryV2.getQuoteAtTick(\n            _tick,\n            uint128(_baseAmount),\n            _token0 != _quote ? _token0 : _token1,\n            _token0 == _quote ? _token0 : _token1\n        );\n\n        emit NewPricePoint(_price, _price, 0);\n\n    }\n\n\n    /// @notice Reads the current price and depth information\n    /// @dev Reads price and depth of market feed\n    /// @return price_ Price point\n    function fetchPricePoint () public view override returns (\n        PricePoint memory price_\n    ) {\n\n        int56[] memory _ticks;\n        uint160[] memory _liqs;\n\n        uint _ovlPrice;\n        uint _marketLiquidity;\n\n        int24 _microTick;\n        int24 _macroTick;\n\n        {\n\n            uint32[] memory _secondsAgo = new uint32[](3);\n            _secondsAgo[2] = uint32(macroWindow);\n            _secondsAgo[1] = uint32(microWindow);\n\n            ( _ticks, _liqs ) = IUniswapV3Pool(marketFeed).observe(_secondsAgo);\n\n            _macroTick = int24(( _ticks[0] - _ticks[2]) / int56(int32(int(macroWindow))));\n\n            _microTick = int24((_ticks[0] - _ticks[1]) / int56(int32(int(microWindow))));\n\n            uint _sqrtPrice = TickMath.getSqrtRatioAtTick(_microTick);\n\n            uint _liquidity = (uint160(microWindow) << 128) / ( _liqs[0] - _liqs[1] );\n\n            _marketLiquidity = ethIs0\n                ? ( uint256(_liquidity) << 96 ) / _sqrtPrice\n                : FullMath.mulDiv(uint256(_liquidity), _sqrtPrice, X96);\n\n        }\n\n\n        {\n\n            uint32[] memory _secondsAgo = new uint32[](2);\n\n            _secondsAgo[1] = uint32(macroWindow);\n\n            ( _ticks, ) = IUniswapV3Pool(ovlFeed).observe(_secondsAgo);\n\n            _ovlPrice = OracleLibraryV2.getQuoteAtTick(\n                int24((_ticks[0] - _ticks[1]) / int56(int32(int(macroWindow)))),\n                1e18,\n                ovl,\n                eth\n            );\n\n        }\n\n        price_ = PricePoint(\n            _microTick, \n            _macroTick, \n            computeDepth(_marketLiquidity, _ovlPrice)\n        );\n\n    }\n\n\n    /// @notice Arithmetic to get depth\n    /// @dev Derived from cnstant product formula X*Y=K and tailored \n    /// to Uniswap V3 selective liquidity provision.\n    /// @param _marketLiquidity Amount of liquidity in market in ETH terms.\n    /// @param _ovlPrice Price of OVL against ETH.\n    /// @return depth_ Depth criteria for market in OVL terms.\n    function computeDepth (\n        uint _marketLiquidity,\n        uint _ovlPrice\n    ) public override view returns (\n        uint depth_\n    ) {\n\n        depth_ = ((_marketLiquidity * 1e18) / _ovlPrice)\n            .mulUp(lmbda)    \n            .divDown(2e18);\n\n    }\n\n    function _tickToPrice (\n        int24 _tick\n    ) public override view returns (\n        uint quote_\n    ) {\n\n        uint160 sqrtRatioX96 = TickMath.getSqrtRatioAtTick(_tick);\n\n        // better precision if no overflow when squared\n        if (sqrtRatioX96 <= type(uint128).max) {\n\n            uint256 ratioX192 = uint256(sqrtRatioX96) * sqrtRatioX96;\n\n            quote_ = base < quote\n                ? FullMath.mulDiv(ratioX192, baseAmount, 1 << 192)\n                : FullMath.mulDiv(1 << 192, baseAmount, ratioX192);\n\n        } else {\n\n            uint256 ratioX128 = FullMath.mulDiv(sqrtRatioX96, sqrtRatioX96, 1 << 64);\n\n            quote_ = base < quote\n                ? FullMath.mulDiv(ratioX128, baseAmount, 1 << 128)\n                : FullMath.mulDiv(1 << 128, baseAmount, ratioX128);\n\n        }\n\n    }\n\n}\n",
  "sourcePath": "contracts/OverlayV1UniswapV3Market.sol",
  "type": "contract"
}