{
  "abi": [
    {
      "inputs": [
        {
          "internalType": "address",
          "name": "_mothership",
          "type": "address"
        },
        {
          "internalType": "address",
          "name": "_ovlFeed",
          "type": "address"
        },
        {
          "internalType": "address",
          "name": "_marketFeed",
          "type": "address"
        },
        {
          "internalType": "address",
          "name": "_quote",
          "type": "address"
        },
        {
          "internalType": "address",
          "name": "_eth",
          "type": "address"
        },
        {
          "internalType": "uint128",
          "name": "_amountIn",
          "type": "uint128"
        },
        {
          "internalType": "uint256",
          "name": "_macroWindow",
          "type": "uint256"
        },
        {
          "internalType": "uint256",
          "name": "_microWindow",
          "type": "uint256"
        }
      ],
      "stateMutability": "nonpayable",
      "type": "constructor"
    },
    {
      "anonymous": false,
      "inputs": [
        {
          "indexed": false,
          "internalType": "uint256",
          "name": "oiLong",
          "type": "uint256"
        },
        {
          "indexed": false,
          "internalType": "uint256",
          "name": "oiShort",
          "type": "uint256"
        },
        {
          "indexed": false,
          "internalType": "int256",
          "name": "fundingPaid",
          "type": "int256"
        }
      ],
      "name": "FundingPaid",
      "type": "event"
    },
    {
      "anonymous": false,
      "inputs": [
        {
          "indexed": false,
          "internalType": "uint256",
          "name": "bid",
          "type": "uint256"
        },
        {
          "indexed": false,
          "internalType": "uint256",
          "name": "ask",
          "type": "uint256"
        },
        {
          "indexed": false,
          "internalType": "uint256",
          "name": "index",
          "type": "uint256"
        }
      ],
      "name": "NewPrice",
      "type": "event"
    },
    {
      "anonymous": false,
      "inputs": [
        {
          "indexed": false,
          "internalType": "string",
          "name": "k",
          "type": "string"
        },
        {
          "indexed": false,
          "internalType": "uint256",
          "name": "v",
          "type": "uint256"
        }
      ],
      "name": "log",
      "type": "event"
    },
    {
      "inputs": [],
      "name": "MIN_COLLAT",
      "outputs": [
        {
          "internalType": "uint256",
          "name": "",
          "type": "uint256"
        }
      ],
      "stateMutability": "view",
      "type": "function"
    },
    {
      "inputs": [
        {
          "internalType": "address",
          "name": "_collateral",
          "type": "address"
        }
      ],
      "name": "addCollateral",
      "outputs": [],
      "stateMutability": "nonpayable",
      "type": "function"
    },
    {
      "inputs": [],
      "name": "base",
      "outputs": [
        {
          "internalType": "address",
          "name": "",
          "type": "address"
        }
      ],
      "stateMutability": "view",
      "type": "function"
    },
    {
      "inputs": [
        {
          "internalType": "uint256",
          "name": "",
          "type": "uint256"
        }
      ],
      "name": "brrrrdAccumulator",
      "outputs": [
        {
          "internalType": "uint256",
          "name": "",
          "type": "uint256"
        }
      ],
      "stateMutability": "view",
      "type": "function"
    },
    {
      "inputs": [],
      "name": "brrrrdCycloid",
      "outputs": [
        {
          "internalType": "uint256",
          "name": "",
          "type": "uint256"
        }
      ],
      "stateMutability": "view",
      "type": "function"
    },
    {
      "inputs": [],
      "name": "brrrrdExpected",
      "outputs": [
        {
          "internalType": "uint256",
          "name": "",
          "type": "uint256"
        }
      ],
      "stateMutability": "view",
      "type": "function"
    },
    {
      "inputs": [],
      "name": "brrrrdFiling",
      "outputs": [
        {
          "internalType": "uint256",
          "name": "",
          "type": "uint256"
        }
      ],
      "stateMutability": "view",
      "type": "function"
    },
    {
      "inputs": [
        {
          "internalType": "uint256",
          "name": "",
          "type": "uint256"
        }
      ],
      "name": "brrrrdRollers",
      "outputs": [
        {
          "internalType": "uint256",
          "name": "time",
          "type": "uint256"
        },
        {
          "internalType": "uint256",
          "name": "ying",
          "type": "uint256"
        },
        {
          "internalType": "uint256",
          "name": "yang",
          "type": "uint256"
        }
      ],
      "stateMutability": "view",
      "type": "function"
    },
    {
      "inputs": [],
      "name": "brrrrdWindowMacro",
      "outputs": [
        {
          "internalType": "uint256",
          "name": "",
          "type": "uint256"
        }
      ],
      "stateMutability": "view",
      "type": "function"
    },
    {
      "inputs": [],
      "name": "brrrrdWindowMicro",
      "outputs": [
        {
          "internalType": "uint256",
          "name": "",
          "type": "uint256"
        }
      ],
      "stateMutability": "view",
      "type": "function"
    },
    {
      "inputs": [],
      "name": "compounded",
      "outputs": [
        {
          "internalType": "uint256",
          "name": "",
          "type": "uint256"
        }
      ],
      "stateMutability": "view",
      "type": "function"
    },
    {
      "inputs": [],
      "name": "compoundingPeriod",
      "outputs": [
        {
          "internalType": "uint256",
          "name": "",
          "type": "uint256"
        }
      ],
      "stateMutability": "view",
      "type": "function"
    },
    {
      "inputs": [
        {
          "internalType": "bool",
          "name": "_isLong",
          "type": "bool"
        },
        {
          "internalType": "uint256",
          "name": "_collateral",
          "type": "uint256"
        },
        {
          "internalType": "uint256",
          "name": "_leverage",
          "type": "uint256"
        }
      ],
      "name": "enterOI",
      "outputs": [
        {
          "internalType": "uint256",
          "name": "oiAdjusted_",
          "type": "uint256"
        },
        {
          "internalType": "uint256",
          "name": "collateralAdjusted_",
          "type": "uint256"
        },
        {
          "internalType": "uint256",
          "name": "debtAdjusted_",
          "type": "uint256"
        },
        {
          "internalType": "uint256",
          "name": "fee_",
          "type": "uint256"
        },
        {
          "internalType": "uint256",
          "name": "impact_",
          "type": "uint256"
        },
        {
          "internalType": "uint256",
          "name": "pricePointNext_",
          "type": "uint256"
        }
      ],
      "stateMutability": "nonpayable",
      "type": "function"
    },
    {
      "inputs": [
        {
          "internalType": "uint256",
          "name": "_now",
          "type": "uint256"
        },
        {
          "internalType": "uint256",
          "name": "_compounded",
          "type": "uint256"
        }
      ],
      "name": "epochs",
      "outputs": [
        {
          "internalType": "uint256",
          "name": "compoundings_",
          "type": "uint256"
        },
        {
          "internalType": "uint256",
          "name": "tCompounding_",
          "type": "uint256"
        }
      ],
      "stateMutability": "view",
      "type": "function"
    },
    {
      "inputs": [],
      "name": "epochs",
      "outputs": [
        {
          "internalType": "uint256",
          "name": "compoundings_",
          "type": "uint256"
        },
        {
          "internalType": "uint256",
          "name": "tCompounding_",
          "type": "uint256"
        }
      ],
      "stateMutability": "view",
      "type": "function"
    },
    {
      "inputs": [
        {
          "internalType": "bool",
          "name": "_isLong",
          "type": "bool"
        },
        {
          "internalType": "uint256",
          "name": "_pricePoint",
          "type": "uint256"
        }
      ],
      "name": "exitData",
      "outputs": [
        {
          "internalType": "uint256",
          "name": "oi_",
          "type": "uint256"
        },
        {
          "internalType": "uint256",
          "name": "oiShares_",
          "type": "uint256"
        },
        {
          "internalType": "uint256",
          "name": "priceFrame_",
          "type": "uint256"
        }
      ],
      "stateMutability": "nonpayable",
      "type": "function"
    },
    {
      "inputs": [
        {
          "internalType": "bool",
          "name": "_isLong",
          "type": "bool"
        },
        {
          "internalType": "uint256",
          "name": "_oi",
          "type": "uint256"
        },
        {
          "internalType": "uint256",
          "name": "_oiShares",
          "type": "uint256"
        },
        {
          "internalType": "uint256",
          "name": "_brrrr",
          "type": "uint256"
        },
        {
          "internalType": "uint256",
          "name": "_antiBrrrr",
          "type": "uint256"
        }
      ],
      "name": "exitOI",
      "outputs": [],
      "stateMutability": "nonpayable",
      "type": "function"
    },
    {
      "inputs": [],
      "name": "impactCycloid",
      "outputs": [
        {
          "internalType": "uint256",
          "name": "",
          "type": "uint256"
        }
      ],
      "stateMutability": "view",
      "type": "function"
    },
    {
      "inputs": [
        {
          "internalType": "uint256",
          "name": "",
          "type": "uint256"
        }
      ],
      "name": "impactRollers",
      "outputs": [
        {
          "internalType": "uint256",
          "name": "time",
          "type": "uint256"
        },
        {
          "internalType": "uint256",
          "name": "ying",
          "type": "uint256"
        },
        {
          "internalType": "uint256",
          "name": "yang",
          "type": "uint256"
        }
      ],
      "stateMutability": "view",
      "type": "function"
    },
    {
      "inputs": [],
      "name": "impactWindow",
      "outputs": [
        {
          "internalType": "uint256",
          "name": "",
          "type": "uint256"
        }
      ],
      "stateMutability": "view",
      "type": "function"
    },
    {
      "inputs": [
        {
          "internalType": "address",
          "name": "",
          "type": "address"
        }
      ],
      "name": "isCollateral",
      "outputs": [
        {
          "internalType": "bool",
          "name": "",
          "type": "bool"
        }
      ],
      "stateMutability": "view",
      "type": "function"
    },
    {
      "inputs": [],
      "name": "k",
      "outputs": [
        {
          "internalType": "uint256",
          "name": "",
          "type": "uint256"
        }
      ],
      "stateMutability": "view",
      "type": "function"
    },
    {
      "inputs": [],
      "name": "leverageMax",
      "outputs": [
        {
          "internalType": "uint256",
          "name": "",
          "type": "uint256"
        }
      ],
      "stateMutability": "view",
      "type": "function"
    },
    {
      "inputs": [],
      "name": "lmbda",
      "outputs": [
        {
          "internalType": "uint256",
          "name": "",
          "type": "uint256"
        }
      ],
      "stateMutability": "view",
      "type": "function"
    },
    {
      "inputs": [],
      "name": "macroWindow",
      "outputs": [
        {
          "internalType": "uint256",
          "name": "",
          "type": "uint256"
        }
      ],
      "stateMutability": "view",
      "type": "function"
    },
    {
      "inputs": [],
      "name": "marketFeed",
      "outputs": [
        {
          "internalType": "address",
          "name": "",
          "type": "address"
        }
      ],
      "stateMutability": "view",
      "type": "function"
    },
    {
      "inputs": [],
      "name": "microWindow",
      "outputs": [
        {
          "internalType": "uint256",
          "name": "",
          "type": "uint256"
        }
      ],
      "stateMutability": "view",
      "type": "function"
    },
    {
      "inputs": [],
      "name": "mothership",
      "outputs": [
        {
          "internalType": "contract IOverlayV1Mothership",
          "name": "",
          "type": "address"
        }
      ],
      "stateMutability": "view",
      "type": "function"
    },
    {
      "inputs": [],
      "name": "oi",
      "outputs": [
        {
          "internalType": "uint256",
          "name": "oiLong_",
          "type": "uint256"
        },
        {
          "internalType": "uint256",
          "name": "oiShort_",
          "type": "uint256"
        },
        {
          "internalType": "uint256",
          "name": "oiLongShares_",
          "type": "uint256"
        },
        {
          "internalType": "uint256",
          "name": "oiShortShares_",
          "type": "uint256"
        }
      ],
      "stateMutability": "view",
      "type": "function"
    },
    {
      "inputs": [],
      "name": "oiCap",
      "outputs": [
        {
          "internalType": "uint256",
          "name": "cap_",
          "type": "uint256"
        }
      ],
      "stateMutability": "view",
      "type": "function"
    },
    {
      "inputs": [],
      "name": "oiLong",
      "outputs": [
        {
          "internalType": "uint256",
          "name": "oiLong_",
          "type": "uint256"
        }
      ],
      "stateMutability": "view",
      "type": "function"
    },
    {
      "inputs": [],
      "name": "oiLongShares",
      "outputs": [
        {
          "internalType": "uint256",
          "name": "",
          "type": "uint256"
        }
      ],
      "stateMutability": "view",
      "type": "function"
    },
    {
      "inputs": [],
      "name": "oiShort",
      "outputs": [
        {
          "internalType": "uint256",
          "name": "oiShort_",
          "type": "uint256"
        }
      ],
      "stateMutability": "view",
      "type": "function"
    },
    {
      "inputs": [],
      "name": "oiShortShares",
      "outputs": [
        {
          "internalType": "uint256",
          "name": "",
          "type": "uint256"
        }
      ],
      "stateMutability": "view",
      "type": "function"
    },
    {
      "inputs": [],
      "name": "ovl",
      "outputs": [
        {
          "internalType": "contract IOverlayToken",
          "name": "",
          "type": "address"
        }
      ],
      "stateMutability": "view",
      "type": "function"
    },
    {
      "inputs": [],
      "name": "ovlFeed",
      "outputs": [
        {
          "internalType": "address",
          "name": "",
          "type": "address"
        }
      ],
      "stateMutability": "view",
      "type": "function"
    },
    {
      "inputs": [],
      "name": "pbnj",
      "outputs": [
        {
          "internalType": "uint256",
          "name": "",
          "type": "uint256"
        }
      ],
      "stateMutability": "view",
      "type": "function"
    },
    {
      "inputs": [
        {
          "internalType": "bool",
          "name": "_isLong",
          "type": "bool"
        },
        {
          "internalType": "uint256",
          "name": "_entryIndex",
          "type": "uint256"
        }
      ],
      "name": "positionInfo",
      "outputs": [
        {
          "internalType": "uint256",
          "name": "oi_",
          "type": "uint256"
        },
        {
          "internalType": "uint256",
          "name": "oiShares_",
          "type": "uint256"
        },
        {
          "internalType": "uint256",
          "name": "priceFrame_",
          "type": "uint256"
        }
      ],
      "stateMutability": "view",
      "type": "function"
    },
    {
      "inputs": [],
      "name": "price",
      "outputs": [
        {
          "components": [
            {
              "internalType": "uint256",
              "name": "bid",
              "type": "uint256"
            },
            {
              "internalType": "uint256",
              "name": "ask",
              "type": "uint256"
            },
            {
              "internalType": "uint256",
              "name": "index",
              "type": "uint256"
            }
          ],
          "internalType": "struct OverlayV1PricePoint.PricePoint",
          "name": "",
          "type": "tuple"
        }
      ],
      "stateMutability": "view",
      "type": "function"
    },
    {
      "inputs": [],
      "name": "priceFrameCap",
      "outputs": [
        {
          "internalType": "uint256",
          "name": "",
          "type": "uint256"
        }
      ],
      "stateMutability": "view",
      "type": "function"
    },
    {
      "inputs": [],
      "name": "pricePointNextIndex",
      "outputs": [
        {
          "internalType": "uint256",
          "name": "",
          "type": "uint256"
        }
      ],
      "stateMutability": "view",
      "type": "function"
    },
    {
      "inputs": [
        {
          "internalType": "uint256",
          "name": "_pricePointIndex",
          "type": "uint256"
        }
      ],
      "name": "pricePoints",
      "outputs": [
        {
          "components": [
            {
              "internalType": "uint256",
              "name": "bid",
              "type": "uint256"
            },
            {
              "internalType": "uint256",
              "name": "ask",
              "type": "uint256"
            },
            {
              "internalType": "uint256",
              "name": "index",
              "type": "uint256"
            }
          ],
          "internalType": "struct OverlayV1PricePoint.PricePoint",
          "name": "pricePoint_",
          "type": "tuple"
        }
      ],
      "stateMutability": "view",
      "type": "function"
    },
    {
      "inputs": [],
      "name": "quote",
      "outputs": [
        {
          "internalType": "address",
          "name": "",
          "type": "address"
        }
      ],
      "stateMutability": "view",
      "type": "function"
    },
    {
      "inputs": [
        {
          "internalType": "address",
          "name": "_collateral",
          "type": "address"
        }
      ],
      "name": "removeCollateral",
      "outputs": [],
      "stateMutability": "nonpayable",
      "type": "function"
    },
    {
      "inputs": [
        {
          "internalType": "uint256",
          "name": "_impactWindow",
          "type": "uint256"
        },
        {
          "internalType": "uint256",
          "name": "_lmbda",
          "type": "uint256"
        },
        {
          "internalType": "uint256",
          "name": "_staticCap",
          "type": "uint256"
        },
        {
          "internalType": "uint256",
          "name": "_brrrrExpected",
          "type": "uint256"
        },
        {
          "internalType": "uint256",
          "name": "_brrrrdWindowMacro",
          "type": "uint256"
        },
        {
          "internalType": "uint256",
          "name": "_brrrrdWindowMicro",
          "type": "uint256"
        }
      ],
      "name": "setComptrollerParams",
      "outputs": [],
      "stateMutability": "nonpayable",
      "type": "function"
    },
    {
      "inputs": [
        {
          "internalType": "uint256",
          "name": "_k",
          "type": "uint256"
        },
        {
          "internalType": "uint256",
          "name": "_priceFrameCap",
          "type": "uint256"
        },
        {
          "internalType": "uint256",
          "name": "_pbnj",
          "type": "uint256"
        },
        {
          "internalType": "uint256",
          "name": "_updatePeriod",
          "type": "uint256"
        },
        {
          "internalType": "uint256",
          "name": "_compoundPeriod",
          "type": "uint256"
        },
        {
          "internalType": "uint256",
          "name": "_impactWindow",
          "type": "uint256"
        },
        {
          "internalType": "uint256",
          "name": "_lmbda",
          "type": "uint256"
        },
        {
          "internalType": "uint256",
          "name": "_staticCap",
          "type": "uint256"
        },
        {
          "internalType": "uint256",
          "name": "_brrrrdExpected",
          "type": "uint256"
        },
        {
          "internalType": "uint256",
          "name": "_brrrrdWindowMacro",
          "type": "uint256"
        },
        {
          "internalType": "uint256",
          "name": "_brrrrdWindowMicro",
          "type": "uint256"
        }
      ],
      "name": "setEverything",
      "outputs": [],
      "stateMutability": "nonpayable",
      "type": "function"
    },
    {
      "inputs": [
        {
          "internalType": "uint256",
          "name": "_k",
          "type": "uint256"
        }
      ],
      "name": "setK",
      "outputs": [],
      "stateMutability": "nonpayable",
      "type": "function"
    },
    {
      "inputs": [],
      "name": "setOVL",
      "outputs": [],
      "stateMutability": "nonpayable",
      "type": "function"
    },
    {
      "inputs": [
        {
          "internalType": "uint256",
          "name": "_updatePeriod",
          "type": "uint256"
        },
        {
          "internalType": "uint256",
          "name": "_compoundingPeriod",
          "type": "uint256"
        }
      ],
      "name": "setPeriods",
      "outputs": [],
      "stateMutability": "nonpayable",
      "type": "function"
    },
    {
      "inputs": [
        {
          "internalType": "uint256",
          "name": "_priceFrameCap",
          "type": "uint256"
        }
      ],
      "name": "setPriceFrameCap",
      "outputs": [],
      "stateMutability": "nonpayable",
      "type": "function"
    },
    {
      "inputs": [
        {
          "internalType": "uint256",
          "name": "_pbnj",
          "type": "uint256"
        }
      ],
      "name": "setSpread",
      "outputs": [],
      "stateMutability": "nonpayable",
      "type": "function"
    },
    {
      "inputs": [],
      "name": "toUpdate",
      "outputs": [
        {
          "internalType": "uint256",
          "name": "",
          "type": "uint256"
        }
      ],
      "stateMutability": "view",
      "type": "function"
    },
    {
      "inputs": [],
      "name": "update",
      "outputs": [],
      "stateMutability": "nonpayable",
      "type": "function"
    },
    {
      "inputs": [],
      "name": "updatePeriod",
      "outputs": [
        {
          "internalType": "uint256",
          "name": "",
          "type": "uint256"
        }
      ],
      "stateMutability": "view",
      "type": "function"
    },
    {
      "inputs": [],
      "name": "updated",
      "outputs": [
        {
          "internalType": "uint256",
          "name": "",
          "type": "uint256"
        }
      ],
      "stateMutability": "view",
      "type": "function"
    }
  ],
  "bytecode": "6101c06040526001610183556c01000000000000000000000000610184553480156200002a57600080fd5b5060405162006036380380620060368339810160408190526200004d9162000fa3565b8780604051806060016040528042815260200160008152602001600081525060026000603c8110620000835762000083620013dc565b60030201600082015181600001556020820151816001015560408201518160020155905050604051806060016040528042815260200160008152602001600081525060b66000603c8110620000dc57620000dc620013dc565b60030201600082015181600001556020820151816001015560408201518160020155905050806001600160a01b03166080816001600160a01b031660601b81525050806001600160a01b031663b29fa9c36040518163ffffffff1660e01b815260040160206040518083038186803b1580156200015857600080fd5b505afa1580156200016d573d6000803e3d6000fd5b505050506040513d601f19601f8201168201806040525081019062000193919062000f83565b61017f80546001600160a01b0319166001600160a01b03928316179055606087901b6001600160601b0319166101805260408051630dfe168160e01b815290518883169450918b169250630dfe1681916004808301926020929190829003018186803b1580156200020357600080fd5b505afa15801562000218573d6000803e3d6000fd5b505050506040513d601f19601f820116820180604052508101906200023e919062000f83565b6001600160a01b039081169190911460f81b6101a0526001600160601b0319606089811b82166101005288901b1660e0526001600160801b0319608085901b166101605260a083905260c082905260408051630dfe168160e01b81529051600092891691630dfe1681916004808301926020929190829003018186803b158015620002c857600080fd5b505afa158015620002dd573d6000803e3d6000fd5b505050506040513d601f19601f8201168201806040525081019062000303919062000f83565b90506000876001600160a01b031663d21220a76040518163ffffffff1660e01b815260040160206040518083038186803b1580156200034157600080fd5b505afa15801562000356573d6000803e3d6000fd5b505050506040513d601f19601f820116820180604052508101906200037c919062000f83565b9050866001600160a01b0316826001600160a01b03161415620003a05780620003a2565b815b60601b6001600160601b031916610120526001600160a01b0387811690831614620003ce5780620003d0565b815b6001600160a01b0316610140816001600160a01b031660601b8152505060006200040889866000620004b560201b62001c571760201c565b905060006200046a82888b6001600160a01b0316876001600160a01b0316141562000434578562000436565b865b8c6001600160a01b0316886001600160a01b03161462000457578662000459565b875b620006b260201b62001e301760201c565b9050620004976040518060600160405280838152602001838152602001838152506200081f60201b60201c565b50504261017d81905561017455506200142198505050505050505050565b600080620004c48385620012df565b905063ffffffff8116620005045760405162461bcd60e51b8152602060048201526002602482015261042560f41b60448201526064015b60405180910390fd5b60408051600280825260608201835260009260208301908036833701905050905084816000815181106200053c576200053c620013dc565b602002602001019063ffffffff16908163ffffffff168152505083816001815181106200056d576200056d620013dc565b63ffffffff9092166020928302919091019091015260405163883bdbfd60e01b81526000906001600160a01b0388169063883bdbfd90620005b390859060040162001132565b60006040518083038186803b158015620005cc57600080fd5b505afa158015620005e1573d6000803e3d6000fd5b505050506040513d6000823e601f3d908101601f191682016040526200060b919081019062001054565b509050600081600081518110620006265762000626620013dc565b602002602001015182600181518110620006445762000644620013dc565b60200260200101516200065891906200126f565b90506200066a600385900b82620011f2565b945060008160060b1280156200069157506200068b600385900b826200132e565b60060b15155b15620006a75784620006a38162001307565b9550505b505050509392505050565b600080620006cb86620008fc60201b62001f3e1760201c565b90506001600160801b036001600160a01b0382161162000771576000620006fc6001600160a01b038316806200124d565b9050836001600160a01b0316856001600160a01b03161062000743576200073d600160c01b876001600160801b03168362000d5d60201b6200235d1760201c565b62000768565b6200076881876001600160801b0316600160c01b62000d5d60201b6200235d1760201c565b92505062000816565b6000620007a6826001600160a01b0316836001600160a01b03166801000000000000000062000d5d60201b6200235d1760201c565b9050836001600160a01b0316856001600160a01b031610620007ed57620007e7600160801b876001600160801b03168362000d5d60201b6200235d1760201c565b62000812565b6200081281876001600160801b0316600160801b62000d5d60201b6200235d1760201c565b9250505b50949350505050565b80516020808301516040808501518151948552928401919091528201527f7f422dd5cd123ccca7c61ca8286ee04cb58966e2c07631cc2b660f81713c98e59060600160405180910390a161017e805460018101825560009190915281517fd1312ee27205a4576709ff9bef36787deea9cecc546a5dcdbf697804758e1e2460039092029182015560208201517fd1312ee27205a4576709ff9bef36787deea9cecc546a5dcdbf697804758e1e258201556040909101517fd1312ee27205a4576709ff9bef36787deea9cecc546a5dcdbf697804758e1e2690910155565b60008060008360020b1262000915578260020b62000924565b8260020b620009249062001390565b905062000935620d89e7196200136a565b62ffffff168111156200096f5760405162461bcd60e51b81526020600482015260016024820152601560fa1b6044820152606401620004fb565b6000600182166200098557600160801b62000997565b6ffffcb933bd6fad37aa2d162d1a5940015b6001600160881b031690506002821615620009cf576080620009ca826ffff97272373d413259a46990580e213a6200124d565b901c90505b6004821615620009fc576080620009f7826ffff2e50f5f656932ef12357cf3c7fdcc6200124d565b901c90505b600882161562000a2957608062000a24826fffe5caca7e10e4e61c3624eaa0941cd06200124d565b901c90505b601082161562000a5657608062000a51826fffcb9843d60f6159c9db58835c9266446200124d565b901c90505b602082161562000a8357608062000a7e826fff973b41fa98c081472e6896dfb254c06200124d565b901c90505b604082161562000ab057608062000aab826fff2ea16466c96a3843ec78b326b528616200124d565b901c90505b608082161562000add57608062000ad8826ffe5dee046a99a2a811c461f1969c30536200124d565b901c90505b61010082161562000b0b57608062000b06826ffcbe86c7900a88aedcffc83b479aa3a46200124d565b901c90505b61020082161562000b3957608062000b34826ff987a7253ac413176f2b074cf7815e546200124d565b901c90505b61040082161562000b6757608062000b62826ff3392b0822b70005940c7a398e4b70f36200124d565b901c90505b61080082161562000b9557608062000b90826fe7159475a2c29b7443b29c7fa6e889d96200124d565b901c90505b61100082161562000bc357608062000bbe826fd097f3bdfd2022b8845ad8f792aa58256200124d565b901c90505b61200082161562000bf157608062000bec826fa9f746462d870fdf8a65dc1f90e061e56200124d565b901c90505b61400082161562000c1f57608062000c1a826f70d869a156d2a1b890bb3df62baf32f76200124d565b901c90505b61800082161562000c4d57608062000c48826f31be135f97d08fd981231505542fcfa66200124d565b901c90505b6201000082161562000c7c57608062000c77826f09aa508b5b7a84e1c677de54f3e99bc96200124d565b901c90505b6202000082161562000caa57608062000ca5826e5d6af8dedb81196699c329225ee6046200124d565b901c90505b6204000082161562000cd757608062000cd2826d2216e584f5fa1ea926041bedfe986200124d565b901c90505b6208000082161562000d0257608062000cfd826b048a170391f7dc42444e8fa26200124d565b901c90505b60008460020b131562000d205762000d1d8160001962001236565b90505b62000d316401000000008262001353565b1562000d3f57600162000d42565b60005b62000d559060ff16602083901c620011d7565b949350505050565b60008080600019858709858702925082811083820303915050806000141562000d9a576000841162000d8e57600080fd5b50829004905062000ef7565b80841162000da757600080fd5b60008486880980840393811190920391905060008562000dc78162001390565b1695869004959384900493600081900304600101905062000de981846200124d565b90931792600062000dfc8760036200124d565b600218905062000e0d81886200124d565b62000e1a906002620012c5565b62000e2690826200124d565b905062000e3481886200124d565b62000e41906002620012c5565b62000e4d90826200124d565b905062000e5b81886200124d565b62000e68906002620012c5565b62000e7490826200124d565b905062000e8281886200124d565b62000e8f906002620012c5565b62000e9b90826200124d565b905062000ea981886200124d565b62000eb6906002620012c5565b62000ec290826200124d565b905062000ed081886200124d565b62000edd906002620012c5565b62000ee990826200124d565b9050620006a381866200124d565b9392505050565b600082601f83011262000f1057600080fd5b8151602062000f2962000f2383620011b1565b6200117e565b80838252828201915082860187848660051b890101111562000f4a57600080fd5b60005b8581101562000f7657815162000f638162001408565b8452928401929084019060010162000f4d565b5090979650505050505050565b60006020828403121562000f9657600080fd5b815162000ef78162001408565b600080600080600080600080610100898b03121562000fc157600080fd5b885162000fce8162001408565b60208a015190985062000fe18162001408565b60408a015190975062000ff48162001408565b60608a0151909650620010078162001408565b60808a01519095506200101a8162001408565b60a08a01519094506001600160801b03811681146200103857600080fd5b60c08a015160e0909a0151989b979a5095989497939692505050565b600080604083850312156200106857600080fd5b82516001600160401b03808211156200108057600080fd5b818501915085601f8301126200109557600080fd5b81516020620010a862000f2383620011b1565b8083825282820191508286018a848660051b8901011115620010c957600080fd5b600096505b84871015620010fe5780518060060b8114620010e957600080fd5b835260019690960195918301918301620010ce565b50918801519196509093505050808211156200111957600080fd5b50620011288582860162000efe565b9150509250929050565b6020808252825182820181905260009190848201906040850190845b818110156200117257835163ffffffff16835292840192918401916001016200114e565b50909695505050505050565b604051601f8201601f191681016001600160401b0381118282101715620011a957620011a9620013f2565b604052919050565b60006001600160401b03821115620011cd57620011cd620013f2565b5060051b60200190565b60008219821115620011ed57620011ed620013b0565b500190565b60008160060b8360060b806200120c576200120c620013c6565b667fffffffffffff198214600019821416156200122d576200122d620013b0565b90059392505050565b600082620012485762001248620013c6565b500490565b60008160001904831182151516156200126a576200126a620013b0565b500290565b60008160060b8360060b6000811281667fffffffffffff19018312811516156200129d576200129d620013b0565b81667fffffffffffff018313811615620012bb57620012bb620013b0565b5090039392505050565b600082821015620012da57620012da620013b0565b500390565b600063ffffffff83811690831681811015620012ff57620012ff620013b0565b039392505050565b60008160020b627fffff19811415620013245762001324620013b0565b6000190192915050565b60008260060b80620013445762001344620013c6565b808360060b0791505092915050565b600082620013655762001365620013c6565b500690565b60008160020b627fffff19811415620013875762001387620013b0565b60000392915050565b6000600160ff1b821415620013a957620013a9620013b0565b5060000390565b634e487b7160e01b600052601160045260246000fd5b634e487b7160e01b600052601260045260246000fd5b634e487b7160e01b600052603260045260246000fd5b634e487b7160e01b600052604160045260246000fd5b6001600160a01b03811681146200141e57600080fd5b50565b60805160601c60a05160c05160e05160601c6101005160601c6101205160601c6101405160601c6101605160801c6101805160601c6101a05160f81c614ad96200155d6000396000612c7e01526000612df6015260006115ad01526000818161065e01526115ef01526000818161057001526115ce0152600081816105490152612cdc0152600081816106d8015281816114ac0152612ac80152600081816104630152818161141c0152818161161c01528181612a4801528181612b7101528181612c470152612d71015260008181610712015281816113ce015261153f01526000818161050001528181610815015281816109ea01528181610d7d01528181610f5e0152818161104d015281816111d401528181611296015281816116b4015281816118400152818161194b0152611b4a0152614ad96000f3fe608060405234801561001057600080fd5b506004361061036d5760003560e01c80638b759831116101d3578063cfebbc7611610104578063f0d2d5a8116100a2578063fbaca1131161007c578063fbaca113146107bc578063fbefb4b9146107c6578063fd84e4de146107d0578063ff1e62f0146107d957600080fd5b8063f0d2d5a81461078c578063f333fe131461079f578063f8fecbc4146107a957600080fd5b8063e06fc927116100de578063e06fc9271461075b578063e07b877a14610765578063e6b44e521461076f578063e8fd2b771461077957600080fd5b8063cfebbc7614610734578063d28d04fb14610747578063de51da071461075157600080fd5b8063b29fa9c311610171578063b77461a51161014b578063b77461a5146106cb578063bf8f1d5a146106d3578063c99d3a06146106fa578063ca2e4f1d1461070d57600080fd5b8063b29fa9c31461069a578063b4f40c61146106ae578063b66a261c146106b857600080fd5b8063999b93af116101ad578063999b93af14610659578063a035b1fe14610680578063a2e6204514610688578063a83627de1461069057600080fd5b80638b7598311461061d5780638d5a63de1461062757806394f6684c1461064f57600080fd5b80634187b7d6116102ad5780635dedde6d1161024b578063683009811161022557806368300981146105ee578063767ac369146105f85780637b2aab031461060b578063841ee57d1461061557600080fd5b80635dedde6d146105c05780636261a6b9146105c857806367de8be9146105db57600080fd5b80635001f3b5116102875780635001f3b51461056b57806358152d0714610592578063582183b21461059a57806358c489bd146105ad57600080fd5b80634187b7d6146104fb57806341a3a0921461053a57806343e4a2731461054457600080fd5b80631827696d1161031a5780632acb3810116102f45780632acb3810146104855780632c9c34b91461048f578063373e056b146104c4578063401d56d2146104cd57600080fd5b80631827696d14610448578063205f4711146104555780632869f9651461045e57600080fd5b80630ee21e541161034b5780630ee21e54146103ca5780630f293839146103fe5780630fce79531461043e57600080fd5b806308c2e2251461037257806309163014146103875780630a88bd04146103a2575b600080fd5b61038561038036600461469f565b6107ec565b005b61038f6108fd565b6040519081526020015b60405180910390f35b6103b56103b036600461467d565b610910565b60408051928352602083019190915201610399565b6103ee6103d8366004614487565b6101826020526000908152604090205460ff1681565b6040519015158152602001610399565b61041161040c3660046145b5565b61094e565b604080519687526020870195909552938501929092526060840152608083015260a082015260c001610399565b61038f6101815481565b61038f655af3107a400081565b61038f60005481565b61038f7f000000000000000000000000000000000000000000000000000000000000000081565b61038f6101775481565b6104a261049d36600461464b565b610b2d565b6040805182518152602080840151908201529181015190820152606001610399565b61017e5461038f565b6104e06104db366004614589565b610c15565b60408051938452602084019290925290820152606001610399565b6105227f000000000000000000000000000000000000000000000000000000000000000081565b6040516001600160a01b039091168152602001610399565b61038f61016c5481565b6105227f000000000000000000000000000000000000000000000000000000000000000081565b6105227f000000000000000000000000000000000000000000000000000000000000000081565b6103b5610d3c565b6103856105a836600461464b565b610d54565b6104e06105bb36600461464b565b610e9a565b61038f610ec1565b6104e06105d6366004614589565b610ed4565b6103856105e936600461464b565b610f35565b61038f6101725481565b61038561060636600461467d565b611024565b61038f61017d5481565b6103856111ab565b61038f6101745481565b61062f611355565b604080519485526020850193909352918301526060820152608001610399565b61038f61017c5481565b6105227f000000000000000000000000000000000000000000000000000000000000000081565b6104a2611385565b610385611681565b61038f61017b5481565b61017f54610522906001600160a01b031681565b61038f6101795481565b6103856106c636600461464b565b61168b565b61038f61177a565b6105227f000000000000000000000000000000000000000000000000000000000000000081565b610385610708366004614487565b611817565b61038f7f000000000000000000000000000000000000000000000000000000000000000081565b6103856107423660046146e2565b611922565b61038f6101715481565b61038f61016f5481565b61038f6101705481565b61038f6101805481565b61038f61016b5481565b6103856107873660046145ea565b611a4b565b61038561079a366004614487565b611b21565b61038f6101785481565b6104e06107b736600461464b565b611c2f565b61038f6101735481565b61038f61017a5481565b61038f60015481565b61038f6107e736600461464b565b611c3f565b604051632474521560e21b8152600080516020614a8483398151915260048201523360248201527f00000000000000000000000000000000000000000000000000000000000000006001600160a01b0316906391d148549060440160206040518083038186803b15801561085f57600080fd5b505afa158015610873573d6000803e3d6000fd5b505050506040513d601f19601f82011682018060405250810190610897919061456c565b6108da5760405162461bcd60e51b815260206004820152600f60248201526e27ab262b189d10b3b7bb32b93737b960891b60448201526064015b60405180910390fd5b61016b9590955561016c9390935561016a91909155610171556101705561016f55565b6000610907611355565b50909392505050565b610173546000908190806109248587614940565b61092e9190614895565b925061093a81846148a9565b6109449085614819565b9150509250929050565b33600090815261018260205260408120548190819081908190819060ff166109ac5760405162461bcd60e51b815260206004820152601160248201527013d593158c4e8858dbdb1b185d195c985b607a1b60448201526064016108d1565b6109b46124ce565b61017e546109c490600190614940565b905060006109d2888a6148a9565b90506000806109e18c8461252e565b91509150610a807f00000000000000000000000000000000000000000000000000000000000000006001600160a01b031663ddca3f436040518163ffffffff1660e01b815260040160206040518083038186803b158015610a4157600080fd5b505afa158015610a55573d6000803e3d6000fd5b505050506040513d601f19601f82011682018060405250810190610a799190614664565b8490612580565b95508194508585655af3107a4000610a989190614819565b610aa29190614819565b8b1015610ae45760405162461bcd60e51b815260206004820152601060248201526f27ab262b189d31b7b63630ba1e36b4b760811b60448201526064016108d1565b85610aef838d614940565b610af99190614940565b9750610b058a896148a9565b9850610b11888a614940565b9650610b1e8c8a836125ca565b50505093975093979195509350565b610b5160405180606001604052806000815260200160008152602001600081525090565b61017e5480831080610b6f57508083148015610b6f57504261017d54145b610baa5760405162461bcd60e51b815260206004820152600c60248201526b4f564c56313a21707269636560a01b60448201526064016108d1565b80831415610bc157610bba611385565b9150610c0f565b61017e8381548110610bd557610bd5614a31565b9060005260206000209060030201604051806060016040529081600082015481526020016001820154815260200160028201548152505091505b50919050565b33600090815261018260205260408120548190819060ff16610c6d5760405162461bcd60e51b815260206004820152601160248201527013d593158c4e8858dbdb1b185d195c985b607a1b60448201526064016108d1565b610c756124ce565b600061017e8581548110610c8b57610c8b614a31565b90600052602060002090600302019050600061017e600161017e80549050610cb39190614940565b81548110610cc357610cc3614a31565b9060005260206000209060030201905086610ced5781546001820154610ce8916126b4565b610d0b565b60018201548154610d0b91610d02919061272d565b6101815461277f565b92508615610d255761017554610177549095509350610d33565b610176546101785490955093505b50509250925092565b600080610d4c4261017454610910565b915091509091565b604051632474521560e21b8152600080516020614a8483398151915260048201523360248201527f00000000000000000000000000000000000000000000000000000000000000006001600160a01b0316906391d148549060440160206040518083038186803b158015610dc757600080fd5b505afa158015610ddb573d6000803e3d6000fd5b505050506040513d601f19601f82011682018060405250810190610dff919061456c565b610e3d5760405162461bcd60e51b815260206004820152600f60248201526e27ab262b189d10b3b7bb32b93737b960891b60448201526064016108d1565b80670de0b6b3a764000010610e945760405162461bcd60e51b815260206004820152601160248201527f4f564c56313a2170726963654672616d6500000000000000000000000000000060448201526064016108d1565b61018155565b60b681603c8110610eaa57600080fd5b600302018054600182015460029092015490925083565b6000610ecb611355565b50919392505050565b600080600080610ee74261017454610910565b509050610ef48686612795565b9150600080600080610f05856128b5565b93509350935093508915610f20578397508782975050610f29565b82975087819750505b50505050509250925092565b604051632474521560e21b8152600080516020614a8483398151915260048201523360248201527f00000000000000000000000000000000000000000000000000000000000000006001600160a01b0316906391d148549060440160206040518083038186803b158015610fa857600080fd5b505afa158015610fbc573d6000803e3d6000fd5b505050506040513d601f19601f82011682018060405250810190610fe0919061456c565b61101e5760405162461bcd60e51b815260206004820152600f60248201526e27ab262b189d10b3b7bb32b93737b960891b60448201526064016108d1565b61017955565b604051632474521560e21b8152600080516020614a8483398151915260048201523360248201527f00000000000000000000000000000000000000000000000000000000000000006001600160a01b0316906391d148549060440160206040518083038186803b15801561109757600080fd5b505afa1580156110ab573d6000803e3d6000fd5b505050506040513d601f19601f820116820180604052508101906110cf919061456c565b61110d5760405162461bcd60e51b815260206004820152600f60248201526e27ab262b189d10b3b7bb32b93737b960891b60448201526064016108d1565b600182101561114e5760405162461bcd60e51b815260206004820152600d60248201526c4f564c56313a2175706461746560981b60448201526064016108d1565b8082111561119e5760405162461bcd60e51b815260206004820152601560248201527f4f564c56313a7570646174653e636f6d706f756e64000000000000000000000060448201526064016108d1565b61017b9190915561017355565b604051632474521560e21b8152600080516020614a8483398151915260048201523360248201527f00000000000000000000000000000000000000000000000000000000000000006001600160a01b0316906391d148549060440160206040518083038186803b15801561121e57600080fd5b505afa158015611232573d6000803e3d6000fd5b505050506040513d601f19601f82011682018060405250810190611256919061456c565b6112945760405162461bcd60e51b815260206004820152600f60248201526e27ab262b189d10b3b7bb32b93737b960891b60448201526064016108d1565b7f00000000000000000000000000000000000000000000000000000000000000006001600160a01b031663b29fa9c36040518163ffffffff1660e01b815260040160206040518083038186803b1580156112ed57600080fd5b505afa158015611301573d6000803e3d6000fd5b505050506040513d601f19601f82011682018060405250810190611325919061462e565b61017f805473ffffffffffffffffffffffffffffffffffffffff19166001600160a01b0392909216919091179055565b600080600080600061136a4261017454610910565b509050611376816128b5565b92989197509550909350915050565b6113a960405180606001604052806000815260200160008152602001600081525090565b60408051600380825260808201909252600091602082016060803683370190505090507f00000000000000000000000000000000000000000000000000000000000000008160008151811061140057611400614a31565b602002602001019063ffffffff16908163ffffffff16815250507f00000000000000000000000000000000000000000000000000000000000000008160018151811061144e5761144e614a31565b602002602001019063ffffffff16908163ffffffff168152505060008160028151811061147d5761147d614a31565b63ffffffff9092166020928302919091019091015260405163883bdbfd60e01b81526000906001600160a01b037f0000000000000000000000000000000000000000000000000000000000000000169063883bdbfd906114e1908590600401614754565b60006040518083038186803b1580156114f957600080fd5b505afa15801561150d573d6000803e3d6000fd5b505050506040513d6000823e601f3d908101601f1916820160405261153591908101906144a4565b50905060006116137f000000000000000000000000000000000000000000000000000000000000000060030b8360008151811061157457611574614a31565b60200260200101518460028151811061158f5761158f614a31565b60200260200101516115a191906148c8565b6115ab9190614831565b7f00000000000000000000000000000000000000000000000000000000000000007f00000000000000000000000000000000000000000000000000000000000000007f0000000000000000000000000000000000000000000000000000000000000000611e30565b9050600061166c7f000000000000000000000000000000000000000000000000000000000000000060030b8460018151811061165157611651614a31565b60200260200101518560028151811061158f5761158f614a31565b905061167881836128e8565b94505050505090565b6116896124ce565b565b604051632474521560e21b8152600080516020614a8483398151915260048201523360248201527f00000000000000000000000000000000000000000000000000000000000000006001600160a01b0316906391d148549060440160206040518083038186803b1580156116fe57600080fd5b505afa158015611712573d6000803e3d6000fd5b505050506040513d601f19601f82011682018060405250810190611736919061456c565b6117745760405162461bcd60e51b815260206004820152600f60248201526e27ab262b189d10b3b7bb32b93737b960891b60448201526064016108d1565b61017a55565b6000806000611787612991565b610171549193509150828211156117b4576117ac61016a546117a7612a21565b61277f565b935050505090565b6117be8284614940565b92506117cb8160026148a9565b8311156117dc576000935050505090565b61016a54600090611809906117f1868561272d565b61180390671bc16d674ec80000614940565b90612580565b9050611678816117a7612a21565b604051632474521560e21b8152600080516020614a8483398151915260048201523360248201527f00000000000000000000000000000000000000000000000000000000000000006001600160a01b0316906391d148549060440160206040518083038186803b15801561188a57600080fd5b505afa15801561189e573d6000803e3d6000fd5b505050506040513d601f19601f820116820180604052508101906118c2919061456c565b6119005760405162461bcd60e51b815260206004820152600f60248201526e27ab262b189d10b3b7bb32b93737b960891b60448201526064016108d1565b6001600160a01b0316600090815261018260205260409020805460ff19169055565b604051632474521560e21b8152600080516020614a8483398151915260048201523360248201527f00000000000000000000000000000000000000000000000000000000000000006001600160a01b0316906391d148549060440160206040518083038186803b15801561199557600080fd5b505afa1580156119a9573d6000803e3d6000fd5b505050506040513d601f19601f820116820180604052508101906119cd919061456c565b611a0b5760405162461bcd60e51b815260206004820152600f60248201526e27ab262b189d10b3b7bb32b93737b960891b60448201526064016108d1565b611a148b610f35565b611a1d8a610d54565b611a268961168b565b611a308888611024565b611a3e8686868686866107ec565b5050505050505050505050565b336000908152610182602052604090205460ff16611a9f5760405162461bcd60e51b815260206004820152601160248201527013d593158c4e8858dbdb1b185d195c985b607a1b60448201526064016108d1565b611aa98282612e64565b8415611ae757836101756000828254611ac29190614940565b925050819055836101776000828254611adb9190614940565b90915550611b1a915050565b836101766000828254611afa9190614940565b925050819055836101786000828254611b139190614940565b9091555050505b5050505050565b604051632474521560e21b8152600080516020614a8483398151915260048201523360248201527f00000000000000000000000000000000000000000000000000000000000000006001600160a01b0316906391d148549060440160206040518083038186803b158015611b9457600080fd5b505afa158015611ba8573d6000803e3d6000fd5b505050506040513d601f19601f82011682018060405250810190611bcc919061456c565b611c0a5760405162461bcd60e51b815260206004820152600f60248201526e27ab262b189d10b3b7bb32b93737b960891b60448201526064016108d1565b6001600160a01b0316600090815261018260205260409020805460ff19166001179055565b600281603c8110610eaa57600080fd5b61016d8160028110611c5057600080fd5b0154905081565b600080611c648385614957565b905063ffffffff8116611c9e5760405162461bcd60e51b8152602060048201526002602482015261042560f41b60448201526064016108d1565b6040805160028082526060820183526000926020830190803683370190505090508481600081518110611cd357611cd3614a31565b602002602001019063ffffffff16908163ffffffff16815250508381600181518110611d0157611d01614a31565b63ffffffff9092166020928302919091019091015260405163883bdbfd60e01b81526000906001600160a01b0388169063883bdbfd90611d45908590600401614754565b60006040518083038186803b158015611d5d57600080fd5b505afa158015611d71573d6000803e3d6000fd5b505050506040513d6000823e601f3d908101601f19168201604052611d9991908101906144a4565b509050600081600081518110611db157611db1614a31565b602002602001015182600181518110611dcc57611dcc614a31565b6020026020010151611dde91906148c8565b9050611dee600385900b82614831565b945060008160060b128015611e125750611e0c600385900b82614998565b60060b15155b15611e255784611e2181614974565b9550505b505050509392505050565b600080611e3c86611f3e565b90506001600160801b036001600160a01b03821611611ec2576000611e6a6001600160a01b038316806148a9565b9050836001600160a01b0316856001600160a01b031610611ea257611e9d600160c01b876001600160801b03168361235d565b611eba565b611eba81876001600160801b0316600160c01b61235d565b925050611f35565b6000611ee16001600160a01b038316806801000000000000000061235d565b9050836001600160a01b0316856001600160a01b031610611f1957611f14600160801b876001600160801b03168361235d565b611f31565b611f3181876001600160801b0316600160801b61235d565b9250505b50949350505050565b60008060008360020b12611f55578260020b611f62565b8260020b611f62906149e8565b9050611f71620d89e7196149ce565b62ffffff16811115611fa95760405162461bcd60e51b81526020600482015260016024820152601560fa1b60448201526064016108d1565b600060018216611fbd57600160801b611fcf565b6ffffcb933bd6fad37aa2d162d1a5940015b70ffffffffffffffffffffffffffffffffff169050600282161561200e576080612009826ffff97272373d413259a46990580e213a6148a9565b901c90505b6004821615612038576080612033826ffff2e50f5f656932ef12357cf3c7fdcc6148a9565b901c90505b600882161561206257608061205d826fffe5caca7e10e4e61c3624eaa0941cd06148a9565b901c90505b601082161561208c576080612087826fffcb9843d60f6159c9db58835c9266446148a9565b901c90505b60208216156120b65760806120b1826fff973b41fa98c081472e6896dfb254c06148a9565b901c90505b60408216156120e05760806120db826fff2ea16466c96a3843ec78b326b528616148a9565b901c90505b608082161561210a576080612105826ffe5dee046a99a2a811c461f1969c30536148a9565b901c90505b610100821615612135576080612130826ffcbe86c7900a88aedcffc83b479aa3a46148a9565b901c90505b61020082161561216057608061215b826ff987a7253ac413176f2b074cf7815e546148a9565b901c90505b61040082161561218b576080612186826ff3392b0822b70005940c7a398e4b70f36148a9565b901c90505b6108008216156121b65760806121b1826fe7159475a2c29b7443b29c7fa6e889d96148a9565b901c90505b6110008216156121e15760806121dc826fd097f3bdfd2022b8845ad8f792aa58256148a9565b901c90505b61200082161561220c576080612207826fa9f746462d870fdf8a65dc1f90e061e56148a9565b901c90505b614000821615612237576080612232826f70d869a156d2a1b890bb3df62baf32f76148a9565b901c90505b61800082161561226257608061225d826f31be135f97d08fd981231505542fcfa66148a9565b901c90505b6201000082161561228e576080612289826f09aa508b5b7a84e1c677de54f3e99bc96148a9565b901c90505b620200008216156122b95760806122b4826e5d6af8dedb81196699c329225ee6046148a9565b901c90505b620400008216156122e35760806122de826d2216e584f5fa1ea926041bedfe986148a9565b901c90505b6208000082161561230b576080612306826b048a170391f7dc42444e8fa26148a9565b901c90505b60008460020b13156123265761232381600019614895565b90505b612335640100000000826149ba565b15612341576001612344565b60005b6123559060ff16602083901c614819565b949350505050565b600080806000198587098587029250828110838203039150508060001415612397576000841161238c57600080fd5b5082900490506124c7565b8084116123a357600080fd5b6000848688098084039381119092039190506000856123c1816149e8565b169586900495938490049360008190030460010190506123e181846148a9565b9093179260006123f28760036148a9565b600218905061240181886148a9565b61240c906002614940565b61241690826148a9565b905061242281886148a9565b61242d906002614940565b61243790826148a9565b905061244381886148a9565b61244e906002614940565b61245890826148a9565b905061246481886148a9565b61246f906002614940565b61247990826148a9565b905061248581886148a9565b612490906002614940565b61249a90826148a9565b90506124a681886148a9565b6124b1906002614940565b6124bb90826148a9565b9050611e2181866148a9565b9392505050565b61017d5442908082146124f85760006124e5611385565b90506124f081612f88565b5061017d8290555b6000806125088461017454610910565b90925090508115612528576125206101795483613065565b506101748190555b50505050565b60008060008060008061254188886130d9565b9350935093509350612558600285856000546131f8565b60005561256587836132a3565b9550612572600087612e64565b809450505050509250929050565b60008061258d83856148a9565b90506125ae8415806125a75750836125a58684614895565b145b60036132eb565b6125c0670de0b6b3a764000082614895565b9150505b92915050565b8215612642578161017760008282546125e39190614819565b9091555050610175546000906125fa908490614819565b9050818111156126395760405162461bcd60e51b815260206004820152600a60248201526904f564c56313a3e6361760b41b60448201526064016108d1565b61017555505050565b8161017860008282546126559190614819565b90915550506101765460009061266c908490614819565b9050818111156126ab5760405162461bcd60e51b815260206004820152600a60248201526904f564c56313a3e6361760b41b60448201526064016108d1565b61017655505050565b60006126c382151560046132eb565b826126d0575060006125c4565b60006126e4670de0b6b3a7640000856148a9565b9050612704670de0b6b3a76400006126fc8684614895565b1460056132eb565b82612710600183614940565b61271a9190614895565b612725906001614819565b9150506125c4565b600061273c82151560046132eb565b82612749575060006125c4565b600061275d670de0b6b3a7640000856148a9565b9050612775670de0b6b3a76400006126fc8684614895565b6127258382614895565b600081831061278e57816124c7565b5090919050565b60008061017e83815481106127ac576127ac614a31565b90600052602060002090600302016040518060600160405290816000820154815260200160018201548152602001600282015481525050905061280960405180606001604052806000815260200160008152602001600081525090565b4261017d54146128225761281b611385565b905061287d565b61017e805461283390600190614940565b8154811061284357612843614a31565b9060005260206000209060030201604051806060016040529081600082015481526020016001820154815260200160028201548152505090505b846128975781516020820151612892916126b4565b6128ac565b602082015181516128ac91610d02919061272d565b95945050505050565b6101755461017654610177546101785484156128e1576128da848487610179546132fd565b5090945092505b9193509193565b61290c60405180606001604052806000815260200160008152602001600081525090565b600061293f61292f61017a546725b946ebc0b3635161344b90919063ffffffff16565b61293985876134a7565b906132a3565b9050600061296e61296461017a5467051af86713316a9a61344b90919063ffffffff16565b611803868861277f565b604080516060810182529182526020820193909352918201939093529392505050565b6000806000806129a860b6600154610170546134b7565b92509250508060200151826020015161016d6000600281106129cc576129cc614a31565b01546129d89190614819565b6129e29190614940565b93508060400151826040015161016d600160028110612a0357612a03614a31565b0154612a0f9190614819565b612a199190614940565b925050509091565b604080516002808252606082018352600092839291906020830190803683370190505090507f000000000000000000000000000000000000000000000000000000000000000081600081518110612a7a57612a7a614a31565b602002602001019063ffffffff16908163ffffffff1681525050600081600181518110612aa957612aa9614a31565b602002602001019063ffffffff16908163ffffffff16815250506000807f00000000000000000000000000000000000000000000000000000000000000006001600160a01b031663883bdbfd846040518263ffffffff1660e01b8152600401612b129190614754565b60006040518083038186803b158015612b2a57600080fd5b505afa158015612b3e573d6000803e3d6000fd5b505050506040513d6000823e601f3d908101601f19168201604052612b6691908101906144a4565b915091506000612be27f000000000000000000000000000000000000000000000000000000000000000060030b84600081518110612ba657612ba6614a31565b602002602001015185600181518110612bc157612bc1614a31565b6020026020010151612bd391906148c8565b612bdd9190614831565b611f3e565b6001600160a01b03169050600082600081518110612c0257612c02614a31565b602002602001015183600181518110612c1d57612c1d614a31565b6020026020010151612c2f9190614918565b612c6f906fffffffffffffffffffffffffffffffff197f000000000000000000000000000000000000000000000000000000000000000060801b1661486f565b6001600160a01b0316905060007f0000000000000000000000000000000000000000000000000000000000000000612cb457612caf82846101845461235d565b612cc2565b612cc283606084901b614895565b60405163883bdbfd60e01b81529091506001600160a01b037f0000000000000000000000000000000000000000000000000000000000000000169063883bdbfd90612d11908990600401614754565b60006040518083038186803b158015612d2957600080fd5b505afa158015612d3d573d6000803e3d6000fd5b505050506040513d6000823e601f3d908101601f19168201604052612d6591908101906144a4565b50809550506000612e1a7f000000000000000000000000000000000000000000000000000000000000000060030b87600081518110612da657612da6614a31565b602002602001015188600181518110612dc157612dc1614a31565b6020026020010151612dd391906148c8565b612ddd9190614831565b61017f54670de0b6b3a7640000906001600160a01b03167f0000000000000000000000000000000000000000000000000000000000000000611e30565b9050612e58671bc16d674ec80000612e5283612e3e86670de0b6b3a76400006148a9565b612e489190614895565b61016c54906132a3565b9061272d565b97505050505050505090565b61017254429080821115612f4b57600154600060b682603c8110612e8a57612e8a614a31565b604080516060810182526003929092029290920180546001820154602084018181526002909301549484019490945286835261016d5492945092612ecf908390614819565b90525061016e54604083018051612ee7908390614819565b905250612ef760b68383866131f8565b60015561016d87905561016e86905561016f548080612f168789614940565b612f209190614895565b612f2a91906148a9565b6101726000828254612f3c9190614819565b90915550612528945050505050565b8361016d6000016000828254612f619190614819565b9091555083905061016d6001016000828254612f7d9190614819565b909155505050505050565b80516020808301516040808501518151948552928401919091528201527f7f422dd5cd123ccca7c61ca8286ee04cb58966e2c07631cc2b660f81713c98e59060600160405180910390a161017e805460018101825560009190915281517fd1312ee27205a4576709ff9bef36787deea9cecc546a5dcdbf697804758e1e2460039092029182015560208201517fd1312ee27205a4576709ff9bef36787deea9cecc546a5dcdbf697804758e1e258201556040909101517fd1312ee27205a4576709ff9bef36787deea9cecc546a5dcdbf697804758e1e2690910155565b600080600061307c610175546101765486886132fd565b610175839055610176829055604080518481526020810184905290810182905290955091935091507fbd9b2eb2e69e8d71702753e645d1fbcda9b8473629152f5a3cbc18bc2ceecc2f9060600160405180910390a1505092915050565b6130fd60405180606001604052806000815260200160008152602001600081525090565b600080600080600080613117600260005461016b546134b7565b92509250925061312561177a565b93506000613133898661272d565b9050891561315557808360200181815161314d9190614819565b90525061316b565b80836040018181516131679190614819565b9052505b60006131ac8b61318e57836040015185604001516131899190614940565b6131a2565b836020015185602001516131a29190614940565b61016c5490612580565b905084975083985081600014156131c45760006131e8565b6131e86131d967051af86713316a9a8361344b565b670de0b6b3a7640000906136aa565b9650505050505092959194509250565b825160009083146132625761320e600183614819565b9150603c82101561325657838583603c811061322c5761322c614a31565b6003020160008201518160000155602082015181600101556040820151816002015590505061329b565b6000915083858361322c565b838583603c811061327557613275614a31565b600302016000820151816000015560208201518160010155604082015181600201559050505b509392505050565b6000806132b083856148a9565b90506132c88415806125a75750836125a58684614895565b806132d75760009150506125c4565b670de0b6b3a7640000612710600183614940565b816132f9576132f9816136c6565b5050565b600080808615801561330d575085155b1561332057506000915081905080613441565b8461333357508591508490506000613441565b60006133556131d961334e670de0b6b3a764000060026148a9565b87906132a3565b905061337361336c87670de0b6b3a76400006148a9565b829061344b565b90508787808211801590613385579091905b816133ab5760006133968585612580565b90506133a28185614940565b9550925061341c565b60006133c16133ba8486614940565b8690612580565b905060006133cf8486614819565b905060026133dd8587614940565b6133e79190614895565b965060026133f58383614819565b6133ff9190614895565b9450600261340d8383614940565b6134179190614895565b935050505b8061343157828261342c876149e8565b613435565b8183865b91985096509450505050505b9450945094915050565b600082670de0b6b3a76400001480613461575081155b156134755750670de0b6b3a76400006125c4565b60006134818484613719565b9050600061349b613494836127106132a3565b6001613803565b90506128ac8282613803565b60008183101561278e57816124c7565b60006134dd60405180606001604052806000815260200160008152602001600081525090565b61350160405180606001604052806000815260200160008152602001600081525090565b428686603c811061351457613514614a31565b600302016040518060600160405290816000820154815260200160018201548152602001600282015481525050925082600001519350600085826135589190614940565b9050808460000151116135815750825260208083015190820152604080830151908201526136a1565b8351821461358d578184525b60008061359b8a8a85613820565b815191935091508314156135b15781945061369c565b80518314156135c25780945061369c565b8151815114156135d45781945061369c565b6000826020015182602001516135ea9190614940565b90506000836040015183604001516136029190614940565b845184519192506000916136169190614940565b61362890670de0b6b3a76400006148a9565b90506000613658828760000151896136409190614940565b61365290670de0b6b3a76400006148a9565b906126b4565b90506136726136678583612580565b602088015190613803565b60208a015261368f6136848483612580565b604088015190613803565b60408a0152505050838652505b505050505b93509350939050565b60006136ba8383111560016132eb565b60006125c08385614940565b62461bcd60e51b6000908152602060045260076024526642414c23000030600a808404818106603090810160081b95839006959095019082900491820690940160101b939093010160c81b604452606490fd5b600061372c600160ff1b841060066132eb565b82613752770bce5086492111aea88f4bb1ca6bcf584181ea8059f76532841060076132eb565b826000670c7d713b49da0000831380156137735750670f43fc2c04ee000083125b156137aa57600061378384613992565b9050670de0b6b3a764000080820784020583670de0b6b3a7640000830502019150506137b8565b816137b484613aba565b0290505b670de0b6b3a764000090056137f0680238fd42c5cf03ffff1982128015906137e9575068070c1cc73b00c800008213155b60086132eb565b6137f981613e65565b9695505050505050565b6000806138108385614819565b90506124c78482101560006132eb565b61384460405180606001604052806000815260200160008152602001600081525090565b61386860405180606001604052806000815260200160008152602001600081525090565b8484603c811061387a5761387a614a31565b6003020160405180606001604052908160008201548152602001600182015481526020016002820154815250509150828260000151116138de5781518314156138c25761398a565b428152602080830151908201526040808301519082015261398a565b603c6138eb856001614819565b6138f591906149ba565b93508484603c811061390957613909614a31565b6003020160405180606001604052908160008201548152602001600182015481526020016002820154815250509150600182600001511161396b5760408051606081018252865481526001870154602082015260028701549181019190915291505b8151831161397a57508061398a565b613985858486614248565b915091505b935093915050565b670de0b6b3a7640000026000806ec097ce7bc90715b34b9f1000000000808401906ec097ce7bc90715b34b9f0fffffffff19850102816139d4576139d4614a1b565b05905060006ec097ce7bc90715b34b9f100000000082800205905081806ec097ce7bc90715b34b9f100000000081840205915060038205016ec097ce7bc90715b34b9f100000000082840205915060058205016ec097ce7bc90715b34b9f100000000082840205915060078205016ec097ce7bc90715b34b9f100000000082840205915060098205016ec097ce7bc90715b34b9f1000000000828402059150600b8205016ec097ce7bc90715b34b9f1000000000828402059150600d8205016ec097ce7bc90715b34b9f1000000000828402059150600f82050160020295945050505050565b6000670de0b6b3a7640000821215613afc57613af3826ec097ce7bc90715b34b9f100000000081613aed57613aed614a1b565b05613aba565b60000392915050565b60007e1600ef3172e58d2e933ec884fde10064c63b5372d805e203c00000000000008312613b4d57770195e54c5dd42177f53a27172fa9ec630262827000000000830592506806f05b59d3b2000000015b73011798004d755d3c8bc8e03204cf44619e0000008312613b85576b1425982cf597cd205cef7380830592506803782dace9d9000000015b606492830292026e01855144814a7ff805980ff00840008312613bcd576e01855144814a7ff805980ff008400068056bc75e2d63100000840205925068ad78ebc5ac62000000015b6b02df0ab5a80a22c61ab5a7008312613c08576b02df0ab5a80a22c61ab5a70068056bc75e2d6310000084020592506856bc75e2d631000000015b693f1fce3da636ea5cf8508312613c3f57693f1fce3da636ea5cf85068056bc75e2d631000008402059250682b5e3af16b18800000015b690127fa27722cc06cc5e28312613c7657690127fa27722cc06cc5e268056bc75e2d6310000084020592506815af1d78b58c400000015b68280e60114edb805d038312613cab5768280e60114edb805d0368056bc75e2d631000008402059250680ad78ebc5ac6200000015b680ebc5fb417461211108312613cd657680ebc5fb4174612111068056bc75e2d631000009384020592015b6808f00f760a4b2db55d8312613d0b576808f00f760a4b2db55d68056bc75e2d6310000084020592506802b5e3af16b1880000015b6806f5f17757889379378312613d40576806f5f177578893793768056bc75e2d63100000840205925068015af1d78b58c40000015b6806248f33704b2866038312613d74576806248f33704b28660368056bc75e2d63100000840205925067ad78ebc5ac620000015b6805c548670b9510e7ac8312613da8576805c548670b9510e7ac68056bc75e2d6310000084020592506756bc75e2d6310000015b600068056bc75e2d63100000840168056bc75e2d631000008086030281613dd157613dd1614a1b565b059050600068056bc75e2d63100000828002059050818068056bc75e2d63100000818402059150600382050168056bc75e2d63100000828402059150600582050168056bc75e2d63100000828402059150600782050168056bc75e2d63100000828402059150600982050168056bc75e2d63100000828402059150600b820501600202606485820105979650505050505050565b6000613e94680238fd42c5cf03ffff198312158015613e8d575068070c1cc73b00c800008313155b60096132eb565b6000821215613ecd57613ea982600003613e65565b6ec097ce7bc90715b34b9f100000000081613ec657613ec6614a1b565b0592915050565b60006806f05b59d3b20000008312613f0d57506806f05b59d3b1ffffff1990910190770195e54c5dd42177f53a27172fa9ec630262827000000000613f43565b6803782dace9d90000008312613f3f57506803782dace9d8ffffff19909101906b1425982cf597cd205cef7380613f43565b5060015b6064929092029168056bc75e2d6310000068ad78ebc5ac620000008412613f935768ad78ebc5ac61ffffff199093019268056bc75e2d631000006e01855144814a7ff805980ff008400082020590505b6856bc75e2d6310000008412613fcf576856bc75e2d630ffffff199093019268056bc75e2d631000006b02df0ab5a80a22c61ab5a70082020590505b682b5e3af16b18800000841261400957682b5e3af16b187fffff199093019268056bc75e2d63100000693f1fce3da636ea5cf85082020590505b6815af1d78b58c4000008412614043576815af1d78b58c3fffff199093019268056bc75e2d63100000690127fa27722cc06cc5e282020590505b680ad78ebc5ac6200000841261407c57680ad78ebc5ac61fffff199093019268056bc75e2d6310000068280e60114edb805d0382020590505b68056bc75e2d6310000084126140b55768056bc75e2d630fffff199093019268056bc75e2d63100000680ebc5fb4174612111082020590505b6802b5e3af16b188000084126140ee576802b5e3af16b187ffff199093019268056bc75e2d631000006808f00f760a4b2db55d82020590505b68015af1d78b58c4000084126141275768015af1d78b58c3ffff199093019268056bc75e2d631000006806f5f177578893793782020590505b68056bc75e2d631000008481019085906002908280020505918201919050600368056bc75e2d631000008783020505918201919050600468056bc75e2d631000008783020505918201919050600568056bc75e2d631000008783020505918201919050600668056bc75e2d631000008783020505918201919050600768056bc75e2d631000008783020505918201919050600868056bc75e2d631000008783020505918201919050600968056bc75e2d631000008783020505918201919050600a68056bc75e2d631000008783020505918201919050600b68056bc75e2d631000008783020505918201919050600c68056bc75e2d631000008783020505918201919050606468056bc75e2d63100000848402058502059695505050505050565b61426c60405180606001604052806000815260200160008152602001600081525090565b61429060405180606001604052806000815260200160008152602001600081525090565b6000603c61429f8560016147f3565b61ffff166142ad91906149ba565b9050600060016142be603c84614819565b6142c89190614940565b905060005b60026142d98385614819565b6142e39190614895565b9050876142f1603c836149ba565b603c811061430157614301614a31565b6003020160405180606001604052908160008201548152602001600182015481526020016002820154815250509450600185600001511161434e57614347816001614819565b92506142cd565b87603c61435c836001614819565b61436691906149ba565b603c811061437657614376614a31565b600302016040518060600160405290816000820154815260200160018201548152602001600282015481525050935060008763ffffffff168660000151111590508080156143cb5750845163ffffffff891611155b156143d65750614401565b806143ed576143e6600183614940565b92506143fb565b6143f8826001614819565b93505b506142cd565b505050935093915050565b600082601f83011261441d57600080fd5b8151602061443261442d836147cf565b61479e565b80838252828201915082860187848660051b890101111561445257600080fd5b60005b8581101561447a57815161446881614a5d565b84529284019290840190600101614455565b5090979650505050505050565b60006020828403121561449957600080fd5b81356124c781614a5d565b600080604083850312156144b757600080fd5b825167ffffffffffffffff808211156144cf57600080fd5b818501915085601f8301126144e357600080fd5b815160206144f361442d836147cf565b8083825282820191508286018a848660051b890101111561451357600080fd5b600096505b848710156145455780518060060b811461453157600080fd5b835260019690960195918301918301614518565b509188015191965090935050508082111561455f57600080fd5b506109448582860161440c565b60006020828403121561457e57600080fd5b81516124c781614a75565b6000806040838503121561459c57600080fd5b82356145a781614a75565b946020939093013593505050565b6000806000606084860312156145ca57600080fd5b83356145d581614a75565b95602085013595506040909401359392505050565b600080600080600060a0868803121561460257600080fd5b853561460d81614a75565b97602087013597506040870135966060810135965060800135945092505050565b60006020828403121561464057600080fd5b81516124c781614a5d565b60006020828403121561465d57600080fd5b5035919050565b60006020828403121561467657600080fd5b5051919050565b6000806040838503121561469057600080fd5b50508035926020909101359150565b60008060008060008060c087890312156146b857600080fd5b505084359660208601359650604086013595606081013595506080810135945060a0013592509050565b60008060008060008060008060008060006101608c8e03121561470457600080fd5b505089359b60208b01359b5060408b01359a60608101359a506080810135995060a0810135985060c0810135975060e0810135965061010081013595506101208101359450610140013592509050565b6020808252825182820181905260009190848201906040850190845b8181101561479257835163ffffffff1683529284019291840191600101614770565b50909695505050505050565b604051601f8201601f1916810167ffffffffffffffff811182821017156147c7576147c7614a47565b604052919050565b600067ffffffffffffffff8211156147e9576147e9614a47565b5060051b60200190565b600061ffff80831681851680830382111561481057614810614a05565b01949350505050565b6000821982111561482c5761482c614a05565b500190565b60008160060b8360060b8061484857614848614a1b565b667fffffffffffff1982146000198214161561486657614866614a05565b90059392505050565b60006001600160a01b038084168061488957614889614a1b565b92169190910492915050565b6000826148a4576148a4614a1b565b500490565b60008160001904831182151516156148c3576148c3614a05565b500290565b60008160060b8360060b6000811281667fffffffffffff19018312811516156148f3576148f3614a05565b81667fffffffffffff01831381161561490e5761490e614a05565b5090039392505050565b60006001600160a01b038381169083168181101561493857614938614a05565b039392505050565b60008282101561495257614952614a05565b500390565b600063ffffffff8381169083168181101561493857614938614a05565b60008160020b627fffff1981141561498e5761498e614a05565b6000190192915050565b60008260060b806149ab576149ab614a1b565b808360060b0791505092915050565b6000826149c9576149c9614a1b565b500690565b60008160020b627fffff19811415613af357613af3614a05565b6000600160ff1b8214156149fe576149fe614a05565b5060000390565b634e487b7160e01b600052601160045260246000fd5b634e487b7160e01b600052601260045260246000fd5b634e487b7160e01b600052603260045260246000fd5b634e487b7160e01b600052604160045260246000fd5b6001600160a01b0381168114614a7257600080fd5b50565b8015158114614a7257600080fdfe1a6838efa4183e08fe3607359d1259272af9d4716f65e1a7b5921f78fd5a3c6aa264697066735822122023f942ac7ccd31f89b3d62177b98f8a44745e4ab5d1a0970fcf7a7d2cf1e2c4964736f6c63430008070033",
  "bytecodeSha1": "a0502be76286e0d4f47d48ece74ffd1381e74745",
  "compiler": {
    "evm_version": "london",
    "optimizer": {
      "enabled": true,
      "runs": 400
    },
    "version": "0.8.7+commit.e28d00a7"
  },
  "contractName": "OverlayV1UniswapV3Market",
  "language": "Solidity",
  "natspec": {
    "kind": "dev",
    "methods": {
      "enterOI(bool,uint256,uint256)": {
        "details": "invoked by an overlay position contract",
        "notice": "Adds open interest to the market"
      },
      "exitOI(bool,uint256,uint256,uint256,uint256)": {
        "details": "must update two prices if the pending update was from a longtime ago in that case, a previously entered position must besettled, and the current exit price must be retrieved",
        "notice": "Removes open interest from the market",
        "params": {
          "_isLong": "is this from the short or the long side",
          "_oiShares": "the amount of oi in shares to be removed"
        }
      },
      "pricePointNextIndex()": {
        "notice": "Get the current price point index"
      }
    },
    "version": 1
  },
  "opcodes": "PUSH1 0x80 PUSH1 0x40 MSTORE CALLVALUE DUP1 ISZERO PUSH2 0x10 JUMPI PUSH1 0x0 DUP1 REVERT JUMPDEST POP PUSH1 0x4 CALLDATASIZE LT PUSH2 0x36D JUMPI PUSH1 0x0 CALLDATALOAD PUSH1 0xE0 SHR DUP1 PUSH4 0x8B759831 GT PUSH2 0x1D3 JUMPI DUP1 PUSH4 0xCFEBBC76 GT PUSH2 0x104 JUMPI DUP1 PUSH4 0xF0D2D5A8 GT PUSH2 0xA2 JUMPI DUP1 PUSH4 0xFBACA113 GT PUSH2 0x7C JUMPI DUP1 PUSH4 0xFBACA113 EQ PUSH2 0x7BC JUMPI DUP1 PUSH4 0xFBEFB4B9 EQ PUSH2 0x7C6 JUMPI DUP1 PUSH4 0xFD84E4DE EQ PUSH2 0x7D0 JUMPI DUP1 PUSH4 0xFF1E62F0 EQ PUSH2 0x7D9 JUMPI PUSH1 0x0 DUP1 REVERT JUMPDEST DUP1 PUSH4 0xF0D2D5A8 EQ PUSH2 0x78C JUMPI DUP1 PUSH4 0xF333FE13 EQ PUSH2 0x79F JUMPI DUP1 PUSH4 0xF8FECBC4 EQ PUSH2 0x7A9 JUMPI PUSH1 0x0 DUP1 REVERT JUMPDEST DUP1 PUSH4 0xE06FC927 GT PUSH2 0xDE JUMPI DUP1 PUSH4 0xE06FC927 EQ PUSH2 0x75B JUMPI DUP1 PUSH4 0xE07B877A EQ PUSH2 0x765 JUMPI DUP1 PUSH4 0xE6B44E52 EQ PUSH2 0x76F JUMPI DUP1 PUSH4 0xE8FD2B77 EQ PUSH2 0x779 JUMPI PUSH1 0x0 DUP1 REVERT JUMPDEST DUP1 PUSH4 0xCFEBBC76 EQ PUSH2 0x734 JUMPI DUP1 PUSH4 0xD28D04FB EQ PUSH2 0x747 JUMPI DUP1 PUSH4 0xDE51DA07 EQ PUSH2 0x751 JUMPI PUSH1 0x0 DUP1 REVERT JUMPDEST DUP1 PUSH4 0xB29FA9C3 GT PUSH2 0x171 JUMPI DUP1 PUSH4 0xB77461A5 GT PUSH2 0x14B JUMPI DUP1 PUSH4 0xB77461A5 EQ PUSH2 0x6CB JUMPI DUP1 PUSH4 0xBF8F1D5A EQ PUSH2 0x6D3 JUMPI DUP1 PUSH4 0xC99D3A06 EQ PUSH2 0x6FA JUMPI DUP1 PUSH4 0xCA2E4F1D EQ PUSH2 0x70D JUMPI PUSH1 0x0 DUP1 REVERT JUMPDEST DUP1 PUSH4 0xB29FA9C3 EQ PUSH2 0x69A JUMPI DUP1 PUSH4 0xB4F40C61 EQ PUSH2 0x6AE JUMPI DUP1 PUSH4 0xB66A261C EQ PUSH2 0x6B8 JUMPI PUSH1 0x0 DUP1 REVERT JUMPDEST DUP1 PUSH4 0x999B93AF GT PUSH2 0x1AD JUMPI DUP1 PUSH4 0x999B93AF EQ PUSH2 0x659 JUMPI DUP1 PUSH4 0xA035B1FE EQ PUSH2 0x680 JUMPI DUP1 PUSH4 0xA2E62045 EQ PUSH2 0x688 JUMPI DUP1 PUSH4 0xA83627DE EQ PUSH2 0x690 JUMPI PUSH1 0x0 DUP1 REVERT JUMPDEST DUP1 PUSH4 0x8B759831 EQ PUSH2 0x61D JUMPI DUP1 PUSH4 0x8D5A63DE EQ PUSH2 0x627 JUMPI DUP1 PUSH4 0x94F6684C EQ PUSH2 0x64F JUMPI PUSH1 0x0 DUP1 REVERT JUMPDEST DUP1 PUSH4 0x4187B7D6 GT PUSH2 0x2AD JUMPI DUP1 PUSH4 0x5DEDDE6D GT PUSH2 0x24B JUMPI DUP1 PUSH4 0x68300981 GT PUSH2 0x225 JUMPI DUP1 PUSH4 0x68300981 EQ PUSH2 0x5EE JUMPI DUP1 PUSH4 0x767AC369 EQ PUSH2 0x5F8 JUMPI DUP1 PUSH4 0x7B2AAB03 EQ PUSH2 0x60B JUMPI DUP1 PUSH4 0x841EE57D EQ PUSH2 0x615 JUMPI PUSH1 0x0 DUP1 REVERT JUMPDEST DUP1 PUSH4 0x5DEDDE6D EQ PUSH2 0x5C0 JUMPI DUP1 PUSH4 0x6261A6B9 EQ PUSH2 0x5C8 JUMPI DUP1 PUSH4 0x67DE8BE9 EQ PUSH2 0x5DB JUMPI PUSH1 0x0 DUP1 REVERT JUMPDEST DUP1 PUSH4 0x5001F3B5 GT PUSH2 0x287 JUMPI DUP1 PUSH4 0x5001F3B5 EQ PUSH2 0x56B JUMPI DUP1 PUSH4 0x58152D07 EQ PUSH2 0x592 JUMPI DUP1 PUSH4 0x582183B2 EQ PUSH2 0x59A JUMPI DUP1 PUSH4 0x58C489BD EQ PUSH2 0x5AD JUMPI PUSH1 0x0 DUP1 REVERT JUMPDEST DUP1 PUSH4 0x4187B7D6 EQ PUSH2 0x4FB JUMPI DUP1 PUSH4 0x41A3A092 EQ PUSH2 0x53A JUMPI DUP1 PUSH4 0x43E4A273 EQ PUSH2 0x544 JUMPI PUSH1 0x0 DUP1 REVERT JUMPDEST DUP1 PUSH4 0x1827696D GT PUSH2 0x31A JUMPI DUP1 PUSH4 0x2ACB3810 GT PUSH2 0x2F4 JUMPI DUP1 PUSH4 0x2ACB3810 EQ PUSH2 0x485 JUMPI DUP1 PUSH4 0x2C9C34B9 EQ PUSH2 0x48F JUMPI DUP1 PUSH4 0x373E056B EQ PUSH2 0x4C4 JUMPI DUP1 PUSH4 0x401D56D2 EQ PUSH2 0x4CD JUMPI PUSH1 0x0 DUP1 REVERT JUMPDEST DUP1 PUSH4 0x1827696D EQ PUSH2 0x448 JUMPI DUP1 PUSH4 0x205F4711 EQ PUSH2 0x455 JUMPI DUP1 PUSH4 0x2869F965 EQ PUSH2 0x45E JUMPI PUSH1 0x0 DUP1 REVERT JUMPDEST DUP1 PUSH4 0xEE21E54 GT PUSH2 0x34B JUMPI DUP1 PUSH4 0xEE21E54 EQ PUSH2 0x3CA JUMPI DUP1 PUSH4 0xF293839 EQ PUSH2 0x3FE JUMPI DUP1 PUSH4 0xFCE7953 EQ PUSH2 0x43E JUMPI PUSH1 0x0 DUP1 REVERT JUMPDEST DUP1 PUSH4 0x8C2E225 EQ PUSH2 0x372 JUMPI DUP1 PUSH4 0x9163014 EQ PUSH2 0x387 JUMPI DUP1 PUSH4 0xA88BD04 EQ PUSH2 0x3A2 JUMPI JUMPDEST PUSH1 0x0 DUP1 REVERT JUMPDEST PUSH2 0x385 PUSH2 0x380 CALLDATASIZE PUSH1 0x4 PUSH2 0x469F JUMP JUMPDEST PUSH2 0x7EC JUMP JUMPDEST STOP JUMPDEST PUSH2 0x38F PUSH2 0x8FD JUMP JUMPDEST PUSH1 0x40 MLOAD SWAP1 DUP2 MSTORE PUSH1 0x20 ADD JUMPDEST PUSH1 0x40 MLOAD DUP1 SWAP2 SUB SWAP1 RETURN JUMPDEST PUSH2 0x3B5 PUSH2 0x3B0 CALLDATASIZE PUSH1 0x4 PUSH2 0x467D JUMP JUMPDEST PUSH2 0x910 JUMP JUMPDEST PUSH1 0x40 DUP1 MLOAD SWAP3 DUP4 MSTORE PUSH1 0x20 DUP4 ADD SWAP2 SWAP1 SWAP2 MSTORE ADD PUSH2 0x399 JUMP JUMPDEST PUSH2 0x3EE PUSH2 0x3D8 CALLDATASIZE PUSH1 0x4 PUSH2 0x4487 JUMP JUMPDEST PUSH2 0x182 PUSH1 0x20 MSTORE PUSH1 0x0 SWAP1 DUP2 MSTORE PUSH1 0x40 SWAP1 KECCAK256 SLOAD PUSH1 0xFF AND DUP2 JUMP JUMPDEST PUSH1 0x40 MLOAD SWAP1 ISZERO ISZERO DUP2 MSTORE PUSH1 0x20 ADD PUSH2 0x399 JUMP JUMPDEST PUSH2 0x411 PUSH2 0x40C CALLDATASIZE PUSH1 0x4 PUSH2 0x45B5 JUMP JUMPDEST PUSH2 0x94E JUMP JUMPDEST PUSH1 0x40 DUP1 MLOAD SWAP7 DUP8 MSTORE PUSH1 0x20 DUP8 ADD SWAP6 SWAP1 SWAP6 MSTORE SWAP4 DUP6 ADD SWAP3 SWAP1 SWAP3 MSTORE PUSH1 0x60 DUP5 ADD MSTORE PUSH1 0x80 DUP4 ADD MSTORE PUSH1 0xA0 DUP3 ADD MSTORE PUSH1 0xC0 ADD PUSH2 0x399 JUMP JUMPDEST PUSH2 0x38F PUSH2 0x181 SLOAD DUP2 JUMP JUMPDEST PUSH2 0x38F PUSH6 0x5AF3107A4000 DUP2 JUMP JUMPDEST PUSH2 0x38F PUSH1 0x0 SLOAD DUP2 JUMP JUMPDEST PUSH2 0x38F PUSH32 0x0 DUP2 JUMP JUMPDEST PUSH2 0x38F PUSH2 0x177 SLOAD DUP2 JUMP JUMPDEST PUSH2 0x4A2 PUSH2 0x49D CALLDATASIZE PUSH1 0x4 PUSH2 0x464B JUMP JUMPDEST PUSH2 0xB2D JUMP JUMPDEST PUSH1 0x40 DUP1 MLOAD DUP3 MLOAD DUP2 MSTORE PUSH1 0x20 DUP1 DUP5 ADD MLOAD SWAP1 DUP3 ADD MSTORE SWAP2 DUP2 ADD MLOAD SWAP1 DUP3 ADD MSTORE PUSH1 0x60 ADD PUSH2 0x399 JUMP JUMPDEST PUSH2 0x17E SLOAD PUSH2 0x38F JUMP JUMPDEST PUSH2 0x4E0 PUSH2 0x4DB CALLDATASIZE PUSH1 0x4 PUSH2 0x4589 JUMP JUMPDEST PUSH2 0xC15 JUMP JUMPDEST PUSH1 0x40 DUP1 MLOAD SWAP4 DUP5 MSTORE PUSH1 0x20 DUP5 ADD SWAP3 SWAP1 SWAP3 MSTORE SWAP1 DUP3 ADD MSTORE PUSH1 0x60 ADD PUSH2 0x399 JUMP JUMPDEST PUSH2 0x522 PUSH32 0x0 DUP2 JUMP JUMPDEST PUSH1 0x40 MLOAD PUSH1 0x1 PUSH1 0x1 PUSH1 0xA0 SHL SUB SWAP1 SWAP2 AND DUP2 MSTORE PUSH1 0x20 ADD PUSH2 0x399 JUMP JUMPDEST PUSH2 0x38F PUSH2 0x16C SLOAD DUP2 JUMP JUMPDEST PUSH2 0x522 PUSH32 0x0 DUP2 JUMP JUMPDEST PUSH2 0x522 PUSH32 0x0 DUP2 JUMP JUMPDEST PUSH2 0x3B5 PUSH2 0xD3C JUMP JUMPDEST PUSH2 0x385 PUSH2 0x5A8 CALLDATASIZE PUSH1 0x4 PUSH2 0x464B JUMP JUMPDEST PUSH2 0xD54 JUMP JUMPDEST PUSH2 0x4E0 PUSH2 0x5BB CALLDATASIZE PUSH1 0x4 PUSH2 0x464B JUMP JUMPDEST PUSH2 0xE9A JUMP JUMPDEST PUSH2 0x38F PUSH2 0xEC1 JUMP JUMPDEST PUSH2 0x4E0 PUSH2 0x5D6 CALLDATASIZE PUSH1 0x4 PUSH2 0x4589 JUMP JUMPDEST PUSH2 0xED4 JUMP JUMPDEST PUSH2 0x385 PUSH2 0x5E9 CALLDATASIZE PUSH1 0x4 PUSH2 0x464B JUMP JUMPDEST PUSH2 0xF35 JUMP JUMPDEST PUSH2 0x38F PUSH2 0x172 SLOAD DUP2 JUMP JUMPDEST PUSH2 0x385 PUSH2 0x606 CALLDATASIZE PUSH1 0x4 PUSH2 0x467D JUMP JUMPDEST PUSH2 0x1024 JUMP JUMPDEST PUSH2 0x38F PUSH2 0x17D SLOAD DUP2 JUMP JUMPDEST PUSH2 0x385 PUSH2 0x11AB JUMP JUMPDEST PUSH2 0x38F PUSH2 0x174 SLOAD DUP2 JUMP JUMPDEST PUSH2 0x62F PUSH2 0x1355 JUMP JUMPDEST PUSH1 0x40 DUP1 MLOAD SWAP5 DUP6 MSTORE PUSH1 0x20 DUP6 ADD SWAP4 SWAP1 SWAP4 MSTORE SWAP2 DUP4 ADD MSTORE PUSH1 0x60 DUP3 ADD MSTORE PUSH1 0x80 ADD PUSH2 0x399 JUMP JUMPDEST PUSH2 0x38F PUSH2 0x17C SLOAD DUP2 JUMP JUMPDEST PUSH2 0x522 PUSH32 0x0 DUP2 JUMP JUMPDEST PUSH2 0x4A2 PUSH2 0x1385 JUMP JUMPDEST PUSH2 0x385 PUSH2 0x1681 JUMP JUMPDEST PUSH2 0x38F PUSH2 0x17B SLOAD DUP2 JUMP JUMPDEST PUSH2 0x17F SLOAD PUSH2 0x522 SWAP1 PUSH1 0x1 PUSH1 0x1 PUSH1 0xA0 SHL SUB AND DUP2 JUMP JUMPDEST PUSH2 0x38F PUSH2 0x179 SLOAD DUP2 JUMP JUMPDEST PUSH2 0x385 PUSH2 0x6C6 CALLDATASIZE PUSH1 0x4 PUSH2 0x464B JUMP JUMPDEST PUSH2 0x168B JUMP JUMPDEST PUSH2 0x38F PUSH2 0x177A JUMP JUMPDEST PUSH2 0x522 PUSH32 0x0 DUP2 JUMP JUMPDEST PUSH2 0x385 PUSH2 0x708 CALLDATASIZE PUSH1 0x4 PUSH2 0x4487 JUMP JUMPDEST PUSH2 0x1817 JUMP JUMPDEST PUSH2 0x38F PUSH32 0x0 DUP2 JUMP JUMPDEST PUSH2 0x385 PUSH2 0x742 CALLDATASIZE PUSH1 0x4 PUSH2 0x46E2 JUMP JUMPDEST PUSH2 0x1922 JUMP JUMPDEST PUSH2 0x38F PUSH2 0x171 SLOAD DUP2 JUMP JUMPDEST PUSH2 0x38F PUSH2 0x16F SLOAD DUP2 JUMP JUMPDEST PUSH2 0x38F PUSH2 0x170 SLOAD DUP2 JUMP JUMPDEST PUSH2 0x38F PUSH2 0x180 SLOAD DUP2 JUMP JUMPDEST PUSH2 0x38F PUSH2 0x16B SLOAD DUP2 JUMP JUMPDEST PUSH2 0x385 PUSH2 0x787 CALLDATASIZE PUSH1 0x4 PUSH2 0x45EA JUMP JUMPDEST PUSH2 0x1A4B JUMP JUMPDEST PUSH2 0x385 PUSH2 0x79A CALLDATASIZE PUSH1 0x4 PUSH2 0x4487 JUMP JUMPDEST PUSH2 0x1B21 JUMP JUMPDEST PUSH2 0x38F PUSH2 0x178 SLOAD DUP2 JUMP JUMPDEST PUSH2 0x4E0 PUSH2 0x7B7 CALLDATASIZE PUSH1 0x4 PUSH2 0x464B JUMP JUMPDEST PUSH2 0x1C2F JUMP JUMPDEST PUSH2 0x38F PUSH2 0x173 SLOAD DUP2 JUMP JUMPDEST PUSH2 0x38F PUSH2 0x17A SLOAD DUP2 JUMP JUMPDEST PUSH2 0x38F PUSH1 0x1 SLOAD DUP2 JUMP JUMPDEST PUSH2 0x38F PUSH2 0x7E7 CALLDATASIZE PUSH1 0x4 PUSH2 0x464B JUMP JUMPDEST PUSH2 0x1C3F JUMP JUMPDEST PUSH1 0x40 MLOAD PUSH4 0x24745215 PUSH1 0xE2 SHL DUP2 MSTORE PUSH1 0x0 DUP1 MLOAD PUSH1 0x20 PUSH2 0x4A84 DUP4 CODECOPY DUP2 MLOAD SWAP2 MSTORE PUSH1 0x4 DUP3 ADD MSTORE CALLER PUSH1 0x24 DUP3 ADD MSTORE PUSH32 0x0 PUSH1 0x1 PUSH1 0x1 PUSH1 0xA0 SHL SUB AND SWAP1 PUSH4 0x91D14854 SWAP1 PUSH1 0x44 ADD PUSH1 0x20 PUSH1 0x40 MLOAD DUP1 DUP4 SUB DUP2 DUP7 DUP1 EXTCODESIZE ISZERO DUP1 ISZERO PUSH2 0x85F JUMPI PUSH1 0x0 DUP1 REVERT JUMPDEST POP GAS STATICCALL ISZERO DUP1 ISZERO PUSH2 0x873 JUMPI RETURNDATASIZE PUSH1 0x0 DUP1 RETURNDATACOPY RETURNDATASIZE PUSH1 0x0 REVERT JUMPDEST POP POP POP POP PUSH1 0x40 MLOAD RETURNDATASIZE PUSH1 0x1F NOT PUSH1 0x1F DUP3 ADD AND DUP3 ADD DUP1 PUSH1 0x40 MSTORE POP DUP2 ADD SWAP1 PUSH2 0x897 SWAP2 SWAP1 PUSH2 0x456C JUMP JUMPDEST PUSH2 0x8DA JUMPI PUSH1 0x40 MLOAD PUSH3 0x461BCD PUSH1 0xE5 SHL DUP2 MSTORE PUSH1 0x20 PUSH1 0x4 DUP3 ADD MSTORE PUSH1 0xF PUSH1 0x24 DUP3 ADD MSTORE PUSH15 0x27AB262B189D10B3B7BB32B93737B9 PUSH1 0x89 SHL PUSH1 0x44 DUP3 ADD MSTORE PUSH1 0x64 ADD JUMPDEST PUSH1 0x40 MLOAD DUP1 SWAP2 SUB SWAP1 REVERT JUMPDEST PUSH2 0x16B SWAP6 SWAP1 SWAP6 SSTORE PUSH2 0x16C SWAP4 SWAP1 SWAP4 SSTORE PUSH2 0x16A SWAP2 SWAP1 SWAP2 SSTORE PUSH2 0x171 SSTORE PUSH2 0x170 SSTORE PUSH2 0x16F SSTORE JUMP JUMPDEST PUSH1 0x0 PUSH2 0x907 PUSH2 0x1355 JUMP JUMPDEST POP SWAP1 SWAP4 SWAP3 POP POP POP JUMP JUMPDEST PUSH2 0x173 SLOAD PUSH1 0x0 SWAP1 DUP2 SWAP1 DUP1 PUSH2 0x924 DUP6 DUP8 PUSH2 0x4940 JUMP JUMPDEST PUSH2 0x92E SWAP2 SWAP1 PUSH2 0x4895 JUMP JUMPDEST SWAP3 POP PUSH2 0x93A DUP2 DUP5 PUSH2 0x48A9 JUMP JUMPDEST PUSH2 0x944 SWAP1 DUP6 PUSH2 0x4819 JUMP JUMPDEST SWAP2 POP POP SWAP3 POP SWAP3 SWAP1 POP JUMP JUMPDEST CALLER PUSH1 0x0 SWAP1 DUP2 MSTORE PUSH2 0x182 PUSH1 0x20 MSTORE PUSH1 0x40 DUP2 KECCAK256 SLOAD DUP2 SWAP1 DUP2 SWAP1 DUP2 SWAP1 DUP2 SWAP1 DUP2 SWAP1 PUSH1 0xFF AND PUSH2 0x9AC JUMPI PUSH1 0x40 MLOAD PUSH3 0x461BCD PUSH1 0xE5 SHL DUP2 MSTORE PUSH1 0x20 PUSH1 0x4 DUP3 ADD MSTORE PUSH1 0x11 PUSH1 0x24 DUP3 ADD MSTORE PUSH17 0x13D593158C4E8858DBDB1B185D195C985B PUSH1 0x7A SHL PUSH1 0x44 DUP3 ADD MSTORE PUSH1 0x64 ADD PUSH2 0x8D1 JUMP JUMPDEST PUSH2 0x9B4 PUSH2 0x24CE JUMP JUMPDEST PUSH2 0x17E SLOAD PUSH2 0x9C4 SWAP1 PUSH1 0x1 SWAP1 PUSH2 0x4940 JUMP JUMPDEST SWAP1 POP PUSH1 0x0 PUSH2 0x9D2 DUP9 DUP11 PUSH2 0x48A9 JUMP JUMPDEST SWAP1 POP PUSH1 0x0 DUP1 PUSH2 0x9E1 DUP13 DUP5 PUSH2 0x252E JUMP JUMPDEST SWAP2 POP SWAP2 POP PUSH2 0xA80 PUSH32 0x0 PUSH1 0x1 PUSH1 0x1 PUSH1 0xA0 SHL SUB AND PUSH4 0xDDCA3F43 PUSH1 0x40 MLOAD DUP2 PUSH4 0xFFFFFFFF AND PUSH1 0xE0 SHL DUP2 MSTORE PUSH1 0x4 ADD PUSH1 0x20 PUSH1 0x40 MLOAD DUP1 DUP4 SUB DUP2 DUP7 DUP1 EXTCODESIZE ISZERO DUP1 ISZERO PUSH2 0xA41 JUMPI PUSH1 0x0 DUP1 REVERT JUMPDEST POP GAS STATICCALL ISZERO DUP1 ISZERO PUSH2 0xA55 JUMPI RETURNDATASIZE PUSH1 0x0 DUP1 RETURNDATACOPY RETURNDATASIZE PUSH1 0x0 REVERT JUMPDEST POP POP POP POP PUSH1 0x40 MLOAD RETURNDATASIZE PUSH1 0x1F NOT PUSH1 0x1F DUP3 ADD AND DUP3 ADD DUP1 PUSH1 0x40 MSTORE POP DUP2 ADD SWAP1 PUSH2 0xA79 SWAP2 SWAP1 PUSH2 0x4664 JUMP JUMPDEST DUP5 SWAP1 PUSH2 0x2580 JUMP JUMPDEST SWAP6 POP DUP2 SWAP5 POP DUP6 DUP6 PUSH6 0x5AF3107A4000 PUSH2 0xA98 SWAP2 SWAP1 PUSH2 0x4819 JUMP JUMPDEST PUSH2 0xAA2 SWAP2 SWAP1 PUSH2 0x4819 JUMP JUMPDEST DUP12 LT ISZERO PUSH2 0xAE4 JUMPI PUSH1 0x40 MLOAD PUSH3 0x461BCD PUSH1 0xE5 SHL DUP2 MSTORE PUSH1 0x20 PUSH1 0x4 DUP3 ADD MSTORE PUSH1 0x10 PUSH1 0x24 DUP3 ADD MSTORE PUSH16 0x27AB262B189D31B7B63630BA1E36B4B7 PUSH1 0x81 SHL PUSH1 0x44 DUP3 ADD MSTORE PUSH1 0x64 ADD PUSH2 0x8D1 JUMP JUMPDEST DUP6 PUSH2 0xAEF DUP4 DUP14 PUSH2 0x4940 JUMP JUMPDEST PUSH2 0xAF9 SWAP2 SWAP1 PUSH2 0x4940 JUMP JUMPDEST SWAP8 POP PUSH2 0xB05 DUP11 DUP10 PUSH2 0x48A9 JUMP JUMPDEST SWAP9 POP PUSH2 0xB11 DUP9 DUP11 PUSH2 0x4940 JUMP JUMPDEST SWAP7 POP PUSH2 0xB1E DUP13 DUP11 DUP4 PUSH2 0x25CA JUMP JUMPDEST POP POP POP SWAP4 SWAP8 POP SWAP4 SWAP8 SWAP2 SWAP6 POP SWAP4 POP JUMP JUMPDEST PUSH2 0xB51 PUSH1 0x40 MLOAD DUP1 PUSH1 0x60 ADD PUSH1 0x40 MSTORE DUP1 PUSH1 0x0 DUP2 MSTORE PUSH1 0x20 ADD PUSH1 0x0 DUP2 MSTORE PUSH1 0x20 ADD PUSH1 0x0 DUP2 MSTORE POP SWAP1 JUMP JUMPDEST PUSH2 0x17E SLOAD DUP1 DUP4 LT DUP1 PUSH2 0xB6F JUMPI POP DUP1 DUP4 EQ DUP1 ISZERO PUSH2 0xB6F JUMPI POP TIMESTAMP PUSH2 0x17D SLOAD EQ JUMPDEST PUSH2 0xBAA JUMPI PUSH1 0x40 MLOAD PUSH3 0x461BCD PUSH1 0xE5 SHL DUP2 MSTORE PUSH1 0x20 PUSH1 0x4 DUP3 ADD MSTORE PUSH1 0xC PUSH1 0x24 DUP3 ADD MSTORE PUSH12 0x4F564C56313A217072696365 PUSH1 0xA0 SHL PUSH1 0x44 DUP3 ADD MSTORE PUSH1 0x64 ADD PUSH2 0x8D1 JUMP JUMPDEST DUP1 DUP4 EQ ISZERO PUSH2 0xBC1 JUMPI PUSH2 0xBBA PUSH2 0x1385 JUMP JUMPDEST SWAP2 POP PUSH2 0xC0F JUMP JUMPDEST PUSH2 0x17E DUP4 DUP2 SLOAD DUP2 LT PUSH2 0xBD5 JUMPI PUSH2 0xBD5 PUSH2 0x4A31 JUMP JUMPDEST SWAP1 PUSH1 0x0 MSTORE PUSH1 0x20 PUSH1 0x0 KECCAK256 SWAP1 PUSH1 0x3 MUL ADD PUSH1 0x40 MLOAD DUP1 PUSH1 0x60 ADD PUSH1 0x40 MSTORE SWAP1 DUP2 PUSH1 0x0 DUP3 ADD SLOAD DUP2 MSTORE PUSH1 0x20 ADD PUSH1 0x1 DUP3 ADD SLOAD DUP2 MSTORE PUSH1 0x20 ADD PUSH1 0x2 DUP3 ADD SLOAD DUP2 MSTORE POP POP SWAP2 POP JUMPDEST POP SWAP2 SWAP1 POP JUMP JUMPDEST CALLER PUSH1 0x0 SWAP1 DUP2 MSTORE PUSH2 0x182 PUSH1 0x20 MSTORE PUSH1 0x40 DUP2 KECCAK256 SLOAD DUP2 SWAP1 DUP2 SWAP1 PUSH1 0xFF AND PUSH2 0xC6D JUMPI PUSH1 0x40 MLOAD PUSH3 0x461BCD PUSH1 0xE5 SHL DUP2 MSTORE PUSH1 0x20 PUSH1 0x4 DUP3 ADD MSTORE PUSH1 0x11 PUSH1 0x24 DUP3 ADD MSTORE PUSH17 0x13D593158C4E8858DBDB1B185D195C985B PUSH1 0x7A SHL PUSH1 0x44 DUP3 ADD MSTORE PUSH1 0x64 ADD PUSH2 0x8D1 JUMP JUMPDEST PUSH2 0xC75 PUSH2 0x24CE JUMP JUMPDEST PUSH1 0x0 PUSH2 0x17E DUP6 DUP2 SLOAD DUP2 LT PUSH2 0xC8B JUMPI PUSH2 0xC8B PUSH2 0x4A31 JUMP JUMPDEST SWAP1 PUSH1 0x0 MSTORE PUSH1 0x20 PUSH1 0x0 KECCAK256 SWAP1 PUSH1 0x3 MUL ADD SWAP1 POP PUSH1 0x0 PUSH2 0x17E PUSH1 0x1 PUSH2 0x17E DUP1 SLOAD SWAP1 POP PUSH2 0xCB3 SWAP2 SWAP1 PUSH2 0x4940 JUMP JUMPDEST DUP2 SLOAD DUP2 LT PUSH2 0xCC3 JUMPI PUSH2 0xCC3 PUSH2 0x4A31 JUMP JUMPDEST SWAP1 PUSH1 0x0 MSTORE PUSH1 0x20 PUSH1 0x0 KECCAK256 SWAP1 PUSH1 0x3 MUL ADD SWAP1 POP DUP7 PUSH2 0xCED JUMPI DUP2 SLOAD PUSH1 0x1 DUP3 ADD SLOAD PUSH2 0xCE8 SWAP2 PUSH2 0x26B4 JUMP JUMPDEST PUSH2 0xD0B JUMP JUMPDEST PUSH1 0x1 DUP3 ADD SLOAD DUP2 SLOAD PUSH2 0xD0B SWAP2 PUSH2 0xD02 SWAP2 SWAP1 PUSH2 0x272D JUMP JUMPDEST PUSH2 0x181 SLOAD PUSH2 0x277F JUMP JUMPDEST SWAP3 POP DUP7 ISZERO PUSH2 0xD25 JUMPI PUSH2 0x175 SLOAD PUSH2 0x177 SLOAD SWAP1 SWAP6 POP SWAP4 POP PUSH2 0xD33 JUMP JUMPDEST PUSH2 0x176 SLOAD PUSH2 0x178 SLOAD SWAP1 SWAP6 POP SWAP4 POP JUMPDEST POP POP SWAP3 POP SWAP3 POP SWAP3 JUMP JUMPDEST PUSH1 0x0 DUP1 PUSH2 0xD4C TIMESTAMP PUSH2 0x174 SLOAD PUSH2 0x910 JUMP JUMPDEST SWAP2 POP SWAP2 POP SWAP1 SWAP2 JUMP JUMPDEST PUSH1 0x40 MLOAD PUSH4 0x24745215 PUSH1 0xE2 SHL DUP2 MSTORE PUSH1 0x0 DUP1 MLOAD PUSH1 0x20 PUSH2 0x4A84 DUP4 CODECOPY DUP2 MLOAD SWAP2 MSTORE PUSH1 0x4 DUP3 ADD MSTORE CALLER PUSH1 0x24 DUP3 ADD MSTORE PUSH32 0x0 PUSH1 0x1 PUSH1 0x1 PUSH1 0xA0 SHL SUB AND SWAP1 PUSH4 0x91D14854 SWAP1 PUSH1 0x44 ADD PUSH1 0x20 PUSH1 0x40 MLOAD DUP1 DUP4 SUB DUP2 DUP7 DUP1 EXTCODESIZE ISZERO DUP1 ISZERO PUSH2 0xDC7 JUMPI PUSH1 0x0 DUP1 REVERT JUMPDEST POP GAS STATICCALL ISZERO DUP1 ISZERO PUSH2 0xDDB JUMPI RETURNDATASIZE PUSH1 0x0 DUP1 RETURNDATACOPY RETURNDATASIZE PUSH1 0x0 REVERT JUMPDEST POP POP POP POP PUSH1 0x40 MLOAD RETURNDATASIZE PUSH1 0x1F NOT PUSH1 0x1F DUP3 ADD AND DUP3 ADD DUP1 PUSH1 0x40 MSTORE POP DUP2 ADD SWAP1 PUSH2 0xDFF SWAP2 SWAP1 PUSH2 0x456C JUMP JUMPDEST PUSH2 0xE3D JUMPI PUSH1 0x40 MLOAD PUSH3 0x461BCD PUSH1 0xE5 SHL DUP2 MSTORE PUSH1 0x20 PUSH1 0x4 DUP3 ADD MSTORE PUSH1 0xF PUSH1 0x24 DUP3 ADD MSTORE PUSH15 0x27AB262B189D10B3B7BB32B93737B9 PUSH1 0x89 SHL PUSH1 0x44 DUP3 ADD MSTORE PUSH1 0x64 ADD PUSH2 0x8D1 JUMP JUMPDEST DUP1 PUSH8 0xDE0B6B3A7640000 LT PUSH2 0xE94 JUMPI PUSH1 0x40 MLOAD PUSH3 0x461BCD PUSH1 0xE5 SHL DUP2 MSTORE PUSH1 0x20 PUSH1 0x4 DUP3 ADD MSTORE PUSH1 0x11 PUSH1 0x24 DUP3 ADD MSTORE PUSH32 0x4F564C56313A2170726963654672616D65000000000000000000000000000000 PUSH1 0x44 DUP3 ADD MSTORE PUSH1 0x64 ADD PUSH2 0x8D1 JUMP JUMPDEST PUSH2 0x181 SSTORE JUMP JUMPDEST PUSH1 0xB6 DUP2 PUSH1 0x3C DUP2 LT PUSH2 0xEAA JUMPI PUSH1 0x0 DUP1 REVERT JUMPDEST PUSH1 0x3 MUL ADD DUP1 SLOAD PUSH1 0x1 DUP3 ADD SLOAD PUSH1 0x2 SWAP1 SWAP3 ADD SLOAD SWAP1 SWAP3 POP DUP4 JUMP JUMPDEST PUSH1 0x0 PUSH2 0xECB PUSH2 0x1355 JUMP JUMPDEST POP SWAP2 SWAP4 SWAP3 POP POP POP JUMP JUMPDEST PUSH1 0x0 DUP1 PUSH1 0x0 DUP1 PUSH2 0xEE7 TIMESTAMP PUSH2 0x174 SLOAD PUSH2 0x910 JUMP JUMPDEST POP SWAP1 POP PUSH2 0xEF4 DUP7 DUP7 PUSH2 0x2795 JUMP JUMPDEST SWAP2 POP PUSH1 0x0 DUP1 PUSH1 0x0 DUP1 PUSH2 0xF05 DUP6 PUSH2 0x28B5 JUMP JUMPDEST SWAP4 POP SWAP4 POP SWAP4 POP SWAP4 POP DUP10 ISZERO PUSH2 0xF20 JUMPI DUP4 SWAP8 POP DUP8 DUP3 SWAP8 POP POP PUSH2 0xF29 JUMP JUMPDEST DUP3 SWAP8 POP DUP8 DUP2 SWAP8 POP POP JUMPDEST POP POP POP POP POP SWAP3 POP SWAP3 POP SWAP3 JUMP JUMPDEST PUSH1 0x40 MLOAD PUSH4 0x24745215 PUSH1 0xE2 SHL DUP2 MSTORE PUSH1 0x0 DUP1 MLOAD PUSH1 0x20 PUSH2 0x4A84 DUP4 CODECOPY DUP2 MLOAD SWAP2 MSTORE PUSH1 0x4 DUP3 ADD MSTORE CALLER PUSH1 0x24 DUP3 ADD MSTORE PUSH32 0x0 PUSH1 0x1 PUSH1 0x1 PUSH1 0xA0 SHL SUB AND SWAP1 PUSH4 0x91D14854 SWAP1 PUSH1 0x44 ADD PUSH1 0x20 PUSH1 0x40 MLOAD DUP1 DUP4 SUB DUP2 DUP7 DUP1 EXTCODESIZE ISZERO DUP1 ISZERO PUSH2 0xFA8 JUMPI PUSH1 0x0 DUP1 REVERT JUMPDEST POP GAS STATICCALL ISZERO DUP1 ISZERO PUSH2 0xFBC JUMPI RETURNDATASIZE PUSH1 0x0 DUP1 RETURNDATACOPY RETURNDATASIZE PUSH1 0x0 REVERT JUMPDEST POP POP POP POP PUSH1 0x40 MLOAD RETURNDATASIZE PUSH1 0x1F NOT PUSH1 0x1F DUP3 ADD AND DUP3 ADD DUP1 PUSH1 0x40 MSTORE POP DUP2 ADD SWAP1 PUSH2 0xFE0 SWAP2 SWAP1 PUSH2 0x456C JUMP JUMPDEST PUSH2 0x101E JUMPI PUSH1 0x40 MLOAD PUSH3 0x461BCD PUSH1 0xE5 SHL DUP2 MSTORE PUSH1 0x20 PUSH1 0x4 DUP3 ADD MSTORE PUSH1 0xF PUSH1 0x24 DUP3 ADD MSTORE PUSH15 0x27AB262B189D10B3B7BB32B93737B9 PUSH1 0x89 SHL PUSH1 0x44 DUP3 ADD MSTORE PUSH1 0x64 ADD PUSH2 0x8D1 JUMP JUMPDEST PUSH2 0x179 SSTORE JUMP JUMPDEST PUSH1 0x40 MLOAD PUSH4 0x24745215 PUSH1 0xE2 SHL DUP2 MSTORE PUSH1 0x0 DUP1 MLOAD PUSH1 0x20 PUSH2 0x4A84 DUP4 CODECOPY DUP2 MLOAD SWAP2 MSTORE PUSH1 0x4 DUP3 ADD MSTORE CALLER PUSH1 0x24 DUP3 ADD MSTORE PUSH32 0x0 PUSH1 0x1 PUSH1 0x1 PUSH1 0xA0 SHL SUB AND SWAP1 PUSH4 0x91D14854 SWAP1 PUSH1 0x44 ADD PUSH1 0x20 PUSH1 0x40 MLOAD DUP1 DUP4 SUB DUP2 DUP7 DUP1 EXTCODESIZE ISZERO DUP1 ISZERO PUSH2 0x1097 JUMPI PUSH1 0x0 DUP1 REVERT JUMPDEST POP GAS STATICCALL ISZERO DUP1 ISZERO PUSH2 0x10AB JUMPI RETURNDATASIZE PUSH1 0x0 DUP1 RETURNDATACOPY RETURNDATASIZE PUSH1 0x0 REVERT JUMPDEST POP POP POP POP PUSH1 0x40 MLOAD RETURNDATASIZE PUSH1 0x1F NOT PUSH1 0x1F DUP3 ADD AND DUP3 ADD DUP1 PUSH1 0x40 MSTORE POP DUP2 ADD SWAP1 PUSH2 0x10CF SWAP2 SWAP1 PUSH2 0x456C JUMP JUMPDEST PUSH2 0x110D JUMPI PUSH1 0x40 MLOAD PUSH3 0x461BCD PUSH1 0xE5 SHL DUP2 MSTORE PUSH1 0x20 PUSH1 0x4 DUP3 ADD MSTORE PUSH1 0xF PUSH1 0x24 DUP3 ADD MSTORE PUSH15 0x27AB262B189D10B3B7BB32B93737B9 PUSH1 0x89 SHL PUSH1 0x44 DUP3 ADD MSTORE PUSH1 0x64 ADD PUSH2 0x8D1 JUMP JUMPDEST PUSH1 0x1 DUP3 LT ISZERO PUSH2 0x114E JUMPI PUSH1 0x40 MLOAD PUSH3 0x461BCD PUSH1 0xE5 SHL DUP2 MSTORE PUSH1 0x20 PUSH1 0x4 DUP3 ADD MSTORE PUSH1 0xD PUSH1 0x24 DUP3 ADD MSTORE PUSH13 0x4F564C56313A21757064617465 PUSH1 0x98 SHL PUSH1 0x44 DUP3 ADD MSTORE PUSH1 0x64 ADD PUSH2 0x8D1 JUMP JUMPDEST DUP1 DUP3 GT ISZERO PUSH2 0x119E JUMPI PUSH1 0x40 MLOAD PUSH3 0x461BCD PUSH1 0xE5 SHL DUP2 MSTORE PUSH1 0x20 PUSH1 0x4 DUP3 ADD MSTORE PUSH1 0x15 PUSH1 0x24 DUP3 ADD MSTORE PUSH32 0x4F564C56313A7570646174653E636F6D706F756E640000000000000000000000 PUSH1 0x44 DUP3 ADD MSTORE PUSH1 0x64 ADD PUSH2 0x8D1 JUMP JUMPDEST PUSH2 0x17B SWAP2 SWAP1 SWAP2 SSTORE PUSH2 0x173 SSTORE JUMP JUMPDEST PUSH1 0x40 MLOAD PUSH4 0x24745215 PUSH1 0xE2 SHL DUP2 MSTORE PUSH1 0x0 DUP1 MLOAD PUSH1 0x20 PUSH2 0x4A84 DUP4 CODECOPY DUP2 MLOAD SWAP2 MSTORE PUSH1 0x4 DUP3 ADD MSTORE CALLER PUSH1 0x24 DUP3 ADD MSTORE PUSH32 0x0 PUSH1 0x1 PUSH1 0x1 PUSH1 0xA0 SHL SUB AND SWAP1 PUSH4 0x91D14854 SWAP1 PUSH1 0x44 ADD PUSH1 0x20 PUSH1 0x40 MLOAD DUP1 DUP4 SUB DUP2 DUP7 DUP1 EXTCODESIZE ISZERO DUP1 ISZERO PUSH2 0x121E JUMPI PUSH1 0x0 DUP1 REVERT JUMPDEST POP GAS STATICCALL ISZERO DUP1 ISZERO PUSH2 0x1232 JUMPI RETURNDATASIZE PUSH1 0x0 DUP1 RETURNDATACOPY RETURNDATASIZE PUSH1 0x0 REVERT JUMPDEST POP POP POP POP PUSH1 0x40 MLOAD RETURNDATASIZE PUSH1 0x1F NOT PUSH1 0x1F DUP3 ADD AND DUP3 ADD DUP1 PUSH1 0x40 MSTORE POP DUP2 ADD SWAP1 PUSH2 0x1256 SWAP2 SWAP1 PUSH2 0x456C JUMP JUMPDEST PUSH2 0x1294 JUMPI PUSH1 0x40 MLOAD PUSH3 0x461BCD PUSH1 0xE5 SHL DUP2 MSTORE PUSH1 0x20 PUSH1 0x4 DUP3 ADD MSTORE PUSH1 0xF PUSH1 0x24 DUP3 ADD MSTORE PUSH15 0x27AB262B189D10B3B7BB32B93737B9 PUSH1 0x89 SHL PUSH1 0x44 DUP3 ADD MSTORE PUSH1 0x64 ADD PUSH2 0x8D1 JUMP JUMPDEST PUSH32 0x0 PUSH1 0x1 PUSH1 0x1 PUSH1 0xA0 SHL SUB AND PUSH4 0xB29FA9C3 PUSH1 0x40 MLOAD DUP2 PUSH4 0xFFFFFFFF AND PUSH1 0xE0 SHL DUP2 MSTORE PUSH1 0x4 ADD PUSH1 0x20 PUSH1 0x40 MLOAD DUP1 DUP4 SUB DUP2 DUP7 DUP1 EXTCODESIZE ISZERO DUP1 ISZERO PUSH2 0x12ED JUMPI PUSH1 0x0 DUP1 REVERT JUMPDEST POP GAS STATICCALL ISZERO DUP1 ISZERO PUSH2 0x1301 JUMPI RETURNDATASIZE PUSH1 0x0 DUP1 RETURNDATACOPY RETURNDATASIZE PUSH1 0x0 REVERT JUMPDEST POP POP POP POP PUSH1 0x40 MLOAD RETURNDATASIZE PUSH1 0x1F NOT PUSH1 0x1F DUP3 ADD AND DUP3 ADD DUP1 PUSH1 0x40 MSTORE POP DUP2 ADD SWAP1 PUSH2 0x1325 SWAP2 SWAP1 PUSH2 0x462E JUMP JUMPDEST PUSH2 0x17F DUP1 SLOAD PUSH20 0xFFFFFFFFFFFFFFFFFFFFFFFFFFFFFFFFFFFFFFFF NOT AND PUSH1 0x1 PUSH1 0x1 PUSH1 0xA0 SHL SUB SWAP3 SWAP1 SWAP3 AND SWAP2 SWAP1 SWAP2 OR SWAP1 SSTORE JUMP JUMPDEST PUSH1 0x0 DUP1 PUSH1 0x0 DUP1 PUSH1 0x0 PUSH2 0x136A TIMESTAMP PUSH2 0x174 SLOAD PUSH2 0x910 JUMP JUMPDEST POP SWAP1 POP PUSH2 0x1376 DUP2 PUSH2 0x28B5 JUMP JUMPDEST SWAP3 SWAP9 SWAP2 SWAP8 POP SWAP6 POP SWAP1 SWAP4 POP SWAP2 POP POP JUMP JUMPDEST PUSH2 0x13A9 PUSH1 0x40 MLOAD DUP1 PUSH1 0x60 ADD PUSH1 0x40 MSTORE DUP1 PUSH1 0x0 DUP2 MSTORE PUSH1 0x20 ADD PUSH1 0x0 DUP2 MSTORE PUSH1 0x20 ADD PUSH1 0x0 DUP2 MSTORE POP SWAP1 JUMP JUMPDEST PUSH1 0x40 DUP1 MLOAD PUSH1 0x3 DUP1 DUP3 MSTORE PUSH1 0x80 DUP3 ADD SWAP1 SWAP3 MSTORE PUSH1 0x0 SWAP2 PUSH1 0x20 DUP3 ADD PUSH1 0x60 DUP1 CALLDATASIZE DUP4 CALLDATACOPY ADD SWAP1 POP POP SWAP1 POP PUSH32 0x0 DUP2 PUSH1 0x0 DUP2 MLOAD DUP2 LT PUSH2 0x1400 JUMPI PUSH2 0x1400 PUSH2 0x4A31 JUMP JUMPDEST PUSH1 0x20 MUL PUSH1 0x20 ADD ADD SWAP1 PUSH4 0xFFFFFFFF AND SWAP1 DUP2 PUSH4 0xFFFFFFFF AND DUP2 MSTORE POP POP PUSH32 0x0 DUP2 PUSH1 0x1 DUP2 MLOAD DUP2 LT PUSH2 0x144E JUMPI PUSH2 0x144E PUSH2 0x4A31 JUMP JUMPDEST PUSH1 0x20 MUL PUSH1 0x20 ADD ADD SWAP1 PUSH4 0xFFFFFFFF AND SWAP1 DUP2 PUSH4 0xFFFFFFFF AND DUP2 MSTORE POP POP PUSH1 0x0 DUP2 PUSH1 0x2 DUP2 MLOAD DUP2 LT PUSH2 0x147D JUMPI PUSH2 0x147D PUSH2 0x4A31 JUMP JUMPDEST PUSH4 0xFFFFFFFF SWAP1 SWAP3 AND PUSH1 0x20 SWAP3 DUP4 MUL SWAP2 SWAP1 SWAP2 ADD SWAP1 SWAP2 ADD MSTORE PUSH1 0x40 MLOAD PUSH4 0x883BDBFD PUSH1 0xE0 SHL DUP2 MSTORE PUSH1 0x0 SWAP1 PUSH1 0x1 PUSH1 0x1 PUSH1 0xA0 SHL SUB PUSH32 0x0 AND SWAP1 PUSH4 0x883BDBFD SWAP1 PUSH2 0x14E1 SWAP1 DUP6 SWAP1 PUSH1 0x4 ADD PUSH2 0x4754 JUMP JUMPDEST PUSH1 0x0 PUSH1 0x40 MLOAD DUP1 DUP4 SUB DUP2 DUP7 DUP1 EXTCODESIZE ISZERO DUP1 ISZERO PUSH2 0x14F9 JUMPI PUSH1 0x0 DUP1 REVERT JUMPDEST POP GAS STATICCALL ISZERO DUP1 ISZERO PUSH2 0x150D JUMPI RETURNDATASIZE PUSH1 0x0 DUP1 RETURNDATACOPY RETURNDATASIZE PUSH1 0x0 REVERT JUMPDEST POP POP POP POP PUSH1 0x40 MLOAD RETURNDATASIZE PUSH1 0x0 DUP3 RETURNDATACOPY PUSH1 0x1F RETURNDATASIZE SWAP1 DUP2 ADD PUSH1 0x1F NOT AND DUP3 ADD PUSH1 0x40 MSTORE PUSH2 0x1535 SWAP2 SWAP1 DUP2 ADD SWAP1 PUSH2 0x44A4 JUMP JUMPDEST POP SWAP1 POP PUSH1 0x0 PUSH2 0x1613 PUSH32 0x0 PUSH1 0x3 SIGNEXTEND DUP4 PUSH1 0x0 DUP2 MLOAD DUP2 LT PUSH2 0x1574 JUMPI PUSH2 0x1574 PUSH2 0x4A31 JUMP JUMPDEST PUSH1 0x20 MUL PUSH1 0x20 ADD ADD MLOAD DUP5 PUSH1 0x2 DUP2 MLOAD DUP2 LT PUSH2 0x158F JUMPI PUSH2 0x158F PUSH2 0x4A31 JUMP JUMPDEST PUSH1 0x20 MUL PUSH1 0x20 ADD ADD MLOAD PUSH2 0x15A1 SWAP2 SWAP1 PUSH2 0x48C8 JUMP JUMPDEST PUSH2 0x15AB SWAP2 SWAP1 PUSH2 0x4831 JUMP JUMPDEST PUSH32 0x0 PUSH32 0x0 PUSH32 0x0 PUSH2 0x1E30 JUMP JUMPDEST SWAP1 POP PUSH1 0x0 PUSH2 0x166C PUSH32 0x0 PUSH1 0x3 SIGNEXTEND DUP5 PUSH1 0x1 DUP2 MLOAD DUP2 LT PUSH2 0x1651 JUMPI PUSH2 0x1651 PUSH2 0x4A31 JUMP JUMPDEST PUSH1 0x20 MUL PUSH1 0x20 ADD ADD MLOAD DUP6 PUSH1 0x2 DUP2 MLOAD DUP2 LT PUSH2 0x158F JUMPI PUSH2 0x158F PUSH2 0x4A31 JUMP JUMPDEST SWAP1 POP PUSH2 0x1678 DUP2 DUP4 PUSH2 0x28E8 JUMP JUMPDEST SWAP5 POP POP POP POP POP SWAP1 JUMP JUMPDEST PUSH2 0x1689 PUSH2 0x24CE JUMP JUMPDEST JUMP JUMPDEST PUSH1 0x40 MLOAD PUSH4 0x24745215 PUSH1 0xE2 SHL DUP2 MSTORE PUSH1 0x0 DUP1 MLOAD PUSH1 0x20 PUSH2 0x4A84 DUP4 CODECOPY DUP2 MLOAD SWAP2 MSTORE PUSH1 0x4 DUP3 ADD MSTORE CALLER PUSH1 0x24 DUP3 ADD MSTORE PUSH32 0x0 PUSH1 0x1 PUSH1 0x1 PUSH1 0xA0 SHL SUB AND SWAP1 PUSH4 0x91D14854 SWAP1 PUSH1 0x44 ADD PUSH1 0x20 PUSH1 0x40 MLOAD DUP1 DUP4 SUB DUP2 DUP7 DUP1 EXTCODESIZE ISZERO DUP1 ISZERO PUSH2 0x16FE JUMPI PUSH1 0x0 DUP1 REVERT JUMPDEST POP GAS STATICCALL ISZERO DUP1 ISZERO PUSH2 0x1712 JUMPI RETURNDATASIZE PUSH1 0x0 DUP1 RETURNDATACOPY RETURNDATASIZE PUSH1 0x0 REVERT JUMPDEST POP POP POP POP PUSH1 0x40 MLOAD RETURNDATASIZE PUSH1 0x1F NOT PUSH1 0x1F DUP3 ADD AND DUP3 ADD DUP1 PUSH1 0x40 MSTORE POP DUP2 ADD SWAP1 PUSH2 0x1736 SWAP2 SWAP1 PUSH2 0x456C JUMP JUMPDEST PUSH2 0x1774 JUMPI PUSH1 0x40 MLOAD PUSH3 0x461BCD PUSH1 0xE5 SHL DUP2 MSTORE PUSH1 0x20 PUSH1 0x4 DUP3 ADD MSTORE PUSH1 0xF PUSH1 0x24 DUP3 ADD MSTORE PUSH15 0x27AB262B189D10B3B7BB32B93737B9 PUSH1 0x89 SHL PUSH1 0x44 DUP3 ADD MSTORE PUSH1 0x64 ADD PUSH2 0x8D1 JUMP JUMPDEST PUSH2 0x17A SSTORE JUMP JUMPDEST PUSH1 0x0 DUP1 PUSH1 0x0 PUSH2 0x1787 PUSH2 0x2991 JUMP JUMPDEST PUSH2 0x171 SLOAD SWAP2 SWAP4 POP SWAP2 POP DUP3 DUP3 GT ISZERO PUSH2 0x17B4 JUMPI PUSH2 0x17AC PUSH2 0x16A SLOAD PUSH2 0x17A7 PUSH2 0x2A21 JUMP JUMPDEST PUSH2 0x277F JUMP JUMPDEST SWAP4 POP POP POP POP SWAP1 JUMP JUMPDEST PUSH2 0x17BE DUP3 DUP5 PUSH2 0x4940 JUMP JUMPDEST SWAP3 POP PUSH2 0x17CB DUP2 PUSH1 0x2 PUSH2 0x48A9 JUMP JUMPDEST DUP4 GT ISZERO PUSH2 0x17DC JUMPI PUSH1 0x0 SWAP4 POP POP POP POP SWAP1 JUMP JUMPDEST PUSH2 0x16A SLOAD PUSH1 0x0 SWAP1 PUSH2 0x1809 SWAP1 PUSH2 0x17F1 DUP7 DUP6 PUSH2 0x272D JUMP JUMPDEST PUSH2 0x1803 SWAP1 PUSH8 0x1BC16D674EC80000 PUSH2 0x4940 JUMP JUMPDEST SWAP1 PUSH2 0x2580 JUMP JUMPDEST SWAP1 POP PUSH2 0x1678 DUP2 PUSH2 0x17A7 PUSH2 0x2A21 JUMP JUMPDEST PUSH1 0x40 MLOAD PUSH4 0x24745215 PUSH1 0xE2 SHL DUP2 MSTORE PUSH1 0x0 DUP1 MLOAD PUSH1 0x20 PUSH2 0x4A84 DUP4 CODECOPY DUP2 MLOAD SWAP2 MSTORE PUSH1 0x4 DUP3 ADD MSTORE CALLER PUSH1 0x24 DUP3 ADD MSTORE PUSH32 0x0 PUSH1 0x1 PUSH1 0x1 PUSH1 0xA0 SHL SUB AND SWAP1 PUSH4 0x91D14854 SWAP1 PUSH1 0x44 ADD PUSH1 0x20 PUSH1 0x40 MLOAD DUP1 DUP4 SUB DUP2 DUP7 DUP1 EXTCODESIZE ISZERO DUP1 ISZERO PUSH2 0x188A JUMPI PUSH1 0x0 DUP1 REVERT JUMPDEST POP GAS STATICCALL ISZERO DUP1 ISZERO PUSH2 0x189E JUMPI RETURNDATASIZE PUSH1 0x0 DUP1 RETURNDATACOPY RETURNDATASIZE PUSH1 0x0 REVERT JUMPDEST POP POP POP POP PUSH1 0x40 MLOAD RETURNDATASIZE PUSH1 0x1F NOT PUSH1 0x1F DUP3 ADD AND DUP3 ADD DUP1 PUSH1 0x40 MSTORE POP DUP2 ADD SWAP1 PUSH2 0x18C2 SWAP2 SWAP1 PUSH2 0x456C JUMP JUMPDEST PUSH2 0x1900 JUMPI PUSH1 0x40 MLOAD PUSH3 0x461BCD PUSH1 0xE5 SHL DUP2 MSTORE PUSH1 0x20 PUSH1 0x4 DUP3 ADD MSTORE PUSH1 0xF PUSH1 0x24 DUP3 ADD MSTORE PUSH15 0x27AB262B189D10B3B7BB32B93737B9 PUSH1 0x89 SHL PUSH1 0x44 DUP3 ADD MSTORE PUSH1 0x64 ADD PUSH2 0x8D1 JUMP JUMPDEST PUSH1 0x1 PUSH1 0x1 PUSH1 0xA0 SHL SUB AND PUSH1 0x0 SWAP1 DUP2 MSTORE PUSH2 0x182 PUSH1 0x20 MSTORE PUSH1 0x40 SWAP1 KECCAK256 DUP1 SLOAD PUSH1 0xFF NOT AND SWAP1 SSTORE JUMP JUMPDEST PUSH1 0x40 MLOAD PUSH4 0x24745215 PUSH1 0xE2 SHL DUP2 MSTORE PUSH1 0x0 DUP1 MLOAD PUSH1 0x20 PUSH2 0x4A84 DUP4 CODECOPY DUP2 MLOAD SWAP2 MSTORE PUSH1 0x4 DUP3 ADD MSTORE CALLER PUSH1 0x24 DUP3 ADD MSTORE PUSH32 0x0 PUSH1 0x1 PUSH1 0x1 PUSH1 0xA0 SHL SUB AND SWAP1 PUSH4 0x91D14854 SWAP1 PUSH1 0x44 ADD PUSH1 0x20 PUSH1 0x40 MLOAD DUP1 DUP4 SUB DUP2 DUP7 DUP1 EXTCODESIZE ISZERO DUP1 ISZERO PUSH2 0x1995 JUMPI PUSH1 0x0 DUP1 REVERT JUMPDEST POP GAS STATICCALL ISZERO DUP1 ISZERO PUSH2 0x19A9 JUMPI RETURNDATASIZE PUSH1 0x0 DUP1 RETURNDATACOPY RETURNDATASIZE PUSH1 0x0 REVERT JUMPDEST POP POP POP POP PUSH1 0x40 MLOAD RETURNDATASIZE PUSH1 0x1F NOT PUSH1 0x1F DUP3 ADD AND DUP3 ADD DUP1 PUSH1 0x40 MSTORE POP DUP2 ADD SWAP1 PUSH2 0x19CD SWAP2 SWAP1 PUSH2 0x456C JUMP JUMPDEST PUSH2 0x1A0B JUMPI PUSH1 0x40 MLOAD PUSH3 0x461BCD PUSH1 0xE5 SHL DUP2 MSTORE PUSH1 0x20 PUSH1 0x4 DUP3 ADD MSTORE PUSH1 0xF PUSH1 0x24 DUP3 ADD MSTORE PUSH15 0x27AB262B189D10B3B7BB32B93737B9 PUSH1 0x89 SHL PUSH1 0x44 DUP3 ADD MSTORE PUSH1 0x64 ADD PUSH2 0x8D1 JUMP JUMPDEST PUSH2 0x1A14 DUP12 PUSH2 0xF35 JUMP JUMPDEST PUSH2 0x1A1D DUP11 PUSH2 0xD54 JUMP JUMPDEST PUSH2 0x1A26 DUP10 PUSH2 0x168B JUMP JUMPDEST PUSH2 0x1A30 DUP9 DUP9 PUSH2 0x1024 JUMP JUMPDEST PUSH2 0x1A3E DUP7 DUP7 DUP7 DUP7 DUP7 DUP7 PUSH2 0x7EC JUMP JUMPDEST POP POP POP POP POP POP POP POP POP POP POP JUMP JUMPDEST CALLER PUSH1 0x0 SWAP1 DUP2 MSTORE PUSH2 0x182 PUSH1 0x20 MSTORE PUSH1 0x40 SWAP1 KECCAK256 SLOAD PUSH1 0xFF AND PUSH2 0x1A9F JUMPI PUSH1 0x40 MLOAD PUSH3 0x461BCD PUSH1 0xE5 SHL DUP2 MSTORE PUSH1 0x20 PUSH1 0x4 DUP3 ADD MSTORE PUSH1 0x11 PUSH1 0x24 DUP3 ADD MSTORE PUSH17 0x13D593158C4E8858DBDB1B185D195C985B PUSH1 0x7A SHL PUSH1 0x44 DUP3 ADD MSTORE PUSH1 0x64 ADD PUSH2 0x8D1 JUMP JUMPDEST PUSH2 0x1AA9 DUP3 DUP3 PUSH2 0x2E64 JUMP JUMPDEST DUP5 ISZERO PUSH2 0x1AE7 JUMPI DUP4 PUSH2 0x175 PUSH1 0x0 DUP3 DUP3 SLOAD PUSH2 0x1AC2 SWAP2 SWAP1 PUSH2 0x4940 JUMP JUMPDEST SWAP3 POP POP DUP2 SWAP1 SSTORE DUP4 PUSH2 0x177 PUSH1 0x0 DUP3 DUP3 SLOAD PUSH2 0x1ADB SWAP2 SWAP1 PUSH2 0x4940 JUMP JUMPDEST SWAP1 SWAP2 SSTORE POP PUSH2 0x1B1A SWAP2 POP POP JUMP JUMPDEST DUP4 PUSH2 0x176 PUSH1 0x0 DUP3 DUP3 SLOAD PUSH2 0x1AFA SWAP2 SWAP1 PUSH2 0x4940 JUMP JUMPDEST SWAP3 POP POP DUP2 SWAP1 SSTORE DUP4 PUSH2 0x178 PUSH1 0x0 DUP3 DUP3 SLOAD PUSH2 0x1B13 SWAP2 SWAP1 PUSH2 0x4940 JUMP JUMPDEST SWAP1 SWAP2 SSTORE POP POP POP JUMPDEST POP POP POP POP POP JUMP JUMPDEST PUSH1 0x40 MLOAD PUSH4 0x24745215 PUSH1 0xE2 SHL DUP2 MSTORE PUSH1 0x0 DUP1 MLOAD PUSH1 0x20 PUSH2 0x4A84 DUP4 CODECOPY DUP2 MLOAD SWAP2 MSTORE PUSH1 0x4 DUP3 ADD MSTORE CALLER PUSH1 0x24 DUP3 ADD MSTORE PUSH32 0x0 PUSH1 0x1 PUSH1 0x1 PUSH1 0xA0 SHL SUB AND SWAP1 PUSH4 0x91D14854 SWAP1 PUSH1 0x44 ADD PUSH1 0x20 PUSH1 0x40 MLOAD DUP1 DUP4 SUB DUP2 DUP7 DUP1 EXTCODESIZE ISZERO DUP1 ISZERO PUSH2 0x1B94 JUMPI PUSH1 0x0 DUP1 REVERT JUMPDEST POP GAS STATICCALL ISZERO DUP1 ISZERO PUSH2 0x1BA8 JUMPI RETURNDATASIZE PUSH1 0x0 DUP1 RETURNDATACOPY RETURNDATASIZE PUSH1 0x0 REVERT JUMPDEST POP POP POP POP PUSH1 0x40 MLOAD RETURNDATASIZE PUSH1 0x1F NOT PUSH1 0x1F DUP3 ADD AND DUP3 ADD DUP1 PUSH1 0x40 MSTORE POP DUP2 ADD SWAP1 PUSH2 0x1BCC SWAP2 SWAP1 PUSH2 0x456C JUMP JUMPDEST PUSH2 0x1C0A JUMPI PUSH1 0x40 MLOAD PUSH3 0x461BCD PUSH1 0xE5 SHL DUP2 MSTORE PUSH1 0x20 PUSH1 0x4 DUP3 ADD MSTORE PUSH1 0xF PUSH1 0x24 DUP3 ADD MSTORE PUSH15 0x27AB262B189D10B3B7BB32B93737B9 PUSH1 0x89 SHL PUSH1 0x44 DUP3 ADD MSTORE PUSH1 0x64 ADD PUSH2 0x8D1 JUMP JUMPDEST PUSH1 0x1 PUSH1 0x1 PUSH1 0xA0 SHL SUB AND PUSH1 0x0 SWAP1 DUP2 MSTORE PUSH2 0x182 PUSH1 0x20 MSTORE PUSH1 0x40 SWAP1 KECCAK256 DUP1 SLOAD PUSH1 0xFF NOT AND PUSH1 0x1 OR SWAP1 SSTORE JUMP JUMPDEST PUSH1 0x2 DUP2 PUSH1 0x3C DUP2 LT PUSH2 0xEAA JUMPI PUSH1 0x0 DUP1 REVERT JUMPDEST PUSH2 0x16D DUP2 PUSH1 0x2 DUP2 LT PUSH2 0x1C50 JUMPI PUSH1 0x0 DUP1 REVERT JUMPDEST ADD SLOAD SWAP1 POP DUP2 JUMP JUMPDEST PUSH1 0x0 DUP1 PUSH2 0x1C64 DUP4 DUP6 PUSH2 0x4957 JUMP JUMPDEST SWAP1 POP PUSH4 0xFFFFFFFF DUP2 AND PUSH2 0x1C9E JUMPI PUSH1 0x40 MLOAD PUSH3 0x461BCD PUSH1 0xE5 SHL DUP2 MSTORE PUSH1 0x20 PUSH1 0x4 DUP3 ADD MSTORE PUSH1 0x2 PUSH1 0x24 DUP3 ADD MSTORE PUSH2 0x425 PUSH1 0xF4 SHL PUSH1 0x44 DUP3 ADD MSTORE PUSH1 0x64 ADD PUSH2 0x8D1 JUMP JUMPDEST PUSH1 0x40 DUP1 MLOAD PUSH1 0x2 DUP1 DUP3 MSTORE PUSH1 0x60 DUP3 ADD DUP4 MSTORE PUSH1 0x0 SWAP3 PUSH1 0x20 DUP4 ADD SWAP1 DUP1 CALLDATASIZE DUP4 CALLDATACOPY ADD SWAP1 POP POP SWAP1 POP DUP5 DUP2 PUSH1 0x0 DUP2 MLOAD DUP2 LT PUSH2 0x1CD3 JUMPI PUSH2 0x1CD3 PUSH2 0x4A31 JUMP JUMPDEST PUSH1 0x20 MUL PUSH1 0x20 ADD ADD SWAP1 PUSH4 0xFFFFFFFF AND SWAP1 DUP2 PUSH4 0xFFFFFFFF AND DUP2 MSTORE POP POP DUP4 DUP2 PUSH1 0x1 DUP2 MLOAD DUP2 LT PUSH2 0x1D01 JUMPI PUSH2 0x1D01 PUSH2 0x4A31 JUMP JUMPDEST PUSH4 0xFFFFFFFF SWAP1 SWAP3 AND PUSH1 0x20 SWAP3 DUP4 MUL SWAP2 SWAP1 SWAP2 ADD SWAP1 SWAP2 ADD MSTORE PUSH1 0x40 MLOAD PUSH4 0x883BDBFD PUSH1 0xE0 SHL DUP2 MSTORE PUSH1 0x0 SWAP1 PUSH1 0x1 PUSH1 0x1 PUSH1 0xA0 SHL SUB DUP9 AND SWAP1 PUSH4 0x883BDBFD SWAP1 PUSH2 0x1D45 SWAP1 DUP6 SWAP1 PUSH1 0x4 ADD PUSH2 0x4754 JUMP JUMPDEST PUSH1 0x0 PUSH1 0x40 MLOAD DUP1 DUP4 SUB DUP2 DUP7 DUP1 EXTCODESIZE ISZERO DUP1 ISZERO PUSH2 0x1D5D JUMPI PUSH1 0x0 DUP1 REVERT JUMPDEST POP GAS STATICCALL ISZERO DUP1 ISZERO PUSH2 0x1D71 JUMPI RETURNDATASIZE PUSH1 0x0 DUP1 RETURNDATACOPY RETURNDATASIZE PUSH1 0x0 REVERT JUMPDEST POP POP POP POP PUSH1 0x40 MLOAD RETURNDATASIZE PUSH1 0x0 DUP3 RETURNDATACOPY PUSH1 0x1F RETURNDATASIZE SWAP1 DUP2 ADD PUSH1 0x1F NOT AND DUP3 ADD PUSH1 0x40 MSTORE PUSH2 0x1D99 SWAP2 SWAP1 DUP2 ADD SWAP1 PUSH2 0x44A4 JUMP JUMPDEST POP SWAP1 POP PUSH1 0x0 DUP2 PUSH1 0x0 DUP2 MLOAD DUP2 LT PUSH2 0x1DB1 JUMPI PUSH2 0x1DB1 PUSH2 0x4A31 JUMP JUMPDEST PUSH1 0x20 MUL PUSH1 0x20 ADD ADD MLOAD DUP3 PUSH1 0x1 DUP2 MLOAD DUP2 LT PUSH2 0x1DCC JUMPI PUSH2 0x1DCC PUSH2 0x4A31 JUMP JUMPDEST PUSH1 0x20 MUL PUSH1 0x20 ADD ADD MLOAD PUSH2 0x1DDE SWAP2 SWAP1 PUSH2 0x48C8 JUMP JUMPDEST SWAP1 POP PUSH2 0x1DEE PUSH1 0x3 DUP6 SWAP1 SIGNEXTEND DUP3 PUSH2 0x4831 JUMP JUMPDEST SWAP5 POP PUSH1 0x0 DUP2 PUSH1 0x6 SIGNEXTEND SLT DUP1 ISZERO PUSH2 0x1E12 JUMPI POP PUSH2 0x1E0C PUSH1 0x3 DUP6 SWAP1 SIGNEXTEND DUP3 PUSH2 0x4998 JUMP JUMPDEST PUSH1 0x6 SIGNEXTEND ISZERO ISZERO JUMPDEST ISZERO PUSH2 0x1E25 JUMPI DUP5 PUSH2 0x1E21 DUP2 PUSH2 0x4974 JUMP JUMPDEST SWAP6 POP POP JUMPDEST POP POP POP POP SWAP4 SWAP3 POP POP POP JUMP JUMPDEST PUSH1 0x0 DUP1 PUSH2 0x1E3C DUP7 PUSH2 0x1F3E JUMP JUMPDEST SWAP1 POP PUSH1 0x1 PUSH1 0x1 PUSH1 0x80 SHL SUB PUSH1 0x1 PUSH1 0x1 PUSH1 0xA0 SHL SUB DUP3 AND GT PUSH2 0x1EC2 JUMPI PUSH1 0x0 PUSH2 0x1E6A PUSH1 0x1 PUSH1 0x1 PUSH1 0xA0 SHL SUB DUP4 AND DUP1 PUSH2 0x48A9 JUMP JUMPDEST SWAP1 POP DUP4 PUSH1 0x1 PUSH1 0x1 PUSH1 0xA0 SHL SUB AND DUP6 PUSH1 0x1 PUSH1 0x1 PUSH1 0xA0 SHL SUB AND LT PUSH2 0x1EA2 JUMPI PUSH2 0x1E9D PUSH1 0x1 PUSH1 0xC0 SHL DUP8 PUSH1 0x1 PUSH1 0x1 PUSH1 0x80 SHL SUB AND DUP4 PUSH2 0x235D JUMP JUMPDEST PUSH2 0x1EBA JUMP JUMPDEST PUSH2 0x1EBA DUP2 DUP8 PUSH1 0x1 PUSH1 0x1 PUSH1 0x80 SHL SUB AND PUSH1 0x1 PUSH1 0xC0 SHL PUSH2 0x235D JUMP JUMPDEST SWAP3 POP POP PUSH2 0x1F35 JUMP JUMPDEST PUSH1 0x0 PUSH2 0x1EE1 PUSH1 0x1 PUSH1 0x1 PUSH1 0xA0 SHL SUB DUP4 AND DUP1 PUSH9 0x10000000000000000 PUSH2 0x235D JUMP JUMPDEST SWAP1 POP DUP4 PUSH1 0x1 PUSH1 0x1 PUSH1 0xA0 SHL SUB AND DUP6 PUSH1 0x1 PUSH1 0x1 PUSH1 0xA0 SHL SUB AND LT PUSH2 0x1F19 JUMPI PUSH2 0x1F14 PUSH1 0x1 PUSH1 0x80 SHL DUP8 PUSH1 0x1 PUSH1 0x1 PUSH1 0x80 SHL SUB AND DUP4 PUSH2 0x235D JUMP JUMPDEST PUSH2 0x1F31 JUMP JUMPDEST PUSH2 0x1F31 DUP2 DUP8 PUSH1 0x1 PUSH1 0x1 PUSH1 0x80 SHL SUB AND PUSH1 0x1 PUSH1 0x80 SHL PUSH2 0x235D JUMP JUMPDEST SWAP3 POP POP JUMPDEST POP SWAP5 SWAP4 POP POP POP POP JUMP JUMPDEST PUSH1 0x0 DUP1 PUSH1 0x0 DUP4 PUSH1 0x2 SIGNEXTEND SLT PUSH2 0x1F55 JUMPI DUP3 PUSH1 0x2 SIGNEXTEND PUSH2 0x1F62 JUMP JUMPDEST DUP3 PUSH1 0x2 SIGNEXTEND PUSH2 0x1F62 SWAP1 PUSH2 0x49E8 JUMP JUMPDEST SWAP1 POP PUSH2 0x1F71 PUSH3 0xD89E7 NOT PUSH2 0x49CE JUMP JUMPDEST PUSH3 0xFFFFFF AND DUP2 GT ISZERO PUSH2 0x1FA9 JUMPI PUSH1 0x40 MLOAD PUSH3 0x461BCD PUSH1 0xE5 SHL DUP2 MSTORE PUSH1 0x20 PUSH1 0x4 DUP3 ADD MSTORE PUSH1 0x1 PUSH1 0x24 DUP3 ADD MSTORE PUSH1 0x15 PUSH1 0xFA SHL PUSH1 0x44 DUP3 ADD MSTORE PUSH1 0x64 ADD PUSH2 0x8D1 JUMP JUMPDEST PUSH1 0x0 PUSH1 0x1 DUP3 AND PUSH2 0x1FBD JUMPI PUSH1 0x1 PUSH1 0x80 SHL PUSH2 0x1FCF JUMP JUMPDEST PUSH16 0xFFFCB933BD6FAD37AA2D162D1A594001 JUMPDEST PUSH17 0xFFFFFFFFFFFFFFFFFFFFFFFFFFFFFFFFFF AND SWAP1 POP PUSH1 0x2 DUP3 AND ISZERO PUSH2 0x200E JUMPI PUSH1 0x80 PUSH2 0x2009 DUP3 PUSH16 0xFFF97272373D413259A46990580E213A PUSH2 0x48A9 JUMP JUMPDEST SWAP1 SHR SWAP1 POP JUMPDEST PUSH1 0x4 DUP3 AND ISZERO PUSH2 0x2038 JUMPI PUSH1 0x80 PUSH2 0x2033 DUP3 PUSH16 0xFFF2E50F5F656932EF12357CF3C7FDCC PUSH2 0x48A9 JUMP JUMPDEST SWAP1 SHR SWAP1 POP JUMPDEST PUSH1 0x8 DUP3 AND ISZERO PUSH2 0x2062 JUMPI PUSH1 0x80 PUSH2 0x205D DUP3 PUSH16 0xFFE5CACA7E10E4E61C3624EAA0941CD0 PUSH2 0x48A9 JUMP JUMPDEST SWAP1 SHR SWAP1 POP JUMPDEST PUSH1 0x10 DUP3 AND ISZERO PUSH2 0x208C JUMPI PUSH1 0x80 PUSH2 0x2087 DUP3 PUSH16 0xFFCB9843D60F6159C9DB58835C926644 PUSH2 0x48A9 JUMP JUMPDEST SWAP1 SHR SWAP1 POP JUMPDEST PUSH1 0x20 DUP3 AND ISZERO PUSH2 0x20B6 JUMPI PUSH1 0x80 PUSH2 0x20B1 DUP3 PUSH16 0xFF973B41FA98C081472E6896DFB254C0 PUSH2 0x48A9 JUMP JUMPDEST SWAP1 SHR SWAP1 POP JUMPDEST PUSH1 0x40 DUP3 AND ISZERO PUSH2 0x20E0 JUMPI PUSH1 0x80 PUSH2 0x20DB DUP3 PUSH16 0xFF2EA16466C96A3843EC78B326B52861 PUSH2 0x48A9 JUMP JUMPDEST SWAP1 SHR SWAP1 POP JUMPDEST PUSH1 0x80 DUP3 AND ISZERO PUSH2 0x210A JUMPI PUSH1 0x80 PUSH2 0x2105 DUP3 PUSH16 0xFE5DEE046A99A2A811C461F1969C3053 PUSH2 0x48A9 JUMP JUMPDEST SWAP1 SHR SWAP1 POP JUMPDEST PUSH2 0x100 DUP3 AND ISZERO PUSH2 0x2135 JUMPI PUSH1 0x80 PUSH2 0x2130 DUP3 PUSH16 0xFCBE86C7900A88AEDCFFC83B479AA3A4 PUSH2 0x48A9 JUMP JUMPDEST SWAP1 SHR SWAP1 POP JUMPDEST PUSH2 0x200 DUP3 AND ISZERO PUSH2 0x2160 JUMPI PUSH1 0x80 PUSH2 0x215B DUP3 PUSH16 0xF987A7253AC413176F2B074CF7815E54 PUSH2 0x48A9 JUMP JUMPDEST SWAP1 SHR SWAP1 POP JUMPDEST PUSH2 0x400 DUP3 AND ISZERO PUSH2 0x218B JUMPI PUSH1 0x80 PUSH2 0x2186 DUP3 PUSH16 0xF3392B0822B70005940C7A398E4B70F3 PUSH2 0x48A9 JUMP JUMPDEST SWAP1 SHR SWAP1 POP JUMPDEST PUSH2 0x800 DUP3 AND ISZERO PUSH2 0x21B6 JUMPI PUSH1 0x80 PUSH2 0x21B1 DUP3 PUSH16 0xE7159475A2C29B7443B29C7FA6E889D9 PUSH2 0x48A9 JUMP JUMPDEST SWAP1 SHR SWAP1 POP JUMPDEST PUSH2 0x1000 DUP3 AND ISZERO PUSH2 0x21E1 JUMPI PUSH1 0x80 PUSH2 0x21DC DUP3 PUSH16 0xD097F3BDFD2022B8845AD8F792AA5825 PUSH2 0x48A9 JUMP JUMPDEST SWAP1 SHR SWAP1 POP JUMPDEST PUSH2 0x2000 DUP3 AND ISZERO PUSH2 0x220C JUMPI PUSH1 0x80 PUSH2 0x2207 DUP3 PUSH16 0xA9F746462D870FDF8A65DC1F90E061E5 PUSH2 0x48A9 JUMP JUMPDEST SWAP1 SHR SWAP1 POP JUMPDEST PUSH2 0x4000 DUP3 AND ISZERO PUSH2 0x2237 JUMPI PUSH1 0x80 PUSH2 0x2232 DUP3 PUSH16 0x70D869A156D2A1B890BB3DF62BAF32F7 PUSH2 0x48A9 JUMP JUMPDEST SWAP1 SHR SWAP1 POP JUMPDEST PUSH2 0x8000 DUP3 AND ISZERO PUSH2 0x2262 JUMPI PUSH1 0x80 PUSH2 0x225D DUP3 PUSH16 0x31BE135F97D08FD981231505542FCFA6 PUSH2 0x48A9 JUMP JUMPDEST SWAP1 SHR SWAP1 POP JUMPDEST PUSH3 0x10000 DUP3 AND ISZERO PUSH2 0x228E JUMPI PUSH1 0x80 PUSH2 0x2289 DUP3 PUSH16 0x9AA508B5B7A84E1C677DE54F3E99BC9 PUSH2 0x48A9 JUMP JUMPDEST SWAP1 SHR SWAP1 POP JUMPDEST PUSH3 0x20000 DUP3 AND ISZERO PUSH2 0x22B9 JUMPI PUSH1 0x80 PUSH2 0x22B4 DUP3 PUSH15 0x5D6AF8DEDB81196699C329225EE604 PUSH2 0x48A9 JUMP JUMPDEST SWAP1 SHR SWAP1 POP JUMPDEST PUSH3 0x40000 DUP3 AND ISZERO PUSH2 0x22E3 JUMPI PUSH1 0x80 PUSH2 0x22DE DUP3 PUSH14 0x2216E584F5FA1EA926041BEDFE98 PUSH2 0x48A9 JUMP JUMPDEST SWAP1 SHR SWAP1 POP JUMPDEST PUSH3 0x80000 DUP3 AND ISZERO PUSH2 0x230B JUMPI PUSH1 0x80 PUSH2 0x2306 DUP3 PUSH12 0x48A170391F7DC42444E8FA2 PUSH2 0x48A9 JUMP JUMPDEST SWAP1 SHR SWAP1 POP JUMPDEST PUSH1 0x0 DUP5 PUSH1 0x2 SIGNEXTEND SGT ISZERO PUSH2 0x2326 JUMPI PUSH2 0x2323 DUP2 PUSH1 0x0 NOT PUSH2 0x4895 JUMP JUMPDEST SWAP1 POP JUMPDEST PUSH2 0x2335 PUSH5 0x100000000 DUP3 PUSH2 0x49BA JUMP JUMPDEST ISZERO PUSH2 0x2341 JUMPI PUSH1 0x1 PUSH2 0x2344 JUMP JUMPDEST PUSH1 0x0 JUMPDEST PUSH2 0x2355 SWAP1 PUSH1 0xFF AND PUSH1 0x20 DUP4 SWAP1 SHR PUSH2 0x4819 JUMP JUMPDEST SWAP5 SWAP4 POP POP POP POP JUMP JUMPDEST PUSH1 0x0 DUP1 DUP1 PUSH1 0x0 NOT DUP6 DUP8 MULMOD DUP6 DUP8 MUL SWAP3 POP DUP3 DUP2 LT DUP4 DUP3 SUB SUB SWAP2 POP POP DUP1 PUSH1 0x0 EQ ISZERO PUSH2 0x2397 JUMPI PUSH1 0x0 DUP5 GT PUSH2 0x238C JUMPI PUSH1 0x0 DUP1 REVERT JUMPDEST POP DUP3 SWAP1 DIV SWAP1 POP PUSH2 0x24C7 JUMP JUMPDEST DUP1 DUP5 GT PUSH2 0x23A3 JUMPI PUSH1 0x0 DUP1 REVERT JUMPDEST PUSH1 0x0 DUP5 DUP7 DUP9 MULMOD DUP1 DUP5 SUB SWAP4 DUP2 GT SWAP1 SWAP3 SUB SWAP2 SWAP1 POP PUSH1 0x0 DUP6 PUSH2 0x23C1 DUP2 PUSH2 0x49E8 JUMP JUMPDEST AND SWAP6 DUP7 SWAP1 DIV SWAP6 SWAP4 DUP5 SWAP1 DIV SWAP4 PUSH1 0x0 DUP2 SWAP1 SUB DIV PUSH1 0x1 ADD SWAP1 POP PUSH2 0x23E1 DUP2 DUP5 PUSH2 0x48A9 JUMP JUMPDEST SWAP1 SWAP4 OR SWAP3 PUSH1 0x0 PUSH2 0x23F2 DUP8 PUSH1 0x3 PUSH2 0x48A9 JUMP JUMPDEST PUSH1 0x2 XOR SWAP1 POP PUSH2 0x2401 DUP2 DUP9 PUSH2 0x48A9 JUMP JUMPDEST PUSH2 0x240C SWAP1 PUSH1 0x2 PUSH2 0x4940 JUMP JUMPDEST PUSH2 0x2416 SWAP1 DUP3 PUSH2 0x48A9 JUMP JUMPDEST SWAP1 POP PUSH2 0x2422 DUP2 DUP9 PUSH2 0x48A9 JUMP JUMPDEST PUSH2 0x242D SWAP1 PUSH1 0x2 PUSH2 0x4940 JUMP JUMPDEST PUSH2 0x2437 SWAP1 DUP3 PUSH2 0x48A9 JUMP JUMPDEST SWAP1 POP PUSH2 0x2443 DUP2 DUP9 PUSH2 0x48A9 JUMP JUMPDEST PUSH2 0x244E SWAP1 PUSH1 0x2 PUSH2 0x4940 JUMP JUMPDEST PUSH2 0x2458 SWAP1 DUP3 PUSH2 0x48A9 JUMP JUMPDEST SWAP1 POP PUSH2 0x2464 DUP2 DUP9 PUSH2 0x48A9 JUMP JUMPDEST PUSH2 0x246F SWAP1 PUSH1 0x2 PUSH2 0x4940 JUMP JUMPDEST PUSH2 0x2479 SWAP1 DUP3 PUSH2 0x48A9 JUMP JUMPDEST SWAP1 POP PUSH2 0x2485 DUP2 DUP9 PUSH2 0x48A9 JUMP JUMPDEST PUSH2 0x2490 SWAP1 PUSH1 0x2 PUSH2 0x4940 JUMP JUMPDEST PUSH2 0x249A SWAP1 DUP3 PUSH2 0x48A9 JUMP JUMPDEST SWAP1 POP PUSH2 0x24A6 DUP2 DUP9 PUSH2 0x48A9 JUMP JUMPDEST PUSH2 0x24B1 SWAP1 PUSH1 0x2 PUSH2 0x4940 JUMP JUMPDEST PUSH2 0x24BB SWAP1 DUP3 PUSH2 0x48A9 JUMP JUMPDEST SWAP1 POP PUSH2 0x1E21 DUP2 DUP7 PUSH2 0x48A9 JUMP JUMPDEST SWAP4 SWAP3 POP POP POP JUMP JUMPDEST PUSH2 0x17D SLOAD TIMESTAMP SWAP1 DUP1 DUP3 EQ PUSH2 0x24F8 JUMPI PUSH1 0x0 PUSH2 0x24E5 PUSH2 0x1385 JUMP JUMPDEST SWAP1 POP PUSH2 0x24F0 DUP2 PUSH2 0x2F88 JUMP JUMPDEST POP PUSH2 0x17D DUP3 SWAP1 SSTORE JUMPDEST PUSH1 0x0 DUP1 PUSH2 0x2508 DUP5 PUSH2 0x174 SLOAD PUSH2 0x910 JUMP JUMPDEST SWAP1 SWAP3 POP SWAP1 POP DUP2 ISZERO PUSH2 0x2528 JUMPI PUSH2 0x2520 PUSH2 0x179 SLOAD DUP4 PUSH2 0x3065 JUMP JUMPDEST POP PUSH2 0x174 DUP2 SWAP1 SSTORE JUMPDEST POP POP POP POP JUMP JUMPDEST PUSH1 0x0 DUP1 PUSH1 0x0 DUP1 PUSH1 0x0 DUP1 PUSH2 0x2541 DUP9 DUP9 PUSH2 0x30D9 JUMP JUMPDEST SWAP4 POP SWAP4 POP SWAP4 POP SWAP4 POP PUSH2 0x2558 PUSH1 0x2 DUP6 DUP6 PUSH1 0x0 SLOAD PUSH2 0x31F8 JUMP JUMPDEST PUSH1 0x0 SSTORE PUSH2 0x2565 DUP8 DUP4 PUSH2 0x32A3 JUMP JUMPDEST SWAP6 POP PUSH2 0x2572 PUSH1 0x0 DUP8 PUSH2 0x2E64 JUMP JUMPDEST DUP1 SWAP5 POP POP POP POP POP SWAP3 POP SWAP3 SWAP1 POP JUMP JUMPDEST PUSH1 0x0 DUP1 PUSH2 0x258D DUP4 DUP6 PUSH2 0x48A9 JUMP JUMPDEST SWAP1 POP PUSH2 0x25AE DUP5 ISZERO DUP1 PUSH2 0x25A7 JUMPI POP DUP4 PUSH2 0x25A5 DUP7 DUP5 PUSH2 0x4895 JUMP JUMPDEST EQ JUMPDEST PUSH1 0x3 PUSH2 0x32EB JUMP JUMPDEST PUSH2 0x25C0 PUSH8 0xDE0B6B3A7640000 DUP3 PUSH2 0x4895 JUMP JUMPDEST SWAP2 POP POP JUMPDEST SWAP3 SWAP2 POP POP JUMP JUMPDEST DUP3 ISZERO PUSH2 0x2642 JUMPI DUP2 PUSH2 0x177 PUSH1 0x0 DUP3 DUP3 SLOAD PUSH2 0x25E3 SWAP2 SWAP1 PUSH2 0x4819 JUMP JUMPDEST SWAP1 SWAP2 SSTORE POP POP PUSH2 0x175 SLOAD PUSH1 0x0 SWAP1 PUSH2 0x25FA SWAP1 DUP5 SWAP1 PUSH2 0x4819 JUMP JUMPDEST SWAP1 POP DUP2 DUP2 GT ISZERO PUSH2 0x2639 JUMPI PUSH1 0x40 MLOAD PUSH3 0x461BCD PUSH1 0xE5 SHL DUP2 MSTORE PUSH1 0x20 PUSH1 0x4 DUP3 ADD MSTORE PUSH1 0xA PUSH1 0x24 DUP3 ADD MSTORE PUSH10 0x4F564C56313A3E63617 PUSH1 0xB4 SHL PUSH1 0x44 DUP3 ADD MSTORE PUSH1 0x64 ADD PUSH2 0x8D1 JUMP JUMPDEST PUSH2 0x175 SSTORE POP POP POP JUMP JUMPDEST DUP2 PUSH2 0x178 PUSH1 0x0 DUP3 DUP3 SLOAD PUSH2 0x2655 SWAP2 SWAP1 PUSH2 0x4819 JUMP JUMPDEST SWAP1 SWAP2 SSTORE POP POP PUSH2 0x176 SLOAD PUSH1 0x0 SWAP1 PUSH2 0x266C SWAP1 DUP5 SWAP1 PUSH2 0x4819 JUMP JUMPDEST SWAP1 POP DUP2 DUP2 GT ISZERO PUSH2 0x26AB JUMPI PUSH1 0x40 MLOAD PUSH3 0x461BCD PUSH1 0xE5 SHL DUP2 MSTORE PUSH1 0x20 PUSH1 0x4 DUP3 ADD MSTORE PUSH1 0xA PUSH1 0x24 DUP3 ADD MSTORE PUSH10 0x4F564C56313A3E63617 PUSH1 0xB4 SHL PUSH1 0x44 DUP3 ADD MSTORE PUSH1 0x64 ADD PUSH2 0x8D1 JUMP JUMPDEST PUSH2 0x176 SSTORE POP POP POP JUMP JUMPDEST PUSH1 0x0 PUSH2 0x26C3 DUP3 ISZERO ISZERO PUSH1 0x4 PUSH2 0x32EB JUMP JUMPDEST DUP3 PUSH2 0x26D0 JUMPI POP PUSH1 0x0 PUSH2 0x25C4 JUMP JUMPDEST PUSH1 0x0 PUSH2 0x26E4 PUSH8 0xDE0B6B3A7640000 DUP6 PUSH2 0x48A9 JUMP JUMPDEST SWAP1 POP PUSH2 0x2704 PUSH8 0xDE0B6B3A7640000 PUSH2 0x26FC DUP7 DUP5 PUSH2 0x4895 JUMP JUMPDEST EQ PUSH1 0x5 PUSH2 0x32EB JUMP JUMPDEST DUP3 PUSH2 0x2710 PUSH1 0x1 DUP4 PUSH2 0x4940 JUMP JUMPDEST PUSH2 0x271A SWAP2 SWAP1 PUSH2 0x4895 JUMP JUMPDEST PUSH2 0x2725 SWAP1 PUSH1 0x1 PUSH2 0x4819 JUMP JUMPDEST SWAP2 POP POP PUSH2 0x25C4 JUMP JUMPDEST PUSH1 0x0 PUSH2 0x273C DUP3 ISZERO ISZERO PUSH1 0x4 PUSH2 0x32EB JUMP JUMPDEST DUP3 PUSH2 0x2749 JUMPI POP PUSH1 0x0 PUSH2 0x25C4 JUMP JUMPDEST PUSH1 0x0 PUSH2 0x275D PUSH8 0xDE0B6B3A7640000 DUP6 PUSH2 0x48A9 JUMP JUMPDEST SWAP1 POP PUSH2 0x2775 PUSH8 0xDE0B6B3A7640000 PUSH2 0x26FC DUP7 DUP5 PUSH2 0x4895 JUMP JUMPDEST PUSH2 0x2725 DUP4 DUP3 PUSH2 0x4895 JUMP JUMPDEST PUSH1 0x0 DUP2 DUP4 LT PUSH2 0x278E JUMPI DUP2 PUSH2 0x24C7 JUMP JUMPDEST POP SWAP1 SWAP2 SWAP1 POP JUMP JUMPDEST PUSH1 0x0 DUP1 PUSH2 0x17E DUP4 DUP2 SLOAD DUP2 LT PUSH2 0x27AC JUMPI PUSH2 0x27AC PUSH2 0x4A31 JUMP JUMPDEST SWAP1 PUSH1 0x0 MSTORE PUSH1 0x20 PUSH1 0x0 KECCAK256 SWAP1 PUSH1 0x3 MUL ADD PUSH1 0x40 MLOAD DUP1 PUSH1 0x60 ADD PUSH1 0x40 MSTORE SWAP1 DUP2 PUSH1 0x0 DUP3 ADD SLOAD DUP2 MSTORE PUSH1 0x20 ADD PUSH1 0x1 DUP3 ADD SLOAD DUP2 MSTORE PUSH1 0x20 ADD PUSH1 0x2 DUP3 ADD SLOAD DUP2 MSTORE POP POP SWAP1 POP PUSH2 0x2809 PUSH1 0x40 MLOAD DUP1 PUSH1 0x60 ADD PUSH1 0x40 MSTORE DUP1 PUSH1 0x0 DUP2 MSTORE PUSH1 0x20 ADD PUSH1 0x0 DUP2 MSTORE PUSH1 0x20 ADD PUSH1 0x0 DUP2 MSTORE POP SWAP1 JUMP JUMPDEST TIMESTAMP PUSH2 0x17D SLOAD EQ PUSH2 0x2822 JUMPI PUSH2 0x281B PUSH2 0x1385 JUMP JUMPDEST SWAP1 POP PUSH2 0x287D JUMP JUMPDEST PUSH2 0x17E DUP1 SLOAD PUSH2 0x2833 SWAP1 PUSH1 0x1 SWAP1 PUSH2 0x4940 JUMP JUMPDEST DUP2 SLOAD DUP2 LT PUSH2 0x2843 JUMPI PUSH2 0x2843 PUSH2 0x4A31 JUMP JUMPDEST SWAP1 PUSH1 0x0 MSTORE PUSH1 0x20 PUSH1 0x0 KECCAK256 SWAP1 PUSH1 0x3 MUL ADD PUSH1 0x40 MLOAD DUP1 PUSH1 0x60 ADD PUSH1 0x40 MSTORE SWAP1 DUP2 PUSH1 0x0 DUP3 ADD SLOAD DUP2 MSTORE PUSH1 0x20 ADD PUSH1 0x1 DUP3 ADD SLOAD DUP2 MSTORE PUSH1 0x20 ADD PUSH1 0x2 DUP3 ADD SLOAD DUP2 MSTORE POP POP SWAP1 POP JUMPDEST DUP5 PUSH2 0x2897 JUMPI DUP2 MLOAD PUSH1 0x20 DUP3 ADD MLOAD PUSH2 0x2892 SWAP2 PUSH2 0x26B4 JUMP JUMPDEST PUSH2 0x28AC JUMP JUMPDEST PUSH1 0x20 DUP3 ADD MLOAD DUP2 MLOAD PUSH2 0x28AC SWAP2 PUSH2 0xD02 SWAP2 SWAP1 PUSH2 0x272D JUMP JUMPDEST SWAP6 SWAP5 POP POP POP POP POP JUMP JUMPDEST PUSH2 0x175 SLOAD PUSH2 0x176 SLOAD PUSH2 0x177 SLOAD PUSH2 0x178 SLOAD DUP5 ISZERO PUSH2 0x28E1 JUMPI PUSH2 0x28DA DUP5 DUP5 DUP8 PUSH2 0x179 SLOAD PUSH2 0x32FD JUMP JUMPDEST POP SWAP1 SWAP5 POP SWAP3 POP JUMPDEST SWAP2 SWAP4 POP SWAP2 SWAP4 JUMP JUMPDEST PUSH2 0x290C PUSH1 0x40 MLOAD DUP1 PUSH1 0x60 ADD PUSH1 0x40 MSTORE DUP1 PUSH1 0x0 DUP2 MSTORE PUSH1 0x20 ADD PUSH1 0x0 DUP2 MSTORE PUSH1 0x20 ADD PUSH1 0x0 DUP2 MSTORE POP SWAP1 JUMP JUMPDEST PUSH1 0x0 PUSH2 0x293F PUSH2 0x292F PUSH2 0x17A SLOAD PUSH8 0x25B946EBC0B36351 PUSH2 0x344B SWAP1 SWAP2 SWAP1 PUSH4 0xFFFFFFFF AND JUMP JUMPDEST PUSH2 0x2939 DUP6 DUP8 PUSH2 0x34A7 JUMP JUMPDEST SWAP1 PUSH2 0x32A3 JUMP JUMPDEST SWAP1 POP PUSH1 0x0 PUSH2 0x296E PUSH2 0x2964 PUSH2 0x17A SLOAD PUSH8 0x51AF86713316A9A PUSH2 0x344B SWAP1 SWAP2 SWAP1 PUSH4 0xFFFFFFFF AND JUMP JUMPDEST PUSH2 0x1803 DUP7 DUP9 PUSH2 0x277F JUMP JUMPDEST PUSH1 0x40 DUP1 MLOAD PUSH1 0x60 DUP2 ADD DUP3 MSTORE SWAP2 DUP3 MSTORE PUSH1 0x20 DUP3 ADD SWAP4 SWAP1 SWAP4 MSTORE SWAP2 DUP3 ADD SWAP4 SWAP1 SWAP4 MSTORE SWAP4 SWAP3 POP POP POP JUMP JUMPDEST PUSH1 0x0 DUP1 PUSH1 0x0 DUP1 PUSH2 0x29A8 PUSH1 0xB6 PUSH1 0x1 SLOAD PUSH2 0x170 SLOAD PUSH2 0x34B7 JUMP JUMPDEST SWAP3 POP SWAP3 POP POP DUP1 PUSH1 0x20 ADD MLOAD DUP3 PUSH1 0x20 ADD MLOAD PUSH2 0x16D PUSH1 0x0 PUSH1 0x2 DUP2 LT PUSH2 0x29CC JUMPI PUSH2 0x29CC PUSH2 0x4A31 JUMP JUMPDEST ADD SLOAD PUSH2 0x29D8 SWAP2 SWAP1 PUSH2 0x4819 JUMP JUMPDEST PUSH2 0x29E2 SWAP2 SWAP1 PUSH2 0x4940 JUMP JUMPDEST SWAP4 POP DUP1 PUSH1 0x40 ADD MLOAD DUP3 PUSH1 0x40 ADD MLOAD PUSH2 0x16D PUSH1 0x1 PUSH1 0x2 DUP2 LT PUSH2 0x2A03 JUMPI PUSH2 0x2A03 PUSH2 0x4A31 JUMP JUMPDEST ADD SLOAD PUSH2 0x2A0F SWAP2 SWAP1 PUSH2 0x4819 JUMP JUMPDEST PUSH2 0x2A19 SWAP2 SWAP1 PUSH2 0x4940 JUMP JUMPDEST SWAP3 POP POP POP SWAP1 SWAP2 JUMP JUMPDEST PUSH1 0x40 DUP1 MLOAD PUSH1 0x2 DUP1 DUP3 MSTORE PUSH1 0x60 DUP3 ADD DUP4 MSTORE PUSH1 0x0 SWAP3 DUP4 SWAP3 SWAP2 SWAP1 PUSH1 0x20 DUP4 ADD SWAP1 DUP1 CALLDATASIZE DUP4 CALLDATACOPY ADD SWAP1 POP POP SWAP1 POP PUSH32 0x0 DUP2 PUSH1 0x0 DUP2 MLOAD DUP2 LT PUSH2 0x2A7A JUMPI PUSH2 0x2A7A PUSH2 0x4A31 JUMP JUMPDEST PUSH1 0x20 MUL PUSH1 0x20 ADD ADD SWAP1 PUSH4 0xFFFFFFFF AND SWAP1 DUP2 PUSH4 0xFFFFFFFF AND DUP2 MSTORE POP POP PUSH1 0x0 DUP2 PUSH1 0x1 DUP2 MLOAD DUP2 LT PUSH2 0x2AA9 JUMPI PUSH2 0x2AA9 PUSH2 0x4A31 JUMP JUMPDEST PUSH1 0x20 MUL PUSH1 0x20 ADD ADD SWAP1 PUSH4 0xFFFFFFFF AND SWAP1 DUP2 PUSH4 0xFFFFFFFF AND DUP2 MSTORE POP POP PUSH1 0x0 DUP1 PUSH32 0x0 PUSH1 0x1 PUSH1 0x1 PUSH1 0xA0 SHL SUB AND PUSH4 0x883BDBFD DUP5 PUSH1 0x40 MLOAD DUP3 PUSH4 0xFFFFFFFF AND PUSH1 0xE0 SHL DUP2 MSTORE PUSH1 0x4 ADD PUSH2 0x2B12 SWAP2 SWAP1 PUSH2 0x4754 JUMP JUMPDEST PUSH1 0x0 PUSH1 0x40 MLOAD DUP1 DUP4 SUB DUP2 DUP7 DUP1 EXTCODESIZE ISZERO DUP1 ISZERO PUSH2 0x2B2A JUMPI PUSH1 0x0 DUP1 REVERT JUMPDEST POP GAS STATICCALL ISZERO DUP1 ISZERO PUSH2 0x2B3E JUMPI RETURNDATASIZE PUSH1 0x0 DUP1 RETURNDATACOPY RETURNDATASIZE PUSH1 0x0 REVERT JUMPDEST POP POP POP POP PUSH1 0x40 MLOAD RETURNDATASIZE PUSH1 0x0 DUP3 RETURNDATACOPY PUSH1 0x1F RETURNDATASIZE SWAP1 DUP2 ADD PUSH1 0x1F NOT AND DUP3 ADD PUSH1 0x40 MSTORE PUSH2 0x2B66 SWAP2 SWAP1 DUP2 ADD SWAP1 PUSH2 0x44A4 JUMP JUMPDEST SWAP2 POP SWAP2 POP PUSH1 0x0 PUSH2 0x2BE2 PUSH32 0x0 PUSH1 0x3 SIGNEXTEND DUP5 PUSH1 0x0 DUP2 MLOAD DUP2 LT PUSH2 0x2BA6 JUMPI PUSH2 0x2BA6 PUSH2 0x4A31 JUMP JUMPDEST PUSH1 0x20 MUL PUSH1 0x20 ADD ADD MLOAD DUP6 PUSH1 0x1 DUP2 MLOAD DUP2 LT PUSH2 0x2BC1 JUMPI PUSH2 0x2BC1 PUSH2 0x4A31 JUMP JUMPDEST PUSH1 0x20 MUL PUSH1 0x20 ADD ADD MLOAD PUSH2 0x2BD3 SWAP2 SWAP1 PUSH2 0x48C8 JUMP JUMPDEST PUSH2 0x2BDD SWAP2 SWAP1 PUSH2 0x4831 JUMP JUMPDEST PUSH2 0x1F3E JUMP JUMPDEST PUSH1 0x1 PUSH1 0x1 PUSH1 0xA0 SHL SUB AND SWAP1 POP PUSH1 0x0 DUP3 PUSH1 0x0 DUP2 MLOAD DUP2 LT PUSH2 0x2C02 JUMPI PUSH2 0x2C02 PUSH2 0x4A31 JUMP JUMPDEST PUSH1 0x20 MUL PUSH1 0x20 ADD ADD MLOAD DUP4 PUSH1 0x1 DUP2 MLOAD DUP2 LT PUSH2 0x2C1D JUMPI PUSH2 0x2C1D PUSH2 0x4A31 JUMP JUMPDEST PUSH1 0x20 MUL PUSH1 0x20 ADD ADD MLOAD PUSH2 0x2C2F SWAP2 SWAP1 PUSH2 0x4918 JUMP JUMPDEST PUSH2 0x2C6F SWAP1 PUSH16 0xFFFFFFFFFFFFFFFFFFFFFFFFFFFFFFFF NOT PUSH32 0x0 PUSH1 0x80 SHL AND PUSH2 0x486F JUMP JUMPDEST PUSH1 0x1 PUSH1 0x1 PUSH1 0xA0 SHL SUB AND SWAP1 POP PUSH1 0x0 PUSH32 0x0 PUSH2 0x2CB4 JUMPI PUSH2 0x2CAF DUP3 DUP5 PUSH2 0x184 SLOAD PUSH2 0x235D JUMP JUMPDEST PUSH2 0x2CC2 JUMP JUMPDEST PUSH2 0x2CC2 DUP4 PUSH1 0x60 DUP5 SWAP1 SHL PUSH2 0x4895 JUMP JUMPDEST PUSH1 0x40 MLOAD PUSH4 0x883BDBFD PUSH1 0xE0 SHL DUP2 MSTORE SWAP1 SWAP2 POP PUSH1 0x1 PUSH1 0x1 PUSH1 0xA0 SHL SUB PUSH32 0x0 AND SWAP1 PUSH4 0x883BDBFD SWAP1 PUSH2 0x2D11 SWAP1 DUP10 SWAP1 PUSH1 0x4 ADD PUSH2 0x4754 JUMP JUMPDEST PUSH1 0x0 PUSH1 0x40 MLOAD DUP1 DUP4 SUB DUP2 DUP7 DUP1 EXTCODESIZE ISZERO DUP1 ISZERO PUSH2 0x2D29 JUMPI PUSH1 0x0 DUP1 REVERT JUMPDEST POP GAS STATICCALL ISZERO DUP1 ISZERO PUSH2 0x2D3D JUMPI RETURNDATASIZE PUSH1 0x0 DUP1 RETURNDATACOPY RETURNDATASIZE PUSH1 0x0 REVERT JUMPDEST POP POP POP POP PUSH1 0x40 MLOAD RETURNDATASIZE PUSH1 0x0 DUP3 RETURNDATACOPY PUSH1 0x1F RETURNDATASIZE SWAP1 DUP2 ADD PUSH1 0x1F NOT AND DUP3 ADD PUSH1 0x40 MSTORE PUSH2 0x2D65 SWAP2 SWAP1 DUP2 ADD SWAP1 PUSH2 0x44A4 JUMP JUMPDEST POP DUP1 SWAP6 POP POP PUSH1 0x0 PUSH2 0x2E1A PUSH32 0x0 PUSH1 0x3 SIGNEXTEND DUP8 PUSH1 0x0 DUP2 MLOAD DUP2 LT PUSH2 0x2DA6 JUMPI PUSH2 0x2DA6 PUSH2 0x4A31 JUMP JUMPDEST PUSH1 0x20 MUL PUSH1 0x20 ADD ADD MLOAD DUP9 PUSH1 0x1 DUP2 MLOAD DUP2 LT PUSH2 0x2DC1 JUMPI PUSH2 0x2DC1 PUSH2 0x4A31 JUMP JUMPDEST PUSH1 0x20 MUL PUSH1 0x20 ADD ADD MLOAD PUSH2 0x2DD3 SWAP2 SWAP1 PUSH2 0x48C8 JUMP JUMPDEST PUSH2 0x2DDD SWAP2 SWAP1 PUSH2 0x4831 JUMP JUMPDEST PUSH2 0x17F SLOAD PUSH8 0xDE0B6B3A7640000 SWAP1 PUSH1 0x1 PUSH1 0x1 PUSH1 0xA0 SHL SUB AND PUSH32 0x0 PUSH2 0x1E30 JUMP JUMPDEST SWAP1 POP PUSH2 0x2E58 PUSH8 0x1BC16D674EC80000 PUSH2 0x2E52 DUP4 PUSH2 0x2E3E DUP7 PUSH8 0xDE0B6B3A7640000 PUSH2 0x48A9 JUMP JUMPDEST PUSH2 0x2E48 SWAP2 SWAP1 PUSH2 0x4895 JUMP JUMPDEST PUSH2 0x16C SLOAD SWAP1 PUSH2 0x32A3 JUMP JUMPDEST SWAP1 PUSH2 0x272D JUMP JUMPDEST SWAP8 POP POP POP POP POP POP POP POP SWAP1 JUMP JUMPDEST PUSH2 0x172 SLOAD TIMESTAMP SWAP1 DUP1 DUP3 GT ISZERO PUSH2 0x2F4B JUMPI PUSH1 0x1 SLOAD PUSH1 0x0 PUSH1 0xB6 DUP3 PUSH1 0x3C DUP2 LT PUSH2 0x2E8A JUMPI PUSH2 0x2E8A PUSH2 0x4A31 JUMP JUMPDEST PUSH1 0x40 DUP1 MLOAD PUSH1 0x60 DUP2 ADD DUP3 MSTORE PUSH1 0x3 SWAP3 SWAP1 SWAP3 MUL SWAP3 SWAP1 SWAP3 ADD DUP1 SLOAD PUSH1 0x1 DUP3 ADD SLOAD PUSH1 0x20 DUP5 ADD DUP2 DUP2 MSTORE PUSH1 0x2 SWAP1 SWAP4 ADD SLOAD SWAP5 DUP5 ADD SWAP5 SWAP1 SWAP5 MSTORE DUP7 DUP4 MSTORE PUSH2 0x16D SLOAD SWAP3 SWAP5 POP SWAP3 PUSH2 0x2ECF SWAP1 DUP4 SWAP1 PUSH2 0x4819 JUMP JUMPDEST SWAP1 MSTORE POP PUSH2 0x16E SLOAD PUSH1 0x40 DUP4 ADD DUP1 MLOAD PUSH2 0x2EE7 SWAP1 DUP4 SWAP1 PUSH2 0x4819 JUMP JUMPDEST SWAP1 MSTORE POP PUSH2 0x2EF7 PUSH1 0xB6 DUP4 DUP4 DUP7 PUSH2 0x31F8 JUMP JUMPDEST PUSH1 0x1 SSTORE PUSH2 0x16D DUP8 SWAP1 SSTORE PUSH2 0x16E DUP7 SWAP1 SSTORE PUSH2 0x16F SLOAD DUP1 DUP1 PUSH2 0x2F16 DUP8 DUP10 PUSH2 0x4940 JUMP JUMPDEST PUSH2 0x2F20 SWAP2 SWAP1 PUSH2 0x4895 JUMP JUMPDEST PUSH2 0x2F2A SWAP2 SWAP1 PUSH2 0x48A9 JUMP JUMPDEST PUSH2 0x172 PUSH1 0x0 DUP3 DUP3 SLOAD PUSH2 0x2F3C SWAP2 SWAP1 PUSH2 0x4819 JUMP JUMPDEST SWAP1 SWAP2 SSTORE POP PUSH2 0x2528 SWAP5 POP POP POP POP POP JUMP JUMPDEST DUP4 PUSH2 0x16D PUSH1 0x0 ADD PUSH1 0x0 DUP3 DUP3 SLOAD PUSH2 0x2F61 SWAP2 SWAP1 PUSH2 0x4819 JUMP JUMPDEST SWAP1 SWAP2 SSTORE POP DUP4 SWAP1 POP PUSH2 0x16D PUSH1 0x1 ADD PUSH1 0x0 DUP3 DUP3 SLOAD PUSH2 0x2F7D SWAP2 SWAP1 PUSH2 0x4819 JUMP JUMPDEST SWAP1 SWAP2 SSTORE POP POP POP POP POP POP JUMP JUMPDEST DUP1 MLOAD PUSH1 0x20 DUP1 DUP4 ADD MLOAD PUSH1 0x40 DUP1 DUP6 ADD MLOAD DUP2 MLOAD SWAP5 DUP6 MSTORE SWAP3 DUP5 ADD SWAP2 SWAP1 SWAP2 MSTORE DUP3 ADD MSTORE PUSH32 0x7F422DD5CD123CCCA7C61CA8286EE04CB58966E2C07631CC2B660F81713C98E5 SWAP1 PUSH1 0x60 ADD PUSH1 0x40 MLOAD DUP1 SWAP2 SUB SWAP1 LOG1 PUSH2 0x17E DUP1 SLOAD PUSH1 0x1 DUP2 ADD DUP3 SSTORE PUSH1 0x0 SWAP2 SWAP1 SWAP2 MSTORE DUP2 MLOAD PUSH32 0xD1312EE27205A4576709FF9BEF36787DEEA9CECC546A5DCDBF697804758E1E24 PUSH1 0x3 SWAP1 SWAP3 MUL SWAP2 DUP3 ADD SSTORE PUSH1 0x20 DUP3 ADD MLOAD PUSH32 0xD1312EE27205A4576709FF9BEF36787DEEA9CECC546A5DCDBF697804758E1E25 DUP3 ADD SSTORE PUSH1 0x40 SWAP1 SWAP2 ADD MLOAD PUSH32 0xD1312EE27205A4576709FF9BEF36787DEEA9CECC546A5DCDBF697804758E1E26 SWAP1 SWAP2 ADD SSTORE JUMP JUMPDEST PUSH1 0x0 DUP1 PUSH1 0x0 PUSH2 0x307C PUSH2 0x175 SLOAD PUSH2 0x176 SLOAD DUP7 DUP9 PUSH2 0x32FD JUMP JUMPDEST PUSH2 0x175 DUP4 SWAP1 SSTORE PUSH2 0x176 DUP3 SWAP1 SSTORE PUSH1 0x40 DUP1 MLOAD DUP5 DUP2 MSTORE PUSH1 0x20 DUP2 ADD DUP5 SWAP1 MSTORE SWAP1 DUP2 ADD DUP3 SWAP1 MSTORE SWAP1 SWAP6 POP SWAP2 SWAP4 POP SWAP2 POP PUSH32 0xBD9B2EB2E69E8D71702753E645D1FBCDA9B8473629152F5A3CBC18BC2CEECC2F SWAP1 PUSH1 0x60 ADD PUSH1 0x40 MLOAD DUP1 SWAP2 SUB SWAP1 LOG1 POP POP SWAP3 SWAP2 POP POP JUMP JUMPDEST PUSH2 0x30FD PUSH1 0x40 MLOAD DUP1 PUSH1 0x60 ADD PUSH1 0x40 MSTORE DUP1 PUSH1 0x0 DUP2 MSTORE PUSH1 0x20 ADD PUSH1 0x0 DUP2 MSTORE PUSH1 0x20 ADD PUSH1 0x0 DUP2 MSTORE POP SWAP1 JUMP JUMPDEST PUSH1 0x0 DUP1 PUSH1 0x0 DUP1 PUSH1 0x0 DUP1 PUSH2 0x3117 PUSH1 0x2 PUSH1 0x0 SLOAD PUSH2 0x16B SLOAD PUSH2 0x34B7 JUMP JUMPDEST SWAP3 POP SWAP3 POP SWAP3 POP PUSH2 0x3125 PUSH2 0x177A JUMP JUMPDEST SWAP4 POP PUSH1 0x0 PUSH2 0x3133 DUP10 DUP7 PUSH2 0x272D JUMP JUMPDEST SWAP1 POP DUP10 ISZERO PUSH2 0x3155 JUMPI DUP1 DUP4 PUSH1 0x20 ADD DUP2 DUP2 MLOAD PUSH2 0x314D SWAP2 SWAP1 PUSH2 0x4819 JUMP JUMPDEST SWAP1 MSTORE POP PUSH2 0x316B JUMP JUMPDEST DUP1 DUP4 PUSH1 0x40 ADD DUP2 DUP2 MLOAD PUSH2 0x3167 SWAP2 SWAP1 PUSH2 0x4819 JUMP JUMPDEST SWAP1 MSTORE POP JUMPDEST PUSH1 0x0 PUSH2 0x31AC DUP12 PUSH2 0x318E JUMPI DUP4 PUSH1 0x40 ADD MLOAD DUP6 PUSH1 0x40 ADD MLOAD PUSH2 0x3189 SWAP2 SWAP1 PUSH2 0x4940 JUMP JUMPDEST PUSH2 0x31A2 JUMP JUMPDEST DUP4 PUSH1 0x20 ADD MLOAD DUP6 PUSH1 0x20 ADD MLOAD PUSH2 0x31A2 SWAP2 SWAP1 PUSH2 0x4940 JUMP JUMPDEST PUSH2 0x16C SLOAD SWAP1 PUSH2 0x2580 JUMP JUMPDEST SWAP1 POP DUP5 SWAP8 POP DUP4 SWAP9 POP DUP2 PUSH1 0x0 EQ ISZERO PUSH2 0x31C4 JUMPI PUSH1 0x0 PUSH2 0x31E8 JUMP JUMPDEST PUSH2 0x31E8 PUSH2 0x31D9 PUSH8 0x51AF86713316A9A DUP4 PUSH2 0x344B JUMP JUMPDEST PUSH8 0xDE0B6B3A7640000 SWAP1 PUSH2 0x36AA JUMP JUMPDEST SWAP7 POP POP POP POP POP POP SWAP3 SWAP6 SWAP2 SWAP5 POP SWAP3 POP JUMP JUMPDEST DUP3 MLOAD PUSH1 0x0 SWAP1 DUP4 EQ PUSH2 0x3262 JUMPI PUSH2 0x320E PUSH1 0x1 DUP4 PUSH2 0x4819 JUMP JUMPDEST SWAP2 POP PUSH1 0x3C DUP3 LT ISZERO PUSH2 0x3256 JUMPI DUP4 DUP6 DUP4 PUSH1 0x3C DUP2 LT PUSH2 0x322C JUMPI PUSH2 0x322C PUSH2 0x4A31 JUMP JUMPDEST PUSH1 0x3 MUL ADD PUSH1 0x0 DUP3 ADD MLOAD DUP2 PUSH1 0x0 ADD SSTORE PUSH1 0x20 DUP3 ADD MLOAD DUP2 PUSH1 0x1 ADD SSTORE PUSH1 0x40 DUP3 ADD MLOAD DUP2 PUSH1 0x2 ADD SSTORE SWAP1 POP POP PUSH2 0x329B JUMP JUMPDEST PUSH1 0x0 SWAP2 POP DUP4 DUP6 DUP4 PUSH2 0x322C JUMP JUMPDEST DUP4 DUP6 DUP4 PUSH1 0x3C DUP2 LT PUSH2 0x3275 JUMPI PUSH2 0x3275 PUSH2 0x4A31 JUMP JUMPDEST PUSH1 0x3 MUL ADD PUSH1 0x0 DUP3 ADD MLOAD DUP2 PUSH1 0x0 ADD SSTORE PUSH1 0x20 DUP3 ADD MLOAD DUP2 PUSH1 0x1 ADD SSTORE PUSH1 0x40 DUP3 ADD MLOAD DUP2 PUSH1 0x2 ADD SSTORE SWAP1 POP POP JUMPDEST POP SWAP4 SWAP3 POP POP POP JUMP JUMPDEST PUSH1 0x0 DUP1 PUSH2 0x32B0 DUP4 DUP6 PUSH2 0x48A9 JUMP JUMPDEST SWAP1 POP PUSH2 0x32C8 DUP5 ISZERO DUP1 PUSH2 0x25A7 JUMPI POP DUP4 PUSH2 0x25A5 DUP7 DUP5 PUSH2 0x4895 JUMP JUMPDEST DUP1 PUSH2 0x32D7 JUMPI PUSH1 0x0 SWAP2 POP POP PUSH2 0x25C4 JUMP JUMPDEST PUSH8 0xDE0B6B3A7640000 PUSH2 0x2710 PUSH1 0x1 DUP4 PUSH2 0x4940 JUMP JUMPDEST DUP2 PUSH2 0x32F9 JUMPI PUSH2 0x32F9 DUP2 PUSH2 0x36C6 JUMP JUMPDEST POP POP JUMP JUMPDEST PUSH1 0x0 DUP1 DUP1 DUP7 ISZERO DUP1 ISZERO PUSH2 0x330D JUMPI POP DUP6 ISZERO JUMPDEST ISZERO PUSH2 0x3320 JUMPI POP PUSH1 0x0 SWAP2 POP DUP2 SWAP1 POP DUP1 PUSH2 0x3441 JUMP JUMPDEST DUP5 PUSH2 0x3333 JUMPI POP DUP6 SWAP2 POP DUP5 SWAP1 POP PUSH1 0x0 PUSH2 0x3441 JUMP JUMPDEST PUSH1 0x0 PUSH2 0x3355 PUSH2 0x31D9 PUSH2 0x334E PUSH8 0xDE0B6B3A7640000 PUSH1 0x2 PUSH2 0x48A9 JUMP JUMPDEST DUP8 SWAP1 PUSH2 0x32A3 JUMP JUMPDEST SWAP1 POP PUSH2 0x3373 PUSH2 0x336C DUP8 PUSH8 0xDE0B6B3A7640000 PUSH2 0x48A9 JUMP JUMPDEST DUP3 SWAP1 PUSH2 0x344B JUMP JUMPDEST SWAP1 POP DUP8 DUP8 DUP1 DUP3 GT DUP1 ISZERO SWAP1 PUSH2 0x3385 JUMPI SWAP1 SWAP2 SWAP1 JUMPDEST DUP2 PUSH2 0x33AB JUMPI PUSH1 0x0 PUSH2 0x3396 DUP6 DUP6 PUSH2 0x2580 JUMP JUMPDEST SWAP1 POP PUSH2 0x33A2 DUP2 DUP6 PUSH2 0x4940 JUMP JUMPDEST SWAP6 POP SWAP3 POP PUSH2 0x341C JUMP JUMPDEST PUSH1 0x0 PUSH2 0x33C1 PUSH2 0x33BA DUP5 DUP7 PUSH2 0x4940 JUMP JUMPDEST DUP7 SWAP1 PUSH2 0x2580 JUMP JUMPDEST SWAP1 POP PUSH1 0x0 PUSH2 0x33CF DUP5 DUP7 PUSH2 0x4819 JUMP JUMPDEST SWAP1 POP PUSH1 0x2 PUSH2 0x33DD DUP6 DUP8 PUSH2 0x4940 JUMP JUMPDEST PUSH2 0x33E7 SWAP2 SWAP1 PUSH2 0x4895 JUMP JUMPDEST SWAP7 POP PUSH1 0x2 PUSH2 0x33F5 DUP4 DUP4 PUSH2 0x4819 JUMP JUMPDEST PUSH2 0x33FF SWAP2 SWAP1 PUSH2 0x4895 JUMP JUMPDEST SWAP5 POP PUSH1 0x2 PUSH2 0x340D DUP4 DUP4 PUSH2 0x4940 JUMP JUMPDEST PUSH2 0x3417 SWAP2 SWAP1 PUSH2 0x4895 JUMP JUMPDEST SWAP4 POP POP POP JUMPDEST DUP1 PUSH2 0x3431 JUMPI DUP3 DUP3 PUSH2 0x342C DUP8 PUSH2 0x49E8 JUMP JUMPDEST PUSH2 0x3435 JUMP JUMPDEST DUP2 DUP4 DUP7 JUMPDEST SWAP2 SWAP9 POP SWAP7 POP SWAP5 POP POP POP POP POP JUMPDEST SWAP5 POP SWAP5 POP SWAP5 SWAP2 POP POP JUMP JUMPDEST PUSH1 0x0 DUP3 PUSH8 0xDE0B6B3A7640000 EQ DUP1 PUSH2 0x3461 JUMPI POP DUP2 ISZERO JUMPDEST ISZERO PUSH2 0x3475 JUMPI POP PUSH8 0xDE0B6B3A7640000 PUSH2 0x25C4 JUMP JUMPDEST PUSH1 0x0 PUSH2 0x3481 DUP5 DUP5 PUSH2 0x3719 JUMP JUMPDEST SWAP1 POP PUSH1 0x0 PUSH2 0x349B PUSH2 0x3494 DUP4 PUSH2 0x2710 PUSH2 0x32A3 JUMP JUMPDEST PUSH1 0x1 PUSH2 0x3803 JUMP JUMPDEST SWAP1 POP PUSH2 0x28AC DUP3 DUP3 PUSH2 0x3803 JUMP JUMPDEST PUSH1 0x0 DUP2 DUP4 LT ISZERO PUSH2 0x278E JUMPI DUP2 PUSH2 0x24C7 JUMP JUMPDEST PUSH1 0x0 PUSH2 0x34DD PUSH1 0x40 MLOAD DUP1 PUSH1 0x60 ADD PUSH1 0x40 MSTORE DUP1 PUSH1 0x0 DUP2 MSTORE PUSH1 0x20 ADD PUSH1 0x0 DUP2 MSTORE PUSH1 0x20 ADD PUSH1 0x0 DUP2 MSTORE POP SWAP1 JUMP JUMPDEST PUSH2 0x3501 PUSH1 0x40 MLOAD DUP1 PUSH1 0x60 ADD PUSH1 0x40 MSTORE DUP1 PUSH1 0x0 DUP2 MSTORE PUSH1 0x20 ADD PUSH1 0x0 DUP2 MSTORE PUSH1 0x20 ADD PUSH1 0x0 DUP2 MSTORE POP SWAP1 JUMP JUMPDEST TIMESTAMP DUP7 DUP7 PUSH1 0x3C DUP2 LT PUSH2 0x3514 JUMPI PUSH2 0x3514 PUSH2 0x4A31 JUMP JUMPDEST PUSH1 0x3 MUL ADD PUSH1 0x40 MLOAD DUP1 PUSH1 0x60 ADD PUSH1 0x40 MSTORE SWAP1 DUP2 PUSH1 0x0 DUP3 ADD SLOAD DUP2 MSTORE PUSH1 0x20 ADD PUSH1 0x1 DUP3 ADD SLOAD DUP2 MSTORE PUSH1 0x20 ADD PUSH1 0x2 DUP3 ADD SLOAD DUP2 MSTORE POP POP SWAP3 POP DUP3 PUSH1 0x0 ADD MLOAD SWAP4 POP PUSH1 0x0 DUP6 DUP3 PUSH2 0x3558 SWAP2 SWAP1 PUSH2 0x4940 JUMP JUMPDEST SWAP1 POP DUP1 DUP5 PUSH1 0x0 ADD MLOAD GT PUSH2 0x3581 JUMPI POP DUP3 MSTORE PUSH1 0x20 DUP1 DUP4 ADD MLOAD SWAP1 DUP3 ADD MSTORE PUSH1 0x40 DUP1 DUP4 ADD MLOAD SWAP1 DUP3 ADD MSTORE PUSH2 0x36A1 JUMP JUMPDEST DUP4 MLOAD DUP3 EQ PUSH2 0x358D JUMPI DUP2 DUP5 MSTORE JUMPDEST PUSH1 0x0 DUP1 PUSH2 0x359B DUP11 DUP11 DUP6 PUSH2 0x3820 JUMP JUMPDEST DUP2 MLOAD SWAP2 SWAP4 POP SWAP2 POP DUP4 EQ ISZERO PUSH2 0x35B1 JUMPI DUP2 SWAP5 POP PUSH2 0x369C JUMP JUMPDEST DUP1 MLOAD DUP4 EQ ISZERO PUSH2 0x35C2 JUMPI DUP1 SWAP5 POP PUSH2 0x369C JUMP JUMPDEST DUP2 MLOAD DUP2 MLOAD EQ ISZERO PUSH2 0x35D4 JUMPI DUP2 SWAP5 POP PUSH2 0x369C JUMP JUMPDEST PUSH1 0x0 DUP3 PUSH1 0x20 ADD MLOAD DUP3 PUSH1 0x20 ADD MLOAD PUSH2 0x35EA SWAP2 SWAP1 PUSH2 0x4940 JUMP JUMPDEST SWAP1 POP PUSH1 0x0 DUP4 PUSH1 0x40 ADD MLOAD DUP4 PUSH1 0x40 ADD MLOAD PUSH2 0x3602 SWAP2 SWAP1 PUSH2 0x4940 JUMP JUMPDEST DUP5 MLOAD DUP5 MLOAD SWAP2 SWAP3 POP PUSH1 0x0 SWAP2 PUSH2 0x3616 SWAP2 SWAP1 PUSH2 0x4940 JUMP JUMPDEST PUSH2 0x3628 SWAP1 PUSH8 0xDE0B6B3A7640000 PUSH2 0x48A9 JUMP JUMPDEST SWAP1 POP PUSH1 0x0 PUSH2 0x3658 DUP3 DUP8 PUSH1 0x0 ADD MLOAD DUP10 PUSH2 0x3640 SWAP2 SWAP1 PUSH2 0x4940 JUMP JUMPDEST PUSH2 0x3652 SWAP1 PUSH8 0xDE0B6B3A7640000 PUSH2 0x48A9 JUMP JUMPDEST SWAP1 PUSH2 0x26B4 JUMP JUMPDEST SWAP1 POP PUSH2 0x3672 PUSH2 0x3667 DUP6 DUP4 PUSH2 0x2580 JUMP JUMPDEST PUSH1 0x20 DUP9 ADD MLOAD SWAP1 PUSH2 0x3803 JUMP JUMPDEST PUSH1 0x20 DUP11 ADD MSTORE PUSH2 0x368F PUSH2 0x3684 DUP5 DUP4 PUSH2 0x2580 JUMP JUMPDEST PUSH1 0x40 DUP9 ADD MLOAD SWAP1 PUSH2 0x3803 JUMP JUMPDEST PUSH1 0x40 DUP11 ADD MSTORE POP POP POP DUP4 DUP7 MSTORE POP JUMPDEST POP POP POP POP JUMPDEST SWAP4 POP SWAP4 POP SWAP4 SWAP1 POP JUMP JUMPDEST PUSH1 0x0 PUSH2 0x36BA DUP4 DUP4 GT ISZERO PUSH1 0x1 PUSH2 0x32EB JUMP JUMPDEST PUSH1 0x0 PUSH2 0x25C0 DUP4 DUP6 PUSH2 0x4940 JUMP JUMPDEST PUSH3 0x461BCD PUSH1 0xE5 SHL PUSH1 0x0 SWAP1 DUP2 MSTORE PUSH1 0x20 PUSH1 0x4 MSTORE PUSH1 0x7 PUSH1 0x24 MSTORE PUSH7 0x42414C23000030 PUSH1 0xA DUP1 DUP5 DIV DUP2 DUP2 MOD PUSH1 0x30 SWAP1 DUP2 ADD PUSH1 0x8 SHL SWAP6 DUP4 SWAP1 MOD SWAP6 SWAP1 SWAP6 ADD SWAP1 DUP3 SWAP1 DIV SWAP2 DUP3 MOD SWAP1 SWAP5 ADD PUSH1 0x10 SHL SWAP4 SWAP1 SWAP4 ADD ADD PUSH1 0xC8 SHL PUSH1 0x44 MSTORE PUSH1 0x64 SWAP1 REVERT JUMPDEST PUSH1 0x0 PUSH2 0x372C PUSH1 0x1 PUSH1 0xFF SHL DUP5 LT PUSH1 0x6 PUSH2 0x32EB JUMP JUMPDEST DUP3 PUSH2 0x3752 PUSH24 0xBCE5086492111AEA88F4BB1CA6BCF584181EA8059F76532 DUP5 LT PUSH1 0x7 PUSH2 0x32EB JUMP JUMPDEST DUP3 PUSH1 0x0 PUSH8 0xC7D713B49DA0000 DUP4 SGT DUP1 ISZERO PUSH2 0x3773 JUMPI POP PUSH8 0xF43FC2C04EE0000 DUP4 SLT JUMPDEST ISZERO PUSH2 0x37AA JUMPI PUSH1 0x0 PUSH2 0x3783 DUP5 PUSH2 0x3992 JUMP JUMPDEST SWAP1 POP PUSH8 0xDE0B6B3A7640000 DUP1 DUP3 SMOD DUP5 MUL SDIV DUP4 PUSH8 0xDE0B6B3A7640000 DUP4 SDIV MUL ADD SWAP2 POP POP PUSH2 0x37B8 JUMP JUMPDEST DUP2 PUSH2 0x37B4 DUP5 PUSH2 0x3ABA JUMP JUMPDEST MUL SWAP1 POP JUMPDEST PUSH8 0xDE0B6B3A7640000 SWAP1 SDIV PUSH2 0x37F0 PUSH9 0x238FD42C5CF03FFFF NOT DUP3 SLT DUP1 ISZERO SWAP1 PUSH2 0x37E9 JUMPI POP PUSH9 0x70C1CC73B00C80000 DUP3 SGT ISZERO JUMPDEST PUSH1 0x8 PUSH2 0x32EB JUMP JUMPDEST PUSH2 0x37F9 DUP2 PUSH2 0x3E65 JUMP JUMPDEST SWAP7 SWAP6 POP POP POP POP POP POP JUMP JUMPDEST PUSH1 0x0 DUP1 PUSH2 0x3810 DUP4 DUP6 PUSH2 0x4819 JUMP JUMPDEST SWAP1 POP PUSH2 0x24C7 DUP5 DUP3 LT ISZERO PUSH1 0x0 PUSH2 0x32EB JUMP JUMPDEST PUSH2 0x3844 PUSH1 0x40 MLOAD DUP1 PUSH1 0x60 ADD PUSH1 0x40 MSTORE DUP1 PUSH1 0x0 DUP2 MSTORE PUSH1 0x20 ADD PUSH1 0x0 DUP2 MSTORE PUSH1 0x20 ADD PUSH1 0x0 DUP2 MSTORE POP SWAP1 JUMP JUMPDEST PUSH2 0x3868 PUSH1 0x40 MLOAD DUP1 PUSH1 0x60 ADD PUSH1 0x40 MSTORE DUP1 PUSH1 0x0 DUP2 MSTORE PUSH1 0x20 ADD PUSH1 0x0 DUP2 MSTORE PUSH1 0x20 ADD PUSH1 0x0 DUP2 MSTORE POP SWAP1 JUMP JUMPDEST DUP5 DUP5 PUSH1 0x3C DUP2 LT PUSH2 0x387A JUMPI PUSH2 0x387A PUSH2 0x4A31 JUMP JUMPDEST PUSH1 0x3 MUL ADD PUSH1 0x40 MLOAD DUP1 PUSH1 0x60 ADD PUSH1 0x40 MSTORE SWAP1 DUP2 PUSH1 0x0 DUP3 ADD SLOAD DUP2 MSTORE PUSH1 0x20 ADD PUSH1 0x1 DUP3 ADD SLOAD DUP2 MSTORE PUSH1 0x20 ADD PUSH1 0x2 DUP3 ADD SLOAD DUP2 MSTORE POP POP SWAP2 POP DUP3 DUP3 PUSH1 0x0 ADD MLOAD GT PUSH2 0x38DE JUMPI DUP2 MLOAD DUP4 EQ ISZERO PUSH2 0x38C2 JUMPI PUSH2 0x398A JUMP JUMPDEST TIMESTAMP DUP2 MSTORE PUSH1 0x20 DUP1 DUP4 ADD MLOAD SWAP1 DUP3 ADD MSTORE PUSH1 0x40 DUP1 DUP4 ADD MLOAD SWAP1 DUP3 ADD MSTORE PUSH2 0x398A JUMP JUMPDEST PUSH1 0x3C PUSH2 0x38EB DUP6 PUSH1 0x1 PUSH2 0x4819 JUMP JUMPDEST PUSH2 0x38F5 SWAP2 SWAP1 PUSH2 0x49BA JUMP JUMPDEST SWAP4 POP DUP5 DUP5 PUSH1 0x3C DUP2 LT PUSH2 0x3909 JUMPI PUSH2 0x3909 PUSH2 0x4A31 JUMP JUMPDEST PUSH1 0x3 MUL ADD PUSH1 0x40 MLOAD DUP1 PUSH1 0x60 ADD PUSH1 0x40 MSTORE SWAP1 DUP2 PUSH1 0x0 DUP3 ADD SLOAD DUP2 MSTORE PUSH1 0x20 ADD PUSH1 0x1 DUP3 ADD SLOAD DUP2 MSTORE PUSH1 0x20 ADD PUSH1 0x2 DUP3 ADD SLOAD DUP2 MSTORE POP POP SWAP2 POP PUSH1 0x1 DUP3 PUSH1 0x0 ADD MLOAD GT PUSH2 0x396B JUMPI PUSH1 0x40 DUP1 MLOAD PUSH1 0x60 DUP2 ADD DUP3 MSTORE DUP7 SLOAD DUP2 MSTORE PUSH1 0x1 DUP8 ADD SLOAD PUSH1 0x20 DUP3 ADD MSTORE PUSH1 0x2 DUP8 ADD SLOAD SWAP2 DUP2 ADD SWAP2 SWAP1 SWAP2 MSTORE SWAP2 POP JUMPDEST DUP2 MLOAD DUP4 GT PUSH2 0x397A JUMPI POP DUP1 PUSH2 0x398A JUMP JUMPDEST PUSH2 0x3985 DUP6 DUP5 DUP7 PUSH2 0x4248 JUMP JUMPDEST SWAP2 POP SWAP2 POP JUMPDEST SWAP4 POP SWAP4 SWAP2 POP POP JUMP JUMPDEST PUSH8 0xDE0B6B3A7640000 MUL PUSH1 0x0 DUP1 PUSH15 0xC097CE7BC90715B34B9F1000000000 DUP1 DUP5 ADD SWAP1 PUSH15 0xC097CE7BC90715B34B9F0FFFFFFFFF NOT DUP6 ADD MUL DUP2 PUSH2 0x39D4 JUMPI PUSH2 0x39D4 PUSH2 0x4A1B JUMP JUMPDEST SDIV SWAP1 POP PUSH1 0x0 PUSH15 0xC097CE7BC90715B34B9F1000000000 DUP3 DUP1 MUL SDIV SWAP1 POP DUP2 DUP1 PUSH15 0xC097CE7BC90715B34B9F1000000000 DUP2 DUP5 MUL SDIV SWAP2 POP PUSH1 0x3 DUP3 SDIV ADD PUSH15 0xC097CE7BC90715B34B9F1000000000 DUP3 DUP5 MUL SDIV SWAP2 POP PUSH1 0x5 DUP3 SDIV ADD PUSH15 0xC097CE7BC90715B34B9F1000000000 DUP3 DUP5 MUL SDIV SWAP2 POP PUSH1 0x7 DUP3 SDIV ADD PUSH15 0xC097CE7BC90715B34B9F1000000000 DUP3 DUP5 MUL SDIV SWAP2 POP PUSH1 0x9 DUP3 SDIV ADD PUSH15 0xC097CE7BC90715B34B9F1000000000 DUP3 DUP5 MUL SDIV SWAP2 POP PUSH1 0xB DUP3 SDIV ADD PUSH15 0xC097CE7BC90715B34B9F1000000000 DUP3 DUP5 MUL SDIV SWAP2 POP PUSH1 0xD DUP3 SDIV ADD PUSH15 0xC097CE7BC90715B34B9F1000000000 DUP3 DUP5 MUL SDIV SWAP2 POP PUSH1 0xF DUP3 SDIV ADD PUSH1 0x2 MUL SWAP6 SWAP5 POP POP POP POP POP JUMP JUMPDEST PUSH1 0x0 PUSH8 0xDE0B6B3A7640000 DUP3 SLT ISZERO PUSH2 0x3AFC JUMPI PUSH2 0x3AF3 DUP3 PUSH15 0xC097CE7BC90715B34B9F1000000000 DUP2 PUSH2 0x3AED JUMPI PUSH2 0x3AED PUSH2 0x4A1B JUMP JUMPDEST SDIV PUSH2 0x3ABA JUMP JUMPDEST PUSH1 0x0 SUB SWAP3 SWAP2 POP POP JUMP JUMPDEST PUSH1 0x0 PUSH31 0x1600EF3172E58D2E933EC884FDE10064C63B5372D805E203C0000000000000 DUP4 SLT PUSH2 0x3B4D JUMPI PUSH24 0x195E54C5DD42177F53A27172FA9EC630262827000000000 DUP4 SDIV SWAP3 POP PUSH9 0x6F05B59D3B2000000 ADD JUMPDEST PUSH20 0x11798004D755D3C8BC8E03204CF44619E000000 DUP4 SLT PUSH2 0x3B85 JUMPI PUSH12 0x1425982CF597CD205CEF7380 DUP4 SDIV SWAP3 POP PUSH9 0x3782DACE9D9000000 ADD JUMPDEST PUSH1 0x64 SWAP3 DUP4 MUL SWAP3 MUL PUSH15 0x1855144814A7FF805980FF0084000 DUP4 SLT PUSH2 0x3BCD JUMPI PUSH15 0x1855144814A7FF805980FF0084000 PUSH9 0x56BC75E2D63100000 DUP5 MUL SDIV SWAP3 POP PUSH9 0xAD78EBC5AC62000000 ADD JUMPDEST PUSH12 0x2DF0AB5A80A22C61AB5A700 DUP4 SLT PUSH2 0x3C08 JUMPI PUSH12 0x2DF0AB5A80A22C61AB5A700 PUSH9 0x56BC75E2D63100000 DUP5 MUL SDIV SWAP3 POP PUSH9 0x56BC75E2D631000000 ADD JUMPDEST PUSH10 0x3F1FCE3DA636EA5CF850 DUP4 SLT PUSH2 0x3C3F JUMPI PUSH10 0x3F1FCE3DA636EA5CF850 PUSH9 0x56BC75E2D63100000 DUP5 MUL SDIV SWAP3 POP PUSH9 0x2B5E3AF16B18800000 ADD JUMPDEST PUSH10 0x127FA27722CC06CC5E2 DUP4 SLT PUSH2 0x3C76 JUMPI PUSH10 0x127FA27722CC06CC5E2 PUSH9 0x56BC75E2D63100000 DUP5 MUL SDIV SWAP3 POP PUSH9 0x15AF1D78B58C400000 ADD JUMPDEST PUSH9 0x280E60114EDB805D03 DUP4 SLT PUSH2 0x3CAB JUMPI PUSH9 0x280E60114EDB805D03 PUSH9 0x56BC75E2D63100000 DUP5 MUL SDIV SWAP3 POP PUSH9 0xAD78EBC5AC6200000 ADD JUMPDEST PUSH9 0xEBC5FB41746121110 DUP4 SLT PUSH2 0x3CD6 JUMPI PUSH9 0xEBC5FB41746121110 PUSH9 0x56BC75E2D63100000 SWAP4 DUP5 MUL SDIV SWAP3 ADD JUMPDEST PUSH9 0x8F00F760A4B2DB55D DUP4 SLT PUSH2 0x3D0B JUMPI PUSH9 0x8F00F760A4B2DB55D PUSH9 0x56BC75E2D63100000 DUP5 MUL SDIV SWAP3 POP PUSH9 0x2B5E3AF16B1880000 ADD JUMPDEST PUSH9 0x6F5F1775788937937 DUP4 SLT PUSH2 0x3D40 JUMPI PUSH9 0x6F5F1775788937937 PUSH9 0x56BC75E2D63100000 DUP5 MUL SDIV SWAP3 POP PUSH9 0x15AF1D78B58C40000 ADD JUMPDEST PUSH9 0x6248F33704B286603 DUP4 SLT PUSH2 0x3D74 JUMPI PUSH9 0x6248F33704B286603 PUSH9 0x56BC75E2D63100000 DUP5 MUL SDIV SWAP3 POP PUSH8 0xAD78EBC5AC620000 ADD JUMPDEST PUSH9 0x5C548670B9510E7AC DUP4 SLT PUSH2 0x3DA8 JUMPI PUSH9 0x5C548670B9510E7AC PUSH9 0x56BC75E2D63100000 DUP5 MUL SDIV SWAP3 POP PUSH8 0x56BC75E2D6310000 ADD JUMPDEST PUSH1 0x0 PUSH9 0x56BC75E2D63100000 DUP5 ADD PUSH9 0x56BC75E2D63100000 DUP1 DUP7 SUB MUL DUP2 PUSH2 0x3DD1 JUMPI PUSH2 0x3DD1 PUSH2 0x4A1B JUMP JUMPDEST SDIV SWAP1 POP PUSH1 0x0 PUSH9 0x56BC75E2D63100000 DUP3 DUP1 MUL SDIV SWAP1 POP DUP2 DUP1 PUSH9 0x56BC75E2D63100000 DUP2 DUP5 MUL SDIV SWAP2 POP PUSH1 0x3 DUP3 SDIV ADD PUSH9 0x56BC75E2D63100000 DUP3 DUP5 MUL SDIV SWAP2 POP PUSH1 0x5 DUP3 SDIV ADD PUSH9 0x56BC75E2D63100000 DUP3 DUP5 MUL SDIV SWAP2 POP PUSH1 0x7 DUP3 SDIV ADD PUSH9 0x56BC75E2D63100000 DUP3 DUP5 MUL SDIV SWAP2 POP PUSH1 0x9 DUP3 SDIV ADD PUSH9 0x56BC75E2D63100000 DUP3 DUP5 MUL SDIV SWAP2 POP PUSH1 0xB DUP3 SDIV ADD PUSH1 0x2 MUL PUSH1 0x64 DUP6 DUP3 ADD SDIV SWAP8 SWAP7 POP POP POP POP POP POP POP JUMP JUMPDEST PUSH1 0x0 PUSH2 0x3E94 PUSH9 0x238FD42C5CF03FFFF NOT DUP4 SLT ISZERO DUP1 ISZERO PUSH2 0x3E8D JUMPI POP PUSH9 0x70C1CC73B00C80000 DUP4 SGT ISZERO JUMPDEST PUSH1 0x9 PUSH2 0x32EB JUMP JUMPDEST PUSH1 0x0 DUP3 SLT ISZERO PUSH2 0x3ECD JUMPI PUSH2 0x3EA9 DUP3 PUSH1 0x0 SUB PUSH2 0x3E65 JUMP JUMPDEST PUSH15 0xC097CE7BC90715B34B9F1000000000 DUP2 PUSH2 0x3EC6 JUMPI PUSH2 0x3EC6 PUSH2 0x4A1B JUMP JUMPDEST SDIV SWAP3 SWAP2 POP POP JUMP JUMPDEST PUSH1 0x0 PUSH9 0x6F05B59D3B2000000 DUP4 SLT PUSH2 0x3F0D JUMPI POP PUSH9 0x6F05B59D3B1FFFFFF NOT SWAP1 SWAP2 ADD SWAP1 PUSH24 0x195E54C5DD42177F53A27172FA9EC630262827000000000 PUSH2 0x3F43 JUMP JUMPDEST PUSH9 0x3782DACE9D9000000 DUP4 SLT PUSH2 0x3F3F JUMPI POP PUSH9 0x3782DACE9D8FFFFFF NOT SWAP1 SWAP2 ADD SWAP1 PUSH12 0x1425982CF597CD205CEF7380 PUSH2 0x3F43 JUMP JUMPDEST POP PUSH1 0x1 JUMPDEST PUSH1 0x64 SWAP3 SWAP1 SWAP3 MUL SWAP2 PUSH9 0x56BC75E2D63100000 PUSH9 0xAD78EBC5AC62000000 DUP5 SLT PUSH2 0x3F93 JUMPI PUSH9 0xAD78EBC5AC61FFFFFF NOT SWAP1 SWAP4 ADD SWAP3 PUSH9 0x56BC75E2D63100000 PUSH15 0x1855144814A7FF805980FF0084000 DUP3 MUL SDIV SWAP1 POP JUMPDEST PUSH9 0x56BC75E2D631000000 DUP5 SLT PUSH2 0x3FCF JUMPI PUSH9 0x56BC75E2D630FFFFFF NOT SWAP1 SWAP4 ADD SWAP3 PUSH9 0x56BC75E2D63100000 PUSH12 0x2DF0AB5A80A22C61AB5A700 DUP3 MUL SDIV SWAP1 POP JUMPDEST PUSH9 0x2B5E3AF16B18800000 DUP5 SLT PUSH2 0x4009 JUMPI PUSH9 0x2B5E3AF16B187FFFFF NOT SWAP1 SWAP4 ADD SWAP3 PUSH9 0x56BC75E2D63100000 PUSH10 0x3F1FCE3DA636EA5CF850 DUP3 MUL SDIV SWAP1 POP JUMPDEST PUSH9 0x15AF1D78B58C400000 DUP5 SLT PUSH2 0x4043 JUMPI PUSH9 0x15AF1D78B58C3FFFFF NOT SWAP1 SWAP4 ADD SWAP3 PUSH9 0x56BC75E2D63100000 PUSH10 0x127FA27722CC06CC5E2 DUP3 MUL SDIV SWAP1 POP JUMPDEST PUSH9 0xAD78EBC5AC6200000 DUP5 SLT PUSH2 0x407C JUMPI PUSH9 0xAD78EBC5AC61FFFFF NOT SWAP1 SWAP4 ADD SWAP3 PUSH9 0x56BC75E2D63100000 PUSH9 0x280E60114EDB805D03 DUP3 MUL SDIV SWAP1 POP JUMPDEST PUSH9 0x56BC75E2D63100000 DUP5 SLT PUSH2 0x40B5 JUMPI PUSH9 0x56BC75E2D630FFFFF NOT SWAP1 SWAP4 ADD SWAP3 PUSH9 0x56BC75E2D63100000 PUSH9 0xEBC5FB41746121110 DUP3 MUL SDIV SWAP1 POP JUMPDEST PUSH9 0x2B5E3AF16B1880000 DUP5 SLT PUSH2 0x40EE JUMPI PUSH9 0x2B5E3AF16B187FFFF NOT SWAP1 SWAP4 ADD SWAP3 PUSH9 0x56BC75E2D63100000 PUSH9 0x8F00F760A4B2DB55D DUP3 MUL SDIV SWAP1 POP JUMPDEST PUSH9 0x15AF1D78B58C40000 DUP5 SLT PUSH2 0x4127 JUMPI PUSH9 0x15AF1D78B58C3FFFF NOT SWAP1 SWAP4 ADD SWAP3 PUSH9 0x56BC75E2D63100000 PUSH9 0x6F5F1775788937937 DUP3 MUL SDIV SWAP1 POP JUMPDEST PUSH9 0x56BC75E2D63100000 DUP5 DUP2 ADD SWAP1 DUP6 SWAP1 PUSH1 0x2 SWAP1 DUP3 DUP1 MUL SDIV SDIV SWAP2 DUP3 ADD SWAP2 SWAP1 POP PUSH1 0x3 PUSH9 0x56BC75E2D63100000 DUP8 DUP4 MUL SDIV SDIV SWAP2 DUP3 ADD SWAP2 SWAP1 POP PUSH1 0x4 PUSH9 0x56BC75E2D63100000 DUP8 DUP4 MUL SDIV SDIV SWAP2 DUP3 ADD SWAP2 SWAP1 POP PUSH1 0x5 PUSH9 0x56BC75E2D63100000 DUP8 DUP4 MUL SDIV SDIV SWAP2 DUP3 ADD SWAP2 SWAP1 POP PUSH1 0x6 PUSH9 0x56BC75E2D63100000 DUP8 DUP4 MUL SDIV SDIV SWAP2 DUP3 ADD SWAP2 SWAP1 POP PUSH1 0x7 PUSH9 0x56BC75E2D63100000 DUP8 DUP4 MUL SDIV SDIV SWAP2 DUP3 ADD SWAP2 SWAP1 POP PUSH1 0x8 PUSH9 0x56BC75E2D63100000 DUP8 DUP4 MUL SDIV SDIV SWAP2 DUP3 ADD SWAP2 SWAP1 POP PUSH1 0x9 PUSH9 0x56BC75E2D63100000 DUP8 DUP4 MUL SDIV SDIV SWAP2 DUP3 ADD SWAP2 SWAP1 POP PUSH1 0xA PUSH9 0x56BC75E2D63100000 DUP8 DUP4 MUL SDIV SDIV SWAP2 DUP3 ADD SWAP2 SWAP1 POP PUSH1 0xB PUSH9 0x56BC75E2D63100000 DUP8 DUP4 MUL SDIV SDIV SWAP2 DUP3 ADD SWAP2 SWAP1 POP PUSH1 0xC PUSH9 0x56BC75E2D63100000 DUP8 DUP4 MUL SDIV SDIV SWAP2 DUP3 ADD SWAP2 SWAP1 POP PUSH1 0x64 PUSH9 0x56BC75E2D63100000 DUP5 DUP5 MUL SDIV DUP6 MUL SDIV SWAP7 SWAP6 POP POP POP POP POP POP JUMP JUMPDEST PUSH2 0x426C PUSH1 0x40 MLOAD DUP1 PUSH1 0x60 ADD PUSH1 0x40 MSTORE DUP1 PUSH1 0x0 DUP2 MSTORE PUSH1 0x20 ADD PUSH1 0x0 DUP2 MSTORE PUSH1 0x20 ADD PUSH1 0x0 DUP2 MSTORE POP SWAP1 JUMP JUMPDEST PUSH2 0x4290 PUSH1 0x40 MLOAD DUP1 PUSH1 0x60 ADD PUSH1 0x40 MSTORE DUP1 PUSH1 0x0 DUP2 MSTORE PUSH1 0x20 ADD PUSH1 0x0 DUP2 MSTORE PUSH1 0x20 ADD PUSH1 0x0 DUP2 MSTORE POP SWAP1 JUMP JUMPDEST PUSH1 0x0 PUSH1 0x3C PUSH2 0x429F DUP6 PUSH1 0x1 PUSH2 0x47F3 JUMP JUMPDEST PUSH2 0xFFFF AND PUSH2 0x42AD SWAP2 SWAP1 PUSH2 0x49BA JUMP JUMPDEST SWAP1 POP PUSH1 0x0 PUSH1 0x1 PUSH2 0x42BE PUSH1 0x3C DUP5 PUSH2 0x4819 JUMP JUMPDEST PUSH2 0x42C8 SWAP2 SWAP1 PUSH2 0x4940 JUMP JUMPDEST SWAP1 POP PUSH1 0x0 JUMPDEST PUSH1 0x2 PUSH2 0x42D9 DUP4 DUP6 PUSH2 0x4819 JUMP JUMPDEST PUSH2 0x42E3 SWAP2 SWAP1 PUSH2 0x4895 JUMP JUMPDEST SWAP1 POP DUP8 PUSH2 0x42F1 PUSH1 0x3C DUP4 PUSH2 0x49BA JUMP JUMPDEST PUSH1 0x3C DUP2 LT PUSH2 0x4301 JUMPI PUSH2 0x4301 PUSH2 0x4A31 JUMP JUMPDEST PUSH1 0x3 MUL ADD PUSH1 0x40 MLOAD DUP1 PUSH1 0x60 ADD PUSH1 0x40 MSTORE SWAP1 DUP2 PUSH1 0x0 DUP3 ADD SLOAD DUP2 MSTORE PUSH1 0x20 ADD PUSH1 0x1 DUP3 ADD SLOAD DUP2 MSTORE PUSH1 0x20 ADD PUSH1 0x2 DUP3 ADD SLOAD DUP2 MSTORE POP POP SWAP5 POP PUSH1 0x1 DUP6 PUSH1 0x0 ADD MLOAD GT PUSH2 0x434E JUMPI PUSH2 0x4347 DUP2 PUSH1 0x1 PUSH2 0x4819 JUMP JUMPDEST SWAP3 POP PUSH2 0x42CD JUMP JUMPDEST DUP8 PUSH1 0x3C PUSH2 0x435C DUP4 PUSH1 0x1 PUSH2 0x4819 JUMP JUMPDEST PUSH2 0x4366 SWAP2 SWAP1 PUSH2 0x49BA JUMP JUMPDEST PUSH1 0x3C DUP2 LT PUSH2 0x4376 JUMPI PUSH2 0x4376 PUSH2 0x4A31 JUMP JUMPDEST PUSH1 0x3 MUL ADD PUSH1 0x40 MLOAD DUP1 PUSH1 0x60 ADD PUSH1 0x40 MSTORE SWAP1 DUP2 PUSH1 0x0 DUP3 ADD SLOAD DUP2 MSTORE PUSH1 0x20 ADD PUSH1 0x1 DUP3 ADD SLOAD DUP2 MSTORE PUSH1 0x20 ADD PUSH1 0x2 DUP3 ADD SLOAD DUP2 MSTORE POP POP SWAP4 POP PUSH1 0x0 DUP8 PUSH4 0xFFFFFFFF AND DUP7 PUSH1 0x0 ADD MLOAD GT ISZERO SWAP1 POP DUP1 DUP1 ISZERO PUSH2 0x43CB JUMPI POP DUP5 MLOAD PUSH4 0xFFFFFFFF DUP10 AND GT ISZERO JUMPDEST ISZERO PUSH2 0x43D6 JUMPI POP PUSH2 0x4401 JUMP JUMPDEST DUP1 PUSH2 0x43ED JUMPI PUSH2 0x43E6 PUSH1 0x1 DUP4 PUSH2 0x4940 JUMP JUMPDEST SWAP3 POP PUSH2 0x43FB JUMP JUMPDEST PUSH2 0x43F8 DUP3 PUSH1 0x1 PUSH2 0x4819 JUMP JUMPDEST SWAP4 POP JUMPDEST POP PUSH2 0x42CD JUMP JUMPDEST POP POP POP SWAP4 POP SWAP4 SWAP2 POP POP JUMP JUMPDEST PUSH1 0x0 DUP3 PUSH1 0x1F DUP4 ADD SLT PUSH2 0x441D JUMPI PUSH1 0x0 DUP1 REVERT JUMPDEST DUP2 MLOAD PUSH1 0x20 PUSH2 0x4432 PUSH2 0x442D DUP4 PUSH2 0x47CF JUMP JUMPDEST PUSH2 0x479E JUMP JUMPDEST DUP1 DUP4 DUP3 MSTORE DUP3 DUP3 ADD SWAP2 POP DUP3 DUP7 ADD DUP8 DUP5 DUP7 PUSH1 0x5 SHL DUP10 ADD ADD GT ISZERO PUSH2 0x4452 JUMPI PUSH1 0x0 DUP1 REVERT JUMPDEST PUSH1 0x0 JUMPDEST DUP6 DUP2 LT ISZERO PUSH2 0x447A JUMPI DUP2 MLOAD PUSH2 0x4468 DUP2 PUSH2 0x4A5D JUMP JUMPDEST DUP5 MSTORE SWAP3 DUP5 ADD SWAP3 SWAP1 DUP5 ADD SWAP1 PUSH1 0x1 ADD PUSH2 0x4455 JUMP JUMPDEST POP SWAP1 SWAP8 SWAP7 POP POP POP POP POP POP POP JUMP JUMPDEST PUSH1 0x0 PUSH1 0x20 DUP3 DUP5 SUB SLT ISZERO PUSH2 0x4499 JUMPI PUSH1 0x0 DUP1 REVERT JUMPDEST DUP2 CALLDATALOAD PUSH2 0x24C7 DUP2 PUSH2 0x4A5D JUMP JUMPDEST PUSH1 0x0 DUP1 PUSH1 0x40 DUP4 DUP6 SUB SLT ISZERO PUSH2 0x44B7 JUMPI PUSH1 0x0 DUP1 REVERT JUMPDEST DUP3 MLOAD PUSH8 0xFFFFFFFFFFFFFFFF DUP1 DUP3 GT ISZERO PUSH2 0x44CF JUMPI PUSH1 0x0 DUP1 REVERT JUMPDEST DUP2 DUP6 ADD SWAP2 POP DUP6 PUSH1 0x1F DUP4 ADD SLT PUSH2 0x44E3 JUMPI PUSH1 0x0 DUP1 REVERT JUMPDEST DUP2 MLOAD PUSH1 0x20 PUSH2 0x44F3 PUSH2 0x442D DUP4 PUSH2 0x47CF JUMP JUMPDEST DUP1 DUP4 DUP3 MSTORE DUP3 DUP3 ADD SWAP2 POP DUP3 DUP7 ADD DUP11 DUP5 DUP7 PUSH1 0x5 SHL DUP10 ADD ADD GT ISZERO PUSH2 0x4513 JUMPI PUSH1 0x0 DUP1 REVERT JUMPDEST PUSH1 0x0 SWAP7 POP JUMPDEST DUP5 DUP8 LT ISZERO PUSH2 0x4545 JUMPI DUP1 MLOAD DUP1 PUSH1 0x6 SIGNEXTEND DUP2 EQ PUSH2 0x4531 JUMPI PUSH1 0x0 DUP1 REVERT JUMPDEST DUP4 MSTORE PUSH1 0x1 SWAP7 SWAP1 SWAP7 ADD SWAP6 SWAP2 DUP4 ADD SWAP2 DUP4 ADD PUSH2 0x4518 JUMP JUMPDEST POP SWAP2 DUP9 ADD MLOAD SWAP2 SWAP7 POP SWAP1 SWAP4 POP POP POP DUP1 DUP3 GT ISZERO PUSH2 0x455F JUMPI PUSH1 0x0 DUP1 REVERT JUMPDEST POP PUSH2 0x944 DUP6 DUP3 DUP7 ADD PUSH2 0x440C JUMP JUMPDEST PUSH1 0x0 PUSH1 0x20 DUP3 DUP5 SUB SLT ISZERO PUSH2 0x457E JUMPI PUSH1 0x0 DUP1 REVERT JUMPDEST DUP2 MLOAD PUSH2 0x24C7 DUP2 PUSH2 0x4A75 JUMP JUMPDEST PUSH1 0x0 DUP1 PUSH1 0x40 DUP4 DUP6 SUB SLT ISZERO PUSH2 0x459C JUMPI PUSH1 0x0 DUP1 REVERT JUMPDEST DUP3 CALLDATALOAD PUSH2 0x45A7 DUP2 PUSH2 0x4A75 JUMP JUMPDEST SWAP5 PUSH1 0x20 SWAP4 SWAP1 SWAP4 ADD CALLDATALOAD SWAP4 POP POP POP JUMP JUMPDEST PUSH1 0x0 DUP1 PUSH1 0x0 PUSH1 0x60 DUP5 DUP7 SUB SLT ISZERO PUSH2 0x45CA JUMPI PUSH1 0x0 DUP1 REVERT JUMPDEST DUP4 CALLDATALOAD PUSH2 0x45D5 DUP2 PUSH2 0x4A75 JUMP JUMPDEST SWAP6 PUSH1 0x20 DUP6 ADD CALLDATALOAD SWAP6 POP PUSH1 0x40 SWAP1 SWAP5 ADD CALLDATALOAD SWAP4 SWAP3 POP POP POP JUMP JUMPDEST PUSH1 0x0 DUP1 PUSH1 0x0 DUP1 PUSH1 0x0 PUSH1 0xA0 DUP7 DUP9 SUB SLT ISZERO PUSH2 0x4602 JUMPI PUSH1 0x0 DUP1 REVERT JUMPDEST DUP6 CALLDATALOAD PUSH2 0x460D DUP2 PUSH2 0x4A75 JUMP JUMPDEST SWAP8 PUSH1 0x20 DUP8 ADD CALLDATALOAD SWAP8 POP PUSH1 0x40 DUP8 ADD CALLDATALOAD SWAP7 PUSH1 0x60 DUP2 ADD CALLDATALOAD SWAP7 POP PUSH1 0x80 ADD CALLDATALOAD SWAP5 POP SWAP3 POP POP POP JUMP JUMPDEST PUSH1 0x0 PUSH1 0x20 DUP3 DUP5 SUB SLT ISZERO PUSH2 0x4640 JUMPI PUSH1 0x0 DUP1 REVERT JUMPDEST DUP2 MLOAD PUSH2 0x24C7 DUP2 PUSH2 0x4A5D JUMP JUMPDEST PUSH1 0x0 PUSH1 0x20 DUP3 DUP5 SUB SLT ISZERO PUSH2 0x465D JUMPI PUSH1 0x0 DUP1 REVERT JUMPDEST POP CALLDATALOAD SWAP2 SWAP1 POP JUMP JUMPDEST PUSH1 0x0 PUSH1 0x20 DUP3 DUP5 SUB SLT ISZERO PUSH2 0x4676 JUMPI PUSH1 0x0 DUP1 REVERT JUMPDEST POP MLOAD SWAP2 SWAP1 POP JUMP JUMPDEST PUSH1 0x0 DUP1 PUSH1 0x40 DUP4 DUP6 SUB SLT ISZERO PUSH2 0x4690 JUMPI PUSH1 0x0 DUP1 REVERT JUMPDEST POP POP DUP1 CALLDATALOAD SWAP3 PUSH1 0x20 SWAP1 SWAP2 ADD CALLDATALOAD SWAP2 POP JUMP JUMPDEST PUSH1 0x0 DUP1 PUSH1 0x0 DUP1 PUSH1 0x0 DUP1 PUSH1 0xC0 DUP8 DUP10 SUB SLT ISZERO PUSH2 0x46B8 JUMPI PUSH1 0x0 DUP1 REVERT JUMPDEST POP POP DUP5 CALLDATALOAD SWAP7 PUSH1 0x20 DUP7 ADD CALLDATALOAD SWAP7 POP PUSH1 0x40 DUP7 ADD CALLDATALOAD SWAP6 PUSH1 0x60 DUP2 ADD CALLDATALOAD SWAP6 POP PUSH1 0x80 DUP2 ADD CALLDATALOAD SWAP5 POP PUSH1 0xA0 ADD CALLDATALOAD SWAP3 POP SWAP1 POP JUMP JUMPDEST PUSH1 0x0 DUP1 PUSH1 0x0 DUP1 PUSH1 0x0 DUP1 PUSH1 0x0 DUP1 PUSH1 0x0 DUP1 PUSH1 0x0 PUSH2 0x160 DUP13 DUP15 SUB SLT ISZERO PUSH2 0x4704 JUMPI PUSH1 0x0 DUP1 REVERT JUMPDEST POP POP DUP10 CALLDATALOAD SWAP12 PUSH1 0x20 DUP12 ADD CALLDATALOAD SWAP12 POP PUSH1 0x40 DUP12 ADD CALLDATALOAD SWAP11 PUSH1 0x60 DUP2 ADD CALLDATALOAD SWAP11 POP PUSH1 0x80 DUP2 ADD CALLDATALOAD SWAP10 POP PUSH1 0xA0 DUP2 ADD CALLDATALOAD SWAP9 POP PUSH1 0xC0 DUP2 ADD CALLDATALOAD SWAP8 POP PUSH1 0xE0 DUP2 ADD CALLDATALOAD SWAP7 POP PUSH2 0x100 DUP2 ADD CALLDATALOAD SWAP6 POP PUSH2 0x120 DUP2 ADD CALLDATALOAD SWAP5 POP PUSH2 0x140 ADD CALLDATALOAD SWAP3 POP SWAP1 POP JUMP JUMPDEST PUSH1 0x20 DUP1 DUP3 MSTORE DUP3 MLOAD DUP3 DUP3 ADD DUP2 SWAP1 MSTORE PUSH1 0x0 SWAP2 SWAP1 DUP5 DUP3 ADD SWAP1 PUSH1 0x40 DUP6 ADD SWAP1 DUP5 JUMPDEST DUP2 DUP2 LT ISZERO PUSH2 0x4792 JUMPI DUP4 MLOAD PUSH4 0xFFFFFFFF AND DUP4 MSTORE SWAP3 DUP5 ADD SWAP3 SWAP2 DUP5 ADD SWAP2 PUSH1 0x1 ADD PUSH2 0x4770 JUMP JUMPDEST POP SWAP1 SWAP7 SWAP6 POP POP POP POP POP POP JUMP JUMPDEST PUSH1 0x40 MLOAD PUSH1 0x1F DUP3 ADD PUSH1 0x1F NOT AND DUP2 ADD PUSH8 0xFFFFFFFFFFFFFFFF DUP2 GT DUP3 DUP3 LT OR ISZERO PUSH2 0x47C7 JUMPI PUSH2 0x47C7 PUSH2 0x4A47 JUMP JUMPDEST PUSH1 0x40 MSTORE SWAP2 SWAP1 POP JUMP JUMPDEST PUSH1 0x0 PUSH8 0xFFFFFFFFFFFFFFFF DUP3 GT ISZERO PUSH2 0x47E9 JUMPI PUSH2 0x47E9 PUSH2 0x4A47 JUMP JUMPDEST POP PUSH1 0x5 SHL PUSH1 0x20 ADD SWAP1 JUMP JUMPDEST PUSH1 0x0 PUSH2 0xFFFF DUP1 DUP4 AND DUP2 DUP6 AND DUP1 DUP4 SUB DUP3 GT ISZERO PUSH2 0x4810 JUMPI PUSH2 0x4810 PUSH2 0x4A05 JUMP JUMPDEST ADD SWAP5 SWAP4 POP POP POP POP JUMP JUMPDEST PUSH1 0x0 DUP3 NOT DUP3 GT ISZERO PUSH2 0x482C JUMPI PUSH2 0x482C PUSH2 0x4A05 JUMP JUMPDEST POP ADD SWAP1 JUMP JUMPDEST PUSH1 0x0 DUP2 PUSH1 0x6 SIGNEXTEND DUP4 PUSH1 0x6 SIGNEXTEND DUP1 PUSH2 0x4848 JUMPI PUSH2 0x4848 PUSH2 0x4A1B JUMP JUMPDEST PUSH7 0x7FFFFFFFFFFFFF NOT DUP3 EQ PUSH1 0x0 NOT DUP3 EQ AND ISZERO PUSH2 0x4866 JUMPI PUSH2 0x4866 PUSH2 0x4A05 JUMP JUMPDEST SWAP1 SDIV SWAP4 SWAP3 POP POP POP JUMP JUMPDEST PUSH1 0x0 PUSH1 0x1 PUSH1 0x1 PUSH1 0xA0 SHL SUB DUP1 DUP5 AND DUP1 PUSH2 0x4889 JUMPI PUSH2 0x4889 PUSH2 0x4A1B JUMP JUMPDEST SWAP3 AND SWAP2 SWAP1 SWAP2 DIV SWAP3 SWAP2 POP POP JUMP JUMPDEST PUSH1 0x0 DUP3 PUSH2 0x48A4 JUMPI PUSH2 0x48A4 PUSH2 0x4A1B JUMP JUMPDEST POP DIV SWAP1 JUMP JUMPDEST PUSH1 0x0 DUP2 PUSH1 0x0 NOT DIV DUP4 GT DUP3 ISZERO ISZERO AND ISZERO PUSH2 0x48C3 JUMPI PUSH2 0x48C3 PUSH2 0x4A05 JUMP JUMPDEST POP MUL SWAP1 JUMP JUMPDEST PUSH1 0x0 DUP2 PUSH1 0x6 SIGNEXTEND DUP4 PUSH1 0x6 SIGNEXTEND PUSH1 0x0 DUP2 SLT DUP2 PUSH7 0x7FFFFFFFFFFFFF NOT ADD DUP4 SLT DUP2 ISZERO AND ISZERO PUSH2 0x48F3 JUMPI PUSH2 0x48F3 PUSH2 0x4A05 JUMP JUMPDEST DUP2 PUSH7 0x7FFFFFFFFFFFFF ADD DUP4 SGT DUP2 AND ISZERO PUSH2 0x490E JUMPI PUSH2 0x490E PUSH2 0x4A05 JUMP JUMPDEST POP SWAP1 SUB SWAP4 SWAP3 POP POP POP JUMP JUMPDEST PUSH1 0x0 PUSH1 0x1 PUSH1 0x1 PUSH1 0xA0 SHL SUB DUP4 DUP2 AND SWAP1 DUP4 AND DUP2 DUP2 LT ISZERO PUSH2 0x4938 JUMPI PUSH2 0x4938 PUSH2 0x4A05 JUMP JUMPDEST SUB SWAP4 SWAP3 POP POP POP JUMP JUMPDEST PUSH1 0x0 DUP3 DUP3 LT ISZERO PUSH2 0x4952 JUMPI PUSH2 0x4952 PUSH2 0x4A05 JUMP JUMPDEST POP SUB SWAP1 JUMP JUMPDEST PUSH1 0x0 PUSH4 0xFFFFFFFF DUP4 DUP2 AND SWAP1 DUP4 AND DUP2 DUP2 LT ISZERO PUSH2 0x4938 JUMPI PUSH2 0x4938 PUSH2 0x4A05 JUMP JUMPDEST PUSH1 0x0 DUP2 PUSH1 0x2 SIGNEXTEND PUSH3 0x7FFFFF NOT DUP2 EQ ISZERO PUSH2 0x498E JUMPI PUSH2 0x498E PUSH2 0x4A05 JUMP JUMPDEST PUSH1 0x0 NOT ADD SWAP3 SWAP2 POP POP JUMP JUMPDEST PUSH1 0x0 DUP3 PUSH1 0x6 SIGNEXTEND DUP1 PUSH2 0x49AB JUMPI PUSH2 0x49AB PUSH2 0x4A1B JUMP JUMPDEST DUP1 DUP4 PUSH1 0x6 SIGNEXTEND SMOD SWAP2 POP POP SWAP3 SWAP2 POP POP JUMP JUMPDEST PUSH1 0x0 DUP3 PUSH2 0x49C9 JUMPI PUSH2 0x49C9 PUSH2 0x4A1B JUMP JUMPDEST POP MOD SWAP1 JUMP JUMPDEST PUSH1 0x0 DUP2 PUSH1 0x2 SIGNEXTEND PUSH3 0x7FFFFF NOT DUP2 EQ ISZERO PUSH2 0x3AF3 JUMPI PUSH2 0x3AF3 PUSH2 0x4A05 JUMP JUMPDEST PUSH1 0x0 PUSH1 0x1 PUSH1 0xFF SHL DUP3 EQ ISZERO PUSH2 0x49FE JUMPI PUSH2 0x49FE PUSH2 0x4A05 JUMP JUMPDEST POP PUSH1 0x0 SUB SWAP1 JUMP JUMPDEST PUSH4 0x4E487B71 PUSH1 0xE0 SHL PUSH1 0x0 MSTORE PUSH1 0x11 PUSH1 0x4 MSTORE PUSH1 0x24 PUSH1 0x0 REVERT JUMPDEST PUSH4 0x4E487B71 PUSH1 0xE0 SHL PUSH1 0x0 MSTORE PUSH1 0x12 PUSH1 0x4 MSTORE PUSH1 0x24 PUSH1 0x0 REVERT JUMPDEST PUSH4 0x4E487B71 PUSH1 0xE0 SHL PUSH1 0x0 MSTORE PUSH1 0x32 PUSH1 0x4 MSTORE PUSH1 0x24 PUSH1 0x0 REVERT JUMPDEST PUSH4 0x4E487B71 PUSH1 0xE0 SHL PUSH1 0x0 MSTORE PUSH1 0x41 PUSH1 0x4 MSTORE PUSH1 0x24 PUSH1 0x0 REVERT JUMPDEST PUSH1 0x1 PUSH1 0x1 PUSH1 0xA0 SHL SUB DUP2 AND DUP2 EQ PUSH2 0x4A72 JUMPI PUSH1 0x0 DUP1 REVERT JUMPDEST POP JUMP JUMPDEST DUP1 ISZERO ISZERO DUP2 EQ PUSH2 0x4A72 JUMPI PUSH1 0x0 DUP1 REVERT INVALID BYTE PUSH9 0x38EFA4183E08FE3607 CALLDATALOAD SWAP14 SLT MSIZE 0x27 0x2A 0xF9 0xD4 PUSH18 0x6F65E1A7B5921F78FD5A3C6AA26469706673 PC 0x22 SLT KECCAK256 0x23 0xF9 TIMESTAMP 0xAC PUSH29 0xCD31F89B3D62177B98F8A44745E4AB5D1A0970FCF7A7D2CF1E2C496473 PUSH16 0x6C634300080700330000000000000000 ",
  "sha1": "10e8f0eae242df5ccae0cd262f00b0f3b2ebace2",
  "source": "// SPDX-License-Identifier: MIT\npragma solidity ^0.8.7;\n\nimport \"./libraries/FixedPoint.sol\";\nimport \"./libraries/UniswapV3OracleLibrary/UniswapV3OracleLibraryV2.sol\";\nimport \"./interfaces/IUniswapV3Pool.sol\";\nimport \"./market/OverlayV1Market.sol\";\n\ncontract OverlayV1UniswapV3Market is OverlayV1Market {\n\n    using FixedPoint for uint256;\n\n    uint256 internal X96 = 0x1000000000000000000000000;\n\n    uint256 public immutable macroWindow; // window size for main TWAP\n    uint256 public immutable microWindow; // window size for bid/ask TWAP\n\n    address public immutable marketFeed;\n    address public immutable ovlFeed;\n    address public immutable base;\n    address public immutable quote;\n    uint128 internal immutable amountIn;\n\n    address internal immutable eth;\n    bool internal immutable ethIs0;\n\n    constructor(\n        address _mothership,\n        address _ovlFeed,\n        address _marketFeed,\n        address _quote,\n        address _eth,\n        uint128 _amountIn,\n        uint256 _macroWindow,\n        uint256 _microWindow\n    ) OverlayV1Market(\n        _mothership\n    ) {\n\n        // immutables\n        eth = _eth;\n        ethIs0 = IUniswapV3Pool(_ovlFeed).token0() == _eth;\n        ovlFeed = _ovlFeed;\n        marketFeed = _marketFeed;\n        amountIn = _amountIn;\n        macroWindow = _macroWindow;\n        microWindow = _microWindow;\n\n        address _token0 = IUniswapV3Pool(_marketFeed).token0();\n        address _token1 = IUniswapV3Pool(_marketFeed).token1();\n\n        base = _token0 != _quote ? _token0 : _token1;\n        quote = _token0 == _quote ? _token0 : _token1;\n\n        int24 _tick = OracleLibraryV2.consult(\n            _marketFeed,\n            uint32(_macroWindow),\n            uint32(0)\n        );\n\n        uint _price = OracleLibraryV2.getQuoteAtTick(\n            _tick,\n            uint128(_amountIn),\n            _token0 != _quote ? _token0 : _token1,\n            _token0 == _quote ? _token0 : _token1\n        );\n\n        setpricePointNext(PricePoint(_price, _price, _price));\n\n        updated = block.timestamp;\n        compounded = block.timestamp;\n\n    }\n\n    function price () public view override returns (PricePoint memory) {\n\n        uint32[] memory _secondsAgo = new uint32[](3);\n        _secondsAgo[0] = uint32(macroWindow);\n        _secondsAgo[1] = uint32(microWindow);\n        _secondsAgo[2] = uint32(0);\n\n        ( int56[] memory _ticks, ) = IUniswapV3Pool(marketFeed).observe(_secondsAgo);\n\n        uint _macroPrice = OracleLibraryV2.getQuoteAtTick(\n            int24((_ticks[2] - _ticks[0]) / int56(int32(int(macroWindow)))),\n            amountIn,\n            base,\n            quote\n        );\n\n        uint _microPrice = OracleLibraryV2.getQuoteAtTick(\n            int24((_ticks[2] - _ticks[1]) / int56(int32(int(microWindow)))),\n            amountIn,\n            base,\n            quote\n        );\n\n        return insertSpread(_microPrice, _macroPrice);\n\n    }\n\n    function depth () internal virtual override view returns (uint256 depth_) {\n\n        uint32[] memory _secondsAgo = new uint32[](2);\n        _secondsAgo[0] = uint32(microWindow);\n        _secondsAgo[1] = 0;\n\n        ( int56[] memory _ticks, uint160[] memory _invLiqs ) = IUniswapV3Pool(marketFeed).observe(_secondsAgo);\n\n        uint256 _sqrtPrice = TickMath.getSqrtRatioAtTick(\n            int24((_ticks[1] - _ticks[0]) / int56(int32(int(microWindow))))\n        );\n\n        uint256 _liquidity = (uint160(microWindow) << 128) / ( _invLiqs[1] - _invLiqs[0] );\n\n        uint _ethAmount = ethIs0\n            ? ( uint256(_liquidity) << 96 ) / _sqrtPrice\n            : FullMath.mulDiv(uint256(_liquidity), _sqrtPrice, X96);\n\n        ( _ticks, ) = IUniswapV3Pool(ovlFeed).observe(_secondsAgo);\n\n        uint _price = OracleLibraryV2.getQuoteAtTick(\n            int24((_ticks[1] - _ticks[0]) / int56(int32(int(microWindow)))),\n            1e18,\n            address(ovl),\n            eth\n        );\n\n        depth_ = lmbda.mulUp(( _ethAmount * 1e18 ) / _price).divDown(2e18);\n\n    }\n\n    function epochs () public view returns (\n        uint compoundings_,\n        uint tCompounding_\n    ) {\n\n        return epochs(block.timestamp, compounded);\n\n    }\n\n    function epochs (\n        uint _now,\n        uint _compounded\n    ) public view returns (\n        uint compoundings_,\n        uint tCompounding_\n    ) {\n\n        uint _compoundPeriod = compoundingPeriod;\n\n        compoundings_ = ( _now - _compounded ) / _compoundPeriod;\n\n        tCompounding_ = _compounded + ( compoundings_ * _compoundPeriod );\n\n\n    }\n\n    function _update () internal override {\n\n        uint _now = block.timestamp;\n\n        uint _updated = updated;\n\n        if (_now != _updated) {\n\n            PricePoint memory _price = price();\n            setpricePointNext(_price);\n            updated = _now;\n\n        }\n\n        (   uint _compoundings, \n            uint _tCompounding  ) = epochs(_now, compounded);\n\n        if (0 < _compoundings) {\n\n            payFunding(k, _compoundings);\n            compounded = _tCompounding;\n\n        }\n\n    }\n\n    function oi () public view returns (\n        uint oiLong_,\n        uint oiShort_,\n        uint oiLongShares_,\n        uint oiShortShares_\n    ) {\n\n        ( uint _compoundings, ) = epochs(block.timestamp, compounded);\n\n        (   oiLong_,\n            oiShort_,\n            oiLongShares_,\n            oiShortShares_ ) = _oi(_compoundings);\n\n    }\n\n    function _oi (\n        uint _compoundings\n    ) internal view returns (\n        uint oiLong_,\n        uint oiShort_,\n        uint oiLongShares_,\n        uint oiShortShares_\n    ) {\n\n        oiLong_ = __oiLong__;\n        oiShort_ = __oiShort__;\n        oiLongShares_ = oiLongShares;\n        oiShortShares_ = oiShortShares;\n\n        if (0 < _compoundings) {\n\n            ( oiLong_, oiShort_, ) = computeFunding(\n                oiLong_, \n                oiShort_,\n                _compoundings,\n                k\n            );\n\n        }\n\n    }\n\n    function oiLong () external view returns (uint oiLong_) {\n        (   oiLong_,,, ) = oi();\n    }\n\n    function oiShort () external view returns (uint oiShort_) {\n        (  ,oiShort_,, ) = oi();\n    }\n\n    function positionInfo (\n        bool _isLong,\n        uint _entryIndex\n    ) external view returns (\n        uint256 oi_,\n        uint256 oiShares_,\n        uint256 priceFrame_\n    ) {\n\n        (   uint _compoundings, ) = epochs(block.timestamp, compounded);\n\n        priceFrame_ = priceFrame(\n            _isLong,\n            _entryIndex\n        );\n\n        (   uint _oiLong,\n            uint _oiShort,\n            uint _oiLongShares,\n            uint _oiShortShares ) = _oi(_compoundings);\n\n        if (_isLong) ( oi_ = _oiLong, oiShares_ = _oiLongShares );\n        else ( oi_ = _oiShort, oiShares_ = _oiShortShares );\n    \n    }\n\n    function priceFrame (\n        bool _isLong,\n        uint _entryIndex\n    ) internal view returns (\n        uint256 priceFrame_\n    ) {\n\n        PricePoint memory _priceEntry = _pricePoints[_entryIndex]; \n\n        PricePoint memory _priceExit;\n\n        if (updated != block.timestamp) _priceExit = price();\n        else _priceExit = _pricePoints[_pricePoints.length - 1];\n\n        priceFrame_ = _isLong\n            ? Math.min(_priceExit.bid.divDown(_priceEntry.ask), priceFrameCap)\n            : _priceExit.ask.divUp(_priceEntry.bid);\n\n    }\n\n}\n",
  "sourcePath": "contracts/OverlayV1UniswapV3Market.sol",
  "type": "contract"
}