{
  "abi": [
    {
      "inputs": [
        {
          "internalType": "address",
          "name": "_ovl",
          "type": "address"
        },
        {
          "internalType": "address",
          "name": "_feeTo",
          "type": "address"
        },
        {
          "internalType": "uint256",
          "name": "_fee",
          "type": "uint256"
        },
        {
          "internalType": "uint256",
          "name": "_feeBurnRate",
          "type": "uint256"
        },
        {
          "internalType": "uint256",
          "name": "_marginBurnRate",
          "type": "uint256"
        }
      ],
      "stateMutability": "nonpayable",
      "type": "constructor"
    },
    {
      "anonymous": false,
      "inputs": [
        {
          "indexed": true,
          "internalType": "bytes32",
          "name": "role",
          "type": "bytes32"
        },
        {
          "indexed": true,
          "internalType": "bytes32",
          "name": "previousAdminRole",
          "type": "bytes32"
        },
        {
          "indexed": true,
          "internalType": "bytes32",
          "name": "newAdminRole",
          "type": "bytes32"
        }
      ],
      "name": "RoleAdminChanged",
      "type": "event"
    },
    {
      "anonymous": false,
      "inputs": [
        {
          "indexed": true,
          "internalType": "bytes32",
          "name": "role",
          "type": "bytes32"
        },
        {
          "indexed": true,
          "internalType": "address",
          "name": "account",
          "type": "address"
        },
        {
          "indexed": true,
          "internalType": "address",
          "name": "sender",
          "type": "address"
        }
      ],
      "name": "RoleGranted",
      "type": "event"
    },
    {
      "anonymous": false,
      "inputs": [
        {
          "indexed": true,
          "internalType": "bytes32",
          "name": "role",
          "type": "bytes32"
        },
        {
          "indexed": true,
          "internalType": "address",
          "name": "account",
          "type": "address"
        },
        {
          "indexed": true,
          "internalType": "address",
          "name": "sender",
          "type": "address"
        }
      ],
      "name": "RoleRevoked",
      "type": "event"
    },
    {
      "anonymous": false,
      "inputs": [
        {
          "indexed": false,
          "internalType": "address",
          "name": "collateral",
          "type": "address"
        },
        {
          "indexed": false,
          "internalType": "bool",
          "name": "active",
          "type": "bool"
        }
      ],
      "name": "UpdateCollateral",
      "type": "event"
    },
    {
      "anonymous": false,
      "inputs": [
        {
          "indexed": false,
          "internalType": "uint256",
          "name": "fee",
          "type": "uint256"
        }
      ],
      "name": "UpdateFee",
      "type": "event"
    },
    {
      "anonymous": false,
      "inputs": [
        {
          "indexed": false,
          "internalType": "uint256",
          "name": "feeBurnRate",
          "type": "uint256"
        }
      ],
      "name": "UpdateFeeBurnRate",
      "type": "event"
    },
    {
      "anonymous": false,
      "inputs": [
        {
          "indexed": false,
          "internalType": "address",
          "name": "feeTo",
          "type": "address"
        }
      ],
      "name": "UpdateFeeTo",
      "type": "event"
    },
    {
      "anonymous": false,
      "inputs": [
        {
          "indexed": false,
          "internalType": "uint256",
          "name": "marginBurnRate",
          "type": "uint256"
        }
      ],
      "name": "UpdateMarginBurnRate",
      "type": "event"
    },
    {
      "anonymous": false,
      "inputs": [
        {
          "indexed": false,
          "internalType": "address",
          "name": "market",
          "type": "address"
        },
        {
          "indexed": false,
          "internalType": "bool",
          "name": "active",
          "type": "bool"
        }
      ],
      "name": "UpdateMarket",
      "type": "event"
    },
    {
      "inputs": [],
      "name": "ADMIN",
      "outputs": [
        {
          "internalType": "bytes32",
          "name": "",
          "type": "bytes32"
        }
      ],
      "stateMutability": "view",
      "type": "function"
    },
    {
      "inputs": [],
      "name": "DEFAULT_ADMIN_ROLE",
      "outputs": [
        {
          "internalType": "bytes32",
          "name": "",
          "type": "bytes32"
        }
      ],
      "stateMutability": "view",
      "type": "function"
    },
    {
      "inputs": [],
      "name": "GOVERNOR",
      "outputs": [
        {
          "internalType": "bytes32",
          "name": "",
          "type": "bytes32"
        }
      ],
      "stateMutability": "view",
      "type": "function"
    },
    {
      "inputs": [],
      "name": "MAX_FEE",
      "outputs": [
        {
          "internalType": "uint256",
          "name": "",
          "type": "uint256"
        }
      ],
      "stateMutability": "view",
      "type": "function"
    },
    {
      "inputs": [],
      "name": "MAX_FEE_BURN",
      "outputs": [
        {
          "internalType": "uint256",
          "name": "",
          "type": "uint256"
        }
      ],
      "stateMutability": "view",
      "type": "function"
    },
    {
      "inputs": [],
      "name": "MAX_MARGIN_BURN",
      "outputs": [
        {
          "internalType": "uint256",
          "name": "",
          "type": "uint256"
        }
      ],
      "stateMutability": "view",
      "type": "function"
    },
    {
      "inputs": [],
      "name": "MIN_FEE",
      "outputs": [
        {
          "internalType": "uint256",
          "name": "",
          "type": "uint256"
        }
      ],
      "stateMutability": "view",
      "type": "function"
    },
    {
      "inputs": [
        {
          "internalType": "uint16",
          "name": "_fee",
          "type": "uint16"
        },
        {
          "internalType": "uint16",
          "name": "_feeBurnRate",
          "type": "uint16"
        },
        {
          "internalType": "address",
          "name": "_feeTo",
          "type": "address"
        }
      ],
      "name": "adjustGlobalParams",
      "outputs": [],
      "stateMutability": "nonpayable",
      "type": "function"
    },
    {
      "inputs": [
        {
          "internalType": "uint256",
          "name": "",
          "type": "uint256"
        }
      ],
      "name": "allCollaterals",
      "outputs": [
        {
          "internalType": "address",
          "name": "",
          "type": "address"
        }
      ],
      "stateMutability": "view",
      "type": "function"
    },
    {
      "inputs": [
        {
          "internalType": "uint256",
          "name": "",
          "type": "uint256"
        }
      ],
      "name": "allMarkets",
      "outputs": [
        {
          "internalType": "address",
          "name": "",
          "type": "address"
        }
      ],
      "stateMutability": "view",
      "type": "function"
    },
    {
      "inputs": [
        {
          "internalType": "address",
          "name": "",
          "type": "address"
        }
      ],
      "name": "collateralActive",
      "outputs": [
        {
          "internalType": "bool",
          "name": "",
          "type": "bool"
        }
      ],
      "stateMutability": "view",
      "type": "function"
    },
    {
      "inputs": [
        {
          "internalType": "address",
          "name": "",
          "type": "address"
        }
      ],
      "name": "collateralExists",
      "outputs": [
        {
          "internalType": "bool",
          "name": "",
          "type": "bool"
        }
      ],
      "stateMutability": "view",
      "type": "function"
    },
    {
      "inputs": [
        {
          "internalType": "address",
          "name": "_collateral",
          "type": "address"
        }
      ],
      "name": "disableCollateral",
      "outputs": [],
      "stateMutability": "nonpayable",
      "type": "function"
    },
    {
      "inputs": [
        {
          "internalType": "address",
          "name": "_market",
          "type": "address"
        }
      ],
      "name": "disableMarket",
      "outputs": [],
      "stateMutability": "nonpayable",
      "type": "function"
    },
    {
      "inputs": [
        {
          "internalType": "address",
          "name": "_collateral",
          "type": "address"
        }
      ],
      "name": "enableCollateral",
      "outputs": [],
      "stateMutability": "nonpayable",
      "type": "function"
    },
    {
      "inputs": [
        {
          "internalType": "address",
          "name": "_market",
          "type": "address"
        }
      ],
      "name": "enableMarket",
      "outputs": [],
      "stateMutability": "nonpayable",
      "type": "function"
    },
    {
      "inputs": [],
      "name": "fee",
      "outputs": [
        {
          "internalType": "uint256",
          "name": "",
          "type": "uint256"
        }
      ],
      "stateMutability": "view",
      "type": "function"
    },
    {
      "inputs": [],
      "name": "feeBurnRate",
      "outputs": [
        {
          "internalType": "uint256",
          "name": "",
          "type": "uint256"
        }
      ],
      "stateMutability": "view",
      "type": "function"
    },
    {
      "inputs": [],
      "name": "feeTo",
      "outputs": [
        {
          "internalType": "address",
          "name": "",
          "type": "address"
        }
      ],
      "stateMutability": "view",
      "type": "function"
    },
    {
      "inputs": [],
      "name": "getGlobalParams",
      "outputs": [
        {
          "internalType": "address",
          "name": "feeTo_",
          "type": "address"
        },
        {
          "internalType": "uint256",
          "name": "fee_",
          "type": "uint256"
        },
        {
          "internalType": "uint256",
          "name": "feeBurnRate_",
          "type": "uint256"
        },
        {
          "internalType": "uint256",
          "name": "marginBurnRate_",
          "type": "uint256"
        }
      ],
      "stateMutability": "view",
      "type": "function"
    },
    {
      "inputs": [
        {
          "internalType": "bytes32",
          "name": "role",
          "type": "bytes32"
        }
      ],
      "name": "getRoleAdmin",
      "outputs": [
        {
          "internalType": "bytes32",
          "name": "",
          "type": "bytes32"
        }
      ],
      "stateMutability": "view",
      "type": "function"
    },
    {
      "inputs": [
        {
          "internalType": "bytes32",
          "name": "role",
          "type": "bytes32"
        },
        {
          "internalType": "uint256",
          "name": "index",
          "type": "uint256"
        }
      ],
      "name": "getRoleMember",
      "outputs": [
        {
          "internalType": "address",
          "name": "",
          "type": "address"
        }
      ],
      "stateMutability": "view",
      "type": "function"
    },
    {
      "inputs": [
        {
          "internalType": "bytes32",
          "name": "role",
          "type": "bytes32"
        }
      ],
      "name": "getRoleMemberCount",
      "outputs": [
        {
          "internalType": "uint256",
          "name": "",
          "type": "uint256"
        }
      ],
      "stateMutability": "view",
      "type": "function"
    },
    {
      "inputs": [
        {
          "internalType": "bytes32",
          "name": "role",
          "type": "bytes32"
        },
        {
          "internalType": "address",
          "name": "account",
          "type": "address"
        }
      ],
      "name": "grantRole",
      "outputs": [],
      "stateMutability": "nonpayable",
      "type": "function"
    },
    {
      "inputs": [
        {
          "internalType": "bytes32",
          "name": "role",
          "type": "bytes32"
        },
        {
          "internalType": "address",
          "name": "account",
          "type": "address"
        }
      ],
      "name": "hasRole",
      "outputs": [
        {
          "internalType": "bool",
          "name": "",
          "type": "bool"
        }
      ],
      "stateMutability": "view",
      "type": "function"
    },
    {
      "inputs": [
        {
          "internalType": "address",
          "name": "_collateral",
          "type": "address"
        }
      ],
      "name": "initializeCollateral",
      "outputs": [],
      "stateMutability": "nonpayable",
      "type": "function"
    },
    {
      "inputs": [
        {
          "internalType": "address",
          "name": "_market",
          "type": "address"
        }
      ],
      "name": "initializeMarket",
      "outputs": [],
      "stateMutability": "nonpayable",
      "type": "function"
    },
    {
      "inputs": [],
      "name": "marginBurnRate",
      "outputs": [
        {
          "internalType": "uint256",
          "name": "",
          "type": "uint256"
        }
      ],
      "stateMutability": "view",
      "type": "function"
    },
    {
      "inputs": [
        {
          "internalType": "address",
          "name": "",
          "type": "address"
        }
      ],
      "name": "marketActive",
      "outputs": [
        {
          "internalType": "bool",
          "name": "",
          "type": "bool"
        }
      ],
      "stateMutability": "view",
      "type": "function"
    },
    {
      "inputs": [
        {
          "internalType": "address",
          "name": "",
          "type": "address"
        }
      ],
      "name": "marketExists",
      "outputs": [
        {
          "internalType": "bool",
          "name": "",
          "type": "bool"
        }
      ],
      "stateMutability": "view",
      "type": "function"
    },
    {
      "inputs": [],
      "name": "ovl",
      "outputs": [
        {
          "internalType": "address",
          "name": "",
          "type": "address"
        }
      ],
      "stateMutability": "view",
      "type": "function"
    },
    {
      "inputs": [
        {
          "internalType": "bytes32",
          "name": "role",
          "type": "bytes32"
        },
        {
          "internalType": "address",
          "name": "account",
          "type": "address"
        }
      ],
      "name": "renounceRole",
      "outputs": [],
      "stateMutability": "nonpayable",
      "type": "function"
    },
    {
      "inputs": [
        {
          "internalType": "bytes32",
          "name": "role",
          "type": "bytes32"
        },
        {
          "internalType": "address",
          "name": "account",
          "type": "address"
        }
      ],
      "name": "revokeRole",
      "outputs": [],
      "stateMutability": "nonpayable",
      "type": "function"
    },
    {
      "inputs": [
        {
          "internalType": "uint256",
          "name": "_fee",
          "type": "uint256"
        }
      ],
      "name": "setFee",
      "outputs": [],
      "stateMutability": "nonpayable",
      "type": "function"
    },
    {
      "inputs": [
        {
          "internalType": "uint256",
          "name": "_feeBurnRate",
          "type": "uint256"
        }
      ],
      "name": "setFeeBurnRate",
      "outputs": [],
      "stateMutability": "nonpayable",
      "type": "function"
    },
    {
      "inputs": [
        {
          "internalType": "address",
          "name": "_feeTo",
          "type": "address"
        }
      ],
      "name": "setFeeTo",
      "outputs": [],
      "stateMutability": "nonpayable",
      "type": "function"
    },
    {
      "inputs": [
        {
          "internalType": "uint256",
          "name": "_marginBurnRate",
          "type": "uint256"
        }
      ],
      "name": "setMarginBurnRate",
      "outputs": [],
      "stateMutability": "nonpayable",
      "type": "function"
    },
    {
      "inputs": [
        {
          "internalType": "bytes4",
          "name": "interfaceId",
          "type": "bytes4"
        }
      ],
      "name": "supportsInterface",
      "outputs": [
        {
          "internalType": "bool",
          "name": "",
          "type": "bool"
        }
      ],
      "stateMutability": "view",
      "type": "function"
    },
    {
      "inputs": [],
      "name": "totalCollaterals",
      "outputs": [
        {
          "internalType": "uint256",
          "name": "",
          "type": "uint256"
        }
      ],
      "stateMutability": "view",
      "type": "function"
    },
    {
      "inputs": [],
      "name": "totalMarkets",
      "outputs": [
        {
          "internalType": "uint256",
          "name": "",
          "type": "uint256"
        }
      ],
      "stateMutability": "view",
      "type": "function"
    }
  ],
  "bytecode": "60a06040523480156200001157600080fd5b506040516200277e3803806200277e83398101604081905262000034916200051a565b62000041600033620000c1565b6200005c6000805160206200275e83398151915233620000c1565b620000786000805160206200275e833981519152600062000104565b6001600160601b0319606086901b1660805262000095846200014f565b620000a08362000200565b620000ab82620002a2565b620000b6816200033d565b50505050506200056d565b620000d88282620003db60201b620016131760201c565b6000828152600160209081526040909120620000ff91839062001621620003eb821b17901c565b505050565b600082815260208190526040808220600101805490849055905190918391839186917fbd79b86ffe0ab8e8776151514217cd7cacd52c909f66475c3af44e129f0b00ff9190a4505050565b6001600160a01b038116620001ab5760405162461bcd60e51b815260206004820152601f60248201527f4f564c56313a206665657320746f20746865207a65726f20616464726573730060448201526064015b60405180910390fd5b600280546001600160a01b0319166001600160a01b0383169081179091556040519081527fcb2efb9ac9d76fd38ee396f04826fab474b9d684a0131ed439d676632ad605f9906020015b60405180910390a150565b655af3107a400081101580156200021e5750662386f26fc100008111155b6200026c5760405162461bcd60e51b815260206004820152601d60248201527f4f564c56313a206665652072617465206f7574206f6620626f756e64730000006044820152606401620001a2565b60038190556040518181527f38e229a7f3f9c329892d08eb37c4e91ccac6d12c798d394990ca4f56028ec26690602001620001f5565b670de0b6b3a7640000811115620003075760405162461bcd60e51b815260206004820152602260248201527f4f564c56313a20666565206275726e2072617465206f7574206f6620626f756e604482015261647360f01b6064820152608401620001a2565b60048190556040518181527f7cb8903edf613646a5c21d15f5a3095223eca6a894fb27cf4bc191a8b5cc5d6a90602001620001f5565b670de0b6b3a7640000811115620003a55760405162461bcd60e51b815260206004820152602560248201527f4f564c56313a206d617267696e206275726e2072617465206f7574206f6620626044820152646f756e647360d81b6064820152608401620001a2565b60058190556040518181527f8195da279b9b52fc2c461fb2c7f75f10c7ce8ece7a8bbb62877e1c5f22e5673590602001620001f5565b620003e782826200040b565b5050565b600062000402836001600160a01b038416620004ab565b90505b92915050565b6000828152602081815260408083206001600160a01b038516845290915290205460ff16620003e7576000828152602081815260408083206001600160a01b03851684529091529020805460ff19166001179055620004673390565b6001600160a01b0316816001600160a01b0316837f2f8788117e7eff1d82e926ec794901d17c78024a50270940304540a733656f0d60405160405180910390a45050565b6000818152600183016020526040812054620004f45750815460018181018455600084815260208082209093018490558454848252828601909352604090209190915562000405565b50600062000405565b80516001600160a01b03811681146200051557600080fd5b919050565b600080600080600060a086880312156200053357600080fd5b6200053e86620004fd565b94506200054e60208701620004fd565b6040870151606088015160809098015196999198509695945092505050565b60805160601c6121a1620005bd600039600081816105000152818161075f015281816108440152818161087301528181610af801528181610fc7015281816110ac01526110db01526121a16000f3fe608060405234801561001057600080fd5b50600436106102485760003560e01c8063810fa05d1161013b578063c556017b116100b8578063df17679e1161007c578063df17679e14610368578063eeec7d6f14610571578063f46901ed14610594578063f55a898c146105a7578063f5aeb33a146105ba57600080fd5b8063c556017b14610530578063ca15c87314610539578063d547741f1461054c578063ddca3f431461055f578063def116f31461056857600080fd5b8063a217fddf116100ff578063a217fddf146102f9578063a2589770146104b5578063a61d1d51146104d8578063b29fa9c3146104fb578063bc063e1a1461052257600080fd5b8063810fa05d1461043d5780638162486b146104505780639010d07c1461045857806391d148541461046b578063933d6495146104a257600080fd5b806346a08f2b116101c95780636dc0ae221161018d5780636dc0ae22146103c0578063712ca018146103e757806372d17a331461040a57806375c038b71461041d57806376c7a3c71461043057600080fd5b806346a08f2b1461034257806352d84d1e146103555780636363be661461036857806369fe0e2d146103775780636b3222e61461038a57600080fd5b80632a0acc6a116102105780632a0acc6a146102f95780632a869a4d146103015780632f2ff15d1461031457806330504b6f1461032757806336568abe1461032f57600080fd5b8063017e7e581461024d57806301ffc9a71461027d57806311be0de5146102a0578063196c8996146102b5578063248a9ca3146102c8575b600080fd5b600254610260906001600160a01b031681565b6040516001600160a01b0390911681526020015b60405180910390f35b61029061028b366004611f3d565b6105cd565b6040519015158152602001610274565b6102b36102ae366004611ea2565b6105f8565b005b6102b36102c3366004611ea2565b6109a9565b6102eb6102d6366004611ebd565b60009081526020819052604090206001015490565b604051908152602001610274565b6102eb600081565b6102b361030f366004611ea2565b610b44565b6102b3610322366004611eef565b610cb3565b600b546102eb565b6102b361033d366004611eef565b610cda565b6102b3610350366004611f67565b610cfc565b610260610363366004611ebd565b610d78565b6102eb670de0b6b3a764000081565b6102b3610385366004611ebd565b610da2565b600254600354600454600554604080516001600160a01b0390951685526020850193909352918301526060820152608001610274565b6102eb7f1a6838efa4183e08fe3607359d1259272af9d4716f65e1a7b5921f78fd5a3c6a81565b6102906103f5366004611ea2565b60076020526000908152604090205460ff1681565b6102b3610418366004611ebd565b610e07565b6102b361042b366004611ea2565b610e69565b6102eb655af3107a400081565b6102b361044b366004611ea2565b61120a565b6008546102eb565b610260610466366004611f1b565b611387565b610290610479366004611eef565b6000918252602082815260408084206001600160a01b0393909316845291905290205460ff1690565b6102606104b0366004611ebd565b6113a6565b6102906104c3366004611ea2565b600a6020526000908152604090205460ff1681565b6102906104e6366004611ea2565b60096020526000908152604090205460ff1681565b6102607f000000000000000000000000000000000000000000000000000000000000000081565b6102eb662386f26fc1000081565b6102eb60045481565b6102eb610547366004611ebd565b6113b6565b6102b361055a366004611eef565b6113cd565b6102eb60035481565b6102eb60055481565b61029061057f366004611ea2565b60066020526000908152604090205460ff1681565b6102b36105a2366004611ea2565b6113d7565b6102b36105b5366004611ea2565b611439565b6102b36105c8366004611ebd565b6115b1565b60006001600160e01b03198216635a05180f60e01b14806105f257506105f282611636565b92915050565b33600090815260008051602061214c833981519152602052604090205460ff166106565760405162461bcd60e51b815260206004820152600a60248201526927ab262b189d10b3b7bb60b11b60448201526064015b60405180910390fd5b6001600160a01b03811660009081526009602052604090205460ff166106be5760405162461bcd60e51b815260206004820152601960248201527f4f564c56313a20636f6c6c61746572616c202165786973747300000000000000604482015260640161064d565b6001600160a01b0381166000908152600a602052604090205460ff16156107275760405162461bcd60e51b815260206004820152601b60248201527f4f564c56313a20636f6c6c61746572616c202164697361626c65640000000000604482015260640161064d565b6001600160a01b038082166000908152600a6020908152604091829020805460ff19166001179055815163d539139360e01b815291517f000000000000000000000000000000000000000000000000000000000000000090931692632f2ff15d92849263d539139392600480840193829003018186803b1580156107aa57600080fd5b505afa1580156107be573d6000803e3d6000fd5b505050506040513d601f19601f820116820180604052508101906107e29190611ed6565b6040516001600160e01b031960e084901b16815260048101919091526001600160a01b0384166024820152604401600060405180830381600087803b15801561082a57600080fd5b505af115801561083e573d6000803e3d6000fd5b505050507f00000000000000000000000000000000000000000000000000000000000000006001600160a01b0316632f2ff15d7f00000000000000000000000000000000000000000000000000000000000000006001600160a01b031663282c51f36040518163ffffffff1660e01b815260040160206040518083038186803b1580156108ca57600080fd5b505afa1580156108de573d6000803e3d6000fd5b505050506040513d601f19601f820116820180604052508101906109029190611ed6565b6040516001600160e01b031960e084901b16815260048101919091526001600160a01b0384166024820152604401600060405180830381600087803b15801561094a57600080fd5b505af115801561095e573d6000803e3d6000fd5b5050604080516001600160a01b0385168152600160208201527f8534ee3f0fade965fdf8d14f7405596eb2bfab4aac5c84f9f490f7e6820dd80593500190505b60405180910390a150565b33600090815260008051602061214c833981519152602052604090205460ff16610a025760405162461bcd60e51b815260206004820152600a60248201526927ab262b189d10b3b7bb60b11b604482015260640161064d565b6001600160a01b03811660009081526009602052604090205460ff1615610a6b5760405162461bcd60e51b815260206004820152601860248201527f4f564c56313a20636f6c6c61746572616c206578697374730000000000000000604482015260640161064d565b6001600160a01b0381811660008181526009602090815260408083208054600160ff199182168117909255600a8452828520805490911682179055600b805491820181559093527f0175b7a638427703f0dbe7bb9bbf987a2551717b34e79f33b5b1008d1fa01db990920180546001600160a01b031916909317909255805163d539139360e01b815290517f000000000000000000000000000000000000000000000000000000000000000090931692632f2ff15d92849263d53913939260048083019392829003018186803b1580156107aa57600080fd5b33600090815260008051602061214c833981519152602052604090205460ff16610b9d5760405162461bcd60e51b815260206004820152600a60248201526927ab262b189d10b3b7bb60b11b604482015260640161064d565b6001600160a01b03811660009081526007602052604090205460ff1615610c065760405162461bcd60e51b815260206004820152601460248201527f4f564c56313a206d61726b657420657869737473000000000000000000000000604482015260640161064d565b6001600160a01b03811660008181526007602090815260408083208054600160ff1991821681179092556006845282852080549091168217905560088054808301825594527ff3f7a9fe364faab93b216da50a3214154f22a0a2b415b23a84c8169e8b636ee390930180546001600160a01b031916851790558051938452908301919091527fc3b4e2f8686ddea884ad530cb4f7960e9bdbc24cf3c4b61c3ba380280e2af552910161099e565b610cbd828261166b565b6000828152600160205260409020610cd59082611621565b505050565b610ce48282611691565b6000828152600160205260409020610cd5908261170b565b33600090815260008051602061214c833981519152602052604090205460ff16610d555760405162461bcd60e51b815260206004820152600a60248201526927ab262b189d10b3b7bb60b11b604482015260640161064d565b610d628361ffff16611720565b610d6f8261ffff166117be565b610cd581611856565b60088181548110610d8857600080fd5b6000918252602090912001546001600160a01b0316905081565b33600090815260008051602061214c833981519152602052604090205460ff16610dfb5760405162461bcd60e51b815260206004820152600a60248201526927ab262b189d10b3b7bb60b11b604482015260640161064d565b610e0481611720565b50565b33600090815260008051602061214c833981519152602052604090205460ff16610e605760405162461bcd60e51b815260206004820152600a60248201526927ab262b189d10b3b7bb60b11b604482015260640161064d565b610e04816117be565b33600090815260008051602061214c833981519152602052604090205460ff16610ec25760405162461bcd60e51b815260206004820152600a60248201526927ab262b189d10b3b7bb60b11b604482015260640161064d565b6001600160a01b03811660009081526009602052604090205460ff16610f2a5760405162461bcd60e51b815260206004820152601960248201527f4f564c56313a20636f6c6c61746572616c202165786973747300000000000000604482015260640161064d565b6001600160a01b0381166000908152600a602052604090205460ff16610f925760405162461bcd60e51b815260206004820152601a60248201527f4f564c56313a20636f6c6c61746572616c2021656e61626c6564000000000000604482015260640161064d565b6001600160a01b038082166000908152600a6020908152604091829020805460ff19169055815163d539139360e01b815291517f00000000000000000000000000000000000000000000000000000000000000009093169263d547741f92849263d539139392600480840193829003018186803b15801561101257600080fd5b505afa158015611026573d6000803e3d6000fd5b505050506040513d601f19601f8201168201806040525081019061104a9190611ed6565b6040516001600160e01b031960e084901b16815260048101919091526001600160a01b0384166024820152604401600060405180830381600087803b15801561109257600080fd5b505af11580156110a6573d6000803e3d6000fd5b505050507f00000000000000000000000000000000000000000000000000000000000000006001600160a01b031663d547741f7f00000000000000000000000000000000000000000000000000000000000000006001600160a01b031663282c51f36040518163ffffffff1660e01b815260040160206040518083038186803b15801561113257600080fd5b505afa158015611146573d6000803e3d6000fd5b505050506040513d601f19601f8201168201806040525081019061116a9190611ed6565b6040516001600160e01b031960e084901b16815260048101919091526001600160a01b0384166024820152604401600060405180830381600087803b1580156111b257600080fd5b505af11580156111c6573d6000803e3d6000fd5b5050604080516001600160a01b0385168152600060208201527f8534ee3f0fade965fdf8d14f7405596eb2bfab4aac5c84f9f490f7e6820dd805935001905061099e565b33600090815260008051602061214c833981519152602052604090205460ff166112635760405162461bcd60e51b815260206004820152600a60248201526927ab262b189d10b3b7bb60b11b604482015260640161064d565b6001600160a01b03811660009081526007602052604090205460ff166112c35760405162461bcd60e51b81526020600482015260156024820152744f564c56313a206d61726b6574202165786973747360581b604482015260640161064d565b6001600160a01b03811660009081526006602052604090205460ff161561132c5760405162461bcd60e51b815260206004820152601760248201527f4f564c56313a206d61726b6574202164697361626c6564000000000000000000604482015260640161064d565b6001600160a01b038116600081815260066020908152604091829020805460ff191660019081179091558251938452908301527fc3b4e2f8686ddea884ad530cb4f7960e9bdbc24cf3c4b61c3ba380280e2af552910161099e565b600082815260016020526040812061139f90836118fa565b9392505050565b600b8181548110610d8857600080fd5b60008181526001602052604081206105f290611906565b610ce48282611910565b33600090815260008051602061214c833981519152602052604090205460ff166114305760405162461bcd60e51b815260206004820152600a60248201526927ab262b189d10b3b7bb60b11b604482015260640161064d565b610e0481611856565b33600090815260008051602061214c833981519152602052604090205460ff166114925760405162461bcd60e51b815260206004820152600a60248201526927ab262b189d10b3b7bb60b11b604482015260640161064d565b6001600160a01b03811660009081526007602052604090205460ff166114f25760405162461bcd60e51b81526020600482015260156024820152744f564c56313a206d61726b6574202165786973747360581b604482015260640161064d565b6001600160a01b03811660009081526006602052604090205460ff1661155a5760405162461bcd60e51b815260206004820152601660248201527f4f564c56313a206d61726b65742021656e61626c656400000000000000000000604482015260640161064d565b6001600160a01b0381166000818152600660209081526040808320805460ff191690558051938452908301919091527fc3b4e2f8686ddea884ad530cb4f7960e9bdbc24cf3c4b61c3ba380280e2af552910161099e565b33600090815260008051602061214c833981519152602052604090205460ff1661160a5760405162461bcd60e51b815260206004820152600a60248201526927ab262b189d10b3b7bb60b11b604482015260640161064d565b610e0481611936565b61161d82826119d1565b5050565b600061139f836001600160a01b038416611a6f565b60006001600160e01b03198216637965db0b60e01b14806105f257506301ffc9a760e01b6001600160e01b03198316146105f2565b6000828152602081905260409020600101546116878133611abe565b610cd583836119d1565b6001600160a01b03811633146117015760405162461bcd60e51b815260206004820152602f60248201527f416363657373436f6e74726f6c3a2063616e206f6e6c792072656e6f756e636560448201526e103937b632b9903337b91039b2b63360891b606482015260840161064d565b61161d8282611b3c565b600061139f836001600160a01b038416611bbb565b655af3107a4000811015801561173d5750662386f26fc100008111155b6117895760405162461bcd60e51b815260206004820152601d60248201527f4f564c56313a206665652072617465206f7574206f6620626f756e6473000000604482015260640161064d565b60038190556040518181527f38e229a7f3f9c329892d08eb37c4e91ccac6d12c798d394990ca4f56028ec2669060200161099e565b670de0b6b3a76400008111156118215760405162461bcd60e51b815260206004820152602260248201527f4f564c56313a20666565206275726e2072617465206f7574206f6620626f756e604482015261647360f01b606482015260840161064d565b60048190556040518181527f7cb8903edf613646a5c21d15f5a3095223eca6a894fb27cf4bc191a8b5cc5d6a9060200161099e565b6001600160a01b0381166118ac5760405162461bcd60e51b815260206004820152601f60248201527f4f564c56313a206665657320746f20746865207a65726f206164647265737300604482015260640161064d565b600280546001600160a01b0319166001600160a01b0383169081179091556040519081527fcb2efb9ac9d76fd38ee396f04826fab474b9d684a0131ed439d676632ad605f99060200161099e565b600061139f8383611cae565b60006105f2825490565b60008281526020819052604090206001015461192c8133611abe565b610cd58383611b3c565b670de0b6b3a764000081111561199c5760405162461bcd60e51b815260206004820152602560248201527f4f564c56313a206d617267696e206275726e2072617465206f7574206f6620626044820152646f756e647360d81b606482015260840161064d565b60058190556040518181527f8195da279b9b52fc2c461fb2c7f75f10c7ce8ece7a8bbb62877e1c5f22e567359060200161099e565b6000828152602081815260408083206001600160a01b038516845290915290205460ff1661161d576000828152602081815260408083206001600160a01b03851684529091529020805460ff19166001179055611a2b3390565b6001600160a01b0316816001600160a01b0316837f2f8788117e7eff1d82e926ec794901d17c78024a50270940304540a733656f0d60405160405180910390a45050565b6000818152600183016020526040812054611ab6575081546001818101845560008481526020808220909301849055845484825282860190935260409020919091556105f2565b5060006105f2565b6000828152602081815260408083206001600160a01b038516845290915290205460ff1661161d57611afa816001600160a01b03166014611cd8565b611b05836020611cd8565b604051602001611b16929190611faa565b60408051601f198184030181529082905262461bcd60e51b825261064d9160040161202b565b6000828152602081815260408083206001600160a01b038516845290915290205460ff161561161d576000828152602081815260408083206001600160a01b0385168085529252808320805460ff1916905551339285917ff6391f5c32d9c69d2a47ea670b442974b53935d1edc7fd64eb21e047a839171b9190a45050565b60008181526001830160205260408120548015611ca4576000611bdf600183612095565b8554909150600090611bf390600190612095565b9050818114611c58576000866000018281548110611c1357611c1361211f565b9060005260206000200154905080876000018481548110611c3657611c3661211f565b6000918252602080832090910192909255918252600188019052604090208390555b8554869080611c6957611c69612109565b6001900381819060005260206000200160009055905585600101600086815260200190815260200160002060009055600193505050506105f2565b60009150506105f2565b6000826000018281548110611cc557611cc561211f565b9060005260206000200154905092915050565b60606000611ce7836002612076565b611cf290600261205e565b67ffffffffffffffff811115611d0a57611d0a612135565b6040519080825280601f01601f191660200182016040528015611d34576020820181803683370190505b509050600360fc1b81600081518110611d4f57611d4f61211f565b60200101906001600160f81b031916908160001a905350600f60fb1b81600181518110611d7e57611d7e61211f565b60200101906001600160f81b031916908160001a9053506000611da2846002612076565b611dad90600161205e565b90505b6001811115611e25576f181899199a1a9b1b9c1cb0b131b232b360811b85600f1660108110611de157611de161211f565b1a60f81b828281518110611df757611df761211f565b60200101906001600160f81b031916908160001a90535060049490941c93611e1e816120dc565b9050611db0565b50831561139f5760405162461bcd60e51b815260206004820181905260248201527f537472696e67733a20686578206c656e67746820696e73756666696369656e74604482015260640161064d565b80356001600160a01b0381168114611e8b57600080fd5b919050565b803561ffff81168114611e8b57600080fd5b600060208284031215611eb457600080fd5b61139f82611e74565b600060208284031215611ecf57600080fd5b5035919050565b600060208284031215611ee857600080fd5b5051919050565b60008060408385031215611f0257600080fd5b82359150611f1260208401611e74565b90509250929050565b60008060408385031215611f2e57600080fd5b50508035926020909101359150565b600060208284031215611f4f57600080fd5b81356001600160e01b03198116811461139f57600080fd5b600080600060608486031215611f7c57600080fd5b611f8584611e90565b9250611f9360208501611e90565b9150611fa160408501611e74565b90509250925092565b7f416363657373436f6e74726f6c3a206163636f756e7420000000000000000000815260008351611fe28160178501602088016120ac565b7f206973206d697373696e6720726f6c6520000000000000000000000000000000601791840191820152835161201f8160288401602088016120ac565b01602801949350505050565b602081526000825180602084015261204a8160408501602087016120ac565b601f01601f19169190910160400192915050565b60008219821115612071576120716120f3565b500190565b6000816000190483118215151615612090576120906120f3565b500290565b6000828210156120a7576120a76120f3565b500390565b60005b838110156120c75781810151838201526020016120af565b838111156120d6576000848401525b50505050565b6000816120eb576120eb6120f3565b506000190190565b634e487b7160e01b600052601160045260246000fd5b634e487b7160e01b600052603160045260246000fd5b634e487b7160e01b600052603260045260246000fd5b634e487b7160e01b600052604160045260246000fdfe633a52d7cd6d71cd4a4ff569daeb3cb23f4ff6acf4a4c3abafee9ef2178f7788a26469706673582212206bc8f7dab4e701e8d578c3d7a12afb558633c02acd4bbf0fe1d476cb0581d0c664736f6c634300080700331a6838efa4183e08fe3607359d1259272af9d4716f65e1a7b5921f78fd5a3c6a",
  "bytecodeSha1": "da39a3ee5e6b4b0d3255bfef95601890afd80709",
  "compiler": {
    "evm_version": "london",
    "optimizer": {
      "enabled": true,
      "runs": 400
    },
    "version": "0.8.7+commit.e28d00a7"
  },
  "contractName": "OverlayV1Mothership",
  "language": "Solidity",
  "natspec": {
    "kind": "dev",
    "methods": {
      "adjustGlobalParams(uint16,uint16,address)": {
        "notice": "Allows gov to adjust global params"
      },
      "getRoleAdmin(bytes32)": {
        "details": "Returns the admin role that controls `role`. See {grantRole} and {revokeRole}. To change a role's admin, use {_setRoleAdmin}."
      },
      "getRoleMember(bytes32,uint256)": {
        "details": "Returns one of the accounts that have `role`. `index` must be a value between 0 and {getRoleMemberCount}, non-inclusive. Role bearers are not sorted in any particular way, and their ordering may change at any point. WARNING: When using {getRoleMember} and {getRoleMemberCount}, make sure you perform all queries on the same block. See the following https://forum.openzeppelin.com/t/iterating-over-elements-on-enumerableset-in-openzeppelin-contracts/2296[forum post] for more information."
      },
      "getRoleMemberCount(bytes32)": {
        "details": "Returns the number of accounts that have `role`. Can be used together with {getRoleMember} to enumerate all bearers of a role."
      },
      "grantRole(bytes32,address)": {
        "details": "Overload {grantRole} to track enumerable memberships"
      },
      "hasRole(bytes32,address)": {
        "details": "Returns `true` if `account` has been granted `role`."
      },
      "initializeCollateral(address)": {
        "details": "Adds collateral contract address to the `collateralExists` and `collateralActive` mappingsOnly the Governor can set market info",
        "notice": "Make this contract aware of a new collateral contract's existence",
        "params": {
          "_collateral": "Overlay OVL collateral contract address"
        }
      },
      "initializeMarket(address)": {
        "details": "Should be called after contract deployment in specific market factory.createMarketOnly the Governor can initialize a marketAppends new market address to `allMarkets` array to track them",
        "notice": "Make this contract aware of a new market contract's existence",
        "params": {
          "_market": "Overlay market contract address"
        }
      },
      "renounceRole(bytes32,address)": {
        "details": "Overload {renounceRole} to track enumerable memberships"
      },
      "revokeRole(bytes32,address)": {
        "details": "Overload {revokeRole} to track enumerable memberships"
      },
      "supportsInterface(bytes4)": {
        "details": "See {IERC165-supportsInterface}."
      }
    },
    "version": 1
  },
  "opcodes": "PUSH1 0x80 PUSH1 0x40 MSTORE CALLVALUE DUP1 ISZERO PUSH2 0x10 JUMPI PUSH1 0x0 DUP1 REVERT JUMPDEST POP PUSH1 0x4 CALLDATASIZE LT PUSH2 0x248 JUMPI PUSH1 0x0 CALLDATALOAD PUSH1 0xE0 SHR DUP1 PUSH4 0x810FA05D GT PUSH2 0x13B JUMPI DUP1 PUSH4 0xC556017B GT PUSH2 0xB8 JUMPI DUP1 PUSH4 0xDF17679E GT PUSH2 0x7C JUMPI DUP1 PUSH4 0xDF17679E EQ PUSH2 0x368 JUMPI DUP1 PUSH4 0xEEEC7D6F EQ PUSH2 0x571 JUMPI DUP1 PUSH4 0xF46901ED EQ PUSH2 0x594 JUMPI DUP1 PUSH4 0xF55A898C EQ PUSH2 0x5A7 JUMPI DUP1 PUSH4 0xF5AEB33A EQ PUSH2 0x5BA JUMPI PUSH1 0x0 DUP1 REVERT JUMPDEST DUP1 PUSH4 0xC556017B EQ PUSH2 0x530 JUMPI DUP1 PUSH4 0xCA15C873 EQ PUSH2 0x539 JUMPI DUP1 PUSH4 0xD547741F EQ PUSH2 0x54C JUMPI DUP1 PUSH4 0xDDCA3F43 EQ PUSH2 0x55F JUMPI DUP1 PUSH4 0xDEF116F3 EQ PUSH2 0x568 JUMPI PUSH1 0x0 DUP1 REVERT JUMPDEST DUP1 PUSH4 0xA217FDDF GT PUSH2 0xFF JUMPI DUP1 PUSH4 0xA217FDDF EQ PUSH2 0x2F9 JUMPI DUP1 PUSH4 0xA2589770 EQ PUSH2 0x4B5 JUMPI DUP1 PUSH4 0xA61D1D51 EQ PUSH2 0x4D8 JUMPI DUP1 PUSH4 0xB29FA9C3 EQ PUSH2 0x4FB JUMPI DUP1 PUSH4 0xBC063E1A EQ PUSH2 0x522 JUMPI PUSH1 0x0 DUP1 REVERT JUMPDEST DUP1 PUSH4 0x810FA05D EQ PUSH2 0x43D JUMPI DUP1 PUSH4 0x8162486B EQ PUSH2 0x450 JUMPI DUP1 PUSH4 0x9010D07C EQ PUSH2 0x458 JUMPI DUP1 PUSH4 0x91D14854 EQ PUSH2 0x46B JUMPI DUP1 PUSH4 0x933D6495 EQ PUSH2 0x4A2 JUMPI PUSH1 0x0 DUP1 REVERT JUMPDEST DUP1 PUSH4 0x46A08F2B GT PUSH2 0x1C9 JUMPI DUP1 PUSH4 0x6DC0AE22 GT PUSH2 0x18D JUMPI DUP1 PUSH4 0x6DC0AE22 EQ PUSH2 0x3C0 JUMPI DUP1 PUSH4 0x712CA018 EQ PUSH2 0x3E7 JUMPI DUP1 PUSH4 0x72D17A33 EQ PUSH2 0x40A JUMPI DUP1 PUSH4 0x75C038B7 EQ PUSH2 0x41D JUMPI DUP1 PUSH4 0x76C7A3C7 EQ PUSH2 0x430 JUMPI PUSH1 0x0 DUP1 REVERT JUMPDEST DUP1 PUSH4 0x46A08F2B EQ PUSH2 0x342 JUMPI DUP1 PUSH4 0x52D84D1E EQ PUSH2 0x355 JUMPI DUP1 PUSH4 0x6363BE66 EQ PUSH2 0x368 JUMPI DUP1 PUSH4 0x69FE0E2D EQ PUSH2 0x377 JUMPI DUP1 PUSH4 0x6B3222E6 EQ PUSH2 0x38A JUMPI PUSH1 0x0 DUP1 REVERT JUMPDEST DUP1 PUSH4 0x2A0ACC6A GT PUSH2 0x210 JUMPI DUP1 PUSH4 0x2A0ACC6A EQ PUSH2 0x2F9 JUMPI DUP1 PUSH4 0x2A869A4D EQ PUSH2 0x301 JUMPI DUP1 PUSH4 0x2F2FF15D EQ PUSH2 0x314 JUMPI DUP1 PUSH4 0x30504B6F EQ PUSH2 0x327 JUMPI DUP1 PUSH4 0x36568ABE EQ PUSH2 0x32F JUMPI PUSH1 0x0 DUP1 REVERT JUMPDEST DUP1 PUSH4 0x17E7E58 EQ PUSH2 0x24D JUMPI DUP1 PUSH4 0x1FFC9A7 EQ PUSH2 0x27D JUMPI DUP1 PUSH4 0x11BE0DE5 EQ PUSH2 0x2A0 JUMPI DUP1 PUSH4 0x196C8996 EQ PUSH2 0x2B5 JUMPI DUP1 PUSH4 0x248A9CA3 EQ PUSH2 0x2C8 JUMPI JUMPDEST PUSH1 0x0 DUP1 REVERT JUMPDEST PUSH1 0x2 SLOAD PUSH2 0x260 SWAP1 PUSH1 0x1 PUSH1 0x1 PUSH1 0xA0 SHL SUB AND DUP2 JUMP JUMPDEST PUSH1 0x40 MLOAD PUSH1 0x1 PUSH1 0x1 PUSH1 0xA0 SHL SUB SWAP1 SWAP2 AND DUP2 MSTORE PUSH1 0x20 ADD JUMPDEST PUSH1 0x40 MLOAD DUP1 SWAP2 SUB SWAP1 RETURN JUMPDEST PUSH2 0x290 PUSH2 0x28B CALLDATASIZE PUSH1 0x4 PUSH2 0x1F3D JUMP JUMPDEST PUSH2 0x5CD JUMP JUMPDEST PUSH1 0x40 MLOAD SWAP1 ISZERO ISZERO DUP2 MSTORE PUSH1 0x20 ADD PUSH2 0x274 JUMP JUMPDEST PUSH2 0x2B3 PUSH2 0x2AE CALLDATASIZE PUSH1 0x4 PUSH2 0x1EA2 JUMP JUMPDEST PUSH2 0x5F8 JUMP JUMPDEST STOP JUMPDEST PUSH2 0x2B3 PUSH2 0x2C3 CALLDATASIZE PUSH1 0x4 PUSH2 0x1EA2 JUMP JUMPDEST PUSH2 0x9A9 JUMP JUMPDEST PUSH2 0x2EB PUSH2 0x2D6 CALLDATASIZE PUSH1 0x4 PUSH2 0x1EBD JUMP JUMPDEST PUSH1 0x0 SWAP1 DUP2 MSTORE PUSH1 0x20 DUP2 SWAP1 MSTORE PUSH1 0x40 SWAP1 KECCAK256 PUSH1 0x1 ADD SLOAD SWAP1 JUMP JUMPDEST PUSH1 0x40 MLOAD SWAP1 DUP2 MSTORE PUSH1 0x20 ADD PUSH2 0x274 JUMP JUMPDEST PUSH2 0x2EB PUSH1 0x0 DUP2 JUMP JUMPDEST PUSH2 0x2B3 PUSH2 0x30F CALLDATASIZE PUSH1 0x4 PUSH2 0x1EA2 JUMP JUMPDEST PUSH2 0xB44 JUMP JUMPDEST PUSH2 0x2B3 PUSH2 0x322 CALLDATASIZE PUSH1 0x4 PUSH2 0x1EEF JUMP JUMPDEST PUSH2 0xCB3 JUMP JUMPDEST PUSH1 0xB SLOAD PUSH2 0x2EB JUMP JUMPDEST PUSH2 0x2B3 PUSH2 0x33D CALLDATASIZE PUSH1 0x4 PUSH2 0x1EEF JUMP JUMPDEST PUSH2 0xCDA JUMP JUMPDEST PUSH2 0x2B3 PUSH2 0x350 CALLDATASIZE PUSH1 0x4 PUSH2 0x1F67 JUMP JUMPDEST PUSH2 0xCFC JUMP JUMPDEST PUSH2 0x260 PUSH2 0x363 CALLDATASIZE PUSH1 0x4 PUSH2 0x1EBD JUMP JUMPDEST PUSH2 0xD78 JUMP JUMPDEST PUSH2 0x2EB PUSH8 0xDE0B6B3A7640000 DUP2 JUMP JUMPDEST PUSH2 0x2B3 PUSH2 0x385 CALLDATASIZE PUSH1 0x4 PUSH2 0x1EBD JUMP JUMPDEST PUSH2 0xDA2 JUMP JUMPDEST PUSH1 0x2 SLOAD PUSH1 0x3 SLOAD PUSH1 0x4 SLOAD PUSH1 0x5 SLOAD PUSH1 0x40 DUP1 MLOAD PUSH1 0x1 PUSH1 0x1 PUSH1 0xA0 SHL SUB SWAP1 SWAP6 AND DUP6 MSTORE PUSH1 0x20 DUP6 ADD SWAP4 SWAP1 SWAP4 MSTORE SWAP2 DUP4 ADD MSTORE PUSH1 0x60 DUP3 ADD MSTORE PUSH1 0x80 ADD PUSH2 0x274 JUMP JUMPDEST PUSH2 0x2EB PUSH32 0x1A6838EFA4183E08FE3607359D1259272AF9D4716F65E1A7B5921F78FD5A3C6A DUP2 JUMP JUMPDEST PUSH2 0x290 PUSH2 0x3F5 CALLDATASIZE PUSH1 0x4 PUSH2 0x1EA2 JUMP JUMPDEST PUSH1 0x7 PUSH1 0x20 MSTORE PUSH1 0x0 SWAP1 DUP2 MSTORE PUSH1 0x40 SWAP1 KECCAK256 SLOAD PUSH1 0xFF AND DUP2 JUMP JUMPDEST PUSH2 0x2B3 PUSH2 0x418 CALLDATASIZE PUSH1 0x4 PUSH2 0x1EBD JUMP JUMPDEST PUSH2 0xE07 JUMP JUMPDEST PUSH2 0x2B3 PUSH2 0x42B CALLDATASIZE PUSH1 0x4 PUSH2 0x1EA2 JUMP JUMPDEST PUSH2 0xE69 JUMP JUMPDEST PUSH2 0x2EB PUSH6 0x5AF3107A4000 DUP2 JUMP JUMPDEST PUSH2 0x2B3 PUSH2 0x44B CALLDATASIZE PUSH1 0x4 PUSH2 0x1EA2 JUMP JUMPDEST PUSH2 0x120A JUMP JUMPDEST PUSH1 0x8 SLOAD PUSH2 0x2EB JUMP JUMPDEST PUSH2 0x260 PUSH2 0x466 CALLDATASIZE PUSH1 0x4 PUSH2 0x1F1B JUMP JUMPDEST PUSH2 0x1387 JUMP JUMPDEST PUSH2 0x290 PUSH2 0x479 CALLDATASIZE PUSH1 0x4 PUSH2 0x1EEF JUMP JUMPDEST PUSH1 0x0 SWAP2 DUP3 MSTORE PUSH1 0x20 DUP3 DUP2 MSTORE PUSH1 0x40 DUP1 DUP5 KECCAK256 PUSH1 0x1 PUSH1 0x1 PUSH1 0xA0 SHL SUB SWAP4 SWAP1 SWAP4 AND DUP5 MSTORE SWAP2 SWAP1 MSTORE SWAP1 KECCAK256 SLOAD PUSH1 0xFF AND SWAP1 JUMP JUMPDEST PUSH2 0x260 PUSH2 0x4B0 CALLDATASIZE PUSH1 0x4 PUSH2 0x1EBD JUMP JUMPDEST PUSH2 0x13A6 JUMP JUMPDEST PUSH2 0x290 PUSH2 0x4C3 CALLDATASIZE PUSH1 0x4 PUSH2 0x1EA2 JUMP JUMPDEST PUSH1 0xA PUSH1 0x20 MSTORE PUSH1 0x0 SWAP1 DUP2 MSTORE PUSH1 0x40 SWAP1 KECCAK256 SLOAD PUSH1 0xFF AND DUP2 JUMP JUMPDEST PUSH2 0x290 PUSH2 0x4E6 CALLDATASIZE PUSH1 0x4 PUSH2 0x1EA2 JUMP JUMPDEST PUSH1 0x9 PUSH1 0x20 MSTORE PUSH1 0x0 SWAP1 DUP2 MSTORE PUSH1 0x40 SWAP1 KECCAK256 SLOAD PUSH1 0xFF AND DUP2 JUMP JUMPDEST PUSH2 0x260 PUSH32 0x0 DUP2 JUMP JUMPDEST PUSH2 0x2EB PUSH7 0x2386F26FC10000 DUP2 JUMP JUMPDEST PUSH2 0x2EB PUSH1 0x4 SLOAD DUP2 JUMP JUMPDEST PUSH2 0x2EB PUSH2 0x547 CALLDATASIZE PUSH1 0x4 PUSH2 0x1EBD JUMP JUMPDEST PUSH2 0x13B6 JUMP JUMPDEST PUSH2 0x2B3 PUSH2 0x55A CALLDATASIZE PUSH1 0x4 PUSH2 0x1EEF JUMP JUMPDEST PUSH2 0x13CD JUMP JUMPDEST PUSH2 0x2EB PUSH1 0x3 SLOAD DUP2 JUMP JUMPDEST PUSH2 0x2EB PUSH1 0x5 SLOAD DUP2 JUMP JUMPDEST PUSH2 0x290 PUSH2 0x57F CALLDATASIZE PUSH1 0x4 PUSH2 0x1EA2 JUMP JUMPDEST PUSH1 0x6 PUSH1 0x20 MSTORE PUSH1 0x0 SWAP1 DUP2 MSTORE PUSH1 0x40 SWAP1 KECCAK256 SLOAD PUSH1 0xFF AND DUP2 JUMP JUMPDEST PUSH2 0x2B3 PUSH2 0x5A2 CALLDATASIZE PUSH1 0x4 PUSH2 0x1EA2 JUMP JUMPDEST PUSH2 0x13D7 JUMP JUMPDEST PUSH2 0x2B3 PUSH2 0x5B5 CALLDATASIZE PUSH1 0x4 PUSH2 0x1EA2 JUMP JUMPDEST PUSH2 0x1439 JUMP JUMPDEST PUSH2 0x2B3 PUSH2 0x5C8 CALLDATASIZE PUSH1 0x4 PUSH2 0x1EBD JUMP JUMPDEST PUSH2 0x15B1 JUMP JUMPDEST PUSH1 0x0 PUSH1 0x1 PUSH1 0x1 PUSH1 0xE0 SHL SUB NOT DUP3 AND PUSH4 0x5A05180F PUSH1 0xE0 SHL EQ DUP1 PUSH2 0x5F2 JUMPI POP PUSH2 0x5F2 DUP3 PUSH2 0x1636 JUMP JUMPDEST SWAP3 SWAP2 POP POP JUMP JUMPDEST CALLER PUSH1 0x0 SWAP1 DUP2 MSTORE PUSH1 0x0 DUP1 MLOAD PUSH1 0x20 PUSH2 0x214C DUP4 CODECOPY DUP2 MLOAD SWAP2 MSTORE PUSH1 0x20 MSTORE PUSH1 0x40 SWAP1 KECCAK256 SLOAD PUSH1 0xFF AND PUSH2 0x656 JUMPI PUSH1 0x40 MLOAD PUSH3 0x461BCD PUSH1 0xE5 SHL DUP2 MSTORE PUSH1 0x20 PUSH1 0x4 DUP3 ADD MSTORE PUSH1 0xA PUSH1 0x24 DUP3 ADD MSTORE PUSH10 0x27AB262B189D10B3B7BB PUSH1 0xB1 SHL PUSH1 0x44 DUP3 ADD MSTORE PUSH1 0x64 ADD JUMPDEST PUSH1 0x40 MLOAD DUP1 SWAP2 SUB SWAP1 REVERT JUMPDEST PUSH1 0x1 PUSH1 0x1 PUSH1 0xA0 SHL SUB DUP2 AND PUSH1 0x0 SWAP1 DUP2 MSTORE PUSH1 0x9 PUSH1 0x20 MSTORE PUSH1 0x40 SWAP1 KECCAK256 SLOAD PUSH1 0xFF AND PUSH2 0x6BE JUMPI PUSH1 0x40 MLOAD PUSH3 0x461BCD PUSH1 0xE5 SHL DUP2 MSTORE PUSH1 0x20 PUSH1 0x4 DUP3 ADD MSTORE PUSH1 0x19 PUSH1 0x24 DUP3 ADD MSTORE PUSH32 0x4F564C56313A20636F6C6C61746572616C202165786973747300000000000000 PUSH1 0x44 DUP3 ADD MSTORE PUSH1 0x64 ADD PUSH2 0x64D JUMP JUMPDEST PUSH1 0x1 PUSH1 0x1 PUSH1 0xA0 SHL SUB DUP2 AND PUSH1 0x0 SWAP1 DUP2 MSTORE PUSH1 0xA PUSH1 0x20 MSTORE PUSH1 0x40 SWAP1 KECCAK256 SLOAD PUSH1 0xFF AND ISZERO PUSH2 0x727 JUMPI PUSH1 0x40 MLOAD PUSH3 0x461BCD PUSH1 0xE5 SHL DUP2 MSTORE PUSH1 0x20 PUSH1 0x4 DUP3 ADD MSTORE PUSH1 0x1B PUSH1 0x24 DUP3 ADD MSTORE PUSH32 0x4F564C56313A20636F6C6C61746572616C202164697361626C65640000000000 PUSH1 0x44 DUP3 ADD MSTORE PUSH1 0x64 ADD PUSH2 0x64D JUMP JUMPDEST PUSH1 0x1 PUSH1 0x1 PUSH1 0xA0 SHL SUB DUP1 DUP3 AND PUSH1 0x0 SWAP1 DUP2 MSTORE PUSH1 0xA PUSH1 0x20 SWAP1 DUP2 MSTORE PUSH1 0x40 SWAP2 DUP3 SWAP1 KECCAK256 DUP1 SLOAD PUSH1 0xFF NOT AND PUSH1 0x1 OR SWAP1 SSTORE DUP2 MLOAD PUSH4 0xD5391393 PUSH1 0xE0 SHL DUP2 MSTORE SWAP2 MLOAD PUSH32 0x0 SWAP1 SWAP4 AND SWAP3 PUSH4 0x2F2FF15D SWAP3 DUP5 SWAP3 PUSH4 0xD5391393 SWAP3 PUSH1 0x4 DUP1 DUP5 ADD SWAP4 DUP3 SWAP1 SUB ADD DUP2 DUP7 DUP1 EXTCODESIZE ISZERO DUP1 ISZERO PUSH2 0x7AA JUMPI PUSH1 0x0 DUP1 REVERT JUMPDEST POP GAS STATICCALL ISZERO DUP1 ISZERO PUSH2 0x7BE JUMPI RETURNDATASIZE PUSH1 0x0 DUP1 RETURNDATACOPY RETURNDATASIZE PUSH1 0x0 REVERT JUMPDEST POP POP POP POP PUSH1 0x40 MLOAD RETURNDATASIZE PUSH1 0x1F NOT PUSH1 0x1F DUP3 ADD AND DUP3 ADD DUP1 PUSH1 0x40 MSTORE POP DUP2 ADD SWAP1 PUSH2 0x7E2 SWAP2 SWAP1 PUSH2 0x1ED6 JUMP JUMPDEST PUSH1 0x40 MLOAD PUSH1 0x1 PUSH1 0x1 PUSH1 0xE0 SHL SUB NOT PUSH1 0xE0 DUP5 SWAP1 SHL AND DUP2 MSTORE PUSH1 0x4 DUP2 ADD SWAP2 SWAP1 SWAP2 MSTORE PUSH1 0x1 PUSH1 0x1 PUSH1 0xA0 SHL SUB DUP5 AND PUSH1 0x24 DUP3 ADD MSTORE PUSH1 0x44 ADD PUSH1 0x0 PUSH1 0x40 MLOAD DUP1 DUP4 SUB DUP2 PUSH1 0x0 DUP8 DUP1 EXTCODESIZE ISZERO DUP1 ISZERO PUSH2 0x82A JUMPI PUSH1 0x0 DUP1 REVERT JUMPDEST POP GAS CALL ISZERO DUP1 ISZERO PUSH2 0x83E JUMPI RETURNDATASIZE PUSH1 0x0 DUP1 RETURNDATACOPY RETURNDATASIZE PUSH1 0x0 REVERT JUMPDEST POP POP POP POP PUSH32 0x0 PUSH1 0x1 PUSH1 0x1 PUSH1 0xA0 SHL SUB AND PUSH4 0x2F2FF15D PUSH32 0x0 PUSH1 0x1 PUSH1 0x1 PUSH1 0xA0 SHL SUB AND PUSH4 0x282C51F3 PUSH1 0x40 MLOAD DUP2 PUSH4 0xFFFFFFFF AND PUSH1 0xE0 SHL DUP2 MSTORE PUSH1 0x4 ADD PUSH1 0x20 PUSH1 0x40 MLOAD DUP1 DUP4 SUB DUP2 DUP7 DUP1 EXTCODESIZE ISZERO DUP1 ISZERO PUSH2 0x8CA JUMPI PUSH1 0x0 DUP1 REVERT JUMPDEST POP GAS STATICCALL ISZERO DUP1 ISZERO PUSH2 0x8DE JUMPI RETURNDATASIZE PUSH1 0x0 DUP1 RETURNDATACOPY RETURNDATASIZE PUSH1 0x0 REVERT JUMPDEST POP POP POP POP PUSH1 0x40 MLOAD RETURNDATASIZE PUSH1 0x1F NOT PUSH1 0x1F DUP3 ADD AND DUP3 ADD DUP1 PUSH1 0x40 MSTORE POP DUP2 ADD SWAP1 PUSH2 0x902 SWAP2 SWAP1 PUSH2 0x1ED6 JUMP JUMPDEST PUSH1 0x40 MLOAD PUSH1 0x1 PUSH1 0x1 PUSH1 0xE0 SHL SUB NOT PUSH1 0xE0 DUP5 SWAP1 SHL AND DUP2 MSTORE PUSH1 0x4 DUP2 ADD SWAP2 SWAP1 SWAP2 MSTORE PUSH1 0x1 PUSH1 0x1 PUSH1 0xA0 SHL SUB DUP5 AND PUSH1 0x24 DUP3 ADD MSTORE PUSH1 0x44 ADD PUSH1 0x0 PUSH1 0x40 MLOAD DUP1 DUP4 SUB DUP2 PUSH1 0x0 DUP8 DUP1 EXTCODESIZE ISZERO DUP1 ISZERO PUSH2 0x94A JUMPI PUSH1 0x0 DUP1 REVERT JUMPDEST POP GAS CALL ISZERO DUP1 ISZERO PUSH2 0x95E JUMPI RETURNDATASIZE PUSH1 0x0 DUP1 RETURNDATACOPY RETURNDATASIZE PUSH1 0x0 REVERT JUMPDEST POP POP PUSH1 0x40 DUP1 MLOAD PUSH1 0x1 PUSH1 0x1 PUSH1 0xA0 SHL SUB DUP6 AND DUP2 MSTORE PUSH1 0x1 PUSH1 0x20 DUP3 ADD MSTORE PUSH32 0x8534EE3F0FADE965FDF8D14F7405596EB2BFAB4AAC5C84F9F490F7E6820DD805 SWAP4 POP ADD SWAP1 POP JUMPDEST PUSH1 0x40 MLOAD DUP1 SWAP2 SUB SWAP1 LOG1 POP JUMP JUMPDEST CALLER PUSH1 0x0 SWAP1 DUP2 MSTORE PUSH1 0x0 DUP1 MLOAD PUSH1 0x20 PUSH2 0x214C DUP4 CODECOPY DUP2 MLOAD SWAP2 MSTORE PUSH1 0x20 MSTORE PUSH1 0x40 SWAP1 KECCAK256 SLOAD PUSH1 0xFF AND PUSH2 0xA02 JUMPI PUSH1 0x40 MLOAD PUSH3 0x461BCD PUSH1 0xE5 SHL DUP2 MSTORE PUSH1 0x20 PUSH1 0x4 DUP3 ADD MSTORE PUSH1 0xA PUSH1 0x24 DUP3 ADD MSTORE PUSH10 0x27AB262B189D10B3B7BB PUSH1 0xB1 SHL PUSH1 0x44 DUP3 ADD MSTORE PUSH1 0x64 ADD PUSH2 0x64D JUMP JUMPDEST PUSH1 0x1 PUSH1 0x1 PUSH1 0xA0 SHL SUB DUP2 AND PUSH1 0x0 SWAP1 DUP2 MSTORE PUSH1 0x9 PUSH1 0x20 MSTORE PUSH1 0x40 SWAP1 KECCAK256 SLOAD PUSH1 0xFF AND ISZERO PUSH2 0xA6B JUMPI PUSH1 0x40 MLOAD PUSH3 0x461BCD PUSH1 0xE5 SHL DUP2 MSTORE PUSH1 0x20 PUSH1 0x4 DUP3 ADD MSTORE PUSH1 0x18 PUSH1 0x24 DUP3 ADD MSTORE PUSH32 0x4F564C56313A20636F6C6C61746572616C206578697374730000000000000000 PUSH1 0x44 DUP3 ADD MSTORE PUSH1 0x64 ADD PUSH2 0x64D JUMP JUMPDEST PUSH1 0x1 PUSH1 0x1 PUSH1 0xA0 SHL SUB DUP2 DUP2 AND PUSH1 0x0 DUP2 DUP2 MSTORE PUSH1 0x9 PUSH1 0x20 SWAP1 DUP2 MSTORE PUSH1 0x40 DUP1 DUP4 KECCAK256 DUP1 SLOAD PUSH1 0x1 PUSH1 0xFF NOT SWAP2 DUP3 AND DUP2 OR SWAP1 SWAP3 SSTORE PUSH1 0xA DUP5 MSTORE DUP3 DUP6 KECCAK256 DUP1 SLOAD SWAP1 SWAP2 AND DUP3 OR SWAP1 SSTORE PUSH1 0xB DUP1 SLOAD SWAP2 DUP3 ADD DUP2 SSTORE SWAP1 SWAP4 MSTORE PUSH32 0x175B7A638427703F0DBE7BB9BBF987A2551717B34E79F33B5B1008D1FA01DB9 SWAP1 SWAP3 ADD DUP1 SLOAD PUSH1 0x1 PUSH1 0x1 PUSH1 0xA0 SHL SUB NOT AND SWAP1 SWAP4 OR SWAP1 SWAP3 SSTORE DUP1 MLOAD PUSH4 0xD5391393 PUSH1 0xE0 SHL DUP2 MSTORE SWAP1 MLOAD PUSH32 0x0 SWAP1 SWAP4 AND SWAP3 PUSH4 0x2F2FF15D SWAP3 DUP5 SWAP3 PUSH4 0xD5391393 SWAP3 PUSH1 0x4 DUP1 DUP4 ADD SWAP4 SWAP3 DUP3 SWAP1 SUB ADD DUP2 DUP7 DUP1 EXTCODESIZE ISZERO DUP1 ISZERO PUSH2 0x7AA JUMPI PUSH1 0x0 DUP1 REVERT JUMPDEST CALLER PUSH1 0x0 SWAP1 DUP2 MSTORE PUSH1 0x0 DUP1 MLOAD PUSH1 0x20 PUSH2 0x214C DUP4 CODECOPY DUP2 MLOAD SWAP2 MSTORE PUSH1 0x20 MSTORE PUSH1 0x40 SWAP1 KECCAK256 SLOAD PUSH1 0xFF AND PUSH2 0xB9D JUMPI PUSH1 0x40 MLOAD PUSH3 0x461BCD PUSH1 0xE5 SHL DUP2 MSTORE PUSH1 0x20 PUSH1 0x4 DUP3 ADD MSTORE PUSH1 0xA PUSH1 0x24 DUP3 ADD MSTORE PUSH10 0x27AB262B189D10B3B7BB PUSH1 0xB1 SHL PUSH1 0x44 DUP3 ADD MSTORE PUSH1 0x64 ADD PUSH2 0x64D JUMP JUMPDEST PUSH1 0x1 PUSH1 0x1 PUSH1 0xA0 SHL SUB DUP2 AND PUSH1 0x0 SWAP1 DUP2 MSTORE PUSH1 0x7 PUSH1 0x20 MSTORE PUSH1 0x40 SWAP1 KECCAK256 SLOAD PUSH1 0xFF AND ISZERO PUSH2 0xC06 JUMPI PUSH1 0x40 MLOAD PUSH3 0x461BCD PUSH1 0xE5 SHL DUP2 MSTORE PUSH1 0x20 PUSH1 0x4 DUP3 ADD MSTORE PUSH1 0x14 PUSH1 0x24 DUP3 ADD MSTORE PUSH32 0x4F564C56313A206D61726B657420657869737473000000000000000000000000 PUSH1 0x44 DUP3 ADD MSTORE PUSH1 0x64 ADD PUSH2 0x64D JUMP JUMPDEST PUSH1 0x1 PUSH1 0x1 PUSH1 0xA0 SHL SUB DUP2 AND PUSH1 0x0 DUP2 DUP2 MSTORE PUSH1 0x7 PUSH1 0x20 SWAP1 DUP2 MSTORE PUSH1 0x40 DUP1 DUP4 KECCAK256 DUP1 SLOAD PUSH1 0x1 PUSH1 0xFF NOT SWAP2 DUP3 AND DUP2 OR SWAP1 SWAP3 SSTORE PUSH1 0x6 DUP5 MSTORE DUP3 DUP6 KECCAK256 DUP1 SLOAD SWAP1 SWAP2 AND DUP3 OR SWAP1 SSTORE PUSH1 0x8 DUP1 SLOAD DUP1 DUP4 ADD DUP3 SSTORE SWAP5 MSTORE PUSH32 0xF3F7A9FE364FAAB93B216DA50A3214154F22A0A2B415B23A84C8169E8B636EE3 SWAP1 SWAP4 ADD DUP1 SLOAD PUSH1 0x1 PUSH1 0x1 PUSH1 0xA0 SHL SUB NOT AND DUP6 OR SWAP1 SSTORE DUP1 MLOAD SWAP4 DUP5 MSTORE SWAP1 DUP4 ADD SWAP2 SWAP1 SWAP2 MSTORE PUSH32 0xC3B4E2F8686DDEA884AD530CB4F7960E9BDBC24CF3C4B61C3BA380280E2AF552 SWAP2 ADD PUSH2 0x99E JUMP JUMPDEST PUSH2 0xCBD DUP3 DUP3 PUSH2 0x166B JUMP JUMPDEST PUSH1 0x0 DUP3 DUP2 MSTORE PUSH1 0x1 PUSH1 0x20 MSTORE PUSH1 0x40 SWAP1 KECCAK256 PUSH2 0xCD5 SWAP1 DUP3 PUSH2 0x1621 JUMP JUMPDEST POP POP POP JUMP JUMPDEST PUSH2 0xCE4 DUP3 DUP3 PUSH2 0x1691 JUMP JUMPDEST PUSH1 0x0 DUP3 DUP2 MSTORE PUSH1 0x1 PUSH1 0x20 MSTORE PUSH1 0x40 SWAP1 KECCAK256 PUSH2 0xCD5 SWAP1 DUP3 PUSH2 0x170B JUMP JUMPDEST CALLER PUSH1 0x0 SWAP1 DUP2 MSTORE PUSH1 0x0 DUP1 MLOAD PUSH1 0x20 PUSH2 0x214C DUP4 CODECOPY DUP2 MLOAD SWAP2 MSTORE PUSH1 0x20 MSTORE PUSH1 0x40 SWAP1 KECCAK256 SLOAD PUSH1 0xFF AND PUSH2 0xD55 JUMPI PUSH1 0x40 MLOAD PUSH3 0x461BCD PUSH1 0xE5 SHL DUP2 MSTORE PUSH1 0x20 PUSH1 0x4 DUP3 ADD MSTORE PUSH1 0xA PUSH1 0x24 DUP3 ADD MSTORE PUSH10 0x27AB262B189D10B3B7BB PUSH1 0xB1 SHL PUSH1 0x44 DUP3 ADD MSTORE PUSH1 0x64 ADD PUSH2 0x64D JUMP JUMPDEST PUSH2 0xD62 DUP4 PUSH2 0xFFFF AND PUSH2 0x1720 JUMP JUMPDEST PUSH2 0xD6F DUP3 PUSH2 0xFFFF AND PUSH2 0x17BE JUMP JUMPDEST PUSH2 0xCD5 DUP2 PUSH2 0x1856 JUMP JUMPDEST PUSH1 0x8 DUP2 DUP2 SLOAD DUP2 LT PUSH2 0xD88 JUMPI PUSH1 0x0 DUP1 REVERT JUMPDEST PUSH1 0x0 SWAP2 DUP3 MSTORE PUSH1 0x20 SWAP1 SWAP2 KECCAK256 ADD SLOAD PUSH1 0x1 PUSH1 0x1 PUSH1 0xA0 SHL SUB AND SWAP1 POP DUP2 JUMP JUMPDEST CALLER PUSH1 0x0 SWAP1 DUP2 MSTORE PUSH1 0x0 DUP1 MLOAD PUSH1 0x20 PUSH2 0x214C DUP4 CODECOPY DUP2 MLOAD SWAP2 MSTORE PUSH1 0x20 MSTORE PUSH1 0x40 SWAP1 KECCAK256 SLOAD PUSH1 0xFF AND PUSH2 0xDFB JUMPI PUSH1 0x40 MLOAD PUSH3 0x461BCD PUSH1 0xE5 SHL DUP2 MSTORE PUSH1 0x20 PUSH1 0x4 DUP3 ADD MSTORE PUSH1 0xA PUSH1 0x24 DUP3 ADD MSTORE PUSH10 0x27AB262B189D10B3B7BB PUSH1 0xB1 SHL PUSH1 0x44 DUP3 ADD MSTORE PUSH1 0x64 ADD PUSH2 0x64D JUMP JUMPDEST PUSH2 0xE04 DUP2 PUSH2 0x1720 JUMP JUMPDEST POP JUMP JUMPDEST CALLER PUSH1 0x0 SWAP1 DUP2 MSTORE PUSH1 0x0 DUP1 MLOAD PUSH1 0x20 PUSH2 0x214C DUP4 CODECOPY DUP2 MLOAD SWAP2 MSTORE PUSH1 0x20 MSTORE PUSH1 0x40 SWAP1 KECCAK256 SLOAD PUSH1 0xFF AND PUSH2 0xE60 JUMPI PUSH1 0x40 MLOAD PUSH3 0x461BCD PUSH1 0xE5 SHL DUP2 MSTORE PUSH1 0x20 PUSH1 0x4 DUP3 ADD MSTORE PUSH1 0xA PUSH1 0x24 DUP3 ADD MSTORE PUSH10 0x27AB262B189D10B3B7BB PUSH1 0xB1 SHL PUSH1 0x44 DUP3 ADD MSTORE PUSH1 0x64 ADD PUSH2 0x64D JUMP JUMPDEST PUSH2 0xE04 DUP2 PUSH2 0x17BE JUMP JUMPDEST CALLER PUSH1 0x0 SWAP1 DUP2 MSTORE PUSH1 0x0 DUP1 MLOAD PUSH1 0x20 PUSH2 0x214C DUP4 CODECOPY DUP2 MLOAD SWAP2 MSTORE PUSH1 0x20 MSTORE PUSH1 0x40 SWAP1 KECCAK256 SLOAD PUSH1 0xFF AND PUSH2 0xEC2 JUMPI PUSH1 0x40 MLOAD PUSH3 0x461BCD PUSH1 0xE5 SHL DUP2 MSTORE PUSH1 0x20 PUSH1 0x4 DUP3 ADD MSTORE PUSH1 0xA PUSH1 0x24 DUP3 ADD MSTORE PUSH10 0x27AB262B189D10B3B7BB PUSH1 0xB1 SHL PUSH1 0x44 DUP3 ADD MSTORE PUSH1 0x64 ADD PUSH2 0x64D JUMP JUMPDEST PUSH1 0x1 PUSH1 0x1 PUSH1 0xA0 SHL SUB DUP2 AND PUSH1 0x0 SWAP1 DUP2 MSTORE PUSH1 0x9 PUSH1 0x20 MSTORE PUSH1 0x40 SWAP1 KECCAK256 SLOAD PUSH1 0xFF AND PUSH2 0xF2A JUMPI PUSH1 0x40 MLOAD PUSH3 0x461BCD PUSH1 0xE5 SHL DUP2 MSTORE PUSH1 0x20 PUSH1 0x4 DUP3 ADD MSTORE PUSH1 0x19 PUSH1 0x24 DUP3 ADD MSTORE PUSH32 0x4F564C56313A20636F6C6C61746572616C202165786973747300000000000000 PUSH1 0x44 DUP3 ADD MSTORE PUSH1 0x64 ADD PUSH2 0x64D JUMP JUMPDEST PUSH1 0x1 PUSH1 0x1 PUSH1 0xA0 SHL SUB DUP2 AND PUSH1 0x0 SWAP1 DUP2 MSTORE PUSH1 0xA PUSH1 0x20 MSTORE PUSH1 0x40 SWAP1 KECCAK256 SLOAD PUSH1 0xFF AND PUSH2 0xF92 JUMPI PUSH1 0x40 MLOAD PUSH3 0x461BCD PUSH1 0xE5 SHL DUP2 MSTORE PUSH1 0x20 PUSH1 0x4 DUP3 ADD MSTORE PUSH1 0x1A PUSH1 0x24 DUP3 ADD MSTORE PUSH32 0x4F564C56313A20636F6C6C61746572616C2021656E61626C6564000000000000 PUSH1 0x44 DUP3 ADD MSTORE PUSH1 0x64 ADD PUSH2 0x64D JUMP JUMPDEST PUSH1 0x1 PUSH1 0x1 PUSH1 0xA0 SHL SUB DUP1 DUP3 AND PUSH1 0x0 SWAP1 DUP2 MSTORE PUSH1 0xA PUSH1 0x20 SWAP1 DUP2 MSTORE PUSH1 0x40 SWAP2 DUP3 SWAP1 KECCAK256 DUP1 SLOAD PUSH1 0xFF NOT AND SWAP1 SSTORE DUP2 MLOAD PUSH4 0xD5391393 PUSH1 0xE0 SHL DUP2 MSTORE SWAP2 MLOAD PUSH32 0x0 SWAP1 SWAP4 AND SWAP3 PUSH4 0xD547741F SWAP3 DUP5 SWAP3 PUSH4 0xD5391393 SWAP3 PUSH1 0x4 DUP1 DUP5 ADD SWAP4 DUP3 SWAP1 SUB ADD DUP2 DUP7 DUP1 EXTCODESIZE ISZERO DUP1 ISZERO PUSH2 0x1012 JUMPI PUSH1 0x0 DUP1 REVERT JUMPDEST POP GAS STATICCALL ISZERO DUP1 ISZERO PUSH2 0x1026 JUMPI RETURNDATASIZE PUSH1 0x0 DUP1 RETURNDATACOPY RETURNDATASIZE PUSH1 0x0 REVERT JUMPDEST POP POP POP POP PUSH1 0x40 MLOAD RETURNDATASIZE PUSH1 0x1F NOT PUSH1 0x1F DUP3 ADD AND DUP3 ADD DUP1 PUSH1 0x40 MSTORE POP DUP2 ADD SWAP1 PUSH2 0x104A SWAP2 SWAP1 PUSH2 0x1ED6 JUMP JUMPDEST PUSH1 0x40 MLOAD PUSH1 0x1 PUSH1 0x1 PUSH1 0xE0 SHL SUB NOT PUSH1 0xE0 DUP5 SWAP1 SHL AND DUP2 MSTORE PUSH1 0x4 DUP2 ADD SWAP2 SWAP1 SWAP2 MSTORE PUSH1 0x1 PUSH1 0x1 PUSH1 0xA0 SHL SUB DUP5 AND PUSH1 0x24 DUP3 ADD MSTORE PUSH1 0x44 ADD PUSH1 0x0 PUSH1 0x40 MLOAD DUP1 DUP4 SUB DUP2 PUSH1 0x0 DUP8 DUP1 EXTCODESIZE ISZERO DUP1 ISZERO PUSH2 0x1092 JUMPI PUSH1 0x0 DUP1 REVERT JUMPDEST POP GAS CALL ISZERO DUP1 ISZERO PUSH2 0x10A6 JUMPI RETURNDATASIZE PUSH1 0x0 DUP1 RETURNDATACOPY RETURNDATASIZE PUSH1 0x0 REVERT JUMPDEST POP POP POP POP PUSH32 0x0 PUSH1 0x1 PUSH1 0x1 PUSH1 0xA0 SHL SUB AND PUSH4 0xD547741F PUSH32 0x0 PUSH1 0x1 PUSH1 0x1 PUSH1 0xA0 SHL SUB AND PUSH4 0x282C51F3 PUSH1 0x40 MLOAD DUP2 PUSH4 0xFFFFFFFF AND PUSH1 0xE0 SHL DUP2 MSTORE PUSH1 0x4 ADD PUSH1 0x20 PUSH1 0x40 MLOAD DUP1 DUP4 SUB DUP2 DUP7 DUP1 EXTCODESIZE ISZERO DUP1 ISZERO PUSH2 0x1132 JUMPI PUSH1 0x0 DUP1 REVERT JUMPDEST POP GAS STATICCALL ISZERO DUP1 ISZERO PUSH2 0x1146 JUMPI RETURNDATASIZE PUSH1 0x0 DUP1 RETURNDATACOPY RETURNDATASIZE PUSH1 0x0 REVERT JUMPDEST POP POP POP POP PUSH1 0x40 MLOAD RETURNDATASIZE PUSH1 0x1F NOT PUSH1 0x1F DUP3 ADD AND DUP3 ADD DUP1 PUSH1 0x40 MSTORE POP DUP2 ADD SWAP1 PUSH2 0x116A SWAP2 SWAP1 PUSH2 0x1ED6 JUMP JUMPDEST PUSH1 0x40 MLOAD PUSH1 0x1 PUSH1 0x1 PUSH1 0xE0 SHL SUB NOT PUSH1 0xE0 DUP5 SWAP1 SHL AND DUP2 MSTORE PUSH1 0x4 DUP2 ADD SWAP2 SWAP1 SWAP2 MSTORE PUSH1 0x1 PUSH1 0x1 PUSH1 0xA0 SHL SUB DUP5 AND PUSH1 0x24 DUP3 ADD MSTORE PUSH1 0x44 ADD PUSH1 0x0 PUSH1 0x40 MLOAD DUP1 DUP4 SUB DUP2 PUSH1 0x0 DUP8 DUP1 EXTCODESIZE ISZERO DUP1 ISZERO PUSH2 0x11B2 JUMPI PUSH1 0x0 DUP1 REVERT JUMPDEST POP GAS CALL ISZERO DUP1 ISZERO PUSH2 0x11C6 JUMPI RETURNDATASIZE PUSH1 0x0 DUP1 RETURNDATACOPY RETURNDATASIZE PUSH1 0x0 REVERT JUMPDEST POP POP PUSH1 0x40 DUP1 MLOAD PUSH1 0x1 PUSH1 0x1 PUSH1 0xA0 SHL SUB DUP6 AND DUP2 MSTORE PUSH1 0x0 PUSH1 0x20 DUP3 ADD MSTORE PUSH32 0x8534EE3F0FADE965FDF8D14F7405596EB2BFAB4AAC5C84F9F490F7E6820DD805 SWAP4 POP ADD SWAP1 POP PUSH2 0x99E JUMP JUMPDEST CALLER PUSH1 0x0 SWAP1 DUP2 MSTORE PUSH1 0x0 DUP1 MLOAD PUSH1 0x20 PUSH2 0x214C DUP4 CODECOPY DUP2 MLOAD SWAP2 MSTORE PUSH1 0x20 MSTORE PUSH1 0x40 SWAP1 KECCAK256 SLOAD PUSH1 0xFF AND PUSH2 0x1263 JUMPI PUSH1 0x40 MLOAD PUSH3 0x461BCD PUSH1 0xE5 SHL DUP2 MSTORE PUSH1 0x20 PUSH1 0x4 DUP3 ADD MSTORE PUSH1 0xA PUSH1 0x24 DUP3 ADD MSTORE PUSH10 0x27AB262B189D10B3B7BB PUSH1 0xB1 SHL PUSH1 0x44 DUP3 ADD MSTORE PUSH1 0x64 ADD PUSH2 0x64D JUMP JUMPDEST PUSH1 0x1 PUSH1 0x1 PUSH1 0xA0 SHL SUB DUP2 AND PUSH1 0x0 SWAP1 DUP2 MSTORE PUSH1 0x7 PUSH1 0x20 MSTORE PUSH1 0x40 SWAP1 KECCAK256 SLOAD PUSH1 0xFF AND PUSH2 0x12C3 JUMPI PUSH1 0x40 MLOAD PUSH3 0x461BCD PUSH1 0xE5 SHL DUP2 MSTORE PUSH1 0x20 PUSH1 0x4 DUP3 ADD MSTORE PUSH1 0x15 PUSH1 0x24 DUP3 ADD MSTORE PUSH21 0x4F564C56313A206D61726B65742021657869737473 PUSH1 0x58 SHL PUSH1 0x44 DUP3 ADD MSTORE PUSH1 0x64 ADD PUSH2 0x64D JUMP JUMPDEST PUSH1 0x1 PUSH1 0x1 PUSH1 0xA0 SHL SUB DUP2 AND PUSH1 0x0 SWAP1 DUP2 MSTORE PUSH1 0x6 PUSH1 0x20 MSTORE PUSH1 0x40 SWAP1 KECCAK256 SLOAD PUSH1 0xFF AND ISZERO PUSH2 0x132C JUMPI PUSH1 0x40 MLOAD PUSH3 0x461BCD PUSH1 0xE5 SHL DUP2 MSTORE PUSH1 0x20 PUSH1 0x4 DUP3 ADD MSTORE PUSH1 0x17 PUSH1 0x24 DUP3 ADD MSTORE PUSH32 0x4F564C56313A206D61726B6574202164697361626C6564000000000000000000 PUSH1 0x44 DUP3 ADD MSTORE PUSH1 0x64 ADD PUSH2 0x64D JUMP JUMPDEST PUSH1 0x1 PUSH1 0x1 PUSH1 0xA0 SHL SUB DUP2 AND PUSH1 0x0 DUP2 DUP2 MSTORE PUSH1 0x6 PUSH1 0x20 SWAP1 DUP2 MSTORE PUSH1 0x40 SWAP2 DUP3 SWAP1 KECCAK256 DUP1 SLOAD PUSH1 0xFF NOT AND PUSH1 0x1 SWAP1 DUP2 OR SWAP1 SWAP2 SSTORE DUP3 MLOAD SWAP4 DUP5 MSTORE SWAP1 DUP4 ADD MSTORE PUSH32 0xC3B4E2F8686DDEA884AD530CB4F7960E9BDBC24CF3C4B61C3BA380280E2AF552 SWAP2 ADD PUSH2 0x99E JUMP JUMPDEST PUSH1 0x0 DUP3 DUP2 MSTORE PUSH1 0x1 PUSH1 0x20 MSTORE PUSH1 0x40 DUP2 KECCAK256 PUSH2 0x139F SWAP1 DUP4 PUSH2 0x18FA JUMP JUMPDEST SWAP4 SWAP3 POP POP POP JUMP JUMPDEST PUSH1 0xB DUP2 DUP2 SLOAD DUP2 LT PUSH2 0xD88 JUMPI PUSH1 0x0 DUP1 REVERT JUMPDEST PUSH1 0x0 DUP2 DUP2 MSTORE PUSH1 0x1 PUSH1 0x20 MSTORE PUSH1 0x40 DUP2 KECCAK256 PUSH2 0x5F2 SWAP1 PUSH2 0x1906 JUMP JUMPDEST PUSH2 0xCE4 DUP3 DUP3 PUSH2 0x1910 JUMP JUMPDEST CALLER PUSH1 0x0 SWAP1 DUP2 MSTORE PUSH1 0x0 DUP1 MLOAD PUSH1 0x20 PUSH2 0x214C DUP4 CODECOPY DUP2 MLOAD SWAP2 MSTORE PUSH1 0x20 MSTORE PUSH1 0x40 SWAP1 KECCAK256 SLOAD PUSH1 0xFF AND PUSH2 0x1430 JUMPI PUSH1 0x40 MLOAD PUSH3 0x461BCD PUSH1 0xE5 SHL DUP2 MSTORE PUSH1 0x20 PUSH1 0x4 DUP3 ADD MSTORE PUSH1 0xA PUSH1 0x24 DUP3 ADD MSTORE PUSH10 0x27AB262B189D10B3B7BB PUSH1 0xB1 SHL PUSH1 0x44 DUP3 ADD MSTORE PUSH1 0x64 ADD PUSH2 0x64D JUMP JUMPDEST PUSH2 0xE04 DUP2 PUSH2 0x1856 JUMP JUMPDEST CALLER PUSH1 0x0 SWAP1 DUP2 MSTORE PUSH1 0x0 DUP1 MLOAD PUSH1 0x20 PUSH2 0x214C DUP4 CODECOPY DUP2 MLOAD SWAP2 MSTORE PUSH1 0x20 MSTORE PUSH1 0x40 SWAP1 KECCAK256 SLOAD PUSH1 0xFF AND PUSH2 0x1492 JUMPI PUSH1 0x40 MLOAD PUSH3 0x461BCD PUSH1 0xE5 SHL DUP2 MSTORE PUSH1 0x20 PUSH1 0x4 DUP3 ADD MSTORE PUSH1 0xA PUSH1 0x24 DUP3 ADD MSTORE PUSH10 0x27AB262B189D10B3B7BB PUSH1 0xB1 SHL PUSH1 0x44 DUP3 ADD MSTORE PUSH1 0x64 ADD PUSH2 0x64D JUMP JUMPDEST PUSH1 0x1 PUSH1 0x1 PUSH1 0xA0 SHL SUB DUP2 AND PUSH1 0x0 SWAP1 DUP2 MSTORE PUSH1 0x7 PUSH1 0x20 MSTORE PUSH1 0x40 SWAP1 KECCAK256 SLOAD PUSH1 0xFF AND PUSH2 0x14F2 JUMPI PUSH1 0x40 MLOAD PUSH3 0x461BCD PUSH1 0xE5 SHL DUP2 MSTORE PUSH1 0x20 PUSH1 0x4 DUP3 ADD MSTORE PUSH1 0x15 PUSH1 0x24 DUP3 ADD MSTORE PUSH21 0x4F564C56313A206D61726B65742021657869737473 PUSH1 0x58 SHL PUSH1 0x44 DUP3 ADD MSTORE PUSH1 0x64 ADD PUSH2 0x64D JUMP JUMPDEST PUSH1 0x1 PUSH1 0x1 PUSH1 0xA0 SHL SUB DUP2 AND PUSH1 0x0 SWAP1 DUP2 MSTORE PUSH1 0x6 PUSH1 0x20 MSTORE PUSH1 0x40 SWAP1 KECCAK256 SLOAD PUSH1 0xFF AND PUSH2 0x155A JUMPI PUSH1 0x40 MLOAD PUSH3 0x461BCD PUSH1 0xE5 SHL DUP2 MSTORE PUSH1 0x20 PUSH1 0x4 DUP3 ADD MSTORE PUSH1 0x16 PUSH1 0x24 DUP3 ADD MSTORE PUSH32 0x4F564C56313A206D61726B65742021656E61626C656400000000000000000000 PUSH1 0x44 DUP3 ADD MSTORE PUSH1 0x64 ADD PUSH2 0x64D JUMP JUMPDEST PUSH1 0x1 PUSH1 0x1 PUSH1 0xA0 SHL SUB DUP2 AND PUSH1 0x0 DUP2 DUP2 MSTORE PUSH1 0x6 PUSH1 0x20 SWAP1 DUP2 MSTORE PUSH1 0x40 DUP1 DUP4 KECCAK256 DUP1 SLOAD PUSH1 0xFF NOT AND SWAP1 SSTORE DUP1 MLOAD SWAP4 DUP5 MSTORE SWAP1 DUP4 ADD SWAP2 SWAP1 SWAP2 MSTORE PUSH32 0xC3B4E2F8686DDEA884AD530CB4F7960E9BDBC24CF3C4B61C3BA380280E2AF552 SWAP2 ADD PUSH2 0x99E JUMP JUMPDEST CALLER PUSH1 0x0 SWAP1 DUP2 MSTORE PUSH1 0x0 DUP1 MLOAD PUSH1 0x20 PUSH2 0x214C DUP4 CODECOPY DUP2 MLOAD SWAP2 MSTORE PUSH1 0x20 MSTORE PUSH1 0x40 SWAP1 KECCAK256 SLOAD PUSH1 0xFF AND PUSH2 0x160A JUMPI PUSH1 0x40 MLOAD PUSH3 0x461BCD PUSH1 0xE5 SHL DUP2 MSTORE PUSH1 0x20 PUSH1 0x4 DUP3 ADD MSTORE PUSH1 0xA PUSH1 0x24 DUP3 ADD MSTORE PUSH10 0x27AB262B189D10B3B7BB PUSH1 0xB1 SHL PUSH1 0x44 DUP3 ADD MSTORE PUSH1 0x64 ADD PUSH2 0x64D JUMP JUMPDEST PUSH2 0xE04 DUP2 PUSH2 0x1936 JUMP JUMPDEST PUSH2 0x161D DUP3 DUP3 PUSH2 0x19D1 JUMP JUMPDEST POP POP JUMP JUMPDEST PUSH1 0x0 PUSH2 0x139F DUP4 PUSH1 0x1 PUSH1 0x1 PUSH1 0xA0 SHL SUB DUP5 AND PUSH2 0x1A6F JUMP JUMPDEST PUSH1 0x0 PUSH1 0x1 PUSH1 0x1 PUSH1 0xE0 SHL SUB NOT DUP3 AND PUSH4 0x7965DB0B PUSH1 0xE0 SHL EQ DUP1 PUSH2 0x5F2 JUMPI POP PUSH4 0x1FFC9A7 PUSH1 0xE0 SHL PUSH1 0x1 PUSH1 0x1 PUSH1 0xE0 SHL SUB NOT DUP4 AND EQ PUSH2 0x5F2 JUMP JUMPDEST PUSH1 0x0 DUP3 DUP2 MSTORE PUSH1 0x20 DUP2 SWAP1 MSTORE PUSH1 0x40 SWAP1 KECCAK256 PUSH1 0x1 ADD SLOAD PUSH2 0x1687 DUP2 CALLER PUSH2 0x1ABE JUMP JUMPDEST PUSH2 0xCD5 DUP4 DUP4 PUSH2 0x19D1 JUMP JUMPDEST PUSH1 0x1 PUSH1 0x1 PUSH1 0xA0 SHL SUB DUP2 AND CALLER EQ PUSH2 0x1701 JUMPI PUSH1 0x40 MLOAD PUSH3 0x461BCD PUSH1 0xE5 SHL DUP2 MSTORE PUSH1 0x20 PUSH1 0x4 DUP3 ADD MSTORE PUSH1 0x2F PUSH1 0x24 DUP3 ADD MSTORE PUSH32 0x416363657373436F6E74726F6C3A2063616E206F6E6C792072656E6F756E6365 PUSH1 0x44 DUP3 ADD MSTORE PUSH15 0x103937B632B9903337B91039B2B633 PUSH1 0x89 SHL PUSH1 0x64 DUP3 ADD MSTORE PUSH1 0x84 ADD PUSH2 0x64D JUMP JUMPDEST PUSH2 0x161D DUP3 DUP3 PUSH2 0x1B3C JUMP JUMPDEST PUSH1 0x0 PUSH2 0x139F DUP4 PUSH1 0x1 PUSH1 0x1 PUSH1 0xA0 SHL SUB DUP5 AND PUSH2 0x1BBB JUMP JUMPDEST PUSH6 0x5AF3107A4000 DUP2 LT ISZERO DUP1 ISZERO PUSH2 0x173D JUMPI POP PUSH7 0x2386F26FC10000 DUP2 GT ISZERO JUMPDEST PUSH2 0x1789 JUMPI PUSH1 0x40 MLOAD PUSH3 0x461BCD PUSH1 0xE5 SHL DUP2 MSTORE PUSH1 0x20 PUSH1 0x4 DUP3 ADD MSTORE PUSH1 0x1D PUSH1 0x24 DUP3 ADD MSTORE PUSH32 0x4F564C56313A206665652072617465206F7574206F6620626F756E6473000000 PUSH1 0x44 DUP3 ADD MSTORE PUSH1 0x64 ADD PUSH2 0x64D JUMP JUMPDEST PUSH1 0x3 DUP2 SWAP1 SSTORE PUSH1 0x40 MLOAD DUP2 DUP2 MSTORE PUSH32 0x38E229A7F3F9C329892D08EB37C4E91CCAC6D12C798D394990CA4F56028EC266 SWAP1 PUSH1 0x20 ADD PUSH2 0x99E JUMP JUMPDEST PUSH8 0xDE0B6B3A7640000 DUP2 GT ISZERO PUSH2 0x1821 JUMPI PUSH1 0x40 MLOAD PUSH3 0x461BCD PUSH1 0xE5 SHL DUP2 MSTORE PUSH1 0x20 PUSH1 0x4 DUP3 ADD MSTORE PUSH1 0x22 PUSH1 0x24 DUP3 ADD MSTORE PUSH32 0x4F564C56313A20666565206275726E2072617465206F7574206F6620626F756E PUSH1 0x44 DUP3 ADD MSTORE PUSH2 0x6473 PUSH1 0xF0 SHL PUSH1 0x64 DUP3 ADD MSTORE PUSH1 0x84 ADD PUSH2 0x64D JUMP JUMPDEST PUSH1 0x4 DUP2 SWAP1 SSTORE PUSH1 0x40 MLOAD DUP2 DUP2 MSTORE PUSH32 0x7CB8903EDF613646A5C21D15F5A3095223ECA6A894FB27CF4BC191A8B5CC5D6A SWAP1 PUSH1 0x20 ADD PUSH2 0x99E JUMP JUMPDEST PUSH1 0x1 PUSH1 0x1 PUSH1 0xA0 SHL SUB DUP2 AND PUSH2 0x18AC JUMPI PUSH1 0x40 MLOAD PUSH3 0x461BCD PUSH1 0xE5 SHL DUP2 MSTORE PUSH1 0x20 PUSH1 0x4 DUP3 ADD MSTORE PUSH1 0x1F PUSH1 0x24 DUP3 ADD MSTORE PUSH32 0x4F564C56313A206665657320746F20746865207A65726F206164647265737300 PUSH1 0x44 DUP3 ADD MSTORE PUSH1 0x64 ADD PUSH2 0x64D JUMP JUMPDEST PUSH1 0x2 DUP1 SLOAD PUSH1 0x1 PUSH1 0x1 PUSH1 0xA0 SHL SUB NOT AND PUSH1 0x1 PUSH1 0x1 PUSH1 0xA0 SHL SUB DUP4 AND SWAP1 DUP2 OR SWAP1 SWAP2 SSTORE PUSH1 0x40 MLOAD SWAP1 DUP2 MSTORE PUSH32 0xCB2EFB9AC9D76FD38EE396F04826FAB474B9D684A0131ED439D676632AD605F9 SWAP1 PUSH1 0x20 ADD PUSH2 0x99E JUMP JUMPDEST PUSH1 0x0 PUSH2 0x139F DUP4 DUP4 PUSH2 0x1CAE JUMP JUMPDEST PUSH1 0x0 PUSH2 0x5F2 DUP3 SLOAD SWAP1 JUMP JUMPDEST PUSH1 0x0 DUP3 DUP2 MSTORE PUSH1 0x20 DUP2 SWAP1 MSTORE PUSH1 0x40 SWAP1 KECCAK256 PUSH1 0x1 ADD SLOAD PUSH2 0x192C DUP2 CALLER PUSH2 0x1ABE JUMP JUMPDEST PUSH2 0xCD5 DUP4 DUP4 PUSH2 0x1B3C JUMP JUMPDEST PUSH8 0xDE0B6B3A7640000 DUP2 GT ISZERO PUSH2 0x199C JUMPI PUSH1 0x40 MLOAD PUSH3 0x461BCD PUSH1 0xE5 SHL DUP2 MSTORE PUSH1 0x20 PUSH1 0x4 DUP3 ADD MSTORE PUSH1 0x25 PUSH1 0x24 DUP3 ADD MSTORE PUSH32 0x4F564C56313A206D617267696E206275726E2072617465206F7574206F662062 PUSH1 0x44 DUP3 ADD MSTORE PUSH5 0x6F756E6473 PUSH1 0xD8 SHL PUSH1 0x64 DUP3 ADD MSTORE PUSH1 0x84 ADD PUSH2 0x64D JUMP JUMPDEST PUSH1 0x5 DUP2 SWAP1 SSTORE PUSH1 0x40 MLOAD DUP2 DUP2 MSTORE PUSH32 0x8195DA279B9B52FC2C461FB2C7F75F10C7CE8ECE7A8BBB62877E1C5F22E56735 SWAP1 PUSH1 0x20 ADD PUSH2 0x99E JUMP JUMPDEST PUSH1 0x0 DUP3 DUP2 MSTORE PUSH1 0x20 DUP2 DUP2 MSTORE PUSH1 0x40 DUP1 DUP4 KECCAK256 PUSH1 0x1 PUSH1 0x1 PUSH1 0xA0 SHL SUB DUP6 AND DUP5 MSTORE SWAP1 SWAP2 MSTORE SWAP1 KECCAK256 SLOAD PUSH1 0xFF AND PUSH2 0x161D JUMPI PUSH1 0x0 DUP3 DUP2 MSTORE PUSH1 0x20 DUP2 DUP2 MSTORE PUSH1 0x40 DUP1 DUP4 KECCAK256 PUSH1 0x1 PUSH1 0x1 PUSH1 0xA0 SHL SUB DUP6 AND DUP5 MSTORE SWAP1 SWAP2 MSTORE SWAP1 KECCAK256 DUP1 SLOAD PUSH1 0xFF NOT AND PUSH1 0x1 OR SWAP1 SSTORE PUSH2 0x1A2B CALLER SWAP1 JUMP JUMPDEST PUSH1 0x1 PUSH1 0x1 PUSH1 0xA0 SHL SUB AND DUP2 PUSH1 0x1 PUSH1 0x1 PUSH1 0xA0 SHL SUB AND DUP4 PUSH32 0x2F8788117E7EFF1D82E926EC794901D17C78024A50270940304540A733656F0D PUSH1 0x40 MLOAD PUSH1 0x40 MLOAD DUP1 SWAP2 SUB SWAP1 LOG4 POP POP JUMP JUMPDEST PUSH1 0x0 DUP2 DUP2 MSTORE PUSH1 0x1 DUP4 ADD PUSH1 0x20 MSTORE PUSH1 0x40 DUP2 KECCAK256 SLOAD PUSH2 0x1AB6 JUMPI POP DUP2 SLOAD PUSH1 0x1 DUP2 DUP2 ADD DUP5 SSTORE PUSH1 0x0 DUP5 DUP2 MSTORE PUSH1 0x20 DUP1 DUP3 KECCAK256 SWAP1 SWAP4 ADD DUP5 SWAP1 SSTORE DUP5 SLOAD DUP5 DUP3 MSTORE DUP3 DUP7 ADD SWAP1 SWAP4 MSTORE PUSH1 0x40 SWAP1 KECCAK256 SWAP2 SWAP1 SWAP2 SSTORE PUSH2 0x5F2 JUMP JUMPDEST POP PUSH1 0x0 PUSH2 0x5F2 JUMP JUMPDEST PUSH1 0x0 DUP3 DUP2 MSTORE PUSH1 0x20 DUP2 DUP2 MSTORE PUSH1 0x40 DUP1 DUP4 KECCAK256 PUSH1 0x1 PUSH1 0x1 PUSH1 0xA0 SHL SUB DUP6 AND DUP5 MSTORE SWAP1 SWAP2 MSTORE SWAP1 KECCAK256 SLOAD PUSH1 0xFF AND PUSH2 0x161D JUMPI PUSH2 0x1AFA DUP2 PUSH1 0x1 PUSH1 0x1 PUSH1 0xA0 SHL SUB AND PUSH1 0x14 PUSH2 0x1CD8 JUMP JUMPDEST PUSH2 0x1B05 DUP4 PUSH1 0x20 PUSH2 0x1CD8 JUMP JUMPDEST PUSH1 0x40 MLOAD PUSH1 0x20 ADD PUSH2 0x1B16 SWAP3 SWAP2 SWAP1 PUSH2 0x1FAA JUMP JUMPDEST PUSH1 0x40 DUP1 MLOAD PUSH1 0x1F NOT DUP2 DUP5 SUB ADD DUP2 MSTORE SWAP1 DUP3 SWAP1 MSTORE PUSH3 0x461BCD PUSH1 0xE5 SHL DUP3 MSTORE PUSH2 0x64D SWAP2 PUSH1 0x4 ADD PUSH2 0x202B JUMP JUMPDEST PUSH1 0x0 DUP3 DUP2 MSTORE PUSH1 0x20 DUP2 DUP2 MSTORE PUSH1 0x40 DUP1 DUP4 KECCAK256 PUSH1 0x1 PUSH1 0x1 PUSH1 0xA0 SHL SUB DUP6 AND DUP5 MSTORE SWAP1 SWAP2 MSTORE SWAP1 KECCAK256 SLOAD PUSH1 0xFF AND ISZERO PUSH2 0x161D JUMPI PUSH1 0x0 DUP3 DUP2 MSTORE PUSH1 0x20 DUP2 DUP2 MSTORE PUSH1 0x40 DUP1 DUP4 KECCAK256 PUSH1 0x1 PUSH1 0x1 PUSH1 0xA0 SHL SUB DUP6 AND DUP1 DUP6 MSTORE SWAP3 MSTORE DUP1 DUP4 KECCAK256 DUP1 SLOAD PUSH1 0xFF NOT AND SWAP1 SSTORE MLOAD CALLER SWAP3 DUP6 SWAP2 PUSH32 0xF6391F5C32D9C69D2A47EA670B442974B53935D1EDC7FD64EB21E047A839171B SWAP2 SWAP1 LOG4 POP POP JUMP JUMPDEST PUSH1 0x0 DUP2 DUP2 MSTORE PUSH1 0x1 DUP4 ADD PUSH1 0x20 MSTORE PUSH1 0x40 DUP2 KECCAK256 SLOAD DUP1 ISZERO PUSH2 0x1CA4 JUMPI PUSH1 0x0 PUSH2 0x1BDF PUSH1 0x1 DUP4 PUSH2 0x2095 JUMP JUMPDEST DUP6 SLOAD SWAP1 SWAP2 POP PUSH1 0x0 SWAP1 PUSH2 0x1BF3 SWAP1 PUSH1 0x1 SWAP1 PUSH2 0x2095 JUMP JUMPDEST SWAP1 POP DUP2 DUP2 EQ PUSH2 0x1C58 JUMPI PUSH1 0x0 DUP7 PUSH1 0x0 ADD DUP3 DUP2 SLOAD DUP2 LT PUSH2 0x1C13 JUMPI PUSH2 0x1C13 PUSH2 0x211F JUMP JUMPDEST SWAP1 PUSH1 0x0 MSTORE PUSH1 0x20 PUSH1 0x0 KECCAK256 ADD SLOAD SWAP1 POP DUP1 DUP8 PUSH1 0x0 ADD DUP5 DUP2 SLOAD DUP2 LT PUSH2 0x1C36 JUMPI PUSH2 0x1C36 PUSH2 0x211F JUMP JUMPDEST PUSH1 0x0 SWAP2 DUP3 MSTORE PUSH1 0x20 DUP1 DUP4 KECCAK256 SWAP1 SWAP2 ADD SWAP3 SWAP1 SWAP3 SSTORE SWAP2 DUP3 MSTORE PUSH1 0x1 DUP9 ADD SWAP1 MSTORE PUSH1 0x40 SWAP1 KECCAK256 DUP4 SWAP1 SSTORE JUMPDEST DUP6 SLOAD DUP7 SWAP1 DUP1 PUSH2 0x1C69 JUMPI PUSH2 0x1C69 PUSH2 0x2109 JUMP JUMPDEST PUSH1 0x1 SWAP1 SUB DUP2 DUP2 SWAP1 PUSH1 0x0 MSTORE PUSH1 0x20 PUSH1 0x0 KECCAK256 ADD PUSH1 0x0 SWAP1 SSTORE SWAP1 SSTORE DUP6 PUSH1 0x1 ADD PUSH1 0x0 DUP7 DUP2 MSTORE PUSH1 0x20 ADD SWAP1 DUP2 MSTORE PUSH1 0x20 ADD PUSH1 0x0 KECCAK256 PUSH1 0x0 SWAP1 SSTORE PUSH1 0x1 SWAP4 POP POP POP POP PUSH2 0x5F2 JUMP JUMPDEST PUSH1 0x0 SWAP2 POP POP PUSH2 0x5F2 JUMP JUMPDEST PUSH1 0x0 DUP3 PUSH1 0x0 ADD DUP3 DUP2 SLOAD DUP2 LT PUSH2 0x1CC5 JUMPI PUSH2 0x1CC5 PUSH2 0x211F JUMP JUMPDEST SWAP1 PUSH1 0x0 MSTORE PUSH1 0x20 PUSH1 0x0 KECCAK256 ADD SLOAD SWAP1 POP SWAP3 SWAP2 POP POP JUMP JUMPDEST PUSH1 0x60 PUSH1 0x0 PUSH2 0x1CE7 DUP4 PUSH1 0x2 PUSH2 0x2076 JUMP JUMPDEST PUSH2 0x1CF2 SWAP1 PUSH1 0x2 PUSH2 0x205E JUMP JUMPDEST PUSH8 0xFFFFFFFFFFFFFFFF DUP2 GT ISZERO PUSH2 0x1D0A JUMPI PUSH2 0x1D0A PUSH2 0x2135 JUMP JUMPDEST PUSH1 0x40 MLOAD SWAP1 DUP1 DUP3 MSTORE DUP1 PUSH1 0x1F ADD PUSH1 0x1F NOT AND PUSH1 0x20 ADD DUP3 ADD PUSH1 0x40 MSTORE DUP1 ISZERO PUSH2 0x1D34 JUMPI PUSH1 0x20 DUP3 ADD DUP2 DUP1 CALLDATASIZE DUP4 CALLDATACOPY ADD SWAP1 POP JUMPDEST POP SWAP1 POP PUSH1 0x3 PUSH1 0xFC SHL DUP2 PUSH1 0x0 DUP2 MLOAD DUP2 LT PUSH2 0x1D4F JUMPI PUSH2 0x1D4F PUSH2 0x211F JUMP JUMPDEST PUSH1 0x20 ADD ADD SWAP1 PUSH1 0x1 PUSH1 0x1 PUSH1 0xF8 SHL SUB NOT AND SWAP1 DUP2 PUSH1 0x0 BYTE SWAP1 MSTORE8 POP PUSH1 0xF PUSH1 0xFB SHL DUP2 PUSH1 0x1 DUP2 MLOAD DUP2 LT PUSH2 0x1D7E JUMPI PUSH2 0x1D7E PUSH2 0x211F JUMP JUMPDEST PUSH1 0x20 ADD ADD SWAP1 PUSH1 0x1 PUSH1 0x1 PUSH1 0xF8 SHL SUB NOT AND SWAP1 DUP2 PUSH1 0x0 BYTE SWAP1 MSTORE8 POP PUSH1 0x0 PUSH2 0x1DA2 DUP5 PUSH1 0x2 PUSH2 0x2076 JUMP JUMPDEST PUSH2 0x1DAD SWAP1 PUSH1 0x1 PUSH2 0x205E JUMP JUMPDEST SWAP1 POP JUMPDEST PUSH1 0x1 DUP2 GT ISZERO PUSH2 0x1E25 JUMPI PUSH16 0x181899199A1A9B1B9C1CB0B131B232B3 PUSH1 0x81 SHL DUP6 PUSH1 0xF AND PUSH1 0x10 DUP2 LT PUSH2 0x1DE1 JUMPI PUSH2 0x1DE1 PUSH2 0x211F JUMP JUMPDEST BYTE PUSH1 0xF8 SHL DUP3 DUP3 DUP2 MLOAD DUP2 LT PUSH2 0x1DF7 JUMPI PUSH2 0x1DF7 PUSH2 0x211F JUMP JUMPDEST PUSH1 0x20 ADD ADD SWAP1 PUSH1 0x1 PUSH1 0x1 PUSH1 0xF8 SHL SUB NOT AND SWAP1 DUP2 PUSH1 0x0 BYTE SWAP1 MSTORE8 POP PUSH1 0x4 SWAP5 SWAP1 SWAP5 SHR SWAP4 PUSH2 0x1E1E DUP2 PUSH2 0x20DC JUMP JUMPDEST SWAP1 POP PUSH2 0x1DB0 JUMP JUMPDEST POP DUP4 ISZERO PUSH2 0x139F JUMPI PUSH1 0x40 MLOAD PUSH3 0x461BCD PUSH1 0xE5 SHL DUP2 MSTORE PUSH1 0x20 PUSH1 0x4 DUP3 ADD DUP2 SWAP1 MSTORE PUSH1 0x24 DUP3 ADD MSTORE PUSH32 0x537472696E67733A20686578206C656E67746820696E73756666696369656E74 PUSH1 0x44 DUP3 ADD MSTORE PUSH1 0x64 ADD PUSH2 0x64D JUMP JUMPDEST DUP1 CALLDATALOAD PUSH1 0x1 PUSH1 0x1 PUSH1 0xA0 SHL SUB DUP2 AND DUP2 EQ PUSH2 0x1E8B JUMPI PUSH1 0x0 DUP1 REVERT JUMPDEST SWAP2 SWAP1 POP JUMP JUMPDEST DUP1 CALLDATALOAD PUSH2 0xFFFF DUP2 AND DUP2 EQ PUSH2 0x1E8B JUMPI PUSH1 0x0 DUP1 REVERT JUMPDEST PUSH1 0x0 PUSH1 0x20 DUP3 DUP5 SUB SLT ISZERO PUSH2 0x1EB4 JUMPI PUSH1 0x0 DUP1 REVERT JUMPDEST PUSH2 0x139F DUP3 PUSH2 0x1E74 JUMP JUMPDEST PUSH1 0x0 PUSH1 0x20 DUP3 DUP5 SUB SLT ISZERO PUSH2 0x1ECF JUMPI PUSH1 0x0 DUP1 REVERT JUMPDEST POP CALLDATALOAD SWAP2 SWAP1 POP JUMP JUMPDEST PUSH1 0x0 PUSH1 0x20 DUP3 DUP5 SUB SLT ISZERO PUSH2 0x1EE8 JUMPI PUSH1 0x0 DUP1 REVERT JUMPDEST POP MLOAD SWAP2 SWAP1 POP JUMP JUMPDEST PUSH1 0x0 DUP1 PUSH1 0x40 DUP4 DUP6 SUB SLT ISZERO PUSH2 0x1F02 JUMPI PUSH1 0x0 DUP1 REVERT JUMPDEST DUP3 CALLDATALOAD SWAP2 POP PUSH2 0x1F12 PUSH1 0x20 DUP5 ADD PUSH2 0x1E74 JUMP JUMPDEST SWAP1 POP SWAP3 POP SWAP3 SWAP1 POP JUMP JUMPDEST PUSH1 0x0 DUP1 PUSH1 0x40 DUP4 DUP6 SUB SLT ISZERO PUSH2 0x1F2E JUMPI PUSH1 0x0 DUP1 REVERT JUMPDEST POP POP DUP1 CALLDATALOAD SWAP3 PUSH1 0x20 SWAP1 SWAP2 ADD CALLDATALOAD SWAP2 POP JUMP JUMPDEST PUSH1 0x0 PUSH1 0x20 DUP3 DUP5 SUB SLT ISZERO PUSH2 0x1F4F JUMPI PUSH1 0x0 DUP1 REVERT JUMPDEST DUP2 CALLDATALOAD PUSH1 0x1 PUSH1 0x1 PUSH1 0xE0 SHL SUB NOT DUP2 AND DUP2 EQ PUSH2 0x139F JUMPI PUSH1 0x0 DUP1 REVERT JUMPDEST PUSH1 0x0 DUP1 PUSH1 0x0 PUSH1 0x60 DUP5 DUP7 SUB SLT ISZERO PUSH2 0x1F7C JUMPI PUSH1 0x0 DUP1 REVERT JUMPDEST PUSH2 0x1F85 DUP5 PUSH2 0x1E90 JUMP JUMPDEST SWAP3 POP PUSH2 0x1F93 PUSH1 0x20 DUP6 ADD PUSH2 0x1E90 JUMP JUMPDEST SWAP2 POP PUSH2 0x1FA1 PUSH1 0x40 DUP6 ADD PUSH2 0x1E74 JUMP JUMPDEST SWAP1 POP SWAP3 POP SWAP3 POP SWAP3 JUMP JUMPDEST PUSH32 0x416363657373436F6E74726F6C3A206163636F756E7420000000000000000000 DUP2 MSTORE PUSH1 0x0 DUP4 MLOAD PUSH2 0x1FE2 DUP2 PUSH1 0x17 DUP6 ADD PUSH1 0x20 DUP9 ADD PUSH2 0x20AC JUMP JUMPDEST PUSH32 0x206973206D697373696E6720726F6C6520000000000000000000000000000000 PUSH1 0x17 SWAP2 DUP5 ADD SWAP2 DUP3 ADD MSTORE DUP4 MLOAD PUSH2 0x201F DUP2 PUSH1 0x28 DUP5 ADD PUSH1 0x20 DUP9 ADD PUSH2 0x20AC JUMP JUMPDEST ADD PUSH1 0x28 ADD SWAP5 SWAP4 POP POP POP POP JUMP JUMPDEST PUSH1 0x20 DUP2 MSTORE PUSH1 0x0 DUP3 MLOAD DUP1 PUSH1 0x20 DUP5 ADD MSTORE PUSH2 0x204A DUP2 PUSH1 0x40 DUP6 ADD PUSH1 0x20 DUP8 ADD PUSH2 0x20AC JUMP JUMPDEST PUSH1 0x1F ADD PUSH1 0x1F NOT AND SWAP2 SWAP1 SWAP2 ADD PUSH1 0x40 ADD SWAP3 SWAP2 POP POP JUMP JUMPDEST PUSH1 0x0 DUP3 NOT DUP3 GT ISZERO PUSH2 0x2071 JUMPI PUSH2 0x2071 PUSH2 0x20F3 JUMP JUMPDEST POP ADD SWAP1 JUMP JUMPDEST PUSH1 0x0 DUP2 PUSH1 0x0 NOT DIV DUP4 GT DUP3 ISZERO ISZERO AND ISZERO PUSH2 0x2090 JUMPI PUSH2 0x2090 PUSH2 0x20F3 JUMP JUMPDEST POP MUL SWAP1 JUMP JUMPDEST PUSH1 0x0 DUP3 DUP3 LT ISZERO PUSH2 0x20A7 JUMPI PUSH2 0x20A7 PUSH2 0x20F3 JUMP JUMPDEST POP SUB SWAP1 JUMP JUMPDEST PUSH1 0x0 JUMPDEST DUP4 DUP2 LT ISZERO PUSH2 0x20C7 JUMPI DUP2 DUP2 ADD MLOAD DUP4 DUP3 ADD MSTORE PUSH1 0x20 ADD PUSH2 0x20AF JUMP JUMPDEST DUP4 DUP2 GT ISZERO PUSH2 0x20D6 JUMPI PUSH1 0x0 DUP5 DUP5 ADD MSTORE JUMPDEST POP POP POP POP JUMP JUMPDEST PUSH1 0x0 DUP2 PUSH2 0x20EB JUMPI PUSH2 0x20EB PUSH2 0x20F3 JUMP JUMPDEST POP PUSH1 0x0 NOT ADD SWAP1 JUMP JUMPDEST PUSH4 0x4E487B71 PUSH1 0xE0 SHL PUSH1 0x0 MSTORE PUSH1 0x11 PUSH1 0x4 MSTORE PUSH1 0x24 PUSH1 0x0 REVERT JUMPDEST PUSH4 0x4E487B71 PUSH1 0xE0 SHL PUSH1 0x0 MSTORE PUSH1 0x31 PUSH1 0x4 MSTORE PUSH1 0x24 PUSH1 0x0 REVERT JUMPDEST PUSH4 0x4E487B71 PUSH1 0xE0 SHL PUSH1 0x0 MSTORE PUSH1 0x32 PUSH1 0x4 MSTORE PUSH1 0x24 PUSH1 0x0 REVERT JUMPDEST PUSH4 0x4E487B71 PUSH1 0xE0 SHL PUSH1 0x0 MSTORE PUSH1 0x41 PUSH1 0x4 MSTORE PUSH1 0x24 PUSH1 0x0 REVERT INVALID PUSH4 0x3A52D7CD PUSH14 0x71CD4A4FF569DAEB3CB23F4FF6AC DELEGATECALL LOG4 0xC3 0xAB 0xAF 0xEE SWAP15 CALLCODE OR DUP16 PUSH24 0x88A26469706673582212206BC8F7DAB4E701E8D578C3D7A1 0x2A 0xFB SSTORE DUP7 CALLER 0xC0 0x2A 0xCD 0x4B 0xBF 0xF 0xE1 0xD4 PUSH23 0xCB0581D0C664736F6C6343000807003300000000000000 ",
  "sha1": "42486c86d8bfc8fb7b778e605a4772716398d589",
  "source": "// SPDX-License-Identifier: MIT\npragma solidity ^0.8.7;\n\nimport \"@openzeppelin/contracts/access/AccessControlEnumerable.sol\";\nimport \"../interfaces/IOverlayV1Market.sol\";\nimport \"../OverlayToken.sol\";\n\ncontract OverlayV1Mothership is AccessControlEnumerable {\n\n    uint public constant MIN_FEE = 1e14; // 0.01%\n    uint public constant MAX_FEE = 1e16; // 1.00%\n\n    uint public constant MAX_FEE_BURN = 1e18; // 100%\n    uint public constant MAX_MARGIN_BURN = 1e18; // 100%\n\n    bytes32 public constant ADMIN = 0x00;\n    bytes32 public constant GOVERNOR = keccak256(\"GOVERNOR\");\n\n    // ovl erc20 token\n    address public immutable ovl;\n\n    // global params adjustable by gov\n    // address to send fees to\n    address public feeTo;\n    // build/unwind trading fee\n    uint public fee;\n    // portion of build/unwind fee burnt\n    uint public feeBurnRate;\n    // portion of liquidations to burn on update\n    uint public marginBurnRate;\n\n    mapping(address => bool) public marketActive;\n    mapping(address => bool) public marketExists;\n    address[] public allMarkets;\n\n    mapping(address => bool) public collateralExists;\n    mapping(address => bool) public collateralActive;\n    address[] public allCollaterals;\n\n    event UpdateCollateral(address collateral, bool active);\n    event UpdateMarket(address market, bool active);\n\n    event UpdateFeeTo(address feeTo);\n    event UpdateFee(uint fee);\n    event UpdateFeeBurnRate(uint feeBurnRate);\n    event UpdateMarginBurnRate(uint marginBurnRate);\n\n    modifier onlyGovernor () {\n        require(hasRole(GOVERNOR, msg.sender), \"OVLV1:!gov\");\n        _;\n    }\n\n    constructor(\n        address _ovl,\n        address _feeTo,\n        uint _fee,\n        uint _feeBurnRate,\n        uint _marginBurnRate\n    ) {\n\n        _setupRole(ADMIN, msg.sender);\n        _setupRole(GOVERNOR, msg.sender);\n        _setRoleAdmin(GOVERNOR, ADMIN);\n\n        // immutable params\n        ovl = _ovl;\n\n        // global params\n        _setFeeTo(_feeTo);\n        _setFee(_fee);\n        _setFeeBurnRate(_feeBurnRate);\n        _setMarginBurnRate(_marginBurnRate);\n    }\n\n    function totalMarkets () external view returns (uint) {\n        return allMarkets.length;\n    }\n\n    function totalCollaterals () external view returns (uint) {\n        return allCollaterals.length;\n    }\n\n    /**\n      @notice Make this contract aware of a new market contract's existence\n      @dev Should be called after contract deployment in specific market factory.createMarket\n      @dev Only the Governor can initialize a market\n      @dev Appends new market address to `allMarkets` array to track them\n      @param _market Overlay market contract address\n      */\n    function initializeMarket(address _market) external onlyGovernor {\n        require(!marketExists[_market], \"OVLV1: market exists\");\n\n        marketExists[_market] = true;\n        marketActive[_market] = true;\n        allMarkets.push(_market);\n\n        emit UpdateMarket(_market, true);\n    }\n\n    function disableMarket(address _market) external onlyGovernor {\n        require(marketExists[_market], \"OVLV1: market !exists\");\n        require(marketActive[_market], \"OVLV1: market !enabled\");\n\n        marketActive[_market] = false;\n\n        emit UpdateMarket(_market, false);\n    }\n\n    function enableMarket(address _market) external onlyGovernor {\n        require(marketExists[_market], \"OVLV1: market !exists\");\n        require(!marketActive[_market], \"OVLV1: market !disabled\");\n\n        marketActive[_market] = true;\n\n        emit UpdateMarket(_market, true);\n    }\n\n    /**\n      @notice Make this contract aware of a new collateral contract's existence\n      @dev Adds collateral contract address to the `collateralExists` and `collateralActive` mappings\n      @dev Only the Governor can set market info\n      @param _collateral Overlay OVL collateral contract address\n      */\n    function initializeCollateral (address _collateral) external onlyGovernor {\n        require(!collateralExists[_collateral], \"OVLV1: collateral exists\");\n\n        collateralExists[_collateral] = true;\n        collateralActive[_collateral] = true;\n        allCollaterals.push(_collateral);\n\n        OverlayToken(ovl).grantRole(OverlayToken(ovl).MINTER_ROLE(), _collateral);\n        OverlayToken(ovl).grantRole(OverlayToken(ovl).BURNER_ROLE(), _collateral);\n\n        emit UpdateCollateral(_collateral, true);\n    }\n\n    function enableCollateral (address _collateral) external onlyGovernor {\n        require(collateralExists[_collateral], \"OVLV1: collateral !exists\");\n        require(!collateralActive[_collateral], \"OVLV1: collateral !disabled\");\n\n        collateralActive[_collateral] = true;\n\n        OverlayToken(ovl).grantRole(OverlayToken(ovl).MINTER_ROLE(), _collateral);\n        OverlayToken(ovl).grantRole(OverlayToken(ovl).BURNER_ROLE(), _collateral);\n\n        emit UpdateCollateral(_collateral, true);\n    }\n\n    function disableCollateral (address _collateral) external onlyGovernor {\n        require(collateralExists[_collateral], \"OVLV1: collateral !exists\");\n        require(collateralActive[_collateral], \"OVLV1: collateral !enabled\");\n\n        collateralActive[_collateral] = false;\n\n        OverlayToken(ovl).revokeRole(OverlayToken(ovl).MINTER_ROLE(), _collateral);\n        OverlayToken(ovl).revokeRole(OverlayToken(ovl).BURNER_ROLE(), _collateral);\n\n        emit UpdateCollateral(_collateral, false);\n    }\n\n    function setFeeTo(address _feeTo) external onlyGovernor {\n        _setFeeTo(_feeTo);\n    }\n\n    function setFee(uint _fee) external onlyGovernor {\n        _setFee(_fee);\n    }\n\n    function setFeeBurnRate(uint _feeBurnRate) external onlyGovernor {\n        _setFeeBurnRate(_feeBurnRate);\n    }\n\n    /// @notice Allows gov to adjust global params\n    function adjustGlobalParams(\n        uint16 _fee,\n        uint16 _feeBurnRate,\n        address _feeTo\n    ) external onlyGovernor {\n      _setFee(_fee);\n      _setFeeBurnRate(_feeBurnRate);\n      _setFeeTo(_feeTo);\n    }\n    \n    function setMarginBurnRate(uint _marginBurnRate) external onlyGovernor {\n        _setMarginBurnRate(_marginBurnRate);\n    }\n\n    function _setFeeTo(address _feeTo) internal {\n        require(_feeTo != address(0), \"OVLV1: fees to the zero address\");\n        feeTo = _feeTo;\n        emit UpdateFeeTo(_feeTo);\n    }\n\n    function _setFee(uint _fee) internal {\n        require(_fee >= MIN_FEE && _fee <= MAX_FEE, \"OVLV1: fee rate out of bounds\");\n        fee = _fee;\n        emit UpdateFee(_fee);\n    }\n\n    function _setFeeBurnRate(uint _feeBurnRate) internal {\n        require(_feeBurnRate <= MAX_FEE_BURN, \"OVLV1: fee burn rate out of bounds\");\n        feeBurnRate = _feeBurnRate;\n        emit UpdateFeeBurnRate(_feeBurnRate);\n    }\n\n    function _setMarginBurnRate(uint _marginBurnRate) internal {\n        require(_marginBurnRate <= MAX_MARGIN_BURN, \"OVLV1: margin burn rate out of bounds\");\n        marginBurnRate = _marginBurnRate;\n        emit UpdateMarginBurnRate(_marginBurnRate);\n    }\n\n    function getGlobalParams() external view returns (\n        address feeTo_,\n        uint fee_,\n        uint feeBurnRate_,\n        uint marginBurnRate_\n    ) {\n        feeTo_ = feeTo;\n        fee_ = fee;\n        feeBurnRate_ = feeBurnRate;\n        marginBurnRate_ = marginBurnRate;\n    }\n\n}\n",
  "sourcePath": "contracts/mothership/OverlayV1Mothership.sol",
  "type": "contract"
}