{
    "abi": [
        {
            "inputs": [
                {
                    "internalType": "address",
                    "name": "_mothership",
                    "type": "address"
                },
                {
                    "internalType": "address",
                    "name": "_ovlFeed",
                    "type": "address"
                },
                {
                    "internalType": "address",
                    "name": "_marketFeed",
                    "type": "address"
                },
                {
                    "internalType": "address",
                    "name": "_quote",
                    "type": "address"
                },
                {
                    "internalType": "address",
                    "name": "_eth",
                    "type": "address"
                },
                {
                    "internalType": "uint128",
                    "name": "_amountIn",
                    "type": "uint128"
                },
                {
                    "internalType": "uint256",
                    "name": "_macroWindow",
                    "type": "uint256"
                },
                {
                    "internalType": "uint256",
                    "name": "_microWindow",
                    "type": "uint256"
                }
            ],
            "stateMutability": "nonpayable",
            "type": "constructor"
        },
        {
            "anonymous": false,
            "inputs": [
                {
                    "indexed": false,
                    "internalType": "uint256",
                    "name": "oiLong",
                    "type": "uint256"
                },
                {
                    "indexed": false,
                    "internalType": "uint256",
                    "name": "oiShort",
                    "type": "uint256"
                },
                {
                    "indexed": false,
                    "internalType": "int256",
                    "name": "fundingPaid",
                    "type": "int256"
                }
            ],
            "name": "FundingPaid",
            "type": "event"
        },
        {
            "anonymous": false,
            "inputs": [
                {
                    "indexed": false,
                    "internalType": "uint256",
                    "name": "bid",
                    "type": "uint256"
                },
                {
                    "indexed": false,
                    "internalType": "uint256",
                    "name": "ask",
                    "type": "uint256"
                },
                {
                    "indexed": false,
                    "internalType": "uint256",
                    "name": "index",
                    "type": "uint256"
                }
            ],
            "name": "NewPrice",
            "type": "event"
        },
        {
            "anonymous": false,
            "inputs": [
                {
                    "indexed": false,
                    "internalType": "string",
                    "name": "k",
                    "type": "string"
                },
                {
                    "indexed": false,
                    "internalType": "uint256",
                    "name": "v",
                    "type": "uint256"
                }
            ],
            "name": "log",
            "type": "event"
        },
        {
            "inputs": [],
            "name": "MAX_FUNDING_COMPOUND",
            "outputs": [
                {
                    "internalType": "uint16",
                    "name": "",
                    "type": "uint16"
                }
            ],
            "stateMutability": "view",
            "type": "function"
        },
        {
            "inputs": [],
            "name": "MIN_COLLAT",
            "outputs": [
                {
                    "internalType": "uint256",
                    "name": "",
                    "type": "uint256"
                }
            ],
            "stateMutability": "view",
            "type": "function"
        },
        {
            "inputs": [
                {
                    "internalType": "address",
                    "name": "_collateral",
                    "type": "address"
                }
            ],
            "name": "addCollateral",
            "outputs": [],
            "stateMutability": "nonpayable",
            "type": "function"
        },
        {
            "inputs": [],
            "name": "base",
            "outputs": [
                {
                    "internalType": "address",
                    "name": "",
                    "type": "address"
                }
            ],
            "stateMutability": "view",
            "type": "function"
        },
        {
            "inputs": [
                {
                    "internalType": "uint256",
                    "name": "",
                    "type": "uint256"
                }
            ],
            "name": "brrrrdAccumulatooor",
            "outputs": [
                {
                    "internalType": "uint256",
                    "name": "",
                    "type": "uint256"
                }
            ],
            "stateMutability": "view",
            "type": "function"
        },
        {
            "inputs": [],
            "name": "brrrrdCycloid",
            "outputs": [
                {
                    "internalType": "uint256",
                    "name": "",
                    "type": "uint256"
                }
            ],
            "stateMutability": "view",
            "type": "function"
        },
        {
            "inputs": [],
            "name": "brrrrdExpected",
            "outputs": [
                {
                    "internalType": "uint256",
                    "name": "",
                    "type": "uint256"
                }
            ],
            "stateMutability": "view",
            "type": "function"
        },
        {
            "inputs": [],
            "name": "brrrrdFiling",
            "outputs": [
                {
                    "internalType": "uint256",
                    "name": "",
                    "type": "uint256"
                }
            ],
            "stateMutability": "view",
            "type": "function"
        },
        {
            "inputs": [
                {
                    "internalType": "uint256",
                    "name": "",
                    "type": "uint256"
                }
            ],
            "name": "brrrrdRollers",
            "outputs": [
                {
                    "internalType": "uint256",
                    "name": "time",
                    "type": "uint256"
                },
                {
                    "internalType": "uint256",
                    "name": "ying",
                    "type": "uint256"
                },
                {
                    "internalType": "uint256",
                    "name": "yang",
                    "type": "uint256"
                }
            ],
            "stateMutability": "view",
            "type": "function"
        },
        {
            "inputs": [],
            "name": "brrrrdWindowMacro",
            "outputs": [
                {
                    "internalType": "uint256",
                    "name": "",
                    "type": "uint256"
                }
            ],
            "stateMutability": "view",
            "type": "function"
        },
        {
            "inputs": [],
            "name": "brrrrdWindowMicro",
            "outputs": [
                {
                    "internalType": "uint256",
                    "name": "",
                    "type": "uint256"
                }
            ],
            "stateMutability": "view",
            "type": "function"
        },
        {
            "inputs": [],
            "name": "compounded",
            "outputs": [
                {
                    "internalType": "uint256",
                    "name": "",
                    "type": "uint256"
                }
            ],
            "stateMutability": "view",
            "type": "function"
        },
        {
            "inputs": [],
            "name": "compoundingPeriod",
            "outputs": [
                {
                    "internalType": "uint256",
                    "name": "",
                    "type": "uint256"
                }
            ],
            "stateMutability": "view",
            "type": "function"
        },
        {
            "inputs": [
                {
                    "internalType": "bool",
                    "name": "_isLong",
                    "type": "bool"
                },
                {
                    "internalType": "uint256",
                    "name": "_collateral",
                    "type": "uint256"
                },
                {
                    "internalType": "uint256",
                    "name": "_leverage",
                    "type": "uint256"
                }
            ],
            "name": "enterOI",
            "outputs": [
                {
                    "internalType": "uint256",
                    "name": "oiAdjusted_",
                    "type": "uint256"
                },
                {
                    "internalType": "uint256",
                    "name": "collateralAdjusted_",
                    "type": "uint256"
                },
                {
                    "internalType": "uint256",
                    "name": "debtAdjusted_",
                    "type": "uint256"
                },
                {
                    "internalType": "uint256",
                    "name": "fee_",
                    "type": "uint256"
                },
                {
                    "internalType": "uint256",
                    "name": "impact_",
                    "type": "uint256"
                },
                {
                    "internalType": "uint256",
                    "name": "pricePointCurrent_",
                    "type": "uint256"
                },
                {
                    "internalType": "uint256",
                    "name": "t1Compounding_",
                    "type": "uint256"
                }
            ],
            "stateMutability": "nonpayable",
            "type": "function"
        },
        {
            "inputs": [
                {
                    "internalType": "uint256",
                    "name": "_time",
                    "type": "uint256"
                },
                {
                    "internalType": "uint256",
                    "name": "_from",
                    "type": "uint256"
                },
                {
                    "internalType": "uint256",
                    "name": "_between",
                    "type": "uint256"
                }
            ],
            "name": "epochs",
            "outputs": [
                {
                    "internalType": "uint256",
                    "name": "updatesThen_",
                    "type": "uint256"
                },
                {
                    "internalType": "uint256",
                    "name": "updatesNow_",
                    "type": "uint256"
                },
                {
                    "internalType": "uint256",
                    "name": "tUpdate_",
                    "type": "uint256"
                },
                {
                    "internalType": "uint256",
                    "name": "t1Update_",
                    "type": "uint256"
                },
                {
                    "internalType": "uint256",
                    "name": "compoundings_",
                    "type": "uint256"
                },
                {
                    "internalType": "uint256",
                    "name": "tCompounding_",
                    "type": "uint256"
                },
                {
                    "internalType": "uint256",
                    "name": "t1Compounding_",
                    "type": "uint256"
                }
            ],
            "stateMutability": "view",
            "type": "function"
        },
        {
            "inputs": [
                {
                    "internalType": "bool",
                    "name": "_isLong",
                    "type": "bool"
                },
                {
                    "internalType": "uint256",
                    "name": "_pricePoint",
                    "type": "uint256"
                },
                {
                    "internalType": "uint256",
                    "name": "_compounding",
                    "type": "uint256"
                }
            ],
            "name": "exitData",
            "outputs": [
                {
                    "internalType": "uint256",
                    "name": "oi_",
                    "type": "uint256"
                },
                {
                    "internalType": "uint256",
                    "name": "oiShares_",
                    "type": "uint256"
                },
                {
                    "internalType": "uint256",
                    "name": "priceFrame_",
                    "type": "uint256"
                },
                {
                    "internalType": "bool",
                    "name": "fromQueued_",
                    "type": "bool"
                }
            ],
            "stateMutability": "nonpayable",
            "type": "function"
        },
        {
            "inputs": [
                {
                    "internalType": "bool",
                    "name": "_isLong",
                    "type": "bool"
                },
                {
                    "internalType": "bool",
                    "name": "_fromQueued",
                    "type": "bool"
                },
                {
                    "internalType": "uint256",
                    "name": "_oi",
                    "type": "uint256"
                },
                {
                    "internalType": "uint256",
                    "name": "_oiShares",
                    "type": "uint256"
                },
                {
                    "internalType": "uint256",
                    "name": "_brrrr",
                    "type": "uint256"
                },
                {
                    "internalType": "uint256",
                    "name": "_antiBrrrr",
                    "type": "uint256"
                }
            ],
            "name": "exitOI",
            "outputs": [],
            "stateMutability": "nonpayable",
            "type": "function"
        },
        {
            "inputs": [],
            "name": "impactCycloid",
            "outputs": [
                {
                    "internalType": "uint256",
                    "name": "",
                    "type": "uint256"
                }
            ],
            "stateMutability": "view",
            "type": "function"
        },
        {
            "inputs": [
                {
                    "internalType": "uint256",
                    "name": "",
                    "type": "uint256"
                }
            ],
            "name": "impactRollers",
            "outputs": [
                {
                    "internalType": "uint256",
                    "name": "time",
                    "type": "uint256"
                },
                {
                    "internalType": "uint256",
                    "name": "ying",
                    "type": "uint256"
                },
                {
                    "internalType": "uint256",
                    "name": "yang",
                    "type": "uint256"
                }
            ],
            "stateMutability": "view",
            "type": "function"
        },
        {
            "inputs": [],
            "name": "impactWindow",
            "outputs": [
                {
                    "internalType": "uint256",
                    "name": "",
                    "type": "uint256"
                }
            ],
            "stateMutability": "view",
            "type": "function"
        },
        {
            "inputs": [
                {
                    "internalType": "address",
                    "name": "",
                    "type": "address"
                }
            ],
            "name": "isCollateral",
            "outputs": [
                {
                    "internalType": "bool",
                    "name": "",
                    "type": "bool"
                }
            ],
            "stateMutability": "view",
            "type": "function"
        },
        {
            "inputs": [],
            "name": "k",
            "outputs": [
                {
                    "internalType": "uint256",
                    "name": "",
                    "type": "uint256"
                }
            ],
            "stateMutability": "view",
            "type": "function"
        },
        {
            "inputs": [],
            "name": "leverageMax",
            "outputs": [
                {
                    "internalType": "uint256",
                    "name": "",
                    "type": "uint256"
                }
            ],
            "stateMutability": "view",
            "type": "function"
        },
        {
            "inputs": [],
            "name": "lmbda",
            "outputs": [
                {
                    "internalType": "uint256",
                    "name": "",
                    "type": "uint256"
                }
            ],
            "stateMutability": "view",
            "type": "function"
        },
        {
            "inputs": [],
            "name": "macroWindow",
            "outputs": [
                {
                    "internalType": "uint256",
                    "name": "",
                    "type": "uint256"
                }
            ],
            "stateMutability": "view",
            "type": "function"
        },
        {
            "inputs": [],
            "name": "marketFeed",
            "outputs": [
                {
                    "internalType": "address",
                    "name": "",
                    "type": "address"
                }
            ],
            "stateMutability": "view",
            "type": "function"
        },
        {
            "inputs": [],
            "name": "microWindow",
            "outputs": [
                {
                    "internalType": "uint256",
                    "name": "",
                    "type": "uint256"
                }
            ],
            "stateMutability": "view",
            "type": "function"
        },
        {
            "inputs": [],
            "name": "mothership",
            "outputs": [
                {
                    "internalType": "contract IOverlayV1Mothership",
                    "name": "",
                    "type": "address"
                }
            ],
            "stateMutability": "view",
            "type": "function"
        },
        {
            "inputs": [],
            "name": "oi",
            "outputs": [
                {
                    "internalType": "uint256",
                    "name": "oiLong_",
                    "type": "uint256"
                },
                {
                    "internalType": "uint256",
                    "name": "oiShort_",
                    "type": "uint256"
                },
                {
                    "internalType": "uint256",
                    "name": "oiLongShares_",
                    "type": "uint256"
                },
                {
                    "internalType": "uint256",
                    "name": "oiShortShares_",
                    "type": "uint256"
                },
                {
                    "internalType": "uint256",
                    "name": "queuedOiLong_",
                    "type": "uint256"
                },
                {
                    "internalType": "uint256",
                    "name": "queuedOiShort_",
                    "type": "uint256"
                }
            ],
            "stateMutability": "view",
            "type": "function"
        },
        {
            "inputs": [],
            "name": "oiCap",
            "outputs": [
                {
                    "internalType": "uint256",
                    "name": "cap_",
                    "type": "uint256"
                }
            ],
            "stateMutability": "view",
            "type": "function"
        },
        {
            "inputs": [],
            "name": "oiLong",
            "outputs": [
                {
                    "internalType": "uint256",
                    "name": "oiLong_",
                    "type": "uint256"
                }
            ],
            "stateMutability": "view",
            "type": "function"
        },
        {
            "inputs": [],
            "name": "oiLongShares",
            "outputs": [
                {
                    "internalType": "uint256",
                    "name": "oiLongShares_",
                    "type": "uint256"
                }
            ],
            "stateMutability": "view",
            "type": "function"
        },
        {
            "inputs": [],
            "name": "oiShort",
            "outputs": [
                {
                    "internalType": "uint256",
                    "name": "oiShort_",
                    "type": "uint256"
                }
            ],
            "stateMutability": "view",
            "type": "function"
        },
        {
            "inputs": [],
            "name": "oiShortShares",
            "outputs": [
                {
                    "internalType": "uint256",
                    "name": "oiShortShares_",
                    "type": "uint256"
                }
            ],
            "stateMutability": "view",
            "type": "function"
        },
        {
            "inputs": [],
            "name": "ovl",
            "outputs": [
                {
                    "internalType": "contract IOverlayToken",
                    "name": "",
                    "type": "address"
                }
            ],
            "stateMutability": "view",
            "type": "function"
        },
        {
            "inputs": [],
            "name": "ovlFeed",
            "outputs": [
                {
                    "internalType": "address",
                    "name": "",
                    "type": "address"
                }
            ],
            "stateMutability": "view",
            "type": "function"
        },
        {
            "inputs": [],
            "name": "pbnj",
            "outputs": [
                {
                    "internalType": "uint256",
                    "name": "",
                    "type": "uint256"
                }
            ],
            "stateMutability": "view",
            "type": "function"
        },
        {
            "inputs": [
                {
                    "internalType": "bool",
                    "name": "_isLong",
                    "type": "bool"
                },
                {
                    "internalType": "uint256",
                    "name": "_entryIndex",
                    "type": "uint256"
                },
                {
                    "internalType": "uint256",
                    "name": "_compounding",
                    "type": "uint256"
                }
            ],
            "name": "positionInfo",
            "outputs": [
                {
                    "internalType": "uint256",
                    "name": "oi_",
                    "type": "uint256"
                },
                {
                    "internalType": "uint256",
                    "name": "oiShares_",
                    "type": "uint256"
                },
                {
                    "internalType": "uint256",
                    "name": "priceFrame_",
                    "type": "uint256"
                }
            ],
            "stateMutability": "view",
            "type": "function"
        },
        {
            "inputs": [
                {
                    "internalType": "uint256",
                    "name": "_ago",
                    "type": "uint256"
                }
            ],
            "name": "price",
            "outputs": [
                {
                    "components": [
                        {
                            "internalType": "uint256",
                            "name": "bid",
                            "type": "uint256"
                        },
                        {
                            "internalType": "uint256",
                            "name": "ask",
                            "type": "uint256"
                        },
                        {
                            "internalType": "uint256",
                            "name": "index",
                            "type": "uint256"
                        }
                    ],
                    "internalType": "struct OverlayV1PricePoint.PricePoint",
                    "name": "",
                    "type": "tuple"
                }
            ],
            "stateMutability": "view",
            "type": "function"
        },
        {
            "inputs": [],
            "name": "priceFrameCap",
            "outputs": [
                {
                    "internalType": "uint256",
                    "name": "",
                    "type": "uint256"
                }
            ],
            "stateMutability": "view",
            "type": "function"
        },
        {
            "inputs": [],
            "name": "pricePointCurrentIndex",
            "outputs": [
                {
                    "internalType": "uint256",
                    "name": "",
                    "type": "uint256"
                }
            ],
            "stateMutability": "view",
            "type": "function"
        },
        {
            "inputs": [
                {
                    "internalType": "uint256",
                    "name": "_pricePointIndex",
                    "type": "uint256"
                }
            ],
            "name": "pricePoints",
            "outputs": [
                {
                    "components": [
                        {
                            "internalType": "uint256",
                            "name": "bid",
                            "type": "uint256"
                        },
                        {
                            "internalType": "uint256",
                            "name": "ask",
                            "type": "uint256"
                        },
                        {
                            "internalType": "uint256",
                            "name": "index",
                            "type": "uint256"
                        }
                    ],
                    "internalType": "struct OverlayV1PricePoint.PricePoint",
                    "name": "pricePoint_",
                    "type": "tuple"
                }
            ],
            "stateMutability": "view",
            "type": "function"
        },
        {
            "inputs": [],
            "name": "queuedOiLong",
            "outputs": [
                {
                    "internalType": "uint256",
                    "name": "queuedOiLong_",
                    "type": "uint256"
                }
            ],
            "stateMutability": "view",
            "type": "function"
        },
        {
            "inputs": [],
            "name": "queuedOiShort",
            "outputs": [
                {
                    "internalType": "uint256",
                    "name": "queuedOiShort_",
                    "type": "uint256"
                }
            ],
            "stateMutability": "view",
            "type": "function"
        },
        {
            "inputs": [],
            "name": "quote",
            "outputs": [
                {
                    "internalType": "address",
                    "name": "",
                    "type": "address"
                }
            ],
            "stateMutability": "view",
            "type": "function"
        },
        {
            "inputs": [
                {
                    "internalType": "address",
                    "name": "_collateral",
                    "type": "address"
                }
            ],
            "name": "removeCollateral",
            "outputs": [],
            "stateMutability": "nonpayable",
            "type": "function"
        },
        {
            "inputs": [
                {
                    "internalType": "uint256",
                    "name": "_impactWindow",
                    "type": "uint256"
                },
                {
                    "internalType": "uint256",
                    "name": "_lmbda",
                    "type": "uint256"
                },
                {
                    "internalType": "uint256",
                    "name": "_staticCap",
                    "type": "uint256"
                },
                {
                    "internalType": "uint256",
                    "name": "_brrrrExpected",
                    "type": "uint256"
                },
                {
                    "internalType": "uint256",
                    "name": "_brrrrdWindowMacro",
                    "type": "uint256"
                },
                {
                    "internalType": "uint256",
                    "name": "_brrrrdWindowMicro",
                    "type": "uint256"
                }
            ],
            "name": "setComptrollerParams",
            "outputs": [],
            "stateMutability": "nonpayable",
            "type": "function"
        },
        {
            "inputs": [
                {
                    "internalType": "uint256",
                    "name": "_k",
                    "type": "uint256"
                },
                {
                    "internalType": "uint256",
                    "name": "_priceFrameCap",
                    "type": "uint256"
                },
                {
                    "internalType": "uint256",
                    "name": "_pbnj",
                    "type": "uint256"
                },
                {
                    "internalType": "uint256",
                    "name": "_updatePeriod",
                    "type": "uint256"
                },
                {
                    "internalType": "uint256",
                    "name": "_compoundPeriod",
                    "type": "uint256"
                },
                {
                    "internalType": "uint256",
                    "name": "_impactWindow",
                    "type": "uint256"
                },
                {
                    "internalType": "uint256",
                    "name": "_lmbda",
                    "type": "uint256"
                },
                {
                    "internalType": "uint256",
                    "name": "_staticCap",
                    "type": "uint256"
                },
                {
                    "internalType": "uint256",
                    "name": "_brrrrdExpected",
                    "type": "uint256"
                },
                {
                    "internalType": "uint256",
                    "name": "_brrrrdWindowMacro",
                    "type": "uint256"
                },
                {
                    "internalType": "uint256",
                    "name": "_brrrrdWindowMicro",
                    "type": "uint256"
                }
            ],
            "name": "setEverything",
            "outputs": [],
            "stateMutability": "nonpayable",
            "type": "function"
        },
        {
            "inputs": [
                {
                    "internalType": "uint256",
                    "name": "_k",
                    "type": "uint256"
                }
            ],
            "name": "setK",
            "outputs": [],
            "stateMutability": "nonpayable",
            "type": "function"
        },
        {
            "inputs": [],
            "name": "setOVL",
            "outputs": [],
            "stateMutability": "nonpayable",
            "type": "function"
        },
        {
            "inputs": [
                {
                    "internalType": "uint256",
                    "name": "_updatePeriod",
                    "type": "uint256"
                },
                {
                    "internalType": "uint256",
                    "name": "_compoundingPeriod",
                    "type": "uint256"
                }
            ],
            "name": "setPeriods",
            "outputs": [],
            "stateMutability": "nonpayable",
            "type": "function"
        },
        {
            "inputs": [
                {
                    "internalType": "uint256",
                    "name": "_priceFrameCap",
                    "type": "uint256"
                }
            ],
            "name": "setPriceFrameCap",
            "outputs": [],
            "stateMutability": "nonpayable",
            "type": "function"
        },
        {
            "inputs": [
                {
                    "internalType": "uint256",
                    "name": "_pbnj",
                    "type": "uint256"
                }
            ],
            "name": "setSpread",
            "outputs": [],
            "stateMutability": "nonpayable",
            "type": "function"
        },
        {
            "inputs": [],
            "name": "toUpdate",
            "outputs": [
                {
                    "internalType": "uint256",
                    "name": "",
                    "type": "uint256"
                }
            ],
            "stateMutability": "view",
            "type": "function"
        },
        {
            "inputs": [],
            "name": "update",
            "outputs": [],
            "stateMutability": "nonpayable",
            "type": "function"
        },
        {
            "inputs": [],
            "name": "updatePeriod",
            "outputs": [
                {
                    "internalType": "uint256",
                    "name": "",
                    "type": "uint256"
                }
            ],
            "stateMutability": "view",
            "type": "function"
        },
        {
            "inputs": [],
            "name": "updated",
            "outputs": [
                {
                    "internalType": "uint256",
                    "name": "",
                    "type": "uint256"
                }
            ],
            "stateMutability": "view",
            "type": "function"
        }
    ],
    "bytecode": "6101c06040526001610185556c01000000000000000000000000610186553480156200002a57600080fd5b5060405162006572380380620065728339810160408190526200004d9162000fa0565b8780604051806060016040528042815260200160008152602001600081525060026000603c8110620000835762000083620013d9565b60030201600082015181600001556020820151816001015560408201518160020155905050604051806060016040528042815260200160008152602001600081525060b66000603c8110620000dc57620000dc620013d9565b60030201600082015181600001556020820151816001015560408201518160020155905050806001600160a01b03166080816001600160a01b031660601b81525050806001600160a01b031663b29fa9c36040518163ffffffff1660e01b815260040160206040518083038186803b1580156200015857600080fd5b505afa1580156200016d573d6000803e3d6000fd5b505050506040513d601f19601f8201168201806040525081019062000193919062000f80565b61018180546001600160a01b0319166001600160a01b03928316179055606087901b6001600160601b0319166101805260408051630dfe168160e01b815290518883169450918b169250630dfe1681916004808301926020929190829003018186803b1580156200020357600080fd5b505afa15801562000218573d6000803e3d6000fd5b505050506040513d601f19601f820116820180604052508101906200023e919062000f80565b6001600160a01b039081169190911460f81b6101a0526001600160601b0319606089811b82166101005288901b1660e0526001600160801b0319608085901b166101605260a083905260c082905260408051630dfe168160e01b81529051600092891691630dfe1681916004808301926020929190829003018186803b158015620002c857600080fd5b505afa158015620002dd573d6000803e3d6000fd5b505050506040513d601f19601f8201168201806040525081019062000303919062000f80565b90506000876001600160a01b031663d21220a76040518163ffffffff1660e01b815260040160206040518083038186803b1580156200034157600080fd5b505afa15801562000356573d6000803e3d6000fd5b505050506040513d601f19601f820116820180604052508101906200037c919062000f80565b9050866001600160a01b0316826001600160a01b03161415620003a05780620003a2565b815b60601b6001600160601b031916610120526001600160a01b0387811690831614620003ce5780620003d0565b815b6001600160a01b0316610140816001600160a01b031660601b8152505060006200040889866000620004bc60201b62001ec71760201c565b905060006200046a82888b6001600160a01b0316876001600160a01b0316141562000434578562000436565b865b8c6001600160a01b0316886001600160a01b03161462000457578662000459565b875b620006b960201b620020a01760201c565b9050620004976040518060600160405280838152602001838152602001838152506200082660201b60201c565b505060001961017e5550504261017f81905561017455506200141e9650505050505050565b600080620004cb8385620012dc565b905063ffffffff81166200050b5760405162461bcd60e51b8152602060048201526002602482015261042560f41b60448201526064015b60405180910390fd5b6040805160028082526060820183526000926020830190803683370190505090508481600081518110620005435762000543620013d9565b602002602001019063ffffffff16908163ffffffff16815250508381600181518110620005745762000574620013d9565b63ffffffff9092166020928302919091019091015260405163883bdbfd60e01b81526000906001600160a01b0388169063883bdbfd90620005ba9085906004016200112f565b60006040518083038186803b158015620005d357600080fd5b505afa158015620005e8573d6000803e3d6000fd5b505050506040513d6000823e601f3d908101601f1916820160405262000612919081019062001051565b5090506000816000815181106200062d576200062d620013d9565b6020026020010151826001815181106200064b576200064b620013d9565b60200260200101516200065f91906200126c565b905062000671600385900b82620011ef565b945060008160060b12801562000698575062000692600385900b826200132b565b60060b15155b15620006ae5784620006aa8162001304565b9550505b505050509392505050565b600080620006d286620008f960201b620021ae1760201c565b90506001600160801b036001600160a01b0382161162000778576000620007036001600160a01b038316806200124a565b9050836001600160a01b0316856001600160a01b0316106200074a5762000744600160c01b876001600160801b03168362000d5a60201b620025cd1760201c565b6200076f565b6200076f81876001600160801b0316600160c01b62000d5a60201b620025cd1760201c565b9250506200081d565b6000620007ad826001600160a01b0316836001600160a01b03166801000000000000000062000d5a60201b620025cd1760201c565b9050836001600160a01b0316856001600160a01b031610620007f457620007ee600160801b876001600160801b03168362000d5a60201b620025cd1760201c565b62000819565b6200081981876001600160801b0316600160801b62000d5a60201b620025cd1760201c565b9250505b50949350505050565b6101808054600181018255600091909152815160039091027f3f79c16506060041ae6a4ff1e4cfb5037336b23850175e9bd090bd20eee718e581018290556020808401517f3f79c16506060041ae6a4ff1e4cfb5037336b23850175e9bd090bd20eee718e683018190556040808601517f3f79c16506060041ae6a4ff1e4cfb5037336b23850175e9bd090bd20eee718e79094018490558051948552918401528201527f7f422dd5cd123ccca7c61ca8286ee04cb58966e2c07631cc2b660f81713c98e59060600160405180910390a150565b60008060008360020b1262000912578260020b62000921565b8260020b62000921906200138d565b905062000932620d89e71962001367565b62ffffff168111156200096c5760405162461bcd60e51b81526020600482015260016024820152601560fa1b604482015260640162000502565b6000600182166200098257600160801b62000994565b6ffffcb933bd6fad37aa2d162d1a5940015b6001600160881b031690506002821615620009cc576080620009c7826ffff97272373d413259a46990580e213a6200124a565b901c90505b6004821615620009f9576080620009f4826ffff2e50f5f656932ef12357cf3c7fdcc6200124a565b901c90505b600882161562000a2657608062000a21826fffe5caca7e10e4e61c3624eaa0941cd06200124a565b901c90505b601082161562000a5357608062000a4e826fffcb9843d60f6159c9db58835c9266446200124a565b901c90505b602082161562000a8057608062000a7b826fff973b41fa98c081472e6896dfb254c06200124a565b901c90505b604082161562000aad57608062000aa8826fff2ea16466c96a3843ec78b326b528616200124a565b901c90505b608082161562000ada57608062000ad5826ffe5dee046a99a2a811c461f1969c30536200124a565b901c90505b61010082161562000b0857608062000b03826ffcbe86c7900a88aedcffc83b479aa3a46200124a565b901c90505b61020082161562000b3657608062000b31826ff987a7253ac413176f2b074cf7815e546200124a565b901c90505b61040082161562000b6457608062000b5f826ff3392b0822b70005940c7a398e4b70f36200124a565b901c90505b61080082161562000b9257608062000b8d826fe7159475a2c29b7443b29c7fa6e889d96200124a565b901c90505b61100082161562000bc057608062000bbb826fd097f3bdfd2022b8845ad8f792aa58256200124a565b901c90505b61200082161562000bee57608062000be9826fa9f746462d870fdf8a65dc1f90e061e56200124a565b901c90505b61400082161562000c1c57608062000c17826f70d869a156d2a1b890bb3df62baf32f76200124a565b901c90505b61800082161562000c4a57608062000c45826f31be135f97d08fd981231505542fcfa66200124a565b901c90505b6201000082161562000c7957608062000c74826f09aa508b5b7a84e1c677de54f3e99bc96200124a565b901c90505b6202000082161562000ca757608062000ca2826e5d6af8dedb81196699c329225ee6046200124a565b901c90505b6204000082161562000cd457608062000ccf826d2216e584f5fa1ea926041bedfe986200124a565b901c90505b6208000082161562000cff57608062000cfa826b048a170391f7dc42444e8fa26200124a565b901c90505b60008460020b131562000d1d5762000d1a8160001962001233565b90505b62000d2e6401000000008262001350565b1562000d3c57600162000d3f565b60005b62000d529060ff16602083901c620011d4565b949350505050565b60008080600019858709858702925082811083820303915050806000141562000d97576000841162000d8b57600080fd5b50829004905062000ef4565b80841162000da457600080fd5b60008486880980840393811190920391905060008562000dc4816200138d565b1695869004959384900493600081900304600101905062000de681846200124a565b90931792600062000df98760036200124a565b600218905062000e0a81886200124a565b62000e17906002620012c2565b62000e2390826200124a565b905062000e3181886200124a565b62000e3e906002620012c2565b62000e4a90826200124a565b905062000e5881886200124a565b62000e65906002620012c2565b62000e7190826200124a565b905062000e7f81886200124a565b62000e8c906002620012c2565b62000e9890826200124a565b905062000ea681886200124a565b62000eb3906002620012c2565b62000ebf90826200124a565b905062000ecd81886200124a565b62000eda906002620012c2565b62000ee690826200124a565b9050620006aa81866200124a565b9392505050565b600082601f83011262000f0d57600080fd5b8151602062000f2662000f2083620011ae565b6200117b565b80838252828201915082860187848660051b890101111562000f4757600080fd5b60005b8581101562000f7357815162000f608162001405565b8452928401929084019060010162000f4a565b5090979650505050505050565b60006020828403121562000f9357600080fd5b815162000ef48162001405565b600080600080600080600080610100898b03121562000fbe57600080fd5b885162000fcb8162001405565b60208a015190985062000fde8162001405565b60408a015190975062000ff18162001405565b60608a0151909650620010048162001405565b60808a0151909550620010178162001405565b60a08a01519094506001600160801b03811681146200103557600080fd5b60c08a015160e0909a0151989b979a5095989497939692505050565b600080604083850312156200106557600080fd5b82516001600160401b03808211156200107d57600080fd5b818501915085601f8301126200109257600080fd5b81516020620010a562000f2083620011ae565b8083825282820191508286018a848660051b8901011115620010c657600080fd5b600096505b84871015620010fb5780518060060b8114620010e657600080fd5b835260019690960195918301918301620010cb565b50918801519196509093505050808211156200111657600080fd5b50620011258582860162000efb565b9150509250929050565b6020808252825182820181905260009190848201906040850190845b818110156200116f57835163ffffffff16835292840192918401916001016200114b565b50909695505050505050565b604051601f8201601f191681016001600160401b0381118282101715620011a657620011a6620013ef565b604052919050565b60006001600160401b03821115620011ca57620011ca620013ef565b5060051b60200190565b60008219821115620011ea57620011ea620013ad565b500190565b60008160060b8360060b80620012095762001209620013c3565b667fffffffffffff198214600019821416156200122a576200122a620013ad565b90059392505050565b600082620012455762001245620013c3565b500490565b6000816000190483118215151615620012675762001267620013ad565b500290565b60008160060b8360060b6000811281667fffffffffffff19018312811516156200129a576200129a620013ad565b81667fffffffffffff018313811615620012b857620012b8620013ad565b5090039392505050565b600082821015620012d757620012d7620013ad565b500390565b600063ffffffff83811690831681811015620012fc57620012fc620013ad565b039392505050565b60008160020b627fffff19811415620013215762001321620013ad565b6000190192915050565b60008260060b80620013415762001341620013c3565b808360060b0791505092915050565b600082620013625762001362620013c3565b500690565b60008160020b627fffff19811415620013845762001384620013ad565b60000392915050565b6000600160ff1b821415620013a657620013a6620013ad565b5060000390565b634e487b7160e01b600052601160045260246000fd5b634e487b7160e01b600052601260045260246000fd5b634e487b7160e01b600052603260045260246000fd5b634e487b7160e01b600052604160045260246000fd5b6001600160a01b03811681146200141b57600080fd5b50565b60805160601c60a05160c05160e05160601c6101005160601c6101205160601c6101405160601c6101605160801c6101805160601c6101a05160f81c6150186200155a60003960006130ef0152600061326701526000610f2501526000818161069d0152610f670152600081816105860152610f4601526000818161055f015261314d01526000818161073501528181610e240152612f390152600081816104c301528181610d8f01528181610f9401528181612eb901528181612fe2015281816130b801526131e201526000818161076f01528181610d3d0152610eb701526000818161050e0152818161087801528181610a0901528181611130015281816112b2015281816113a101528181611528015281816115ea0152818161184a015281816119df01528181611aea0152611da901526150186000f3fe608060405234801561001057600080fd5b50600436106103835760003560e01c80638d5a63de116101de578063cfebbc761161010f578063efab1bd3116100ad578063fbaca1131161007c578063fbaca1131461082a578063fbefb4b914610834578063fcaf78191461083e578063fd84e4de1461084657600080fd5b8063efab1bd3146107e9578063f0d2d5a8146107fc578063f333fe131461080f578063f8fecbc41461081757600080fd5b8063de51da07116100e9578063de51da07146107c1578063e06fc927146107cb578063e07b877a146107d5578063e6b44e52146107df57600080fd5b8063cfebbc7614610791578063d28d04fb146107a4578063d4508fe4146107ae57600080fd5b8063b29fa9c31161017c578063b77461a511610156578063b77461a514610728578063bf8f1d5a14610730578063c99d3a0614610757578063ca2e4f1d1461076a57600080fd5b8063b29fa9c3146106f7578063b4f40c611461070b578063b66a261c1461071557600080fd5b8063a2e62045116101b8578063a2e62045146106bf578063a7266594146106c7578063a83627de146106da578063a9d9bb0b146106e457600080fd5b80638d5a63de1461065957806394f6684c1461068e578063999b93af1461069857600080fd5b806341a3a092116102b85780635dedde6d11610256578063767ac36911610230578063767ac3691461062a5780637b2aab031461063d578063841ee57d146106475780638b7598311461064f57600080fd5b80635dedde6d1461060557806367de8be91461060d578063683009811461062057600080fd5b80635001f3b5116102925780635001f3b51461058157806352bc804e146105a8578063582183b2146105c457806358c489bd146105d757600080fd5b806341a3a092146105485780634259fea31461055257806343e4a2731461055a57600080fd5b806322fb9bc6116103255780632acb3810116102ff5780632acb3810146104e55780632c9c34b9146104ed5780633729c317146105005780634187b7d61461050957600080fd5b806322fb9bc61461045457806326a49e37146104895780632869f965146104be57600080fd5b80630f293839116103615780630f293839146103ec5780630fce7953146104345780631827696d1461043e578063205f47111461044b57600080fd5b806308c2e22514610388578063091630141461039d5780630ee21e54146103b8575b600080fd5b61039b610396366004614be1565b61084f565b005b6103a5610960565b6040519081526020015b60405180910390f35b6103dc6103c63660046149aa565b6101846020526000908152604090205460ff1681565b60405190151581526020016103af565b6103ff6103fa366004614b0f565b610975565b604080519788526020880196909652948601939093526060850191909152608084015260a083015260c082015260e0016103af565b6103a56101835481565b6103a5655af3107a400081565b6103a560005481565b610467610462366004614b0f565b610b4d565b60408051948552602085019390935291830152151560608201526080016103af565b61049c610497366004614b61565b610cf1565b60408051825181526020808401519082015291810151908201526060016103af565b6103a57f000000000000000000000000000000000000000000000000000000000000000081565b6103a5610ffa565b61049c6104fb366004614b61565b61100f565b610180546103a5565b6105307f000000000000000000000000000000000000000000000000000000000000000081565b6040516001600160a01b0390911681526020016103af565b6103a561016c5481565b6103a56110fd565b6105307f000000000000000000000000000000000000000000000000000000000000000081565b6105307f000000000000000000000000000000000000000000000000000000000000000081565b6105b16110e081565b60405161ffff90911681526020016103af565b61039b6105d2366004614b61565b611107565b6105ea6105e5366004614b61565b61124d565b604080519384526020840192909252908201526060016103af565b6103a5611274565b61039b61061b366004614b61565b611289565b6103a56101725481565b61039b610638366004614b93565b611378565b6103a561017f5481565b61039b6114ff565b6103a56101745481565b6106616116a9565b604080519687526020870195909552938501929092526060840152608083015260a082015260c0016103af565b6103a561017e5481565b6105307f000000000000000000000000000000000000000000000000000000000000000081565b61039b6116ea565b6103a56106d5366004614b61565b6116f5565b6103a561017d5481565b61039b6106f2366004614ab6565b61170d565b61018154610530906001600160a01b031681565b6103a561017b5481565b61039b610723366004614b61565b611821565b6103a5611910565b6105307f000000000000000000000000000000000000000000000000000000000000000081565b61039b6107653660046149aa565b6119b6565b6103a57f000000000000000000000000000000000000000000000000000000000000000081565b61039b61079f366004614c24565b611ac1565b6103a56101715481565b6103ff6107bc366004614bb5565b611bea565b6103a561016f5481565b6103a56101705481565b6103a56101825481565b6103a561016b5481565b6105ea6107f7366004614b0f565b611cda565b61039b61080a3660046149aa565b611d80565b6103a5611e8e565b6105ea610825366004614b61565b611ea3565b6103a56101735481565b6103a561017c5481565b6103a5611eb3565b6103a560015481565b604051632474521560e21b8152600080516020614fc383398151915260048201523360248201527f00000000000000000000000000000000000000000000000000000000000000006001600160a01b0316906391d148549060440160206040518083038186803b1580156108c257600080fd5b505afa1580156108d6573d6000803e3d6000fd5b505050506040513d601f19601f820116820180604052508101906108fa9190614a99565b61093d5760405162461bcd60e51b815260206004820152600f60248201526e27ab262b189d10b3b7bb32b93737b960891b60448201526064015b60405180910390fd5b61016b9590955561016c9390935561016a91909155610171556101705561016f55565b600061096a6116a9565b509295945050505050565b336000908152610184602052604081205481908190819081908190819060ff166109d55760405162461bcd60e51b815260206004820152601160248201527013d593158c4e8858dbdb1b185d195c985b607a1b6044820152606401610934565b6109dd61273e565b610180549250905060006109f1898b614deb565b9050600080610a008d846127fb565b91509150610a9f7f00000000000000000000000000000000000000000000000000000000000000006001600160a01b031663ddca3f436040518163ffffffff1660e01b815260040160206040518083038186803b158015610a6057600080fd5b505afa158015610a74573d6000803e3d6000fd5b505050506040513d601f19601f82011682018060405250810190610a989190614b7a565b849061284d565b96508195508686655af3107a4000610ab79190614d5b565b610ac19190614d5b565b8c1015610b035760405162461bcd60e51b815260206004820152601060248201526f27ab262b189d31b7b63630ba1e36b4b760811b6044820152606401610934565b86610b0e838e614e82565b610b189190614e82565b9850610b248b8a614deb565b9950610b30898b614e82565b9750610b3d8d8b83612897565b5050509397509397509397909450565b336000908152610184602052604081205481908190819060ff16610ba75760405162461bcd60e51b815260206004820152601160248201527013d593158c4e8858dbdb1b185d195c985b607a1b6044820152606401610934565b610baf61292e565b610180549086119150600090610bc790600190614e82565b905080871115610c0a5760405162461bcd60e51b815260206004820152600e60248201526d13d593158c4e885cd95d1d1b195960921b6044820152606401610934565b60006101808881548110610c2057610c20614f73565b9060005260206000209060030201905060006101808381548110610c4657610c46614f73565b9060005260206000209060030201905089610c705781546001820154610c6b91612a13565b610c8e565b60018201548154610c8e91610c859190612a8c565b61018354612ade565b94508315610cbf576101795461017a548b15610cb1578198508882985050610cb8565b9750879650865b5050610ce5565b8915610cd75761017554610177549097509550610ce5565b610176546101785490975095505b50505093509350935093565b610d1560405180606001604052806000815260200160008152602001600081525090565b6040805160038082526080820190925260009160208201606080368337019050509050610d627f000000000000000000000000000000000000000000000000000000000000000084614d5b565b81600081518110610d7557610d75614f73565b63ffffffff90921660209283029190910190910152610db47f000000000000000000000000000000000000000000000000000000000000000084614d5b565b81600181518110610dc757610dc7614f73565b602002602001019063ffffffff16908163ffffffff16815250508281600281518110610df557610df5614f73565b63ffffffff9092166020928302919091019091015260405163883bdbfd60e01b81526000906001600160a01b037f0000000000000000000000000000000000000000000000000000000000000000169063883bdbfd90610e59908590600401614c96565b60006040518083038186803b158015610e7157600080fd5b505afa158015610e85573d6000803e3d6000fd5b505050506040513d6000823e601f3d908101601f19168201604052610ead91908101906149c7565b5090506000610f8b7f000000000000000000000000000000000000000000000000000000000000000060030b83600081518110610eec57610eec614f73565b602002602001015184600281518110610f0757610f07614f73565b6020026020010151610f199190614e0a565b610f239190614d73565b7f00000000000000000000000000000000000000000000000000000000000000007f00000000000000000000000000000000000000000000000000000000000000007f00000000000000000000000000000000000000000000000000000000000000006120a0565b90506000610fe47f000000000000000000000000000000000000000000000000000000000000000060030b84600181518110610fc957610fc9614f73565b602002602001015185600281518110610f0757610f07614f73565b9050610ff08183612af4565b9695505050505050565b60006110046116a9565b509195945050505050565b61103360405180606001604052806000815260200160008152602001600081525090565b61018054808310806110515750808314801561105157504261017e54105b61108e5760405162461bcd60e51b815260206004820152600e60248201526d13d593158c4e885cd95d1d1b195960921b6044820152606401610934565b808314156110a9576110a261017e54610cf1565b91506110f7565b61018083815481106110bd576110bd614f73565b9060005260206000209060030201604051806060016040529081600082015481526020016001820154815260200160028201548152505091505b50919050565b6000610ff06116a9565b604051632474521560e21b8152600080516020614fc383398151915260048201523360248201527f00000000000000000000000000000000000000000000000000000000000000006001600160a01b0316906391d148549060440160206040518083038186803b15801561117a57600080fd5b505afa15801561118e573d6000803e3d6000fd5b505050506040513d601f19601f820116820180604052508101906111b29190614a99565b6111f05760405162461bcd60e51b815260206004820152600f60248201526e27ab262b189d10b3b7bb32b93737b960891b6044820152606401610934565b80670de0b6b3a7640000106112475760405162461bcd60e51b815260206004820152601160248201527f4f564c56313a2170726963654672616d650000000000000000000000000000006044820152606401610934565b61018355565b60b681603c811061125d57600080fd5b600302018054600182015460029092015490925083565b600061127e6116a9565b509395945050505050565b604051632474521560e21b8152600080516020614fc383398151915260048201523360248201527f00000000000000000000000000000000000000000000000000000000000000006001600160a01b0316906391d148549060440160206040518083038186803b1580156112fc57600080fd5b505afa158015611310573d6000803e3d6000fd5b505050506040513d601f19601f820116820180604052508101906113349190614a99565b6113725760405162461bcd60e51b815260206004820152600f60248201526e27ab262b189d10b3b7bb32b93737b960891b6044820152606401610934565b61017b55565b604051632474521560e21b8152600080516020614fc383398151915260048201523360248201527f00000000000000000000000000000000000000000000000000000000000000006001600160a01b0316906391d148549060440160206040518083038186803b1580156113eb57600080fd5b505afa1580156113ff573d6000803e3d6000fd5b505050506040513d601f19601f820116820180604052508101906114239190614a99565b6114615760405162461bcd60e51b815260206004820152600f60248201526e27ab262b189d10b3b7bb32b93737b960891b6044820152606401610934565b60018210156114a25760405162461bcd60e51b815260206004820152600d60248201526c4f564c56313a2175706461746560981b6044820152606401610934565b808211156114f25760405162461bcd60e51b815260206004820152601560248201527f4f564c56313a7570646174653e636f6d706f756e6400000000000000000000006044820152606401610934565b61017d9190915561017355565b604051632474521560e21b8152600080516020614fc383398151915260048201523360248201527f00000000000000000000000000000000000000000000000000000000000000006001600160a01b0316906391d148549060440160206040518083038186803b15801561157257600080fd5b505afa158015611586573d6000803e3d6000fd5b505050506040513d601f19601f820116820180604052508101906115aa9190614a99565b6115e85760405162461bcd60e51b815260206004820152600f60248201526e27ab262b189d10b3b7bb32b93737b960891b6044820152606401610934565b7f00000000000000000000000000000000000000000000000000000000000000006001600160a01b031663b29fa9c36040518163ffffffff1660e01b815260040160206040518083038186803b15801561164157600080fd5b505afa158015611655573d6000803e3d6000fd5b505050506040513d601f19601f820116820180604052508101906116799190614b44565b610181805473ffffffffffffffffffffffffffffffffffffffff19166001600160a01b0392909216919091179055565b60008060008060008060006116c54261017f5461017e54611bea565b50509450505050506116d681612b9d565b949c939b5091995097509550909350915050565b6116f2612c31565b50565b61016d816002811061170657600080fd5b0154905081565b336000908152610184602052604090205460ff166117615760405162461bcd60e51b815260206004820152601160248201527013d593158c4e8858dbdb1b185d195c985b607a1b6044820152606401610934565b61176b8282612cde565b84156117a85785156117955783610179600082825461178a9190614e82565b909155506118199050565b8361017a600082825461178a9190614e82565b85156117e6578361017560008282546117c19190614e82565b9250508190558361017760008282546117da9190614e82565b90915550611819915050565b8361017660008282546117f99190614e82565b9250508190558361017860008282546118129190614e82565b9091555050505b505050505050565b604051632474521560e21b8152600080516020614fc383398151915260048201523360248201527f00000000000000000000000000000000000000000000000000000000000000006001600160a01b0316906391d148549060440160206040518083038186803b15801561189457600080fd5b505afa1580156118a8573d6000803e3d6000fd5b505050506040513d601f19601f820116820180604052508101906118cc9190614a99565b61190a5760405162461bcd60e51b815260206004820152600f60248201526e27ab262b189d10b3b7bb32b93737b960891b6044820152606401610934565b61017c55565b600080600061191d612e02565b6101715491935091508282111561194a5761194261016a5461193d612e92565b612ade565b935050505090565b6119548284614e82565b9250611961816002614deb565b831115611972576000935050505090565b61016a5460009061199f906119878685612a8c565b61199990671bc16d674ec80000614e82565b9061284d565b90506119ad8161193d612e92565b94505050505090565b604051632474521560e21b8152600080516020614fc383398151915260048201523360248201527f00000000000000000000000000000000000000000000000000000000000000006001600160a01b0316906391d148549060440160206040518083038186803b158015611a2957600080fd5b505afa158015611a3d573d6000803e3d6000fd5b505050506040513d601f19601f82011682018060405250810190611a619190614a99565b611a9f5760405162461bcd60e51b815260206004820152600f60248201526e27ab262b189d10b3b7bb32b93737b960891b6044820152606401610934565b6001600160a01b0316600090815261018460205260409020805460ff19169055565b604051632474521560e21b8152600080516020614fc383398151915260048201523360248201527f00000000000000000000000000000000000000000000000000000000000000006001600160a01b0316906391d148549060440160206040518083038186803b158015611b3457600080fd5b505afa158015611b48573d6000803e3d6000fd5b505050506040513d601f19601f82011682018060405250810190611b6c9190614a99565b611baa5760405162461bcd60e51b815260206004820152600f60248201526e27ab262b189d10b3b7bb32b93737b960891b6044820152606401610934565b611bb38b611289565b611bbc8a611107565b611bc589611821565b611bcf8888611378565b611bdd86868686868661084f565b5050505050505050505050565b60008060008060008060008061017d549050600061017354905060006101745490508c8b1015611c475782611c1f8d8d614e82565b611c299190614dd7565b995082611c368c8f614e82565b611c409190614dd7565b9850611c5f565b82611c528d8f614e82565b611c5c9190614dd7565b98505b82611c6a8a8c614d5b565b611c749190614deb565b611c7e908d614d5b565b9750611c8a8389614d5b565b965081610174548e611c9c9190614e82565b611ca69190614dd7565b9550611cb28287614deb565b611cbc9082614d5b565b9450611cc88286614d5b565b93505050509397509397509397909450565b6000806000806000806000611cf64261017f5461017e54611bea565b5095509550509450509350611d0d8a8a86866132d5565b9450600080600080600080611d2188612b9d565b955095509550955095509550868e1015611d55578f15611d4857859c508c849c5050611d6d565b849c508c839c5050611d6d565b8f15611d6657819b508b9c50611d6d565b809b508b9c505b5050505050505050505093509350939050565b604051632474521560e21b8152600080516020614fc383398151915260048201523360248201527f00000000000000000000000000000000000000000000000000000000000000006001600160a01b0316906391d148549060440160206040518083038186803b158015611df357600080fd5b505afa158015611e07573d6000803e3d6000fd5b505050506040513d601f19601f82011682018060405250810190611e2b9190614a99565b611e695760405162461bcd60e51b815260206004820152600f60248201526e27ab262b189d10b3b7bb32b93737b960891b6044820152606401610934565b6001600160a01b0316600090815261018460205260409020805460ff19166001179055565b6000611e986116a9565b509095945050505050565b600281603c811061125d57600080fd5b6000611ebd6116a9565b5095945050505050565b600080611ed48385614e99565b905063ffffffff8116611f0e5760405162461bcd60e51b8152602060048201526002602482015261042560f41b6044820152606401610934565b6040805160028082526060820183526000926020830190803683370190505090508481600081518110611f4357611f43614f73565b602002602001019063ffffffff16908163ffffffff16815250508381600181518110611f7157611f71614f73565b63ffffffff9092166020928302919091019091015260405163883bdbfd60e01b81526000906001600160a01b0388169063883bdbfd90611fb5908590600401614c96565b60006040518083038186803b158015611fcd57600080fd5b505afa158015611fe1573d6000803e3d6000fd5b505050506040513d6000823e601f3d908101601f1916820160405261200991908101906149c7565b50905060008160008151811061202157612021614f73565b60200260200101518260018151811061203c5761203c614f73565b602002602001015161204e9190614e0a565b905061205e600385900b82614d73565b945060008160060b128015612082575061207c600385900b82614eda565b60060b15155b15612095578461209181614eb6565b9550505b505050509392505050565b6000806120ac866121ae565b90506001600160801b036001600160a01b038216116121325760006120da6001600160a01b03831680614deb565b9050836001600160a01b0316856001600160a01b0316106121125761210d600160c01b876001600160801b0316836125cd565b61212a565b61212a81876001600160801b0316600160c01b6125cd565b9250506121a5565b60006121516001600160a01b03831680680100000000000000006125cd565b9050836001600160a01b0316856001600160a01b03161061218957612184600160801b876001600160801b0316836125cd565b6121a1565b6121a181876001600160801b0316600160801b6125cd565b9250505b50949350505050565b60008060008360020b126121c5578260020b6121d2565b8260020b6121d290614f2a565b90506121e1620d89e719614f10565b62ffffff168111156122195760405162461bcd60e51b81526020600482015260016024820152601560fa1b6044820152606401610934565b60006001821661222d57600160801b61223f565b6ffffcb933bd6fad37aa2d162d1a5940015b70ffffffffffffffffffffffffffffffffff169050600282161561227e576080612279826ffff97272373d413259a46990580e213a614deb565b901c90505b60048216156122a85760806122a3826ffff2e50f5f656932ef12357cf3c7fdcc614deb565b901c90505b60088216156122d25760806122cd826fffe5caca7e10e4e61c3624eaa0941cd0614deb565b901c90505b60108216156122fc5760806122f7826fffcb9843d60f6159c9db58835c926644614deb565b901c90505b6020821615612326576080612321826fff973b41fa98c081472e6896dfb254c0614deb565b901c90505b604082161561235057608061234b826fff2ea16466c96a3843ec78b326b52861614deb565b901c90505b608082161561237a576080612375826ffe5dee046a99a2a811c461f1969c3053614deb565b901c90505b6101008216156123a55760806123a0826ffcbe86c7900a88aedcffc83b479aa3a4614deb565b901c90505b6102008216156123d05760806123cb826ff987a7253ac413176f2b074cf7815e54614deb565b901c90505b6104008216156123fb5760806123f6826ff3392b0822b70005940c7a398e4b70f3614deb565b901c90505b610800821615612426576080612421826fe7159475a2c29b7443b29c7fa6e889d9614deb565b901c90505b61100082161561245157608061244c826fd097f3bdfd2022b8845ad8f792aa5825614deb565b901c90505b61200082161561247c576080612477826fa9f746462d870fdf8a65dc1f90e061e5614deb565b901c90505b6140008216156124a75760806124a2826f70d869a156d2a1b890bb3df62baf32f7614deb565b901c90505b6180008216156124d25760806124cd826f31be135f97d08fd981231505542fcfa6614deb565b901c90505b620100008216156124fe5760806124f9826f09aa508b5b7a84e1c677de54f3e99bc9614deb565b901c90505b62020000821615612529576080612524826e5d6af8dedb81196699c329225ee604614deb565b901c90505b6204000082161561255357608061254e826d2216e584f5fa1ea926041bedfe98614deb565b901c90505b6208000082161561257b576080612576826b048a170391f7dc42444e8fa2614deb565b901c90505b60008460020b13156125965761259381600019614dd7565b90505b6125a564010000000082614efc565b156125b15760016125b4565b60005b6125c59060ff16602083901c614d5b565b949350505050565b60008080600019858709858702925082811083820303915050806000141561260757600084116125fc57600080fd5b508290049050612737565b80841161261357600080fd5b60008486880980840393811190920391905060008561263181614f2a565b169586900495938490049360008190030460010190506126518184614deb565b909317926000612662876003614deb565b60021890506126718188614deb565b61267c906002614e82565b6126869082614deb565b90506126928188614deb565b61269d906002614e82565b6126a79082614deb565b90506126b38188614deb565b6126be906002614e82565b6126c89082614deb565b90506126d48188614deb565b6126df906002614e82565b6126e99082614deb565b90506126f58188614deb565b612700906002614e82565b61270a9082614deb565b90506127168188614deb565b612721906002614e82565b61272b9082614deb565b90506120918186614deb565b9392505050565b60008061017e549050600080600080600061275d4261017f5488611bea565b965096509650965050509450846000101561279f57600061277e8742614e82565b9050600061278b82610cf1565b905061279681613419565b505061017f8690555b82156127e45760001986146127d2576127b860016134ec565b506127cc6127c7600185614e82565b6134ec565b506127dd565b6127db836134ec565b505b6101748290555b838614610ff05761017e8490559695505050505050565b60008060008060008061280e8888613513565b935093509350935061282560028585600054613632565b60005561283287836136dd565b955061283f600087612cde565b809450505050509250929050565b60008061285a8385614deb565b905061287b8415806128745750836128728684614dd7565b145b6003613725565b61288d670de0b6b3a764000082614dd7565b9150505b92915050565b821561290657610179546128ab8382614d5b565b905080610179819055508181610175546128c59190614d5b565b11156129005760405162461bcd60e51b815260206004820152600a60248201526904f564c56313a3e6361760b41b6044820152606401610934565b50505050565b61017a546129148382614d5b565b90508061017a819055508181610176546128c59190614d5b565b60008061017e549050600042905060008060008060006129528661017f5489611bea565b509550955050945094509450846000101561298e5760006129738888614e82565b9050600061298082610cf1565b905061298b81613419565b50505b83156129c85760006129a08488614e82565b905060006129ad82610cf1565b90506129b881613419565b505061017f83905560001961017e555b8115612a085760001987146129f6576129e160016134ec565b506129f06127c7600184614e82565b50612a01565b6129ff826134ec565b505b6101748190555b979650505050505050565b6000612a228215156004613725565b82612a2f57506000612891565b6000612a43670de0b6b3a764000085614deb565b9050612a63670de0b6b3a7640000612a5b8684614dd7565b146005613725565b82612a6f600183614e82565b612a799190614dd7565b612a84906001614d5b565b915050612891565b6000612a9b8215156004613725565b82612aa857506000612891565b6000612abc670de0b6b3a764000085614deb565b9050612ad4670de0b6b3a7640000612a5b8684614dd7565b612a848382614dd7565b6000818310612aed5781612737565b5090919050565b612b1860405180606001604052806000815260200160008152602001600081525090565b6000612b4b612b3b61017c546725b946ebc0b3635161373790919063ffffffff16565b612b45858761379c565b906136dd565b90506000612b7a612b7061017c5467051af86713316a9a61373790919063ffffffff16565b6119998688612ade565b604080516060810182529182526020820193909352918201939093529392505050565b610175546101765461017754610178546101795461017a5461017b548715612c2757612bcc87876001846137ac565b509097509550612c00612bdf8489614d5b565b975087612bec8489614d5b565b975087612bfa60018c614e82565b846137ac565b509097509550612c108386614d5b565b9450612c1c8285614d5b565b935060009250600091505b5091939550919395565b61017e5461017f5460009190828080612c4b428587611bea565b509550955050505092508260001015612c96576000612c6a8642614e82565b90506000612c7782610cf1565b9050612c8281613419565b505061017f85905560001961017e55600195505b8115612cd6576000198514612cc457612caf60016134ec565b50612cbe6127c7600184614e82565b50612ccf565b612ccd826134ec565b505b6101748190555b505050505090565b61017254429080821115612dc557600154600060b682603c8110612d0457612d04614f73565b604080516060810182526003929092029290920180546001820154602084018181526002909301549484019490945286835261016d5492945092612d49908390614d5b565b90525061016e54604083018051612d61908390614d5b565b905250612d7160b6838386613632565b60015561016d87905561016e86905561016f548080612d908789614e82565b612d9a9190614dd7565b612da49190614deb565b6101726000828254612db69190614d5b565b90915550612900945050505050565b8361016d6000016000828254612ddb9190614d5b565b9091555083905061016d6001016000828254612df79190614d5b565b909155505050505050565b600080600080612e1960b6600154610170546138ef565b92509250508060200151826020015161016d600060028110612e3d57612e3d614f73565b0154612e499190614d5b565b612e539190614e82565b93508060400151826040015161016d600160028110612e7457612e74614f73565b0154612e809190614d5b565b612e8a9190614e82565b925050509091565b604080516002808252606082018352600092839291906020830190803683370190505090507f000000000000000000000000000000000000000000000000000000000000000081600081518110612eeb57612eeb614f73565b602002602001019063ffffffff16908163ffffffff1681525050600081600181518110612f1a57612f1a614f73565b602002602001019063ffffffff16908163ffffffff16815250506000807f00000000000000000000000000000000000000000000000000000000000000006001600160a01b031663883bdbfd846040518263ffffffff1660e01b8152600401612f839190614c96565b60006040518083038186803b158015612f9b57600080fd5b505afa158015612faf573d6000803e3d6000fd5b505050506040513d6000823e601f3d908101601f19168201604052612fd791908101906149c7565b9150915060006130537f000000000000000000000000000000000000000000000000000000000000000060030b8460008151811061301757613017614f73565b60200260200101518560018151811061303257613032614f73565b60200260200101516130449190614e0a565b61304e9190614d73565b6121ae565b6001600160a01b0316905060008260008151811061307357613073614f73565b60200260200101518360018151811061308e5761308e614f73565b60200260200101516130a09190614e5a565b6130e0906fffffffffffffffffffffffffffffffff197f000000000000000000000000000000000000000000000000000000000000000060801b16614db1565b6001600160a01b0316905060007f0000000000000000000000000000000000000000000000000000000000000000613125576131208284610186546125cd565b613133565b61313383606084901b614dd7565b60405163883bdbfd60e01b81529091506001600160a01b037f0000000000000000000000000000000000000000000000000000000000000000169063883bdbfd90613182908990600401614c96565b60006040518083038186803b15801561319a57600080fd5b505afa1580156131ae573d6000803e3d6000fd5b505050506040513d6000823e601f3d908101601f191682016040526131d691908101906149c7565b5080955050600061328b7f000000000000000000000000000000000000000000000000000000000000000060030b8760008151811061321757613217614f73565b60200260200101518860018151811061323257613232614f73565b60200260200101516132449190614e0a565b61324e9190614d73565b61018154670de0b6b3a7640000906001600160a01b03167f00000000000000000000000000000000000000000000000000000000000000006120a0565b90506132c9671bc16d674ec800006132c3836132af86670de0b6b3a7640000614deb565b6132b99190614dd7565b61016c54906136dd565b90612a8c565b97505050505050505090565b60006132fb60405180606001604052806000815260200160008152602001600081525090565b61331f60405180606001604052806000815260200160008152602001600081525090565b6101805461332f90600190614e82565b86101561338857610180868154811061334a5761334a614f73565b9060005260206000209060030201604051806060016040529081600082015481526020016001820154815260200160028201548152505091506133e0565b84156133a7576133a061017e54426104979190614e82565b91506133e0565b60405162461bcd60e51b815260206004820152600e60248201526d13d593158c4e885cd95d1d1b195960921b6044820152606401610934565b6133ed6104978542614e82565b905086613404578151602082015161218491612a13565b602082015181516121a191610c859190612a8c565b6101808054600181018255600091909152815160039091027f3f79c16506060041ae6a4ff1e4cfb5037336b23850175e9bd090bd20eee718e581018290556020808401517f3f79c16506060041ae6a4ff1e4cfb5037336b23850175e9bd090bd20eee718e683018190556040808601517f3f79c16506060041ae6a4ff1e4cfb5037336b23850175e9bd090bd20eee718e79094018490558051948552918401528201527f7f422dd5cd123ccca7c61ca8286ee04cb58966e2c07631cc2b660f81713c98e59060600160405180910390a150565b6000811561350e5761350161017b5483613ae2565b5061350a613b56565b5060015b919050565b61353760405180606001604052806000815260200160008152602001600081525090565b600080600080600080613551600260005461016b546138ef565b92509250925061355f611910565b9350600061356d8986612a8c565b9050891561358f5780836020018181516135879190614d5b565b9052506135a5565b80836040018181516135a19190614d5b565b9052505b60006135e68b6135c857836040015185604001516135c39190614e82565b6135dc565b836020015185602001516135dc9190614e82565b61016c549061284d565b905084975083985081600014156135fe576000613622565b61362261361367051af86713316a9a83613737565b670de0b6b3a764000090613bd7565b9650505050505092959194509250565b8251600090831461369c57613648600183614d5b565b9150603c82101561369057838583603c811061366657613666614f73565b600302016000820151816000015560208201518160010155604082015181600201559050506136d5565b60009150838583613666565b838583603c81106136af576136af614f73565b600302016000820151816000015560208201518160010155604082015181600201559050505b509392505050565b6000806136ea8385614deb565b90506137028415806128745750836128728684614dd7565b80613711576000915050612891565b670de0b6b3a7640000612a6f600183614e82565b816137335761373381613bf3565b5050565b600082670de0b6b3a7640000148061374d575081155b156137615750670de0b6b3a7640000612891565b600061376d8484613c46565b90506000613787613780836127106136dd565b6001613d26565b90506137938282613d26565b95945050505050565b600081831015612aed5781612737565b60008080861580156137bc575085155b156137cf575060009150819050806138e5565b846137e2575085915084905060006138e5565b60006138046136136137fd670de0b6b3a76400006002614deb565b87906136dd565b905061382261381b87670de0b6b3a7640000614deb565b8290613737565b90508787808211801590613834579091905b8161385a576000613845858561284d565b90506138518185614e82565b955092506138c0565b60006138706138698486614e82565b869061284d565b9050600061387e8486614d5b565b9050600261388c8383614d5b565b6138969190614dd7565b945060026138a48383614e82565b6138ae9190614dd7565b93506138bb600283614dd7565b965050505b806138d55782826138d087614f2a565b6138d9565b8183865b91985096509450505050505b9450945094915050565b600061391560405180606001604052806000815260200160008152602001600081525090565b61393960405180606001604052806000815260200160008152602001600081525090565b428686603c811061394c5761394c614f73565b600302016040518060600160405290816000820154815260200160018201548152602001600282015481525050925082600001519350600085826139909190614e82565b9050808460000151116139b9575082526020808301519082015260408083015190820152613ad9565b835182146139c5578184525b6000806139d38a8a85613d43565b815191935091508314156139e957819450613ad4565b80518314156139fa57809450613ad4565b815181511415613a0c57819450613ad4565b600082602001518260200151613a229190614e82565b9050600083604001518360400151613a3a9190614e82565b84518451919250600091613a4e9190614e82565b613a6090670de0b6b3a7640000614deb565b90506000613a9082876000015189613a789190614e82565b613a8a90670de0b6b3a7640000614deb565b90612a13565b9050613aaa613a9f858361284d565b602088015190613d26565b60208a0152613ac7613abc848361284d565b604088015190613d26565b60408a0152505050838652505b505050505b93509350939050565b6000806000613af9610175546101765486886137ac565b610175839055610176829055604080518481526020810184905290810182905290955091935091507fbd9b2eb2e69e8d71702753e645d1fbcda9b8473629152f5a3cbc18bc2ceecc2f9060600160405180910390a1505092915050565b6101795461017a546101758054839190600090613b74908490614d5b565b92505081905550806101766000828254613b8e9190614d5b565b92505081905550816101776000828254613ba89190614d5b565b92505081905550806101786000828254613bc29190614d5b565b9091555050600061017981905561017a555050565b6000613be7838311156001613725565b600061288d8385614e82565b62461bcd60e51b6000908152602060045260076024526642414c23000030600a808404818106603090810160081b95839006959095019082900491820690940160101b939093010160c81b604452606490fd5b6000613c59600160ff1b84106006613725565b82613c7f770bce5086492111aea88f4bb1ca6bcf584181ea8059f7653284106007613725565b826000670c7d713b49da000083138015613ca05750670f43fc2c04ee000083125b15613cd7576000613cb084613eb5565b9050670de0b6b3a764000080820784020583670de0b6b3a764000083050201915050613ce5565b81613ce184613fdd565b0290505b670de0b6b3a76400009005613d1d680238fd42c5cf03ffff198212801590613d16575068070c1cc73b00c800008213155b6008613725565b610ff081614388565b600080613d338385614d5b565b9050612737848210156000613725565b613d6760405180606001604052806000815260200160008152602001600081525090565b613d8b60405180606001604052806000815260200160008152602001600081525090565b8484603c8110613d9d57613d9d614f73565b600302016040518060600160405290816000820154815260200160018201548152602001600282015481525050915082826000015111613e01578151831415613de557613ead565b4281526020808301519082015260408083015190820152613ead565b603c613e0e856001614d5b565b613e189190614efc565b93508484603c8110613e2c57613e2c614f73565b60030201604051806060016040529081600082015481526020016001820154815260200160028201548152505091506001826000015111613e8e5760408051606081018252865481526001870154602082015260028701549181019190915291505b81518311613e9d575080613ead565b613ea885848661476b565b915091505b935093915050565b670de0b6b3a7640000026000806ec097ce7bc90715b34b9f1000000000808401906ec097ce7bc90715b34b9f0fffffffff1985010281613ef757613ef7614f5d565b05905060006ec097ce7bc90715b34b9f100000000082800205905081806ec097ce7bc90715b34b9f100000000081840205915060038205016ec097ce7bc90715b34b9f100000000082840205915060058205016ec097ce7bc90715b34b9f100000000082840205915060078205016ec097ce7bc90715b34b9f100000000082840205915060098205016ec097ce7bc90715b34b9f1000000000828402059150600b8205016ec097ce7bc90715b34b9f1000000000828402059150600d8205016ec097ce7bc90715b34b9f1000000000828402059150600f82050160020295945050505050565b6000670de0b6b3a764000082121561401f57614016826ec097ce7bc90715b34b9f10000000008161401057614010614f5d565b05613fdd565b60000392915050565b60007e1600ef3172e58d2e933ec884fde10064c63b5372d805e203c0000000000000831261407057770195e54c5dd42177f53a27172fa9ec630262827000000000830592506806f05b59d3b2000000015b73011798004d755d3c8bc8e03204cf44619e00000083126140a8576b1425982cf597cd205cef7380830592506803782dace9d9000000015b606492830292026e01855144814a7ff805980ff008400083126140f0576e01855144814a7ff805980ff008400068056bc75e2d63100000840205925068ad78ebc5ac62000000015b6b02df0ab5a80a22c61ab5a700831261412b576b02df0ab5a80a22c61ab5a70068056bc75e2d6310000084020592506856bc75e2d631000000015b693f1fce3da636ea5cf850831261416257693f1fce3da636ea5cf85068056bc75e2d631000008402059250682b5e3af16b18800000015b690127fa27722cc06cc5e2831261419957690127fa27722cc06cc5e268056bc75e2d6310000084020592506815af1d78b58c400000015b68280e60114edb805d0383126141ce5768280e60114edb805d0368056bc75e2d631000008402059250680ad78ebc5ac6200000015b680ebc5fb4174612111083126141f957680ebc5fb4174612111068056bc75e2d631000009384020592015b6808f00f760a4b2db55d831261422e576808f00f760a4b2db55d68056bc75e2d6310000084020592506802b5e3af16b1880000015b6806f5f17757889379378312614263576806f5f177578893793768056bc75e2d63100000840205925068015af1d78b58c40000015b6806248f33704b2866038312614297576806248f33704b28660368056bc75e2d63100000840205925067ad78ebc5ac620000015b6805c548670b9510e7ac83126142cb576805c548670b9510e7ac68056bc75e2d6310000084020592506756bc75e2d6310000015b600068056bc75e2d63100000840168056bc75e2d6310000080860302816142f4576142f4614f5d565b059050600068056bc75e2d63100000828002059050818068056bc75e2d63100000818402059150600382050168056bc75e2d63100000828402059150600582050168056bc75e2d63100000828402059150600782050168056bc75e2d63100000828402059150600982050168056bc75e2d63100000828402059150600b820501600202606485820105979650505050505050565b60006143b7680238fd42c5cf03ffff1983121580156143b0575068070c1cc73b00c800008313155b6009613725565b60008212156143f0576143cc82600003614388565b6ec097ce7bc90715b34b9f1000000000816143e9576143e9614f5d565b0592915050565b60006806f05b59d3b2000000831261443057506806f05b59d3b1ffffff1990910190770195e54c5dd42177f53a27172fa9ec630262827000000000614466565b6803782dace9d9000000831261446257506803782dace9d8ffffff19909101906b1425982cf597cd205cef7380614466565b5060015b6064929092029168056bc75e2d6310000068ad78ebc5ac6200000084126144b65768ad78ebc5ac61ffffff199093019268056bc75e2d631000006e01855144814a7ff805980ff008400082020590505b6856bc75e2d63100000084126144f2576856bc75e2d630ffffff199093019268056bc75e2d631000006b02df0ab5a80a22c61ab5a70082020590505b682b5e3af16b18800000841261452c57682b5e3af16b187fffff199093019268056bc75e2d63100000693f1fce3da636ea5cf85082020590505b6815af1d78b58c4000008412614566576815af1d78b58c3fffff199093019268056bc75e2d63100000690127fa27722cc06cc5e282020590505b680ad78ebc5ac6200000841261459f57680ad78ebc5ac61fffff199093019268056bc75e2d6310000068280e60114edb805d0382020590505b68056bc75e2d6310000084126145d85768056bc75e2d630fffff199093019268056bc75e2d63100000680ebc5fb4174612111082020590505b6802b5e3af16b18800008412614611576802b5e3af16b187ffff199093019268056bc75e2d631000006808f00f760a4b2db55d82020590505b68015af1d78b58c40000841261464a5768015af1d78b58c3ffff199093019268056bc75e2d631000006806f5f177578893793782020590505b68056bc75e2d631000008481019085906002908280020505918201919050600368056bc75e2d631000008783020505918201919050600468056bc75e2d631000008783020505918201919050600568056bc75e2d631000008783020505918201919050600668056bc75e2d631000008783020505918201919050600768056bc75e2d631000008783020505918201919050600868056bc75e2d631000008783020505918201919050600968056bc75e2d631000008783020505918201919050600a68056bc75e2d631000008783020505918201919050600b68056bc75e2d631000008783020505918201919050600c68056bc75e2d631000008783020505918201919050606468056bc75e2d63100000848402058502059695505050505050565b61478f60405180606001604052806000815260200160008152602001600081525090565b6147b360405180606001604052806000815260200160008152602001600081525090565b6000603c6147c2856001614d35565b61ffff166147d09190614efc565b9050600060016147e1603c84614d5b565b6147eb9190614e82565b905060005b60026147fc8385614d5b565b6148069190614dd7565b905087614814603c83614efc565b603c811061482457614824614f73565b600302016040518060600160405290816000820154815260200160018201548152602001600282015481525050945060018560000151116148715761486a816001614d5b565b92506147f0565b87603c61487f836001614d5b565b6148899190614efc565b603c811061489957614899614f73565b600302016040518060600160405290816000820154815260200160018201548152602001600282015481525050935060008763ffffffff168660000151111590508080156148ee5750845163ffffffff891611155b156148f95750614924565b8061491057614909600183614e82565b925061491e565b61491b826001614d5b565b93505b506147f0565b505050935093915050565b600082601f83011261494057600080fd5b8151602061495561495083614d11565b614ce0565b80838252828201915082860187848660051b890101111561497557600080fd5b60005b8581101561499d57815161498b81614f9f565b84529284019290840190600101614978565b5090979650505050505050565b6000602082840312156149bc57600080fd5b813561273781614f9f565b600080604083850312156149da57600080fd5b825167ffffffffffffffff808211156149f257600080fd5b818501915085601f830112614a0657600080fd5b81516020614a1661495083614d11565b8083825282820191508286018a848660051b8901011115614a3657600080fd5b600096505b84871015614a685780518060060b8114614a5457600080fd5b835260019690960195918301918301614a3b565b5091880151919650909350505080821115614a8257600080fd5b50614a8f8582860161492f565b9150509250929050565b600060208284031215614aab57600080fd5b815161273781614fb4565b60008060008060008060c08789031215614acf57600080fd5b8635614ada81614fb4565b95506020870135614aea81614fb4565b95989597505050506040840135936060810135936080820135935060a0909101359150565b600080600060608486031215614b2457600080fd5b8335614b2f81614fb4565b95602085013595506040909401359392505050565b600060208284031215614b5657600080fd5b815161273781614f9f565b600060208284031215614b7357600080fd5b5035919050565b600060208284031215614b8c57600080fd5b5051919050565b60008060408385031215614ba657600080fd5b50508035926020909101359150565b600080600060608486031215614bca57600080fd5b505081359360208301359350604090920135919050565b60008060008060008060c08789031215614bfa57600080fd5b505084359660208601359650604086013595606081013595506080810135945060a0013592509050565b60008060008060008060008060008060006101608c8e031215614c4657600080fd5b505089359b60208b01359b5060408b01359a60608101359a506080810135995060a0810135985060c0810135975060e0810135965061010081013595506101208101359450610140013592509050565b6020808252825182820181905260009190848201906040850190845b81811015614cd457835163ffffffff1683529284019291840191600101614cb2565b50909695505050505050565b604051601f8201601f1916810167ffffffffffffffff81118282101715614d0957614d09614f89565b604052919050565b600067ffffffffffffffff821115614d2b57614d2b614f89565b5060051b60200190565b600061ffff808316818516808303821115614d5257614d52614f47565b01949350505050565b60008219821115614d6e57614d6e614f47565b500190565b60008160060b8360060b80614d8a57614d8a614f5d565b667fffffffffffff19821460001982141615614da857614da8614f47565b90059392505050565b60006001600160a01b0380841680614dcb57614dcb614f5d565b92169190910492915050565b600082614de657614de6614f5d565b500490565b6000816000190483118215151615614e0557614e05614f47565b500290565b60008160060b8360060b6000811281667fffffffffffff1901831281151615614e3557614e35614f47565b81667fffffffffffff018313811615614e5057614e50614f47565b5090039392505050565b60006001600160a01b0383811690831681811015614e7a57614e7a614f47565b039392505050565b600082821015614e9457614e94614f47565b500390565b600063ffffffff83811690831681811015614e7a57614e7a614f47565b60008160020b627fffff19811415614ed057614ed0614f47565b6000190192915050565b60008260060b80614eed57614eed614f5d565b808360060b0791505092915050565b600082614f0b57614f0b614f5d565b500690565b60008160020b627fffff1981141561401657614016614f47565b6000600160ff1b821415614f4057614f40614f47565b5060000390565b634e487b7160e01b600052601160045260246000fd5b634e487b7160e01b600052601260045260246000fd5b634e487b7160e01b600052603260045260246000fd5b634e487b7160e01b600052604160045260246000fd5b6001600160a01b03811681146116f257600080fd5b80151581146116f257600080fdfe1a6838efa4183e08fe3607359d1259272af9d4716f65e1a7b5921f78fd5a3c6aa2646970667358221220f5c4fa689cbba8fa87b1fc9911a2605da3b276ec9d271baddbc4008e7d4f74c964736f6c63430008070033",
    "bytecodeSha1": "13bcc2da2e1ea360dd80025170f541a21005ae4b",
    "compiler": {
        "evm_version": "london",
        "optimizer": {
            "enabled": true,
            "runs": 400
        },
        "version": "0.8.7+commit.e28d00a7"
    },
    "contractName": "OverlayV1UniswapV3Market",
    "language": "Solidity",
    "natspec": {
        "kind": "dev",
        "methods": {
            "enterOI(bool,uint256,uint256)": {
                "details": "invoked by an overlay position contract",
                "notice": "Adds open interest to the market"
            },
            "exitOI(bool,bool,uint256,uint256,uint256,uint256)": {
                "details": "must update two prices if the pending update was from a longtime ago in that case, a previously entered position must besettled, and the current exit price must be retrieved",
                "notice": "Removes open interest from the market",
                "params": {
                    "_isLong": "is this from the short or the long side",
                    "_oiShares": "the amount of oi in shares to be removed"
                }
            },
            "pricePointCurrentIndex()": {
                "notice": "Get the current price point index"
            }
        },
        "version": 1
    },
    "opcodes": "PUSH1 0x80 PUSH1 0x40 MSTORE CALLVALUE DUP1 ISZERO PUSH2 0x10 JUMPI PUSH1 0x0 DUP1 REVERT JUMPDEST POP PUSH1 0x4 CALLDATASIZE LT PUSH2 0x383 JUMPI PUSH1 0x0 CALLDATALOAD PUSH1 0xE0 SHR DUP1 PUSH4 0x8D5A63DE GT PUSH2 0x1DE JUMPI DUP1 PUSH4 0xCFEBBC76 GT PUSH2 0x10F JUMPI DUP1 PUSH4 0xEFAB1BD3 GT PUSH2 0xAD JUMPI DUP1 PUSH4 0xFBACA113 GT PUSH2 0x7C JUMPI DUP1 PUSH4 0xFBACA113 EQ PUSH2 0x82A JUMPI DUP1 PUSH4 0xFBEFB4B9 EQ PUSH2 0x834 JUMPI DUP1 PUSH4 0xFCAF7819 EQ PUSH2 0x83E JUMPI DUP1 PUSH4 0xFD84E4DE EQ PUSH2 0x846 JUMPI PUSH1 0x0 DUP1 REVERT JUMPDEST DUP1 PUSH4 0xEFAB1BD3 EQ PUSH2 0x7E9 JUMPI DUP1 PUSH4 0xF0D2D5A8 EQ PUSH2 0x7FC JUMPI DUP1 PUSH4 0xF333FE13 EQ PUSH2 0x80F JUMPI DUP1 PUSH4 0xF8FECBC4 EQ PUSH2 0x817 JUMPI PUSH1 0x0 DUP1 REVERT JUMPDEST DUP1 PUSH4 0xDE51DA07 GT PUSH2 0xE9 JUMPI DUP1 PUSH4 0xDE51DA07 EQ PUSH2 0x7C1 JUMPI DUP1 PUSH4 0xE06FC927 EQ PUSH2 0x7CB JUMPI DUP1 PUSH4 0xE07B877A EQ PUSH2 0x7D5 JUMPI DUP1 PUSH4 0xE6B44E52 EQ PUSH2 0x7DF JUMPI PUSH1 0x0 DUP1 REVERT JUMPDEST DUP1 PUSH4 0xCFEBBC76 EQ PUSH2 0x791 JUMPI DUP1 PUSH4 0xD28D04FB EQ PUSH2 0x7A4 JUMPI DUP1 PUSH4 0xD4508FE4 EQ PUSH2 0x7AE JUMPI PUSH1 0x0 DUP1 REVERT JUMPDEST DUP1 PUSH4 0xB29FA9C3 GT PUSH2 0x17C JUMPI DUP1 PUSH4 0xB77461A5 GT PUSH2 0x156 JUMPI DUP1 PUSH4 0xB77461A5 EQ PUSH2 0x728 JUMPI DUP1 PUSH4 0xBF8F1D5A EQ PUSH2 0x730 JUMPI DUP1 PUSH4 0xC99D3A06 EQ PUSH2 0x757 JUMPI DUP1 PUSH4 0xCA2E4F1D EQ PUSH2 0x76A JUMPI PUSH1 0x0 DUP1 REVERT JUMPDEST DUP1 PUSH4 0xB29FA9C3 EQ PUSH2 0x6F7 JUMPI DUP1 PUSH4 0xB4F40C61 EQ PUSH2 0x70B JUMPI DUP1 PUSH4 0xB66A261C EQ PUSH2 0x715 JUMPI PUSH1 0x0 DUP1 REVERT JUMPDEST DUP1 PUSH4 0xA2E62045 GT PUSH2 0x1B8 JUMPI DUP1 PUSH4 0xA2E62045 EQ PUSH2 0x6BF JUMPI DUP1 PUSH4 0xA7266594 EQ PUSH2 0x6C7 JUMPI DUP1 PUSH4 0xA83627DE EQ PUSH2 0x6DA JUMPI DUP1 PUSH4 0xA9D9BB0B EQ PUSH2 0x6E4 JUMPI PUSH1 0x0 DUP1 REVERT JUMPDEST DUP1 PUSH4 0x8D5A63DE EQ PUSH2 0x659 JUMPI DUP1 PUSH4 0x94F6684C EQ PUSH2 0x68E JUMPI DUP1 PUSH4 0x999B93AF EQ PUSH2 0x698 JUMPI PUSH1 0x0 DUP1 REVERT JUMPDEST DUP1 PUSH4 0x41A3A092 GT PUSH2 0x2B8 JUMPI DUP1 PUSH4 0x5DEDDE6D GT PUSH2 0x256 JUMPI DUP1 PUSH4 0x767AC369 GT PUSH2 0x230 JUMPI DUP1 PUSH4 0x767AC369 EQ PUSH2 0x62A JUMPI DUP1 PUSH4 0x7B2AAB03 EQ PUSH2 0x63D JUMPI DUP1 PUSH4 0x841EE57D EQ PUSH2 0x647 JUMPI DUP1 PUSH4 0x8B759831 EQ PUSH2 0x64F JUMPI PUSH1 0x0 DUP1 REVERT JUMPDEST DUP1 PUSH4 0x5DEDDE6D EQ PUSH2 0x605 JUMPI DUP1 PUSH4 0x67DE8BE9 EQ PUSH2 0x60D JUMPI DUP1 PUSH4 0x68300981 EQ PUSH2 0x620 JUMPI PUSH1 0x0 DUP1 REVERT JUMPDEST DUP1 PUSH4 0x5001F3B5 GT PUSH2 0x292 JUMPI DUP1 PUSH4 0x5001F3B5 EQ PUSH2 0x581 JUMPI DUP1 PUSH4 0x52BC804E EQ PUSH2 0x5A8 JUMPI DUP1 PUSH4 0x582183B2 EQ PUSH2 0x5C4 JUMPI DUP1 PUSH4 0x58C489BD EQ PUSH2 0x5D7 JUMPI PUSH1 0x0 DUP1 REVERT JUMPDEST DUP1 PUSH4 0x41A3A092 EQ PUSH2 0x548 JUMPI DUP1 PUSH4 0x4259FEA3 EQ PUSH2 0x552 JUMPI DUP1 PUSH4 0x43E4A273 EQ PUSH2 0x55A JUMPI PUSH1 0x0 DUP1 REVERT JUMPDEST DUP1 PUSH4 0x22FB9BC6 GT PUSH2 0x325 JUMPI DUP1 PUSH4 0x2ACB3810 GT PUSH2 0x2FF JUMPI DUP1 PUSH4 0x2ACB3810 EQ PUSH2 0x4E5 JUMPI DUP1 PUSH4 0x2C9C34B9 EQ PUSH2 0x4ED JUMPI DUP1 PUSH4 0x3729C317 EQ PUSH2 0x500 JUMPI DUP1 PUSH4 0x4187B7D6 EQ PUSH2 0x509 JUMPI PUSH1 0x0 DUP1 REVERT JUMPDEST DUP1 PUSH4 0x22FB9BC6 EQ PUSH2 0x454 JUMPI DUP1 PUSH4 0x26A49E37 EQ PUSH2 0x489 JUMPI DUP1 PUSH4 0x2869F965 EQ PUSH2 0x4BE JUMPI PUSH1 0x0 DUP1 REVERT JUMPDEST DUP1 PUSH4 0xF293839 GT PUSH2 0x361 JUMPI DUP1 PUSH4 0xF293839 EQ PUSH2 0x3EC JUMPI DUP1 PUSH4 0xFCE7953 EQ PUSH2 0x434 JUMPI DUP1 PUSH4 0x1827696D EQ PUSH2 0x43E JUMPI DUP1 PUSH4 0x205F4711 EQ PUSH2 0x44B JUMPI PUSH1 0x0 DUP1 REVERT JUMPDEST DUP1 PUSH4 0x8C2E225 EQ PUSH2 0x388 JUMPI DUP1 PUSH4 0x9163014 EQ PUSH2 0x39D JUMPI DUP1 PUSH4 0xEE21E54 EQ PUSH2 0x3B8 JUMPI JUMPDEST PUSH1 0x0 DUP1 REVERT JUMPDEST PUSH2 0x39B PUSH2 0x396 CALLDATASIZE PUSH1 0x4 PUSH2 0x4BE1 JUMP JUMPDEST PUSH2 0x84F JUMP JUMPDEST STOP JUMPDEST PUSH2 0x3A5 PUSH2 0x960 JUMP JUMPDEST PUSH1 0x40 MLOAD SWAP1 DUP2 MSTORE PUSH1 0x20 ADD JUMPDEST PUSH1 0x40 MLOAD DUP1 SWAP2 SUB SWAP1 RETURN JUMPDEST PUSH2 0x3DC PUSH2 0x3C6 CALLDATASIZE PUSH1 0x4 PUSH2 0x49AA JUMP JUMPDEST PUSH2 0x184 PUSH1 0x20 MSTORE PUSH1 0x0 SWAP1 DUP2 MSTORE PUSH1 0x40 SWAP1 KECCAK256 SLOAD PUSH1 0xFF AND DUP2 JUMP JUMPDEST PUSH1 0x40 MLOAD SWAP1 ISZERO ISZERO DUP2 MSTORE PUSH1 0x20 ADD PUSH2 0x3AF JUMP JUMPDEST PUSH2 0x3FF PUSH2 0x3FA CALLDATASIZE PUSH1 0x4 PUSH2 0x4B0F JUMP JUMPDEST PUSH2 0x975 JUMP JUMPDEST PUSH1 0x40 DUP1 MLOAD SWAP8 DUP9 MSTORE PUSH1 0x20 DUP9 ADD SWAP7 SWAP1 SWAP7 MSTORE SWAP5 DUP7 ADD SWAP4 SWAP1 SWAP4 MSTORE PUSH1 0x60 DUP6 ADD SWAP2 SWAP1 SWAP2 MSTORE PUSH1 0x80 DUP5 ADD MSTORE PUSH1 0xA0 DUP4 ADD MSTORE PUSH1 0xC0 DUP3 ADD MSTORE PUSH1 0xE0 ADD PUSH2 0x3AF JUMP JUMPDEST PUSH2 0x3A5 PUSH2 0x183 SLOAD DUP2 JUMP JUMPDEST PUSH2 0x3A5 PUSH6 0x5AF3107A4000 DUP2 JUMP JUMPDEST PUSH2 0x3A5 PUSH1 0x0 SLOAD DUP2 JUMP JUMPDEST PUSH2 0x467 PUSH2 0x462 CALLDATASIZE PUSH1 0x4 PUSH2 0x4B0F JUMP JUMPDEST PUSH2 0xB4D JUMP JUMPDEST PUSH1 0x40 DUP1 MLOAD SWAP5 DUP6 MSTORE PUSH1 0x20 DUP6 ADD SWAP4 SWAP1 SWAP4 MSTORE SWAP2 DUP4 ADD MSTORE ISZERO ISZERO PUSH1 0x60 DUP3 ADD MSTORE PUSH1 0x80 ADD PUSH2 0x3AF JUMP JUMPDEST PUSH2 0x49C PUSH2 0x497 CALLDATASIZE PUSH1 0x4 PUSH2 0x4B61 JUMP JUMPDEST PUSH2 0xCF1 JUMP JUMPDEST PUSH1 0x40 DUP1 MLOAD DUP3 MLOAD DUP2 MSTORE PUSH1 0x20 DUP1 DUP5 ADD MLOAD SWAP1 DUP3 ADD MSTORE SWAP2 DUP2 ADD MLOAD SWAP1 DUP3 ADD MSTORE PUSH1 0x60 ADD PUSH2 0x3AF JUMP JUMPDEST PUSH2 0x3A5 PUSH32 0x0 DUP2 JUMP JUMPDEST PUSH2 0x3A5 PUSH2 0xFFA JUMP JUMPDEST PUSH2 0x49C PUSH2 0x4FB CALLDATASIZE PUSH1 0x4 PUSH2 0x4B61 JUMP JUMPDEST PUSH2 0x100F JUMP JUMPDEST PUSH2 0x180 SLOAD PUSH2 0x3A5 JUMP JUMPDEST PUSH2 0x530 PUSH32 0x0 DUP2 JUMP JUMPDEST PUSH1 0x40 MLOAD PUSH1 0x1 PUSH1 0x1 PUSH1 0xA0 SHL SUB SWAP1 SWAP2 AND DUP2 MSTORE PUSH1 0x20 ADD PUSH2 0x3AF JUMP JUMPDEST PUSH2 0x3A5 PUSH2 0x16C SLOAD DUP2 JUMP JUMPDEST PUSH2 0x3A5 PUSH2 0x10FD JUMP JUMPDEST PUSH2 0x530 PUSH32 0x0 DUP2 JUMP JUMPDEST PUSH2 0x530 PUSH32 0x0 DUP2 JUMP JUMPDEST PUSH2 0x5B1 PUSH2 0x10E0 DUP2 JUMP JUMPDEST PUSH1 0x40 MLOAD PUSH2 0xFFFF SWAP1 SWAP2 AND DUP2 MSTORE PUSH1 0x20 ADD PUSH2 0x3AF JUMP JUMPDEST PUSH2 0x39B PUSH2 0x5D2 CALLDATASIZE PUSH1 0x4 PUSH2 0x4B61 JUMP JUMPDEST PUSH2 0x1107 JUMP JUMPDEST PUSH2 0x5EA PUSH2 0x5E5 CALLDATASIZE PUSH1 0x4 PUSH2 0x4B61 JUMP JUMPDEST PUSH2 0x124D JUMP JUMPDEST PUSH1 0x40 DUP1 MLOAD SWAP4 DUP5 MSTORE PUSH1 0x20 DUP5 ADD SWAP3 SWAP1 SWAP3 MSTORE SWAP1 DUP3 ADD MSTORE PUSH1 0x60 ADD PUSH2 0x3AF JUMP JUMPDEST PUSH2 0x3A5 PUSH2 0x1274 JUMP JUMPDEST PUSH2 0x39B PUSH2 0x61B CALLDATASIZE PUSH1 0x4 PUSH2 0x4B61 JUMP JUMPDEST PUSH2 0x1289 JUMP JUMPDEST PUSH2 0x3A5 PUSH2 0x172 SLOAD DUP2 JUMP JUMPDEST PUSH2 0x39B PUSH2 0x638 CALLDATASIZE PUSH1 0x4 PUSH2 0x4B93 JUMP JUMPDEST PUSH2 0x1378 JUMP JUMPDEST PUSH2 0x3A5 PUSH2 0x17F SLOAD DUP2 JUMP JUMPDEST PUSH2 0x39B PUSH2 0x14FF JUMP JUMPDEST PUSH2 0x3A5 PUSH2 0x174 SLOAD DUP2 JUMP JUMPDEST PUSH2 0x661 PUSH2 0x16A9 JUMP JUMPDEST PUSH1 0x40 DUP1 MLOAD SWAP7 DUP8 MSTORE PUSH1 0x20 DUP8 ADD SWAP6 SWAP1 SWAP6 MSTORE SWAP4 DUP6 ADD SWAP3 SWAP1 SWAP3 MSTORE PUSH1 0x60 DUP5 ADD MSTORE PUSH1 0x80 DUP4 ADD MSTORE PUSH1 0xA0 DUP3 ADD MSTORE PUSH1 0xC0 ADD PUSH2 0x3AF JUMP JUMPDEST PUSH2 0x3A5 PUSH2 0x17E SLOAD DUP2 JUMP JUMPDEST PUSH2 0x530 PUSH32 0x0 DUP2 JUMP JUMPDEST PUSH2 0x39B PUSH2 0x16EA JUMP JUMPDEST PUSH2 0x3A5 PUSH2 0x6D5 CALLDATASIZE PUSH1 0x4 PUSH2 0x4B61 JUMP JUMPDEST PUSH2 0x16F5 JUMP JUMPDEST PUSH2 0x3A5 PUSH2 0x17D SLOAD DUP2 JUMP JUMPDEST PUSH2 0x39B PUSH2 0x6F2 CALLDATASIZE PUSH1 0x4 PUSH2 0x4AB6 JUMP JUMPDEST PUSH2 0x170D JUMP JUMPDEST PUSH2 0x181 SLOAD PUSH2 0x530 SWAP1 PUSH1 0x1 PUSH1 0x1 PUSH1 0xA0 SHL SUB AND DUP2 JUMP JUMPDEST PUSH2 0x3A5 PUSH2 0x17B SLOAD DUP2 JUMP JUMPDEST PUSH2 0x39B PUSH2 0x723 CALLDATASIZE PUSH1 0x4 PUSH2 0x4B61 JUMP JUMPDEST PUSH2 0x1821 JUMP JUMPDEST PUSH2 0x3A5 PUSH2 0x1910 JUMP JUMPDEST PUSH2 0x530 PUSH32 0x0 DUP2 JUMP JUMPDEST PUSH2 0x39B PUSH2 0x765 CALLDATASIZE PUSH1 0x4 PUSH2 0x49AA JUMP JUMPDEST PUSH2 0x19B6 JUMP JUMPDEST PUSH2 0x3A5 PUSH32 0x0 DUP2 JUMP JUMPDEST PUSH2 0x39B PUSH2 0x79F CALLDATASIZE PUSH1 0x4 PUSH2 0x4C24 JUMP JUMPDEST PUSH2 0x1AC1 JUMP JUMPDEST PUSH2 0x3A5 PUSH2 0x171 SLOAD DUP2 JUMP JUMPDEST PUSH2 0x3FF PUSH2 0x7BC CALLDATASIZE PUSH1 0x4 PUSH2 0x4BB5 JUMP JUMPDEST PUSH2 0x1BEA JUMP JUMPDEST PUSH2 0x3A5 PUSH2 0x16F SLOAD DUP2 JUMP JUMPDEST PUSH2 0x3A5 PUSH2 0x170 SLOAD DUP2 JUMP JUMPDEST PUSH2 0x3A5 PUSH2 0x182 SLOAD DUP2 JUMP JUMPDEST PUSH2 0x3A5 PUSH2 0x16B SLOAD DUP2 JUMP JUMPDEST PUSH2 0x5EA PUSH2 0x7F7 CALLDATASIZE PUSH1 0x4 PUSH2 0x4B0F JUMP JUMPDEST PUSH2 0x1CDA JUMP JUMPDEST PUSH2 0x39B PUSH2 0x80A CALLDATASIZE PUSH1 0x4 PUSH2 0x49AA JUMP JUMPDEST PUSH2 0x1D80 JUMP JUMPDEST PUSH2 0x3A5 PUSH2 0x1E8E JUMP JUMPDEST PUSH2 0x5EA PUSH2 0x825 CALLDATASIZE PUSH1 0x4 PUSH2 0x4B61 JUMP JUMPDEST PUSH2 0x1EA3 JUMP JUMPDEST PUSH2 0x3A5 PUSH2 0x173 SLOAD DUP2 JUMP JUMPDEST PUSH2 0x3A5 PUSH2 0x17C SLOAD DUP2 JUMP JUMPDEST PUSH2 0x3A5 PUSH2 0x1EB3 JUMP JUMPDEST PUSH2 0x3A5 PUSH1 0x1 SLOAD DUP2 JUMP JUMPDEST PUSH1 0x40 MLOAD PUSH4 0x24745215 PUSH1 0xE2 SHL DUP2 MSTORE PUSH1 0x0 DUP1 MLOAD PUSH1 0x20 PUSH2 0x4FC3 DUP4 CODECOPY DUP2 MLOAD SWAP2 MSTORE PUSH1 0x4 DUP3 ADD MSTORE CALLER PUSH1 0x24 DUP3 ADD MSTORE PUSH32 0x0 PUSH1 0x1 PUSH1 0x1 PUSH1 0xA0 SHL SUB AND SWAP1 PUSH4 0x91D14854 SWAP1 PUSH1 0x44 ADD PUSH1 0x20 PUSH1 0x40 MLOAD DUP1 DUP4 SUB DUP2 DUP7 DUP1 EXTCODESIZE ISZERO DUP1 ISZERO PUSH2 0x8C2 JUMPI PUSH1 0x0 DUP1 REVERT JUMPDEST POP GAS STATICCALL ISZERO DUP1 ISZERO PUSH2 0x8D6 JUMPI RETURNDATASIZE PUSH1 0x0 DUP1 RETURNDATACOPY RETURNDATASIZE PUSH1 0x0 REVERT JUMPDEST POP POP POP POP PUSH1 0x40 MLOAD RETURNDATASIZE PUSH1 0x1F NOT PUSH1 0x1F DUP3 ADD AND DUP3 ADD DUP1 PUSH1 0x40 MSTORE POP DUP2 ADD SWAP1 PUSH2 0x8FA SWAP2 SWAP1 PUSH2 0x4A99 JUMP JUMPDEST PUSH2 0x93D JUMPI PUSH1 0x40 MLOAD PUSH3 0x461BCD PUSH1 0xE5 SHL DUP2 MSTORE PUSH1 0x20 PUSH1 0x4 DUP3 ADD MSTORE PUSH1 0xF PUSH1 0x24 DUP3 ADD MSTORE PUSH15 0x27AB262B189D10B3B7BB32B93737B9 PUSH1 0x89 SHL PUSH1 0x44 DUP3 ADD MSTORE PUSH1 0x64 ADD JUMPDEST PUSH1 0x40 MLOAD DUP1 SWAP2 SUB SWAP1 REVERT JUMPDEST PUSH2 0x16B SWAP6 SWAP1 SWAP6 SSTORE PUSH2 0x16C SWAP4 SWAP1 SWAP4 SSTORE PUSH2 0x16A SWAP2 SWAP1 SWAP2 SSTORE PUSH2 0x171 SSTORE PUSH2 0x170 SSTORE PUSH2 0x16F SSTORE JUMP JUMPDEST PUSH1 0x0 PUSH2 0x96A PUSH2 0x16A9 JUMP JUMPDEST POP SWAP3 SWAP6 SWAP5 POP POP POP POP POP JUMP JUMPDEST CALLER PUSH1 0x0 SWAP1 DUP2 MSTORE PUSH2 0x184 PUSH1 0x20 MSTORE PUSH1 0x40 DUP2 KECCAK256 SLOAD DUP2 SWAP1 DUP2 SWAP1 DUP2 SWAP1 DUP2 SWAP1 DUP2 SWAP1 DUP2 SWAP1 PUSH1 0xFF AND PUSH2 0x9D5 JUMPI PUSH1 0x40 MLOAD PUSH3 0x461BCD PUSH1 0xE5 SHL DUP2 MSTORE PUSH1 0x20 PUSH1 0x4 DUP3 ADD MSTORE PUSH1 0x11 PUSH1 0x24 DUP3 ADD MSTORE PUSH17 0x13D593158C4E8858DBDB1B185D195C985B PUSH1 0x7A SHL PUSH1 0x44 DUP3 ADD MSTORE PUSH1 0x64 ADD PUSH2 0x934 JUMP JUMPDEST PUSH2 0x9DD PUSH2 0x273E JUMP JUMPDEST PUSH2 0x180 SLOAD SWAP3 POP SWAP1 POP PUSH1 0x0 PUSH2 0x9F1 DUP10 DUP12 PUSH2 0x4DEB JUMP JUMPDEST SWAP1 POP PUSH1 0x0 DUP1 PUSH2 0xA00 DUP14 DUP5 PUSH2 0x27FB JUMP JUMPDEST SWAP2 POP SWAP2 POP PUSH2 0xA9F PUSH32 0x0 PUSH1 0x1 PUSH1 0x1 PUSH1 0xA0 SHL SUB AND PUSH4 0xDDCA3F43 PUSH1 0x40 MLOAD DUP2 PUSH4 0xFFFFFFFF AND PUSH1 0xE0 SHL DUP2 MSTORE PUSH1 0x4 ADD PUSH1 0x20 PUSH1 0x40 MLOAD DUP1 DUP4 SUB DUP2 DUP7 DUP1 EXTCODESIZE ISZERO DUP1 ISZERO PUSH2 0xA60 JUMPI PUSH1 0x0 DUP1 REVERT JUMPDEST POP GAS STATICCALL ISZERO DUP1 ISZERO PUSH2 0xA74 JUMPI RETURNDATASIZE PUSH1 0x0 DUP1 RETURNDATACOPY RETURNDATASIZE PUSH1 0x0 REVERT JUMPDEST POP POP POP POP PUSH1 0x40 MLOAD RETURNDATASIZE PUSH1 0x1F NOT PUSH1 0x1F DUP3 ADD AND DUP3 ADD DUP1 PUSH1 0x40 MSTORE POP DUP2 ADD SWAP1 PUSH2 0xA98 SWAP2 SWAP1 PUSH2 0x4B7A JUMP JUMPDEST DUP5 SWAP1 PUSH2 0x284D JUMP JUMPDEST SWAP7 POP DUP2 SWAP6 POP DUP7 DUP7 PUSH6 0x5AF3107A4000 PUSH2 0xAB7 SWAP2 SWAP1 PUSH2 0x4D5B JUMP JUMPDEST PUSH2 0xAC1 SWAP2 SWAP1 PUSH2 0x4D5B JUMP JUMPDEST DUP13 LT ISZERO PUSH2 0xB03 JUMPI PUSH1 0x40 MLOAD PUSH3 0x461BCD PUSH1 0xE5 SHL DUP2 MSTORE PUSH1 0x20 PUSH1 0x4 DUP3 ADD MSTORE PUSH1 0x10 PUSH1 0x24 DUP3 ADD MSTORE PUSH16 0x27AB262B189D31B7B63630BA1E36B4B7 PUSH1 0x81 SHL PUSH1 0x44 DUP3 ADD MSTORE PUSH1 0x64 ADD PUSH2 0x934 JUMP JUMPDEST DUP7 PUSH2 0xB0E DUP4 DUP15 PUSH2 0x4E82 JUMP JUMPDEST PUSH2 0xB18 SWAP2 SWAP1 PUSH2 0x4E82 JUMP JUMPDEST SWAP9 POP PUSH2 0xB24 DUP12 DUP11 PUSH2 0x4DEB JUMP JUMPDEST SWAP10 POP PUSH2 0xB30 DUP10 DUP12 PUSH2 0x4E82 JUMP JUMPDEST SWAP8 POP PUSH2 0xB3D DUP14 DUP12 DUP4 PUSH2 0x2897 JUMP JUMPDEST POP POP POP SWAP4 SWAP8 POP SWAP4 SWAP8 POP SWAP4 SWAP8 SWAP1 SWAP5 POP JUMP JUMPDEST CALLER PUSH1 0x0 SWAP1 DUP2 MSTORE PUSH2 0x184 PUSH1 0x20 MSTORE PUSH1 0x40 DUP2 KECCAK256 SLOAD DUP2 SWAP1 DUP2 SWAP1 DUP2 SWAP1 PUSH1 0xFF AND PUSH2 0xBA7 JUMPI PUSH1 0x40 MLOAD PUSH3 0x461BCD PUSH1 0xE5 SHL DUP2 MSTORE PUSH1 0x20 PUSH1 0x4 DUP3 ADD MSTORE PUSH1 0x11 PUSH1 0x24 DUP3 ADD MSTORE PUSH17 0x13D593158C4E8858DBDB1B185D195C985B PUSH1 0x7A SHL PUSH1 0x44 DUP3 ADD MSTORE PUSH1 0x64 ADD PUSH2 0x934 JUMP JUMPDEST PUSH2 0xBAF PUSH2 0x292E JUMP JUMPDEST PUSH2 0x180 SLOAD SWAP1 DUP7 GT SWAP2 POP PUSH1 0x0 SWAP1 PUSH2 0xBC7 SWAP1 PUSH1 0x1 SWAP1 PUSH2 0x4E82 JUMP JUMPDEST SWAP1 POP DUP1 DUP8 GT ISZERO PUSH2 0xC0A JUMPI PUSH1 0x40 MLOAD PUSH3 0x461BCD PUSH1 0xE5 SHL DUP2 MSTORE PUSH1 0x20 PUSH1 0x4 DUP3 ADD MSTORE PUSH1 0xE PUSH1 0x24 DUP3 ADD MSTORE PUSH14 0x13D593158C4E885CD95D1D1B1959 PUSH1 0x92 SHL PUSH1 0x44 DUP3 ADD MSTORE PUSH1 0x64 ADD PUSH2 0x934 JUMP JUMPDEST PUSH1 0x0 PUSH2 0x180 DUP9 DUP2 SLOAD DUP2 LT PUSH2 0xC20 JUMPI PUSH2 0xC20 PUSH2 0x4F73 JUMP JUMPDEST SWAP1 PUSH1 0x0 MSTORE PUSH1 0x20 PUSH1 0x0 KECCAK256 SWAP1 PUSH1 0x3 MUL ADD SWAP1 POP PUSH1 0x0 PUSH2 0x180 DUP4 DUP2 SLOAD DUP2 LT PUSH2 0xC46 JUMPI PUSH2 0xC46 PUSH2 0x4F73 JUMP JUMPDEST SWAP1 PUSH1 0x0 MSTORE PUSH1 0x20 PUSH1 0x0 KECCAK256 SWAP1 PUSH1 0x3 MUL ADD SWAP1 POP DUP10 PUSH2 0xC70 JUMPI DUP2 SLOAD PUSH1 0x1 DUP3 ADD SLOAD PUSH2 0xC6B SWAP2 PUSH2 0x2A13 JUMP JUMPDEST PUSH2 0xC8E JUMP JUMPDEST PUSH1 0x1 DUP3 ADD SLOAD DUP2 SLOAD PUSH2 0xC8E SWAP2 PUSH2 0xC85 SWAP2 SWAP1 PUSH2 0x2A8C JUMP JUMPDEST PUSH2 0x183 SLOAD PUSH2 0x2ADE JUMP JUMPDEST SWAP5 POP DUP4 ISZERO PUSH2 0xCBF JUMPI PUSH2 0x179 SLOAD PUSH2 0x17A SLOAD DUP12 ISZERO PUSH2 0xCB1 JUMPI DUP2 SWAP9 POP DUP9 DUP3 SWAP9 POP POP PUSH2 0xCB8 JUMP JUMPDEST SWAP8 POP DUP8 SWAP7 POP DUP7 JUMPDEST POP POP PUSH2 0xCE5 JUMP JUMPDEST DUP10 ISZERO PUSH2 0xCD7 JUMPI PUSH2 0x175 SLOAD PUSH2 0x177 SLOAD SWAP1 SWAP8 POP SWAP6 POP PUSH2 0xCE5 JUMP JUMPDEST PUSH2 0x176 SLOAD PUSH2 0x178 SLOAD SWAP1 SWAP8 POP SWAP6 POP JUMPDEST POP POP POP SWAP4 POP SWAP4 POP SWAP4 POP SWAP4 JUMP JUMPDEST PUSH2 0xD15 PUSH1 0x40 MLOAD DUP1 PUSH1 0x60 ADD PUSH1 0x40 MSTORE DUP1 PUSH1 0x0 DUP2 MSTORE PUSH1 0x20 ADD PUSH1 0x0 DUP2 MSTORE PUSH1 0x20 ADD PUSH1 0x0 DUP2 MSTORE POP SWAP1 JUMP JUMPDEST PUSH1 0x40 DUP1 MLOAD PUSH1 0x3 DUP1 DUP3 MSTORE PUSH1 0x80 DUP3 ADD SWAP1 SWAP3 MSTORE PUSH1 0x0 SWAP2 PUSH1 0x20 DUP3 ADD PUSH1 0x60 DUP1 CALLDATASIZE DUP4 CALLDATACOPY ADD SWAP1 POP POP SWAP1 POP PUSH2 0xD62 PUSH32 0x0 DUP5 PUSH2 0x4D5B JUMP JUMPDEST DUP2 PUSH1 0x0 DUP2 MLOAD DUP2 LT PUSH2 0xD75 JUMPI PUSH2 0xD75 PUSH2 0x4F73 JUMP JUMPDEST PUSH4 0xFFFFFFFF SWAP1 SWAP3 AND PUSH1 0x20 SWAP3 DUP4 MUL SWAP2 SWAP1 SWAP2 ADD SWAP1 SWAP2 ADD MSTORE PUSH2 0xDB4 PUSH32 0x0 DUP5 PUSH2 0x4D5B JUMP JUMPDEST DUP2 PUSH1 0x1 DUP2 MLOAD DUP2 LT PUSH2 0xDC7 JUMPI PUSH2 0xDC7 PUSH2 0x4F73 JUMP JUMPDEST PUSH1 0x20 MUL PUSH1 0x20 ADD ADD SWAP1 PUSH4 0xFFFFFFFF AND SWAP1 DUP2 PUSH4 0xFFFFFFFF AND DUP2 MSTORE POP POP DUP3 DUP2 PUSH1 0x2 DUP2 MLOAD DUP2 LT PUSH2 0xDF5 JUMPI PUSH2 0xDF5 PUSH2 0x4F73 JUMP JUMPDEST PUSH4 0xFFFFFFFF SWAP1 SWAP3 AND PUSH1 0x20 SWAP3 DUP4 MUL SWAP2 SWAP1 SWAP2 ADD SWAP1 SWAP2 ADD MSTORE PUSH1 0x40 MLOAD PUSH4 0x883BDBFD PUSH1 0xE0 SHL DUP2 MSTORE PUSH1 0x0 SWAP1 PUSH1 0x1 PUSH1 0x1 PUSH1 0xA0 SHL SUB PUSH32 0x0 AND SWAP1 PUSH4 0x883BDBFD SWAP1 PUSH2 0xE59 SWAP1 DUP6 SWAP1 PUSH1 0x4 ADD PUSH2 0x4C96 JUMP JUMPDEST PUSH1 0x0 PUSH1 0x40 MLOAD DUP1 DUP4 SUB DUP2 DUP7 DUP1 EXTCODESIZE ISZERO DUP1 ISZERO PUSH2 0xE71 JUMPI PUSH1 0x0 DUP1 REVERT JUMPDEST POP GAS STATICCALL ISZERO DUP1 ISZERO PUSH2 0xE85 JUMPI RETURNDATASIZE PUSH1 0x0 DUP1 RETURNDATACOPY RETURNDATASIZE PUSH1 0x0 REVERT JUMPDEST POP POP POP POP PUSH1 0x40 MLOAD RETURNDATASIZE PUSH1 0x0 DUP3 RETURNDATACOPY PUSH1 0x1F RETURNDATASIZE SWAP1 DUP2 ADD PUSH1 0x1F NOT AND DUP3 ADD PUSH1 0x40 MSTORE PUSH2 0xEAD SWAP2 SWAP1 DUP2 ADD SWAP1 PUSH2 0x49C7 JUMP JUMPDEST POP SWAP1 POP PUSH1 0x0 PUSH2 0xF8B PUSH32 0x0 PUSH1 0x3 SIGNEXTEND DUP4 PUSH1 0x0 DUP2 MLOAD DUP2 LT PUSH2 0xEEC JUMPI PUSH2 0xEEC PUSH2 0x4F73 JUMP JUMPDEST PUSH1 0x20 MUL PUSH1 0x20 ADD ADD MLOAD DUP5 PUSH1 0x2 DUP2 MLOAD DUP2 LT PUSH2 0xF07 JUMPI PUSH2 0xF07 PUSH2 0x4F73 JUMP JUMPDEST PUSH1 0x20 MUL PUSH1 0x20 ADD ADD MLOAD PUSH2 0xF19 SWAP2 SWAP1 PUSH2 0x4E0A JUMP JUMPDEST PUSH2 0xF23 SWAP2 SWAP1 PUSH2 0x4D73 JUMP JUMPDEST PUSH32 0x0 PUSH32 0x0 PUSH32 0x0 PUSH2 0x20A0 JUMP JUMPDEST SWAP1 POP PUSH1 0x0 PUSH2 0xFE4 PUSH32 0x0 PUSH1 0x3 SIGNEXTEND DUP5 PUSH1 0x1 DUP2 MLOAD DUP2 LT PUSH2 0xFC9 JUMPI PUSH2 0xFC9 PUSH2 0x4F73 JUMP JUMPDEST PUSH1 0x20 MUL PUSH1 0x20 ADD ADD MLOAD DUP6 PUSH1 0x2 DUP2 MLOAD DUP2 LT PUSH2 0xF07 JUMPI PUSH2 0xF07 PUSH2 0x4F73 JUMP JUMPDEST SWAP1 POP PUSH2 0xFF0 DUP2 DUP4 PUSH2 0x2AF4 JUMP JUMPDEST SWAP7 SWAP6 POP POP POP POP POP POP JUMP JUMPDEST PUSH1 0x0 PUSH2 0x1004 PUSH2 0x16A9 JUMP JUMPDEST POP SWAP2 SWAP6 SWAP5 POP POP POP POP POP JUMP JUMPDEST PUSH2 0x1033 PUSH1 0x40 MLOAD DUP1 PUSH1 0x60 ADD PUSH1 0x40 MSTORE DUP1 PUSH1 0x0 DUP2 MSTORE PUSH1 0x20 ADD PUSH1 0x0 DUP2 MSTORE PUSH1 0x20 ADD PUSH1 0x0 DUP2 MSTORE POP SWAP1 JUMP JUMPDEST PUSH2 0x180 SLOAD DUP1 DUP4 LT DUP1 PUSH2 0x1051 JUMPI POP DUP1 DUP4 EQ DUP1 ISZERO PUSH2 0x1051 JUMPI POP TIMESTAMP PUSH2 0x17E SLOAD LT JUMPDEST PUSH2 0x108E JUMPI PUSH1 0x40 MLOAD PUSH3 0x461BCD PUSH1 0xE5 SHL DUP2 MSTORE PUSH1 0x20 PUSH1 0x4 DUP3 ADD MSTORE PUSH1 0xE PUSH1 0x24 DUP3 ADD MSTORE PUSH14 0x13D593158C4E885CD95D1D1B1959 PUSH1 0x92 SHL PUSH1 0x44 DUP3 ADD MSTORE PUSH1 0x64 ADD PUSH2 0x934 JUMP JUMPDEST DUP1 DUP4 EQ ISZERO PUSH2 0x10A9 JUMPI PUSH2 0x10A2 PUSH2 0x17E SLOAD PUSH2 0xCF1 JUMP JUMPDEST SWAP2 POP PUSH2 0x10F7 JUMP JUMPDEST PUSH2 0x180 DUP4 DUP2 SLOAD DUP2 LT PUSH2 0x10BD JUMPI PUSH2 0x10BD PUSH2 0x4F73 JUMP JUMPDEST SWAP1 PUSH1 0x0 MSTORE PUSH1 0x20 PUSH1 0x0 KECCAK256 SWAP1 PUSH1 0x3 MUL ADD PUSH1 0x40 MLOAD DUP1 PUSH1 0x60 ADD PUSH1 0x40 MSTORE SWAP1 DUP2 PUSH1 0x0 DUP3 ADD SLOAD DUP2 MSTORE PUSH1 0x20 ADD PUSH1 0x1 DUP3 ADD SLOAD DUP2 MSTORE PUSH1 0x20 ADD PUSH1 0x2 DUP3 ADD SLOAD DUP2 MSTORE POP POP SWAP2 POP JUMPDEST POP SWAP2 SWAP1 POP JUMP JUMPDEST PUSH1 0x0 PUSH2 0xFF0 PUSH2 0x16A9 JUMP JUMPDEST PUSH1 0x40 MLOAD PUSH4 0x24745215 PUSH1 0xE2 SHL DUP2 MSTORE PUSH1 0x0 DUP1 MLOAD PUSH1 0x20 PUSH2 0x4FC3 DUP4 CODECOPY DUP2 MLOAD SWAP2 MSTORE PUSH1 0x4 DUP3 ADD MSTORE CALLER PUSH1 0x24 DUP3 ADD MSTORE PUSH32 0x0 PUSH1 0x1 PUSH1 0x1 PUSH1 0xA0 SHL SUB AND SWAP1 PUSH4 0x91D14854 SWAP1 PUSH1 0x44 ADD PUSH1 0x20 PUSH1 0x40 MLOAD DUP1 DUP4 SUB DUP2 DUP7 DUP1 EXTCODESIZE ISZERO DUP1 ISZERO PUSH2 0x117A JUMPI PUSH1 0x0 DUP1 REVERT JUMPDEST POP GAS STATICCALL ISZERO DUP1 ISZERO PUSH2 0x118E JUMPI RETURNDATASIZE PUSH1 0x0 DUP1 RETURNDATACOPY RETURNDATASIZE PUSH1 0x0 REVERT JUMPDEST POP POP POP POP PUSH1 0x40 MLOAD RETURNDATASIZE PUSH1 0x1F NOT PUSH1 0x1F DUP3 ADD AND DUP3 ADD DUP1 PUSH1 0x40 MSTORE POP DUP2 ADD SWAP1 PUSH2 0x11B2 SWAP2 SWAP1 PUSH2 0x4A99 JUMP JUMPDEST PUSH2 0x11F0 JUMPI PUSH1 0x40 MLOAD PUSH3 0x461BCD PUSH1 0xE5 SHL DUP2 MSTORE PUSH1 0x20 PUSH1 0x4 DUP3 ADD MSTORE PUSH1 0xF PUSH1 0x24 DUP3 ADD MSTORE PUSH15 0x27AB262B189D10B3B7BB32B93737B9 PUSH1 0x89 SHL PUSH1 0x44 DUP3 ADD MSTORE PUSH1 0x64 ADD PUSH2 0x934 JUMP JUMPDEST DUP1 PUSH8 0xDE0B6B3A7640000 LT PUSH2 0x1247 JUMPI PUSH1 0x40 MLOAD PUSH3 0x461BCD PUSH1 0xE5 SHL DUP2 MSTORE PUSH1 0x20 PUSH1 0x4 DUP3 ADD MSTORE PUSH1 0x11 PUSH1 0x24 DUP3 ADD MSTORE PUSH32 0x4F564C56313A2170726963654672616D65000000000000000000000000000000 PUSH1 0x44 DUP3 ADD MSTORE PUSH1 0x64 ADD PUSH2 0x934 JUMP JUMPDEST PUSH2 0x183 SSTORE JUMP JUMPDEST PUSH1 0xB6 DUP2 PUSH1 0x3C DUP2 LT PUSH2 0x125D JUMPI PUSH1 0x0 DUP1 REVERT JUMPDEST PUSH1 0x3 MUL ADD DUP1 SLOAD PUSH1 0x1 DUP3 ADD SLOAD PUSH1 0x2 SWAP1 SWAP3 ADD SLOAD SWAP1 SWAP3 POP DUP4 JUMP JUMPDEST PUSH1 0x0 PUSH2 0x127E PUSH2 0x16A9 JUMP JUMPDEST POP SWAP4 SWAP6 SWAP5 POP POP POP POP POP JUMP JUMPDEST PUSH1 0x40 MLOAD PUSH4 0x24745215 PUSH1 0xE2 SHL DUP2 MSTORE PUSH1 0x0 DUP1 MLOAD PUSH1 0x20 PUSH2 0x4FC3 DUP4 CODECOPY DUP2 MLOAD SWAP2 MSTORE PUSH1 0x4 DUP3 ADD MSTORE CALLER PUSH1 0x24 DUP3 ADD MSTORE PUSH32 0x0 PUSH1 0x1 PUSH1 0x1 PUSH1 0xA0 SHL SUB AND SWAP1 PUSH4 0x91D14854 SWAP1 PUSH1 0x44 ADD PUSH1 0x20 PUSH1 0x40 MLOAD DUP1 DUP4 SUB DUP2 DUP7 DUP1 EXTCODESIZE ISZERO DUP1 ISZERO PUSH2 0x12FC JUMPI PUSH1 0x0 DUP1 REVERT JUMPDEST POP GAS STATICCALL ISZERO DUP1 ISZERO PUSH2 0x1310 JUMPI RETURNDATASIZE PUSH1 0x0 DUP1 RETURNDATACOPY RETURNDATASIZE PUSH1 0x0 REVERT JUMPDEST POP POP POP POP PUSH1 0x40 MLOAD RETURNDATASIZE PUSH1 0x1F NOT PUSH1 0x1F DUP3 ADD AND DUP3 ADD DUP1 PUSH1 0x40 MSTORE POP DUP2 ADD SWAP1 PUSH2 0x1334 SWAP2 SWAP1 PUSH2 0x4A99 JUMP JUMPDEST PUSH2 0x1372 JUMPI PUSH1 0x40 MLOAD PUSH3 0x461BCD PUSH1 0xE5 SHL DUP2 MSTORE PUSH1 0x20 PUSH1 0x4 DUP3 ADD MSTORE PUSH1 0xF PUSH1 0x24 DUP3 ADD MSTORE PUSH15 0x27AB262B189D10B3B7BB32B93737B9 PUSH1 0x89 SHL PUSH1 0x44 DUP3 ADD MSTORE PUSH1 0x64 ADD PUSH2 0x934 JUMP JUMPDEST PUSH2 0x17B SSTORE JUMP JUMPDEST PUSH1 0x40 MLOAD PUSH4 0x24745215 PUSH1 0xE2 SHL DUP2 MSTORE PUSH1 0x0 DUP1 MLOAD PUSH1 0x20 PUSH2 0x4FC3 DUP4 CODECOPY DUP2 MLOAD SWAP2 MSTORE PUSH1 0x4 DUP3 ADD MSTORE CALLER PUSH1 0x24 DUP3 ADD MSTORE PUSH32 0x0 PUSH1 0x1 PUSH1 0x1 PUSH1 0xA0 SHL SUB AND SWAP1 PUSH4 0x91D14854 SWAP1 PUSH1 0x44 ADD PUSH1 0x20 PUSH1 0x40 MLOAD DUP1 DUP4 SUB DUP2 DUP7 DUP1 EXTCODESIZE ISZERO DUP1 ISZERO PUSH2 0x13EB JUMPI PUSH1 0x0 DUP1 REVERT JUMPDEST POP GAS STATICCALL ISZERO DUP1 ISZERO PUSH2 0x13FF JUMPI RETURNDATASIZE PUSH1 0x0 DUP1 RETURNDATACOPY RETURNDATASIZE PUSH1 0x0 REVERT JUMPDEST POP POP POP POP PUSH1 0x40 MLOAD RETURNDATASIZE PUSH1 0x1F NOT PUSH1 0x1F DUP3 ADD AND DUP3 ADD DUP1 PUSH1 0x40 MSTORE POP DUP2 ADD SWAP1 PUSH2 0x1423 SWAP2 SWAP1 PUSH2 0x4A99 JUMP JUMPDEST PUSH2 0x1461 JUMPI PUSH1 0x40 MLOAD PUSH3 0x461BCD PUSH1 0xE5 SHL DUP2 MSTORE PUSH1 0x20 PUSH1 0x4 DUP3 ADD MSTORE PUSH1 0xF PUSH1 0x24 DUP3 ADD MSTORE PUSH15 0x27AB262B189D10B3B7BB32B93737B9 PUSH1 0x89 SHL PUSH1 0x44 DUP3 ADD MSTORE PUSH1 0x64 ADD PUSH2 0x934 JUMP JUMPDEST PUSH1 0x1 DUP3 LT ISZERO PUSH2 0x14A2 JUMPI PUSH1 0x40 MLOAD PUSH3 0x461BCD PUSH1 0xE5 SHL DUP2 MSTORE PUSH1 0x20 PUSH1 0x4 DUP3 ADD MSTORE PUSH1 0xD PUSH1 0x24 DUP3 ADD MSTORE PUSH13 0x4F564C56313A21757064617465 PUSH1 0x98 SHL PUSH1 0x44 DUP3 ADD MSTORE PUSH1 0x64 ADD PUSH2 0x934 JUMP JUMPDEST DUP1 DUP3 GT ISZERO PUSH2 0x14F2 JUMPI PUSH1 0x40 MLOAD PUSH3 0x461BCD PUSH1 0xE5 SHL DUP2 MSTORE PUSH1 0x20 PUSH1 0x4 DUP3 ADD MSTORE PUSH1 0x15 PUSH1 0x24 DUP3 ADD MSTORE PUSH32 0x4F564C56313A7570646174653E636F6D706F756E640000000000000000000000 PUSH1 0x44 DUP3 ADD MSTORE PUSH1 0x64 ADD PUSH2 0x934 JUMP JUMPDEST PUSH2 0x17D SWAP2 SWAP1 SWAP2 SSTORE PUSH2 0x173 SSTORE JUMP JUMPDEST PUSH1 0x40 MLOAD PUSH4 0x24745215 PUSH1 0xE2 SHL DUP2 MSTORE PUSH1 0x0 DUP1 MLOAD PUSH1 0x20 PUSH2 0x4FC3 DUP4 CODECOPY DUP2 MLOAD SWAP2 MSTORE PUSH1 0x4 DUP3 ADD MSTORE CALLER PUSH1 0x24 DUP3 ADD MSTORE PUSH32 0x0 PUSH1 0x1 PUSH1 0x1 PUSH1 0xA0 SHL SUB AND SWAP1 PUSH4 0x91D14854 SWAP1 PUSH1 0x44 ADD PUSH1 0x20 PUSH1 0x40 MLOAD DUP1 DUP4 SUB DUP2 DUP7 DUP1 EXTCODESIZE ISZERO DUP1 ISZERO PUSH2 0x1572 JUMPI PUSH1 0x0 DUP1 REVERT JUMPDEST POP GAS STATICCALL ISZERO DUP1 ISZERO PUSH2 0x1586 JUMPI RETURNDATASIZE PUSH1 0x0 DUP1 RETURNDATACOPY RETURNDATASIZE PUSH1 0x0 REVERT JUMPDEST POP POP POP POP PUSH1 0x40 MLOAD RETURNDATASIZE PUSH1 0x1F NOT PUSH1 0x1F DUP3 ADD AND DUP3 ADD DUP1 PUSH1 0x40 MSTORE POP DUP2 ADD SWAP1 PUSH2 0x15AA SWAP2 SWAP1 PUSH2 0x4A99 JUMP JUMPDEST PUSH2 0x15E8 JUMPI PUSH1 0x40 MLOAD PUSH3 0x461BCD PUSH1 0xE5 SHL DUP2 MSTORE PUSH1 0x20 PUSH1 0x4 DUP3 ADD MSTORE PUSH1 0xF PUSH1 0x24 DUP3 ADD MSTORE PUSH15 0x27AB262B189D10B3B7BB32B93737B9 PUSH1 0x89 SHL PUSH1 0x44 DUP3 ADD MSTORE PUSH1 0x64 ADD PUSH2 0x934 JUMP JUMPDEST PUSH32 0x0 PUSH1 0x1 PUSH1 0x1 PUSH1 0xA0 SHL SUB AND PUSH4 0xB29FA9C3 PUSH1 0x40 MLOAD DUP2 PUSH4 0xFFFFFFFF AND PUSH1 0xE0 SHL DUP2 MSTORE PUSH1 0x4 ADD PUSH1 0x20 PUSH1 0x40 MLOAD DUP1 DUP4 SUB DUP2 DUP7 DUP1 EXTCODESIZE ISZERO DUP1 ISZERO PUSH2 0x1641 JUMPI PUSH1 0x0 DUP1 REVERT JUMPDEST POP GAS STATICCALL ISZERO DUP1 ISZERO PUSH2 0x1655 JUMPI RETURNDATASIZE PUSH1 0x0 DUP1 RETURNDATACOPY RETURNDATASIZE PUSH1 0x0 REVERT JUMPDEST POP POP POP POP PUSH1 0x40 MLOAD RETURNDATASIZE PUSH1 0x1F NOT PUSH1 0x1F DUP3 ADD AND DUP3 ADD DUP1 PUSH1 0x40 MSTORE POP DUP2 ADD SWAP1 PUSH2 0x1679 SWAP2 SWAP1 PUSH2 0x4B44 JUMP JUMPDEST PUSH2 0x181 DUP1 SLOAD PUSH20 0xFFFFFFFFFFFFFFFFFFFFFFFFFFFFFFFFFFFFFFFF NOT AND PUSH1 0x1 PUSH1 0x1 PUSH1 0xA0 SHL SUB SWAP3 SWAP1 SWAP3 AND SWAP2 SWAP1 SWAP2 OR SWAP1 SSTORE JUMP JUMPDEST PUSH1 0x0 DUP1 PUSH1 0x0 DUP1 PUSH1 0x0 DUP1 PUSH1 0x0 PUSH2 0x16C5 TIMESTAMP PUSH2 0x17F SLOAD PUSH2 0x17E SLOAD PUSH2 0x1BEA JUMP JUMPDEST POP POP SWAP5 POP POP POP POP POP PUSH2 0x16D6 DUP2 PUSH2 0x2B9D JUMP JUMPDEST SWAP5 SWAP13 SWAP4 SWAP12 POP SWAP2 SWAP10 POP SWAP8 POP SWAP6 POP SWAP1 SWAP4 POP SWAP2 POP POP JUMP JUMPDEST PUSH2 0x16F2 PUSH2 0x2C31 JUMP JUMPDEST POP JUMP JUMPDEST PUSH2 0x16D DUP2 PUSH1 0x2 DUP2 LT PUSH2 0x1706 JUMPI PUSH1 0x0 DUP1 REVERT JUMPDEST ADD SLOAD SWAP1 POP DUP2 JUMP JUMPDEST CALLER PUSH1 0x0 SWAP1 DUP2 MSTORE PUSH2 0x184 PUSH1 0x20 MSTORE PUSH1 0x40 SWAP1 KECCAK256 SLOAD PUSH1 0xFF AND PUSH2 0x1761 JUMPI PUSH1 0x40 MLOAD PUSH3 0x461BCD PUSH1 0xE5 SHL DUP2 MSTORE PUSH1 0x20 PUSH1 0x4 DUP3 ADD MSTORE PUSH1 0x11 PUSH1 0x24 DUP3 ADD MSTORE PUSH17 0x13D593158C4E8858DBDB1B185D195C985B PUSH1 0x7A SHL PUSH1 0x44 DUP3 ADD MSTORE PUSH1 0x64 ADD PUSH2 0x934 JUMP JUMPDEST PUSH2 0x176B DUP3 DUP3 PUSH2 0x2CDE JUMP JUMPDEST DUP5 ISZERO PUSH2 0x17A8 JUMPI DUP6 ISZERO PUSH2 0x1795 JUMPI DUP4 PUSH2 0x179 PUSH1 0x0 DUP3 DUP3 SLOAD PUSH2 0x178A SWAP2 SWAP1 PUSH2 0x4E82 JUMP JUMPDEST SWAP1 SWAP2 SSTORE POP PUSH2 0x1819 SWAP1 POP JUMP JUMPDEST DUP4 PUSH2 0x17A PUSH1 0x0 DUP3 DUP3 SLOAD PUSH2 0x178A SWAP2 SWAP1 PUSH2 0x4E82 JUMP JUMPDEST DUP6 ISZERO PUSH2 0x17E6 JUMPI DUP4 PUSH2 0x175 PUSH1 0x0 DUP3 DUP3 SLOAD PUSH2 0x17C1 SWAP2 SWAP1 PUSH2 0x4E82 JUMP JUMPDEST SWAP3 POP POP DUP2 SWAP1 SSTORE DUP4 PUSH2 0x177 PUSH1 0x0 DUP3 DUP3 SLOAD PUSH2 0x17DA SWAP2 SWAP1 PUSH2 0x4E82 JUMP JUMPDEST SWAP1 SWAP2 SSTORE POP PUSH2 0x1819 SWAP2 POP POP JUMP JUMPDEST DUP4 PUSH2 0x176 PUSH1 0x0 DUP3 DUP3 SLOAD PUSH2 0x17F9 SWAP2 SWAP1 PUSH2 0x4E82 JUMP JUMPDEST SWAP3 POP POP DUP2 SWAP1 SSTORE DUP4 PUSH2 0x178 PUSH1 0x0 DUP3 DUP3 SLOAD PUSH2 0x1812 SWAP2 SWAP1 PUSH2 0x4E82 JUMP JUMPDEST SWAP1 SWAP2 SSTORE POP POP POP JUMPDEST POP POP POP POP POP POP JUMP JUMPDEST PUSH1 0x40 MLOAD PUSH4 0x24745215 PUSH1 0xE2 SHL DUP2 MSTORE PUSH1 0x0 DUP1 MLOAD PUSH1 0x20 PUSH2 0x4FC3 DUP4 CODECOPY DUP2 MLOAD SWAP2 MSTORE PUSH1 0x4 DUP3 ADD MSTORE CALLER PUSH1 0x24 DUP3 ADD MSTORE PUSH32 0x0 PUSH1 0x1 PUSH1 0x1 PUSH1 0xA0 SHL SUB AND SWAP1 PUSH4 0x91D14854 SWAP1 PUSH1 0x44 ADD PUSH1 0x20 PUSH1 0x40 MLOAD DUP1 DUP4 SUB DUP2 DUP7 DUP1 EXTCODESIZE ISZERO DUP1 ISZERO PUSH2 0x1894 JUMPI PUSH1 0x0 DUP1 REVERT JUMPDEST POP GAS STATICCALL ISZERO DUP1 ISZERO PUSH2 0x18A8 JUMPI RETURNDATASIZE PUSH1 0x0 DUP1 RETURNDATACOPY RETURNDATASIZE PUSH1 0x0 REVERT JUMPDEST POP POP POP POP PUSH1 0x40 MLOAD RETURNDATASIZE PUSH1 0x1F NOT PUSH1 0x1F DUP3 ADD AND DUP3 ADD DUP1 PUSH1 0x40 MSTORE POP DUP2 ADD SWAP1 PUSH2 0x18CC SWAP2 SWAP1 PUSH2 0x4A99 JUMP JUMPDEST PUSH2 0x190A JUMPI PUSH1 0x40 MLOAD PUSH3 0x461BCD PUSH1 0xE5 SHL DUP2 MSTORE PUSH1 0x20 PUSH1 0x4 DUP3 ADD MSTORE PUSH1 0xF PUSH1 0x24 DUP3 ADD MSTORE PUSH15 0x27AB262B189D10B3B7BB32B93737B9 PUSH1 0x89 SHL PUSH1 0x44 DUP3 ADD MSTORE PUSH1 0x64 ADD PUSH2 0x934 JUMP JUMPDEST PUSH2 0x17C SSTORE JUMP JUMPDEST PUSH1 0x0 DUP1 PUSH1 0x0 PUSH2 0x191D PUSH2 0x2E02 JUMP JUMPDEST PUSH2 0x171 SLOAD SWAP2 SWAP4 POP SWAP2 POP DUP3 DUP3 GT ISZERO PUSH2 0x194A JUMPI PUSH2 0x1942 PUSH2 0x16A SLOAD PUSH2 0x193D PUSH2 0x2E92 JUMP JUMPDEST PUSH2 0x2ADE JUMP JUMPDEST SWAP4 POP POP POP POP SWAP1 JUMP JUMPDEST PUSH2 0x1954 DUP3 DUP5 PUSH2 0x4E82 JUMP JUMPDEST SWAP3 POP PUSH2 0x1961 DUP2 PUSH1 0x2 PUSH2 0x4DEB JUMP JUMPDEST DUP4 GT ISZERO PUSH2 0x1972 JUMPI PUSH1 0x0 SWAP4 POP POP POP POP SWAP1 JUMP JUMPDEST PUSH2 0x16A SLOAD PUSH1 0x0 SWAP1 PUSH2 0x199F SWAP1 PUSH2 0x1987 DUP7 DUP6 PUSH2 0x2A8C JUMP JUMPDEST PUSH2 0x1999 SWAP1 PUSH8 0x1BC16D674EC80000 PUSH2 0x4E82 JUMP JUMPDEST SWAP1 PUSH2 0x284D JUMP JUMPDEST SWAP1 POP PUSH2 0x19AD DUP2 PUSH2 0x193D PUSH2 0x2E92 JUMP JUMPDEST SWAP5 POP POP POP POP POP SWAP1 JUMP JUMPDEST PUSH1 0x40 MLOAD PUSH4 0x24745215 PUSH1 0xE2 SHL DUP2 MSTORE PUSH1 0x0 DUP1 MLOAD PUSH1 0x20 PUSH2 0x4FC3 DUP4 CODECOPY DUP2 MLOAD SWAP2 MSTORE PUSH1 0x4 DUP3 ADD MSTORE CALLER PUSH1 0x24 DUP3 ADD MSTORE PUSH32 0x0 PUSH1 0x1 PUSH1 0x1 PUSH1 0xA0 SHL SUB AND SWAP1 PUSH4 0x91D14854 SWAP1 PUSH1 0x44 ADD PUSH1 0x20 PUSH1 0x40 MLOAD DUP1 DUP4 SUB DUP2 DUP7 DUP1 EXTCODESIZE ISZERO DUP1 ISZERO PUSH2 0x1A29 JUMPI PUSH1 0x0 DUP1 REVERT JUMPDEST POP GAS STATICCALL ISZERO DUP1 ISZERO PUSH2 0x1A3D JUMPI RETURNDATASIZE PUSH1 0x0 DUP1 RETURNDATACOPY RETURNDATASIZE PUSH1 0x0 REVERT JUMPDEST POP POP POP POP PUSH1 0x40 MLOAD RETURNDATASIZE PUSH1 0x1F NOT PUSH1 0x1F DUP3 ADD AND DUP3 ADD DUP1 PUSH1 0x40 MSTORE POP DUP2 ADD SWAP1 PUSH2 0x1A61 SWAP2 SWAP1 PUSH2 0x4A99 JUMP JUMPDEST PUSH2 0x1A9F JUMPI PUSH1 0x40 MLOAD PUSH3 0x461BCD PUSH1 0xE5 SHL DUP2 MSTORE PUSH1 0x20 PUSH1 0x4 DUP3 ADD MSTORE PUSH1 0xF PUSH1 0x24 DUP3 ADD MSTORE PUSH15 0x27AB262B189D10B3B7BB32B93737B9 PUSH1 0x89 SHL PUSH1 0x44 DUP3 ADD MSTORE PUSH1 0x64 ADD PUSH2 0x934 JUMP JUMPDEST PUSH1 0x1 PUSH1 0x1 PUSH1 0xA0 SHL SUB AND PUSH1 0x0 SWAP1 DUP2 MSTORE PUSH2 0x184 PUSH1 0x20 MSTORE PUSH1 0x40 SWAP1 KECCAK256 DUP1 SLOAD PUSH1 0xFF NOT AND SWAP1 SSTORE JUMP JUMPDEST PUSH1 0x40 MLOAD PUSH4 0x24745215 PUSH1 0xE2 SHL DUP2 MSTORE PUSH1 0x0 DUP1 MLOAD PUSH1 0x20 PUSH2 0x4FC3 DUP4 CODECOPY DUP2 MLOAD SWAP2 MSTORE PUSH1 0x4 DUP3 ADD MSTORE CALLER PUSH1 0x24 DUP3 ADD MSTORE PUSH32 0x0 PUSH1 0x1 PUSH1 0x1 PUSH1 0xA0 SHL SUB AND SWAP1 PUSH4 0x91D14854 SWAP1 PUSH1 0x44 ADD PUSH1 0x20 PUSH1 0x40 MLOAD DUP1 DUP4 SUB DUP2 DUP7 DUP1 EXTCODESIZE ISZERO DUP1 ISZERO PUSH2 0x1B34 JUMPI PUSH1 0x0 DUP1 REVERT JUMPDEST POP GAS STATICCALL ISZERO DUP1 ISZERO PUSH2 0x1B48 JUMPI RETURNDATASIZE PUSH1 0x0 DUP1 RETURNDATACOPY RETURNDATASIZE PUSH1 0x0 REVERT JUMPDEST POP POP POP POP PUSH1 0x40 MLOAD RETURNDATASIZE PUSH1 0x1F NOT PUSH1 0x1F DUP3 ADD AND DUP3 ADD DUP1 PUSH1 0x40 MSTORE POP DUP2 ADD SWAP1 PUSH2 0x1B6C SWAP2 SWAP1 PUSH2 0x4A99 JUMP JUMPDEST PUSH2 0x1BAA JUMPI PUSH1 0x40 MLOAD PUSH3 0x461BCD PUSH1 0xE5 SHL DUP2 MSTORE PUSH1 0x20 PUSH1 0x4 DUP3 ADD MSTORE PUSH1 0xF PUSH1 0x24 DUP3 ADD MSTORE PUSH15 0x27AB262B189D10B3B7BB32B93737B9 PUSH1 0x89 SHL PUSH1 0x44 DUP3 ADD MSTORE PUSH1 0x64 ADD PUSH2 0x934 JUMP JUMPDEST PUSH2 0x1BB3 DUP12 PUSH2 0x1289 JUMP JUMPDEST PUSH2 0x1BBC DUP11 PUSH2 0x1107 JUMP JUMPDEST PUSH2 0x1BC5 DUP10 PUSH2 0x1821 JUMP JUMPDEST PUSH2 0x1BCF DUP9 DUP9 PUSH2 0x1378 JUMP JUMPDEST PUSH2 0x1BDD DUP7 DUP7 DUP7 DUP7 DUP7 DUP7 PUSH2 0x84F JUMP JUMPDEST POP POP POP POP POP POP POP POP POP POP POP JUMP JUMPDEST PUSH1 0x0 DUP1 PUSH1 0x0 DUP1 PUSH1 0x0 DUP1 PUSH1 0x0 DUP1 PUSH2 0x17D SLOAD SWAP1 POP PUSH1 0x0 PUSH2 0x173 SLOAD SWAP1 POP PUSH1 0x0 PUSH2 0x174 SLOAD SWAP1 POP DUP13 DUP12 LT ISZERO PUSH2 0x1C47 JUMPI DUP3 PUSH2 0x1C1F DUP14 DUP14 PUSH2 0x4E82 JUMP JUMPDEST PUSH2 0x1C29 SWAP2 SWAP1 PUSH2 0x4DD7 JUMP JUMPDEST SWAP10 POP DUP3 PUSH2 0x1C36 DUP13 DUP16 PUSH2 0x4E82 JUMP JUMPDEST PUSH2 0x1C40 SWAP2 SWAP1 PUSH2 0x4DD7 JUMP JUMPDEST SWAP9 POP PUSH2 0x1C5F JUMP JUMPDEST DUP3 PUSH2 0x1C52 DUP14 DUP16 PUSH2 0x4E82 JUMP JUMPDEST PUSH2 0x1C5C SWAP2 SWAP1 PUSH2 0x4DD7 JUMP JUMPDEST SWAP9 POP JUMPDEST DUP3 PUSH2 0x1C6A DUP11 DUP13 PUSH2 0x4D5B JUMP JUMPDEST PUSH2 0x1C74 SWAP2 SWAP1 PUSH2 0x4DEB JUMP JUMPDEST PUSH2 0x1C7E SWAP1 DUP14 PUSH2 0x4D5B JUMP JUMPDEST SWAP8 POP PUSH2 0x1C8A DUP4 DUP10 PUSH2 0x4D5B JUMP JUMPDEST SWAP7 POP DUP2 PUSH2 0x174 SLOAD DUP15 PUSH2 0x1C9C SWAP2 SWAP1 PUSH2 0x4E82 JUMP JUMPDEST PUSH2 0x1CA6 SWAP2 SWAP1 PUSH2 0x4DD7 JUMP JUMPDEST SWAP6 POP PUSH2 0x1CB2 DUP3 DUP8 PUSH2 0x4DEB JUMP JUMPDEST PUSH2 0x1CBC SWAP1 DUP3 PUSH2 0x4D5B JUMP JUMPDEST SWAP5 POP PUSH2 0x1CC8 DUP3 DUP7 PUSH2 0x4D5B JUMP JUMPDEST SWAP4 POP POP POP POP SWAP4 SWAP8 POP SWAP4 SWAP8 POP SWAP4 SWAP8 SWAP1 SWAP5 POP JUMP JUMPDEST PUSH1 0x0 DUP1 PUSH1 0x0 DUP1 PUSH1 0x0 DUP1 PUSH1 0x0 PUSH2 0x1CF6 TIMESTAMP PUSH2 0x17F SLOAD PUSH2 0x17E SLOAD PUSH2 0x1BEA JUMP JUMPDEST POP SWAP6 POP SWAP6 POP POP SWAP5 POP POP SWAP4 POP PUSH2 0x1D0D DUP11 DUP11 DUP7 DUP7 PUSH2 0x32D5 JUMP JUMPDEST SWAP5 POP PUSH1 0x0 DUP1 PUSH1 0x0 DUP1 PUSH1 0x0 DUP1 PUSH2 0x1D21 DUP9 PUSH2 0x2B9D JUMP JUMPDEST SWAP6 POP SWAP6 POP SWAP6 POP SWAP6 POP SWAP6 POP SWAP6 POP DUP7 DUP15 LT ISZERO PUSH2 0x1D55 JUMPI DUP16 ISZERO PUSH2 0x1D48 JUMPI DUP6 SWAP13 POP DUP13 DUP5 SWAP13 POP POP PUSH2 0x1D6D JUMP JUMPDEST DUP5 SWAP13 POP DUP13 DUP4 SWAP13 POP POP PUSH2 0x1D6D JUMP JUMPDEST DUP16 ISZERO PUSH2 0x1D66 JUMPI DUP2 SWAP12 POP DUP12 SWAP13 POP PUSH2 0x1D6D JUMP JUMPDEST DUP1 SWAP12 POP DUP12 SWAP13 POP JUMPDEST POP POP POP POP POP POP POP POP POP POP SWAP4 POP SWAP4 POP SWAP4 SWAP1 POP JUMP JUMPDEST PUSH1 0x40 MLOAD PUSH4 0x24745215 PUSH1 0xE2 SHL DUP2 MSTORE PUSH1 0x0 DUP1 MLOAD PUSH1 0x20 PUSH2 0x4FC3 DUP4 CODECOPY DUP2 MLOAD SWAP2 MSTORE PUSH1 0x4 DUP3 ADD MSTORE CALLER PUSH1 0x24 DUP3 ADD MSTORE PUSH32 0x0 PUSH1 0x1 PUSH1 0x1 PUSH1 0xA0 SHL SUB AND SWAP1 PUSH4 0x91D14854 SWAP1 PUSH1 0x44 ADD PUSH1 0x20 PUSH1 0x40 MLOAD DUP1 DUP4 SUB DUP2 DUP7 DUP1 EXTCODESIZE ISZERO DUP1 ISZERO PUSH2 0x1DF3 JUMPI PUSH1 0x0 DUP1 REVERT JUMPDEST POP GAS STATICCALL ISZERO DUP1 ISZERO PUSH2 0x1E07 JUMPI RETURNDATASIZE PUSH1 0x0 DUP1 RETURNDATACOPY RETURNDATASIZE PUSH1 0x0 REVERT JUMPDEST POP POP POP POP PUSH1 0x40 MLOAD RETURNDATASIZE PUSH1 0x1F NOT PUSH1 0x1F DUP3 ADD AND DUP3 ADD DUP1 PUSH1 0x40 MSTORE POP DUP2 ADD SWAP1 PUSH2 0x1E2B SWAP2 SWAP1 PUSH2 0x4A99 JUMP JUMPDEST PUSH2 0x1E69 JUMPI PUSH1 0x40 MLOAD PUSH3 0x461BCD PUSH1 0xE5 SHL DUP2 MSTORE PUSH1 0x20 PUSH1 0x4 DUP3 ADD MSTORE PUSH1 0xF PUSH1 0x24 DUP3 ADD MSTORE PUSH15 0x27AB262B189D10B3B7BB32B93737B9 PUSH1 0x89 SHL PUSH1 0x44 DUP3 ADD MSTORE PUSH1 0x64 ADD PUSH2 0x934 JUMP JUMPDEST PUSH1 0x1 PUSH1 0x1 PUSH1 0xA0 SHL SUB AND PUSH1 0x0 SWAP1 DUP2 MSTORE PUSH2 0x184 PUSH1 0x20 MSTORE PUSH1 0x40 SWAP1 KECCAK256 DUP1 SLOAD PUSH1 0xFF NOT AND PUSH1 0x1 OR SWAP1 SSTORE JUMP JUMPDEST PUSH1 0x0 PUSH2 0x1E98 PUSH2 0x16A9 JUMP JUMPDEST POP SWAP1 SWAP6 SWAP5 POP POP POP POP POP JUMP JUMPDEST PUSH1 0x2 DUP2 PUSH1 0x3C DUP2 LT PUSH2 0x125D JUMPI PUSH1 0x0 DUP1 REVERT JUMPDEST PUSH1 0x0 PUSH2 0x1EBD PUSH2 0x16A9 JUMP JUMPDEST POP SWAP6 SWAP5 POP POP POP POP POP JUMP JUMPDEST PUSH1 0x0 DUP1 PUSH2 0x1ED4 DUP4 DUP6 PUSH2 0x4E99 JUMP JUMPDEST SWAP1 POP PUSH4 0xFFFFFFFF DUP2 AND PUSH2 0x1F0E JUMPI PUSH1 0x40 MLOAD PUSH3 0x461BCD PUSH1 0xE5 SHL DUP2 MSTORE PUSH1 0x20 PUSH1 0x4 DUP3 ADD MSTORE PUSH1 0x2 PUSH1 0x24 DUP3 ADD MSTORE PUSH2 0x425 PUSH1 0xF4 SHL PUSH1 0x44 DUP3 ADD MSTORE PUSH1 0x64 ADD PUSH2 0x934 JUMP JUMPDEST PUSH1 0x40 DUP1 MLOAD PUSH1 0x2 DUP1 DUP3 MSTORE PUSH1 0x60 DUP3 ADD DUP4 MSTORE PUSH1 0x0 SWAP3 PUSH1 0x20 DUP4 ADD SWAP1 DUP1 CALLDATASIZE DUP4 CALLDATACOPY ADD SWAP1 POP POP SWAP1 POP DUP5 DUP2 PUSH1 0x0 DUP2 MLOAD DUP2 LT PUSH2 0x1F43 JUMPI PUSH2 0x1F43 PUSH2 0x4F73 JUMP JUMPDEST PUSH1 0x20 MUL PUSH1 0x20 ADD ADD SWAP1 PUSH4 0xFFFFFFFF AND SWAP1 DUP2 PUSH4 0xFFFFFFFF AND DUP2 MSTORE POP POP DUP4 DUP2 PUSH1 0x1 DUP2 MLOAD DUP2 LT PUSH2 0x1F71 JUMPI PUSH2 0x1F71 PUSH2 0x4F73 JUMP JUMPDEST PUSH4 0xFFFFFFFF SWAP1 SWAP3 AND PUSH1 0x20 SWAP3 DUP4 MUL SWAP2 SWAP1 SWAP2 ADD SWAP1 SWAP2 ADD MSTORE PUSH1 0x40 MLOAD PUSH4 0x883BDBFD PUSH1 0xE0 SHL DUP2 MSTORE PUSH1 0x0 SWAP1 PUSH1 0x1 PUSH1 0x1 PUSH1 0xA0 SHL SUB DUP9 AND SWAP1 PUSH4 0x883BDBFD SWAP1 PUSH2 0x1FB5 SWAP1 DUP6 SWAP1 PUSH1 0x4 ADD PUSH2 0x4C96 JUMP JUMPDEST PUSH1 0x0 PUSH1 0x40 MLOAD DUP1 DUP4 SUB DUP2 DUP7 DUP1 EXTCODESIZE ISZERO DUP1 ISZERO PUSH2 0x1FCD JUMPI PUSH1 0x0 DUP1 REVERT JUMPDEST POP GAS STATICCALL ISZERO DUP1 ISZERO PUSH2 0x1FE1 JUMPI RETURNDATASIZE PUSH1 0x0 DUP1 RETURNDATACOPY RETURNDATASIZE PUSH1 0x0 REVERT JUMPDEST POP POP POP POP PUSH1 0x40 MLOAD RETURNDATASIZE PUSH1 0x0 DUP3 RETURNDATACOPY PUSH1 0x1F RETURNDATASIZE SWAP1 DUP2 ADD PUSH1 0x1F NOT AND DUP3 ADD PUSH1 0x40 MSTORE PUSH2 0x2009 SWAP2 SWAP1 DUP2 ADD SWAP1 PUSH2 0x49C7 JUMP JUMPDEST POP SWAP1 POP PUSH1 0x0 DUP2 PUSH1 0x0 DUP2 MLOAD DUP2 LT PUSH2 0x2021 JUMPI PUSH2 0x2021 PUSH2 0x4F73 JUMP JUMPDEST PUSH1 0x20 MUL PUSH1 0x20 ADD ADD MLOAD DUP3 PUSH1 0x1 DUP2 MLOAD DUP2 LT PUSH2 0x203C JUMPI PUSH2 0x203C PUSH2 0x4F73 JUMP JUMPDEST PUSH1 0x20 MUL PUSH1 0x20 ADD ADD MLOAD PUSH2 0x204E SWAP2 SWAP1 PUSH2 0x4E0A JUMP JUMPDEST SWAP1 POP PUSH2 0x205E PUSH1 0x3 DUP6 SWAP1 SIGNEXTEND DUP3 PUSH2 0x4D73 JUMP JUMPDEST SWAP5 POP PUSH1 0x0 DUP2 PUSH1 0x6 SIGNEXTEND SLT DUP1 ISZERO PUSH2 0x2082 JUMPI POP PUSH2 0x207C PUSH1 0x3 DUP6 SWAP1 SIGNEXTEND DUP3 PUSH2 0x4EDA JUMP JUMPDEST PUSH1 0x6 SIGNEXTEND ISZERO ISZERO JUMPDEST ISZERO PUSH2 0x2095 JUMPI DUP5 PUSH2 0x2091 DUP2 PUSH2 0x4EB6 JUMP JUMPDEST SWAP6 POP POP JUMPDEST POP POP POP POP SWAP4 SWAP3 POP POP POP JUMP JUMPDEST PUSH1 0x0 DUP1 PUSH2 0x20AC DUP7 PUSH2 0x21AE JUMP JUMPDEST SWAP1 POP PUSH1 0x1 PUSH1 0x1 PUSH1 0x80 SHL SUB PUSH1 0x1 PUSH1 0x1 PUSH1 0xA0 SHL SUB DUP3 AND GT PUSH2 0x2132 JUMPI PUSH1 0x0 PUSH2 0x20DA PUSH1 0x1 PUSH1 0x1 PUSH1 0xA0 SHL SUB DUP4 AND DUP1 PUSH2 0x4DEB JUMP JUMPDEST SWAP1 POP DUP4 PUSH1 0x1 PUSH1 0x1 PUSH1 0xA0 SHL SUB AND DUP6 PUSH1 0x1 PUSH1 0x1 PUSH1 0xA0 SHL SUB AND LT PUSH2 0x2112 JUMPI PUSH2 0x210D PUSH1 0x1 PUSH1 0xC0 SHL DUP8 PUSH1 0x1 PUSH1 0x1 PUSH1 0x80 SHL SUB AND DUP4 PUSH2 0x25CD JUMP JUMPDEST PUSH2 0x212A JUMP JUMPDEST PUSH2 0x212A DUP2 DUP8 PUSH1 0x1 PUSH1 0x1 PUSH1 0x80 SHL SUB AND PUSH1 0x1 PUSH1 0xC0 SHL PUSH2 0x25CD JUMP JUMPDEST SWAP3 POP POP PUSH2 0x21A5 JUMP JUMPDEST PUSH1 0x0 PUSH2 0x2151 PUSH1 0x1 PUSH1 0x1 PUSH1 0xA0 SHL SUB DUP4 AND DUP1 PUSH9 0x10000000000000000 PUSH2 0x25CD JUMP JUMPDEST SWAP1 POP DUP4 PUSH1 0x1 PUSH1 0x1 PUSH1 0xA0 SHL SUB AND DUP6 PUSH1 0x1 PUSH1 0x1 PUSH1 0xA0 SHL SUB AND LT PUSH2 0x2189 JUMPI PUSH2 0x2184 PUSH1 0x1 PUSH1 0x80 SHL DUP8 PUSH1 0x1 PUSH1 0x1 PUSH1 0x80 SHL SUB AND DUP4 PUSH2 0x25CD JUMP JUMPDEST PUSH2 0x21A1 JUMP JUMPDEST PUSH2 0x21A1 DUP2 DUP8 PUSH1 0x1 PUSH1 0x1 PUSH1 0x80 SHL SUB AND PUSH1 0x1 PUSH1 0x80 SHL PUSH2 0x25CD JUMP JUMPDEST SWAP3 POP POP JUMPDEST POP SWAP5 SWAP4 POP POP POP POP JUMP JUMPDEST PUSH1 0x0 DUP1 PUSH1 0x0 DUP4 PUSH1 0x2 SIGNEXTEND SLT PUSH2 0x21C5 JUMPI DUP3 PUSH1 0x2 SIGNEXTEND PUSH2 0x21D2 JUMP JUMPDEST DUP3 PUSH1 0x2 SIGNEXTEND PUSH2 0x21D2 SWAP1 PUSH2 0x4F2A JUMP JUMPDEST SWAP1 POP PUSH2 0x21E1 PUSH3 0xD89E7 NOT PUSH2 0x4F10 JUMP JUMPDEST PUSH3 0xFFFFFF AND DUP2 GT ISZERO PUSH2 0x2219 JUMPI PUSH1 0x40 MLOAD PUSH3 0x461BCD PUSH1 0xE5 SHL DUP2 MSTORE PUSH1 0x20 PUSH1 0x4 DUP3 ADD MSTORE PUSH1 0x1 PUSH1 0x24 DUP3 ADD MSTORE PUSH1 0x15 PUSH1 0xFA SHL PUSH1 0x44 DUP3 ADD MSTORE PUSH1 0x64 ADD PUSH2 0x934 JUMP JUMPDEST PUSH1 0x0 PUSH1 0x1 DUP3 AND PUSH2 0x222D JUMPI PUSH1 0x1 PUSH1 0x80 SHL PUSH2 0x223F JUMP JUMPDEST PUSH16 0xFFFCB933BD6FAD37AA2D162D1A594001 JUMPDEST PUSH17 0xFFFFFFFFFFFFFFFFFFFFFFFFFFFFFFFFFF AND SWAP1 POP PUSH1 0x2 DUP3 AND ISZERO PUSH2 0x227E JUMPI PUSH1 0x80 PUSH2 0x2279 DUP3 PUSH16 0xFFF97272373D413259A46990580E213A PUSH2 0x4DEB JUMP JUMPDEST SWAP1 SHR SWAP1 POP JUMPDEST PUSH1 0x4 DUP3 AND ISZERO PUSH2 0x22A8 JUMPI PUSH1 0x80 PUSH2 0x22A3 DUP3 PUSH16 0xFFF2E50F5F656932EF12357CF3C7FDCC PUSH2 0x4DEB JUMP JUMPDEST SWAP1 SHR SWAP1 POP JUMPDEST PUSH1 0x8 DUP3 AND ISZERO PUSH2 0x22D2 JUMPI PUSH1 0x80 PUSH2 0x22CD DUP3 PUSH16 0xFFE5CACA7E10E4E61C3624EAA0941CD0 PUSH2 0x4DEB JUMP JUMPDEST SWAP1 SHR SWAP1 POP JUMPDEST PUSH1 0x10 DUP3 AND ISZERO PUSH2 0x22FC JUMPI PUSH1 0x80 PUSH2 0x22F7 DUP3 PUSH16 0xFFCB9843D60F6159C9DB58835C926644 PUSH2 0x4DEB JUMP JUMPDEST SWAP1 SHR SWAP1 POP JUMPDEST PUSH1 0x20 DUP3 AND ISZERO PUSH2 0x2326 JUMPI PUSH1 0x80 PUSH2 0x2321 DUP3 PUSH16 0xFF973B41FA98C081472E6896DFB254C0 PUSH2 0x4DEB JUMP JUMPDEST SWAP1 SHR SWAP1 POP JUMPDEST PUSH1 0x40 DUP3 AND ISZERO PUSH2 0x2350 JUMPI PUSH1 0x80 PUSH2 0x234B DUP3 PUSH16 0xFF2EA16466C96A3843EC78B326B52861 PUSH2 0x4DEB JUMP JUMPDEST SWAP1 SHR SWAP1 POP JUMPDEST PUSH1 0x80 DUP3 AND ISZERO PUSH2 0x237A JUMPI PUSH1 0x80 PUSH2 0x2375 DUP3 PUSH16 0xFE5DEE046A99A2A811C461F1969C3053 PUSH2 0x4DEB JUMP JUMPDEST SWAP1 SHR SWAP1 POP JUMPDEST PUSH2 0x100 DUP3 AND ISZERO PUSH2 0x23A5 JUMPI PUSH1 0x80 PUSH2 0x23A0 DUP3 PUSH16 0xFCBE86C7900A88AEDCFFC83B479AA3A4 PUSH2 0x4DEB JUMP JUMPDEST SWAP1 SHR SWAP1 POP JUMPDEST PUSH2 0x200 DUP3 AND ISZERO PUSH2 0x23D0 JUMPI PUSH1 0x80 PUSH2 0x23CB DUP3 PUSH16 0xF987A7253AC413176F2B074CF7815E54 PUSH2 0x4DEB JUMP JUMPDEST SWAP1 SHR SWAP1 POP JUMPDEST PUSH2 0x400 DUP3 AND ISZERO PUSH2 0x23FB JUMPI PUSH1 0x80 PUSH2 0x23F6 DUP3 PUSH16 0xF3392B0822B70005940C7A398E4B70F3 PUSH2 0x4DEB JUMP JUMPDEST SWAP1 SHR SWAP1 POP JUMPDEST PUSH2 0x800 DUP3 AND ISZERO PUSH2 0x2426 JUMPI PUSH1 0x80 PUSH2 0x2421 DUP3 PUSH16 0xE7159475A2C29B7443B29C7FA6E889D9 PUSH2 0x4DEB JUMP JUMPDEST SWAP1 SHR SWAP1 POP JUMPDEST PUSH2 0x1000 DUP3 AND ISZERO PUSH2 0x2451 JUMPI PUSH1 0x80 PUSH2 0x244C DUP3 PUSH16 0xD097F3BDFD2022B8845AD8F792AA5825 PUSH2 0x4DEB JUMP JUMPDEST SWAP1 SHR SWAP1 POP JUMPDEST PUSH2 0x2000 DUP3 AND ISZERO PUSH2 0x247C JUMPI PUSH1 0x80 PUSH2 0x2477 DUP3 PUSH16 0xA9F746462D870FDF8A65DC1F90E061E5 PUSH2 0x4DEB JUMP JUMPDEST SWAP1 SHR SWAP1 POP JUMPDEST PUSH2 0x4000 DUP3 AND ISZERO PUSH2 0x24A7 JUMPI PUSH1 0x80 PUSH2 0x24A2 DUP3 PUSH16 0x70D869A156D2A1B890BB3DF62BAF32F7 PUSH2 0x4DEB JUMP JUMPDEST SWAP1 SHR SWAP1 POP JUMPDEST PUSH2 0x8000 DUP3 AND ISZERO PUSH2 0x24D2 JUMPI PUSH1 0x80 PUSH2 0x24CD DUP3 PUSH16 0x31BE135F97D08FD981231505542FCFA6 PUSH2 0x4DEB JUMP JUMPDEST SWAP1 SHR SWAP1 POP JUMPDEST PUSH3 0x10000 DUP3 AND ISZERO PUSH2 0x24FE JUMPI PUSH1 0x80 PUSH2 0x24F9 DUP3 PUSH16 0x9AA508B5B7A84E1C677DE54F3E99BC9 PUSH2 0x4DEB JUMP JUMPDEST SWAP1 SHR SWAP1 POP JUMPDEST PUSH3 0x20000 DUP3 AND ISZERO PUSH2 0x2529 JUMPI PUSH1 0x80 PUSH2 0x2524 DUP3 PUSH15 0x5D6AF8DEDB81196699C329225EE604 PUSH2 0x4DEB JUMP JUMPDEST SWAP1 SHR SWAP1 POP JUMPDEST PUSH3 0x40000 DUP3 AND ISZERO PUSH2 0x2553 JUMPI PUSH1 0x80 PUSH2 0x254E DUP3 PUSH14 0x2216E584F5FA1EA926041BEDFE98 PUSH2 0x4DEB JUMP JUMPDEST SWAP1 SHR SWAP1 POP JUMPDEST PUSH3 0x80000 DUP3 AND ISZERO PUSH2 0x257B JUMPI PUSH1 0x80 PUSH2 0x2576 DUP3 PUSH12 0x48A170391F7DC42444E8FA2 PUSH2 0x4DEB JUMP JUMPDEST SWAP1 SHR SWAP1 POP JUMPDEST PUSH1 0x0 DUP5 PUSH1 0x2 SIGNEXTEND SGT ISZERO PUSH2 0x2596 JUMPI PUSH2 0x2593 DUP2 PUSH1 0x0 NOT PUSH2 0x4DD7 JUMP JUMPDEST SWAP1 POP JUMPDEST PUSH2 0x25A5 PUSH5 0x100000000 DUP3 PUSH2 0x4EFC JUMP JUMPDEST ISZERO PUSH2 0x25B1 JUMPI PUSH1 0x1 PUSH2 0x25B4 JUMP JUMPDEST PUSH1 0x0 JUMPDEST PUSH2 0x25C5 SWAP1 PUSH1 0xFF AND PUSH1 0x20 DUP4 SWAP1 SHR PUSH2 0x4D5B JUMP JUMPDEST SWAP5 SWAP4 POP POP POP POP JUMP JUMPDEST PUSH1 0x0 DUP1 DUP1 PUSH1 0x0 NOT DUP6 DUP8 MULMOD DUP6 DUP8 MUL SWAP3 POP DUP3 DUP2 LT DUP4 DUP3 SUB SUB SWAP2 POP POP DUP1 PUSH1 0x0 EQ ISZERO PUSH2 0x2607 JUMPI PUSH1 0x0 DUP5 GT PUSH2 0x25FC JUMPI PUSH1 0x0 DUP1 REVERT JUMPDEST POP DUP3 SWAP1 DIV SWAP1 POP PUSH2 0x2737 JUMP JUMPDEST DUP1 DUP5 GT PUSH2 0x2613 JUMPI PUSH1 0x0 DUP1 REVERT JUMPDEST PUSH1 0x0 DUP5 DUP7 DUP9 MULMOD DUP1 DUP5 SUB SWAP4 DUP2 GT SWAP1 SWAP3 SUB SWAP2 SWAP1 POP PUSH1 0x0 DUP6 PUSH2 0x2631 DUP2 PUSH2 0x4F2A JUMP JUMPDEST AND SWAP6 DUP7 SWAP1 DIV SWAP6 SWAP4 DUP5 SWAP1 DIV SWAP4 PUSH1 0x0 DUP2 SWAP1 SUB DIV PUSH1 0x1 ADD SWAP1 POP PUSH2 0x2651 DUP2 DUP5 PUSH2 0x4DEB JUMP JUMPDEST SWAP1 SWAP4 OR SWAP3 PUSH1 0x0 PUSH2 0x2662 DUP8 PUSH1 0x3 PUSH2 0x4DEB JUMP JUMPDEST PUSH1 0x2 XOR SWAP1 POP PUSH2 0x2671 DUP2 DUP9 PUSH2 0x4DEB JUMP JUMPDEST PUSH2 0x267C SWAP1 PUSH1 0x2 PUSH2 0x4E82 JUMP JUMPDEST PUSH2 0x2686 SWAP1 DUP3 PUSH2 0x4DEB JUMP JUMPDEST SWAP1 POP PUSH2 0x2692 DUP2 DUP9 PUSH2 0x4DEB JUMP JUMPDEST PUSH2 0x269D SWAP1 PUSH1 0x2 PUSH2 0x4E82 JUMP JUMPDEST PUSH2 0x26A7 SWAP1 DUP3 PUSH2 0x4DEB JUMP JUMPDEST SWAP1 POP PUSH2 0x26B3 DUP2 DUP9 PUSH2 0x4DEB JUMP JUMPDEST PUSH2 0x26BE SWAP1 PUSH1 0x2 PUSH2 0x4E82 JUMP JUMPDEST PUSH2 0x26C8 SWAP1 DUP3 PUSH2 0x4DEB JUMP JUMPDEST SWAP1 POP PUSH2 0x26D4 DUP2 DUP9 PUSH2 0x4DEB JUMP JUMPDEST PUSH2 0x26DF SWAP1 PUSH1 0x2 PUSH2 0x4E82 JUMP JUMPDEST PUSH2 0x26E9 SWAP1 DUP3 PUSH2 0x4DEB JUMP JUMPDEST SWAP1 POP PUSH2 0x26F5 DUP2 DUP9 PUSH2 0x4DEB JUMP JUMPDEST PUSH2 0x2700 SWAP1 PUSH1 0x2 PUSH2 0x4E82 JUMP JUMPDEST PUSH2 0x270A SWAP1 DUP3 PUSH2 0x4DEB JUMP JUMPDEST SWAP1 POP PUSH2 0x2716 DUP2 DUP9 PUSH2 0x4DEB JUMP JUMPDEST PUSH2 0x2721 SWAP1 PUSH1 0x2 PUSH2 0x4E82 JUMP JUMPDEST PUSH2 0x272B SWAP1 DUP3 PUSH2 0x4DEB JUMP JUMPDEST SWAP1 POP PUSH2 0x2091 DUP2 DUP7 PUSH2 0x4DEB JUMP JUMPDEST SWAP4 SWAP3 POP POP POP JUMP JUMPDEST PUSH1 0x0 DUP1 PUSH2 0x17E SLOAD SWAP1 POP PUSH1 0x0 DUP1 PUSH1 0x0 DUP1 PUSH1 0x0 PUSH2 0x275D TIMESTAMP PUSH2 0x17F SLOAD DUP9 PUSH2 0x1BEA JUMP JUMPDEST SWAP7 POP SWAP7 POP SWAP7 POP SWAP7 POP POP POP SWAP5 POP DUP5 PUSH1 0x0 LT ISZERO PUSH2 0x279F JUMPI PUSH1 0x0 PUSH2 0x277E DUP8 TIMESTAMP PUSH2 0x4E82 JUMP JUMPDEST SWAP1 POP PUSH1 0x0 PUSH2 0x278B DUP3 PUSH2 0xCF1 JUMP JUMPDEST SWAP1 POP PUSH2 0x2796 DUP2 PUSH2 0x3419 JUMP JUMPDEST POP POP PUSH2 0x17F DUP7 SWAP1 SSTORE JUMPDEST DUP3 ISZERO PUSH2 0x27E4 JUMPI PUSH1 0x0 NOT DUP7 EQ PUSH2 0x27D2 JUMPI PUSH2 0x27B8 PUSH1 0x1 PUSH2 0x34EC JUMP JUMPDEST POP PUSH2 0x27CC PUSH2 0x27C7 PUSH1 0x1 DUP6 PUSH2 0x4E82 JUMP JUMPDEST PUSH2 0x34EC JUMP JUMPDEST POP PUSH2 0x27DD JUMP JUMPDEST PUSH2 0x27DB DUP4 PUSH2 0x34EC JUMP JUMPDEST POP JUMPDEST PUSH2 0x174 DUP3 SWAP1 SSTORE JUMPDEST DUP4 DUP7 EQ PUSH2 0xFF0 JUMPI PUSH2 0x17E DUP5 SWAP1 SSTORE SWAP7 SWAP6 POP POP POP POP POP POP JUMP JUMPDEST PUSH1 0x0 DUP1 PUSH1 0x0 DUP1 PUSH1 0x0 DUP1 PUSH2 0x280E DUP9 DUP9 PUSH2 0x3513 JUMP JUMPDEST SWAP4 POP SWAP4 POP SWAP4 POP SWAP4 POP PUSH2 0x2825 PUSH1 0x2 DUP6 DUP6 PUSH1 0x0 SLOAD PUSH2 0x3632 JUMP JUMPDEST PUSH1 0x0 SSTORE PUSH2 0x2832 DUP8 DUP4 PUSH2 0x36DD JUMP JUMPDEST SWAP6 POP PUSH2 0x283F PUSH1 0x0 DUP8 PUSH2 0x2CDE JUMP JUMPDEST DUP1 SWAP5 POP POP POP POP POP SWAP3 POP SWAP3 SWAP1 POP JUMP JUMPDEST PUSH1 0x0 DUP1 PUSH2 0x285A DUP4 DUP6 PUSH2 0x4DEB JUMP JUMPDEST SWAP1 POP PUSH2 0x287B DUP5 ISZERO DUP1 PUSH2 0x2874 JUMPI POP DUP4 PUSH2 0x2872 DUP7 DUP5 PUSH2 0x4DD7 JUMP JUMPDEST EQ JUMPDEST PUSH1 0x3 PUSH2 0x3725 JUMP JUMPDEST PUSH2 0x288D PUSH8 0xDE0B6B3A7640000 DUP3 PUSH2 0x4DD7 JUMP JUMPDEST SWAP2 POP POP JUMPDEST SWAP3 SWAP2 POP POP JUMP JUMPDEST DUP3 ISZERO PUSH2 0x2906 JUMPI PUSH2 0x179 SLOAD PUSH2 0x28AB DUP4 DUP3 PUSH2 0x4D5B JUMP JUMPDEST SWAP1 POP DUP1 PUSH2 0x179 DUP2 SWAP1 SSTORE POP DUP2 DUP2 PUSH2 0x175 SLOAD PUSH2 0x28C5 SWAP2 SWAP1 PUSH2 0x4D5B JUMP JUMPDEST GT ISZERO PUSH2 0x2900 JUMPI PUSH1 0x40 MLOAD PUSH3 0x461BCD PUSH1 0xE5 SHL DUP2 MSTORE PUSH1 0x20 PUSH1 0x4 DUP3 ADD MSTORE PUSH1 0xA PUSH1 0x24 DUP3 ADD MSTORE PUSH10 0x4F564C56313A3E63617 PUSH1 0xB4 SHL PUSH1 0x44 DUP3 ADD MSTORE PUSH1 0x64 ADD PUSH2 0x934 JUMP JUMPDEST POP POP POP POP JUMP JUMPDEST PUSH2 0x17A SLOAD PUSH2 0x2914 DUP4 DUP3 PUSH2 0x4D5B JUMP JUMPDEST SWAP1 POP DUP1 PUSH2 0x17A DUP2 SWAP1 SSTORE POP DUP2 DUP2 PUSH2 0x176 SLOAD PUSH2 0x28C5 SWAP2 SWAP1 PUSH2 0x4D5B JUMP JUMPDEST PUSH1 0x0 DUP1 PUSH2 0x17E SLOAD SWAP1 POP PUSH1 0x0 TIMESTAMP SWAP1 POP PUSH1 0x0 DUP1 PUSH1 0x0 DUP1 PUSH1 0x0 PUSH2 0x2952 DUP7 PUSH2 0x17F SLOAD DUP10 PUSH2 0x1BEA JUMP JUMPDEST POP SWAP6 POP SWAP6 POP POP SWAP5 POP SWAP5 POP SWAP5 POP DUP5 PUSH1 0x0 LT ISZERO PUSH2 0x298E JUMPI PUSH1 0x0 PUSH2 0x2973 DUP9 DUP9 PUSH2 0x4E82 JUMP JUMPDEST SWAP1 POP PUSH1 0x0 PUSH2 0x2980 DUP3 PUSH2 0xCF1 JUMP JUMPDEST SWAP1 POP PUSH2 0x298B DUP2 PUSH2 0x3419 JUMP JUMPDEST POP POP JUMPDEST DUP4 ISZERO PUSH2 0x29C8 JUMPI PUSH1 0x0 PUSH2 0x29A0 DUP5 DUP9 PUSH2 0x4E82 JUMP JUMPDEST SWAP1 POP PUSH1 0x0 PUSH2 0x29AD DUP3 PUSH2 0xCF1 JUMP JUMPDEST SWAP1 POP PUSH2 0x29B8 DUP2 PUSH2 0x3419 JUMP JUMPDEST POP POP PUSH2 0x17F DUP4 SWAP1 SSTORE PUSH1 0x0 NOT PUSH2 0x17E SSTORE JUMPDEST DUP2 ISZERO PUSH2 0x2A08 JUMPI PUSH1 0x0 NOT DUP8 EQ PUSH2 0x29F6 JUMPI PUSH2 0x29E1 PUSH1 0x1 PUSH2 0x34EC JUMP JUMPDEST POP PUSH2 0x29F0 PUSH2 0x27C7 PUSH1 0x1 DUP5 PUSH2 0x4E82 JUMP JUMPDEST POP PUSH2 0x2A01 JUMP JUMPDEST PUSH2 0x29FF DUP3 PUSH2 0x34EC JUMP JUMPDEST POP JUMPDEST PUSH2 0x174 DUP2 SWAP1 SSTORE JUMPDEST SWAP8 SWAP7 POP POP POP POP POP POP POP JUMP JUMPDEST PUSH1 0x0 PUSH2 0x2A22 DUP3 ISZERO ISZERO PUSH1 0x4 PUSH2 0x3725 JUMP JUMPDEST DUP3 PUSH2 0x2A2F JUMPI POP PUSH1 0x0 PUSH2 0x2891 JUMP JUMPDEST PUSH1 0x0 PUSH2 0x2A43 PUSH8 0xDE0B6B3A7640000 DUP6 PUSH2 0x4DEB JUMP JUMPDEST SWAP1 POP PUSH2 0x2A63 PUSH8 0xDE0B6B3A7640000 PUSH2 0x2A5B DUP7 DUP5 PUSH2 0x4DD7 JUMP JUMPDEST EQ PUSH1 0x5 PUSH2 0x3725 JUMP JUMPDEST DUP3 PUSH2 0x2A6F PUSH1 0x1 DUP4 PUSH2 0x4E82 JUMP JUMPDEST PUSH2 0x2A79 SWAP2 SWAP1 PUSH2 0x4DD7 JUMP JUMPDEST PUSH2 0x2A84 SWAP1 PUSH1 0x1 PUSH2 0x4D5B JUMP JUMPDEST SWAP2 POP POP PUSH2 0x2891 JUMP JUMPDEST PUSH1 0x0 PUSH2 0x2A9B DUP3 ISZERO ISZERO PUSH1 0x4 PUSH2 0x3725 JUMP JUMPDEST DUP3 PUSH2 0x2AA8 JUMPI POP PUSH1 0x0 PUSH2 0x2891 JUMP JUMPDEST PUSH1 0x0 PUSH2 0x2ABC PUSH8 0xDE0B6B3A7640000 DUP6 PUSH2 0x4DEB JUMP JUMPDEST SWAP1 POP PUSH2 0x2AD4 PUSH8 0xDE0B6B3A7640000 PUSH2 0x2A5B DUP7 DUP5 PUSH2 0x4DD7 JUMP JUMPDEST PUSH2 0x2A84 DUP4 DUP3 PUSH2 0x4DD7 JUMP JUMPDEST PUSH1 0x0 DUP2 DUP4 LT PUSH2 0x2AED JUMPI DUP2 PUSH2 0x2737 JUMP JUMPDEST POP SWAP1 SWAP2 SWAP1 POP JUMP JUMPDEST PUSH2 0x2B18 PUSH1 0x40 MLOAD DUP1 PUSH1 0x60 ADD PUSH1 0x40 MSTORE DUP1 PUSH1 0x0 DUP2 MSTORE PUSH1 0x20 ADD PUSH1 0x0 DUP2 MSTORE PUSH1 0x20 ADD PUSH1 0x0 DUP2 MSTORE POP SWAP1 JUMP JUMPDEST PUSH1 0x0 PUSH2 0x2B4B PUSH2 0x2B3B PUSH2 0x17C SLOAD PUSH8 0x25B946EBC0B36351 PUSH2 0x3737 SWAP1 SWAP2 SWAP1 PUSH4 0xFFFFFFFF AND JUMP JUMPDEST PUSH2 0x2B45 DUP6 DUP8 PUSH2 0x379C JUMP JUMPDEST SWAP1 PUSH2 0x36DD JUMP JUMPDEST SWAP1 POP PUSH1 0x0 PUSH2 0x2B7A PUSH2 0x2B70 PUSH2 0x17C SLOAD PUSH8 0x51AF86713316A9A PUSH2 0x3737 SWAP1 SWAP2 SWAP1 PUSH4 0xFFFFFFFF AND JUMP JUMPDEST PUSH2 0x1999 DUP7 DUP9 PUSH2 0x2ADE JUMP JUMPDEST PUSH1 0x40 DUP1 MLOAD PUSH1 0x60 DUP2 ADD DUP3 MSTORE SWAP2 DUP3 MSTORE PUSH1 0x20 DUP3 ADD SWAP4 SWAP1 SWAP4 MSTORE SWAP2 DUP3 ADD SWAP4 SWAP1 SWAP4 MSTORE SWAP4 SWAP3 POP POP POP JUMP JUMPDEST PUSH2 0x175 SLOAD PUSH2 0x176 SLOAD PUSH2 0x177 SLOAD PUSH2 0x178 SLOAD PUSH2 0x179 SLOAD PUSH2 0x17A SLOAD PUSH2 0x17B SLOAD DUP8 ISZERO PUSH2 0x2C27 JUMPI PUSH2 0x2BCC DUP8 DUP8 PUSH1 0x1 DUP5 PUSH2 0x37AC JUMP JUMPDEST POP SWAP1 SWAP8 POP SWAP6 POP PUSH2 0x2C00 PUSH2 0x2BDF DUP5 DUP10 PUSH2 0x4D5B JUMP JUMPDEST SWAP8 POP DUP8 PUSH2 0x2BEC DUP5 DUP10 PUSH2 0x4D5B JUMP JUMPDEST SWAP8 POP DUP8 PUSH2 0x2BFA PUSH1 0x1 DUP13 PUSH2 0x4E82 JUMP JUMPDEST DUP5 PUSH2 0x37AC JUMP JUMPDEST POP SWAP1 SWAP8 POP SWAP6 POP PUSH2 0x2C10 DUP4 DUP7 PUSH2 0x4D5B JUMP JUMPDEST SWAP5 POP PUSH2 0x2C1C DUP3 DUP6 PUSH2 0x4D5B JUMP JUMPDEST SWAP4 POP PUSH1 0x0 SWAP3 POP PUSH1 0x0 SWAP2 POP JUMPDEST POP SWAP2 SWAP4 SWAP6 POP SWAP2 SWAP4 SWAP6 JUMP JUMPDEST PUSH2 0x17E SLOAD PUSH2 0x17F SLOAD PUSH1 0x0 SWAP2 SWAP1 DUP3 DUP1 DUP1 PUSH2 0x2C4B TIMESTAMP DUP6 DUP8 PUSH2 0x1BEA JUMP JUMPDEST POP SWAP6 POP SWAP6 POP POP POP POP SWAP3 POP DUP3 PUSH1 0x0 LT ISZERO PUSH2 0x2C96 JUMPI PUSH1 0x0 PUSH2 0x2C6A DUP7 TIMESTAMP PUSH2 0x4E82 JUMP JUMPDEST SWAP1 POP PUSH1 0x0 PUSH2 0x2C77 DUP3 PUSH2 0xCF1 JUMP JUMPDEST SWAP1 POP PUSH2 0x2C82 DUP2 PUSH2 0x3419 JUMP JUMPDEST POP POP PUSH2 0x17F DUP6 SWAP1 SSTORE PUSH1 0x0 NOT PUSH2 0x17E SSTORE PUSH1 0x1 SWAP6 POP JUMPDEST DUP2 ISZERO PUSH2 0x2CD6 JUMPI PUSH1 0x0 NOT DUP6 EQ PUSH2 0x2CC4 JUMPI PUSH2 0x2CAF PUSH1 0x1 PUSH2 0x34EC JUMP JUMPDEST POP PUSH2 0x2CBE PUSH2 0x27C7 PUSH1 0x1 DUP5 PUSH2 0x4E82 JUMP JUMPDEST POP PUSH2 0x2CCF JUMP JUMPDEST PUSH2 0x2CCD DUP3 PUSH2 0x34EC JUMP JUMPDEST POP JUMPDEST PUSH2 0x174 DUP2 SWAP1 SSTORE JUMPDEST POP POP POP POP POP SWAP1 JUMP JUMPDEST PUSH2 0x172 SLOAD TIMESTAMP SWAP1 DUP1 DUP3 GT ISZERO PUSH2 0x2DC5 JUMPI PUSH1 0x1 SLOAD PUSH1 0x0 PUSH1 0xB6 DUP3 PUSH1 0x3C DUP2 LT PUSH2 0x2D04 JUMPI PUSH2 0x2D04 PUSH2 0x4F73 JUMP JUMPDEST PUSH1 0x40 DUP1 MLOAD PUSH1 0x60 DUP2 ADD DUP3 MSTORE PUSH1 0x3 SWAP3 SWAP1 SWAP3 MUL SWAP3 SWAP1 SWAP3 ADD DUP1 SLOAD PUSH1 0x1 DUP3 ADD SLOAD PUSH1 0x20 DUP5 ADD DUP2 DUP2 MSTORE PUSH1 0x2 SWAP1 SWAP4 ADD SLOAD SWAP5 DUP5 ADD SWAP5 SWAP1 SWAP5 MSTORE DUP7 DUP4 MSTORE PUSH2 0x16D SLOAD SWAP3 SWAP5 POP SWAP3 PUSH2 0x2D49 SWAP1 DUP4 SWAP1 PUSH2 0x4D5B JUMP JUMPDEST SWAP1 MSTORE POP PUSH2 0x16E SLOAD PUSH1 0x40 DUP4 ADD DUP1 MLOAD PUSH2 0x2D61 SWAP1 DUP4 SWAP1 PUSH2 0x4D5B JUMP JUMPDEST SWAP1 MSTORE POP PUSH2 0x2D71 PUSH1 0xB6 DUP4 DUP4 DUP7 PUSH2 0x3632 JUMP JUMPDEST PUSH1 0x1 SSTORE PUSH2 0x16D DUP8 SWAP1 SSTORE PUSH2 0x16E DUP7 SWAP1 SSTORE PUSH2 0x16F SLOAD DUP1 DUP1 PUSH2 0x2D90 DUP8 DUP10 PUSH2 0x4E82 JUMP JUMPDEST PUSH2 0x2D9A SWAP2 SWAP1 PUSH2 0x4DD7 JUMP JUMPDEST PUSH2 0x2DA4 SWAP2 SWAP1 PUSH2 0x4DEB JUMP JUMPDEST PUSH2 0x172 PUSH1 0x0 DUP3 DUP3 SLOAD PUSH2 0x2DB6 SWAP2 SWAP1 PUSH2 0x4D5B JUMP JUMPDEST SWAP1 SWAP2 SSTORE POP PUSH2 0x2900 SWAP5 POP POP POP POP POP JUMP JUMPDEST DUP4 PUSH2 0x16D PUSH1 0x0 ADD PUSH1 0x0 DUP3 DUP3 SLOAD PUSH2 0x2DDB SWAP2 SWAP1 PUSH2 0x4D5B JUMP JUMPDEST SWAP1 SWAP2 SSTORE POP DUP4 SWAP1 POP PUSH2 0x16D PUSH1 0x1 ADD PUSH1 0x0 DUP3 DUP3 SLOAD PUSH2 0x2DF7 SWAP2 SWAP1 PUSH2 0x4D5B JUMP JUMPDEST SWAP1 SWAP2 SSTORE POP POP POP POP POP POP JUMP JUMPDEST PUSH1 0x0 DUP1 PUSH1 0x0 DUP1 PUSH2 0x2E19 PUSH1 0xB6 PUSH1 0x1 SLOAD PUSH2 0x170 SLOAD PUSH2 0x38EF JUMP JUMPDEST SWAP3 POP SWAP3 POP POP DUP1 PUSH1 0x20 ADD MLOAD DUP3 PUSH1 0x20 ADD MLOAD PUSH2 0x16D PUSH1 0x0 PUSH1 0x2 DUP2 LT PUSH2 0x2E3D JUMPI PUSH2 0x2E3D PUSH2 0x4F73 JUMP JUMPDEST ADD SLOAD PUSH2 0x2E49 SWAP2 SWAP1 PUSH2 0x4D5B JUMP JUMPDEST PUSH2 0x2E53 SWAP2 SWAP1 PUSH2 0x4E82 JUMP JUMPDEST SWAP4 POP DUP1 PUSH1 0x40 ADD MLOAD DUP3 PUSH1 0x40 ADD MLOAD PUSH2 0x16D PUSH1 0x1 PUSH1 0x2 DUP2 LT PUSH2 0x2E74 JUMPI PUSH2 0x2E74 PUSH2 0x4F73 JUMP JUMPDEST ADD SLOAD PUSH2 0x2E80 SWAP2 SWAP1 PUSH2 0x4D5B JUMP JUMPDEST PUSH2 0x2E8A SWAP2 SWAP1 PUSH2 0x4E82 JUMP JUMPDEST SWAP3 POP POP POP SWAP1 SWAP2 JUMP JUMPDEST PUSH1 0x40 DUP1 MLOAD PUSH1 0x2 DUP1 DUP3 MSTORE PUSH1 0x60 DUP3 ADD DUP4 MSTORE PUSH1 0x0 SWAP3 DUP4 SWAP3 SWAP2 SWAP1 PUSH1 0x20 DUP4 ADD SWAP1 DUP1 CALLDATASIZE DUP4 CALLDATACOPY ADD SWAP1 POP POP SWAP1 POP PUSH32 0x0 DUP2 PUSH1 0x0 DUP2 MLOAD DUP2 LT PUSH2 0x2EEB JUMPI PUSH2 0x2EEB PUSH2 0x4F73 JUMP JUMPDEST PUSH1 0x20 MUL PUSH1 0x20 ADD ADD SWAP1 PUSH4 0xFFFFFFFF AND SWAP1 DUP2 PUSH4 0xFFFFFFFF AND DUP2 MSTORE POP POP PUSH1 0x0 DUP2 PUSH1 0x1 DUP2 MLOAD DUP2 LT PUSH2 0x2F1A JUMPI PUSH2 0x2F1A PUSH2 0x4F73 JUMP JUMPDEST PUSH1 0x20 MUL PUSH1 0x20 ADD ADD SWAP1 PUSH4 0xFFFFFFFF AND SWAP1 DUP2 PUSH4 0xFFFFFFFF AND DUP2 MSTORE POP POP PUSH1 0x0 DUP1 PUSH32 0x0 PUSH1 0x1 PUSH1 0x1 PUSH1 0xA0 SHL SUB AND PUSH4 0x883BDBFD DUP5 PUSH1 0x40 MLOAD DUP3 PUSH4 0xFFFFFFFF AND PUSH1 0xE0 SHL DUP2 MSTORE PUSH1 0x4 ADD PUSH2 0x2F83 SWAP2 SWAP1 PUSH2 0x4C96 JUMP JUMPDEST PUSH1 0x0 PUSH1 0x40 MLOAD DUP1 DUP4 SUB DUP2 DUP7 DUP1 EXTCODESIZE ISZERO DUP1 ISZERO PUSH2 0x2F9B JUMPI PUSH1 0x0 DUP1 REVERT JUMPDEST POP GAS STATICCALL ISZERO DUP1 ISZERO PUSH2 0x2FAF JUMPI RETURNDATASIZE PUSH1 0x0 DUP1 RETURNDATACOPY RETURNDATASIZE PUSH1 0x0 REVERT JUMPDEST POP POP POP POP PUSH1 0x40 MLOAD RETURNDATASIZE PUSH1 0x0 DUP3 RETURNDATACOPY PUSH1 0x1F RETURNDATASIZE SWAP1 DUP2 ADD PUSH1 0x1F NOT AND DUP3 ADD PUSH1 0x40 MSTORE PUSH2 0x2FD7 SWAP2 SWAP1 DUP2 ADD SWAP1 PUSH2 0x49C7 JUMP JUMPDEST SWAP2 POP SWAP2 POP PUSH1 0x0 PUSH2 0x3053 PUSH32 0x0 PUSH1 0x3 SIGNEXTEND DUP5 PUSH1 0x0 DUP2 MLOAD DUP2 LT PUSH2 0x3017 JUMPI PUSH2 0x3017 PUSH2 0x4F73 JUMP JUMPDEST PUSH1 0x20 MUL PUSH1 0x20 ADD ADD MLOAD DUP6 PUSH1 0x1 DUP2 MLOAD DUP2 LT PUSH2 0x3032 JUMPI PUSH2 0x3032 PUSH2 0x4F73 JUMP JUMPDEST PUSH1 0x20 MUL PUSH1 0x20 ADD ADD MLOAD PUSH2 0x3044 SWAP2 SWAP1 PUSH2 0x4E0A JUMP JUMPDEST PUSH2 0x304E SWAP2 SWAP1 PUSH2 0x4D73 JUMP JUMPDEST PUSH2 0x21AE JUMP JUMPDEST PUSH1 0x1 PUSH1 0x1 PUSH1 0xA0 SHL SUB AND SWAP1 POP PUSH1 0x0 DUP3 PUSH1 0x0 DUP2 MLOAD DUP2 LT PUSH2 0x3073 JUMPI PUSH2 0x3073 PUSH2 0x4F73 JUMP JUMPDEST PUSH1 0x20 MUL PUSH1 0x20 ADD ADD MLOAD DUP4 PUSH1 0x1 DUP2 MLOAD DUP2 LT PUSH2 0x308E JUMPI PUSH2 0x308E PUSH2 0x4F73 JUMP JUMPDEST PUSH1 0x20 MUL PUSH1 0x20 ADD ADD MLOAD PUSH2 0x30A0 SWAP2 SWAP1 PUSH2 0x4E5A JUMP JUMPDEST PUSH2 0x30E0 SWAP1 PUSH16 0xFFFFFFFFFFFFFFFFFFFFFFFFFFFFFFFF NOT PUSH32 0x0 PUSH1 0x80 SHL AND PUSH2 0x4DB1 JUMP JUMPDEST PUSH1 0x1 PUSH1 0x1 PUSH1 0xA0 SHL SUB AND SWAP1 POP PUSH1 0x0 PUSH32 0x0 PUSH2 0x3125 JUMPI PUSH2 0x3120 DUP3 DUP5 PUSH2 0x186 SLOAD PUSH2 0x25CD JUMP JUMPDEST PUSH2 0x3133 JUMP JUMPDEST PUSH2 0x3133 DUP4 PUSH1 0x60 DUP5 SWAP1 SHL PUSH2 0x4DD7 JUMP JUMPDEST PUSH1 0x40 MLOAD PUSH4 0x883BDBFD PUSH1 0xE0 SHL DUP2 MSTORE SWAP1 SWAP2 POP PUSH1 0x1 PUSH1 0x1 PUSH1 0xA0 SHL SUB PUSH32 0x0 AND SWAP1 PUSH4 0x883BDBFD SWAP1 PUSH2 0x3182 SWAP1 DUP10 SWAP1 PUSH1 0x4 ADD PUSH2 0x4C96 JUMP JUMPDEST PUSH1 0x0 PUSH1 0x40 MLOAD DUP1 DUP4 SUB DUP2 DUP7 DUP1 EXTCODESIZE ISZERO DUP1 ISZERO PUSH2 0x319A JUMPI PUSH1 0x0 DUP1 REVERT JUMPDEST POP GAS STATICCALL ISZERO DUP1 ISZERO PUSH2 0x31AE JUMPI RETURNDATASIZE PUSH1 0x0 DUP1 RETURNDATACOPY RETURNDATASIZE PUSH1 0x0 REVERT JUMPDEST POP POP POP POP PUSH1 0x40 MLOAD RETURNDATASIZE PUSH1 0x0 DUP3 RETURNDATACOPY PUSH1 0x1F RETURNDATASIZE SWAP1 DUP2 ADD PUSH1 0x1F NOT AND DUP3 ADD PUSH1 0x40 MSTORE PUSH2 0x31D6 SWAP2 SWAP1 DUP2 ADD SWAP1 PUSH2 0x49C7 JUMP JUMPDEST POP DUP1 SWAP6 POP POP PUSH1 0x0 PUSH2 0x328B PUSH32 0x0 PUSH1 0x3 SIGNEXTEND DUP8 PUSH1 0x0 DUP2 MLOAD DUP2 LT PUSH2 0x3217 JUMPI PUSH2 0x3217 PUSH2 0x4F73 JUMP JUMPDEST PUSH1 0x20 MUL PUSH1 0x20 ADD ADD MLOAD DUP9 PUSH1 0x1 DUP2 MLOAD DUP2 LT PUSH2 0x3232 JUMPI PUSH2 0x3232 PUSH2 0x4F73 JUMP JUMPDEST PUSH1 0x20 MUL PUSH1 0x20 ADD ADD MLOAD PUSH2 0x3244 SWAP2 SWAP1 PUSH2 0x4E0A JUMP JUMPDEST PUSH2 0x324E SWAP2 SWAP1 PUSH2 0x4D73 JUMP JUMPDEST PUSH2 0x181 SLOAD PUSH8 0xDE0B6B3A7640000 SWAP1 PUSH1 0x1 PUSH1 0x1 PUSH1 0xA0 SHL SUB AND PUSH32 0x0 PUSH2 0x20A0 JUMP JUMPDEST SWAP1 POP PUSH2 0x32C9 PUSH8 0x1BC16D674EC80000 PUSH2 0x32C3 DUP4 PUSH2 0x32AF DUP7 PUSH8 0xDE0B6B3A7640000 PUSH2 0x4DEB JUMP JUMPDEST PUSH2 0x32B9 SWAP2 SWAP1 PUSH2 0x4DD7 JUMP JUMPDEST PUSH2 0x16C SLOAD SWAP1 PUSH2 0x36DD JUMP JUMPDEST SWAP1 PUSH2 0x2A8C JUMP JUMPDEST SWAP8 POP POP POP POP POP POP POP POP SWAP1 JUMP JUMPDEST PUSH1 0x0 PUSH2 0x32FB PUSH1 0x40 MLOAD DUP1 PUSH1 0x60 ADD PUSH1 0x40 MSTORE DUP1 PUSH1 0x0 DUP2 MSTORE PUSH1 0x20 ADD PUSH1 0x0 DUP2 MSTORE PUSH1 0x20 ADD PUSH1 0x0 DUP2 MSTORE POP SWAP1 JUMP JUMPDEST PUSH2 0x331F PUSH1 0x40 MLOAD DUP1 PUSH1 0x60 ADD PUSH1 0x40 MSTORE DUP1 PUSH1 0x0 DUP2 MSTORE PUSH1 0x20 ADD PUSH1 0x0 DUP2 MSTORE PUSH1 0x20 ADD PUSH1 0x0 DUP2 MSTORE POP SWAP1 JUMP JUMPDEST PUSH2 0x180 SLOAD PUSH2 0x332F SWAP1 PUSH1 0x1 SWAP1 PUSH2 0x4E82 JUMP JUMPDEST DUP7 LT ISZERO PUSH2 0x3388 JUMPI PUSH2 0x180 DUP7 DUP2 SLOAD DUP2 LT PUSH2 0x334A JUMPI PUSH2 0x334A PUSH2 0x4F73 JUMP JUMPDEST SWAP1 PUSH1 0x0 MSTORE PUSH1 0x20 PUSH1 0x0 KECCAK256 SWAP1 PUSH1 0x3 MUL ADD PUSH1 0x40 MLOAD DUP1 PUSH1 0x60 ADD PUSH1 0x40 MSTORE SWAP1 DUP2 PUSH1 0x0 DUP3 ADD SLOAD DUP2 MSTORE PUSH1 0x20 ADD PUSH1 0x1 DUP3 ADD SLOAD DUP2 MSTORE PUSH1 0x20 ADD PUSH1 0x2 DUP3 ADD SLOAD DUP2 MSTORE POP POP SWAP2 POP PUSH2 0x33E0 JUMP JUMPDEST DUP5 ISZERO PUSH2 0x33A7 JUMPI PUSH2 0x33A0 PUSH2 0x17E SLOAD TIMESTAMP PUSH2 0x497 SWAP2 SWAP1 PUSH2 0x4E82 JUMP JUMPDEST SWAP2 POP PUSH2 0x33E0 JUMP JUMPDEST PUSH1 0x40 MLOAD PUSH3 0x461BCD PUSH1 0xE5 SHL DUP2 MSTORE PUSH1 0x20 PUSH1 0x4 DUP3 ADD MSTORE PUSH1 0xE PUSH1 0x24 DUP3 ADD MSTORE PUSH14 0x13D593158C4E885CD95D1D1B1959 PUSH1 0x92 SHL PUSH1 0x44 DUP3 ADD MSTORE PUSH1 0x64 ADD PUSH2 0x934 JUMP JUMPDEST PUSH2 0x33ED PUSH2 0x497 DUP6 TIMESTAMP PUSH2 0x4E82 JUMP JUMPDEST SWAP1 POP DUP7 PUSH2 0x3404 JUMPI DUP2 MLOAD PUSH1 0x20 DUP3 ADD MLOAD PUSH2 0x2184 SWAP2 PUSH2 0x2A13 JUMP JUMPDEST PUSH1 0x20 DUP3 ADD MLOAD DUP2 MLOAD PUSH2 0x21A1 SWAP2 PUSH2 0xC85 SWAP2 SWAP1 PUSH2 0x2A8C JUMP JUMPDEST PUSH2 0x180 DUP1 SLOAD PUSH1 0x1 DUP2 ADD DUP3 SSTORE PUSH1 0x0 SWAP2 SWAP1 SWAP2 MSTORE DUP2 MLOAD PUSH1 0x3 SWAP1 SWAP2 MUL PUSH32 0x3F79C16506060041AE6A4FF1E4CFB5037336B23850175E9BD090BD20EEE718E5 DUP2 ADD DUP3 SWAP1 SSTORE PUSH1 0x20 DUP1 DUP5 ADD MLOAD PUSH32 0x3F79C16506060041AE6A4FF1E4CFB5037336B23850175E9BD090BD20EEE718E6 DUP4 ADD DUP2 SWAP1 SSTORE PUSH1 0x40 DUP1 DUP7 ADD MLOAD PUSH32 0x3F79C16506060041AE6A4FF1E4CFB5037336B23850175E9BD090BD20EEE718E7 SWAP1 SWAP5 ADD DUP5 SWAP1 SSTORE DUP1 MLOAD SWAP5 DUP6 MSTORE SWAP2 DUP5 ADD MSTORE DUP3 ADD MSTORE PUSH32 0x7F422DD5CD123CCCA7C61CA8286EE04CB58966E2C07631CC2B660F81713C98E5 SWAP1 PUSH1 0x60 ADD PUSH1 0x40 MLOAD DUP1 SWAP2 SUB SWAP1 LOG1 POP JUMP JUMPDEST PUSH1 0x0 DUP2 ISZERO PUSH2 0x350E JUMPI PUSH2 0x3501 PUSH2 0x17B SLOAD DUP4 PUSH2 0x3AE2 JUMP JUMPDEST POP PUSH2 0x350A PUSH2 0x3B56 JUMP JUMPDEST POP PUSH1 0x1 JUMPDEST SWAP2 SWAP1 POP JUMP JUMPDEST PUSH2 0x3537 PUSH1 0x40 MLOAD DUP1 PUSH1 0x60 ADD PUSH1 0x40 MSTORE DUP1 PUSH1 0x0 DUP2 MSTORE PUSH1 0x20 ADD PUSH1 0x0 DUP2 MSTORE PUSH1 0x20 ADD PUSH1 0x0 DUP2 MSTORE POP SWAP1 JUMP JUMPDEST PUSH1 0x0 DUP1 PUSH1 0x0 DUP1 PUSH1 0x0 DUP1 PUSH2 0x3551 PUSH1 0x2 PUSH1 0x0 SLOAD PUSH2 0x16B SLOAD PUSH2 0x38EF JUMP JUMPDEST SWAP3 POP SWAP3 POP SWAP3 POP PUSH2 0x355F PUSH2 0x1910 JUMP JUMPDEST SWAP4 POP PUSH1 0x0 PUSH2 0x356D DUP10 DUP7 PUSH2 0x2A8C JUMP JUMPDEST SWAP1 POP DUP10 ISZERO PUSH2 0x358F JUMPI DUP1 DUP4 PUSH1 0x20 ADD DUP2 DUP2 MLOAD PUSH2 0x3587 SWAP2 SWAP1 PUSH2 0x4D5B JUMP JUMPDEST SWAP1 MSTORE POP PUSH2 0x35A5 JUMP JUMPDEST DUP1 DUP4 PUSH1 0x40 ADD DUP2 DUP2 MLOAD PUSH2 0x35A1 SWAP2 SWAP1 PUSH2 0x4D5B JUMP JUMPDEST SWAP1 MSTORE POP JUMPDEST PUSH1 0x0 PUSH2 0x35E6 DUP12 PUSH2 0x35C8 JUMPI DUP4 PUSH1 0x40 ADD MLOAD DUP6 PUSH1 0x40 ADD MLOAD PUSH2 0x35C3 SWAP2 SWAP1 PUSH2 0x4E82 JUMP JUMPDEST PUSH2 0x35DC JUMP JUMPDEST DUP4 PUSH1 0x20 ADD MLOAD DUP6 PUSH1 0x20 ADD MLOAD PUSH2 0x35DC SWAP2 SWAP1 PUSH2 0x4E82 JUMP JUMPDEST PUSH2 0x16C SLOAD SWAP1 PUSH2 0x284D JUMP JUMPDEST SWAP1 POP DUP5 SWAP8 POP DUP4 SWAP9 POP DUP2 PUSH1 0x0 EQ ISZERO PUSH2 0x35FE JUMPI PUSH1 0x0 PUSH2 0x3622 JUMP JUMPDEST PUSH2 0x3622 PUSH2 0x3613 PUSH8 0x51AF86713316A9A DUP4 PUSH2 0x3737 JUMP JUMPDEST PUSH8 0xDE0B6B3A7640000 SWAP1 PUSH2 0x3BD7 JUMP JUMPDEST SWAP7 POP POP POP POP POP POP SWAP3 SWAP6 SWAP2 SWAP5 POP SWAP3 POP JUMP JUMPDEST DUP3 MLOAD PUSH1 0x0 SWAP1 DUP4 EQ PUSH2 0x369C JUMPI PUSH2 0x3648 PUSH1 0x1 DUP4 PUSH2 0x4D5B JUMP JUMPDEST SWAP2 POP PUSH1 0x3C DUP3 LT ISZERO PUSH2 0x3690 JUMPI DUP4 DUP6 DUP4 PUSH1 0x3C DUP2 LT PUSH2 0x3666 JUMPI PUSH2 0x3666 PUSH2 0x4F73 JUMP JUMPDEST PUSH1 0x3 MUL ADD PUSH1 0x0 DUP3 ADD MLOAD DUP2 PUSH1 0x0 ADD SSTORE PUSH1 0x20 DUP3 ADD MLOAD DUP2 PUSH1 0x1 ADD SSTORE PUSH1 0x40 DUP3 ADD MLOAD DUP2 PUSH1 0x2 ADD SSTORE SWAP1 POP POP PUSH2 0x36D5 JUMP JUMPDEST PUSH1 0x0 SWAP2 POP DUP4 DUP6 DUP4 PUSH2 0x3666 JUMP JUMPDEST DUP4 DUP6 DUP4 PUSH1 0x3C DUP2 LT PUSH2 0x36AF JUMPI PUSH2 0x36AF PUSH2 0x4F73 JUMP JUMPDEST PUSH1 0x3 MUL ADD PUSH1 0x0 DUP3 ADD MLOAD DUP2 PUSH1 0x0 ADD SSTORE PUSH1 0x20 DUP3 ADD MLOAD DUP2 PUSH1 0x1 ADD SSTORE PUSH1 0x40 DUP3 ADD MLOAD DUP2 PUSH1 0x2 ADD SSTORE SWAP1 POP POP JUMPDEST POP SWAP4 SWAP3 POP POP POP JUMP JUMPDEST PUSH1 0x0 DUP1 PUSH2 0x36EA DUP4 DUP6 PUSH2 0x4DEB JUMP JUMPDEST SWAP1 POP PUSH2 0x3702 DUP5 ISZERO DUP1 PUSH2 0x2874 JUMPI POP DUP4 PUSH2 0x2872 DUP7 DUP5 PUSH2 0x4DD7 JUMP JUMPDEST DUP1 PUSH2 0x3711 JUMPI PUSH1 0x0 SWAP2 POP POP PUSH2 0x2891 JUMP JUMPDEST PUSH8 0xDE0B6B3A7640000 PUSH2 0x2A6F PUSH1 0x1 DUP4 PUSH2 0x4E82 JUMP JUMPDEST DUP2 PUSH2 0x3733 JUMPI PUSH2 0x3733 DUP2 PUSH2 0x3BF3 JUMP JUMPDEST POP POP JUMP JUMPDEST PUSH1 0x0 DUP3 PUSH8 0xDE0B6B3A7640000 EQ DUP1 PUSH2 0x374D JUMPI POP DUP2 ISZERO JUMPDEST ISZERO PUSH2 0x3761 JUMPI POP PUSH8 0xDE0B6B3A7640000 PUSH2 0x2891 JUMP JUMPDEST PUSH1 0x0 PUSH2 0x376D DUP5 DUP5 PUSH2 0x3C46 JUMP JUMPDEST SWAP1 POP PUSH1 0x0 PUSH2 0x3787 PUSH2 0x3780 DUP4 PUSH2 0x2710 PUSH2 0x36DD JUMP JUMPDEST PUSH1 0x1 PUSH2 0x3D26 JUMP JUMPDEST SWAP1 POP PUSH2 0x3793 DUP3 DUP3 PUSH2 0x3D26 JUMP JUMPDEST SWAP6 SWAP5 POP POP POP POP POP JUMP JUMPDEST PUSH1 0x0 DUP2 DUP4 LT ISZERO PUSH2 0x2AED JUMPI DUP2 PUSH2 0x2737 JUMP JUMPDEST PUSH1 0x0 DUP1 DUP1 DUP7 ISZERO DUP1 ISZERO PUSH2 0x37BC JUMPI POP DUP6 ISZERO JUMPDEST ISZERO PUSH2 0x37CF JUMPI POP PUSH1 0x0 SWAP2 POP DUP2 SWAP1 POP DUP1 PUSH2 0x38E5 JUMP JUMPDEST DUP5 PUSH2 0x37E2 JUMPI POP DUP6 SWAP2 POP DUP5 SWAP1 POP PUSH1 0x0 PUSH2 0x38E5 JUMP JUMPDEST PUSH1 0x0 PUSH2 0x3804 PUSH2 0x3613 PUSH2 0x37FD PUSH8 0xDE0B6B3A7640000 PUSH1 0x2 PUSH2 0x4DEB JUMP JUMPDEST DUP8 SWAP1 PUSH2 0x36DD JUMP JUMPDEST SWAP1 POP PUSH2 0x3822 PUSH2 0x381B DUP8 PUSH8 0xDE0B6B3A7640000 PUSH2 0x4DEB JUMP JUMPDEST DUP3 SWAP1 PUSH2 0x3737 JUMP JUMPDEST SWAP1 POP DUP8 DUP8 DUP1 DUP3 GT DUP1 ISZERO SWAP1 PUSH2 0x3834 JUMPI SWAP1 SWAP2 SWAP1 JUMPDEST DUP2 PUSH2 0x385A JUMPI PUSH1 0x0 PUSH2 0x3845 DUP6 DUP6 PUSH2 0x284D JUMP JUMPDEST SWAP1 POP PUSH2 0x3851 DUP2 DUP6 PUSH2 0x4E82 JUMP JUMPDEST SWAP6 POP SWAP3 POP PUSH2 0x38C0 JUMP JUMPDEST PUSH1 0x0 PUSH2 0x3870 PUSH2 0x3869 DUP5 DUP7 PUSH2 0x4E82 JUMP JUMPDEST DUP7 SWAP1 PUSH2 0x284D JUMP JUMPDEST SWAP1 POP PUSH1 0x0 PUSH2 0x387E DUP5 DUP7 PUSH2 0x4D5B JUMP JUMPDEST SWAP1 POP PUSH1 0x2 PUSH2 0x388C DUP4 DUP4 PUSH2 0x4D5B JUMP JUMPDEST PUSH2 0x3896 SWAP2 SWAP1 PUSH2 0x4DD7 JUMP JUMPDEST SWAP5 POP PUSH1 0x2 PUSH2 0x38A4 DUP4 DUP4 PUSH2 0x4E82 JUMP JUMPDEST PUSH2 0x38AE SWAP2 SWAP1 PUSH2 0x4DD7 JUMP JUMPDEST SWAP4 POP PUSH2 0x38BB PUSH1 0x2 DUP4 PUSH2 0x4DD7 JUMP JUMPDEST SWAP7 POP POP POP JUMPDEST DUP1 PUSH2 0x38D5 JUMPI DUP3 DUP3 PUSH2 0x38D0 DUP8 PUSH2 0x4F2A JUMP JUMPDEST PUSH2 0x38D9 JUMP JUMPDEST DUP2 DUP4 DUP7 JUMPDEST SWAP2 SWAP9 POP SWAP7 POP SWAP5 POP POP POP POP POP JUMPDEST SWAP5 POP SWAP5 POP SWAP5 SWAP2 POP POP JUMP JUMPDEST PUSH1 0x0 PUSH2 0x3915 PUSH1 0x40 MLOAD DUP1 PUSH1 0x60 ADD PUSH1 0x40 MSTORE DUP1 PUSH1 0x0 DUP2 MSTORE PUSH1 0x20 ADD PUSH1 0x0 DUP2 MSTORE PUSH1 0x20 ADD PUSH1 0x0 DUP2 MSTORE POP SWAP1 JUMP JUMPDEST PUSH2 0x3939 PUSH1 0x40 MLOAD DUP1 PUSH1 0x60 ADD PUSH1 0x40 MSTORE DUP1 PUSH1 0x0 DUP2 MSTORE PUSH1 0x20 ADD PUSH1 0x0 DUP2 MSTORE PUSH1 0x20 ADD PUSH1 0x0 DUP2 MSTORE POP SWAP1 JUMP JUMPDEST TIMESTAMP DUP7 DUP7 PUSH1 0x3C DUP2 LT PUSH2 0x394C JUMPI PUSH2 0x394C PUSH2 0x4F73 JUMP JUMPDEST PUSH1 0x3 MUL ADD PUSH1 0x40 MLOAD DUP1 PUSH1 0x60 ADD PUSH1 0x40 MSTORE SWAP1 DUP2 PUSH1 0x0 DUP3 ADD SLOAD DUP2 MSTORE PUSH1 0x20 ADD PUSH1 0x1 DUP3 ADD SLOAD DUP2 MSTORE PUSH1 0x20 ADD PUSH1 0x2 DUP3 ADD SLOAD DUP2 MSTORE POP POP SWAP3 POP DUP3 PUSH1 0x0 ADD MLOAD SWAP4 POP PUSH1 0x0 DUP6 DUP3 PUSH2 0x3990 SWAP2 SWAP1 PUSH2 0x4E82 JUMP JUMPDEST SWAP1 POP DUP1 DUP5 PUSH1 0x0 ADD MLOAD GT PUSH2 0x39B9 JUMPI POP DUP3 MSTORE PUSH1 0x20 DUP1 DUP4 ADD MLOAD SWAP1 DUP3 ADD MSTORE PUSH1 0x40 DUP1 DUP4 ADD MLOAD SWAP1 DUP3 ADD MSTORE PUSH2 0x3AD9 JUMP JUMPDEST DUP4 MLOAD DUP3 EQ PUSH2 0x39C5 JUMPI DUP2 DUP5 MSTORE JUMPDEST PUSH1 0x0 DUP1 PUSH2 0x39D3 DUP11 DUP11 DUP6 PUSH2 0x3D43 JUMP JUMPDEST DUP2 MLOAD SWAP2 SWAP4 POP SWAP2 POP DUP4 EQ ISZERO PUSH2 0x39E9 JUMPI DUP2 SWAP5 POP PUSH2 0x3AD4 JUMP JUMPDEST DUP1 MLOAD DUP4 EQ ISZERO PUSH2 0x39FA JUMPI DUP1 SWAP5 POP PUSH2 0x3AD4 JUMP JUMPDEST DUP2 MLOAD DUP2 MLOAD EQ ISZERO PUSH2 0x3A0C JUMPI DUP2 SWAP5 POP PUSH2 0x3AD4 JUMP JUMPDEST PUSH1 0x0 DUP3 PUSH1 0x20 ADD MLOAD DUP3 PUSH1 0x20 ADD MLOAD PUSH2 0x3A22 SWAP2 SWAP1 PUSH2 0x4E82 JUMP JUMPDEST SWAP1 POP PUSH1 0x0 DUP4 PUSH1 0x40 ADD MLOAD DUP4 PUSH1 0x40 ADD MLOAD PUSH2 0x3A3A SWAP2 SWAP1 PUSH2 0x4E82 JUMP JUMPDEST DUP5 MLOAD DUP5 MLOAD SWAP2 SWAP3 POP PUSH1 0x0 SWAP2 PUSH2 0x3A4E SWAP2 SWAP1 PUSH2 0x4E82 JUMP JUMPDEST PUSH2 0x3A60 SWAP1 PUSH8 0xDE0B6B3A7640000 PUSH2 0x4DEB JUMP JUMPDEST SWAP1 POP PUSH1 0x0 PUSH2 0x3A90 DUP3 DUP8 PUSH1 0x0 ADD MLOAD DUP10 PUSH2 0x3A78 SWAP2 SWAP1 PUSH2 0x4E82 JUMP JUMPDEST PUSH2 0x3A8A SWAP1 PUSH8 0xDE0B6B3A7640000 PUSH2 0x4DEB JUMP JUMPDEST SWAP1 PUSH2 0x2A13 JUMP JUMPDEST SWAP1 POP PUSH2 0x3AAA PUSH2 0x3A9F DUP6 DUP4 PUSH2 0x284D JUMP JUMPDEST PUSH1 0x20 DUP9 ADD MLOAD SWAP1 PUSH2 0x3D26 JUMP JUMPDEST PUSH1 0x20 DUP11 ADD MSTORE PUSH2 0x3AC7 PUSH2 0x3ABC DUP5 DUP4 PUSH2 0x284D JUMP JUMPDEST PUSH1 0x40 DUP9 ADD MLOAD SWAP1 PUSH2 0x3D26 JUMP JUMPDEST PUSH1 0x40 DUP11 ADD MSTORE POP POP POP DUP4 DUP7 MSTORE POP JUMPDEST POP POP POP POP JUMPDEST SWAP4 POP SWAP4 POP SWAP4 SWAP1 POP JUMP JUMPDEST PUSH1 0x0 DUP1 PUSH1 0x0 PUSH2 0x3AF9 PUSH2 0x175 SLOAD PUSH2 0x176 SLOAD DUP7 DUP9 PUSH2 0x37AC JUMP JUMPDEST PUSH2 0x175 DUP4 SWAP1 SSTORE PUSH2 0x176 DUP3 SWAP1 SSTORE PUSH1 0x40 DUP1 MLOAD DUP5 DUP2 MSTORE PUSH1 0x20 DUP2 ADD DUP5 SWAP1 MSTORE SWAP1 DUP2 ADD DUP3 SWAP1 MSTORE SWAP1 SWAP6 POP SWAP2 SWAP4 POP SWAP2 POP PUSH32 0xBD9B2EB2E69E8D71702753E645D1FBCDA9B8473629152F5A3CBC18BC2CEECC2F SWAP1 PUSH1 0x60 ADD PUSH1 0x40 MLOAD DUP1 SWAP2 SUB SWAP1 LOG1 POP POP SWAP3 SWAP2 POP POP JUMP JUMPDEST PUSH2 0x179 SLOAD PUSH2 0x17A SLOAD PUSH2 0x175 DUP1 SLOAD DUP4 SWAP2 SWAP1 PUSH1 0x0 SWAP1 PUSH2 0x3B74 SWAP1 DUP5 SWAP1 PUSH2 0x4D5B JUMP JUMPDEST SWAP3 POP POP DUP2 SWAP1 SSTORE POP DUP1 PUSH2 0x176 PUSH1 0x0 DUP3 DUP3 SLOAD PUSH2 0x3B8E SWAP2 SWAP1 PUSH2 0x4D5B JUMP JUMPDEST SWAP3 POP POP DUP2 SWAP1 SSTORE POP DUP2 PUSH2 0x177 PUSH1 0x0 DUP3 DUP3 SLOAD PUSH2 0x3BA8 SWAP2 SWAP1 PUSH2 0x4D5B JUMP JUMPDEST SWAP3 POP POP DUP2 SWAP1 SSTORE POP DUP1 PUSH2 0x178 PUSH1 0x0 DUP3 DUP3 SLOAD PUSH2 0x3BC2 SWAP2 SWAP1 PUSH2 0x4D5B JUMP JUMPDEST SWAP1 SWAP2 SSTORE POP POP PUSH1 0x0 PUSH2 0x179 DUP2 SWAP1 SSTORE PUSH2 0x17A SSTORE POP POP JUMP JUMPDEST PUSH1 0x0 PUSH2 0x3BE7 DUP4 DUP4 GT ISZERO PUSH1 0x1 PUSH2 0x3725 JUMP JUMPDEST PUSH1 0x0 PUSH2 0x288D DUP4 DUP6 PUSH2 0x4E82 JUMP JUMPDEST PUSH3 0x461BCD PUSH1 0xE5 SHL PUSH1 0x0 SWAP1 DUP2 MSTORE PUSH1 0x20 PUSH1 0x4 MSTORE PUSH1 0x7 PUSH1 0x24 MSTORE PUSH7 0x42414C23000030 PUSH1 0xA DUP1 DUP5 DIV DUP2 DUP2 MOD PUSH1 0x30 SWAP1 DUP2 ADD PUSH1 0x8 SHL SWAP6 DUP4 SWAP1 MOD SWAP6 SWAP1 SWAP6 ADD SWAP1 DUP3 SWAP1 DIV SWAP2 DUP3 MOD SWAP1 SWAP5 ADD PUSH1 0x10 SHL SWAP4 SWAP1 SWAP4 ADD ADD PUSH1 0xC8 SHL PUSH1 0x44 MSTORE PUSH1 0x64 SWAP1 REVERT JUMPDEST PUSH1 0x0 PUSH2 0x3C59 PUSH1 0x1 PUSH1 0xFF SHL DUP5 LT PUSH1 0x6 PUSH2 0x3725 JUMP JUMPDEST DUP3 PUSH2 0x3C7F PUSH24 0xBCE5086492111AEA88F4BB1CA6BCF584181EA8059F76532 DUP5 LT PUSH1 0x7 PUSH2 0x3725 JUMP JUMPDEST DUP3 PUSH1 0x0 PUSH8 0xC7D713B49DA0000 DUP4 SGT DUP1 ISZERO PUSH2 0x3CA0 JUMPI POP PUSH8 0xF43FC2C04EE0000 DUP4 SLT JUMPDEST ISZERO PUSH2 0x3CD7 JUMPI PUSH1 0x0 PUSH2 0x3CB0 DUP5 PUSH2 0x3EB5 JUMP JUMPDEST SWAP1 POP PUSH8 0xDE0B6B3A7640000 DUP1 DUP3 SMOD DUP5 MUL SDIV DUP4 PUSH8 0xDE0B6B3A7640000 DUP4 SDIV MUL ADD SWAP2 POP POP PUSH2 0x3CE5 JUMP JUMPDEST DUP2 PUSH2 0x3CE1 DUP5 PUSH2 0x3FDD JUMP JUMPDEST MUL SWAP1 POP JUMPDEST PUSH8 0xDE0B6B3A7640000 SWAP1 SDIV PUSH2 0x3D1D PUSH9 0x238FD42C5CF03FFFF NOT DUP3 SLT DUP1 ISZERO SWAP1 PUSH2 0x3D16 JUMPI POP PUSH9 0x70C1CC73B00C80000 DUP3 SGT ISZERO JUMPDEST PUSH1 0x8 PUSH2 0x3725 JUMP JUMPDEST PUSH2 0xFF0 DUP2 PUSH2 0x4388 JUMP JUMPDEST PUSH1 0x0 DUP1 PUSH2 0x3D33 DUP4 DUP6 PUSH2 0x4D5B JUMP JUMPDEST SWAP1 POP PUSH2 0x2737 DUP5 DUP3 LT ISZERO PUSH1 0x0 PUSH2 0x3725 JUMP JUMPDEST PUSH2 0x3D67 PUSH1 0x40 MLOAD DUP1 PUSH1 0x60 ADD PUSH1 0x40 MSTORE DUP1 PUSH1 0x0 DUP2 MSTORE PUSH1 0x20 ADD PUSH1 0x0 DUP2 MSTORE PUSH1 0x20 ADD PUSH1 0x0 DUP2 MSTORE POP SWAP1 JUMP JUMPDEST PUSH2 0x3D8B PUSH1 0x40 MLOAD DUP1 PUSH1 0x60 ADD PUSH1 0x40 MSTORE DUP1 PUSH1 0x0 DUP2 MSTORE PUSH1 0x20 ADD PUSH1 0x0 DUP2 MSTORE PUSH1 0x20 ADD PUSH1 0x0 DUP2 MSTORE POP SWAP1 JUMP JUMPDEST DUP5 DUP5 PUSH1 0x3C DUP2 LT PUSH2 0x3D9D JUMPI PUSH2 0x3D9D PUSH2 0x4F73 JUMP JUMPDEST PUSH1 0x3 MUL ADD PUSH1 0x40 MLOAD DUP1 PUSH1 0x60 ADD PUSH1 0x40 MSTORE SWAP1 DUP2 PUSH1 0x0 DUP3 ADD SLOAD DUP2 MSTORE PUSH1 0x20 ADD PUSH1 0x1 DUP3 ADD SLOAD DUP2 MSTORE PUSH1 0x20 ADD PUSH1 0x2 DUP3 ADD SLOAD DUP2 MSTORE POP POP SWAP2 POP DUP3 DUP3 PUSH1 0x0 ADD MLOAD GT PUSH2 0x3E01 JUMPI DUP2 MLOAD DUP4 EQ ISZERO PUSH2 0x3DE5 JUMPI PUSH2 0x3EAD JUMP JUMPDEST TIMESTAMP DUP2 MSTORE PUSH1 0x20 DUP1 DUP4 ADD MLOAD SWAP1 DUP3 ADD MSTORE PUSH1 0x40 DUP1 DUP4 ADD MLOAD SWAP1 DUP3 ADD MSTORE PUSH2 0x3EAD JUMP JUMPDEST PUSH1 0x3C PUSH2 0x3E0E DUP6 PUSH1 0x1 PUSH2 0x4D5B JUMP JUMPDEST PUSH2 0x3E18 SWAP2 SWAP1 PUSH2 0x4EFC JUMP JUMPDEST SWAP4 POP DUP5 DUP5 PUSH1 0x3C DUP2 LT PUSH2 0x3E2C JUMPI PUSH2 0x3E2C PUSH2 0x4F73 JUMP JUMPDEST PUSH1 0x3 MUL ADD PUSH1 0x40 MLOAD DUP1 PUSH1 0x60 ADD PUSH1 0x40 MSTORE SWAP1 DUP2 PUSH1 0x0 DUP3 ADD SLOAD DUP2 MSTORE PUSH1 0x20 ADD PUSH1 0x1 DUP3 ADD SLOAD DUP2 MSTORE PUSH1 0x20 ADD PUSH1 0x2 DUP3 ADD SLOAD DUP2 MSTORE POP POP SWAP2 POP PUSH1 0x1 DUP3 PUSH1 0x0 ADD MLOAD GT PUSH2 0x3E8E JUMPI PUSH1 0x40 DUP1 MLOAD PUSH1 0x60 DUP2 ADD DUP3 MSTORE DUP7 SLOAD DUP2 MSTORE PUSH1 0x1 DUP8 ADD SLOAD PUSH1 0x20 DUP3 ADD MSTORE PUSH1 0x2 DUP8 ADD SLOAD SWAP2 DUP2 ADD SWAP2 SWAP1 SWAP2 MSTORE SWAP2 POP JUMPDEST DUP2 MLOAD DUP4 GT PUSH2 0x3E9D JUMPI POP DUP1 PUSH2 0x3EAD JUMP JUMPDEST PUSH2 0x3EA8 DUP6 DUP5 DUP7 PUSH2 0x476B JUMP JUMPDEST SWAP2 POP SWAP2 POP JUMPDEST SWAP4 POP SWAP4 SWAP2 POP POP JUMP JUMPDEST PUSH8 0xDE0B6B3A7640000 MUL PUSH1 0x0 DUP1 PUSH15 0xC097CE7BC90715B34B9F1000000000 DUP1 DUP5 ADD SWAP1 PUSH15 0xC097CE7BC90715B34B9F0FFFFFFFFF NOT DUP6 ADD MUL DUP2 PUSH2 0x3EF7 JUMPI PUSH2 0x3EF7 PUSH2 0x4F5D JUMP JUMPDEST SDIV SWAP1 POP PUSH1 0x0 PUSH15 0xC097CE7BC90715B34B9F1000000000 DUP3 DUP1 MUL SDIV SWAP1 POP DUP2 DUP1 PUSH15 0xC097CE7BC90715B34B9F1000000000 DUP2 DUP5 MUL SDIV SWAP2 POP PUSH1 0x3 DUP3 SDIV ADD PUSH15 0xC097CE7BC90715B34B9F1000000000 DUP3 DUP5 MUL SDIV SWAP2 POP PUSH1 0x5 DUP3 SDIV ADD PUSH15 0xC097CE7BC90715B34B9F1000000000 DUP3 DUP5 MUL SDIV SWAP2 POP PUSH1 0x7 DUP3 SDIV ADD PUSH15 0xC097CE7BC90715B34B9F1000000000 DUP3 DUP5 MUL SDIV SWAP2 POP PUSH1 0x9 DUP3 SDIV ADD PUSH15 0xC097CE7BC90715B34B9F1000000000 DUP3 DUP5 MUL SDIV SWAP2 POP PUSH1 0xB DUP3 SDIV ADD PUSH15 0xC097CE7BC90715B34B9F1000000000 DUP3 DUP5 MUL SDIV SWAP2 POP PUSH1 0xD DUP3 SDIV ADD PUSH15 0xC097CE7BC90715B34B9F1000000000 DUP3 DUP5 MUL SDIV SWAP2 POP PUSH1 0xF DUP3 SDIV ADD PUSH1 0x2 MUL SWAP6 SWAP5 POP POP POP POP POP JUMP JUMPDEST PUSH1 0x0 PUSH8 0xDE0B6B3A7640000 DUP3 SLT ISZERO PUSH2 0x401F JUMPI PUSH2 0x4016 DUP3 PUSH15 0xC097CE7BC90715B34B9F1000000000 DUP2 PUSH2 0x4010 JUMPI PUSH2 0x4010 PUSH2 0x4F5D JUMP JUMPDEST SDIV PUSH2 0x3FDD JUMP JUMPDEST PUSH1 0x0 SUB SWAP3 SWAP2 POP POP JUMP JUMPDEST PUSH1 0x0 PUSH31 0x1600EF3172E58D2E933EC884FDE10064C63B5372D805E203C0000000000000 DUP4 SLT PUSH2 0x4070 JUMPI PUSH24 0x195E54C5DD42177F53A27172FA9EC630262827000000000 DUP4 SDIV SWAP3 POP PUSH9 0x6F05B59D3B2000000 ADD JUMPDEST PUSH20 0x11798004D755D3C8BC8E03204CF44619E000000 DUP4 SLT PUSH2 0x40A8 JUMPI PUSH12 0x1425982CF597CD205CEF7380 DUP4 SDIV SWAP3 POP PUSH9 0x3782DACE9D9000000 ADD JUMPDEST PUSH1 0x64 SWAP3 DUP4 MUL SWAP3 MUL PUSH15 0x1855144814A7FF805980FF0084000 DUP4 SLT PUSH2 0x40F0 JUMPI PUSH15 0x1855144814A7FF805980FF0084000 PUSH9 0x56BC75E2D63100000 DUP5 MUL SDIV SWAP3 POP PUSH9 0xAD78EBC5AC62000000 ADD JUMPDEST PUSH12 0x2DF0AB5A80A22C61AB5A700 DUP4 SLT PUSH2 0x412B JUMPI PUSH12 0x2DF0AB5A80A22C61AB5A700 PUSH9 0x56BC75E2D63100000 DUP5 MUL SDIV SWAP3 POP PUSH9 0x56BC75E2D631000000 ADD JUMPDEST PUSH10 0x3F1FCE3DA636EA5CF850 DUP4 SLT PUSH2 0x4162 JUMPI PUSH10 0x3F1FCE3DA636EA5CF850 PUSH9 0x56BC75E2D63100000 DUP5 MUL SDIV SWAP3 POP PUSH9 0x2B5E3AF16B18800000 ADD JUMPDEST PUSH10 0x127FA27722CC06CC5E2 DUP4 SLT PUSH2 0x4199 JUMPI PUSH10 0x127FA27722CC06CC5E2 PUSH9 0x56BC75E2D63100000 DUP5 MUL SDIV SWAP3 POP PUSH9 0x15AF1D78B58C400000 ADD JUMPDEST PUSH9 0x280E60114EDB805D03 DUP4 SLT PUSH2 0x41CE JUMPI PUSH9 0x280E60114EDB805D03 PUSH9 0x56BC75E2D63100000 DUP5 MUL SDIV SWAP3 POP PUSH9 0xAD78EBC5AC6200000 ADD JUMPDEST PUSH9 0xEBC5FB41746121110 DUP4 SLT PUSH2 0x41F9 JUMPI PUSH9 0xEBC5FB41746121110 PUSH9 0x56BC75E2D63100000 SWAP4 DUP5 MUL SDIV SWAP3 ADD JUMPDEST PUSH9 0x8F00F760A4B2DB55D DUP4 SLT PUSH2 0x422E JUMPI PUSH9 0x8F00F760A4B2DB55D PUSH9 0x56BC75E2D63100000 DUP5 MUL SDIV SWAP3 POP PUSH9 0x2B5E3AF16B1880000 ADD JUMPDEST PUSH9 0x6F5F1775788937937 DUP4 SLT PUSH2 0x4263 JUMPI PUSH9 0x6F5F1775788937937 PUSH9 0x56BC75E2D63100000 DUP5 MUL SDIV SWAP3 POP PUSH9 0x15AF1D78B58C40000 ADD JUMPDEST PUSH9 0x6248F33704B286603 DUP4 SLT PUSH2 0x4297 JUMPI PUSH9 0x6248F33704B286603 PUSH9 0x56BC75E2D63100000 DUP5 MUL SDIV SWAP3 POP PUSH8 0xAD78EBC5AC620000 ADD JUMPDEST PUSH9 0x5C548670B9510E7AC DUP4 SLT PUSH2 0x42CB JUMPI PUSH9 0x5C548670B9510E7AC PUSH9 0x56BC75E2D63100000 DUP5 MUL SDIV SWAP3 POP PUSH8 0x56BC75E2D6310000 ADD JUMPDEST PUSH1 0x0 PUSH9 0x56BC75E2D63100000 DUP5 ADD PUSH9 0x56BC75E2D63100000 DUP1 DUP7 SUB MUL DUP2 PUSH2 0x42F4 JUMPI PUSH2 0x42F4 PUSH2 0x4F5D JUMP JUMPDEST SDIV SWAP1 POP PUSH1 0x0 PUSH9 0x56BC75E2D63100000 DUP3 DUP1 MUL SDIV SWAP1 POP DUP2 DUP1 PUSH9 0x56BC75E2D63100000 DUP2 DUP5 MUL SDIV SWAP2 POP PUSH1 0x3 DUP3 SDIV ADD PUSH9 0x56BC75E2D63100000 DUP3 DUP5 MUL SDIV SWAP2 POP PUSH1 0x5 DUP3 SDIV ADD PUSH9 0x56BC75E2D63100000 DUP3 DUP5 MUL SDIV SWAP2 POP PUSH1 0x7 DUP3 SDIV ADD PUSH9 0x56BC75E2D63100000 DUP3 DUP5 MUL SDIV SWAP2 POP PUSH1 0x9 DUP3 SDIV ADD PUSH9 0x56BC75E2D63100000 DUP3 DUP5 MUL SDIV SWAP2 POP PUSH1 0xB DUP3 SDIV ADD PUSH1 0x2 MUL PUSH1 0x64 DUP6 DUP3 ADD SDIV SWAP8 SWAP7 POP POP POP POP POP POP POP JUMP JUMPDEST PUSH1 0x0 PUSH2 0x43B7 PUSH9 0x238FD42C5CF03FFFF NOT DUP4 SLT ISZERO DUP1 ISZERO PUSH2 0x43B0 JUMPI POP PUSH9 0x70C1CC73B00C80000 DUP4 SGT ISZERO JUMPDEST PUSH1 0x9 PUSH2 0x3725 JUMP JUMPDEST PUSH1 0x0 DUP3 SLT ISZERO PUSH2 0x43F0 JUMPI PUSH2 0x43CC DUP3 PUSH1 0x0 SUB PUSH2 0x4388 JUMP JUMPDEST PUSH15 0xC097CE7BC90715B34B9F1000000000 DUP2 PUSH2 0x43E9 JUMPI PUSH2 0x43E9 PUSH2 0x4F5D JUMP JUMPDEST SDIV SWAP3 SWAP2 POP POP JUMP JUMPDEST PUSH1 0x0 PUSH9 0x6F05B59D3B2000000 DUP4 SLT PUSH2 0x4430 JUMPI POP PUSH9 0x6F05B59D3B1FFFFFF NOT SWAP1 SWAP2 ADD SWAP1 PUSH24 0x195E54C5DD42177F53A27172FA9EC630262827000000000 PUSH2 0x4466 JUMP JUMPDEST PUSH9 0x3782DACE9D9000000 DUP4 SLT PUSH2 0x4462 JUMPI POP PUSH9 0x3782DACE9D8FFFFFF NOT SWAP1 SWAP2 ADD SWAP1 PUSH12 0x1425982CF597CD205CEF7380 PUSH2 0x4466 JUMP JUMPDEST POP PUSH1 0x1 JUMPDEST PUSH1 0x64 SWAP3 SWAP1 SWAP3 MUL SWAP2 PUSH9 0x56BC75E2D63100000 PUSH9 0xAD78EBC5AC62000000 DUP5 SLT PUSH2 0x44B6 JUMPI PUSH9 0xAD78EBC5AC61FFFFFF NOT SWAP1 SWAP4 ADD SWAP3 PUSH9 0x56BC75E2D63100000 PUSH15 0x1855144814A7FF805980FF0084000 DUP3 MUL SDIV SWAP1 POP JUMPDEST PUSH9 0x56BC75E2D631000000 DUP5 SLT PUSH2 0x44F2 JUMPI PUSH9 0x56BC75E2D630FFFFFF NOT SWAP1 SWAP4 ADD SWAP3 PUSH9 0x56BC75E2D63100000 PUSH12 0x2DF0AB5A80A22C61AB5A700 DUP3 MUL SDIV SWAP1 POP JUMPDEST PUSH9 0x2B5E3AF16B18800000 DUP5 SLT PUSH2 0x452C JUMPI PUSH9 0x2B5E3AF16B187FFFFF NOT SWAP1 SWAP4 ADD SWAP3 PUSH9 0x56BC75E2D63100000 PUSH10 0x3F1FCE3DA636EA5CF850 DUP3 MUL SDIV SWAP1 POP JUMPDEST PUSH9 0x15AF1D78B58C400000 DUP5 SLT PUSH2 0x4566 JUMPI PUSH9 0x15AF1D78B58C3FFFFF NOT SWAP1 SWAP4 ADD SWAP3 PUSH9 0x56BC75E2D63100000 PUSH10 0x127FA27722CC06CC5E2 DUP3 MUL SDIV SWAP1 POP JUMPDEST PUSH9 0xAD78EBC5AC6200000 DUP5 SLT PUSH2 0x459F JUMPI PUSH9 0xAD78EBC5AC61FFFFF NOT SWAP1 SWAP4 ADD SWAP3 PUSH9 0x56BC75E2D63100000 PUSH9 0x280E60114EDB805D03 DUP3 MUL SDIV SWAP1 POP JUMPDEST PUSH9 0x56BC75E2D63100000 DUP5 SLT PUSH2 0x45D8 JUMPI PUSH9 0x56BC75E2D630FFFFF NOT SWAP1 SWAP4 ADD SWAP3 PUSH9 0x56BC75E2D63100000 PUSH9 0xEBC5FB41746121110 DUP3 MUL SDIV SWAP1 POP JUMPDEST PUSH9 0x2B5E3AF16B1880000 DUP5 SLT PUSH2 0x4611 JUMPI PUSH9 0x2B5E3AF16B187FFFF NOT SWAP1 SWAP4 ADD SWAP3 PUSH9 0x56BC75E2D63100000 PUSH9 0x8F00F760A4B2DB55D DUP3 MUL SDIV SWAP1 POP JUMPDEST PUSH9 0x15AF1D78B58C40000 DUP5 SLT PUSH2 0x464A JUMPI PUSH9 0x15AF1D78B58C3FFFF NOT SWAP1 SWAP4 ADD SWAP3 PUSH9 0x56BC75E2D63100000 PUSH9 0x6F5F1775788937937 DUP3 MUL SDIV SWAP1 POP JUMPDEST PUSH9 0x56BC75E2D63100000 DUP5 DUP2 ADD SWAP1 DUP6 SWAP1 PUSH1 0x2 SWAP1 DUP3 DUP1 MUL SDIV SDIV SWAP2 DUP3 ADD SWAP2 SWAP1 POP PUSH1 0x3 PUSH9 0x56BC75E2D63100000 DUP8 DUP4 MUL SDIV SDIV SWAP2 DUP3 ADD SWAP2 SWAP1 POP PUSH1 0x4 PUSH9 0x56BC75E2D63100000 DUP8 DUP4 MUL SDIV SDIV SWAP2 DUP3 ADD SWAP2 SWAP1 POP PUSH1 0x5 PUSH9 0x56BC75E2D63100000 DUP8 DUP4 MUL SDIV SDIV SWAP2 DUP3 ADD SWAP2 SWAP1 POP PUSH1 0x6 PUSH9 0x56BC75E2D63100000 DUP8 DUP4 MUL SDIV SDIV SWAP2 DUP3 ADD SWAP2 SWAP1 POP PUSH1 0x7 PUSH9 0x56BC75E2D63100000 DUP8 DUP4 MUL SDIV SDIV SWAP2 DUP3 ADD SWAP2 SWAP1 POP PUSH1 0x8 PUSH9 0x56BC75E2D63100000 DUP8 DUP4 MUL SDIV SDIV SWAP2 DUP3 ADD SWAP2 SWAP1 POP PUSH1 0x9 PUSH9 0x56BC75E2D63100000 DUP8 DUP4 MUL SDIV SDIV SWAP2 DUP3 ADD SWAP2 SWAP1 POP PUSH1 0xA PUSH9 0x56BC75E2D63100000 DUP8 DUP4 MUL SDIV SDIV SWAP2 DUP3 ADD SWAP2 SWAP1 POP PUSH1 0xB PUSH9 0x56BC75E2D63100000 DUP8 DUP4 MUL SDIV SDIV SWAP2 DUP3 ADD SWAP2 SWAP1 POP PUSH1 0xC PUSH9 0x56BC75E2D63100000 DUP8 DUP4 MUL SDIV SDIV SWAP2 DUP3 ADD SWAP2 SWAP1 POP PUSH1 0x64 PUSH9 0x56BC75E2D63100000 DUP5 DUP5 MUL SDIV DUP6 MUL SDIV SWAP7 SWAP6 POP POP POP POP POP POP JUMP JUMPDEST PUSH2 0x478F PUSH1 0x40 MLOAD DUP1 PUSH1 0x60 ADD PUSH1 0x40 MSTORE DUP1 PUSH1 0x0 DUP2 MSTORE PUSH1 0x20 ADD PUSH1 0x0 DUP2 MSTORE PUSH1 0x20 ADD PUSH1 0x0 DUP2 MSTORE POP SWAP1 JUMP JUMPDEST PUSH2 0x47B3 PUSH1 0x40 MLOAD DUP1 PUSH1 0x60 ADD PUSH1 0x40 MSTORE DUP1 PUSH1 0x0 DUP2 MSTORE PUSH1 0x20 ADD PUSH1 0x0 DUP2 MSTORE PUSH1 0x20 ADD PUSH1 0x0 DUP2 MSTORE POP SWAP1 JUMP JUMPDEST PUSH1 0x0 PUSH1 0x3C PUSH2 0x47C2 DUP6 PUSH1 0x1 PUSH2 0x4D35 JUMP JUMPDEST PUSH2 0xFFFF AND PUSH2 0x47D0 SWAP2 SWAP1 PUSH2 0x4EFC JUMP JUMPDEST SWAP1 POP PUSH1 0x0 PUSH1 0x1 PUSH2 0x47E1 PUSH1 0x3C DUP5 PUSH2 0x4D5B JUMP JUMPDEST PUSH2 0x47EB SWAP2 SWAP1 PUSH2 0x4E82 JUMP JUMPDEST SWAP1 POP PUSH1 0x0 JUMPDEST PUSH1 0x2 PUSH2 0x47FC DUP4 DUP6 PUSH2 0x4D5B JUMP JUMPDEST PUSH2 0x4806 SWAP2 SWAP1 PUSH2 0x4DD7 JUMP JUMPDEST SWAP1 POP DUP8 PUSH2 0x4814 PUSH1 0x3C DUP4 PUSH2 0x4EFC JUMP JUMPDEST PUSH1 0x3C DUP2 LT PUSH2 0x4824 JUMPI PUSH2 0x4824 PUSH2 0x4F73 JUMP JUMPDEST PUSH1 0x3 MUL ADD PUSH1 0x40 MLOAD DUP1 PUSH1 0x60 ADD PUSH1 0x40 MSTORE SWAP1 DUP2 PUSH1 0x0 DUP3 ADD SLOAD DUP2 MSTORE PUSH1 0x20 ADD PUSH1 0x1 DUP3 ADD SLOAD DUP2 MSTORE PUSH1 0x20 ADD PUSH1 0x2 DUP3 ADD SLOAD DUP2 MSTORE POP POP SWAP5 POP PUSH1 0x1 DUP6 PUSH1 0x0 ADD MLOAD GT PUSH2 0x4871 JUMPI PUSH2 0x486A DUP2 PUSH1 0x1 PUSH2 0x4D5B JUMP JUMPDEST SWAP3 POP PUSH2 0x47F0 JUMP JUMPDEST DUP8 PUSH1 0x3C PUSH2 0x487F DUP4 PUSH1 0x1 PUSH2 0x4D5B JUMP JUMPDEST PUSH2 0x4889 SWAP2 SWAP1 PUSH2 0x4EFC JUMP JUMPDEST PUSH1 0x3C DUP2 LT PUSH2 0x4899 JUMPI PUSH2 0x4899 PUSH2 0x4F73 JUMP JUMPDEST PUSH1 0x3 MUL ADD PUSH1 0x40 MLOAD DUP1 PUSH1 0x60 ADD PUSH1 0x40 MSTORE SWAP1 DUP2 PUSH1 0x0 DUP3 ADD SLOAD DUP2 MSTORE PUSH1 0x20 ADD PUSH1 0x1 DUP3 ADD SLOAD DUP2 MSTORE PUSH1 0x20 ADD PUSH1 0x2 DUP3 ADD SLOAD DUP2 MSTORE POP POP SWAP4 POP PUSH1 0x0 DUP8 PUSH4 0xFFFFFFFF AND DUP7 PUSH1 0x0 ADD MLOAD GT ISZERO SWAP1 POP DUP1 DUP1 ISZERO PUSH2 0x48EE JUMPI POP DUP5 MLOAD PUSH4 0xFFFFFFFF DUP10 AND GT ISZERO JUMPDEST ISZERO PUSH2 0x48F9 JUMPI POP PUSH2 0x4924 JUMP JUMPDEST DUP1 PUSH2 0x4910 JUMPI PUSH2 0x4909 PUSH1 0x1 DUP4 PUSH2 0x4E82 JUMP JUMPDEST SWAP3 POP PUSH2 0x491E JUMP JUMPDEST PUSH2 0x491B DUP3 PUSH1 0x1 PUSH2 0x4D5B JUMP JUMPDEST SWAP4 POP JUMPDEST POP PUSH2 0x47F0 JUMP JUMPDEST POP POP POP SWAP4 POP SWAP4 SWAP2 POP POP JUMP JUMPDEST PUSH1 0x0 DUP3 PUSH1 0x1F DUP4 ADD SLT PUSH2 0x4940 JUMPI PUSH1 0x0 DUP1 REVERT JUMPDEST DUP2 MLOAD PUSH1 0x20 PUSH2 0x4955 PUSH2 0x4950 DUP4 PUSH2 0x4D11 JUMP JUMPDEST PUSH2 0x4CE0 JUMP JUMPDEST DUP1 DUP4 DUP3 MSTORE DUP3 DUP3 ADD SWAP2 POP DUP3 DUP7 ADD DUP8 DUP5 DUP7 PUSH1 0x5 SHL DUP10 ADD ADD GT ISZERO PUSH2 0x4975 JUMPI PUSH1 0x0 DUP1 REVERT JUMPDEST PUSH1 0x0 JUMPDEST DUP6 DUP2 LT ISZERO PUSH2 0x499D JUMPI DUP2 MLOAD PUSH2 0x498B DUP2 PUSH2 0x4F9F JUMP JUMPDEST DUP5 MSTORE SWAP3 DUP5 ADD SWAP3 SWAP1 DUP5 ADD SWAP1 PUSH1 0x1 ADD PUSH2 0x4978 JUMP JUMPDEST POP SWAP1 SWAP8 SWAP7 POP POP POP POP POP POP POP JUMP JUMPDEST PUSH1 0x0 PUSH1 0x20 DUP3 DUP5 SUB SLT ISZERO PUSH2 0x49BC JUMPI PUSH1 0x0 DUP1 REVERT JUMPDEST DUP2 CALLDATALOAD PUSH2 0x2737 DUP2 PUSH2 0x4F9F JUMP JUMPDEST PUSH1 0x0 DUP1 PUSH1 0x40 DUP4 DUP6 SUB SLT ISZERO PUSH2 0x49DA JUMPI PUSH1 0x0 DUP1 REVERT JUMPDEST DUP3 MLOAD PUSH8 0xFFFFFFFFFFFFFFFF DUP1 DUP3 GT ISZERO PUSH2 0x49F2 JUMPI PUSH1 0x0 DUP1 REVERT JUMPDEST DUP2 DUP6 ADD SWAP2 POP DUP6 PUSH1 0x1F DUP4 ADD SLT PUSH2 0x4A06 JUMPI PUSH1 0x0 DUP1 REVERT JUMPDEST DUP2 MLOAD PUSH1 0x20 PUSH2 0x4A16 PUSH2 0x4950 DUP4 PUSH2 0x4D11 JUMP JUMPDEST DUP1 DUP4 DUP3 MSTORE DUP3 DUP3 ADD SWAP2 POP DUP3 DUP7 ADD DUP11 DUP5 DUP7 PUSH1 0x5 SHL DUP10 ADD ADD GT ISZERO PUSH2 0x4A36 JUMPI PUSH1 0x0 DUP1 REVERT JUMPDEST PUSH1 0x0 SWAP7 POP JUMPDEST DUP5 DUP8 LT ISZERO PUSH2 0x4A68 JUMPI DUP1 MLOAD DUP1 PUSH1 0x6 SIGNEXTEND DUP2 EQ PUSH2 0x4A54 JUMPI PUSH1 0x0 DUP1 REVERT JUMPDEST DUP4 MSTORE PUSH1 0x1 SWAP7 SWAP1 SWAP7 ADD SWAP6 SWAP2 DUP4 ADD SWAP2 DUP4 ADD PUSH2 0x4A3B JUMP JUMPDEST POP SWAP2 DUP9 ADD MLOAD SWAP2 SWAP7 POP SWAP1 SWAP4 POP POP POP DUP1 DUP3 GT ISZERO PUSH2 0x4A82 JUMPI PUSH1 0x0 DUP1 REVERT JUMPDEST POP PUSH2 0x4A8F DUP6 DUP3 DUP7 ADD PUSH2 0x492F JUMP JUMPDEST SWAP2 POP POP SWAP3 POP SWAP3 SWAP1 POP JUMP JUMPDEST PUSH1 0x0 PUSH1 0x20 DUP3 DUP5 SUB SLT ISZERO PUSH2 0x4AAB JUMPI PUSH1 0x0 DUP1 REVERT JUMPDEST DUP2 MLOAD PUSH2 0x2737 DUP2 PUSH2 0x4FB4 JUMP JUMPDEST PUSH1 0x0 DUP1 PUSH1 0x0 DUP1 PUSH1 0x0 DUP1 PUSH1 0xC0 DUP8 DUP10 SUB SLT ISZERO PUSH2 0x4ACF JUMPI PUSH1 0x0 DUP1 REVERT JUMPDEST DUP7 CALLDATALOAD PUSH2 0x4ADA DUP2 PUSH2 0x4FB4 JUMP JUMPDEST SWAP6 POP PUSH1 0x20 DUP8 ADD CALLDATALOAD PUSH2 0x4AEA DUP2 PUSH2 0x4FB4 JUMP JUMPDEST SWAP6 SWAP9 SWAP6 SWAP8 POP POP POP POP PUSH1 0x40 DUP5 ADD CALLDATALOAD SWAP4 PUSH1 0x60 DUP2 ADD CALLDATALOAD SWAP4 PUSH1 0x80 DUP3 ADD CALLDATALOAD SWAP4 POP PUSH1 0xA0 SWAP1 SWAP2 ADD CALLDATALOAD SWAP2 POP JUMP JUMPDEST PUSH1 0x0 DUP1 PUSH1 0x0 PUSH1 0x60 DUP5 DUP7 SUB SLT ISZERO PUSH2 0x4B24 JUMPI PUSH1 0x0 DUP1 REVERT JUMPDEST DUP4 CALLDATALOAD PUSH2 0x4B2F DUP2 PUSH2 0x4FB4 JUMP JUMPDEST SWAP6 PUSH1 0x20 DUP6 ADD CALLDATALOAD SWAP6 POP PUSH1 0x40 SWAP1 SWAP5 ADD CALLDATALOAD SWAP4 SWAP3 POP POP POP JUMP JUMPDEST PUSH1 0x0 PUSH1 0x20 DUP3 DUP5 SUB SLT ISZERO PUSH2 0x4B56 JUMPI PUSH1 0x0 DUP1 REVERT JUMPDEST DUP2 MLOAD PUSH2 0x2737 DUP2 PUSH2 0x4F9F JUMP JUMPDEST PUSH1 0x0 PUSH1 0x20 DUP3 DUP5 SUB SLT ISZERO PUSH2 0x4B73 JUMPI PUSH1 0x0 DUP1 REVERT JUMPDEST POP CALLDATALOAD SWAP2 SWAP1 POP JUMP JUMPDEST PUSH1 0x0 PUSH1 0x20 DUP3 DUP5 SUB SLT ISZERO PUSH2 0x4B8C JUMPI PUSH1 0x0 DUP1 REVERT JUMPDEST POP MLOAD SWAP2 SWAP1 POP JUMP JUMPDEST PUSH1 0x0 DUP1 PUSH1 0x40 DUP4 DUP6 SUB SLT ISZERO PUSH2 0x4BA6 JUMPI PUSH1 0x0 DUP1 REVERT JUMPDEST POP POP DUP1 CALLDATALOAD SWAP3 PUSH1 0x20 SWAP1 SWAP2 ADD CALLDATALOAD SWAP2 POP JUMP JUMPDEST PUSH1 0x0 DUP1 PUSH1 0x0 PUSH1 0x60 DUP5 DUP7 SUB SLT ISZERO PUSH2 0x4BCA JUMPI PUSH1 0x0 DUP1 REVERT JUMPDEST POP POP DUP2 CALLDATALOAD SWAP4 PUSH1 0x20 DUP4 ADD CALLDATALOAD SWAP4 POP PUSH1 0x40 SWAP1 SWAP3 ADD CALLDATALOAD SWAP2 SWAP1 POP JUMP JUMPDEST PUSH1 0x0 DUP1 PUSH1 0x0 DUP1 PUSH1 0x0 DUP1 PUSH1 0xC0 DUP8 DUP10 SUB SLT ISZERO PUSH2 0x4BFA JUMPI PUSH1 0x0 DUP1 REVERT JUMPDEST POP POP DUP5 CALLDATALOAD SWAP7 PUSH1 0x20 DUP7 ADD CALLDATALOAD SWAP7 POP PUSH1 0x40 DUP7 ADD CALLDATALOAD SWAP6 PUSH1 0x60 DUP2 ADD CALLDATALOAD SWAP6 POP PUSH1 0x80 DUP2 ADD CALLDATALOAD SWAP5 POP PUSH1 0xA0 ADD CALLDATALOAD SWAP3 POP SWAP1 POP JUMP JUMPDEST PUSH1 0x0 DUP1 PUSH1 0x0 DUP1 PUSH1 0x0 DUP1 PUSH1 0x0 DUP1 PUSH1 0x0 DUP1 PUSH1 0x0 PUSH2 0x160 DUP13 DUP15 SUB SLT ISZERO PUSH2 0x4C46 JUMPI PUSH1 0x0 DUP1 REVERT JUMPDEST POP POP DUP10 CALLDATALOAD SWAP12 PUSH1 0x20 DUP12 ADD CALLDATALOAD SWAP12 POP PUSH1 0x40 DUP12 ADD CALLDATALOAD SWAP11 PUSH1 0x60 DUP2 ADD CALLDATALOAD SWAP11 POP PUSH1 0x80 DUP2 ADD CALLDATALOAD SWAP10 POP PUSH1 0xA0 DUP2 ADD CALLDATALOAD SWAP9 POP PUSH1 0xC0 DUP2 ADD CALLDATALOAD SWAP8 POP PUSH1 0xE0 DUP2 ADD CALLDATALOAD SWAP7 POP PUSH2 0x100 DUP2 ADD CALLDATALOAD SWAP6 POP PUSH2 0x120 DUP2 ADD CALLDATALOAD SWAP5 POP PUSH2 0x140 ADD CALLDATALOAD SWAP3 POP SWAP1 POP JUMP JUMPDEST PUSH1 0x20 DUP1 DUP3 MSTORE DUP3 MLOAD DUP3 DUP3 ADD DUP2 SWAP1 MSTORE PUSH1 0x0 SWAP2 SWAP1 DUP5 DUP3 ADD SWAP1 PUSH1 0x40 DUP6 ADD SWAP1 DUP5 JUMPDEST DUP2 DUP2 LT ISZERO PUSH2 0x4CD4 JUMPI DUP4 MLOAD PUSH4 0xFFFFFFFF AND DUP4 MSTORE SWAP3 DUP5 ADD SWAP3 SWAP2 DUP5 ADD SWAP2 PUSH1 0x1 ADD PUSH2 0x4CB2 JUMP JUMPDEST POP SWAP1 SWAP7 SWAP6 POP POP POP POP POP POP JUMP JUMPDEST PUSH1 0x40 MLOAD PUSH1 0x1F DUP3 ADD PUSH1 0x1F NOT AND DUP2 ADD PUSH8 0xFFFFFFFFFFFFFFFF DUP2 GT DUP3 DUP3 LT OR ISZERO PUSH2 0x4D09 JUMPI PUSH2 0x4D09 PUSH2 0x4F89 JUMP JUMPDEST PUSH1 0x40 MSTORE SWAP2 SWAP1 POP JUMP JUMPDEST PUSH1 0x0 PUSH8 0xFFFFFFFFFFFFFFFF DUP3 GT ISZERO PUSH2 0x4D2B JUMPI PUSH2 0x4D2B PUSH2 0x4F89 JUMP JUMPDEST POP PUSH1 0x5 SHL PUSH1 0x20 ADD SWAP1 JUMP JUMPDEST PUSH1 0x0 PUSH2 0xFFFF DUP1 DUP4 AND DUP2 DUP6 AND DUP1 DUP4 SUB DUP3 GT ISZERO PUSH2 0x4D52 JUMPI PUSH2 0x4D52 PUSH2 0x4F47 JUMP JUMPDEST ADD SWAP5 SWAP4 POP POP POP POP JUMP JUMPDEST PUSH1 0x0 DUP3 NOT DUP3 GT ISZERO PUSH2 0x4D6E JUMPI PUSH2 0x4D6E PUSH2 0x4F47 JUMP JUMPDEST POP ADD SWAP1 JUMP JUMPDEST PUSH1 0x0 DUP2 PUSH1 0x6 SIGNEXTEND DUP4 PUSH1 0x6 SIGNEXTEND DUP1 PUSH2 0x4D8A JUMPI PUSH2 0x4D8A PUSH2 0x4F5D JUMP JUMPDEST PUSH7 0x7FFFFFFFFFFFFF NOT DUP3 EQ PUSH1 0x0 NOT DUP3 EQ AND ISZERO PUSH2 0x4DA8 JUMPI PUSH2 0x4DA8 PUSH2 0x4F47 JUMP JUMPDEST SWAP1 SDIV SWAP4 SWAP3 POP POP POP JUMP JUMPDEST PUSH1 0x0 PUSH1 0x1 PUSH1 0x1 PUSH1 0xA0 SHL SUB DUP1 DUP5 AND DUP1 PUSH2 0x4DCB JUMPI PUSH2 0x4DCB PUSH2 0x4F5D JUMP JUMPDEST SWAP3 AND SWAP2 SWAP1 SWAP2 DIV SWAP3 SWAP2 POP POP JUMP JUMPDEST PUSH1 0x0 DUP3 PUSH2 0x4DE6 JUMPI PUSH2 0x4DE6 PUSH2 0x4F5D JUMP JUMPDEST POP DIV SWAP1 JUMP JUMPDEST PUSH1 0x0 DUP2 PUSH1 0x0 NOT DIV DUP4 GT DUP3 ISZERO ISZERO AND ISZERO PUSH2 0x4E05 JUMPI PUSH2 0x4E05 PUSH2 0x4F47 JUMP JUMPDEST POP MUL SWAP1 JUMP JUMPDEST PUSH1 0x0 DUP2 PUSH1 0x6 SIGNEXTEND DUP4 PUSH1 0x6 SIGNEXTEND PUSH1 0x0 DUP2 SLT DUP2 PUSH7 0x7FFFFFFFFFFFFF NOT ADD DUP4 SLT DUP2 ISZERO AND ISZERO PUSH2 0x4E35 JUMPI PUSH2 0x4E35 PUSH2 0x4F47 JUMP JUMPDEST DUP2 PUSH7 0x7FFFFFFFFFFFFF ADD DUP4 SGT DUP2 AND ISZERO PUSH2 0x4E50 JUMPI PUSH2 0x4E50 PUSH2 0x4F47 JUMP JUMPDEST POP SWAP1 SUB SWAP4 SWAP3 POP POP POP JUMP JUMPDEST PUSH1 0x0 PUSH1 0x1 PUSH1 0x1 PUSH1 0xA0 SHL SUB DUP4 DUP2 AND SWAP1 DUP4 AND DUP2 DUP2 LT ISZERO PUSH2 0x4E7A JUMPI PUSH2 0x4E7A PUSH2 0x4F47 JUMP JUMPDEST SUB SWAP4 SWAP3 POP POP POP JUMP JUMPDEST PUSH1 0x0 DUP3 DUP3 LT ISZERO PUSH2 0x4E94 JUMPI PUSH2 0x4E94 PUSH2 0x4F47 JUMP JUMPDEST POP SUB SWAP1 JUMP JUMPDEST PUSH1 0x0 PUSH4 0xFFFFFFFF DUP4 DUP2 AND SWAP1 DUP4 AND DUP2 DUP2 LT ISZERO PUSH2 0x4E7A JUMPI PUSH2 0x4E7A PUSH2 0x4F47 JUMP JUMPDEST PUSH1 0x0 DUP2 PUSH1 0x2 SIGNEXTEND PUSH3 0x7FFFFF NOT DUP2 EQ ISZERO PUSH2 0x4ED0 JUMPI PUSH2 0x4ED0 PUSH2 0x4F47 JUMP JUMPDEST PUSH1 0x0 NOT ADD SWAP3 SWAP2 POP POP JUMP JUMPDEST PUSH1 0x0 DUP3 PUSH1 0x6 SIGNEXTEND DUP1 PUSH2 0x4EED JUMPI PUSH2 0x4EED PUSH2 0x4F5D JUMP JUMPDEST DUP1 DUP4 PUSH1 0x6 SIGNEXTEND SMOD SWAP2 POP POP SWAP3 SWAP2 POP POP JUMP JUMPDEST PUSH1 0x0 DUP3 PUSH2 0x4F0B JUMPI PUSH2 0x4F0B PUSH2 0x4F5D JUMP JUMPDEST POP MOD SWAP1 JUMP JUMPDEST PUSH1 0x0 DUP2 PUSH1 0x2 SIGNEXTEND PUSH3 0x7FFFFF NOT DUP2 EQ ISZERO PUSH2 0x4016 JUMPI PUSH2 0x4016 PUSH2 0x4F47 JUMP JUMPDEST PUSH1 0x0 PUSH1 0x1 PUSH1 0xFF SHL DUP3 EQ ISZERO PUSH2 0x4F40 JUMPI PUSH2 0x4F40 PUSH2 0x4F47 JUMP JUMPDEST POP PUSH1 0x0 SUB SWAP1 JUMP JUMPDEST PUSH4 0x4E487B71 PUSH1 0xE0 SHL PUSH1 0x0 MSTORE PUSH1 0x11 PUSH1 0x4 MSTORE PUSH1 0x24 PUSH1 0x0 REVERT JUMPDEST PUSH4 0x4E487B71 PUSH1 0xE0 SHL PUSH1 0x0 MSTORE PUSH1 0x12 PUSH1 0x4 MSTORE PUSH1 0x24 PUSH1 0x0 REVERT JUMPDEST PUSH4 0x4E487B71 PUSH1 0xE0 SHL PUSH1 0x0 MSTORE PUSH1 0x32 PUSH1 0x4 MSTORE PUSH1 0x24 PUSH1 0x0 REVERT JUMPDEST PUSH4 0x4E487B71 PUSH1 0xE0 SHL PUSH1 0x0 MSTORE PUSH1 0x41 PUSH1 0x4 MSTORE PUSH1 0x24 PUSH1 0x0 REVERT JUMPDEST PUSH1 0x1 PUSH1 0x1 PUSH1 0xA0 SHL SUB DUP2 AND DUP2 EQ PUSH2 0x16F2 JUMPI PUSH1 0x0 DUP1 REVERT JUMPDEST DUP1 ISZERO ISZERO DUP2 EQ PUSH2 0x16F2 JUMPI PUSH1 0x0 DUP1 REVERT INVALID BYTE PUSH9 0x38EFA4183E08FE3607 CALLDATALOAD SWAP14 SLT MSIZE 0x27 0x2A 0xF9 0xD4 PUSH18 0x6F65E1A7B5921F78FD5A3C6AA26469706673 PC 0x22 SLT KECCAK256 CREATE2 0xC4 STATICCALL PUSH9 0x9CBBA8FA87B1FC9911 LOG2 PUSH1 0x5D LOG3 0xB2 PUSH23 0xEC9D271BADDBC4008E7D4F74C964736F6C634300080700 CALLER ",
    "sha1": "2de4840691befeba3cdb8a2392889fc0d69e1a98",
    "source": "// SPDX-License-Identifier: MIT\npragma solidity ^0.8.7;\n\nimport \"./libraries/FixedPoint.sol\";\nimport \"./libraries/UniswapV3OracleLibrary/UniswapV3OracleLibraryV2.sol\";\nimport \"./interfaces/IUniswapV3Pool.sol\";\nimport \"./market/OverlayV1Market.sol\";\n\ncontract OverlayV1UniswapV3Market is OverlayV1Market {\n\n    using FixedPoint for uint256;\n\n    uint256 internal X96 = 0x1000000000000000000000000;\n\n    uint256 public immutable macroWindow; // window size for main TWAP\n    uint256 public immutable microWindow; // window size for bid/ask TWAP\n\n    address public immutable marketFeed;\n    address public immutable ovlFeed;\n    address public immutable base;\n    address public immutable quote;\n    uint128 internal immutable amountIn;\n\n    address internal immutable eth;\n    bool internal immutable ethIs0;\n\n    constructor(\n        address _mothership,\n        address _ovlFeed,\n        address _marketFeed,\n        address _quote,\n        address _eth,\n        uint128 _amountIn,\n        uint256 _macroWindow,\n        uint256 _microWindow\n    ) OverlayV1Market(\n        _mothership\n    ) {\n\n        // immutables\n        eth = _eth;\n        ethIs0 = IUniswapV3Pool(_ovlFeed).token0() == _eth;\n        ovlFeed = _ovlFeed;\n        marketFeed = _marketFeed;\n        amountIn = _amountIn;\n        macroWindow = _macroWindow;\n        microWindow = _microWindow;\n\n        address _token0 = IUniswapV3Pool(_marketFeed).token0();\n        address _token1 = IUniswapV3Pool(_marketFeed).token1();\n\n        base = _token0 != _quote ? _token0 : _token1;\n        quote = _token0 == _quote ? _token0 : _token1;\n\n        int24 _tick = OracleLibraryV2.consult(\n            _marketFeed,\n            uint32(_macroWindow),\n            uint32(0)\n        );\n\n        uint _price = OracleLibraryV2.getQuoteAtTick(\n            _tick,\n            uint128(_amountIn),\n            _token0 != _quote ? _token0 : _token1,\n            _token0 == _quote ? _token0 : _token1\n        );\n\n        setPricePointCurrent(PricePoint(_price, _price, _price));\n\n        toUpdate = type(uint256).max;\n        updated = block.timestamp;\n        compounded = block.timestamp;\n\n    }\n\n    function price (\n        uint _ago\n    ) public view override returns (\n        PricePoint memory\n    ) {\n\n        uint32[] memory _secondsAgo = new uint32[](3);\n        _secondsAgo[0] = uint32(_ago + macroWindow);\n        _secondsAgo[1] = uint32(_ago + microWindow);\n        _secondsAgo[2] = uint32(_ago);\n\n        ( int56[] memory _ticks, ) = IUniswapV3Pool(marketFeed).observe(_secondsAgo);\n\n        uint _macroPrice = OracleLibraryV2.getQuoteAtTick(\n            int24((_ticks[2] - _ticks[0]) / int56(int32(int(macroWindow)))),\n            amountIn,\n            base,\n            quote\n        );\n\n        uint _microPrice = OracleLibraryV2.getQuoteAtTick(\n            int24((_ticks[2] - _ticks[1]) / int56(int32(int(microWindow)))),\n            amountIn,\n            base,\n            quote\n        );\n\n        return insertSpread(_microPrice, _macroPrice);\n\n    }\n\n    function depth () internal virtual override view returns (uint256 depth_) {\n\n        uint32[] memory _secondsAgo = new uint32[](2);\n        _secondsAgo[0] = uint32(microWindow);\n        _secondsAgo[1] = 0;\n\n        ( int56[] memory _ticks, uint160[] memory _invLiqs ) = IUniswapV3Pool(marketFeed).observe(_secondsAgo);\n\n        uint256 _sqrtPrice = TickMath.getSqrtRatioAtTick(\n            int24((_ticks[1] - _ticks[0]) / int56(int32(int(microWindow))))\n        );\n\n        uint256 _liquidity = (uint160(microWindow) << 128) / ( _invLiqs[1] - _invLiqs[0] );\n\n        uint _ethAmount = ethIs0\n            ? ( uint256(_liquidity) << 96 ) / _sqrtPrice\n            : FullMath.mulDiv(uint256(_liquidity), _sqrtPrice, X96);\n\n        ( _ticks, ) = IUniswapV3Pool(ovlFeed).observe(_secondsAgo);\n\n        uint _price = OracleLibraryV2.getQuoteAtTick(\n            int24((_ticks[1] - _ticks[0]) / int56(int32(int(microWindow)))),\n            1e18,\n            address(ovl),\n            eth\n        );\n\n        depth_ = lmbda.mulUp(( _ethAmount * 1e18 ) / _price).divDown(2e18);\n\n    }\n\n    function epochs (\n        uint _time,\n        uint _from,\n        uint _between\n    ) public view returns (\n        uint updatesThen_,\n        uint updatesNow_,\n        uint tUpdate_,\n        uint t1Update_,\n        uint compoundings_,\n        uint tCompounding_,\n        uint t1Compounding_\n    ) {\n\n        uint _updatePeriod = updatePeriod;\n        uint _compoundPeriod = compoundingPeriod;\n        uint _compounded = compounded;\n\n        if (_between < _time) {\n\n            updatesThen_ = ( _between - _from ) / _updatePeriod;\n\n            updatesNow_ = ( _time - _between ) / _updatePeriod;\n\n        } else {\n\n            updatesNow_ = ( _time - _from ) / _updatePeriod;\n\n        }\n\n        tUpdate_ = _from + ( ( updatesThen_ + updatesNow_ ) * _updatePeriod );\n\n        t1Update_ = tUpdate_ + _updatePeriod;\n\n        compoundings_ = ( _time - compounded ) / _compoundPeriod;\n\n        tCompounding_ = _compounded + ( compoundings_ * _compoundPeriod );\n\n        t1Compounding_ = tCompounding_ + _compoundPeriod;\n\n    }\n\n    function staticUpdate () internal override returns (bool updated_) {\n\n        uint _toUpdate = toUpdate;\n        uint _updated = updated;\n\n        (   uint _updatesThen,,,,\n            uint _compoundings,\n            uint _tCompounding, ) = epochs(block.timestamp, _updated, _toUpdate);\n\n        // only update if there is a position to update\n        if (0 < _updatesThen) {\n\n            uint _then = block.timestamp - _toUpdate;\n            PricePoint memory _price = price(_then);\n            setPricePointCurrent(_price);\n            updated = _toUpdate;\n            toUpdate = type(uint256).max;\n            updated_ = true;\n\n        }\n\n        if (0 < _compoundings) {\n\n            if (_toUpdate != type(uint256).max) {\n\n                updateFunding(1);\n                updateFunding(_compoundings - 1);\n\n            } else updateFunding(_compoundings);\n\n            compounded = _tCompounding;\n\n        }\n\n    }\n\n    function entryUpdate () internal override returns (\n        uint256 t1Compounding_\n    ) {\n\n        uint _toUpdate = toUpdate;\n\n        (   uint _updatesThen,,,\n            uint _tp1Update,\n            uint _compoundings,\n            uint _tCompounding,\n            uint _t1Compounding ) = epochs(block.timestamp, updated, _toUpdate);\n\n        if (0 < _updatesThen) {\n            uint _then = block.timestamp - _toUpdate;\n            PricePoint memory _price = price(_then);\n            setPricePointCurrent(_price);\n            updated = _toUpdate;\n        }\n\n        if (0 < _compoundings) {\n\n            // If there was an update queued up, that means\n            // there was queued oi, which is not involved in\n            // funding until one compounding epoch has passed.\n            // We pay funding for one compounding epoch, then\n            // compound the rest of the epochs.\n            if (_toUpdate != type(uint256).max) {\n\n                updateFunding(1);\n                updateFunding(_compoundings - 1);\n\n            } else updateFunding(_compoundings);\n\n            compounded = _tCompounding;\n\n        }\n\n        if (_toUpdate != _tp1Update) toUpdate = _tp1Update;\n\n        t1Compounding_ = _t1Compounding;\n\n    }\n\n    function exitUpdate () internal override returns (uint tCompounding_) {\n\n        uint _toUpdate = toUpdate;\n        uint _now = block.timestamp;\n\n        (   uint _updatesThen,\n            uint _updatesNow,\n            uint _tUpdate,,\n            uint _compoundings,\n            uint _tCompounding, ) = epochs(_now, updated, _toUpdate);\n\n        if (0 < _updatesThen) {\n\n            uint _then = _now - _toUpdate;\n            PricePoint memory _price = price(_then);\n            setPricePointCurrent(_price);\n\n        }\n\n        if (0 < _updatesNow) {\n\n            uint _then = _now - _tUpdate;\n            PricePoint memory _price = price(_then);\n            setPricePointCurrent(_price);\n\n            updated = _tUpdate;\n            toUpdate = type(uint256).max;\n\n        }\n\n        if (0 < _compoundings) {\n\n            if (_toUpdate != type(uint256).max) {\n\n                updateFunding(1);\n                updateFunding(_compoundings - 1);\n\n            } else updateFunding(_compoundings);\n\n            compounded = _tCompounding;\n\n        }\n\n        tCompounding_ = _tCompounding;\n\n    }\n\n    function oi () public view returns (\n        uint oiLong_,\n        uint oiShort_,\n        uint oiLongShares_,\n        uint oiShortShares_,\n        uint queuedOiLong_,\n        uint queuedOiShort_\n    ) {\n\n        ( ,,,,uint _compoundings,, ) = epochs(block.timestamp, updated, toUpdate);\n\n        (   oiLong_,\n            oiShort_,\n            oiLongShares_,\n            oiShortShares_,\n            queuedOiLong_,\n            queuedOiShort_ ) = _oi(_compoundings);\n\n    }\n\n    function _oi (\n        uint _compoundings\n    ) internal view returns (\n        uint oiLong_,\n        uint oiShort_,\n        uint oiLongShares_,\n        uint oiShortShares_,\n        uint queuedOiLong_,\n        uint queuedOiShort_\n    ) {\n\n        oiLong_ = __oiLong__;\n        oiShort_ = __oiShort__;\n        oiLongShares_ = __oiLongShares__;\n        oiShortShares_ = __oiShortShares__;\n        queuedOiLong_ = __queuedOiLong__;\n        queuedOiShort_ = __queuedOiShort__;\n\n        uint _k = k;\n\n        if (0 < _compoundings) {\n\n            ( oiLong_, oiShort_, ) = computeFunding(\n                oiLong_,\n                oiShort_,\n                1,\n                _k\n            );\n\n            ( oiLong_, oiShort_, ) = computeFunding(\n                oiLong_ += queuedOiLong_,\n                oiShort_ += queuedOiShort_,\n                _compoundings - 1,\n                _k\n            );\n\n            oiLongShares_ += queuedOiLong_;\n            oiShortShares_ += queuedOiShort_;\n\n            queuedOiLong_ = 0;\n            queuedOiShort_ = 0;\n\n        }\n\n    }\n\n    function oiLong () external view returns (uint oiLong_) {\n        (   oiLong_,,,,, ) = oi();\n    }\n\n    function oiShort () external view returns (uint oiShort_) {\n        (  ,oiShort_,,,, ) = oi();\n    }\n\n    function oiLongShares () external view returns (uint256 oiLongShares_) {\n        ( ,,oiLongShares_,,, ) = oi();\n    }\n\n    function oiShortShares () external view returns (uint256 oiShortShares_) {\n        ( ,,,oiShortShares_,, ) = oi();\n    }\n\n    function queuedOiLong () external view returns (uint256 queuedOiLong_) {\n        ( ,,,,queuedOiLong_, ) = oi();\n    }\n\n    function queuedOiShort () external view returns (uint256 queuedOiShort_) {\n        ( ,,,,,queuedOiShort_ ) = oi();\n    }\n\n    function positionInfo (\n        bool _isLong,\n        uint _entryIndex,\n        uint _compounding\n    ) external view returns (\n        uint256 oi_,\n        uint256 oiShares_,\n        uint256 priceFrame_\n    ) {\n\n        (   uint _updatesThen,,\n            uint _tUpdate,,\n            uint _compoundings,\n            uint _tCompounding, ) = epochs(block.timestamp, updated, toUpdate);\n\n\n        priceFrame_ = priceFrame(\n            _isLong,\n            _entryIndex,\n            _updatesThen,\n            _tUpdate\n        );\n\n        (   uint _oiLong,\n            uint _oiShort,\n            uint _oiLongShares,\n            uint _oiShortShares,\n            uint _queuedOiLong,\n            uint _queuedOiShort ) = _oi(_compoundings);\n\n        if (_compounding < _tCompounding) {\n\n            if (_isLong) ( oi_ = _oiLong, oiShares_ = _oiLongShares );\n            else ( oi_ = _oiShort, oiShares_ = _oiShortShares );\n\n        } else {\n\n            if (_isLong) oi_ = oiShares_ = _queuedOiLong;\n            else oi_ = oiShares_ = _queuedOiShort;\n\n        }\n\n    }\n\n    function priceFrame (\n        bool _isLong,\n        uint _entryIndex,\n        uint _updatesThen,\n        uint _tUpdate\n    ) internal view returns (\n        uint256 priceFrame_\n    ) {\n\n        PricePoint memory _priceEntry;\n        PricePoint memory _priceExit;\n\n        if (_entryIndex < _pricePoints.length - 1) {\n\n            _priceEntry = _pricePoints[_entryIndex];\n\n        } else if (0 < _updatesThen ) {\n\n            _priceEntry = price(block.timestamp - toUpdate);\n\n        // TODO: do we allow exit without settlement\n        } else revert(\"OVLV1:!settled\");\n\n        // TODO: what if price has settled\n        _priceExit = price(block.timestamp - _tUpdate);\n\n        priceFrame_ = _isLong\n            ? Math.min(_priceExit.bid.divDown(_priceEntry.ask), priceFrameCap)\n            : _priceExit.ask.divUp(_priceEntry.bid);\n\n    }\n\n}\n",
    "sourcePath": "contracts/OverlayV1UniswapV3Market.sol",
    "type": "contract"
}