{
  "abi": [
    {
      "inputs": [
        {
          "internalType": "address",
          "name": "_mothership",
          "type": "address"
        },
        {
          "internalType": "address",
          "name": "_ovlFeed",
          "type": "address"
        },
        {
          "internalType": "address",
          "name": "_marketFeed",
          "type": "address"
        },
        {
          "internalType": "address",
          "name": "_quote",
          "type": "address"
        },
        {
          "internalType": "address",
          "name": "_eth",
          "type": "address"
        },
        {
          "internalType": "uint128",
          "name": "_amountIn",
          "type": "uint128"
        },
        {
          "internalType": "uint256",
          "name": "_macroWindow",
          "type": "uint256"
        },
        {
          "internalType": "uint256",
          "name": "_microWindow",
          "type": "uint256"
        }
      ],
      "stateMutability": "nonpayable",
      "type": "constructor"
    },
    {
      "anonymous": false,
      "inputs": [
        {
          "indexed": false,
          "internalType": "uint256",
          "name": "oiLong",
          "type": "uint256"
        },
        {
          "indexed": false,
          "internalType": "uint256",
          "name": "oiShort",
          "type": "uint256"
        },
        {
          "indexed": false,
          "internalType": "int256",
          "name": "fundingPaid",
          "type": "int256"
        }
      ],
      "name": "FundingPaid",
      "type": "event"
    },
    {
      "anonymous": false,
      "inputs": [
        {
          "indexed": false,
          "internalType": "uint256",
          "name": "bid",
          "type": "uint256"
        },
        {
          "indexed": false,
          "internalType": "uint256",
          "name": "ask",
          "type": "uint256"
        },
        {
          "indexed": false,
          "internalType": "uint256",
          "name": "index",
          "type": "uint256"
        }
      ],
      "name": "NewPrice",
      "type": "event"
    },
    {
      "anonymous": false,
      "inputs": [
        {
          "indexed": false,
          "internalType": "string",
          "name": "k",
          "type": "string"
        },
        {
          "indexed": false,
          "internalType": "uint256",
          "name": "v",
          "type": "uint256"
        }
      ],
      "name": "log",
      "type": "event"
    },
    {
      "inputs": [],
      "name": "MAX_FUNDING_COMPOUND",
      "outputs": [
        {
          "internalType": "uint16",
          "name": "",
          "type": "uint16"
        }
      ],
      "stateMutability": "view",
      "type": "function"
    },
    {
      "inputs": [],
      "name": "MIN_COLLAT",
      "outputs": [
        {
          "internalType": "uint256",
          "name": "",
          "type": "uint256"
        }
      ],
      "stateMutability": "view",
      "type": "function"
    },
    {
      "inputs": [
        {
          "internalType": "address",
          "name": "_collateral",
          "type": "address"
        }
      ],
      "name": "addCollateral",
      "outputs": [],
      "stateMutability": "nonpayable",
      "type": "function"
    },
    {
      "inputs": [],
      "name": "base",
      "outputs": [
        {
          "internalType": "address",
          "name": "",
          "type": "address"
        }
      ],
      "stateMutability": "view",
      "type": "function"
    },
    {
      "inputs": [
        {
          "internalType": "uint256",
          "name": "",
          "type": "uint256"
        }
      ],
      "name": "brrrrdAccumulator",
      "outputs": [
        {
          "internalType": "uint256",
          "name": "",
          "type": "uint256"
        }
      ],
      "stateMutability": "view",
      "type": "function"
    },
    {
      "inputs": [],
      "name": "brrrrdCycloid",
      "outputs": [
        {
          "internalType": "uint256",
          "name": "",
          "type": "uint256"
        }
      ],
      "stateMutability": "view",
      "type": "function"
    },
    {
      "inputs": [],
      "name": "brrrrdExpected",
      "outputs": [
        {
          "internalType": "uint256",
          "name": "",
          "type": "uint256"
        }
      ],
      "stateMutability": "view",
      "type": "function"
    },
    {
      "inputs": [],
      "name": "brrrrdFiling",
      "outputs": [
        {
          "internalType": "uint256",
          "name": "",
          "type": "uint256"
        }
      ],
      "stateMutability": "view",
      "type": "function"
    },
    {
      "inputs": [
        {
          "internalType": "uint256",
          "name": "",
          "type": "uint256"
        }
      ],
      "name": "brrrrdRollers",
      "outputs": [
        {
          "internalType": "uint256",
          "name": "time",
          "type": "uint256"
        },
        {
          "internalType": "uint256",
          "name": "ying",
          "type": "uint256"
        },
        {
          "internalType": "uint256",
          "name": "yang",
          "type": "uint256"
        }
      ],
      "stateMutability": "view",
      "type": "function"
    },
    {
      "inputs": [],
      "name": "brrrrdWindowMacro",
      "outputs": [
        {
          "internalType": "uint256",
          "name": "",
          "type": "uint256"
        }
      ],
      "stateMutability": "view",
      "type": "function"
    },
    {
      "inputs": [],
      "name": "brrrrdWindowMicro",
      "outputs": [
        {
          "internalType": "uint256",
          "name": "",
          "type": "uint256"
        }
      ],
      "stateMutability": "view",
      "type": "function"
    },
    {
      "inputs": [],
      "name": "compounded",
      "outputs": [
        {
          "internalType": "uint256",
          "name": "",
          "type": "uint256"
        }
      ],
      "stateMutability": "view",
      "type": "function"
    },
    {
      "inputs": [],
      "name": "compoundingPeriod",
      "outputs": [
        {
          "internalType": "uint256",
          "name": "",
          "type": "uint256"
        }
      ],
      "stateMutability": "view",
      "type": "function"
    },
    {
      "inputs": [
        {
          "internalType": "bool",
          "name": "_isLong",
          "type": "bool"
        },
        {
          "internalType": "uint256",
          "name": "_collateral",
          "type": "uint256"
        },
        {
          "internalType": "uint256",
          "name": "_leverage",
          "type": "uint256"
        }
      ],
      "name": "enterOI",
      "outputs": [
        {
          "internalType": "uint256",
          "name": "oiAdjusted_",
          "type": "uint256"
        },
        {
          "internalType": "uint256",
          "name": "collateralAdjusted_",
          "type": "uint256"
        },
        {
          "internalType": "uint256",
          "name": "debtAdjusted_",
          "type": "uint256"
        },
        {
          "internalType": "uint256",
          "name": "fee_",
          "type": "uint256"
        },
        {
          "internalType": "uint256",
          "name": "impact_",
          "type": "uint256"
        },
        {
          "internalType": "uint256",
          "name": "pricePointCurrent_",
          "type": "uint256"
        },
        {
          "internalType": "uint256",
          "name": "t1Compounding_",
          "type": "uint256"
        }
      ],
      "stateMutability": "nonpayable",
      "type": "function"
    },
    {
      "inputs": [],
      "name": "epochs",
      "outputs": [
        {
          "internalType": "uint256",
          "name": "updatesThen_",
          "type": "uint256"
        },
        {
          "internalType": "uint256",
          "name": "updatesNow_",
          "type": "uint256"
        },
        {
          "internalType": "uint256",
          "name": "tUpdate_",
          "type": "uint256"
        },
        {
          "internalType": "uint256",
          "name": "t1Update_",
          "type": "uint256"
        },
        {
          "internalType": "uint256",
          "name": "compoundings_",
          "type": "uint256"
        },
        {
          "internalType": "uint256",
          "name": "tCompounding_",
          "type": "uint256"
        },
        {
          "internalType": "uint256",
          "name": "t1Compounding_",
          "type": "uint256"
        }
      ],
      "stateMutability": "view",
      "type": "function"
    },
    {
      "inputs": [
        {
          "internalType": "uint256",
          "name": "_time",
          "type": "uint256"
        },
        {
          "internalType": "uint256",
          "name": "_from",
          "type": "uint256"
        },
        {
          "internalType": "uint256",
          "name": "_between",
          "type": "uint256"
        }
      ],
      "name": "epochs",
      "outputs": [
        {
          "internalType": "uint256",
          "name": "updatesThen_",
          "type": "uint256"
        },
        {
          "internalType": "uint256",
          "name": "updatesNow_",
          "type": "uint256"
        },
        {
          "internalType": "uint256",
          "name": "tUpdate_",
          "type": "uint256"
        },
        {
          "internalType": "uint256",
          "name": "t1Update_",
          "type": "uint256"
        },
        {
          "internalType": "uint256",
          "name": "compoundings_",
          "type": "uint256"
        },
        {
          "internalType": "uint256",
          "name": "tCompounding_",
          "type": "uint256"
        },
        {
          "internalType": "uint256",
          "name": "t1Compounding_",
          "type": "uint256"
        }
      ],
      "stateMutability": "view",
      "type": "function"
    },
    {
      "inputs": [
        {
          "internalType": "bool",
          "name": "_isLong",
          "type": "bool"
        },
        {
          "internalType": "uint256",
          "name": "_pricePoint",
          "type": "uint256"
        },
        {
          "internalType": "uint256",
          "name": "_compounding",
          "type": "uint256"
        }
      ],
      "name": "exitData",
      "outputs": [
        {
          "internalType": "uint256",
          "name": "oi_",
          "type": "uint256"
        },
        {
          "internalType": "uint256",
          "name": "oiShares_",
          "type": "uint256"
        },
        {
          "internalType": "uint256",
          "name": "priceFrame_",
          "type": "uint256"
        },
        {
          "internalType": "bool",
          "name": "fromQueued_",
          "type": "bool"
        }
      ],
      "stateMutability": "nonpayable",
      "type": "function"
    },
    {
      "inputs": [
        {
          "internalType": "bool",
          "name": "_isLong",
          "type": "bool"
        },
        {
          "internalType": "bool",
          "name": "_fromQueued",
          "type": "bool"
        },
        {
          "internalType": "uint256",
          "name": "_oi",
          "type": "uint256"
        },
        {
          "internalType": "uint256",
          "name": "_oiShares",
          "type": "uint256"
        },
        {
          "internalType": "uint256",
          "name": "_brrrr",
          "type": "uint256"
        },
        {
          "internalType": "uint256",
          "name": "_antiBrrrr",
          "type": "uint256"
        }
      ],
      "name": "exitOI",
      "outputs": [],
      "stateMutability": "nonpayable",
      "type": "function"
    },
    {
      "inputs": [],
      "name": "impactCycloid",
      "outputs": [
        {
          "internalType": "uint256",
          "name": "",
          "type": "uint256"
        }
      ],
      "stateMutability": "view",
      "type": "function"
    },
    {
      "inputs": [
        {
          "internalType": "uint256",
          "name": "",
          "type": "uint256"
        }
      ],
      "name": "impactRollers",
      "outputs": [
        {
          "internalType": "uint256",
          "name": "time",
          "type": "uint256"
        },
        {
          "internalType": "uint256",
          "name": "ying",
          "type": "uint256"
        },
        {
          "internalType": "uint256",
          "name": "yang",
          "type": "uint256"
        }
      ],
      "stateMutability": "view",
      "type": "function"
    },
    {
      "inputs": [],
      "name": "impactWindow",
      "outputs": [
        {
          "internalType": "uint256",
          "name": "",
          "type": "uint256"
        }
      ],
      "stateMutability": "view",
      "type": "function"
    },
    {
      "inputs": [
        {
          "internalType": "address",
          "name": "",
          "type": "address"
        }
      ],
      "name": "isCollateral",
      "outputs": [
        {
          "internalType": "bool",
          "name": "",
          "type": "bool"
        }
      ],
      "stateMutability": "view",
      "type": "function"
    },
    {
      "inputs": [],
      "name": "k",
      "outputs": [
        {
          "internalType": "uint256",
          "name": "",
          "type": "uint256"
        }
      ],
      "stateMutability": "view",
      "type": "function"
    },
    {
      "inputs": [],
      "name": "leverageMax",
      "outputs": [
        {
          "internalType": "uint256",
          "name": "",
          "type": "uint256"
        }
      ],
      "stateMutability": "view",
      "type": "function"
    },
    {
      "inputs": [],
      "name": "lmbda",
      "outputs": [
        {
          "internalType": "uint256",
          "name": "",
          "type": "uint256"
        }
      ],
      "stateMutability": "view",
      "type": "function"
    },
    {
      "inputs": [],
      "name": "macroWindow",
      "outputs": [
        {
          "internalType": "uint256",
          "name": "",
          "type": "uint256"
        }
      ],
      "stateMutability": "view",
      "type": "function"
    },
    {
      "inputs": [],
      "name": "marketFeed",
      "outputs": [
        {
          "internalType": "address",
          "name": "",
          "type": "address"
        }
      ],
      "stateMutability": "view",
      "type": "function"
    },
    {
      "inputs": [],
      "name": "microWindow",
      "outputs": [
        {
          "internalType": "uint256",
          "name": "",
          "type": "uint256"
        }
      ],
      "stateMutability": "view",
      "type": "function"
    },
    {
      "inputs": [],
      "name": "mothership",
      "outputs": [
        {
          "internalType": "contract IOverlayV1Mothership",
          "name": "",
          "type": "address"
        }
      ],
      "stateMutability": "view",
      "type": "function"
    },
    {
      "inputs": [],
      "name": "oi",
      "outputs": [
        {
          "internalType": "uint256",
          "name": "oiLong_",
          "type": "uint256"
        },
        {
          "internalType": "uint256",
          "name": "oiShort_",
          "type": "uint256"
        },
        {
          "internalType": "uint256",
          "name": "oiLongShares_",
          "type": "uint256"
        },
        {
          "internalType": "uint256",
          "name": "oiShortShares_",
          "type": "uint256"
        },
        {
          "internalType": "uint256",
          "name": "queuedOiLong_",
          "type": "uint256"
        },
        {
          "internalType": "uint256",
          "name": "queuedOiShort_",
          "type": "uint256"
        }
      ],
      "stateMutability": "view",
      "type": "function"
    },
    {
      "inputs": [],
      "name": "oiCap",
      "outputs": [
        {
          "internalType": "uint256",
          "name": "cap_",
          "type": "uint256"
        }
      ],
      "stateMutability": "view",
      "type": "function"
    },
    {
      "inputs": [],
      "name": "oiLong",
      "outputs": [
        {
          "internalType": "uint256",
          "name": "oiLong_",
          "type": "uint256"
        }
      ],
      "stateMutability": "view",
      "type": "function"
    },
    {
      "inputs": [],
      "name": "oiLongShares",
      "outputs": [
        {
          "internalType": "uint256",
          "name": "oiLongShares_",
          "type": "uint256"
        }
      ],
      "stateMutability": "view",
      "type": "function"
    },
    {
      "inputs": [],
      "name": "oiShort",
      "outputs": [
        {
          "internalType": "uint256",
          "name": "oiShort_",
          "type": "uint256"
        }
      ],
      "stateMutability": "view",
      "type": "function"
    },
    {
      "inputs": [],
      "name": "oiShortShares",
      "outputs": [
        {
          "internalType": "uint256",
          "name": "oiShortShares_",
          "type": "uint256"
        }
      ],
      "stateMutability": "view",
      "type": "function"
    },
    {
      "inputs": [],
      "name": "ovl",
      "outputs": [
        {
          "internalType": "contract IOverlayToken",
          "name": "",
          "type": "address"
        }
      ],
      "stateMutability": "view",
      "type": "function"
    },
    {
      "inputs": [],
      "name": "ovlFeed",
      "outputs": [
        {
          "internalType": "address",
          "name": "",
          "type": "address"
        }
      ],
      "stateMutability": "view",
      "type": "function"
    },
    {
      "inputs": [],
      "name": "pbnj",
      "outputs": [
        {
          "internalType": "uint256",
          "name": "",
          "type": "uint256"
        }
      ],
      "stateMutability": "view",
      "type": "function"
    },
    {
      "inputs": [
        {
          "internalType": "bool",
          "name": "_isLong",
          "type": "bool"
        },
        {
          "internalType": "uint256",
          "name": "_entryIndex",
          "type": "uint256"
        },
        {
          "internalType": "uint256",
          "name": "_compounding",
          "type": "uint256"
        }
      ],
      "name": "positionInfo",
      "outputs": [
        {
          "internalType": "uint256",
          "name": "oi_",
          "type": "uint256"
        },
        {
          "internalType": "uint256",
          "name": "oiShares_",
          "type": "uint256"
        },
        {
          "internalType": "uint256",
          "name": "priceFrame_",
          "type": "uint256"
        }
      ],
      "stateMutability": "view",
      "type": "function"
    },
    {
      "inputs": [
        {
          "internalType": "uint256",
          "name": "_ago",
          "type": "uint256"
        }
      ],
      "name": "price",
      "outputs": [
        {
          "components": [
            {
              "internalType": "uint256",
              "name": "bid",
              "type": "uint256"
            },
            {
              "internalType": "uint256",
              "name": "ask",
              "type": "uint256"
            },
            {
              "internalType": "uint256",
              "name": "index",
              "type": "uint256"
            }
          ],
          "internalType": "struct OverlayV1PricePoint.PricePoint",
          "name": "",
          "type": "tuple"
        }
      ],
      "stateMutability": "view",
      "type": "function"
    },
    {
      "inputs": [],
      "name": "priceFrameCap",
      "outputs": [
        {
          "internalType": "uint256",
          "name": "",
          "type": "uint256"
        }
      ],
      "stateMutability": "view",
      "type": "function"
    },
    {
      "inputs": [],
      "name": "pricePointCurrentIndex",
      "outputs": [
        {
          "internalType": "uint256",
          "name": "",
          "type": "uint256"
        }
      ],
      "stateMutability": "view",
      "type": "function"
    },
    {
      "inputs": [
        {
          "internalType": "uint256",
          "name": "_pricePointIndex",
          "type": "uint256"
        }
      ],
      "name": "pricePoints",
      "outputs": [
        {
          "components": [
            {
              "internalType": "uint256",
              "name": "bid",
              "type": "uint256"
            },
            {
              "internalType": "uint256",
              "name": "ask",
              "type": "uint256"
            },
            {
              "internalType": "uint256",
              "name": "index",
              "type": "uint256"
            }
          ],
          "internalType": "struct OverlayV1PricePoint.PricePoint",
          "name": "pricePoint_",
          "type": "tuple"
        }
      ],
      "stateMutability": "view",
      "type": "function"
    },
    {
      "inputs": [],
      "name": "queuedOiLong",
      "outputs": [
        {
          "internalType": "uint256",
          "name": "queuedOiLong_",
          "type": "uint256"
        }
      ],
      "stateMutability": "view",
      "type": "function"
    },
    {
      "inputs": [],
      "name": "queuedOiShort",
      "outputs": [
        {
          "internalType": "uint256",
          "name": "queuedOiShort_",
          "type": "uint256"
        }
      ],
      "stateMutability": "view",
      "type": "function"
    },
    {
      "inputs": [],
      "name": "quote",
      "outputs": [
        {
          "internalType": "address",
          "name": "",
          "type": "address"
        }
      ],
      "stateMutability": "view",
      "type": "function"
    },
    {
      "inputs": [
        {
          "internalType": "address",
          "name": "_collateral",
          "type": "address"
        }
      ],
      "name": "removeCollateral",
      "outputs": [],
      "stateMutability": "nonpayable",
      "type": "function"
    },
    {
      "inputs": [
        {
          "internalType": "uint256",
          "name": "_impactWindow",
          "type": "uint256"
        },
        {
          "internalType": "uint256",
          "name": "_lmbda",
          "type": "uint256"
        },
        {
          "internalType": "uint256",
          "name": "_staticCap",
          "type": "uint256"
        },
        {
          "internalType": "uint256",
          "name": "_brrrrExpected",
          "type": "uint256"
        },
        {
          "internalType": "uint256",
          "name": "_brrrrdWindowMacro",
          "type": "uint256"
        },
        {
          "internalType": "uint256",
          "name": "_brrrrdWindowMicro",
          "type": "uint256"
        }
      ],
      "name": "setComptrollerParams",
      "outputs": [],
      "stateMutability": "nonpayable",
      "type": "function"
    },
    {
      "inputs": [
        {
          "internalType": "uint256",
          "name": "_k",
          "type": "uint256"
        },
        {
          "internalType": "uint256",
          "name": "_priceFrameCap",
          "type": "uint256"
        },
        {
          "internalType": "uint256",
          "name": "_pbnj",
          "type": "uint256"
        },
        {
          "internalType": "uint256",
          "name": "_updatePeriod",
          "type": "uint256"
        },
        {
          "internalType": "uint256",
          "name": "_compoundPeriod",
          "type": "uint256"
        },
        {
          "internalType": "uint256",
          "name": "_impactWindow",
          "type": "uint256"
        },
        {
          "internalType": "uint256",
          "name": "_lmbda",
          "type": "uint256"
        },
        {
          "internalType": "uint256",
          "name": "_staticCap",
          "type": "uint256"
        },
        {
          "internalType": "uint256",
          "name": "_brrrrdExpected",
          "type": "uint256"
        },
        {
          "internalType": "uint256",
          "name": "_brrrrdWindowMacro",
          "type": "uint256"
        },
        {
          "internalType": "uint256",
          "name": "_brrrrdWindowMicro",
          "type": "uint256"
        }
      ],
      "name": "setEverything",
      "outputs": [],
      "stateMutability": "nonpayable",
      "type": "function"
    },
    {
      "inputs": [
        {
          "internalType": "uint256",
          "name": "_k",
          "type": "uint256"
        }
      ],
      "name": "setK",
      "outputs": [],
      "stateMutability": "nonpayable",
      "type": "function"
    },
    {
      "inputs": [],
      "name": "setOVL",
      "outputs": [],
      "stateMutability": "nonpayable",
      "type": "function"
    },
    {
      "inputs": [
        {
          "internalType": "uint256",
          "name": "_updatePeriod",
          "type": "uint256"
        },
        {
          "internalType": "uint256",
          "name": "_compoundingPeriod",
          "type": "uint256"
        }
      ],
      "name": "setPeriods",
      "outputs": [],
      "stateMutability": "nonpayable",
      "type": "function"
    },
    {
      "inputs": [
        {
          "internalType": "uint256",
          "name": "_priceFrameCap",
          "type": "uint256"
        }
      ],
      "name": "setPriceFrameCap",
      "outputs": [],
      "stateMutability": "nonpayable",
      "type": "function"
    },
    {
      "inputs": [
        {
          "internalType": "uint256",
          "name": "_pbnj",
          "type": "uint256"
        }
      ],
      "name": "setSpread",
      "outputs": [],
      "stateMutability": "nonpayable",
      "type": "function"
    },
    {
      "inputs": [],
      "name": "toUpdate",
      "outputs": [
        {
          "internalType": "uint256",
          "name": "",
          "type": "uint256"
        }
      ],
      "stateMutability": "view",
      "type": "function"
    },
    {
      "inputs": [],
      "name": "update",
      "outputs": [],
      "stateMutability": "nonpayable",
      "type": "function"
    },
    {
      "inputs": [],
      "name": "updatePeriod",
      "outputs": [
        {
          "internalType": "uint256",
          "name": "",
          "type": "uint256"
        }
      ],
      "stateMutability": "view",
      "type": "function"
    },
    {
      "inputs": [],
      "name": "updated",
      "outputs": [
        {
          "internalType": "uint256",
          "name": "",
          "type": "uint256"
        }
      ],
      "stateMutability": "view",
      "type": "function"
    }
  ],
  "bytecode": "6101c06040526001610185556c01000000000000000000000000610186553480156200002a57600080fd5b50604051620065bd380380620065bd8339810160408190526200004d9162000fa0565b8780604051806060016040528042815260200160008152602001600081525060026000603c8110620000835762000083620013d9565b60030201600082015181600001556020820151816001015560408201518160020155905050604051806060016040528042815260200160008152602001600081525060b66000603c8110620000dc57620000dc620013d9565b60030201600082015181600001556020820151816001015560408201518160020155905050806001600160a01b03166080816001600160a01b031660601b81525050806001600160a01b031663b29fa9c36040518163ffffffff1660e01b815260040160206040518083038186803b1580156200015857600080fd5b505afa1580156200016d573d6000803e3d6000fd5b505050506040513d601f19601f8201168201806040525081019062000193919062000f80565b61018180546001600160a01b0319166001600160a01b03928316179055606087901b6001600160601b0319166101805260408051630dfe168160e01b815290518883169450918b169250630dfe1681916004808301926020929190829003018186803b1580156200020357600080fd5b505afa15801562000218573d6000803e3d6000fd5b505050506040513d601f19601f820116820180604052508101906200023e919062000f80565b6001600160a01b039081169190911460f81b6101a0526001600160601b0319606089811b82166101005288901b1660e0526001600160801b0319608085901b166101605260a083905260c082905260408051630dfe168160e01b81529051600092891691630dfe1681916004808301926020929190829003018186803b158015620002c857600080fd5b505afa158015620002dd573d6000803e3d6000fd5b505050506040513d601f19601f8201168201806040525081019062000303919062000f80565b90506000876001600160a01b031663d21220a76040518163ffffffff1660e01b815260040160206040518083038186803b1580156200034157600080fd5b505afa15801562000356573d6000803e3d6000fd5b505050506040513d601f19601f820116820180604052508101906200037c919062000f80565b9050866001600160a01b0316826001600160a01b03161415620003a05780620003a2565b815b60601b6001600160601b031916610120526001600160a01b0387811690831614620003ce5780620003d0565b815b6001600160a01b0316610140816001600160a01b031660601b8152505060006200040889866000620004bc60201b62001f121760201c565b905060006200046a82888b6001600160a01b0316876001600160a01b0316141562000434578562000436565b865b8c6001600160a01b0316886001600160a01b03161462000457578662000459565b875b620006b960201b620020eb1760201c565b9050620004976040518060600160405280838152602001838152602001838152506200082660201b60201c565b505060001961017e5550504261017f81905561017455506200141e9650505050505050565b600080620004cb8385620012dc565b905063ffffffff81166200050b5760405162461bcd60e51b8152602060048201526002602482015261042560f41b60448201526064015b60405180910390fd5b6040805160028082526060820183526000926020830190803683370190505090508481600081518110620005435762000543620013d9565b602002602001019063ffffffff16908163ffffffff16815250508381600181518110620005745762000574620013d9565b63ffffffff9092166020928302919091019091015260405163883bdbfd60e01b81526000906001600160a01b0388169063883bdbfd90620005ba9085906004016200112f565b60006040518083038186803b158015620005d357600080fd5b505afa158015620005e8573d6000803e3d6000fd5b505050506040513d6000823e601f3d908101601f1916820160405262000612919081019062001051565b5090506000816000815181106200062d576200062d620013d9565b6020026020010151826001815181106200064b576200064b620013d9565b60200260200101516200065f91906200126c565b905062000671600385900b82620011ef565b945060008160060b12801562000698575062000692600385900b826200132b565b60060b15155b15620006ae5784620006aa8162001304565b9550505b505050509392505050565b600080620006d286620008f960201b620021f91760201c565b90506001600160801b036001600160a01b0382161162000778576000620007036001600160a01b038316806200124a565b9050836001600160a01b0316856001600160a01b0316106200074a5762000744600160c01b876001600160801b03168362000d5a60201b620026181760201c565b6200076f565b6200076f81876001600160801b0316600160c01b62000d5a60201b620026181760201c565b9250506200081d565b6000620007ad826001600160a01b0316836001600160a01b03166801000000000000000062000d5a60201b620026181760201c565b9050836001600160a01b0316856001600160a01b031610620007f457620007ee600160801b876001600160801b03168362000d5a60201b620026181760201c565b62000819565b6200081981876001600160801b0316600160801b62000d5a60201b620026181760201c565b9250505b50949350505050565b6101808054600181018255600091909152815160039091027f3f79c16506060041ae6a4ff1e4cfb5037336b23850175e9bd090bd20eee718e581018290556020808401517f3f79c16506060041ae6a4ff1e4cfb5037336b23850175e9bd090bd20eee718e683018190556040808601517f3f79c16506060041ae6a4ff1e4cfb5037336b23850175e9bd090bd20eee718e79094018490558051948552918401528201527f7f422dd5cd123ccca7c61ca8286ee04cb58966e2c07631cc2b660f81713c98e59060600160405180910390a150565b60008060008360020b1262000912578260020b62000921565b8260020b62000921906200138d565b905062000932620d89e71962001367565b62ffffff168111156200096c5760405162461bcd60e51b81526020600482015260016024820152601560fa1b604482015260640162000502565b6000600182166200098257600160801b62000994565b6ffffcb933bd6fad37aa2d162d1a5940015b6001600160881b031690506002821615620009cc576080620009c7826ffff97272373d413259a46990580e213a6200124a565b901c90505b6004821615620009f9576080620009f4826ffff2e50f5f656932ef12357cf3c7fdcc6200124a565b901c90505b600882161562000a2657608062000a21826fffe5caca7e10e4e61c3624eaa0941cd06200124a565b901c90505b601082161562000a5357608062000a4e826fffcb9843d60f6159c9db58835c9266446200124a565b901c90505b602082161562000a8057608062000a7b826fff973b41fa98c081472e6896dfb254c06200124a565b901c90505b604082161562000aad57608062000aa8826fff2ea16466c96a3843ec78b326b528616200124a565b901c90505b608082161562000ada57608062000ad5826ffe5dee046a99a2a811c461f1969c30536200124a565b901c90505b61010082161562000b0857608062000b03826ffcbe86c7900a88aedcffc83b479aa3a46200124a565b901c90505b61020082161562000b3657608062000b31826ff987a7253ac413176f2b074cf7815e546200124a565b901c90505b61040082161562000b6457608062000b5f826ff3392b0822b70005940c7a398e4b70f36200124a565b901c90505b61080082161562000b9257608062000b8d826fe7159475a2c29b7443b29c7fa6e889d96200124a565b901c90505b61100082161562000bc057608062000bbb826fd097f3bdfd2022b8845ad8f792aa58256200124a565b901c90505b61200082161562000bee57608062000be9826fa9f746462d870fdf8a65dc1f90e061e56200124a565b901c90505b61400082161562000c1c57608062000c17826f70d869a156d2a1b890bb3df62baf32f76200124a565b901c90505b61800082161562000c4a57608062000c45826f31be135f97d08fd981231505542fcfa66200124a565b901c90505b6201000082161562000c7957608062000c74826f09aa508b5b7a84e1c677de54f3e99bc96200124a565b901c90505b6202000082161562000ca757608062000ca2826e5d6af8dedb81196699c329225ee6046200124a565b901c90505b6204000082161562000cd457608062000ccf826d2216e584f5fa1ea926041bedfe986200124a565b901c90505b6208000082161562000cff57608062000cfa826b048a170391f7dc42444e8fa26200124a565b901c90505b60008460020b131562000d1d5762000d1a8160001962001233565b90505b62000d2e6401000000008262001350565b1562000d3c57600162000d3f565b60005b62000d529060ff16602083901c620011d4565b949350505050565b60008080600019858709858702925082811083820303915050806000141562000d97576000841162000d8b57600080fd5b50829004905062000ef4565b80841162000da457600080fd5b60008486880980840393811190920391905060008562000dc4816200138d565b1695869004959384900493600081900304600101905062000de681846200124a565b90931792600062000df98760036200124a565b600218905062000e0a81886200124a565b62000e17906002620012c2565b62000e2390826200124a565b905062000e3181886200124a565b62000e3e906002620012c2565b62000e4a90826200124a565b905062000e5881886200124a565b62000e65906002620012c2565b62000e7190826200124a565b905062000e7f81886200124a565b62000e8c906002620012c2565b62000e9890826200124a565b905062000ea681886200124a565b62000eb3906002620012c2565b62000ebf90826200124a565b905062000ecd81886200124a565b62000eda906002620012c2565b62000ee690826200124a565b9050620006aa81866200124a565b9392505050565b600082601f83011262000f0d57600080fd5b8151602062000f2662000f2083620011ae565b6200117b565b80838252828201915082860187848660051b890101111562000f4757600080fd5b60005b8581101562000f7357815162000f608162001405565b8452928401929084019060010162000f4a565b5090979650505050505050565b60006020828403121562000f9357600080fd5b815162000ef48162001405565b600080600080600080600080610100898b03121562000fbe57600080fd5b885162000fcb8162001405565b60208a015190985062000fde8162001405565b60408a015190975062000ff18162001405565b60608a0151909650620010048162001405565b60808a0151909550620010178162001405565b60a08a01519094506001600160801b03811681146200103557600080fd5b60c08a015160e0909a0151989b979a5095989497939692505050565b600080604083850312156200106557600080fd5b82516001600160401b03808211156200107d57600080fd5b818501915085601f8301126200109257600080fd5b81516020620010a562000f2083620011ae565b8083825282820191508286018a848660051b8901011115620010c657600080fd5b600096505b84871015620010fb5780518060060b8114620010e657600080fd5b835260019690960195918301918301620010cb565b50918801519196509093505050808211156200111657600080fd5b50620011258582860162000efb565b9150509250929050565b6020808252825182820181905260009190848201906040850190845b818110156200116f57835163ffffffff16835292840192918401916001016200114b565b50909695505050505050565b604051601f8201601f191681016001600160401b0381118282101715620011a657620011a6620013ef565b604052919050565b60006001600160401b03821115620011ca57620011ca620013ef565b5060051b60200190565b60008219821115620011ea57620011ea620013ad565b500190565b60008160060b8360060b80620012095762001209620013c3565b667fffffffffffff198214600019821416156200122a576200122a620013ad565b90059392505050565b600082620012455762001245620013c3565b500490565b6000816000190483118215151615620012675762001267620013ad565b500290565b60008160060b8360060b6000811281667fffffffffffff19018312811516156200129a576200129a620013ad565b81667fffffffffffff018313811615620012b857620012b8620013ad565b5090039392505050565b600082821015620012d757620012d7620013ad565b500390565b600063ffffffff83811690831681811015620012fc57620012fc620013ad565b039392505050565b60008160020b627fffff19811415620013215762001321620013ad565b6000190192915050565b60008260060b80620013415762001341620013c3565b808360060b0791505092915050565b600082620013625762001362620013c3565b500690565b60008160020b627fffff19811415620013845762001384620013ad565b60000392915050565b6000600160ff1b821415620013a657620013a6620013ad565b5060000390565b634e487b7160e01b600052601160045260246000fd5b634e487b7160e01b600052601260045260246000fd5b634e487b7160e01b600052603260045260246000fd5b634e487b7160e01b600052604160045260246000fd5b6001600160a01b03811681146200141b57600080fd5b50565b60805160601c60a05160c05160e05160601c6101005160601c6101205160601c6101405160601c6101605160801c6101805160601c6101a05160f81c6150636200155a600039600061313a015260006132b201526000610f380152600081816106b00152610f7a0152600081816105910152610f5901526000818161056a015261319801526000818161073501528181610e370152612f840152600081816104ce01528181610da201528181610fa701528181612f040152818161302d01528181613103015261322d01526000818161076f01528181610d500152610eca0152600081816105190152818161088b01528181610a1c0152818161117b015281816112fd015281816113ec01528181611573015281816116350152818161187d01528181611a1201528181611b1d0152611ddc01526150636000f3fe608060405234801561001057600080fd5b506004361061038e5760003560e01c80638d5a63de116101de578063d28d04fb1161010f578063f0d2d5a8116100ad578063fbefb4b91161007c578063fbefb4b914610834578063fcaf78191461083e578063fd84e4de14610846578063ff1e62f01461084f57600080fd5b8063f0d2d5a8146107fc578063f333fe131461080f578063f8fecbc414610817578063fbaca1131461082a57600080fd5b8063e06fc927116100e9578063e06fc927146107cb578063e07b877a146107d5578063e6b44e52146107df578063efab1bd3146107e957600080fd5b8063d28d04fb146107a4578063d4508fe4146107ae578063de51da07146107c157600080fd5b8063b4f40c611161017c578063bf8f1d5a11610156578063bf8f1d5a14610730578063c99d3a0614610757578063ca2e4f1d1461076a578063cfebbc761461079157600080fd5b8063b4f40c611461070b578063b66a261c14610715578063b77461a51461072857600080fd5b8063a2e62045116101b8578063a2e62045146106d2578063a83627de146106da578063a9d9bb0b146106e4578063b29fa9c3146106f757600080fd5b80638d5a63de1461066c57806394f6684c146106a1578063999b93af146106ab57600080fd5b806341a3a092116102c357806358c489bd11610261578063767ac36911610230578063767ac3691461063d5780637b2aab0314610650578063841ee57d1461065a5780638b7598311461066257600080fd5b806358c489bd146105ea5780635dedde6d1461061857806367de8be914610620578063683009811461063357600080fd5b80635001f3b51161029d5780635001f3b51461058c57806352bc804e146105b357806358152d07146105cf578063582183b2146105d757600080fd5b806341a3a092146105535780634259fea31461055d57806343e4a2731461056557600080fd5b806322fb9bc6116103305780632acb38101161030a5780632acb3810146104f05780632c9c34b9146104f85780633729c3171461050b5780634187b7d61461051457600080fd5b806322fb9bc61461045f57806326a49e37146104945780632869f965146104c957600080fd5b80630f2938391161036c5780630f293839146103f75780630fce79531461043f5780631827696d14610449578063205f47111461045657600080fd5b806308c2e2251461039357806309163014146103a85780630ee21e54146103c3575b600080fd5b6103a66103a1366004614c2c565b610862565b005b6103b0610973565b6040519081526020015b60405180910390f35b6103e76103d13660046149f5565b6101846020526000908152604090205460ff1681565b60405190151581526020016103ba565b61040a610405366004614b5a565b610988565b604080519788526020880196909652948601939093526060850191909152608084015260a083015260c082015260e0016103ba565b6103b06101835481565b6103b0655af3107a400081565b6103b060005481565b61047261046d366004614b5a565b610b60565b60408051948552602085019390935291830152151560608201526080016103ba565b6104a76104a2366004614bac565b610d04565b60408051825181526020808401519082015291810151908201526060016103ba565b6103b07f000000000000000000000000000000000000000000000000000000000000000081565b6103b061100d565b6104a7610506366004614bac565b611022565b610180546103b0565b61053b7f000000000000000000000000000000000000000000000000000000000000000081565b6040516001600160a01b0390911681526020016103ba565b6103b061016c5481565b6103b0611116565b61053b7f000000000000000000000000000000000000000000000000000000000000000081565b61053b7f000000000000000000000000000000000000000000000000000000000000000081565b6105bc6110e081565b60405161ffff90911681526020016103ba565b61040a611120565b6103a66105e5366004614bac565b611152565b6105fd6105f8366004614bac565b611298565b604080519384526020840192909252908201526060016103ba565b6103b06112bf565b6103a661062e366004614bac565b6112d4565b6103b06101725481565b6103a661064b366004614bde565b6113c3565b6103b061017f5481565b6103a661154a565b6103b06101745481565b6106746116f4565b604080519687526020870195909552938501929092526060840152608083015260a082015260c0016103ba565b6103b061017e5481565b61053b7f000000000000000000000000000000000000000000000000000000000000000081565b6103a6611735565b6103b061017d5481565b6103a66106f2366004614b01565b611740565b6101815461053b906001600160a01b031681565b6103b061017b5481565b6103a6610723366004614bac565b611854565b6103b0611943565b61053b7f000000000000000000000000000000000000000000000000000000000000000081565b6103a66107653660046149f5565b6119e9565b6103b07f000000000000000000000000000000000000000000000000000000000000000081565b6103a661079f366004614c6f565b611af4565b6103b06101715481565b61040a6107bc366004614c00565b611c1d565b6103b061016f5481565b6103b06101705481565b6103b06101825481565b6103b061016b5481565b6105fd6107f7366004614b5a565b611d0d565b6103a661080a3660046149f5565b611db3565b6103b0611ec1565b6105fd610825366004614bac565b611ed6565b6103b06101735481565b6103b061017c5481565b6103b0611ee6565b6103b060015481565b6103b061085d366004614bac565b611efa565b604051632474521560e21b815260008051602061500e83398151915260048201523360248201527f00000000000000000000000000000000000000000000000000000000000000006001600160a01b0316906391d148549060440160206040518083038186803b1580156108d557600080fd5b505afa1580156108e9573d6000803e3d6000fd5b505050506040513d601f19601f8201168201806040525081019061090d9190614ae4565b6109505760405162461bcd60e51b815260206004820152600f60248201526e27ab262b189d10b3b7bb32b93737b960891b60448201526064015b60405180910390fd5b61016b9590955561016c9390935561016a91909155610171556101705561016f55565b600061097d6116f4565b509295945050505050565b336000908152610184602052604081205481908190819081908190819060ff166109e85760405162461bcd60e51b815260206004820152601160248201527013d593158c4e8858dbdb1b185d195c985b607a1b6044820152606401610947565b6109f0612789565b61018054925090506000610a04898b614e36565b9050600080610a138d84612846565b91509150610ab27f00000000000000000000000000000000000000000000000000000000000000006001600160a01b031663ddca3f436040518163ffffffff1660e01b815260040160206040518083038186803b158015610a7357600080fd5b505afa158015610a87573d6000803e3d6000fd5b505050506040513d601f19601f82011682018060405250810190610aab9190614bc5565b8490612898565b96508195508686655af3107a4000610aca9190614da6565b610ad49190614da6565b8c1015610b165760405162461bcd60e51b815260206004820152601060248201526f27ab262b189d31b7b63630ba1e36b4b760811b6044820152606401610947565b86610b21838e614ecd565b610b2b9190614ecd565b9850610b378b8a614e36565b9950610b43898b614ecd565b9750610b508d8b836128e2565b5050509397509397509397909450565b336000908152610184602052604081205481908190819060ff16610bba5760405162461bcd60e51b815260206004820152601160248201527013d593158c4e8858dbdb1b185d195c985b607a1b6044820152606401610947565b610bc2612979565b610180549086119150600090610bda90600190614ecd565b905080871115610c1d5760405162461bcd60e51b815260206004820152600e60248201526d13d593158c4e885cd95d1d1b195960921b6044820152606401610947565b60006101808881548110610c3357610c33614fbe565b9060005260206000209060030201905060006101808381548110610c5957610c59614fbe565b9060005260206000209060030201905089610c835781546001820154610c7e91612a5e565b610ca1565b60018201548154610ca191610c989190612ad7565b61018354612b29565b94508315610cd2576101795461017a548b15610cc4578198508882985050610ccb565b9750879650865b5050610cf8565b8915610cea5761017554610177549097509550610cf8565b610176546101785490975095505b50505093509350935093565b610d2860405180606001604052806000815260200160008152602001600081525090565b6040805160038082526080820190925260009160208201606080368337019050509050610d757f000000000000000000000000000000000000000000000000000000000000000084614da6565b81600081518110610d8857610d88614fbe565b63ffffffff90921660209283029190910190910152610dc77f000000000000000000000000000000000000000000000000000000000000000084614da6565b81600181518110610dda57610dda614fbe565b602002602001019063ffffffff16908163ffffffff16815250508281600281518110610e0857610e08614fbe565b63ffffffff9092166020928302919091019091015260405163883bdbfd60e01b81526000906001600160a01b037f0000000000000000000000000000000000000000000000000000000000000000169063883bdbfd90610e6c908590600401614ce1565b60006040518083038186803b158015610e8457600080fd5b505afa158015610e98573d6000803e3d6000fd5b505050506040513d6000823e601f3d908101601f19168201604052610ec09190810190614a12565b5090506000610f9e7f000000000000000000000000000000000000000000000000000000000000000060030b83600081518110610eff57610eff614fbe565b602002602001015184600281518110610f1a57610f1a614fbe565b6020026020010151610f2c9190614e55565b610f369190614dbe565b7f00000000000000000000000000000000000000000000000000000000000000007f00000000000000000000000000000000000000000000000000000000000000007f00000000000000000000000000000000000000000000000000000000000000006120eb565b90506000610ff77f000000000000000000000000000000000000000000000000000000000000000060030b84600181518110610fdc57610fdc614fbe565b602002602001015185600281518110610f1a57610f1a614fbe565b90506110038183612b3f565b9695505050505050565b60006110176116f4565b509195945050505050565b61104660405180606001604052806000815260200160008152602001600081525090565b61018054808310806110645750808314801561106457504261017e54105b6110a15760405162461bcd60e51b815260206004820152600e60248201526d13d593158c4e885cd95d1d1b195960921b6044820152606401610947565b808314156110c2576110bb61017e54426104a29190614ecd565b9150611110565b61018083815481106110d6576110d6614fbe565b9060005260206000209060030201604051806060016040529081600082015481526020016001820154815260200160028201548152505091505b50919050565b60006110036116f4565b600080600080600080600061113c4261017f5461017e54611c1d565b959d949c50929a50909850965094509092509050565b604051632474521560e21b815260008051602061500e83398151915260048201523360248201527f00000000000000000000000000000000000000000000000000000000000000006001600160a01b0316906391d148549060440160206040518083038186803b1580156111c557600080fd5b505afa1580156111d9573d6000803e3d6000fd5b505050506040513d601f19601f820116820180604052508101906111fd9190614ae4565b61123b5760405162461bcd60e51b815260206004820152600f60248201526e27ab262b189d10b3b7bb32b93737b960891b6044820152606401610947565b80670de0b6b3a7640000106112925760405162461bcd60e51b815260206004820152601160248201527f4f564c56313a2170726963654672616d650000000000000000000000000000006044820152606401610947565b61018355565b60b681603c81106112a857600080fd5b600302018054600182015460029092015490925083565b60006112c96116f4565b509395945050505050565b604051632474521560e21b815260008051602061500e83398151915260048201523360248201527f00000000000000000000000000000000000000000000000000000000000000006001600160a01b0316906391d148549060440160206040518083038186803b15801561134757600080fd5b505afa15801561135b573d6000803e3d6000fd5b505050506040513d601f19601f8201168201806040525081019061137f9190614ae4565b6113bd5760405162461bcd60e51b815260206004820152600f60248201526e27ab262b189d10b3b7bb32b93737b960891b6044820152606401610947565b61017b55565b604051632474521560e21b815260008051602061500e83398151915260048201523360248201527f00000000000000000000000000000000000000000000000000000000000000006001600160a01b0316906391d148549060440160206040518083038186803b15801561143657600080fd5b505afa15801561144a573d6000803e3d6000fd5b505050506040513d601f19601f8201168201806040525081019061146e9190614ae4565b6114ac5760405162461bcd60e51b815260206004820152600f60248201526e27ab262b189d10b3b7bb32b93737b960891b6044820152606401610947565b60018210156114ed5760405162461bcd60e51b815260206004820152600d60248201526c4f564c56313a2175706461746560981b6044820152606401610947565b8082111561153d5760405162461bcd60e51b815260206004820152601560248201527f4f564c56313a7570646174653e636f6d706f756e6400000000000000000000006044820152606401610947565b61017d9190915561017355565b604051632474521560e21b815260008051602061500e83398151915260048201523360248201527f00000000000000000000000000000000000000000000000000000000000000006001600160a01b0316906391d148549060440160206040518083038186803b1580156115bd57600080fd5b505afa1580156115d1573d6000803e3d6000fd5b505050506040513d601f19601f820116820180604052508101906115f59190614ae4565b6116335760405162461bcd60e51b815260206004820152600f60248201526e27ab262b189d10b3b7bb32b93737b960891b6044820152606401610947565b7f00000000000000000000000000000000000000000000000000000000000000006001600160a01b031663b29fa9c36040518163ffffffff1660e01b815260040160206040518083038186803b15801561168c57600080fd5b505afa1580156116a0573d6000803e3d6000fd5b505050506040513d601f19601f820116820180604052508101906116c49190614b8f565b610181805473ffffffffffffffffffffffffffffffffffffffff19166001600160a01b0392909216919091179055565b60008060008060008060006117104261017f5461017e54611c1d565b505094505050505061172181612be8565b949c939b5091995097509550909350915050565b61173d612c7c565b50565b336000908152610184602052604090205460ff166117945760405162461bcd60e51b815260206004820152601160248201527013d593158c4e8858dbdb1b185d195c985b607a1b6044820152606401610947565b61179e8282612d29565b84156117db5785156117c8578361017960008282546117bd9190614ecd565b9091555061184c9050565b8361017a60008282546117bd9190614ecd565b8515611819578361017560008282546117f49190614ecd565b92505081905583610177600082825461180d9190614ecd565b9091555061184c915050565b83610176600082825461182c9190614ecd565b9250508190558361017860008282546118459190614ecd565b9091555050505b505050505050565b604051632474521560e21b815260008051602061500e83398151915260048201523360248201527f00000000000000000000000000000000000000000000000000000000000000006001600160a01b0316906391d148549060440160206040518083038186803b1580156118c757600080fd5b505afa1580156118db573d6000803e3d6000fd5b505050506040513d601f19601f820116820180604052508101906118ff9190614ae4565b61193d5760405162461bcd60e51b815260206004820152600f60248201526e27ab262b189d10b3b7bb32b93737b960891b6044820152606401610947565b61017c55565b6000806000611950612e4d565b6101715491935091508282111561197d5761197561016a54611970612edd565b612b29565b935050505090565b6119878284614ecd565b9250611994816002614e36565b8311156119a5576000935050505090565b61016a546000906119d2906119ba8685612ad7565b6119cc90671bc16d674ec80000614ecd565b90612898565b90506119e081611970612edd565b94505050505090565b604051632474521560e21b815260008051602061500e83398151915260048201523360248201527f00000000000000000000000000000000000000000000000000000000000000006001600160a01b0316906391d148549060440160206040518083038186803b158015611a5c57600080fd5b505afa158015611a70573d6000803e3d6000fd5b505050506040513d601f19601f82011682018060405250810190611a949190614ae4565b611ad25760405162461bcd60e51b815260206004820152600f60248201526e27ab262b189d10b3b7bb32b93737b960891b6044820152606401610947565b6001600160a01b0316600090815261018460205260409020805460ff19169055565b604051632474521560e21b815260008051602061500e83398151915260048201523360248201527f00000000000000000000000000000000000000000000000000000000000000006001600160a01b0316906391d148549060440160206040518083038186803b158015611b6757600080fd5b505afa158015611b7b573d6000803e3d6000fd5b505050506040513d601f19601f82011682018060405250810190611b9f9190614ae4565b611bdd5760405162461bcd60e51b815260206004820152600f60248201526e27ab262b189d10b3b7bb32b93737b960891b6044820152606401610947565b611be68b6112d4565b611bef8a611152565b611bf889611854565b611c0288886113c3565b611c10868686868686610862565b5050505050505050505050565b60008060008060008060008061017d549050600061017354905060006101745490508c8b1015611c7a5782611c528d8d614ecd565b611c5c9190614e22565b995082611c698c8f614ecd565b611c739190614e22565b9850611c92565b82611c858d8f614ecd565b611c8f9190614e22565b98505b82611c9d8a8c614da6565b611ca79190614e36565b611cb1908d614da6565b9750611cbd8389614da6565b965081610174548e611ccf9190614ecd565b611cd99190614e22565b9550611ce58287614e36565b611cef9082614da6565b9450611cfb8286614da6565b93505050509397509397509397909450565b6000806000806000806000611d294261017f5461017e54611c1d565b5095509550509450509350611d408a8a8686613320565b9450600080600080600080611d5488612be8565b955095509550955095509550868e1015611d88578f15611d7b57859c508c849c5050611da0565b849c508c839c5050611da0565b8f15611d9957819b508b9c50611da0565b809b508b9c505b5050505050505050505093509350939050565b604051632474521560e21b815260008051602061500e83398151915260048201523360248201527f00000000000000000000000000000000000000000000000000000000000000006001600160a01b0316906391d148549060440160206040518083038186803b158015611e2657600080fd5b505afa158015611e3a573d6000803e3d6000fd5b505050506040513d601f19601f82011682018060405250810190611e5e9190614ae4565b611e9c5760405162461bcd60e51b815260206004820152600f60248201526e27ab262b189d10b3b7bb32b93737b960891b6044820152606401610947565b6001600160a01b0316600090815261018460205260409020805460ff19166001179055565b6000611ecb6116f4565b509095945050505050565b600281603c81106112a857600080fd5b6000611ef06116f4565b5095945050505050565b61016d8160028110611f0b57600080fd5b0154905081565b600080611f1f8385614ee4565b905063ffffffff8116611f595760405162461bcd60e51b8152602060048201526002602482015261042560f41b6044820152606401610947565b6040805160028082526060820183526000926020830190803683370190505090508481600081518110611f8e57611f8e614fbe565b602002602001019063ffffffff16908163ffffffff16815250508381600181518110611fbc57611fbc614fbe565b63ffffffff9092166020928302919091019091015260405163883bdbfd60e01b81526000906001600160a01b0388169063883bdbfd90612000908590600401614ce1565b60006040518083038186803b15801561201857600080fd5b505afa15801561202c573d6000803e3d6000fd5b505050506040513d6000823e601f3d908101601f191682016040526120549190810190614a12565b50905060008160008151811061206c5761206c614fbe565b60200260200101518260018151811061208757612087614fbe565b60200260200101516120999190614e55565b90506120a9600385900b82614dbe565b945060008160060b1280156120cd57506120c7600385900b82614f25565b60060b15155b156120e057846120dc81614f01565b9550505b505050509392505050565b6000806120f7866121f9565b90506001600160801b036001600160a01b0382161161217d5760006121256001600160a01b03831680614e36565b9050836001600160a01b0316856001600160a01b03161061215d57612158600160c01b876001600160801b031683612618565b612175565b61217581876001600160801b0316600160c01b612618565b9250506121f0565b600061219c6001600160a01b0383168068010000000000000000612618565b9050836001600160a01b0316856001600160a01b0316106121d4576121cf600160801b876001600160801b031683612618565b6121ec565b6121ec81876001600160801b0316600160801b612618565b9250505b50949350505050565b60008060008360020b12612210578260020b61221d565b8260020b61221d90614f75565b905061222c620d89e719614f5b565b62ffffff168111156122645760405162461bcd60e51b81526020600482015260016024820152601560fa1b6044820152606401610947565b60006001821661227857600160801b61228a565b6ffffcb933bd6fad37aa2d162d1a5940015b70ffffffffffffffffffffffffffffffffff16905060028216156122c95760806122c4826ffff97272373d413259a46990580e213a614e36565b901c90505b60048216156122f35760806122ee826ffff2e50f5f656932ef12357cf3c7fdcc614e36565b901c90505b600882161561231d576080612318826fffe5caca7e10e4e61c3624eaa0941cd0614e36565b901c90505b6010821615612347576080612342826fffcb9843d60f6159c9db58835c926644614e36565b901c90505b602082161561237157608061236c826fff973b41fa98c081472e6896dfb254c0614e36565b901c90505b604082161561239b576080612396826fff2ea16466c96a3843ec78b326b52861614e36565b901c90505b60808216156123c55760806123c0826ffe5dee046a99a2a811c461f1969c3053614e36565b901c90505b6101008216156123f05760806123eb826ffcbe86c7900a88aedcffc83b479aa3a4614e36565b901c90505b61020082161561241b576080612416826ff987a7253ac413176f2b074cf7815e54614e36565b901c90505b610400821615612446576080612441826ff3392b0822b70005940c7a398e4b70f3614e36565b901c90505b61080082161561247157608061246c826fe7159475a2c29b7443b29c7fa6e889d9614e36565b901c90505b61100082161561249c576080612497826fd097f3bdfd2022b8845ad8f792aa5825614e36565b901c90505b6120008216156124c75760806124c2826fa9f746462d870fdf8a65dc1f90e061e5614e36565b901c90505b6140008216156124f25760806124ed826f70d869a156d2a1b890bb3df62baf32f7614e36565b901c90505b61800082161561251d576080612518826f31be135f97d08fd981231505542fcfa6614e36565b901c90505b62010000821615612549576080612544826f09aa508b5b7a84e1c677de54f3e99bc9614e36565b901c90505b6202000082161561257457608061256f826e5d6af8dedb81196699c329225ee604614e36565b901c90505b6204000082161561259e576080612599826d2216e584f5fa1ea926041bedfe98614e36565b901c90505b620800008216156125c65760806125c1826b048a170391f7dc42444e8fa2614e36565b901c90505b60008460020b13156125e1576125de81600019614e22565b90505b6125f064010000000082614f47565b156125fc5760016125ff565b60005b6126109060ff16602083901c614da6565b949350505050565b600080806000198587098587029250828110838203039150508060001415612652576000841161264757600080fd5b508290049050612782565b80841161265e57600080fd5b60008486880980840393811190920391905060008561267c81614f75565b1695869004959384900493600081900304600101905061269c8184614e36565b9093179260006126ad876003614e36565b60021890506126bc8188614e36565b6126c7906002614ecd565b6126d19082614e36565b90506126dd8188614e36565b6126e8906002614ecd565b6126f29082614e36565b90506126fe8188614e36565b612709906002614ecd565b6127139082614e36565b905061271f8188614e36565b61272a906002614ecd565b6127349082614e36565b90506127408188614e36565b61274b906002614ecd565b6127559082614e36565b90506127618188614e36565b61276c906002614ecd565b6127769082614e36565b90506120dc8186614e36565b9392505050565b60008061017e54905060008060008060006127a84261017f5488611c1d565b96509650965096505050945084600010156127ea5760006127c98742614ecd565b905060006127d682610d04565b90506127e181613464565b505061017f8690555b821561282f57600019861461281d576128036001613537565b50612817612812600185614ecd565b613537565b50612828565b61282683613537565b505b6101748290555b8386146110035761017e8490559695505050505050565b600080600080600080612859888861355e565b93509350935093506128706002858560005461367d565b60005561287d8783613728565b955061288a600087612d29565b809450505050509250929050565b6000806128a58385614e36565b90506128c68415806128bf5750836128bd8684614e22565b145b6003613770565b6128d8670de0b6b3a764000082614e22565b9150505b92915050565b821561295157610179546128f68382614da6565b905080610179819055508181610175546129109190614da6565b111561294b5760405162461bcd60e51b815260206004820152600a60248201526904f564c56313a3e6361760b41b6044820152606401610947565b50505050565b61017a5461295f8382614da6565b90508061017a819055508181610176546129109190614da6565b60008061017e5490506000429050600080600080600061299d8661017f5489611c1d565b50955095505094509450945084600010156129d95760006129be8888614ecd565b905060006129cb82610d04565b90506129d681613464565b50505b8315612a135760006129eb8488614ecd565b905060006129f882610d04565b9050612a0381613464565b505061017f83905560001961017e555b8115612a53576000198714612a4157612a2c6001613537565b50612a3b612812600184614ecd565b50612a4c565b612a4a82613537565b505b6101748190555b979650505050505050565b6000612a6d8215156004613770565b82612a7a575060006128dc565b6000612a8e670de0b6b3a764000085614e36565b9050612aae670de0b6b3a7640000612aa68684614e22565b146005613770565b82612aba600183614ecd565b612ac49190614e22565b612acf906001614da6565b9150506128dc565b6000612ae68215156004613770565b82612af3575060006128dc565b6000612b07670de0b6b3a764000085614e36565b9050612b1f670de0b6b3a7640000612aa68684614e22565b612acf8382614e22565b6000818310612b385781612782565b5090919050565b612b6360405180606001604052806000815260200160008152602001600081525090565b6000612b96612b8661017c546725b946ebc0b3635161378290919063ffffffff16565b612b9085876137e7565b90613728565b90506000612bc5612bbb61017c5467051af86713316a9a61378290919063ffffffff16565b6119cc8688612b29565b604080516060810182529182526020820193909352918201939093529392505050565b610175546101765461017754610178546101795461017a5461017b548715612c7257612c1787876001846137f7565b509097509550612c4b612c2a8489614da6565b975087612c378489614da6565b975087612c4560018c614ecd565b846137f7565b509097509550612c5b8386614da6565b9450612c678285614da6565b935060009250600091505b5091939550919395565b61017e5461017f5460009190828080612c96428587611c1d565b509550955050505092508260001015612ce1576000612cb58642614ecd565b90506000612cc282610d04565b9050612ccd81613464565b505061017f85905560001961017e55600195505b8115612d21576000198514612d0f57612cfa6001613537565b50612d09612812600184614ecd565b50612d1a565b612d1882613537565b505b6101748190555b505050505090565b61017254429080821115612e1057600154600060b682603c8110612d4f57612d4f614fbe565b604080516060810182526003929092029290920180546001820154602084018181526002909301549484019490945286835261016d5492945092612d94908390614da6565b90525061016e54604083018051612dac908390614da6565b905250612dbc60b683838661367d565b60015561016d87905561016e86905561016f548080612ddb8789614ecd565b612de59190614e22565b612def9190614e36565b6101726000828254612e019190614da6565b9091555061294b945050505050565b8361016d6000016000828254612e269190614da6565b9091555083905061016d6001016000828254612e429190614da6565b909155505050505050565b600080600080612e6460b66001546101705461393a565b92509250508060200151826020015161016d600060028110612e8857612e88614fbe565b0154612e949190614da6565b612e9e9190614ecd565b93508060400151826040015161016d600160028110612ebf57612ebf614fbe565b0154612ecb9190614da6565b612ed59190614ecd565b925050509091565b604080516002808252606082018352600092839291906020830190803683370190505090507f000000000000000000000000000000000000000000000000000000000000000081600081518110612f3657612f36614fbe565b602002602001019063ffffffff16908163ffffffff1681525050600081600181518110612f6557612f65614fbe565b602002602001019063ffffffff16908163ffffffff16815250506000807f00000000000000000000000000000000000000000000000000000000000000006001600160a01b031663883bdbfd846040518263ffffffff1660e01b8152600401612fce9190614ce1565b60006040518083038186803b158015612fe657600080fd5b505afa158015612ffa573d6000803e3d6000fd5b505050506040513d6000823e601f3d908101601f191682016040526130229190810190614a12565b91509150600061309e7f000000000000000000000000000000000000000000000000000000000000000060030b8460008151811061306257613062614fbe565b60200260200101518560018151811061307d5761307d614fbe565b602002602001015161308f9190614e55565b6130999190614dbe565b6121f9565b6001600160a01b031690506000826000815181106130be576130be614fbe565b6020026020010151836001815181106130d9576130d9614fbe565b60200260200101516130eb9190614ea5565b61312b906fffffffffffffffffffffffffffffffff197f000000000000000000000000000000000000000000000000000000000000000060801b16614dfc565b6001600160a01b0316905060007f00000000000000000000000000000000000000000000000000000000000000006131705761316b828461018654612618565b61317e565b61317e83606084901b614e22565b60405163883bdbfd60e01b81529091506001600160a01b037f0000000000000000000000000000000000000000000000000000000000000000169063883bdbfd906131cd908990600401614ce1565b60006040518083038186803b1580156131e557600080fd5b505afa1580156131f9573d6000803e3d6000fd5b505050506040513d6000823e601f3d908101601f191682016040526132219190810190614a12565b508095505060006132d67f000000000000000000000000000000000000000000000000000000000000000060030b8760008151811061326257613262614fbe565b60200260200101518860018151811061327d5761327d614fbe565b602002602001015161328f9190614e55565b6132999190614dbe565b61018154670de0b6b3a7640000906001600160a01b03167f00000000000000000000000000000000000000000000000000000000000000006120eb565b9050613314671bc16d674ec8000061330e836132fa86670de0b6b3a7640000614e36565b6133049190614e22565b61016c5490613728565b90612ad7565b97505050505050505090565b600061334660405180606001604052806000815260200160008152602001600081525090565b61336a60405180606001604052806000815260200160008152602001600081525090565b6101805461337a90600190614ecd565b8610156133d357610180868154811061339557613395614fbe565b90600052602060002090600302016040518060600160405290816000820154815260200160018201548152602001600282015481525050915061342b565b84156133f2576133eb61017e54426104a29190614ecd565b915061342b565b60405162461bcd60e51b815260206004820152600e60248201526d13d593158c4e885cd95d1d1b195960921b6044820152606401610947565b6134386104a28542614ecd565b90508661344f57815160208201516121cf91612a5e565b602082015181516121ec91610c989190612ad7565b6101808054600181018255600091909152815160039091027f3f79c16506060041ae6a4ff1e4cfb5037336b23850175e9bd090bd20eee718e581018290556020808401517f3f79c16506060041ae6a4ff1e4cfb5037336b23850175e9bd090bd20eee718e683018190556040808601517f3f79c16506060041ae6a4ff1e4cfb5037336b23850175e9bd090bd20eee718e79094018490558051948552918401528201527f7f422dd5cd123ccca7c61ca8286ee04cb58966e2c07631cc2b660f81713c98e59060600160405180910390a150565b600081156135595761354c61017b5483613b2d565b50613555613ba1565b5060015b919050565b61358260405180606001604052806000815260200160008152602001600081525090565b60008060008060008061359c600260005461016b5461393a565b9250925092506135aa611943565b935060006135b88986612ad7565b905089156135da5780836020018181516135d29190614da6565b9052506135f0565b80836040018181516135ec9190614da6565b9052505b60006136318b613613578360400151856040015161360e9190614ecd565b613627565b836020015185602001516136279190614ecd565b61016c5490612898565b9050849750839850816000141561364957600061366d565b61366d61365e67051af86713316a9a83613782565b670de0b6b3a764000090613c22565b9650505050505092959194509250565b825160009083146136e757613693600183614da6565b9150603c8210156136db57838583603c81106136b1576136b1614fbe565b60030201600082015181600001556020820151816001015560408201518160020155905050613720565b600091508385836136b1565b838583603c81106136fa576136fa614fbe565b600302016000820151816000015560208201518160010155604082015181600201559050505b509392505050565b6000806137358385614e36565b905061374d8415806128bf5750836128bd8684614e22565b8061375c5760009150506128dc565b670de0b6b3a7640000612aba600183614ecd565b8161377e5761377e81613c3e565b5050565b600082670de0b6b3a76400001480613798575081155b156137ac5750670de0b6b3a76400006128dc565b60006137b88484613c91565b905060006137d26137cb83612710613728565b6001613d71565b90506137de8282613d71565b95945050505050565b600081831015612b385781612782565b6000808086158015613807575085155b1561381a57506000915081905080613930565b8461382d57508591508490506000613930565b600061384f61365e613848670de0b6b3a76400006002614e36565b8790613728565b905061386d61386687670de0b6b3a7640000614e36565b8290613782565b9050878780821180159061387f579091905b816138a55760006138908585612898565b905061389c8185614ecd565b9550925061390b565b60006138bb6138b48486614ecd565b8690612898565b905060006138c98486614da6565b905060026138d78383614da6565b6138e19190614e22565b945060026138ef8383614ecd565b6138f99190614e22565b9350613906600283614e22565b965050505b8061392057828261391b87614f75565b613924565b8183865b91985096509450505050505b9450945094915050565b600061396060405180606001604052806000815260200160008152602001600081525090565b61398460405180606001604052806000815260200160008152602001600081525090565b428686603c811061399757613997614fbe565b600302016040518060600160405290816000820154815260200160018201548152602001600282015481525050925082600001519350600085826139db9190614ecd565b905080846000015111613a04575082526020808301519082015260408083015190820152613b24565b83518214613a10578184525b600080613a1e8a8a85613d8e565b81519193509150831415613a3457819450613b1f565b8051831415613a4557809450613b1f565b815181511415613a5757819450613b1f565b600082602001518260200151613a6d9190614ecd565b9050600083604001518360400151613a859190614ecd565b84518451919250600091613a999190614ecd565b613aab90670de0b6b3a7640000614e36565b90506000613adb82876000015189613ac39190614ecd565b613ad590670de0b6b3a7640000614e36565b90612a5e565b9050613af5613aea8583612898565b602088015190613d71565b60208a0152613b12613b078483612898565b604088015190613d71565b60408a0152505050838652505b505050505b93509350939050565b6000806000613b44610175546101765486886137f7565b610175839055610176829055604080518481526020810184905290810182905290955091935091507fbd9b2eb2e69e8d71702753e645d1fbcda9b8473629152f5a3cbc18bc2ceecc2f9060600160405180910390a1505092915050565b6101795461017a546101758054839190600090613bbf908490614da6565b92505081905550806101766000828254613bd99190614da6565b92505081905550816101776000828254613bf39190614da6565b92505081905550806101786000828254613c0d9190614da6565b9091555050600061017981905561017a555050565b6000613c32838311156001613770565b60006128d88385614ecd565b62461bcd60e51b6000908152602060045260076024526642414c23000030600a808404818106603090810160081b95839006959095019082900491820690940160101b939093010160c81b604452606490fd5b6000613ca4600160ff1b84106006613770565b82613cca770bce5086492111aea88f4bb1ca6bcf584181ea8059f7653284106007613770565b826000670c7d713b49da000083138015613ceb5750670f43fc2c04ee000083125b15613d22576000613cfb84613f00565b9050670de0b6b3a764000080820784020583670de0b6b3a764000083050201915050613d30565b81613d2c84614028565b0290505b670de0b6b3a76400009005613d68680238fd42c5cf03ffff198212801590613d61575068070c1cc73b00c800008213155b6008613770565b611003816143d3565b600080613d7e8385614da6565b9050612782848210156000613770565b613db260405180606001604052806000815260200160008152602001600081525090565b613dd660405180606001604052806000815260200160008152602001600081525090565b8484603c8110613de857613de8614fbe565b600302016040518060600160405290816000820154815260200160018201548152602001600282015481525050915082826000015111613e4c578151831415613e3057613ef8565b4281526020808301519082015260408083015190820152613ef8565b603c613e59856001614da6565b613e639190614f47565b93508484603c8110613e7757613e77614fbe565b60030201604051806060016040529081600082015481526020016001820154815260200160028201548152505091506001826000015111613ed95760408051606081018252865481526001870154602082015260028701549181019190915291505b81518311613ee8575080613ef8565b613ef38584866147b6565b915091505b935093915050565b670de0b6b3a7640000026000806ec097ce7bc90715b34b9f1000000000808401906ec097ce7bc90715b34b9f0fffffffff1985010281613f4257613f42614fa8565b05905060006ec097ce7bc90715b34b9f100000000082800205905081806ec097ce7bc90715b34b9f100000000081840205915060038205016ec097ce7bc90715b34b9f100000000082840205915060058205016ec097ce7bc90715b34b9f100000000082840205915060078205016ec097ce7bc90715b34b9f100000000082840205915060098205016ec097ce7bc90715b34b9f1000000000828402059150600b8205016ec097ce7bc90715b34b9f1000000000828402059150600d8205016ec097ce7bc90715b34b9f1000000000828402059150600f82050160020295945050505050565b6000670de0b6b3a764000082121561406a57614061826ec097ce7bc90715b34b9f10000000008161405b5761405b614fa8565b05614028565b60000392915050565b60007e1600ef3172e58d2e933ec884fde10064c63b5372d805e203c000000000000083126140bb57770195e54c5dd42177f53a27172fa9ec630262827000000000830592506806f05b59d3b2000000015b73011798004d755d3c8bc8e03204cf44619e00000083126140f3576b1425982cf597cd205cef7380830592506803782dace9d9000000015b606492830292026e01855144814a7ff805980ff0084000831261413b576e01855144814a7ff805980ff008400068056bc75e2d63100000840205925068ad78ebc5ac62000000015b6b02df0ab5a80a22c61ab5a7008312614176576b02df0ab5a80a22c61ab5a70068056bc75e2d6310000084020592506856bc75e2d631000000015b693f1fce3da636ea5cf85083126141ad57693f1fce3da636ea5cf85068056bc75e2d631000008402059250682b5e3af16b18800000015b690127fa27722cc06cc5e283126141e457690127fa27722cc06cc5e268056bc75e2d6310000084020592506815af1d78b58c400000015b68280e60114edb805d0383126142195768280e60114edb805d0368056bc75e2d631000008402059250680ad78ebc5ac6200000015b680ebc5fb41746121110831261424457680ebc5fb4174612111068056bc75e2d631000009384020592015b6808f00f760a4b2db55d8312614279576808f00f760a4b2db55d68056bc75e2d6310000084020592506802b5e3af16b1880000015b6806f5f177578893793783126142ae576806f5f177578893793768056bc75e2d63100000840205925068015af1d78b58c40000015b6806248f33704b28660383126142e2576806248f33704b28660368056bc75e2d63100000840205925067ad78ebc5ac620000015b6805c548670b9510e7ac8312614316576805c548670b9510e7ac68056bc75e2d6310000084020592506756bc75e2d6310000015b600068056bc75e2d63100000840168056bc75e2d63100000808603028161433f5761433f614fa8565b059050600068056bc75e2d63100000828002059050818068056bc75e2d63100000818402059150600382050168056bc75e2d63100000828402059150600582050168056bc75e2d63100000828402059150600782050168056bc75e2d63100000828402059150600982050168056bc75e2d63100000828402059150600b820501600202606485820105979650505050505050565b6000614402680238fd42c5cf03ffff1983121580156143fb575068070c1cc73b00c800008313155b6009613770565b600082121561443b57614417826000036143d3565b6ec097ce7bc90715b34b9f10000000008161443457614434614fa8565b0592915050565b60006806f05b59d3b2000000831261447b57506806f05b59d3b1ffffff1990910190770195e54c5dd42177f53a27172fa9ec6302628270000000006144b1565b6803782dace9d900000083126144ad57506803782dace9d8ffffff19909101906b1425982cf597cd205cef73806144b1565b5060015b6064929092029168056bc75e2d6310000068ad78ebc5ac6200000084126145015768ad78ebc5ac61ffffff199093019268056bc75e2d631000006e01855144814a7ff805980ff008400082020590505b6856bc75e2d631000000841261453d576856bc75e2d630ffffff199093019268056bc75e2d631000006b02df0ab5a80a22c61ab5a70082020590505b682b5e3af16b18800000841261457757682b5e3af16b187fffff199093019268056bc75e2d63100000693f1fce3da636ea5cf85082020590505b6815af1d78b58c40000084126145b1576815af1d78b58c3fffff199093019268056bc75e2d63100000690127fa27722cc06cc5e282020590505b680ad78ebc5ac620000084126145ea57680ad78ebc5ac61fffff199093019268056bc75e2d6310000068280e60114edb805d0382020590505b68056bc75e2d6310000084126146235768056bc75e2d630fffff199093019268056bc75e2d63100000680ebc5fb4174612111082020590505b6802b5e3af16b1880000841261465c576802b5e3af16b187ffff199093019268056bc75e2d631000006808f00f760a4b2db55d82020590505b68015af1d78b58c4000084126146955768015af1d78b58c3ffff199093019268056bc75e2d631000006806f5f177578893793782020590505b68056bc75e2d631000008481019085906002908280020505918201919050600368056bc75e2d631000008783020505918201919050600468056bc75e2d631000008783020505918201919050600568056bc75e2d631000008783020505918201919050600668056bc75e2d631000008783020505918201919050600768056bc75e2d631000008783020505918201919050600868056bc75e2d631000008783020505918201919050600968056bc75e2d631000008783020505918201919050600a68056bc75e2d631000008783020505918201919050600b68056bc75e2d631000008783020505918201919050600c68056bc75e2d631000008783020505918201919050606468056bc75e2d63100000848402058502059695505050505050565b6147da60405180606001604052806000815260200160008152602001600081525090565b6147fe60405180606001604052806000815260200160008152602001600081525090565b6000603c61480d856001614d80565b61ffff1661481b9190614f47565b90506000600161482c603c84614da6565b6148369190614ecd565b905060005b60026148478385614da6565b6148519190614e22565b90508761485f603c83614f47565b603c811061486f5761486f614fbe565b600302016040518060600160405290816000820154815260200160018201548152602001600282015481525050945060018560000151116148bc576148b5816001614da6565b925061483b565b87603c6148ca836001614da6565b6148d49190614f47565b603c81106148e4576148e4614fbe565b600302016040518060600160405290816000820154815260200160018201548152602001600282015481525050935060008763ffffffff168660000151111590508080156149395750845163ffffffff891611155b15614944575061496f565b8061495b57614954600183614ecd565b9250614969565b614966826001614da6565b93505b5061483b565b505050935093915050565b600082601f83011261498b57600080fd5b815160206149a061499b83614d5c565b614d2b565b80838252828201915082860187848660051b89010111156149c057600080fd5b60005b858110156149e85781516149d681614fea565b845292840192908401906001016149c3565b5090979650505050505050565b600060208284031215614a0757600080fd5b813561278281614fea565b60008060408385031215614a2557600080fd5b825167ffffffffffffffff80821115614a3d57600080fd5b818501915085601f830112614a5157600080fd5b81516020614a6161499b83614d5c565b8083825282820191508286018a848660051b8901011115614a8157600080fd5b600096505b84871015614ab35780518060060b8114614a9f57600080fd5b835260019690960195918301918301614a86565b5091880151919650909350505080821115614acd57600080fd5b50614ada8582860161497a565b9150509250929050565b600060208284031215614af657600080fd5b815161278281614fff565b60008060008060008060c08789031215614b1a57600080fd5b8635614b2581614fff565b95506020870135614b3581614fff565b95989597505050506040840135936060810135936080820135935060a0909101359150565b600080600060608486031215614b6f57600080fd5b8335614b7a81614fff565b95602085013595506040909401359392505050565b600060208284031215614ba157600080fd5b815161278281614fea565b600060208284031215614bbe57600080fd5b5035919050565b600060208284031215614bd757600080fd5b5051919050565b60008060408385031215614bf157600080fd5b50508035926020909101359150565b600080600060608486031215614c1557600080fd5b505081359360208301359350604090920135919050565b60008060008060008060c08789031215614c4557600080fd5b505084359660208601359650604086013595606081013595506080810135945060a0013592509050565b60008060008060008060008060008060006101608c8e031215614c9157600080fd5b505089359b60208b01359b5060408b01359a60608101359a506080810135995060a0810135985060c0810135975060e0810135965061010081013595506101208101359450610140013592509050565b6020808252825182820181905260009190848201906040850190845b81811015614d1f57835163ffffffff1683529284019291840191600101614cfd565b50909695505050505050565b604051601f8201601f1916810167ffffffffffffffff81118282101715614d5457614d54614fd4565b604052919050565b600067ffffffffffffffff821115614d7657614d76614fd4565b5060051b60200190565b600061ffff808316818516808303821115614d9d57614d9d614f92565b01949350505050565b60008219821115614db957614db9614f92565b500190565b60008160060b8360060b80614dd557614dd5614fa8565b667fffffffffffff19821460001982141615614df357614df3614f92565b90059392505050565b60006001600160a01b0380841680614e1657614e16614fa8565b92169190910492915050565b600082614e3157614e31614fa8565b500490565b6000816000190483118215151615614e5057614e50614f92565b500290565b60008160060b8360060b6000811281667fffffffffffff1901831281151615614e8057614e80614f92565b81667fffffffffffff018313811615614e9b57614e9b614f92565b5090039392505050565b60006001600160a01b0383811690831681811015614ec557614ec5614f92565b039392505050565b600082821015614edf57614edf614f92565b500390565b600063ffffffff83811690831681811015614ec557614ec5614f92565b60008160020b627fffff19811415614f1b57614f1b614f92565b6000190192915050565b60008260060b80614f3857614f38614fa8565b808360060b0791505092915050565b600082614f5657614f56614fa8565b500690565b60008160020b627fffff1981141561406157614061614f92565b6000600160ff1b821415614f8b57614f8b614f92565b5060000390565b634e487b7160e01b600052601160045260246000fd5b634e487b7160e01b600052601260045260246000fd5b634e487b7160e01b600052603260045260246000fd5b634e487b7160e01b600052604160045260246000fd5b6001600160a01b038116811461173d57600080fd5b801515811461173d57600080fdfe1a6838efa4183e08fe3607359d1259272af9d4716f65e1a7b5921f78fd5a3c6aa264697066735822122058985c7f51a6caaafaf8ce91240cba2873809f0f1640d55111c93ff500f3abe364736f6c63430008070033",
  "bytecodeSha1": "e7857b3cb996d0453a27dbcfd9176be9bcb26419",
  "compiler": {
    "evm_version": "london",
    "optimizer": {
      "enabled": true,
      "runs": 400
    },
    "version": "0.8.7+commit.e28d00a7"
  },
  "contractName": "OverlayV1UniswapV3Market",
  "language": "Solidity",
  "natspec": {
    "kind": "dev",
    "methods": {
      "enterOI(bool,uint256,uint256)": {
        "details": "invoked by an overlay position contract",
        "notice": "Adds open interest to the market"
      },
      "exitOI(bool,bool,uint256,uint256,uint256,uint256)": {
        "details": "must update two prices if the pending update was from a longtime ago in that case, a previously entered position must besettled, and the current exit price must be retrieved",
        "notice": "Removes open interest from the market",
        "params": {
          "_isLong": "is this from the short or the long side",
          "_oiShares": "the amount of oi in shares to be removed"
        }
      },
      "pricePointCurrentIndex()": {
        "notice": "Get the current price point index"
      }
    },
    "version": 1
  },
  "opcodes": "PUSH1 0x80 PUSH1 0x40 MSTORE CALLVALUE DUP1 ISZERO PUSH2 0x10 JUMPI PUSH1 0x0 DUP1 REVERT JUMPDEST POP PUSH1 0x4 CALLDATASIZE LT PUSH2 0x38E JUMPI PUSH1 0x0 CALLDATALOAD PUSH1 0xE0 SHR DUP1 PUSH4 0x8D5A63DE GT PUSH2 0x1DE JUMPI DUP1 PUSH4 0xD28D04FB GT PUSH2 0x10F JUMPI DUP1 PUSH4 0xF0D2D5A8 GT PUSH2 0xAD JUMPI DUP1 PUSH4 0xFBEFB4B9 GT PUSH2 0x7C JUMPI DUP1 PUSH4 0xFBEFB4B9 EQ PUSH2 0x834 JUMPI DUP1 PUSH4 0xFCAF7819 EQ PUSH2 0x83E JUMPI DUP1 PUSH4 0xFD84E4DE EQ PUSH2 0x846 JUMPI DUP1 PUSH4 0xFF1E62F0 EQ PUSH2 0x84F JUMPI PUSH1 0x0 DUP1 REVERT JUMPDEST DUP1 PUSH4 0xF0D2D5A8 EQ PUSH2 0x7FC JUMPI DUP1 PUSH4 0xF333FE13 EQ PUSH2 0x80F JUMPI DUP1 PUSH4 0xF8FECBC4 EQ PUSH2 0x817 JUMPI DUP1 PUSH4 0xFBACA113 EQ PUSH2 0x82A JUMPI PUSH1 0x0 DUP1 REVERT JUMPDEST DUP1 PUSH4 0xE06FC927 GT PUSH2 0xE9 JUMPI DUP1 PUSH4 0xE06FC927 EQ PUSH2 0x7CB JUMPI DUP1 PUSH4 0xE07B877A EQ PUSH2 0x7D5 JUMPI DUP1 PUSH4 0xE6B44E52 EQ PUSH2 0x7DF JUMPI DUP1 PUSH4 0xEFAB1BD3 EQ PUSH2 0x7E9 JUMPI PUSH1 0x0 DUP1 REVERT JUMPDEST DUP1 PUSH4 0xD28D04FB EQ PUSH2 0x7A4 JUMPI DUP1 PUSH4 0xD4508FE4 EQ PUSH2 0x7AE JUMPI DUP1 PUSH4 0xDE51DA07 EQ PUSH2 0x7C1 JUMPI PUSH1 0x0 DUP1 REVERT JUMPDEST DUP1 PUSH4 0xB4F40C61 GT PUSH2 0x17C JUMPI DUP1 PUSH4 0xBF8F1D5A GT PUSH2 0x156 JUMPI DUP1 PUSH4 0xBF8F1D5A EQ PUSH2 0x730 JUMPI DUP1 PUSH4 0xC99D3A06 EQ PUSH2 0x757 JUMPI DUP1 PUSH4 0xCA2E4F1D EQ PUSH2 0x76A JUMPI DUP1 PUSH4 0xCFEBBC76 EQ PUSH2 0x791 JUMPI PUSH1 0x0 DUP1 REVERT JUMPDEST DUP1 PUSH4 0xB4F40C61 EQ PUSH2 0x70B JUMPI DUP1 PUSH4 0xB66A261C EQ PUSH2 0x715 JUMPI DUP1 PUSH4 0xB77461A5 EQ PUSH2 0x728 JUMPI PUSH1 0x0 DUP1 REVERT JUMPDEST DUP1 PUSH4 0xA2E62045 GT PUSH2 0x1B8 JUMPI DUP1 PUSH4 0xA2E62045 EQ PUSH2 0x6D2 JUMPI DUP1 PUSH4 0xA83627DE EQ PUSH2 0x6DA JUMPI DUP1 PUSH4 0xA9D9BB0B EQ PUSH2 0x6E4 JUMPI DUP1 PUSH4 0xB29FA9C3 EQ PUSH2 0x6F7 JUMPI PUSH1 0x0 DUP1 REVERT JUMPDEST DUP1 PUSH4 0x8D5A63DE EQ PUSH2 0x66C JUMPI DUP1 PUSH4 0x94F6684C EQ PUSH2 0x6A1 JUMPI DUP1 PUSH4 0x999B93AF EQ PUSH2 0x6AB JUMPI PUSH1 0x0 DUP1 REVERT JUMPDEST DUP1 PUSH4 0x41A3A092 GT PUSH2 0x2C3 JUMPI DUP1 PUSH4 0x58C489BD GT PUSH2 0x261 JUMPI DUP1 PUSH4 0x767AC369 GT PUSH2 0x230 JUMPI DUP1 PUSH4 0x767AC369 EQ PUSH2 0x63D JUMPI DUP1 PUSH4 0x7B2AAB03 EQ PUSH2 0x650 JUMPI DUP1 PUSH4 0x841EE57D EQ PUSH2 0x65A JUMPI DUP1 PUSH4 0x8B759831 EQ PUSH2 0x662 JUMPI PUSH1 0x0 DUP1 REVERT JUMPDEST DUP1 PUSH4 0x58C489BD EQ PUSH2 0x5EA JUMPI DUP1 PUSH4 0x5DEDDE6D EQ PUSH2 0x618 JUMPI DUP1 PUSH4 0x67DE8BE9 EQ PUSH2 0x620 JUMPI DUP1 PUSH4 0x68300981 EQ PUSH2 0x633 JUMPI PUSH1 0x0 DUP1 REVERT JUMPDEST DUP1 PUSH4 0x5001F3B5 GT PUSH2 0x29D JUMPI DUP1 PUSH4 0x5001F3B5 EQ PUSH2 0x58C JUMPI DUP1 PUSH4 0x52BC804E EQ PUSH2 0x5B3 JUMPI DUP1 PUSH4 0x58152D07 EQ PUSH2 0x5CF JUMPI DUP1 PUSH4 0x582183B2 EQ PUSH2 0x5D7 JUMPI PUSH1 0x0 DUP1 REVERT JUMPDEST DUP1 PUSH4 0x41A3A092 EQ PUSH2 0x553 JUMPI DUP1 PUSH4 0x4259FEA3 EQ PUSH2 0x55D JUMPI DUP1 PUSH4 0x43E4A273 EQ PUSH2 0x565 JUMPI PUSH1 0x0 DUP1 REVERT JUMPDEST DUP1 PUSH4 0x22FB9BC6 GT PUSH2 0x330 JUMPI DUP1 PUSH4 0x2ACB3810 GT PUSH2 0x30A JUMPI DUP1 PUSH4 0x2ACB3810 EQ PUSH2 0x4F0 JUMPI DUP1 PUSH4 0x2C9C34B9 EQ PUSH2 0x4F8 JUMPI DUP1 PUSH4 0x3729C317 EQ PUSH2 0x50B JUMPI DUP1 PUSH4 0x4187B7D6 EQ PUSH2 0x514 JUMPI PUSH1 0x0 DUP1 REVERT JUMPDEST DUP1 PUSH4 0x22FB9BC6 EQ PUSH2 0x45F JUMPI DUP1 PUSH4 0x26A49E37 EQ PUSH2 0x494 JUMPI DUP1 PUSH4 0x2869F965 EQ PUSH2 0x4C9 JUMPI PUSH1 0x0 DUP1 REVERT JUMPDEST DUP1 PUSH4 0xF293839 GT PUSH2 0x36C JUMPI DUP1 PUSH4 0xF293839 EQ PUSH2 0x3F7 JUMPI DUP1 PUSH4 0xFCE7953 EQ PUSH2 0x43F JUMPI DUP1 PUSH4 0x1827696D EQ PUSH2 0x449 JUMPI DUP1 PUSH4 0x205F4711 EQ PUSH2 0x456 JUMPI PUSH1 0x0 DUP1 REVERT JUMPDEST DUP1 PUSH4 0x8C2E225 EQ PUSH2 0x393 JUMPI DUP1 PUSH4 0x9163014 EQ PUSH2 0x3A8 JUMPI DUP1 PUSH4 0xEE21E54 EQ PUSH2 0x3C3 JUMPI JUMPDEST PUSH1 0x0 DUP1 REVERT JUMPDEST PUSH2 0x3A6 PUSH2 0x3A1 CALLDATASIZE PUSH1 0x4 PUSH2 0x4C2C JUMP JUMPDEST PUSH2 0x862 JUMP JUMPDEST STOP JUMPDEST PUSH2 0x3B0 PUSH2 0x973 JUMP JUMPDEST PUSH1 0x40 MLOAD SWAP1 DUP2 MSTORE PUSH1 0x20 ADD JUMPDEST PUSH1 0x40 MLOAD DUP1 SWAP2 SUB SWAP1 RETURN JUMPDEST PUSH2 0x3E7 PUSH2 0x3D1 CALLDATASIZE PUSH1 0x4 PUSH2 0x49F5 JUMP JUMPDEST PUSH2 0x184 PUSH1 0x20 MSTORE PUSH1 0x0 SWAP1 DUP2 MSTORE PUSH1 0x40 SWAP1 KECCAK256 SLOAD PUSH1 0xFF AND DUP2 JUMP JUMPDEST PUSH1 0x40 MLOAD SWAP1 ISZERO ISZERO DUP2 MSTORE PUSH1 0x20 ADD PUSH2 0x3BA JUMP JUMPDEST PUSH2 0x40A PUSH2 0x405 CALLDATASIZE PUSH1 0x4 PUSH2 0x4B5A JUMP JUMPDEST PUSH2 0x988 JUMP JUMPDEST PUSH1 0x40 DUP1 MLOAD SWAP8 DUP9 MSTORE PUSH1 0x20 DUP9 ADD SWAP7 SWAP1 SWAP7 MSTORE SWAP5 DUP7 ADD SWAP4 SWAP1 SWAP4 MSTORE PUSH1 0x60 DUP6 ADD SWAP2 SWAP1 SWAP2 MSTORE PUSH1 0x80 DUP5 ADD MSTORE PUSH1 0xA0 DUP4 ADD MSTORE PUSH1 0xC0 DUP3 ADD MSTORE PUSH1 0xE0 ADD PUSH2 0x3BA JUMP JUMPDEST PUSH2 0x3B0 PUSH2 0x183 SLOAD DUP2 JUMP JUMPDEST PUSH2 0x3B0 PUSH6 0x5AF3107A4000 DUP2 JUMP JUMPDEST PUSH2 0x3B0 PUSH1 0x0 SLOAD DUP2 JUMP JUMPDEST PUSH2 0x472 PUSH2 0x46D CALLDATASIZE PUSH1 0x4 PUSH2 0x4B5A JUMP JUMPDEST PUSH2 0xB60 JUMP JUMPDEST PUSH1 0x40 DUP1 MLOAD SWAP5 DUP6 MSTORE PUSH1 0x20 DUP6 ADD SWAP4 SWAP1 SWAP4 MSTORE SWAP2 DUP4 ADD MSTORE ISZERO ISZERO PUSH1 0x60 DUP3 ADD MSTORE PUSH1 0x80 ADD PUSH2 0x3BA JUMP JUMPDEST PUSH2 0x4A7 PUSH2 0x4A2 CALLDATASIZE PUSH1 0x4 PUSH2 0x4BAC JUMP JUMPDEST PUSH2 0xD04 JUMP JUMPDEST PUSH1 0x40 DUP1 MLOAD DUP3 MLOAD DUP2 MSTORE PUSH1 0x20 DUP1 DUP5 ADD MLOAD SWAP1 DUP3 ADD MSTORE SWAP2 DUP2 ADD MLOAD SWAP1 DUP3 ADD MSTORE PUSH1 0x60 ADD PUSH2 0x3BA JUMP JUMPDEST PUSH2 0x3B0 PUSH32 0x0 DUP2 JUMP JUMPDEST PUSH2 0x3B0 PUSH2 0x100D JUMP JUMPDEST PUSH2 0x4A7 PUSH2 0x506 CALLDATASIZE PUSH1 0x4 PUSH2 0x4BAC JUMP JUMPDEST PUSH2 0x1022 JUMP JUMPDEST PUSH2 0x180 SLOAD PUSH2 0x3B0 JUMP JUMPDEST PUSH2 0x53B PUSH32 0x0 DUP2 JUMP JUMPDEST PUSH1 0x40 MLOAD PUSH1 0x1 PUSH1 0x1 PUSH1 0xA0 SHL SUB SWAP1 SWAP2 AND DUP2 MSTORE PUSH1 0x20 ADD PUSH2 0x3BA JUMP JUMPDEST PUSH2 0x3B0 PUSH2 0x16C SLOAD DUP2 JUMP JUMPDEST PUSH2 0x3B0 PUSH2 0x1116 JUMP JUMPDEST PUSH2 0x53B PUSH32 0x0 DUP2 JUMP JUMPDEST PUSH2 0x53B PUSH32 0x0 DUP2 JUMP JUMPDEST PUSH2 0x5BC PUSH2 0x10E0 DUP2 JUMP JUMPDEST PUSH1 0x40 MLOAD PUSH2 0xFFFF SWAP1 SWAP2 AND DUP2 MSTORE PUSH1 0x20 ADD PUSH2 0x3BA JUMP JUMPDEST PUSH2 0x40A PUSH2 0x1120 JUMP JUMPDEST PUSH2 0x3A6 PUSH2 0x5E5 CALLDATASIZE PUSH1 0x4 PUSH2 0x4BAC JUMP JUMPDEST PUSH2 0x1152 JUMP JUMPDEST PUSH2 0x5FD PUSH2 0x5F8 CALLDATASIZE PUSH1 0x4 PUSH2 0x4BAC JUMP JUMPDEST PUSH2 0x1298 JUMP JUMPDEST PUSH1 0x40 DUP1 MLOAD SWAP4 DUP5 MSTORE PUSH1 0x20 DUP5 ADD SWAP3 SWAP1 SWAP3 MSTORE SWAP1 DUP3 ADD MSTORE PUSH1 0x60 ADD PUSH2 0x3BA JUMP JUMPDEST PUSH2 0x3B0 PUSH2 0x12BF JUMP JUMPDEST PUSH2 0x3A6 PUSH2 0x62E CALLDATASIZE PUSH1 0x4 PUSH2 0x4BAC JUMP JUMPDEST PUSH2 0x12D4 JUMP JUMPDEST PUSH2 0x3B0 PUSH2 0x172 SLOAD DUP2 JUMP JUMPDEST PUSH2 0x3A6 PUSH2 0x64B CALLDATASIZE PUSH1 0x4 PUSH2 0x4BDE JUMP JUMPDEST PUSH2 0x13C3 JUMP JUMPDEST PUSH2 0x3B0 PUSH2 0x17F SLOAD DUP2 JUMP JUMPDEST PUSH2 0x3A6 PUSH2 0x154A JUMP JUMPDEST PUSH2 0x3B0 PUSH2 0x174 SLOAD DUP2 JUMP JUMPDEST PUSH2 0x674 PUSH2 0x16F4 JUMP JUMPDEST PUSH1 0x40 DUP1 MLOAD SWAP7 DUP8 MSTORE PUSH1 0x20 DUP8 ADD SWAP6 SWAP1 SWAP6 MSTORE SWAP4 DUP6 ADD SWAP3 SWAP1 SWAP3 MSTORE PUSH1 0x60 DUP5 ADD MSTORE PUSH1 0x80 DUP4 ADD MSTORE PUSH1 0xA0 DUP3 ADD MSTORE PUSH1 0xC0 ADD PUSH2 0x3BA JUMP JUMPDEST PUSH2 0x3B0 PUSH2 0x17E SLOAD DUP2 JUMP JUMPDEST PUSH2 0x53B PUSH32 0x0 DUP2 JUMP JUMPDEST PUSH2 0x3A6 PUSH2 0x1735 JUMP JUMPDEST PUSH2 0x3B0 PUSH2 0x17D SLOAD DUP2 JUMP JUMPDEST PUSH2 0x3A6 PUSH2 0x6F2 CALLDATASIZE PUSH1 0x4 PUSH2 0x4B01 JUMP JUMPDEST PUSH2 0x1740 JUMP JUMPDEST PUSH2 0x181 SLOAD PUSH2 0x53B SWAP1 PUSH1 0x1 PUSH1 0x1 PUSH1 0xA0 SHL SUB AND DUP2 JUMP JUMPDEST PUSH2 0x3B0 PUSH2 0x17B SLOAD DUP2 JUMP JUMPDEST PUSH2 0x3A6 PUSH2 0x723 CALLDATASIZE PUSH1 0x4 PUSH2 0x4BAC JUMP JUMPDEST PUSH2 0x1854 JUMP JUMPDEST PUSH2 0x3B0 PUSH2 0x1943 JUMP JUMPDEST PUSH2 0x53B PUSH32 0x0 DUP2 JUMP JUMPDEST PUSH2 0x3A6 PUSH2 0x765 CALLDATASIZE PUSH1 0x4 PUSH2 0x49F5 JUMP JUMPDEST PUSH2 0x19E9 JUMP JUMPDEST PUSH2 0x3B0 PUSH32 0x0 DUP2 JUMP JUMPDEST PUSH2 0x3A6 PUSH2 0x79F CALLDATASIZE PUSH1 0x4 PUSH2 0x4C6F JUMP JUMPDEST PUSH2 0x1AF4 JUMP JUMPDEST PUSH2 0x3B0 PUSH2 0x171 SLOAD DUP2 JUMP JUMPDEST PUSH2 0x40A PUSH2 0x7BC CALLDATASIZE PUSH1 0x4 PUSH2 0x4C00 JUMP JUMPDEST PUSH2 0x1C1D JUMP JUMPDEST PUSH2 0x3B0 PUSH2 0x16F SLOAD DUP2 JUMP JUMPDEST PUSH2 0x3B0 PUSH2 0x170 SLOAD DUP2 JUMP JUMPDEST PUSH2 0x3B0 PUSH2 0x182 SLOAD DUP2 JUMP JUMPDEST PUSH2 0x3B0 PUSH2 0x16B SLOAD DUP2 JUMP JUMPDEST PUSH2 0x5FD PUSH2 0x7F7 CALLDATASIZE PUSH1 0x4 PUSH2 0x4B5A JUMP JUMPDEST PUSH2 0x1D0D JUMP JUMPDEST PUSH2 0x3A6 PUSH2 0x80A CALLDATASIZE PUSH1 0x4 PUSH2 0x49F5 JUMP JUMPDEST PUSH2 0x1DB3 JUMP JUMPDEST PUSH2 0x3B0 PUSH2 0x1EC1 JUMP JUMPDEST PUSH2 0x5FD PUSH2 0x825 CALLDATASIZE PUSH1 0x4 PUSH2 0x4BAC JUMP JUMPDEST PUSH2 0x1ED6 JUMP JUMPDEST PUSH2 0x3B0 PUSH2 0x173 SLOAD DUP2 JUMP JUMPDEST PUSH2 0x3B0 PUSH2 0x17C SLOAD DUP2 JUMP JUMPDEST PUSH2 0x3B0 PUSH2 0x1EE6 JUMP JUMPDEST PUSH2 0x3B0 PUSH1 0x1 SLOAD DUP2 JUMP JUMPDEST PUSH2 0x3B0 PUSH2 0x85D CALLDATASIZE PUSH1 0x4 PUSH2 0x4BAC JUMP JUMPDEST PUSH2 0x1EFA JUMP JUMPDEST PUSH1 0x40 MLOAD PUSH4 0x24745215 PUSH1 0xE2 SHL DUP2 MSTORE PUSH1 0x0 DUP1 MLOAD PUSH1 0x20 PUSH2 0x500E DUP4 CODECOPY DUP2 MLOAD SWAP2 MSTORE PUSH1 0x4 DUP3 ADD MSTORE CALLER PUSH1 0x24 DUP3 ADD MSTORE PUSH32 0x0 PUSH1 0x1 PUSH1 0x1 PUSH1 0xA0 SHL SUB AND SWAP1 PUSH4 0x91D14854 SWAP1 PUSH1 0x44 ADD PUSH1 0x20 PUSH1 0x40 MLOAD DUP1 DUP4 SUB DUP2 DUP7 DUP1 EXTCODESIZE ISZERO DUP1 ISZERO PUSH2 0x8D5 JUMPI PUSH1 0x0 DUP1 REVERT JUMPDEST POP GAS STATICCALL ISZERO DUP1 ISZERO PUSH2 0x8E9 JUMPI RETURNDATASIZE PUSH1 0x0 DUP1 RETURNDATACOPY RETURNDATASIZE PUSH1 0x0 REVERT JUMPDEST POP POP POP POP PUSH1 0x40 MLOAD RETURNDATASIZE PUSH1 0x1F NOT PUSH1 0x1F DUP3 ADD AND DUP3 ADD DUP1 PUSH1 0x40 MSTORE POP DUP2 ADD SWAP1 PUSH2 0x90D SWAP2 SWAP1 PUSH2 0x4AE4 JUMP JUMPDEST PUSH2 0x950 JUMPI PUSH1 0x40 MLOAD PUSH3 0x461BCD PUSH1 0xE5 SHL DUP2 MSTORE PUSH1 0x20 PUSH1 0x4 DUP3 ADD MSTORE PUSH1 0xF PUSH1 0x24 DUP3 ADD MSTORE PUSH15 0x27AB262B189D10B3B7BB32B93737B9 PUSH1 0x89 SHL PUSH1 0x44 DUP3 ADD MSTORE PUSH1 0x64 ADD JUMPDEST PUSH1 0x40 MLOAD DUP1 SWAP2 SUB SWAP1 REVERT JUMPDEST PUSH2 0x16B SWAP6 SWAP1 SWAP6 SSTORE PUSH2 0x16C SWAP4 SWAP1 SWAP4 SSTORE PUSH2 0x16A SWAP2 SWAP1 SWAP2 SSTORE PUSH2 0x171 SSTORE PUSH2 0x170 SSTORE PUSH2 0x16F SSTORE JUMP JUMPDEST PUSH1 0x0 PUSH2 0x97D PUSH2 0x16F4 JUMP JUMPDEST POP SWAP3 SWAP6 SWAP5 POP POP POP POP POP JUMP JUMPDEST CALLER PUSH1 0x0 SWAP1 DUP2 MSTORE PUSH2 0x184 PUSH1 0x20 MSTORE PUSH1 0x40 DUP2 KECCAK256 SLOAD DUP2 SWAP1 DUP2 SWAP1 DUP2 SWAP1 DUP2 SWAP1 DUP2 SWAP1 DUP2 SWAP1 PUSH1 0xFF AND PUSH2 0x9E8 JUMPI PUSH1 0x40 MLOAD PUSH3 0x461BCD PUSH1 0xE5 SHL DUP2 MSTORE PUSH1 0x20 PUSH1 0x4 DUP3 ADD MSTORE PUSH1 0x11 PUSH1 0x24 DUP3 ADD MSTORE PUSH17 0x13D593158C4E8858DBDB1B185D195C985B PUSH1 0x7A SHL PUSH1 0x44 DUP3 ADD MSTORE PUSH1 0x64 ADD PUSH2 0x947 JUMP JUMPDEST PUSH2 0x9F0 PUSH2 0x2789 JUMP JUMPDEST PUSH2 0x180 SLOAD SWAP3 POP SWAP1 POP PUSH1 0x0 PUSH2 0xA04 DUP10 DUP12 PUSH2 0x4E36 JUMP JUMPDEST SWAP1 POP PUSH1 0x0 DUP1 PUSH2 0xA13 DUP14 DUP5 PUSH2 0x2846 JUMP JUMPDEST SWAP2 POP SWAP2 POP PUSH2 0xAB2 PUSH32 0x0 PUSH1 0x1 PUSH1 0x1 PUSH1 0xA0 SHL SUB AND PUSH4 0xDDCA3F43 PUSH1 0x40 MLOAD DUP2 PUSH4 0xFFFFFFFF AND PUSH1 0xE0 SHL DUP2 MSTORE PUSH1 0x4 ADD PUSH1 0x20 PUSH1 0x40 MLOAD DUP1 DUP4 SUB DUP2 DUP7 DUP1 EXTCODESIZE ISZERO DUP1 ISZERO PUSH2 0xA73 JUMPI PUSH1 0x0 DUP1 REVERT JUMPDEST POP GAS STATICCALL ISZERO DUP1 ISZERO PUSH2 0xA87 JUMPI RETURNDATASIZE PUSH1 0x0 DUP1 RETURNDATACOPY RETURNDATASIZE PUSH1 0x0 REVERT JUMPDEST POP POP POP POP PUSH1 0x40 MLOAD RETURNDATASIZE PUSH1 0x1F NOT PUSH1 0x1F DUP3 ADD AND DUP3 ADD DUP1 PUSH1 0x40 MSTORE POP DUP2 ADD SWAP1 PUSH2 0xAAB SWAP2 SWAP1 PUSH2 0x4BC5 JUMP JUMPDEST DUP5 SWAP1 PUSH2 0x2898 JUMP JUMPDEST SWAP7 POP DUP2 SWAP6 POP DUP7 DUP7 PUSH6 0x5AF3107A4000 PUSH2 0xACA SWAP2 SWAP1 PUSH2 0x4DA6 JUMP JUMPDEST PUSH2 0xAD4 SWAP2 SWAP1 PUSH2 0x4DA6 JUMP JUMPDEST DUP13 LT ISZERO PUSH2 0xB16 JUMPI PUSH1 0x40 MLOAD PUSH3 0x461BCD PUSH1 0xE5 SHL DUP2 MSTORE PUSH1 0x20 PUSH1 0x4 DUP3 ADD MSTORE PUSH1 0x10 PUSH1 0x24 DUP3 ADD MSTORE PUSH16 0x27AB262B189D31B7B63630BA1E36B4B7 PUSH1 0x81 SHL PUSH1 0x44 DUP3 ADD MSTORE PUSH1 0x64 ADD PUSH2 0x947 JUMP JUMPDEST DUP7 PUSH2 0xB21 DUP4 DUP15 PUSH2 0x4ECD JUMP JUMPDEST PUSH2 0xB2B SWAP2 SWAP1 PUSH2 0x4ECD JUMP JUMPDEST SWAP9 POP PUSH2 0xB37 DUP12 DUP11 PUSH2 0x4E36 JUMP JUMPDEST SWAP10 POP PUSH2 0xB43 DUP10 DUP12 PUSH2 0x4ECD JUMP JUMPDEST SWAP8 POP PUSH2 0xB50 DUP14 DUP12 DUP4 PUSH2 0x28E2 JUMP JUMPDEST POP POP POP SWAP4 SWAP8 POP SWAP4 SWAP8 POP SWAP4 SWAP8 SWAP1 SWAP5 POP JUMP JUMPDEST CALLER PUSH1 0x0 SWAP1 DUP2 MSTORE PUSH2 0x184 PUSH1 0x20 MSTORE PUSH1 0x40 DUP2 KECCAK256 SLOAD DUP2 SWAP1 DUP2 SWAP1 DUP2 SWAP1 PUSH1 0xFF AND PUSH2 0xBBA JUMPI PUSH1 0x40 MLOAD PUSH3 0x461BCD PUSH1 0xE5 SHL DUP2 MSTORE PUSH1 0x20 PUSH1 0x4 DUP3 ADD MSTORE PUSH1 0x11 PUSH1 0x24 DUP3 ADD MSTORE PUSH17 0x13D593158C4E8858DBDB1B185D195C985B PUSH1 0x7A SHL PUSH1 0x44 DUP3 ADD MSTORE PUSH1 0x64 ADD PUSH2 0x947 JUMP JUMPDEST PUSH2 0xBC2 PUSH2 0x2979 JUMP JUMPDEST PUSH2 0x180 SLOAD SWAP1 DUP7 GT SWAP2 POP PUSH1 0x0 SWAP1 PUSH2 0xBDA SWAP1 PUSH1 0x1 SWAP1 PUSH2 0x4ECD JUMP JUMPDEST SWAP1 POP DUP1 DUP8 GT ISZERO PUSH2 0xC1D JUMPI PUSH1 0x40 MLOAD PUSH3 0x461BCD PUSH1 0xE5 SHL DUP2 MSTORE PUSH1 0x20 PUSH1 0x4 DUP3 ADD MSTORE PUSH1 0xE PUSH1 0x24 DUP3 ADD MSTORE PUSH14 0x13D593158C4E885CD95D1D1B1959 PUSH1 0x92 SHL PUSH1 0x44 DUP3 ADD MSTORE PUSH1 0x64 ADD PUSH2 0x947 JUMP JUMPDEST PUSH1 0x0 PUSH2 0x180 DUP9 DUP2 SLOAD DUP2 LT PUSH2 0xC33 JUMPI PUSH2 0xC33 PUSH2 0x4FBE JUMP JUMPDEST SWAP1 PUSH1 0x0 MSTORE PUSH1 0x20 PUSH1 0x0 KECCAK256 SWAP1 PUSH1 0x3 MUL ADD SWAP1 POP PUSH1 0x0 PUSH2 0x180 DUP4 DUP2 SLOAD DUP2 LT PUSH2 0xC59 JUMPI PUSH2 0xC59 PUSH2 0x4FBE JUMP JUMPDEST SWAP1 PUSH1 0x0 MSTORE PUSH1 0x20 PUSH1 0x0 KECCAK256 SWAP1 PUSH1 0x3 MUL ADD SWAP1 POP DUP10 PUSH2 0xC83 JUMPI DUP2 SLOAD PUSH1 0x1 DUP3 ADD SLOAD PUSH2 0xC7E SWAP2 PUSH2 0x2A5E JUMP JUMPDEST PUSH2 0xCA1 JUMP JUMPDEST PUSH1 0x1 DUP3 ADD SLOAD DUP2 SLOAD PUSH2 0xCA1 SWAP2 PUSH2 0xC98 SWAP2 SWAP1 PUSH2 0x2AD7 JUMP JUMPDEST PUSH2 0x183 SLOAD PUSH2 0x2B29 JUMP JUMPDEST SWAP5 POP DUP4 ISZERO PUSH2 0xCD2 JUMPI PUSH2 0x179 SLOAD PUSH2 0x17A SLOAD DUP12 ISZERO PUSH2 0xCC4 JUMPI DUP2 SWAP9 POP DUP9 DUP3 SWAP9 POP POP PUSH2 0xCCB JUMP JUMPDEST SWAP8 POP DUP8 SWAP7 POP DUP7 JUMPDEST POP POP PUSH2 0xCF8 JUMP JUMPDEST DUP10 ISZERO PUSH2 0xCEA JUMPI PUSH2 0x175 SLOAD PUSH2 0x177 SLOAD SWAP1 SWAP8 POP SWAP6 POP PUSH2 0xCF8 JUMP JUMPDEST PUSH2 0x176 SLOAD PUSH2 0x178 SLOAD SWAP1 SWAP8 POP SWAP6 POP JUMPDEST POP POP POP SWAP4 POP SWAP4 POP SWAP4 POP SWAP4 JUMP JUMPDEST PUSH2 0xD28 PUSH1 0x40 MLOAD DUP1 PUSH1 0x60 ADD PUSH1 0x40 MSTORE DUP1 PUSH1 0x0 DUP2 MSTORE PUSH1 0x20 ADD PUSH1 0x0 DUP2 MSTORE PUSH1 0x20 ADD PUSH1 0x0 DUP2 MSTORE POP SWAP1 JUMP JUMPDEST PUSH1 0x40 DUP1 MLOAD PUSH1 0x3 DUP1 DUP3 MSTORE PUSH1 0x80 DUP3 ADD SWAP1 SWAP3 MSTORE PUSH1 0x0 SWAP2 PUSH1 0x20 DUP3 ADD PUSH1 0x60 DUP1 CALLDATASIZE DUP4 CALLDATACOPY ADD SWAP1 POP POP SWAP1 POP PUSH2 0xD75 PUSH32 0x0 DUP5 PUSH2 0x4DA6 JUMP JUMPDEST DUP2 PUSH1 0x0 DUP2 MLOAD DUP2 LT PUSH2 0xD88 JUMPI PUSH2 0xD88 PUSH2 0x4FBE JUMP JUMPDEST PUSH4 0xFFFFFFFF SWAP1 SWAP3 AND PUSH1 0x20 SWAP3 DUP4 MUL SWAP2 SWAP1 SWAP2 ADD SWAP1 SWAP2 ADD MSTORE PUSH2 0xDC7 PUSH32 0x0 DUP5 PUSH2 0x4DA6 JUMP JUMPDEST DUP2 PUSH1 0x1 DUP2 MLOAD DUP2 LT PUSH2 0xDDA JUMPI PUSH2 0xDDA PUSH2 0x4FBE JUMP JUMPDEST PUSH1 0x20 MUL PUSH1 0x20 ADD ADD SWAP1 PUSH4 0xFFFFFFFF AND SWAP1 DUP2 PUSH4 0xFFFFFFFF AND DUP2 MSTORE POP POP DUP3 DUP2 PUSH1 0x2 DUP2 MLOAD DUP2 LT PUSH2 0xE08 JUMPI PUSH2 0xE08 PUSH2 0x4FBE JUMP JUMPDEST PUSH4 0xFFFFFFFF SWAP1 SWAP3 AND PUSH1 0x20 SWAP3 DUP4 MUL SWAP2 SWAP1 SWAP2 ADD SWAP1 SWAP2 ADD MSTORE PUSH1 0x40 MLOAD PUSH4 0x883BDBFD PUSH1 0xE0 SHL DUP2 MSTORE PUSH1 0x0 SWAP1 PUSH1 0x1 PUSH1 0x1 PUSH1 0xA0 SHL SUB PUSH32 0x0 AND SWAP1 PUSH4 0x883BDBFD SWAP1 PUSH2 0xE6C SWAP1 DUP6 SWAP1 PUSH1 0x4 ADD PUSH2 0x4CE1 JUMP JUMPDEST PUSH1 0x0 PUSH1 0x40 MLOAD DUP1 DUP4 SUB DUP2 DUP7 DUP1 EXTCODESIZE ISZERO DUP1 ISZERO PUSH2 0xE84 JUMPI PUSH1 0x0 DUP1 REVERT JUMPDEST POP GAS STATICCALL ISZERO DUP1 ISZERO PUSH2 0xE98 JUMPI RETURNDATASIZE PUSH1 0x0 DUP1 RETURNDATACOPY RETURNDATASIZE PUSH1 0x0 REVERT JUMPDEST POP POP POP POP PUSH1 0x40 MLOAD RETURNDATASIZE PUSH1 0x0 DUP3 RETURNDATACOPY PUSH1 0x1F RETURNDATASIZE SWAP1 DUP2 ADD PUSH1 0x1F NOT AND DUP3 ADD PUSH1 0x40 MSTORE PUSH2 0xEC0 SWAP2 SWAP1 DUP2 ADD SWAP1 PUSH2 0x4A12 JUMP JUMPDEST POP SWAP1 POP PUSH1 0x0 PUSH2 0xF9E PUSH32 0x0 PUSH1 0x3 SIGNEXTEND DUP4 PUSH1 0x0 DUP2 MLOAD DUP2 LT PUSH2 0xEFF JUMPI PUSH2 0xEFF PUSH2 0x4FBE JUMP JUMPDEST PUSH1 0x20 MUL PUSH1 0x20 ADD ADD MLOAD DUP5 PUSH1 0x2 DUP2 MLOAD DUP2 LT PUSH2 0xF1A JUMPI PUSH2 0xF1A PUSH2 0x4FBE JUMP JUMPDEST PUSH1 0x20 MUL PUSH1 0x20 ADD ADD MLOAD PUSH2 0xF2C SWAP2 SWAP1 PUSH2 0x4E55 JUMP JUMPDEST PUSH2 0xF36 SWAP2 SWAP1 PUSH2 0x4DBE JUMP JUMPDEST PUSH32 0x0 PUSH32 0x0 PUSH32 0x0 PUSH2 0x20EB JUMP JUMPDEST SWAP1 POP PUSH1 0x0 PUSH2 0xFF7 PUSH32 0x0 PUSH1 0x3 SIGNEXTEND DUP5 PUSH1 0x1 DUP2 MLOAD DUP2 LT PUSH2 0xFDC JUMPI PUSH2 0xFDC PUSH2 0x4FBE JUMP JUMPDEST PUSH1 0x20 MUL PUSH1 0x20 ADD ADD MLOAD DUP6 PUSH1 0x2 DUP2 MLOAD DUP2 LT PUSH2 0xF1A JUMPI PUSH2 0xF1A PUSH2 0x4FBE JUMP JUMPDEST SWAP1 POP PUSH2 0x1003 DUP2 DUP4 PUSH2 0x2B3F JUMP JUMPDEST SWAP7 SWAP6 POP POP POP POP POP POP JUMP JUMPDEST PUSH1 0x0 PUSH2 0x1017 PUSH2 0x16F4 JUMP JUMPDEST POP SWAP2 SWAP6 SWAP5 POP POP POP POP POP JUMP JUMPDEST PUSH2 0x1046 PUSH1 0x40 MLOAD DUP1 PUSH1 0x60 ADD PUSH1 0x40 MSTORE DUP1 PUSH1 0x0 DUP2 MSTORE PUSH1 0x20 ADD PUSH1 0x0 DUP2 MSTORE PUSH1 0x20 ADD PUSH1 0x0 DUP2 MSTORE POP SWAP1 JUMP JUMPDEST PUSH2 0x180 SLOAD DUP1 DUP4 LT DUP1 PUSH2 0x1064 JUMPI POP DUP1 DUP4 EQ DUP1 ISZERO PUSH2 0x1064 JUMPI POP TIMESTAMP PUSH2 0x17E SLOAD LT JUMPDEST PUSH2 0x10A1 JUMPI PUSH1 0x40 MLOAD PUSH3 0x461BCD PUSH1 0xE5 SHL DUP2 MSTORE PUSH1 0x20 PUSH1 0x4 DUP3 ADD MSTORE PUSH1 0xE PUSH1 0x24 DUP3 ADD MSTORE PUSH14 0x13D593158C4E885CD95D1D1B1959 PUSH1 0x92 SHL PUSH1 0x44 DUP3 ADD MSTORE PUSH1 0x64 ADD PUSH2 0x947 JUMP JUMPDEST DUP1 DUP4 EQ ISZERO PUSH2 0x10C2 JUMPI PUSH2 0x10BB PUSH2 0x17E SLOAD TIMESTAMP PUSH2 0x4A2 SWAP2 SWAP1 PUSH2 0x4ECD JUMP JUMPDEST SWAP2 POP PUSH2 0x1110 JUMP JUMPDEST PUSH2 0x180 DUP4 DUP2 SLOAD DUP2 LT PUSH2 0x10D6 JUMPI PUSH2 0x10D6 PUSH2 0x4FBE JUMP JUMPDEST SWAP1 PUSH1 0x0 MSTORE PUSH1 0x20 PUSH1 0x0 KECCAK256 SWAP1 PUSH1 0x3 MUL ADD PUSH1 0x40 MLOAD DUP1 PUSH1 0x60 ADD PUSH1 0x40 MSTORE SWAP1 DUP2 PUSH1 0x0 DUP3 ADD SLOAD DUP2 MSTORE PUSH1 0x20 ADD PUSH1 0x1 DUP3 ADD SLOAD DUP2 MSTORE PUSH1 0x20 ADD PUSH1 0x2 DUP3 ADD SLOAD DUP2 MSTORE POP POP SWAP2 POP JUMPDEST POP SWAP2 SWAP1 POP JUMP JUMPDEST PUSH1 0x0 PUSH2 0x1003 PUSH2 0x16F4 JUMP JUMPDEST PUSH1 0x0 DUP1 PUSH1 0x0 DUP1 PUSH1 0x0 DUP1 PUSH1 0x0 PUSH2 0x113C TIMESTAMP PUSH2 0x17F SLOAD PUSH2 0x17E SLOAD PUSH2 0x1C1D JUMP JUMPDEST SWAP6 SWAP14 SWAP5 SWAP13 POP SWAP3 SWAP11 POP SWAP1 SWAP9 POP SWAP7 POP SWAP5 POP SWAP1 SWAP3 POP SWAP1 POP JUMP JUMPDEST PUSH1 0x40 MLOAD PUSH4 0x24745215 PUSH1 0xE2 SHL DUP2 MSTORE PUSH1 0x0 DUP1 MLOAD PUSH1 0x20 PUSH2 0x500E DUP4 CODECOPY DUP2 MLOAD SWAP2 MSTORE PUSH1 0x4 DUP3 ADD MSTORE CALLER PUSH1 0x24 DUP3 ADD MSTORE PUSH32 0x0 PUSH1 0x1 PUSH1 0x1 PUSH1 0xA0 SHL SUB AND SWAP1 PUSH4 0x91D14854 SWAP1 PUSH1 0x44 ADD PUSH1 0x20 PUSH1 0x40 MLOAD DUP1 DUP4 SUB DUP2 DUP7 DUP1 EXTCODESIZE ISZERO DUP1 ISZERO PUSH2 0x11C5 JUMPI PUSH1 0x0 DUP1 REVERT JUMPDEST POP GAS STATICCALL ISZERO DUP1 ISZERO PUSH2 0x11D9 JUMPI RETURNDATASIZE PUSH1 0x0 DUP1 RETURNDATACOPY RETURNDATASIZE PUSH1 0x0 REVERT JUMPDEST POP POP POP POP PUSH1 0x40 MLOAD RETURNDATASIZE PUSH1 0x1F NOT PUSH1 0x1F DUP3 ADD AND DUP3 ADD DUP1 PUSH1 0x40 MSTORE POP DUP2 ADD SWAP1 PUSH2 0x11FD SWAP2 SWAP1 PUSH2 0x4AE4 JUMP JUMPDEST PUSH2 0x123B JUMPI PUSH1 0x40 MLOAD PUSH3 0x461BCD PUSH1 0xE5 SHL DUP2 MSTORE PUSH1 0x20 PUSH1 0x4 DUP3 ADD MSTORE PUSH1 0xF PUSH1 0x24 DUP3 ADD MSTORE PUSH15 0x27AB262B189D10B3B7BB32B93737B9 PUSH1 0x89 SHL PUSH1 0x44 DUP3 ADD MSTORE PUSH1 0x64 ADD PUSH2 0x947 JUMP JUMPDEST DUP1 PUSH8 0xDE0B6B3A7640000 LT PUSH2 0x1292 JUMPI PUSH1 0x40 MLOAD PUSH3 0x461BCD PUSH1 0xE5 SHL DUP2 MSTORE PUSH1 0x20 PUSH1 0x4 DUP3 ADD MSTORE PUSH1 0x11 PUSH1 0x24 DUP3 ADD MSTORE PUSH32 0x4F564C56313A2170726963654672616D65000000000000000000000000000000 PUSH1 0x44 DUP3 ADD MSTORE PUSH1 0x64 ADD PUSH2 0x947 JUMP JUMPDEST PUSH2 0x183 SSTORE JUMP JUMPDEST PUSH1 0xB6 DUP2 PUSH1 0x3C DUP2 LT PUSH2 0x12A8 JUMPI PUSH1 0x0 DUP1 REVERT JUMPDEST PUSH1 0x3 MUL ADD DUP1 SLOAD PUSH1 0x1 DUP3 ADD SLOAD PUSH1 0x2 SWAP1 SWAP3 ADD SLOAD SWAP1 SWAP3 POP DUP4 JUMP JUMPDEST PUSH1 0x0 PUSH2 0x12C9 PUSH2 0x16F4 JUMP JUMPDEST POP SWAP4 SWAP6 SWAP5 POP POP POP POP POP JUMP JUMPDEST PUSH1 0x40 MLOAD PUSH4 0x24745215 PUSH1 0xE2 SHL DUP2 MSTORE PUSH1 0x0 DUP1 MLOAD PUSH1 0x20 PUSH2 0x500E DUP4 CODECOPY DUP2 MLOAD SWAP2 MSTORE PUSH1 0x4 DUP3 ADD MSTORE CALLER PUSH1 0x24 DUP3 ADD MSTORE PUSH32 0x0 PUSH1 0x1 PUSH1 0x1 PUSH1 0xA0 SHL SUB AND SWAP1 PUSH4 0x91D14854 SWAP1 PUSH1 0x44 ADD PUSH1 0x20 PUSH1 0x40 MLOAD DUP1 DUP4 SUB DUP2 DUP7 DUP1 EXTCODESIZE ISZERO DUP1 ISZERO PUSH2 0x1347 JUMPI PUSH1 0x0 DUP1 REVERT JUMPDEST POP GAS STATICCALL ISZERO DUP1 ISZERO PUSH2 0x135B JUMPI RETURNDATASIZE PUSH1 0x0 DUP1 RETURNDATACOPY RETURNDATASIZE PUSH1 0x0 REVERT JUMPDEST POP POP POP POP PUSH1 0x40 MLOAD RETURNDATASIZE PUSH1 0x1F NOT PUSH1 0x1F DUP3 ADD AND DUP3 ADD DUP1 PUSH1 0x40 MSTORE POP DUP2 ADD SWAP1 PUSH2 0x137F SWAP2 SWAP1 PUSH2 0x4AE4 JUMP JUMPDEST PUSH2 0x13BD JUMPI PUSH1 0x40 MLOAD PUSH3 0x461BCD PUSH1 0xE5 SHL DUP2 MSTORE PUSH1 0x20 PUSH1 0x4 DUP3 ADD MSTORE PUSH1 0xF PUSH1 0x24 DUP3 ADD MSTORE PUSH15 0x27AB262B189D10B3B7BB32B93737B9 PUSH1 0x89 SHL PUSH1 0x44 DUP3 ADD MSTORE PUSH1 0x64 ADD PUSH2 0x947 JUMP JUMPDEST PUSH2 0x17B SSTORE JUMP JUMPDEST PUSH1 0x40 MLOAD PUSH4 0x24745215 PUSH1 0xE2 SHL DUP2 MSTORE PUSH1 0x0 DUP1 MLOAD PUSH1 0x20 PUSH2 0x500E DUP4 CODECOPY DUP2 MLOAD SWAP2 MSTORE PUSH1 0x4 DUP3 ADD MSTORE CALLER PUSH1 0x24 DUP3 ADD MSTORE PUSH32 0x0 PUSH1 0x1 PUSH1 0x1 PUSH1 0xA0 SHL SUB AND SWAP1 PUSH4 0x91D14854 SWAP1 PUSH1 0x44 ADD PUSH1 0x20 PUSH1 0x40 MLOAD DUP1 DUP4 SUB DUP2 DUP7 DUP1 EXTCODESIZE ISZERO DUP1 ISZERO PUSH2 0x1436 JUMPI PUSH1 0x0 DUP1 REVERT JUMPDEST POP GAS STATICCALL ISZERO DUP1 ISZERO PUSH2 0x144A JUMPI RETURNDATASIZE PUSH1 0x0 DUP1 RETURNDATACOPY RETURNDATASIZE PUSH1 0x0 REVERT JUMPDEST POP POP POP POP PUSH1 0x40 MLOAD RETURNDATASIZE PUSH1 0x1F NOT PUSH1 0x1F DUP3 ADD AND DUP3 ADD DUP1 PUSH1 0x40 MSTORE POP DUP2 ADD SWAP1 PUSH2 0x146E SWAP2 SWAP1 PUSH2 0x4AE4 JUMP JUMPDEST PUSH2 0x14AC JUMPI PUSH1 0x40 MLOAD PUSH3 0x461BCD PUSH1 0xE5 SHL DUP2 MSTORE PUSH1 0x20 PUSH1 0x4 DUP3 ADD MSTORE PUSH1 0xF PUSH1 0x24 DUP3 ADD MSTORE PUSH15 0x27AB262B189D10B3B7BB32B93737B9 PUSH1 0x89 SHL PUSH1 0x44 DUP3 ADD MSTORE PUSH1 0x64 ADD PUSH2 0x947 JUMP JUMPDEST PUSH1 0x1 DUP3 LT ISZERO PUSH2 0x14ED JUMPI PUSH1 0x40 MLOAD PUSH3 0x461BCD PUSH1 0xE5 SHL DUP2 MSTORE PUSH1 0x20 PUSH1 0x4 DUP3 ADD MSTORE PUSH1 0xD PUSH1 0x24 DUP3 ADD MSTORE PUSH13 0x4F564C56313A21757064617465 PUSH1 0x98 SHL PUSH1 0x44 DUP3 ADD MSTORE PUSH1 0x64 ADD PUSH2 0x947 JUMP JUMPDEST DUP1 DUP3 GT ISZERO PUSH2 0x153D JUMPI PUSH1 0x40 MLOAD PUSH3 0x461BCD PUSH1 0xE5 SHL DUP2 MSTORE PUSH1 0x20 PUSH1 0x4 DUP3 ADD MSTORE PUSH1 0x15 PUSH1 0x24 DUP3 ADD MSTORE PUSH32 0x4F564C56313A7570646174653E636F6D706F756E640000000000000000000000 PUSH1 0x44 DUP3 ADD MSTORE PUSH1 0x64 ADD PUSH2 0x947 JUMP JUMPDEST PUSH2 0x17D SWAP2 SWAP1 SWAP2 SSTORE PUSH2 0x173 SSTORE JUMP JUMPDEST PUSH1 0x40 MLOAD PUSH4 0x24745215 PUSH1 0xE2 SHL DUP2 MSTORE PUSH1 0x0 DUP1 MLOAD PUSH1 0x20 PUSH2 0x500E DUP4 CODECOPY DUP2 MLOAD SWAP2 MSTORE PUSH1 0x4 DUP3 ADD MSTORE CALLER PUSH1 0x24 DUP3 ADD MSTORE PUSH32 0x0 PUSH1 0x1 PUSH1 0x1 PUSH1 0xA0 SHL SUB AND SWAP1 PUSH4 0x91D14854 SWAP1 PUSH1 0x44 ADD PUSH1 0x20 PUSH1 0x40 MLOAD DUP1 DUP4 SUB DUP2 DUP7 DUP1 EXTCODESIZE ISZERO DUP1 ISZERO PUSH2 0x15BD JUMPI PUSH1 0x0 DUP1 REVERT JUMPDEST POP GAS STATICCALL ISZERO DUP1 ISZERO PUSH2 0x15D1 JUMPI RETURNDATASIZE PUSH1 0x0 DUP1 RETURNDATACOPY RETURNDATASIZE PUSH1 0x0 REVERT JUMPDEST POP POP POP POP PUSH1 0x40 MLOAD RETURNDATASIZE PUSH1 0x1F NOT PUSH1 0x1F DUP3 ADD AND DUP3 ADD DUP1 PUSH1 0x40 MSTORE POP DUP2 ADD SWAP1 PUSH2 0x15F5 SWAP2 SWAP1 PUSH2 0x4AE4 JUMP JUMPDEST PUSH2 0x1633 JUMPI PUSH1 0x40 MLOAD PUSH3 0x461BCD PUSH1 0xE5 SHL DUP2 MSTORE PUSH1 0x20 PUSH1 0x4 DUP3 ADD MSTORE PUSH1 0xF PUSH1 0x24 DUP3 ADD MSTORE PUSH15 0x27AB262B189D10B3B7BB32B93737B9 PUSH1 0x89 SHL PUSH1 0x44 DUP3 ADD MSTORE PUSH1 0x64 ADD PUSH2 0x947 JUMP JUMPDEST PUSH32 0x0 PUSH1 0x1 PUSH1 0x1 PUSH1 0xA0 SHL SUB AND PUSH4 0xB29FA9C3 PUSH1 0x40 MLOAD DUP2 PUSH4 0xFFFFFFFF AND PUSH1 0xE0 SHL DUP2 MSTORE PUSH1 0x4 ADD PUSH1 0x20 PUSH1 0x40 MLOAD DUP1 DUP4 SUB DUP2 DUP7 DUP1 EXTCODESIZE ISZERO DUP1 ISZERO PUSH2 0x168C JUMPI PUSH1 0x0 DUP1 REVERT JUMPDEST POP GAS STATICCALL ISZERO DUP1 ISZERO PUSH2 0x16A0 JUMPI RETURNDATASIZE PUSH1 0x0 DUP1 RETURNDATACOPY RETURNDATASIZE PUSH1 0x0 REVERT JUMPDEST POP POP POP POP PUSH1 0x40 MLOAD RETURNDATASIZE PUSH1 0x1F NOT PUSH1 0x1F DUP3 ADD AND DUP3 ADD DUP1 PUSH1 0x40 MSTORE POP DUP2 ADD SWAP1 PUSH2 0x16C4 SWAP2 SWAP1 PUSH2 0x4B8F JUMP JUMPDEST PUSH2 0x181 DUP1 SLOAD PUSH20 0xFFFFFFFFFFFFFFFFFFFFFFFFFFFFFFFFFFFFFFFF NOT AND PUSH1 0x1 PUSH1 0x1 PUSH1 0xA0 SHL SUB SWAP3 SWAP1 SWAP3 AND SWAP2 SWAP1 SWAP2 OR SWAP1 SSTORE JUMP JUMPDEST PUSH1 0x0 DUP1 PUSH1 0x0 DUP1 PUSH1 0x0 DUP1 PUSH1 0x0 PUSH2 0x1710 TIMESTAMP PUSH2 0x17F SLOAD PUSH2 0x17E SLOAD PUSH2 0x1C1D JUMP JUMPDEST POP POP SWAP5 POP POP POP POP POP PUSH2 0x1721 DUP2 PUSH2 0x2BE8 JUMP JUMPDEST SWAP5 SWAP13 SWAP4 SWAP12 POP SWAP2 SWAP10 POP SWAP8 POP SWAP6 POP SWAP1 SWAP4 POP SWAP2 POP POP JUMP JUMPDEST PUSH2 0x173D PUSH2 0x2C7C JUMP JUMPDEST POP JUMP JUMPDEST CALLER PUSH1 0x0 SWAP1 DUP2 MSTORE PUSH2 0x184 PUSH1 0x20 MSTORE PUSH1 0x40 SWAP1 KECCAK256 SLOAD PUSH1 0xFF AND PUSH2 0x1794 JUMPI PUSH1 0x40 MLOAD PUSH3 0x461BCD PUSH1 0xE5 SHL DUP2 MSTORE PUSH1 0x20 PUSH1 0x4 DUP3 ADD MSTORE PUSH1 0x11 PUSH1 0x24 DUP3 ADD MSTORE PUSH17 0x13D593158C4E8858DBDB1B185D195C985B PUSH1 0x7A SHL PUSH1 0x44 DUP3 ADD MSTORE PUSH1 0x64 ADD PUSH2 0x947 JUMP JUMPDEST PUSH2 0x179E DUP3 DUP3 PUSH2 0x2D29 JUMP JUMPDEST DUP5 ISZERO PUSH2 0x17DB JUMPI DUP6 ISZERO PUSH2 0x17C8 JUMPI DUP4 PUSH2 0x179 PUSH1 0x0 DUP3 DUP3 SLOAD PUSH2 0x17BD SWAP2 SWAP1 PUSH2 0x4ECD JUMP JUMPDEST SWAP1 SWAP2 SSTORE POP PUSH2 0x184C SWAP1 POP JUMP JUMPDEST DUP4 PUSH2 0x17A PUSH1 0x0 DUP3 DUP3 SLOAD PUSH2 0x17BD SWAP2 SWAP1 PUSH2 0x4ECD JUMP JUMPDEST DUP6 ISZERO PUSH2 0x1819 JUMPI DUP4 PUSH2 0x175 PUSH1 0x0 DUP3 DUP3 SLOAD PUSH2 0x17F4 SWAP2 SWAP1 PUSH2 0x4ECD JUMP JUMPDEST SWAP3 POP POP DUP2 SWAP1 SSTORE DUP4 PUSH2 0x177 PUSH1 0x0 DUP3 DUP3 SLOAD PUSH2 0x180D SWAP2 SWAP1 PUSH2 0x4ECD JUMP JUMPDEST SWAP1 SWAP2 SSTORE POP PUSH2 0x184C SWAP2 POP POP JUMP JUMPDEST DUP4 PUSH2 0x176 PUSH1 0x0 DUP3 DUP3 SLOAD PUSH2 0x182C SWAP2 SWAP1 PUSH2 0x4ECD JUMP JUMPDEST SWAP3 POP POP DUP2 SWAP1 SSTORE DUP4 PUSH2 0x178 PUSH1 0x0 DUP3 DUP3 SLOAD PUSH2 0x1845 SWAP2 SWAP1 PUSH2 0x4ECD JUMP JUMPDEST SWAP1 SWAP2 SSTORE POP POP POP JUMPDEST POP POP POP POP POP POP JUMP JUMPDEST PUSH1 0x40 MLOAD PUSH4 0x24745215 PUSH1 0xE2 SHL DUP2 MSTORE PUSH1 0x0 DUP1 MLOAD PUSH1 0x20 PUSH2 0x500E DUP4 CODECOPY DUP2 MLOAD SWAP2 MSTORE PUSH1 0x4 DUP3 ADD MSTORE CALLER PUSH1 0x24 DUP3 ADD MSTORE PUSH32 0x0 PUSH1 0x1 PUSH1 0x1 PUSH1 0xA0 SHL SUB AND SWAP1 PUSH4 0x91D14854 SWAP1 PUSH1 0x44 ADD PUSH1 0x20 PUSH1 0x40 MLOAD DUP1 DUP4 SUB DUP2 DUP7 DUP1 EXTCODESIZE ISZERO DUP1 ISZERO PUSH2 0x18C7 JUMPI PUSH1 0x0 DUP1 REVERT JUMPDEST POP GAS STATICCALL ISZERO DUP1 ISZERO PUSH2 0x18DB JUMPI RETURNDATASIZE PUSH1 0x0 DUP1 RETURNDATACOPY RETURNDATASIZE PUSH1 0x0 REVERT JUMPDEST POP POP POP POP PUSH1 0x40 MLOAD RETURNDATASIZE PUSH1 0x1F NOT PUSH1 0x1F DUP3 ADD AND DUP3 ADD DUP1 PUSH1 0x40 MSTORE POP DUP2 ADD SWAP1 PUSH2 0x18FF SWAP2 SWAP1 PUSH2 0x4AE4 JUMP JUMPDEST PUSH2 0x193D JUMPI PUSH1 0x40 MLOAD PUSH3 0x461BCD PUSH1 0xE5 SHL DUP2 MSTORE PUSH1 0x20 PUSH1 0x4 DUP3 ADD MSTORE PUSH1 0xF PUSH1 0x24 DUP3 ADD MSTORE PUSH15 0x27AB262B189D10B3B7BB32B93737B9 PUSH1 0x89 SHL PUSH1 0x44 DUP3 ADD MSTORE PUSH1 0x64 ADD PUSH2 0x947 JUMP JUMPDEST PUSH2 0x17C SSTORE JUMP JUMPDEST PUSH1 0x0 DUP1 PUSH1 0x0 PUSH2 0x1950 PUSH2 0x2E4D JUMP JUMPDEST PUSH2 0x171 SLOAD SWAP2 SWAP4 POP SWAP2 POP DUP3 DUP3 GT ISZERO PUSH2 0x197D JUMPI PUSH2 0x1975 PUSH2 0x16A SLOAD PUSH2 0x1970 PUSH2 0x2EDD JUMP JUMPDEST PUSH2 0x2B29 JUMP JUMPDEST SWAP4 POP POP POP POP SWAP1 JUMP JUMPDEST PUSH2 0x1987 DUP3 DUP5 PUSH2 0x4ECD JUMP JUMPDEST SWAP3 POP PUSH2 0x1994 DUP2 PUSH1 0x2 PUSH2 0x4E36 JUMP JUMPDEST DUP4 GT ISZERO PUSH2 0x19A5 JUMPI PUSH1 0x0 SWAP4 POP POP POP POP SWAP1 JUMP JUMPDEST PUSH2 0x16A SLOAD PUSH1 0x0 SWAP1 PUSH2 0x19D2 SWAP1 PUSH2 0x19BA DUP7 DUP6 PUSH2 0x2AD7 JUMP JUMPDEST PUSH2 0x19CC SWAP1 PUSH8 0x1BC16D674EC80000 PUSH2 0x4ECD JUMP JUMPDEST SWAP1 PUSH2 0x2898 JUMP JUMPDEST SWAP1 POP PUSH2 0x19E0 DUP2 PUSH2 0x1970 PUSH2 0x2EDD JUMP JUMPDEST SWAP5 POP POP POP POP POP SWAP1 JUMP JUMPDEST PUSH1 0x40 MLOAD PUSH4 0x24745215 PUSH1 0xE2 SHL DUP2 MSTORE PUSH1 0x0 DUP1 MLOAD PUSH1 0x20 PUSH2 0x500E DUP4 CODECOPY DUP2 MLOAD SWAP2 MSTORE PUSH1 0x4 DUP3 ADD MSTORE CALLER PUSH1 0x24 DUP3 ADD MSTORE PUSH32 0x0 PUSH1 0x1 PUSH1 0x1 PUSH1 0xA0 SHL SUB AND SWAP1 PUSH4 0x91D14854 SWAP1 PUSH1 0x44 ADD PUSH1 0x20 PUSH1 0x40 MLOAD DUP1 DUP4 SUB DUP2 DUP7 DUP1 EXTCODESIZE ISZERO DUP1 ISZERO PUSH2 0x1A5C JUMPI PUSH1 0x0 DUP1 REVERT JUMPDEST POP GAS STATICCALL ISZERO DUP1 ISZERO PUSH2 0x1A70 JUMPI RETURNDATASIZE PUSH1 0x0 DUP1 RETURNDATACOPY RETURNDATASIZE PUSH1 0x0 REVERT JUMPDEST POP POP POP POP PUSH1 0x40 MLOAD RETURNDATASIZE PUSH1 0x1F NOT PUSH1 0x1F DUP3 ADD AND DUP3 ADD DUP1 PUSH1 0x40 MSTORE POP DUP2 ADD SWAP1 PUSH2 0x1A94 SWAP2 SWAP1 PUSH2 0x4AE4 JUMP JUMPDEST PUSH2 0x1AD2 JUMPI PUSH1 0x40 MLOAD PUSH3 0x461BCD PUSH1 0xE5 SHL DUP2 MSTORE PUSH1 0x20 PUSH1 0x4 DUP3 ADD MSTORE PUSH1 0xF PUSH1 0x24 DUP3 ADD MSTORE PUSH15 0x27AB262B189D10B3B7BB32B93737B9 PUSH1 0x89 SHL PUSH1 0x44 DUP3 ADD MSTORE PUSH1 0x64 ADD PUSH2 0x947 JUMP JUMPDEST PUSH1 0x1 PUSH1 0x1 PUSH1 0xA0 SHL SUB AND PUSH1 0x0 SWAP1 DUP2 MSTORE PUSH2 0x184 PUSH1 0x20 MSTORE PUSH1 0x40 SWAP1 KECCAK256 DUP1 SLOAD PUSH1 0xFF NOT AND SWAP1 SSTORE JUMP JUMPDEST PUSH1 0x40 MLOAD PUSH4 0x24745215 PUSH1 0xE2 SHL DUP2 MSTORE PUSH1 0x0 DUP1 MLOAD PUSH1 0x20 PUSH2 0x500E DUP4 CODECOPY DUP2 MLOAD SWAP2 MSTORE PUSH1 0x4 DUP3 ADD MSTORE CALLER PUSH1 0x24 DUP3 ADD MSTORE PUSH32 0x0 PUSH1 0x1 PUSH1 0x1 PUSH1 0xA0 SHL SUB AND SWAP1 PUSH4 0x91D14854 SWAP1 PUSH1 0x44 ADD PUSH1 0x20 PUSH1 0x40 MLOAD DUP1 DUP4 SUB DUP2 DUP7 DUP1 EXTCODESIZE ISZERO DUP1 ISZERO PUSH2 0x1B67 JUMPI PUSH1 0x0 DUP1 REVERT JUMPDEST POP GAS STATICCALL ISZERO DUP1 ISZERO PUSH2 0x1B7B JUMPI RETURNDATASIZE PUSH1 0x0 DUP1 RETURNDATACOPY RETURNDATASIZE PUSH1 0x0 REVERT JUMPDEST POP POP POP POP PUSH1 0x40 MLOAD RETURNDATASIZE PUSH1 0x1F NOT PUSH1 0x1F DUP3 ADD AND DUP3 ADD DUP1 PUSH1 0x40 MSTORE POP DUP2 ADD SWAP1 PUSH2 0x1B9F SWAP2 SWAP1 PUSH2 0x4AE4 JUMP JUMPDEST PUSH2 0x1BDD JUMPI PUSH1 0x40 MLOAD PUSH3 0x461BCD PUSH1 0xE5 SHL DUP2 MSTORE PUSH1 0x20 PUSH1 0x4 DUP3 ADD MSTORE PUSH1 0xF PUSH1 0x24 DUP3 ADD MSTORE PUSH15 0x27AB262B189D10B3B7BB32B93737B9 PUSH1 0x89 SHL PUSH1 0x44 DUP3 ADD MSTORE PUSH1 0x64 ADD PUSH2 0x947 JUMP JUMPDEST PUSH2 0x1BE6 DUP12 PUSH2 0x12D4 JUMP JUMPDEST PUSH2 0x1BEF DUP11 PUSH2 0x1152 JUMP JUMPDEST PUSH2 0x1BF8 DUP10 PUSH2 0x1854 JUMP JUMPDEST PUSH2 0x1C02 DUP9 DUP9 PUSH2 0x13C3 JUMP JUMPDEST PUSH2 0x1C10 DUP7 DUP7 DUP7 DUP7 DUP7 DUP7 PUSH2 0x862 JUMP JUMPDEST POP POP POP POP POP POP POP POP POP POP POP JUMP JUMPDEST PUSH1 0x0 DUP1 PUSH1 0x0 DUP1 PUSH1 0x0 DUP1 PUSH1 0x0 DUP1 PUSH2 0x17D SLOAD SWAP1 POP PUSH1 0x0 PUSH2 0x173 SLOAD SWAP1 POP PUSH1 0x0 PUSH2 0x174 SLOAD SWAP1 POP DUP13 DUP12 LT ISZERO PUSH2 0x1C7A JUMPI DUP3 PUSH2 0x1C52 DUP14 DUP14 PUSH2 0x4ECD JUMP JUMPDEST PUSH2 0x1C5C SWAP2 SWAP1 PUSH2 0x4E22 JUMP JUMPDEST SWAP10 POP DUP3 PUSH2 0x1C69 DUP13 DUP16 PUSH2 0x4ECD JUMP JUMPDEST PUSH2 0x1C73 SWAP2 SWAP1 PUSH2 0x4E22 JUMP JUMPDEST SWAP9 POP PUSH2 0x1C92 JUMP JUMPDEST DUP3 PUSH2 0x1C85 DUP14 DUP16 PUSH2 0x4ECD JUMP JUMPDEST PUSH2 0x1C8F SWAP2 SWAP1 PUSH2 0x4E22 JUMP JUMPDEST SWAP9 POP JUMPDEST DUP3 PUSH2 0x1C9D DUP11 DUP13 PUSH2 0x4DA6 JUMP JUMPDEST PUSH2 0x1CA7 SWAP2 SWAP1 PUSH2 0x4E36 JUMP JUMPDEST PUSH2 0x1CB1 SWAP1 DUP14 PUSH2 0x4DA6 JUMP JUMPDEST SWAP8 POP PUSH2 0x1CBD DUP4 DUP10 PUSH2 0x4DA6 JUMP JUMPDEST SWAP7 POP DUP2 PUSH2 0x174 SLOAD DUP15 PUSH2 0x1CCF SWAP2 SWAP1 PUSH2 0x4ECD JUMP JUMPDEST PUSH2 0x1CD9 SWAP2 SWAP1 PUSH2 0x4E22 JUMP JUMPDEST SWAP6 POP PUSH2 0x1CE5 DUP3 DUP8 PUSH2 0x4E36 JUMP JUMPDEST PUSH2 0x1CEF SWAP1 DUP3 PUSH2 0x4DA6 JUMP JUMPDEST SWAP5 POP PUSH2 0x1CFB DUP3 DUP7 PUSH2 0x4DA6 JUMP JUMPDEST SWAP4 POP POP POP POP SWAP4 SWAP8 POP SWAP4 SWAP8 POP SWAP4 SWAP8 SWAP1 SWAP5 POP JUMP JUMPDEST PUSH1 0x0 DUP1 PUSH1 0x0 DUP1 PUSH1 0x0 DUP1 PUSH1 0x0 PUSH2 0x1D29 TIMESTAMP PUSH2 0x17F SLOAD PUSH2 0x17E SLOAD PUSH2 0x1C1D JUMP JUMPDEST POP SWAP6 POP SWAP6 POP POP SWAP5 POP POP SWAP4 POP PUSH2 0x1D40 DUP11 DUP11 DUP7 DUP7 PUSH2 0x3320 JUMP JUMPDEST SWAP5 POP PUSH1 0x0 DUP1 PUSH1 0x0 DUP1 PUSH1 0x0 DUP1 PUSH2 0x1D54 DUP9 PUSH2 0x2BE8 JUMP JUMPDEST SWAP6 POP SWAP6 POP SWAP6 POP SWAP6 POP SWAP6 POP SWAP6 POP DUP7 DUP15 LT ISZERO PUSH2 0x1D88 JUMPI DUP16 ISZERO PUSH2 0x1D7B JUMPI DUP6 SWAP13 POP DUP13 DUP5 SWAP13 POP POP PUSH2 0x1DA0 JUMP JUMPDEST DUP5 SWAP13 POP DUP13 DUP4 SWAP13 POP POP PUSH2 0x1DA0 JUMP JUMPDEST DUP16 ISZERO PUSH2 0x1D99 JUMPI DUP2 SWAP12 POP DUP12 SWAP13 POP PUSH2 0x1DA0 JUMP JUMPDEST DUP1 SWAP12 POP DUP12 SWAP13 POP JUMPDEST POP POP POP POP POP POP POP POP POP POP SWAP4 POP SWAP4 POP SWAP4 SWAP1 POP JUMP JUMPDEST PUSH1 0x40 MLOAD PUSH4 0x24745215 PUSH1 0xE2 SHL DUP2 MSTORE PUSH1 0x0 DUP1 MLOAD PUSH1 0x20 PUSH2 0x500E DUP4 CODECOPY DUP2 MLOAD SWAP2 MSTORE PUSH1 0x4 DUP3 ADD MSTORE CALLER PUSH1 0x24 DUP3 ADD MSTORE PUSH32 0x0 PUSH1 0x1 PUSH1 0x1 PUSH1 0xA0 SHL SUB AND SWAP1 PUSH4 0x91D14854 SWAP1 PUSH1 0x44 ADD PUSH1 0x20 PUSH1 0x40 MLOAD DUP1 DUP4 SUB DUP2 DUP7 DUP1 EXTCODESIZE ISZERO DUP1 ISZERO PUSH2 0x1E26 JUMPI PUSH1 0x0 DUP1 REVERT JUMPDEST POP GAS STATICCALL ISZERO DUP1 ISZERO PUSH2 0x1E3A JUMPI RETURNDATASIZE PUSH1 0x0 DUP1 RETURNDATACOPY RETURNDATASIZE PUSH1 0x0 REVERT JUMPDEST POP POP POP POP PUSH1 0x40 MLOAD RETURNDATASIZE PUSH1 0x1F NOT PUSH1 0x1F DUP3 ADD AND DUP3 ADD DUP1 PUSH1 0x40 MSTORE POP DUP2 ADD SWAP1 PUSH2 0x1E5E SWAP2 SWAP1 PUSH2 0x4AE4 JUMP JUMPDEST PUSH2 0x1E9C JUMPI PUSH1 0x40 MLOAD PUSH3 0x461BCD PUSH1 0xE5 SHL DUP2 MSTORE PUSH1 0x20 PUSH1 0x4 DUP3 ADD MSTORE PUSH1 0xF PUSH1 0x24 DUP3 ADD MSTORE PUSH15 0x27AB262B189D10B3B7BB32B93737B9 PUSH1 0x89 SHL PUSH1 0x44 DUP3 ADD MSTORE PUSH1 0x64 ADD PUSH2 0x947 JUMP JUMPDEST PUSH1 0x1 PUSH1 0x1 PUSH1 0xA0 SHL SUB AND PUSH1 0x0 SWAP1 DUP2 MSTORE PUSH2 0x184 PUSH1 0x20 MSTORE PUSH1 0x40 SWAP1 KECCAK256 DUP1 SLOAD PUSH1 0xFF NOT AND PUSH1 0x1 OR SWAP1 SSTORE JUMP JUMPDEST PUSH1 0x0 PUSH2 0x1ECB PUSH2 0x16F4 JUMP JUMPDEST POP SWAP1 SWAP6 SWAP5 POP POP POP POP POP JUMP JUMPDEST PUSH1 0x2 DUP2 PUSH1 0x3C DUP2 LT PUSH2 0x12A8 JUMPI PUSH1 0x0 DUP1 REVERT JUMPDEST PUSH1 0x0 PUSH2 0x1EF0 PUSH2 0x16F4 JUMP JUMPDEST POP SWAP6 SWAP5 POP POP POP POP POP JUMP JUMPDEST PUSH2 0x16D DUP2 PUSH1 0x2 DUP2 LT PUSH2 0x1F0B JUMPI PUSH1 0x0 DUP1 REVERT JUMPDEST ADD SLOAD SWAP1 POP DUP2 JUMP JUMPDEST PUSH1 0x0 DUP1 PUSH2 0x1F1F DUP4 DUP6 PUSH2 0x4EE4 JUMP JUMPDEST SWAP1 POP PUSH4 0xFFFFFFFF DUP2 AND PUSH2 0x1F59 JUMPI PUSH1 0x40 MLOAD PUSH3 0x461BCD PUSH1 0xE5 SHL DUP2 MSTORE PUSH1 0x20 PUSH1 0x4 DUP3 ADD MSTORE PUSH1 0x2 PUSH1 0x24 DUP3 ADD MSTORE PUSH2 0x425 PUSH1 0xF4 SHL PUSH1 0x44 DUP3 ADD MSTORE PUSH1 0x64 ADD PUSH2 0x947 JUMP JUMPDEST PUSH1 0x40 DUP1 MLOAD PUSH1 0x2 DUP1 DUP3 MSTORE PUSH1 0x60 DUP3 ADD DUP4 MSTORE PUSH1 0x0 SWAP3 PUSH1 0x20 DUP4 ADD SWAP1 DUP1 CALLDATASIZE DUP4 CALLDATACOPY ADD SWAP1 POP POP SWAP1 POP DUP5 DUP2 PUSH1 0x0 DUP2 MLOAD DUP2 LT PUSH2 0x1F8E JUMPI PUSH2 0x1F8E PUSH2 0x4FBE JUMP JUMPDEST PUSH1 0x20 MUL PUSH1 0x20 ADD ADD SWAP1 PUSH4 0xFFFFFFFF AND SWAP1 DUP2 PUSH4 0xFFFFFFFF AND DUP2 MSTORE POP POP DUP4 DUP2 PUSH1 0x1 DUP2 MLOAD DUP2 LT PUSH2 0x1FBC JUMPI PUSH2 0x1FBC PUSH2 0x4FBE JUMP JUMPDEST PUSH4 0xFFFFFFFF SWAP1 SWAP3 AND PUSH1 0x20 SWAP3 DUP4 MUL SWAP2 SWAP1 SWAP2 ADD SWAP1 SWAP2 ADD MSTORE PUSH1 0x40 MLOAD PUSH4 0x883BDBFD PUSH1 0xE0 SHL DUP2 MSTORE PUSH1 0x0 SWAP1 PUSH1 0x1 PUSH1 0x1 PUSH1 0xA0 SHL SUB DUP9 AND SWAP1 PUSH4 0x883BDBFD SWAP1 PUSH2 0x2000 SWAP1 DUP6 SWAP1 PUSH1 0x4 ADD PUSH2 0x4CE1 JUMP JUMPDEST PUSH1 0x0 PUSH1 0x40 MLOAD DUP1 DUP4 SUB DUP2 DUP7 DUP1 EXTCODESIZE ISZERO DUP1 ISZERO PUSH2 0x2018 JUMPI PUSH1 0x0 DUP1 REVERT JUMPDEST POP GAS STATICCALL ISZERO DUP1 ISZERO PUSH2 0x202C JUMPI RETURNDATASIZE PUSH1 0x0 DUP1 RETURNDATACOPY RETURNDATASIZE PUSH1 0x0 REVERT JUMPDEST POP POP POP POP PUSH1 0x40 MLOAD RETURNDATASIZE PUSH1 0x0 DUP3 RETURNDATACOPY PUSH1 0x1F RETURNDATASIZE SWAP1 DUP2 ADD PUSH1 0x1F NOT AND DUP3 ADD PUSH1 0x40 MSTORE PUSH2 0x2054 SWAP2 SWAP1 DUP2 ADD SWAP1 PUSH2 0x4A12 JUMP JUMPDEST POP SWAP1 POP PUSH1 0x0 DUP2 PUSH1 0x0 DUP2 MLOAD DUP2 LT PUSH2 0x206C JUMPI PUSH2 0x206C PUSH2 0x4FBE JUMP JUMPDEST PUSH1 0x20 MUL PUSH1 0x20 ADD ADD MLOAD DUP3 PUSH1 0x1 DUP2 MLOAD DUP2 LT PUSH2 0x2087 JUMPI PUSH2 0x2087 PUSH2 0x4FBE JUMP JUMPDEST PUSH1 0x20 MUL PUSH1 0x20 ADD ADD MLOAD PUSH2 0x2099 SWAP2 SWAP1 PUSH2 0x4E55 JUMP JUMPDEST SWAP1 POP PUSH2 0x20A9 PUSH1 0x3 DUP6 SWAP1 SIGNEXTEND DUP3 PUSH2 0x4DBE JUMP JUMPDEST SWAP5 POP PUSH1 0x0 DUP2 PUSH1 0x6 SIGNEXTEND SLT DUP1 ISZERO PUSH2 0x20CD JUMPI POP PUSH2 0x20C7 PUSH1 0x3 DUP6 SWAP1 SIGNEXTEND DUP3 PUSH2 0x4F25 JUMP JUMPDEST PUSH1 0x6 SIGNEXTEND ISZERO ISZERO JUMPDEST ISZERO PUSH2 0x20E0 JUMPI DUP5 PUSH2 0x20DC DUP2 PUSH2 0x4F01 JUMP JUMPDEST SWAP6 POP POP JUMPDEST POP POP POP POP SWAP4 SWAP3 POP POP POP JUMP JUMPDEST PUSH1 0x0 DUP1 PUSH2 0x20F7 DUP7 PUSH2 0x21F9 JUMP JUMPDEST SWAP1 POP PUSH1 0x1 PUSH1 0x1 PUSH1 0x80 SHL SUB PUSH1 0x1 PUSH1 0x1 PUSH1 0xA0 SHL SUB DUP3 AND GT PUSH2 0x217D JUMPI PUSH1 0x0 PUSH2 0x2125 PUSH1 0x1 PUSH1 0x1 PUSH1 0xA0 SHL SUB DUP4 AND DUP1 PUSH2 0x4E36 JUMP JUMPDEST SWAP1 POP DUP4 PUSH1 0x1 PUSH1 0x1 PUSH1 0xA0 SHL SUB AND DUP6 PUSH1 0x1 PUSH1 0x1 PUSH1 0xA0 SHL SUB AND LT PUSH2 0x215D JUMPI PUSH2 0x2158 PUSH1 0x1 PUSH1 0xC0 SHL DUP8 PUSH1 0x1 PUSH1 0x1 PUSH1 0x80 SHL SUB AND DUP4 PUSH2 0x2618 JUMP JUMPDEST PUSH2 0x2175 JUMP JUMPDEST PUSH2 0x2175 DUP2 DUP8 PUSH1 0x1 PUSH1 0x1 PUSH1 0x80 SHL SUB AND PUSH1 0x1 PUSH1 0xC0 SHL PUSH2 0x2618 JUMP JUMPDEST SWAP3 POP POP PUSH2 0x21F0 JUMP JUMPDEST PUSH1 0x0 PUSH2 0x219C PUSH1 0x1 PUSH1 0x1 PUSH1 0xA0 SHL SUB DUP4 AND DUP1 PUSH9 0x10000000000000000 PUSH2 0x2618 JUMP JUMPDEST SWAP1 POP DUP4 PUSH1 0x1 PUSH1 0x1 PUSH1 0xA0 SHL SUB AND DUP6 PUSH1 0x1 PUSH1 0x1 PUSH1 0xA0 SHL SUB AND LT PUSH2 0x21D4 JUMPI PUSH2 0x21CF PUSH1 0x1 PUSH1 0x80 SHL DUP8 PUSH1 0x1 PUSH1 0x1 PUSH1 0x80 SHL SUB AND DUP4 PUSH2 0x2618 JUMP JUMPDEST PUSH2 0x21EC JUMP JUMPDEST PUSH2 0x21EC DUP2 DUP8 PUSH1 0x1 PUSH1 0x1 PUSH1 0x80 SHL SUB AND PUSH1 0x1 PUSH1 0x80 SHL PUSH2 0x2618 JUMP JUMPDEST SWAP3 POP POP JUMPDEST POP SWAP5 SWAP4 POP POP POP POP JUMP JUMPDEST PUSH1 0x0 DUP1 PUSH1 0x0 DUP4 PUSH1 0x2 SIGNEXTEND SLT PUSH2 0x2210 JUMPI DUP3 PUSH1 0x2 SIGNEXTEND PUSH2 0x221D JUMP JUMPDEST DUP3 PUSH1 0x2 SIGNEXTEND PUSH2 0x221D SWAP1 PUSH2 0x4F75 JUMP JUMPDEST SWAP1 POP PUSH2 0x222C PUSH3 0xD89E7 NOT PUSH2 0x4F5B JUMP JUMPDEST PUSH3 0xFFFFFF AND DUP2 GT ISZERO PUSH2 0x2264 JUMPI PUSH1 0x40 MLOAD PUSH3 0x461BCD PUSH1 0xE5 SHL DUP2 MSTORE PUSH1 0x20 PUSH1 0x4 DUP3 ADD MSTORE PUSH1 0x1 PUSH1 0x24 DUP3 ADD MSTORE PUSH1 0x15 PUSH1 0xFA SHL PUSH1 0x44 DUP3 ADD MSTORE PUSH1 0x64 ADD PUSH2 0x947 JUMP JUMPDEST PUSH1 0x0 PUSH1 0x1 DUP3 AND PUSH2 0x2278 JUMPI PUSH1 0x1 PUSH1 0x80 SHL PUSH2 0x228A JUMP JUMPDEST PUSH16 0xFFFCB933BD6FAD37AA2D162D1A594001 JUMPDEST PUSH17 0xFFFFFFFFFFFFFFFFFFFFFFFFFFFFFFFFFF AND SWAP1 POP PUSH1 0x2 DUP3 AND ISZERO PUSH2 0x22C9 JUMPI PUSH1 0x80 PUSH2 0x22C4 DUP3 PUSH16 0xFFF97272373D413259A46990580E213A PUSH2 0x4E36 JUMP JUMPDEST SWAP1 SHR SWAP1 POP JUMPDEST PUSH1 0x4 DUP3 AND ISZERO PUSH2 0x22F3 JUMPI PUSH1 0x80 PUSH2 0x22EE DUP3 PUSH16 0xFFF2E50F5F656932EF12357CF3C7FDCC PUSH2 0x4E36 JUMP JUMPDEST SWAP1 SHR SWAP1 POP JUMPDEST PUSH1 0x8 DUP3 AND ISZERO PUSH2 0x231D JUMPI PUSH1 0x80 PUSH2 0x2318 DUP3 PUSH16 0xFFE5CACA7E10E4E61C3624EAA0941CD0 PUSH2 0x4E36 JUMP JUMPDEST SWAP1 SHR SWAP1 POP JUMPDEST PUSH1 0x10 DUP3 AND ISZERO PUSH2 0x2347 JUMPI PUSH1 0x80 PUSH2 0x2342 DUP3 PUSH16 0xFFCB9843D60F6159C9DB58835C926644 PUSH2 0x4E36 JUMP JUMPDEST SWAP1 SHR SWAP1 POP JUMPDEST PUSH1 0x20 DUP3 AND ISZERO PUSH2 0x2371 JUMPI PUSH1 0x80 PUSH2 0x236C DUP3 PUSH16 0xFF973B41FA98C081472E6896DFB254C0 PUSH2 0x4E36 JUMP JUMPDEST SWAP1 SHR SWAP1 POP JUMPDEST PUSH1 0x40 DUP3 AND ISZERO PUSH2 0x239B JUMPI PUSH1 0x80 PUSH2 0x2396 DUP3 PUSH16 0xFF2EA16466C96A3843EC78B326B52861 PUSH2 0x4E36 JUMP JUMPDEST SWAP1 SHR SWAP1 POP JUMPDEST PUSH1 0x80 DUP3 AND ISZERO PUSH2 0x23C5 JUMPI PUSH1 0x80 PUSH2 0x23C0 DUP3 PUSH16 0xFE5DEE046A99A2A811C461F1969C3053 PUSH2 0x4E36 JUMP JUMPDEST SWAP1 SHR SWAP1 POP JUMPDEST PUSH2 0x100 DUP3 AND ISZERO PUSH2 0x23F0 JUMPI PUSH1 0x80 PUSH2 0x23EB DUP3 PUSH16 0xFCBE86C7900A88AEDCFFC83B479AA3A4 PUSH2 0x4E36 JUMP JUMPDEST SWAP1 SHR SWAP1 POP JUMPDEST PUSH2 0x200 DUP3 AND ISZERO PUSH2 0x241B JUMPI PUSH1 0x80 PUSH2 0x2416 DUP3 PUSH16 0xF987A7253AC413176F2B074CF7815E54 PUSH2 0x4E36 JUMP JUMPDEST SWAP1 SHR SWAP1 POP JUMPDEST PUSH2 0x400 DUP3 AND ISZERO PUSH2 0x2446 JUMPI PUSH1 0x80 PUSH2 0x2441 DUP3 PUSH16 0xF3392B0822B70005940C7A398E4B70F3 PUSH2 0x4E36 JUMP JUMPDEST SWAP1 SHR SWAP1 POP JUMPDEST PUSH2 0x800 DUP3 AND ISZERO PUSH2 0x2471 JUMPI PUSH1 0x80 PUSH2 0x246C DUP3 PUSH16 0xE7159475A2C29B7443B29C7FA6E889D9 PUSH2 0x4E36 JUMP JUMPDEST SWAP1 SHR SWAP1 POP JUMPDEST PUSH2 0x1000 DUP3 AND ISZERO PUSH2 0x249C JUMPI PUSH1 0x80 PUSH2 0x2497 DUP3 PUSH16 0xD097F3BDFD2022B8845AD8F792AA5825 PUSH2 0x4E36 JUMP JUMPDEST SWAP1 SHR SWAP1 POP JUMPDEST PUSH2 0x2000 DUP3 AND ISZERO PUSH2 0x24C7 JUMPI PUSH1 0x80 PUSH2 0x24C2 DUP3 PUSH16 0xA9F746462D870FDF8A65DC1F90E061E5 PUSH2 0x4E36 JUMP JUMPDEST SWAP1 SHR SWAP1 POP JUMPDEST PUSH2 0x4000 DUP3 AND ISZERO PUSH2 0x24F2 JUMPI PUSH1 0x80 PUSH2 0x24ED DUP3 PUSH16 0x70D869A156D2A1B890BB3DF62BAF32F7 PUSH2 0x4E36 JUMP JUMPDEST SWAP1 SHR SWAP1 POP JUMPDEST PUSH2 0x8000 DUP3 AND ISZERO PUSH2 0x251D JUMPI PUSH1 0x80 PUSH2 0x2518 DUP3 PUSH16 0x31BE135F97D08FD981231505542FCFA6 PUSH2 0x4E36 JUMP JUMPDEST SWAP1 SHR SWAP1 POP JUMPDEST PUSH3 0x10000 DUP3 AND ISZERO PUSH2 0x2549 JUMPI PUSH1 0x80 PUSH2 0x2544 DUP3 PUSH16 0x9AA508B5B7A84E1C677DE54F3E99BC9 PUSH2 0x4E36 JUMP JUMPDEST SWAP1 SHR SWAP1 POP JUMPDEST PUSH3 0x20000 DUP3 AND ISZERO PUSH2 0x2574 JUMPI PUSH1 0x80 PUSH2 0x256F DUP3 PUSH15 0x5D6AF8DEDB81196699C329225EE604 PUSH2 0x4E36 JUMP JUMPDEST SWAP1 SHR SWAP1 POP JUMPDEST PUSH3 0x40000 DUP3 AND ISZERO PUSH2 0x259E JUMPI PUSH1 0x80 PUSH2 0x2599 DUP3 PUSH14 0x2216E584F5FA1EA926041BEDFE98 PUSH2 0x4E36 JUMP JUMPDEST SWAP1 SHR SWAP1 POP JUMPDEST PUSH3 0x80000 DUP3 AND ISZERO PUSH2 0x25C6 JUMPI PUSH1 0x80 PUSH2 0x25C1 DUP3 PUSH12 0x48A170391F7DC42444E8FA2 PUSH2 0x4E36 JUMP JUMPDEST SWAP1 SHR SWAP1 POP JUMPDEST PUSH1 0x0 DUP5 PUSH1 0x2 SIGNEXTEND SGT ISZERO PUSH2 0x25E1 JUMPI PUSH2 0x25DE DUP2 PUSH1 0x0 NOT PUSH2 0x4E22 JUMP JUMPDEST SWAP1 POP JUMPDEST PUSH2 0x25F0 PUSH5 0x100000000 DUP3 PUSH2 0x4F47 JUMP JUMPDEST ISZERO PUSH2 0x25FC JUMPI PUSH1 0x1 PUSH2 0x25FF JUMP JUMPDEST PUSH1 0x0 JUMPDEST PUSH2 0x2610 SWAP1 PUSH1 0xFF AND PUSH1 0x20 DUP4 SWAP1 SHR PUSH2 0x4DA6 JUMP JUMPDEST SWAP5 SWAP4 POP POP POP POP JUMP JUMPDEST PUSH1 0x0 DUP1 DUP1 PUSH1 0x0 NOT DUP6 DUP8 MULMOD DUP6 DUP8 MUL SWAP3 POP DUP3 DUP2 LT DUP4 DUP3 SUB SUB SWAP2 POP POP DUP1 PUSH1 0x0 EQ ISZERO PUSH2 0x2652 JUMPI PUSH1 0x0 DUP5 GT PUSH2 0x2647 JUMPI PUSH1 0x0 DUP1 REVERT JUMPDEST POP DUP3 SWAP1 DIV SWAP1 POP PUSH2 0x2782 JUMP JUMPDEST DUP1 DUP5 GT PUSH2 0x265E JUMPI PUSH1 0x0 DUP1 REVERT JUMPDEST PUSH1 0x0 DUP5 DUP7 DUP9 MULMOD DUP1 DUP5 SUB SWAP4 DUP2 GT SWAP1 SWAP3 SUB SWAP2 SWAP1 POP PUSH1 0x0 DUP6 PUSH2 0x267C DUP2 PUSH2 0x4F75 JUMP JUMPDEST AND SWAP6 DUP7 SWAP1 DIV SWAP6 SWAP4 DUP5 SWAP1 DIV SWAP4 PUSH1 0x0 DUP2 SWAP1 SUB DIV PUSH1 0x1 ADD SWAP1 POP PUSH2 0x269C DUP2 DUP5 PUSH2 0x4E36 JUMP JUMPDEST SWAP1 SWAP4 OR SWAP3 PUSH1 0x0 PUSH2 0x26AD DUP8 PUSH1 0x3 PUSH2 0x4E36 JUMP JUMPDEST PUSH1 0x2 XOR SWAP1 POP PUSH2 0x26BC DUP2 DUP9 PUSH2 0x4E36 JUMP JUMPDEST PUSH2 0x26C7 SWAP1 PUSH1 0x2 PUSH2 0x4ECD JUMP JUMPDEST PUSH2 0x26D1 SWAP1 DUP3 PUSH2 0x4E36 JUMP JUMPDEST SWAP1 POP PUSH2 0x26DD DUP2 DUP9 PUSH2 0x4E36 JUMP JUMPDEST PUSH2 0x26E8 SWAP1 PUSH1 0x2 PUSH2 0x4ECD JUMP JUMPDEST PUSH2 0x26F2 SWAP1 DUP3 PUSH2 0x4E36 JUMP JUMPDEST SWAP1 POP PUSH2 0x26FE DUP2 DUP9 PUSH2 0x4E36 JUMP JUMPDEST PUSH2 0x2709 SWAP1 PUSH1 0x2 PUSH2 0x4ECD JUMP JUMPDEST PUSH2 0x2713 SWAP1 DUP3 PUSH2 0x4E36 JUMP JUMPDEST SWAP1 POP PUSH2 0x271F DUP2 DUP9 PUSH2 0x4E36 JUMP JUMPDEST PUSH2 0x272A SWAP1 PUSH1 0x2 PUSH2 0x4ECD JUMP JUMPDEST PUSH2 0x2734 SWAP1 DUP3 PUSH2 0x4E36 JUMP JUMPDEST SWAP1 POP PUSH2 0x2740 DUP2 DUP9 PUSH2 0x4E36 JUMP JUMPDEST PUSH2 0x274B SWAP1 PUSH1 0x2 PUSH2 0x4ECD JUMP JUMPDEST PUSH2 0x2755 SWAP1 DUP3 PUSH2 0x4E36 JUMP JUMPDEST SWAP1 POP PUSH2 0x2761 DUP2 DUP9 PUSH2 0x4E36 JUMP JUMPDEST PUSH2 0x276C SWAP1 PUSH1 0x2 PUSH2 0x4ECD JUMP JUMPDEST PUSH2 0x2776 SWAP1 DUP3 PUSH2 0x4E36 JUMP JUMPDEST SWAP1 POP PUSH2 0x20DC DUP2 DUP7 PUSH2 0x4E36 JUMP JUMPDEST SWAP4 SWAP3 POP POP POP JUMP JUMPDEST PUSH1 0x0 DUP1 PUSH2 0x17E SLOAD SWAP1 POP PUSH1 0x0 DUP1 PUSH1 0x0 DUP1 PUSH1 0x0 PUSH2 0x27A8 TIMESTAMP PUSH2 0x17F SLOAD DUP9 PUSH2 0x1C1D JUMP JUMPDEST SWAP7 POP SWAP7 POP SWAP7 POP SWAP7 POP POP POP SWAP5 POP DUP5 PUSH1 0x0 LT ISZERO PUSH2 0x27EA JUMPI PUSH1 0x0 PUSH2 0x27C9 DUP8 TIMESTAMP PUSH2 0x4ECD JUMP JUMPDEST SWAP1 POP PUSH1 0x0 PUSH2 0x27D6 DUP3 PUSH2 0xD04 JUMP JUMPDEST SWAP1 POP PUSH2 0x27E1 DUP2 PUSH2 0x3464 JUMP JUMPDEST POP POP PUSH2 0x17F DUP7 SWAP1 SSTORE JUMPDEST DUP3 ISZERO PUSH2 0x282F JUMPI PUSH1 0x0 NOT DUP7 EQ PUSH2 0x281D JUMPI PUSH2 0x2803 PUSH1 0x1 PUSH2 0x3537 JUMP JUMPDEST POP PUSH2 0x2817 PUSH2 0x2812 PUSH1 0x1 DUP6 PUSH2 0x4ECD JUMP JUMPDEST PUSH2 0x3537 JUMP JUMPDEST POP PUSH2 0x2828 JUMP JUMPDEST PUSH2 0x2826 DUP4 PUSH2 0x3537 JUMP JUMPDEST POP JUMPDEST PUSH2 0x174 DUP3 SWAP1 SSTORE JUMPDEST DUP4 DUP7 EQ PUSH2 0x1003 JUMPI PUSH2 0x17E DUP5 SWAP1 SSTORE SWAP7 SWAP6 POP POP POP POP POP POP JUMP JUMPDEST PUSH1 0x0 DUP1 PUSH1 0x0 DUP1 PUSH1 0x0 DUP1 PUSH2 0x2859 DUP9 DUP9 PUSH2 0x355E JUMP JUMPDEST SWAP4 POP SWAP4 POP SWAP4 POP SWAP4 POP PUSH2 0x2870 PUSH1 0x2 DUP6 DUP6 PUSH1 0x0 SLOAD PUSH2 0x367D JUMP JUMPDEST PUSH1 0x0 SSTORE PUSH2 0x287D DUP8 DUP4 PUSH2 0x3728 JUMP JUMPDEST SWAP6 POP PUSH2 0x288A PUSH1 0x0 DUP8 PUSH2 0x2D29 JUMP JUMPDEST DUP1 SWAP5 POP POP POP POP POP SWAP3 POP SWAP3 SWAP1 POP JUMP JUMPDEST PUSH1 0x0 DUP1 PUSH2 0x28A5 DUP4 DUP6 PUSH2 0x4E36 JUMP JUMPDEST SWAP1 POP PUSH2 0x28C6 DUP5 ISZERO DUP1 PUSH2 0x28BF JUMPI POP DUP4 PUSH2 0x28BD DUP7 DUP5 PUSH2 0x4E22 JUMP JUMPDEST EQ JUMPDEST PUSH1 0x3 PUSH2 0x3770 JUMP JUMPDEST PUSH2 0x28D8 PUSH8 0xDE0B6B3A7640000 DUP3 PUSH2 0x4E22 JUMP JUMPDEST SWAP2 POP POP JUMPDEST SWAP3 SWAP2 POP POP JUMP JUMPDEST DUP3 ISZERO PUSH2 0x2951 JUMPI PUSH2 0x179 SLOAD PUSH2 0x28F6 DUP4 DUP3 PUSH2 0x4DA6 JUMP JUMPDEST SWAP1 POP DUP1 PUSH2 0x179 DUP2 SWAP1 SSTORE POP DUP2 DUP2 PUSH2 0x175 SLOAD PUSH2 0x2910 SWAP2 SWAP1 PUSH2 0x4DA6 JUMP JUMPDEST GT ISZERO PUSH2 0x294B JUMPI PUSH1 0x40 MLOAD PUSH3 0x461BCD PUSH1 0xE5 SHL DUP2 MSTORE PUSH1 0x20 PUSH1 0x4 DUP3 ADD MSTORE PUSH1 0xA PUSH1 0x24 DUP3 ADD MSTORE PUSH10 0x4F564C56313A3E63617 PUSH1 0xB4 SHL PUSH1 0x44 DUP3 ADD MSTORE PUSH1 0x64 ADD PUSH2 0x947 JUMP JUMPDEST POP POP POP POP JUMP JUMPDEST PUSH2 0x17A SLOAD PUSH2 0x295F DUP4 DUP3 PUSH2 0x4DA6 JUMP JUMPDEST SWAP1 POP DUP1 PUSH2 0x17A DUP2 SWAP1 SSTORE POP DUP2 DUP2 PUSH2 0x176 SLOAD PUSH2 0x2910 SWAP2 SWAP1 PUSH2 0x4DA6 JUMP JUMPDEST PUSH1 0x0 DUP1 PUSH2 0x17E SLOAD SWAP1 POP PUSH1 0x0 TIMESTAMP SWAP1 POP PUSH1 0x0 DUP1 PUSH1 0x0 DUP1 PUSH1 0x0 PUSH2 0x299D DUP7 PUSH2 0x17F SLOAD DUP10 PUSH2 0x1C1D JUMP JUMPDEST POP SWAP6 POP SWAP6 POP POP SWAP5 POP SWAP5 POP SWAP5 POP DUP5 PUSH1 0x0 LT ISZERO PUSH2 0x29D9 JUMPI PUSH1 0x0 PUSH2 0x29BE DUP9 DUP9 PUSH2 0x4ECD JUMP JUMPDEST SWAP1 POP PUSH1 0x0 PUSH2 0x29CB DUP3 PUSH2 0xD04 JUMP JUMPDEST SWAP1 POP PUSH2 0x29D6 DUP2 PUSH2 0x3464 JUMP JUMPDEST POP POP JUMPDEST DUP4 ISZERO PUSH2 0x2A13 JUMPI PUSH1 0x0 PUSH2 0x29EB DUP5 DUP9 PUSH2 0x4ECD JUMP JUMPDEST SWAP1 POP PUSH1 0x0 PUSH2 0x29F8 DUP3 PUSH2 0xD04 JUMP JUMPDEST SWAP1 POP PUSH2 0x2A03 DUP2 PUSH2 0x3464 JUMP JUMPDEST POP POP PUSH2 0x17F DUP4 SWAP1 SSTORE PUSH1 0x0 NOT PUSH2 0x17E SSTORE JUMPDEST DUP2 ISZERO PUSH2 0x2A53 JUMPI PUSH1 0x0 NOT DUP8 EQ PUSH2 0x2A41 JUMPI PUSH2 0x2A2C PUSH1 0x1 PUSH2 0x3537 JUMP JUMPDEST POP PUSH2 0x2A3B PUSH2 0x2812 PUSH1 0x1 DUP5 PUSH2 0x4ECD JUMP JUMPDEST POP PUSH2 0x2A4C JUMP JUMPDEST PUSH2 0x2A4A DUP3 PUSH2 0x3537 JUMP JUMPDEST POP JUMPDEST PUSH2 0x174 DUP2 SWAP1 SSTORE JUMPDEST SWAP8 SWAP7 POP POP POP POP POP POP POP JUMP JUMPDEST PUSH1 0x0 PUSH2 0x2A6D DUP3 ISZERO ISZERO PUSH1 0x4 PUSH2 0x3770 JUMP JUMPDEST DUP3 PUSH2 0x2A7A JUMPI POP PUSH1 0x0 PUSH2 0x28DC JUMP JUMPDEST PUSH1 0x0 PUSH2 0x2A8E PUSH8 0xDE0B6B3A7640000 DUP6 PUSH2 0x4E36 JUMP JUMPDEST SWAP1 POP PUSH2 0x2AAE PUSH8 0xDE0B6B3A7640000 PUSH2 0x2AA6 DUP7 DUP5 PUSH2 0x4E22 JUMP JUMPDEST EQ PUSH1 0x5 PUSH2 0x3770 JUMP JUMPDEST DUP3 PUSH2 0x2ABA PUSH1 0x1 DUP4 PUSH2 0x4ECD JUMP JUMPDEST PUSH2 0x2AC4 SWAP2 SWAP1 PUSH2 0x4E22 JUMP JUMPDEST PUSH2 0x2ACF SWAP1 PUSH1 0x1 PUSH2 0x4DA6 JUMP JUMPDEST SWAP2 POP POP PUSH2 0x28DC JUMP JUMPDEST PUSH1 0x0 PUSH2 0x2AE6 DUP3 ISZERO ISZERO PUSH1 0x4 PUSH2 0x3770 JUMP JUMPDEST DUP3 PUSH2 0x2AF3 JUMPI POP PUSH1 0x0 PUSH2 0x28DC JUMP JUMPDEST PUSH1 0x0 PUSH2 0x2B07 PUSH8 0xDE0B6B3A7640000 DUP6 PUSH2 0x4E36 JUMP JUMPDEST SWAP1 POP PUSH2 0x2B1F PUSH8 0xDE0B6B3A7640000 PUSH2 0x2AA6 DUP7 DUP5 PUSH2 0x4E22 JUMP JUMPDEST PUSH2 0x2ACF DUP4 DUP3 PUSH2 0x4E22 JUMP JUMPDEST PUSH1 0x0 DUP2 DUP4 LT PUSH2 0x2B38 JUMPI DUP2 PUSH2 0x2782 JUMP JUMPDEST POP SWAP1 SWAP2 SWAP1 POP JUMP JUMPDEST PUSH2 0x2B63 PUSH1 0x40 MLOAD DUP1 PUSH1 0x60 ADD PUSH1 0x40 MSTORE DUP1 PUSH1 0x0 DUP2 MSTORE PUSH1 0x20 ADD PUSH1 0x0 DUP2 MSTORE PUSH1 0x20 ADD PUSH1 0x0 DUP2 MSTORE POP SWAP1 JUMP JUMPDEST PUSH1 0x0 PUSH2 0x2B96 PUSH2 0x2B86 PUSH2 0x17C SLOAD PUSH8 0x25B946EBC0B36351 PUSH2 0x3782 SWAP1 SWAP2 SWAP1 PUSH4 0xFFFFFFFF AND JUMP JUMPDEST PUSH2 0x2B90 DUP6 DUP8 PUSH2 0x37E7 JUMP JUMPDEST SWAP1 PUSH2 0x3728 JUMP JUMPDEST SWAP1 POP PUSH1 0x0 PUSH2 0x2BC5 PUSH2 0x2BBB PUSH2 0x17C SLOAD PUSH8 0x51AF86713316A9A PUSH2 0x3782 SWAP1 SWAP2 SWAP1 PUSH4 0xFFFFFFFF AND JUMP JUMPDEST PUSH2 0x19CC DUP7 DUP9 PUSH2 0x2B29 JUMP JUMPDEST PUSH1 0x40 DUP1 MLOAD PUSH1 0x60 DUP2 ADD DUP3 MSTORE SWAP2 DUP3 MSTORE PUSH1 0x20 DUP3 ADD SWAP4 SWAP1 SWAP4 MSTORE SWAP2 DUP3 ADD SWAP4 SWAP1 SWAP4 MSTORE SWAP4 SWAP3 POP POP POP JUMP JUMPDEST PUSH2 0x175 SLOAD PUSH2 0x176 SLOAD PUSH2 0x177 SLOAD PUSH2 0x178 SLOAD PUSH2 0x179 SLOAD PUSH2 0x17A SLOAD PUSH2 0x17B SLOAD DUP8 ISZERO PUSH2 0x2C72 JUMPI PUSH2 0x2C17 DUP8 DUP8 PUSH1 0x1 DUP5 PUSH2 0x37F7 JUMP JUMPDEST POP SWAP1 SWAP8 POP SWAP6 POP PUSH2 0x2C4B PUSH2 0x2C2A DUP5 DUP10 PUSH2 0x4DA6 JUMP JUMPDEST SWAP8 POP DUP8 PUSH2 0x2C37 DUP5 DUP10 PUSH2 0x4DA6 JUMP JUMPDEST SWAP8 POP DUP8 PUSH2 0x2C45 PUSH1 0x1 DUP13 PUSH2 0x4ECD JUMP JUMPDEST DUP5 PUSH2 0x37F7 JUMP JUMPDEST POP SWAP1 SWAP8 POP SWAP6 POP PUSH2 0x2C5B DUP4 DUP7 PUSH2 0x4DA6 JUMP JUMPDEST SWAP5 POP PUSH2 0x2C67 DUP3 DUP6 PUSH2 0x4DA6 JUMP JUMPDEST SWAP4 POP PUSH1 0x0 SWAP3 POP PUSH1 0x0 SWAP2 POP JUMPDEST POP SWAP2 SWAP4 SWAP6 POP SWAP2 SWAP4 SWAP6 JUMP JUMPDEST PUSH2 0x17E SLOAD PUSH2 0x17F SLOAD PUSH1 0x0 SWAP2 SWAP1 DUP3 DUP1 DUP1 PUSH2 0x2C96 TIMESTAMP DUP6 DUP8 PUSH2 0x1C1D JUMP JUMPDEST POP SWAP6 POP SWAP6 POP POP POP POP SWAP3 POP DUP3 PUSH1 0x0 LT ISZERO PUSH2 0x2CE1 JUMPI PUSH1 0x0 PUSH2 0x2CB5 DUP7 TIMESTAMP PUSH2 0x4ECD JUMP JUMPDEST SWAP1 POP PUSH1 0x0 PUSH2 0x2CC2 DUP3 PUSH2 0xD04 JUMP JUMPDEST SWAP1 POP PUSH2 0x2CCD DUP2 PUSH2 0x3464 JUMP JUMPDEST POP POP PUSH2 0x17F DUP6 SWAP1 SSTORE PUSH1 0x0 NOT PUSH2 0x17E SSTORE PUSH1 0x1 SWAP6 POP JUMPDEST DUP2 ISZERO PUSH2 0x2D21 JUMPI PUSH1 0x0 NOT DUP6 EQ PUSH2 0x2D0F JUMPI PUSH2 0x2CFA PUSH1 0x1 PUSH2 0x3537 JUMP JUMPDEST POP PUSH2 0x2D09 PUSH2 0x2812 PUSH1 0x1 DUP5 PUSH2 0x4ECD JUMP JUMPDEST POP PUSH2 0x2D1A JUMP JUMPDEST PUSH2 0x2D18 DUP3 PUSH2 0x3537 JUMP JUMPDEST POP JUMPDEST PUSH2 0x174 DUP2 SWAP1 SSTORE JUMPDEST POP POP POP POP POP SWAP1 JUMP JUMPDEST PUSH2 0x172 SLOAD TIMESTAMP SWAP1 DUP1 DUP3 GT ISZERO PUSH2 0x2E10 JUMPI PUSH1 0x1 SLOAD PUSH1 0x0 PUSH1 0xB6 DUP3 PUSH1 0x3C DUP2 LT PUSH2 0x2D4F JUMPI PUSH2 0x2D4F PUSH2 0x4FBE JUMP JUMPDEST PUSH1 0x40 DUP1 MLOAD PUSH1 0x60 DUP2 ADD DUP3 MSTORE PUSH1 0x3 SWAP3 SWAP1 SWAP3 MUL SWAP3 SWAP1 SWAP3 ADD DUP1 SLOAD PUSH1 0x1 DUP3 ADD SLOAD PUSH1 0x20 DUP5 ADD DUP2 DUP2 MSTORE PUSH1 0x2 SWAP1 SWAP4 ADD SLOAD SWAP5 DUP5 ADD SWAP5 SWAP1 SWAP5 MSTORE DUP7 DUP4 MSTORE PUSH2 0x16D SLOAD SWAP3 SWAP5 POP SWAP3 PUSH2 0x2D94 SWAP1 DUP4 SWAP1 PUSH2 0x4DA6 JUMP JUMPDEST SWAP1 MSTORE POP PUSH2 0x16E SLOAD PUSH1 0x40 DUP4 ADD DUP1 MLOAD PUSH2 0x2DAC SWAP1 DUP4 SWAP1 PUSH2 0x4DA6 JUMP JUMPDEST SWAP1 MSTORE POP PUSH2 0x2DBC PUSH1 0xB6 DUP4 DUP4 DUP7 PUSH2 0x367D JUMP JUMPDEST PUSH1 0x1 SSTORE PUSH2 0x16D DUP8 SWAP1 SSTORE PUSH2 0x16E DUP7 SWAP1 SSTORE PUSH2 0x16F SLOAD DUP1 DUP1 PUSH2 0x2DDB DUP8 DUP10 PUSH2 0x4ECD JUMP JUMPDEST PUSH2 0x2DE5 SWAP2 SWAP1 PUSH2 0x4E22 JUMP JUMPDEST PUSH2 0x2DEF SWAP2 SWAP1 PUSH2 0x4E36 JUMP JUMPDEST PUSH2 0x172 PUSH1 0x0 DUP3 DUP3 SLOAD PUSH2 0x2E01 SWAP2 SWAP1 PUSH2 0x4DA6 JUMP JUMPDEST SWAP1 SWAP2 SSTORE POP PUSH2 0x294B SWAP5 POP POP POP POP POP JUMP JUMPDEST DUP4 PUSH2 0x16D PUSH1 0x0 ADD PUSH1 0x0 DUP3 DUP3 SLOAD PUSH2 0x2E26 SWAP2 SWAP1 PUSH2 0x4DA6 JUMP JUMPDEST SWAP1 SWAP2 SSTORE POP DUP4 SWAP1 POP PUSH2 0x16D PUSH1 0x1 ADD PUSH1 0x0 DUP3 DUP3 SLOAD PUSH2 0x2E42 SWAP2 SWAP1 PUSH2 0x4DA6 JUMP JUMPDEST SWAP1 SWAP2 SSTORE POP POP POP POP POP POP JUMP JUMPDEST PUSH1 0x0 DUP1 PUSH1 0x0 DUP1 PUSH2 0x2E64 PUSH1 0xB6 PUSH1 0x1 SLOAD PUSH2 0x170 SLOAD PUSH2 0x393A JUMP JUMPDEST SWAP3 POP SWAP3 POP POP DUP1 PUSH1 0x20 ADD MLOAD DUP3 PUSH1 0x20 ADD MLOAD PUSH2 0x16D PUSH1 0x0 PUSH1 0x2 DUP2 LT PUSH2 0x2E88 JUMPI PUSH2 0x2E88 PUSH2 0x4FBE JUMP JUMPDEST ADD SLOAD PUSH2 0x2E94 SWAP2 SWAP1 PUSH2 0x4DA6 JUMP JUMPDEST PUSH2 0x2E9E SWAP2 SWAP1 PUSH2 0x4ECD JUMP JUMPDEST SWAP4 POP DUP1 PUSH1 0x40 ADD MLOAD DUP3 PUSH1 0x40 ADD MLOAD PUSH2 0x16D PUSH1 0x1 PUSH1 0x2 DUP2 LT PUSH2 0x2EBF JUMPI PUSH2 0x2EBF PUSH2 0x4FBE JUMP JUMPDEST ADD SLOAD PUSH2 0x2ECB SWAP2 SWAP1 PUSH2 0x4DA6 JUMP JUMPDEST PUSH2 0x2ED5 SWAP2 SWAP1 PUSH2 0x4ECD JUMP JUMPDEST SWAP3 POP POP POP SWAP1 SWAP2 JUMP JUMPDEST PUSH1 0x40 DUP1 MLOAD PUSH1 0x2 DUP1 DUP3 MSTORE PUSH1 0x60 DUP3 ADD DUP4 MSTORE PUSH1 0x0 SWAP3 DUP4 SWAP3 SWAP2 SWAP1 PUSH1 0x20 DUP4 ADD SWAP1 DUP1 CALLDATASIZE DUP4 CALLDATACOPY ADD SWAP1 POP POP SWAP1 POP PUSH32 0x0 DUP2 PUSH1 0x0 DUP2 MLOAD DUP2 LT PUSH2 0x2F36 JUMPI PUSH2 0x2F36 PUSH2 0x4FBE JUMP JUMPDEST PUSH1 0x20 MUL PUSH1 0x20 ADD ADD SWAP1 PUSH4 0xFFFFFFFF AND SWAP1 DUP2 PUSH4 0xFFFFFFFF AND DUP2 MSTORE POP POP PUSH1 0x0 DUP2 PUSH1 0x1 DUP2 MLOAD DUP2 LT PUSH2 0x2F65 JUMPI PUSH2 0x2F65 PUSH2 0x4FBE JUMP JUMPDEST PUSH1 0x20 MUL PUSH1 0x20 ADD ADD SWAP1 PUSH4 0xFFFFFFFF AND SWAP1 DUP2 PUSH4 0xFFFFFFFF AND DUP2 MSTORE POP POP PUSH1 0x0 DUP1 PUSH32 0x0 PUSH1 0x1 PUSH1 0x1 PUSH1 0xA0 SHL SUB AND PUSH4 0x883BDBFD DUP5 PUSH1 0x40 MLOAD DUP3 PUSH4 0xFFFFFFFF AND PUSH1 0xE0 SHL DUP2 MSTORE PUSH1 0x4 ADD PUSH2 0x2FCE SWAP2 SWAP1 PUSH2 0x4CE1 JUMP JUMPDEST PUSH1 0x0 PUSH1 0x40 MLOAD DUP1 DUP4 SUB DUP2 DUP7 DUP1 EXTCODESIZE ISZERO DUP1 ISZERO PUSH2 0x2FE6 JUMPI PUSH1 0x0 DUP1 REVERT JUMPDEST POP GAS STATICCALL ISZERO DUP1 ISZERO PUSH2 0x2FFA JUMPI RETURNDATASIZE PUSH1 0x0 DUP1 RETURNDATACOPY RETURNDATASIZE PUSH1 0x0 REVERT JUMPDEST POP POP POP POP PUSH1 0x40 MLOAD RETURNDATASIZE PUSH1 0x0 DUP3 RETURNDATACOPY PUSH1 0x1F RETURNDATASIZE SWAP1 DUP2 ADD PUSH1 0x1F NOT AND DUP3 ADD PUSH1 0x40 MSTORE PUSH2 0x3022 SWAP2 SWAP1 DUP2 ADD SWAP1 PUSH2 0x4A12 JUMP JUMPDEST SWAP2 POP SWAP2 POP PUSH1 0x0 PUSH2 0x309E PUSH32 0x0 PUSH1 0x3 SIGNEXTEND DUP5 PUSH1 0x0 DUP2 MLOAD DUP2 LT PUSH2 0x3062 JUMPI PUSH2 0x3062 PUSH2 0x4FBE JUMP JUMPDEST PUSH1 0x20 MUL PUSH1 0x20 ADD ADD MLOAD DUP6 PUSH1 0x1 DUP2 MLOAD DUP2 LT PUSH2 0x307D JUMPI PUSH2 0x307D PUSH2 0x4FBE JUMP JUMPDEST PUSH1 0x20 MUL PUSH1 0x20 ADD ADD MLOAD PUSH2 0x308F SWAP2 SWAP1 PUSH2 0x4E55 JUMP JUMPDEST PUSH2 0x3099 SWAP2 SWAP1 PUSH2 0x4DBE JUMP JUMPDEST PUSH2 0x21F9 JUMP JUMPDEST PUSH1 0x1 PUSH1 0x1 PUSH1 0xA0 SHL SUB AND SWAP1 POP PUSH1 0x0 DUP3 PUSH1 0x0 DUP2 MLOAD DUP2 LT PUSH2 0x30BE JUMPI PUSH2 0x30BE PUSH2 0x4FBE JUMP JUMPDEST PUSH1 0x20 MUL PUSH1 0x20 ADD ADD MLOAD DUP4 PUSH1 0x1 DUP2 MLOAD DUP2 LT PUSH2 0x30D9 JUMPI PUSH2 0x30D9 PUSH2 0x4FBE JUMP JUMPDEST PUSH1 0x20 MUL PUSH1 0x20 ADD ADD MLOAD PUSH2 0x30EB SWAP2 SWAP1 PUSH2 0x4EA5 JUMP JUMPDEST PUSH2 0x312B SWAP1 PUSH16 0xFFFFFFFFFFFFFFFFFFFFFFFFFFFFFFFF NOT PUSH32 0x0 PUSH1 0x80 SHL AND PUSH2 0x4DFC JUMP JUMPDEST PUSH1 0x1 PUSH1 0x1 PUSH1 0xA0 SHL SUB AND SWAP1 POP PUSH1 0x0 PUSH32 0x0 PUSH2 0x3170 JUMPI PUSH2 0x316B DUP3 DUP5 PUSH2 0x186 SLOAD PUSH2 0x2618 JUMP JUMPDEST PUSH2 0x317E JUMP JUMPDEST PUSH2 0x317E DUP4 PUSH1 0x60 DUP5 SWAP1 SHL PUSH2 0x4E22 JUMP JUMPDEST PUSH1 0x40 MLOAD PUSH4 0x883BDBFD PUSH1 0xE0 SHL DUP2 MSTORE SWAP1 SWAP2 POP PUSH1 0x1 PUSH1 0x1 PUSH1 0xA0 SHL SUB PUSH32 0x0 AND SWAP1 PUSH4 0x883BDBFD SWAP1 PUSH2 0x31CD SWAP1 DUP10 SWAP1 PUSH1 0x4 ADD PUSH2 0x4CE1 JUMP JUMPDEST PUSH1 0x0 PUSH1 0x40 MLOAD DUP1 DUP4 SUB DUP2 DUP7 DUP1 EXTCODESIZE ISZERO DUP1 ISZERO PUSH2 0x31E5 JUMPI PUSH1 0x0 DUP1 REVERT JUMPDEST POP GAS STATICCALL ISZERO DUP1 ISZERO PUSH2 0x31F9 JUMPI RETURNDATASIZE PUSH1 0x0 DUP1 RETURNDATACOPY RETURNDATASIZE PUSH1 0x0 REVERT JUMPDEST POP POP POP POP PUSH1 0x40 MLOAD RETURNDATASIZE PUSH1 0x0 DUP3 RETURNDATACOPY PUSH1 0x1F RETURNDATASIZE SWAP1 DUP2 ADD PUSH1 0x1F NOT AND DUP3 ADD PUSH1 0x40 MSTORE PUSH2 0x3221 SWAP2 SWAP1 DUP2 ADD SWAP1 PUSH2 0x4A12 JUMP JUMPDEST POP DUP1 SWAP6 POP POP PUSH1 0x0 PUSH2 0x32D6 PUSH32 0x0 PUSH1 0x3 SIGNEXTEND DUP8 PUSH1 0x0 DUP2 MLOAD DUP2 LT PUSH2 0x3262 JUMPI PUSH2 0x3262 PUSH2 0x4FBE JUMP JUMPDEST PUSH1 0x20 MUL PUSH1 0x20 ADD ADD MLOAD DUP9 PUSH1 0x1 DUP2 MLOAD DUP2 LT PUSH2 0x327D JUMPI PUSH2 0x327D PUSH2 0x4FBE JUMP JUMPDEST PUSH1 0x20 MUL PUSH1 0x20 ADD ADD MLOAD PUSH2 0x328F SWAP2 SWAP1 PUSH2 0x4E55 JUMP JUMPDEST PUSH2 0x3299 SWAP2 SWAP1 PUSH2 0x4DBE JUMP JUMPDEST PUSH2 0x181 SLOAD PUSH8 0xDE0B6B3A7640000 SWAP1 PUSH1 0x1 PUSH1 0x1 PUSH1 0xA0 SHL SUB AND PUSH32 0x0 PUSH2 0x20EB JUMP JUMPDEST SWAP1 POP PUSH2 0x3314 PUSH8 0x1BC16D674EC80000 PUSH2 0x330E DUP4 PUSH2 0x32FA DUP7 PUSH8 0xDE0B6B3A7640000 PUSH2 0x4E36 JUMP JUMPDEST PUSH2 0x3304 SWAP2 SWAP1 PUSH2 0x4E22 JUMP JUMPDEST PUSH2 0x16C SLOAD SWAP1 PUSH2 0x3728 JUMP JUMPDEST SWAP1 PUSH2 0x2AD7 JUMP JUMPDEST SWAP8 POP POP POP POP POP POP POP POP SWAP1 JUMP JUMPDEST PUSH1 0x0 PUSH2 0x3346 PUSH1 0x40 MLOAD DUP1 PUSH1 0x60 ADD PUSH1 0x40 MSTORE DUP1 PUSH1 0x0 DUP2 MSTORE PUSH1 0x20 ADD PUSH1 0x0 DUP2 MSTORE PUSH1 0x20 ADD PUSH1 0x0 DUP2 MSTORE POP SWAP1 JUMP JUMPDEST PUSH2 0x336A PUSH1 0x40 MLOAD DUP1 PUSH1 0x60 ADD PUSH1 0x40 MSTORE DUP1 PUSH1 0x0 DUP2 MSTORE PUSH1 0x20 ADD PUSH1 0x0 DUP2 MSTORE PUSH1 0x20 ADD PUSH1 0x0 DUP2 MSTORE POP SWAP1 JUMP JUMPDEST PUSH2 0x180 SLOAD PUSH2 0x337A SWAP1 PUSH1 0x1 SWAP1 PUSH2 0x4ECD JUMP JUMPDEST DUP7 LT ISZERO PUSH2 0x33D3 JUMPI PUSH2 0x180 DUP7 DUP2 SLOAD DUP2 LT PUSH2 0x3395 JUMPI PUSH2 0x3395 PUSH2 0x4FBE JUMP JUMPDEST SWAP1 PUSH1 0x0 MSTORE PUSH1 0x20 PUSH1 0x0 KECCAK256 SWAP1 PUSH1 0x3 MUL ADD PUSH1 0x40 MLOAD DUP1 PUSH1 0x60 ADD PUSH1 0x40 MSTORE SWAP1 DUP2 PUSH1 0x0 DUP3 ADD SLOAD DUP2 MSTORE PUSH1 0x20 ADD PUSH1 0x1 DUP3 ADD SLOAD DUP2 MSTORE PUSH1 0x20 ADD PUSH1 0x2 DUP3 ADD SLOAD DUP2 MSTORE POP POP SWAP2 POP PUSH2 0x342B JUMP JUMPDEST DUP5 ISZERO PUSH2 0x33F2 JUMPI PUSH2 0x33EB PUSH2 0x17E SLOAD TIMESTAMP PUSH2 0x4A2 SWAP2 SWAP1 PUSH2 0x4ECD JUMP JUMPDEST SWAP2 POP PUSH2 0x342B JUMP JUMPDEST PUSH1 0x40 MLOAD PUSH3 0x461BCD PUSH1 0xE5 SHL DUP2 MSTORE PUSH1 0x20 PUSH1 0x4 DUP3 ADD MSTORE PUSH1 0xE PUSH1 0x24 DUP3 ADD MSTORE PUSH14 0x13D593158C4E885CD95D1D1B1959 PUSH1 0x92 SHL PUSH1 0x44 DUP3 ADD MSTORE PUSH1 0x64 ADD PUSH2 0x947 JUMP JUMPDEST PUSH2 0x3438 PUSH2 0x4A2 DUP6 TIMESTAMP PUSH2 0x4ECD JUMP JUMPDEST SWAP1 POP DUP7 PUSH2 0x344F JUMPI DUP2 MLOAD PUSH1 0x20 DUP3 ADD MLOAD PUSH2 0x21CF SWAP2 PUSH2 0x2A5E JUMP JUMPDEST PUSH1 0x20 DUP3 ADD MLOAD DUP2 MLOAD PUSH2 0x21EC SWAP2 PUSH2 0xC98 SWAP2 SWAP1 PUSH2 0x2AD7 JUMP JUMPDEST PUSH2 0x180 DUP1 SLOAD PUSH1 0x1 DUP2 ADD DUP3 SSTORE PUSH1 0x0 SWAP2 SWAP1 SWAP2 MSTORE DUP2 MLOAD PUSH1 0x3 SWAP1 SWAP2 MUL PUSH32 0x3F79C16506060041AE6A4FF1E4CFB5037336B23850175E9BD090BD20EEE718E5 DUP2 ADD DUP3 SWAP1 SSTORE PUSH1 0x20 DUP1 DUP5 ADD MLOAD PUSH32 0x3F79C16506060041AE6A4FF1E4CFB5037336B23850175E9BD090BD20EEE718E6 DUP4 ADD DUP2 SWAP1 SSTORE PUSH1 0x40 DUP1 DUP7 ADD MLOAD PUSH32 0x3F79C16506060041AE6A4FF1E4CFB5037336B23850175E9BD090BD20EEE718E7 SWAP1 SWAP5 ADD DUP5 SWAP1 SSTORE DUP1 MLOAD SWAP5 DUP6 MSTORE SWAP2 DUP5 ADD MSTORE DUP3 ADD MSTORE PUSH32 0x7F422DD5CD123CCCA7C61CA8286EE04CB58966E2C07631CC2B660F81713C98E5 SWAP1 PUSH1 0x60 ADD PUSH1 0x40 MLOAD DUP1 SWAP2 SUB SWAP1 LOG1 POP JUMP JUMPDEST PUSH1 0x0 DUP2 ISZERO PUSH2 0x3559 JUMPI PUSH2 0x354C PUSH2 0x17B SLOAD DUP4 PUSH2 0x3B2D JUMP JUMPDEST POP PUSH2 0x3555 PUSH2 0x3BA1 JUMP JUMPDEST POP PUSH1 0x1 JUMPDEST SWAP2 SWAP1 POP JUMP JUMPDEST PUSH2 0x3582 PUSH1 0x40 MLOAD DUP1 PUSH1 0x60 ADD PUSH1 0x40 MSTORE DUP1 PUSH1 0x0 DUP2 MSTORE PUSH1 0x20 ADD PUSH1 0x0 DUP2 MSTORE PUSH1 0x20 ADD PUSH1 0x0 DUP2 MSTORE POP SWAP1 JUMP JUMPDEST PUSH1 0x0 DUP1 PUSH1 0x0 DUP1 PUSH1 0x0 DUP1 PUSH2 0x359C PUSH1 0x2 PUSH1 0x0 SLOAD PUSH2 0x16B SLOAD PUSH2 0x393A JUMP JUMPDEST SWAP3 POP SWAP3 POP SWAP3 POP PUSH2 0x35AA PUSH2 0x1943 JUMP JUMPDEST SWAP4 POP PUSH1 0x0 PUSH2 0x35B8 DUP10 DUP7 PUSH2 0x2AD7 JUMP JUMPDEST SWAP1 POP DUP10 ISZERO PUSH2 0x35DA JUMPI DUP1 DUP4 PUSH1 0x20 ADD DUP2 DUP2 MLOAD PUSH2 0x35D2 SWAP2 SWAP1 PUSH2 0x4DA6 JUMP JUMPDEST SWAP1 MSTORE POP PUSH2 0x35F0 JUMP JUMPDEST DUP1 DUP4 PUSH1 0x40 ADD DUP2 DUP2 MLOAD PUSH2 0x35EC SWAP2 SWAP1 PUSH2 0x4DA6 JUMP JUMPDEST SWAP1 MSTORE POP JUMPDEST PUSH1 0x0 PUSH2 0x3631 DUP12 PUSH2 0x3613 JUMPI DUP4 PUSH1 0x40 ADD MLOAD DUP6 PUSH1 0x40 ADD MLOAD PUSH2 0x360E SWAP2 SWAP1 PUSH2 0x4ECD JUMP JUMPDEST PUSH2 0x3627 JUMP JUMPDEST DUP4 PUSH1 0x20 ADD MLOAD DUP6 PUSH1 0x20 ADD MLOAD PUSH2 0x3627 SWAP2 SWAP1 PUSH2 0x4ECD JUMP JUMPDEST PUSH2 0x16C SLOAD SWAP1 PUSH2 0x2898 JUMP JUMPDEST SWAP1 POP DUP5 SWAP8 POP DUP4 SWAP9 POP DUP2 PUSH1 0x0 EQ ISZERO PUSH2 0x3649 JUMPI PUSH1 0x0 PUSH2 0x366D JUMP JUMPDEST PUSH2 0x366D PUSH2 0x365E PUSH8 0x51AF86713316A9A DUP4 PUSH2 0x3782 JUMP JUMPDEST PUSH8 0xDE0B6B3A7640000 SWAP1 PUSH2 0x3C22 JUMP JUMPDEST SWAP7 POP POP POP POP POP POP SWAP3 SWAP6 SWAP2 SWAP5 POP SWAP3 POP JUMP JUMPDEST DUP3 MLOAD PUSH1 0x0 SWAP1 DUP4 EQ PUSH2 0x36E7 JUMPI PUSH2 0x3693 PUSH1 0x1 DUP4 PUSH2 0x4DA6 JUMP JUMPDEST SWAP2 POP PUSH1 0x3C DUP3 LT ISZERO PUSH2 0x36DB JUMPI DUP4 DUP6 DUP4 PUSH1 0x3C DUP2 LT PUSH2 0x36B1 JUMPI PUSH2 0x36B1 PUSH2 0x4FBE JUMP JUMPDEST PUSH1 0x3 MUL ADD PUSH1 0x0 DUP3 ADD MLOAD DUP2 PUSH1 0x0 ADD SSTORE PUSH1 0x20 DUP3 ADD MLOAD DUP2 PUSH1 0x1 ADD SSTORE PUSH1 0x40 DUP3 ADD MLOAD DUP2 PUSH1 0x2 ADD SSTORE SWAP1 POP POP PUSH2 0x3720 JUMP JUMPDEST PUSH1 0x0 SWAP2 POP DUP4 DUP6 DUP4 PUSH2 0x36B1 JUMP JUMPDEST DUP4 DUP6 DUP4 PUSH1 0x3C DUP2 LT PUSH2 0x36FA JUMPI PUSH2 0x36FA PUSH2 0x4FBE JUMP JUMPDEST PUSH1 0x3 MUL ADD PUSH1 0x0 DUP3 ADD MLOAD DUP2 PUSH1 0x0 ADD SSTORE PUSH1 0x20 DUP3 ADD MLOAD DUP2 PUSH1 0x1 ADD SSTORE PUSH1 0x40 DUP3 ADD MLOAD DUP2 PUSH1 0x2 ADD SSTORE SWAP1 POP POP JUMPDEST POP SWAP4 SWAP3 POP POP POP JUMP JUMPDEST PUSH1 0x0 DUP1 PUSH2 0x3735 DUP4 DUP6 PUSH2 0x4E36 JUMP JUMPDEST SWAP1 POP PUSH2 0x374D DUP5 ISZERO DUP1 PUSH2 0x28BF JUMPI POP DUP4 PUSH2 0x28BD DUP7 DUP5 PUSH2 0x4E22 JUMP JUMPDEST DUP1 PUSH2 0x375C JUMPI PUSH1 0x0 SWAP2 POP POP PUSH2 0x28DC JUMP JUMPDEST PUSH8 0xDE0B6B3A7640000 PUSH2 0x2ABA PUSH1 0x1 DUP4 PUSH2 0x4ECD JUMP JUMPDEST DUP2 PUSH2 0x377E JUMPI PUSH2 0x377E DUP2 PUSH2 0x3C3E JUMP JUMPDEST POP POP JUMP JUMPDEST PUSH1 0x0 DUP3 PUSH8 0xDE0B6B3A7640000 EQ DUP1 PUSH2 0x3798 JUMPI POP DUP2 ISZERO JUMPDEST ISZERO PUSH2 0x37AC JUMPI POP PUSH8 0xDE0B6B3A7640000 PUSH2 0x28DC JUMP JUMPDEST PUSH1 0x0 PUSH2 0x37B8 DUP5 DUP5 PUSH2 0x3C91 JUMP JUMPDEST SWAP1 POP PUSH1 0x0 PUSH2 0x37D2 PUSH2 0x37CB DUP4 PUSH2 0x2710 PUSH2 0x3728 JUMP JUMPDEST PUSH1 0x1 PUSH2 0x3D71 JUMP JUMPDEST SWAP1 POP PUSH2 0x37DE DUP3 DUP3 PUSH2 0x3D71 JUMP JUMPDEST SWAP6 SWAP5 POP POP POP POP POP JUMP JUMPDEST PUSH1 0x0 DUP2 DUP4 LT ISZERO PUSH2 0x2B38 JUMPI DUP2 PUSH2 0x2782 JUMP JUMPDEST PUSH1 0x0 DUP1 DUP1 DUP7 ISZERO DUP1 ISZERO PUSH2 0x3807 JUMPI POP DUP6 ISZERO JUMPDEST ISZERO PUSH2 0x381A JUMPI POP PUSH1 0x0 SWAP2 POP DUP2 SWAP1 POP DUP1 PUSH2 0x3930 JUMP JUMPDEST DUP5 PUSH2 0x382D JUMPI POP DUP6 SWAP2 POP DUP5 SWAP1 POP PUSH1 0x0 PUSH2 0x3930 JUMP JUMPDEST PUSH1 0x0 PUSH2 0x384F PUSH2 0x365E PUSH2 0x3848 PUSH8 0xDE0B6B3A7640000 PUSH1 0x2 PUSH2 0x4E36 JUMP JUMPDEST DUP8 SWAP1 PUSH2 0x3728 JUMP JUMPDEST SWAP1 POP PUSH2 0x386D PUSH2 0x3866 DUP8 PUSH8 0xDE0B6B3A7640000 PUSH2 0x4E36 JUMP JUMPDEST DUP3 SWAP1 PUSH2 0x3782 JUMP JUMPDEST SWAP1 POP DUP8 DUP8 DUP1 DUP3 GT DUP1 ISZERO SWAP1 PUSH2 0x387F JUMPI SWAP1 SWAP2 SWAP1 JUMPDEST DUP2 PUSH2 0x38A5 JUMPI PUSH1 0x0 PUSH2 0x3890 DUP6 DUP6 PUSH2 0x2898 JUMP JUMPDEST SWAP1 POP PUSH2 0x389C DUP2 DUP6 PUSH2 0x4ECD JUMP JUMPDEST SWAP6 POP SWAP3 POP PUSH2 0x390B JUMP JUMPDEST PUSH1 0x0 PUSH2 0x38BB PUSH2 0x38B4 DUP5 DUP7 PUSH2 0x4ECD JUMP JUMPDEST DUP7 SWAP1 PUSH2 0x2898 JUMP JUMPDEST SWAP1 POP PUSH1 0x0 PUSH2 0x38C9 DUP5 DUP7 PUSH2 0x4DA6 JUMP JUMPDEST SWAP1 POP PUSH1 0x2 PUSH2 0x38D7 DUP4 DUP4 PUSH2 0x4DA6 JUMP JUMPDEST PUSH2 0x38E1 SWAP2 SWAP1 PUSH2 0x4E22 JUMP JUMPDEST SWAP5 POP PUSH1 0x2 PUSH2 0x38EF DUP4 DUP4 PUSH2 0x4ECD JUMP JUMPDEST PUSH2 0x38F9 SWAP2 SWAP1 PUSH2 0x4E22 JUMP JUMPDEST SWAP4 POP PUSH2 0x3906 PUSH1 0x2 DUP4 PUSH2 0x4E22 JUMP JUMPDEST SWAP7 POP POP POP JUMPDEST DUP1 PUSH2 0x3920 JUMPI DUP3 DUP3 PUSH2 0x391B DUP8 PUSH2 0x4F75 JUMP JUMPDEST PUSH2 0x3924 JUMP JUMPDEST DUP2 DUP4 DUP7 JUMPDEST SWAP2 SWAP9 POP SWAP7 POP SWAP5 POP POP POP POP POP JUMPDEST SWAP5 POP SWAP5 POP SWAP5 SWAP2 POP POP JUMP JUMPDEST PUSH1 0x0 PUSH2 0x3960 PUSH1 0x40 MLOAD DUP1 PUSH1 0x60 ADD PUSH1 0x40 MSTORE DUP1 PUSH1 0x0 DUP2 MSTORE PUSH1 0x20 ADD PUSH1 0x0 DUP2 MSTORE PUSH1 0x20 ADD PUSH1 0x0 DUP2 MSTORE POP SWAP1 JUMP JUMPDEST PUSH2 0x3984 PUSH1 0x40 MLOAD DUP1 PUSH1 0x60 ADD PUSH1 0x40 MSTORE DUP1 PUSH1 0x0 DUP2 MSTORE PUSH1 0x20 ADD PUSH1 0x0 DUP2 MSTORE PUSH1 0x20 ADD PUSH1 0x0 DUP2 MSTORE POP SWAP1 JUMP JUMPDEST TIMESTAMP DUP7 DUP7 PUSH1 0x3C DUP2 LT PUSH2 0x3997 JUMPI PUSH2 0x3997 PUSH2 0x4FBE JUMP JUMPDEST PUSH1 0x3 MUL ADD PUSH1 0x40 MLOAD DUP1 PUSH1 0x60 ADD PUSH1 0x40 MSTORE SWAP1 DUP2 PUSH1 0x0 DUP3 ADD SLOAD DUP2 MSTORE PUSH1 0x20 ADD PUSH1 0x1 DUP3 ADD SLOAD DUP2 MSTORE PUSH1 0x20 ADD PUSH1 0x2 DUP3 ADD SLOAD DUP2 MSTORE POP POP SWAP3 POP DUP3 PUSH1 0x0 ADD MLOAD SWAP4 POP PUSH1 0x0 DUP6 DUP3 PUSH2 0x39DB SWAP2 SWAP1 PUSH2 0x4ECD JUMP JUMPDEST SWAP1 POP DUP1 DUP5 PUSH1 0x0 ADD MLOAD GT PUSH2 0x3A04 JUMPI POP DUP3 MSTORE PUSH1 0x20 DUP1 DUP4 ADD MLOAD SWAP1 DUP3 ADD MSTORE PUSH1 0x40 DUP1 DUP4 ADD MLOAD SWAP1 DUP3 ADD MSTORE PUSH2 0x3B24 JUMP JUMPDEST DUP4 MLOAD DUP3 EQ PUSH2 0x3A10 JUMPI DUP2 DUP5 MSTORE JUMPDEST PUSH1 0x0 DUP1 PUSH2 0x3A1E DUP11 DUP11 DUP6 PUSH2 0x3D8E JUMP JUMPDEST DUP2 MLOAD SWAP2 SWAP4 POP SWAP2 POP DUP4 EQ ISZERO PUSH2 0x3A34 JUMPI DUP2 SWAP5 POP PUSH2 0x3B1F JUMP JUMPDEST DUP1 MLOAD DUP4 EQ ISZERO PUSH2 0x3A45 JUMPI DUP1 SWAP5 POP PUSH2 0x3B1F JUMP JUMPDEST DUP2 MLOAD DUP2 MLOAD EQ ISZERO PUSH2 0x3A57 JUMPI DUP2 SWAP5 POP PUSH2 0x3B1F JUMP JUMPDEST PUSH1 0x0 DUP3 PUSH1 0x20 ADD MLOAD DUP3 PUSH1 0x20 ADD MLOAD PUSH2 0x3A6D SWAP2 SWAP1 PUSH2 0x4ECD JUMP JUMPDEST SWAP1 POP PUSH1 0x0 DUP4 PUSH1 0x40 ADD MLOAD DUP4 PUSH1 0x40 ADD MLOAD PUSH2 0x3A85 SWAP2 SWAP1 PUSH2 0x4ECD JUMP JUMPDEST DUP5 MLOAD DUP5 MLOAD SWAP2 SWAP3 POP PUSH1 0x0 SWAP2 PUSH2 0x3A99 SWAP2 SWAP1 PUSH2 0x4ECD JUMP JUMPDEST PUSH2 0x3AAB SWAP1 PUSH8 0xDE0B6B3A7640000 PUSH2 0x4E36 JUMP JUMPDEST SWAP1 POP PUSH1 0x0 PUSH2 0x3ADB DUP3 DUP8 PUSH1 0x0 ADD MLOAD DUP10 PUSH2 0x3AC3 SWAP2 SWAP1 PUSH2 0x4ECD JUMP JUMPDEST PUSH2 0x3AD5 SWAP1 PUSH8 0xDE0B6B3A7640000 PUSH2 0x4E36 JUMP JUMPDEST SWAP1 PUSH2 0x2A5E JUMP JUMPDEST SWAP1 POP PUSH2 0x3AF5 PUSH2 0x3AEA DUP6 DUP4 PUSH2 0x2898 JUMP JUMPDEST PUSH1 0x20 DUP9 ADD MLOAD SWAP1 PUSH2 0x3D71 JUMP JUMPDEST PUSH1 0x20 DUP11 ADD MSTORE PUSH2 0x3B12 PUSH2 0x3B07 DUP5 DUP4 PUSH2 0x2898 JUMP JUMPDEST PUSH1 0x40 DUP9 ADD MLOAD SWAP1 PUSH2 0x3D71 JUMP JUMPDEST PUSH1 0x40 DUP11 ADD MSTORE POP POP POP DUP4 DUP7 MSTORE POP JUMPDEST POP POP POP POP JUMPDEST SWAP4 POP SWAP4 POP SWAP4 SWAP1 POP JUMP JUMPDEST PUSH1 0x0 DUP1 PUSH1 0x0 PUSH2 0x3B44 PUSH2 0x175 SLOAD PUSH2 0x176 SLOAD DUP7 DUP9 PUSH2 0x37F7 JUMP JUMPDEST PUSH2 0x175 DUP4 SWAP1 SSTORE PUSH2 0x176 DUP3 SWAP1 SSTORE PUSH1 0x40 DUP1 MLOAD DUP5 DUP2 MSTORE PUSH1 0x20 DUP2 ADD DUP5 SWAP1 MSTORE SWAP1 DUP2 ADD DUP3 SWAP1 MSTORE SWAP1 SWAP6 POP SWAP2 SWAP4 POP SWAP2 POP PUSH32 0xBD9B2EB2E69E8D71702753E645D1FBCDA9B8473629152F5A3CBC18BC2CEECC2F SWAP1 PUSH1 0x60 ADD PUSH1 0x40 MLOAD DUP1 SWAP2 SUB SWAP1 LOG1 POP POP SWAP3 SWAP2 POP POP JUMP JUMPDEST PUSH2 0x179 SLOAD PUSH2 0x17A SLOAD PUSH2 0x175 DUP1 SLOAD DUP4 SWAP2 SWAP1 PUSH1 0x0 SWAP1 PUSH2 0x3BBF SWAP1 DUP5 SWAP1 PUSH2 0x4DA6 JUMP JUMPDEST SWAP3 POP POP DUP2 SWAP1 SSTORE POP DUP1 PUSH2 0x176 PUSH1 0x0 DUP3 DUP3 SLOAD PUSH2 0x3BD9 SWAP2 SWAP1 PUSH2 0x4DA6 JUMP JUMPDEST SWAP3 POP POP DUP2 SWAP1 SSTORE POP DUP2 PUSH2 0x177 PUSH1 0x0 DUP3 DUP3 SLOAD PUSH2 0x3BF3 SWAP2 SWAP1 PUSH2 0x4DA6 JUMP JUMPDEST SWAP3 POP POP DUP2 SWAP1 SSTORE POP DUP1 PUSH2 0x178 PUSH1 0x0 DUP3 DUP3 SLOAD PUSH2 0x3C0D SWAP2 SWAP1 PUSH2 0x4DA6 JUMP JUMPDEST SWAP1 SWAP2 SSTORE POP POP PUSH1 0x0 PUSH2 0x179 DUP2 SWAP1 SSTORE PUSH2 0x17A SSTORE POP POP JUMP JUMPDEST PUSH1 0x0 PUSH2 0x3C32 DUP4 DUP4 GT ISZERO PUSH1 0x1 PUSH2 0x3770 JUMP JUMPDEST PUSH1 0x0 PUSH2 0x28D8 DUP4 DUP6 PUSH2 0x4ECD JUMP JUMPDEST PUSH3 0x461BCD PUSH1 0xE5 SHL PUSH1 0x0 SWAP1 DUP2 MSTORE PUSH1 0x20 PUSH1 0x4 MSTORE PUSH1 0x7 PUSH1 0x24 MSTORE PUSH7 0x42414C23000030 PUSH1 0xA DUP1 DUP5 DIV DUP2 DUP2 MOD PUSH1 0x30 SWAP1 DUP2 ADD PUSH1 0x8 SHL SWAP6 DUP4 SWAP1 MOD SWAP6 SWAP1 SWAP6 ADD SWAP1 DUP3 SWAP1 DIV SWAP2 DUP3 MOD SWAP1 SWAP5 ADD PUSH1 0x10 SHL SWAP4 SWAP1 SWAP4 ADD ADD PUSH1 0xC8 SHL PUSH1 0x44 MSTORE PUSH1 0x64 SWAP1 REVERT JUMPDEST PUSH1 0x0 PUSH2 0x3CA4 PUSH1 0x1 PUSH1 0xFF SHL DUP5 LT PUSH1 0x6 PUSH2 0x3770 JUMP JUMPDEST DUP3 PUSH2 0x3CCA PUSH24 0xBCE5086492111AEA88F4BB1CA6BCF584181EA8059F76532 DUP5 LT PUSH1 0x7 PUSH2 0x3770 JUMP JUMPDEST DUP3 PUSH1 0x0 PUSH8 0xC7D713B49DA0000 DUP4 SGT DUP1 ISZERO PUSH2 0x3CEB JUMPI POP PUSH8 0xF43FC2C04EE0000 DUP4 SLT JUMPDEST ISZERO PUSH2 0x3D22 JUMPI PUSH1 0x0 PUSH2 0x3CFB DUP5 PUSH2 0x3F00 JUMP JUMPDEST SWAP1 POP PUSH8 0xDE0B6B3A7640000 DUP1 DUP3 SMOD DUP5 MUL SDIV DUP4 PUSH8 0xDE0B6B3A7640000 DUP4 SDIV MUL ADD SWAP2 POP POP PUSH2 0x3D30 JUMP JUMPDEST DUP2 PUSH2 0x3D2C DUP5 PUSH2 0x4028 JUMP JUMPDEST MUL SWAP1 POP JUMPDEST PUSH8 0xDE0B6B3A7640000 SWAP1 SDIV PUSH2 0x3D68 PUSH9 0x238FD42C5CF03FFFF NOT DUP3 SLT DUP1 ISZERO SWAP1 PUSH2 0x3D61 JUMPI POP PUSH9 0x70C1CC73B00C80000 DUP3 SGT ISZERO JUMPDEST PUSH1 0x8 PUSH2 0x3770 JUMP JUMPDEST PUSH2 0x1003 DUP2 PUSH2 0x43D3 JUMP JUMPDEST PUSH1 0x0 DUP1 PUSH2 0x3D7E DUP4 DUP6 PUSH2 0x4DA6 JUMP JUMPDEST SWAP1 POP PUSH2 0x2782 DUP5 DUP3 LT ISZERO PUSH1 0x0 PUSH2 0x3770 JUMP JUMPDEST PUSH2 0x3DB2 PUSH1 0x40 MLOAD DUP1 PUSH1 0x60 ADD PUSH1 0x40 MSTORE DUP1 PUSH1 0x0 DUP2 MSTORE PUSH1 0x20 ADD PUSH1 0x0 DUP2 MSTORE PUSH1 0x20 ADD PUSH1 0x0 DUP2 MSTORE POP SWAP1 JUMP JUMPDEST PUSH2 0x3DD6 PUSH1 0x40 MLOAD DUP1 PUSH1 0x60 ADD PUSH1 0x40 MSTORE DUP1 PUSH1 0x0 DUP2 MSTORE PUSH1 0x20 ADD PUSH1 0x0 DUP2 MSTORE PUSH1 0x20 ADD PUSH1 0x0 DUP2 MSTORE POP SWAP1 JUMP JUMPDEST DUP5 DUP5 PUSH1 0x3C DUP2 LT PUSH2 0x3DE8 JUMPI PUSH2 0x3DE8 PUSH2 0x4FBE JUMP JUMPDEST PUSH1 0x3 MUL ADD PUSH1 0x40 MLOAD DUP1 PUSH1 0x60 ADD PUSH1 0x40 MSTORE SWAP1 DUP2 PUSH1 0x0 DUP3 ADD SLOAD DUP2 MSTORE PUSH1 0x20 ADD PUSH1 0x1 DUP3 ADD SLOAD DUP2 MSTORE PUSH1 0x20 ADD PUSH1 0x2 DUP3 ADD SLOAD DUP2 MSTORE POP POP SWAP2 POP DUP3 DUP3 PUSH1 0x0 ADD MLOAD GT PUSH2 0x3E4C JUMPI DUP2 MLOAD DUP4 EQ ISZERO PUSH2 0x3E30 JUMPI PUSH2 0x3EF8 JUMP JUMPDEST TIMESTAMP DUP2 MSTORE PUSH1 0x20 DUP1 DUP4 ADD MLOAD SWAP1 DUP3 ADD MSTORE PUSH1 0x40 DUP1 DUP4 ADD MLOAD SWAP1 DUP3 ADD MSTORE PUSH2 0x3EF8 JUMP JUMPDEST PUSH1 0x3C PUSH2 0x3E59 DUP6 PUSH1 0x1 PUSH2 0x4DA6 JUMP JUMPDEST PUSH2 0x3E63 SWAP2 SWAP1 PUSH2 0x4F47 JUMP JUMPDEST SWAP4 POP DUP5 DUP5 PUSH1 0x3C DUP2 LT PUSH2 0x3E77 JUMPI PUSH2 0x3E77 PUSH2 0x4FBE JUMP JUMPDEST PUSH1 0x3 MUL ADD PUSH1 0x40 MLOAD DUP1 PUSH1 0x60 ADD PUSH1 0x40 MSTORE SWAP1 DUP2 PUSH1 0x0 DUP3 ADD SLOAD DUP2 MSTORE PUSH1 0x20 ADD PUSH1 0x1 DUP3 ADD SLOAD DUP2 MSTORE PUSH1 0x20 ADD PUSH1 0x2 DUP3 ADD SLOAD DUP2 MSTORE POP POP SWAP2 POP PUSH1 0x1 DUP3 PUSH1 0x0 ADD MLOAD GT PUSH2 0x3ED9 JUMPI PUSH1 0x40 DUP1 MLOAD PUSH1 0x60 DUP2 ADD DUP3 MSTORE DUP7 SLOAD DUP2 MSTORE PUSH1 0x1 DUP8 ADD SLOAD PUSH1 0x20 DUP3 ADD MSTORE PUSH1 0x2 DUP8 ADD SLOAD SWAP2 DUP2 ADD SWAP2 SWAP1 SWAP2 MSTORE SWAP2 POP JUMPDEST DUP2 MLOAD DUP4 GT PUSH2 0x3EE8 JUMPI POP DUP1 PUSH2 0x3EF8 JUMP JUMPDEST PUSH2 0x3EF3 DUP6 DUP5 DUP7 PUSH2 0x47B6 JUMP JUMPDEST SWAP2 POP SWAP2 POP JUMPDEST SWAP4 POP SWAP4 SWAP2 POP POP JUMP JUMPDEST PUSH8 0xDE0B6B3A7640000 MUL PUSH1 0x0 DUP1 PUSH15 0xC097CE7BC90715B34B9F1000000000 DUP1 DUP5 ADD SWAP1 PUSH15 0xC097CE7BC90715B34B9F0FFFFFFFFF NOT DUP6 ADD MUL DUP2 PUSH2 0x3F42 JUMPI PUSH2 0x3F42 PUSH2 0x4FA8 JUMP JUMPDEST SDIV SWAP1 POP PUSH1 0x0 PUSH15 0xC097CE7BC90715B34B9F1000000000 DUP3 DUP1 MUL SDIV SWAP1 POP DUP2 DUP1 PUSH15 0xC097CE7BC90715B34B9F1000000000 DUP2 DUP5 MUL SDIV SWAP2 POP PUSH1 0x3 DUP3 SDIV ADD PUSH15 0xC097CE7BC90715B34B9F1000000000 DUP3 DUP5 MUL SDIV SWAP2 POP PUSH1 0x5 DUP3 SDIV ADD PUSH15 0xC097CE7BC90715B34B9F1000000000 DUP3 DUP5 MUL SDIV SWAP2 POP PUSH1 0x7 DUP3 SDIV ADD PUSH15 0xC097CE7BC90715B34B9F1000000000 DUP3 DUP5 MUL SDIV SWAP2 POP PUSH1 0x9 DUP3 SDIV ADD PUSH15 0xC097CE7BC90715B34B9F1000000000 DUP3 DUP5 MUL SDIV SWAP2 POP PUSH1 0xB DUP3 SDIV ADD PUSH15 0xC097CE7BC90715B34B9F1000000000 DUP3 DUP5 MUL SDIV SWAP2 POP PUSH1 0xD DUP3 SDIV ADD PUSH15 0xC097CE7BC90715B34B9F1000000000 DUP3 DUP5 MUL SDIV SWAP2 POP PUSH1 0xF DUP3 SDIV ADD PUSH1 0x2 MUL SWAP6 SWAP5 POP POP POP POP POP JUMP JUMPDEST PUSH1 0x0 PUSH8 0xDE0B6B3A7640000 DUP3 SLT ISZERO PUSH2 0x406A JUMPI PUSH2 0x4061 DUP3 PUSH15 0xC097CE7BC90715B34B9F1000000000 DUP2 PUSH2 0x405B JUMPI PUSH2 0x405B PUSH2 0x4FA8 JUMP JUMPDEST SDIV PUSH2 0x4028 JUMP JUMPDEST PUSH1 0x0 SUB SWAP3 SWAP2 POP POP JUMP JUMPDEST PUSH1 0x0 PUSH31 0x1600EF3172E58D2E933EC884FDE10064C63B5372D805E203C0000000000000 DUP4 SLT PUSH2 0x40BB JUMPI PUSH24 0x195E54C5DD42177F53A27172FA9EC630262827000000000 DUP4 SDIV SWAP3 POP PUSH9 0x6F05B59D3B2000000 ADD JUMPDEST PUSH20 0x11798004D755D3C8BC8E03204CF44619E000000 DUP4 SLT PUSH2 0x40F3 JUMPI PUSH12 0x1425982CF597CD205CEF7380 DUP4 SDIV SWAP3 POP PUSH9 0x3782DACE9D9000000 ADD JUMPDEST PUSH1 0x64 SWAP3 DUP4 MUL SWAP3 MUL PUSH15 0x1855144814A7FF805980FF0084000 DUP4 SLT PUSH2 0x413B JUMPI PUSH15 0x1855144814A7FF805980FF0084000 PUSH9 0x56BC75E2D63100000 DUP5 MUL SDIV SWAP3 POP PUSH9 0xAD78EBC5AC62000000 ADD JUMPDEST PUSH12 0x2DF0AB5A80A22C61AB5A700 DUP4 SLT PUSH2 0x4176 JUMPI PUSH12 0x2DF0AB5A80A22C61AB5A700 PUSH9 0x56BC75E2D63100000 DUP5 MUL SDIV SWAP3 POP PUSH9 0x56BC75E2D631000000 ADD JUMPDEST PUSH10 0x3F1FCE3DA636EA5CF850 DUP4 SLT PUSH2 0x41AD JUMPI PUSH10 0x3F1FCE3DA636EA5CF850 PUSH9 0x56BC75E2D63100000 DUP5 MUL SDIV SWAP3 POP PUSH9 0x2B5E3AF16B18800000 ADD JUMPDEST PUSH10 0x127FA27722CC06CC5E2 DUP4 SLT PUSH2 0x41E4 JUMPI PUSH10 0x127FA27722CC06CC5E2 PUSH9 0x56BC75E2D63100000 DUP5 MUL SDIV SWAP3 POP PUSH9 0x15AF1D78B58C400000 ADD JUMPDEST PUSH9 0x280E60114EDB805D03 DUP4 SLT PUSH2 0x4219 JUMPI PUSH9 0x280E60114EDB805D03 PUSH9 0x56BC75E2D63100000 DUP5 MUL SDIV SWAP3 POP PUSH9 0xAD78EBC5AC6200000 ADD JUMPDEST PUSH9 0xEBC5FB41746121110 DUP4 SLT PUSH2 0x4244 JUMPI PUSH9 0xEBC5FB41746121110 PUSH9 0x56BC75E2D63100000 SWAP4 DUP5 MUL SDIV SWAP3 ADD JUMPDEST PUSH9 0x8F00F760A4B2DB55D DUP4 SLT PUSH2 0x4279 JUMPI PUSH9 0x8F00F760A4B2DB55D PUSH9 0x56BC75E2D63100000 DUP5 MUL SDIV SWAP3 POP PUSH9 0x2B5E3AF16B1880000 ADD JUMPDEST PUSH9 0x6F5F1775788937937 DUP4 SLT PUSH2 0x42AE JUMPI PUSH9 0x6F5F1775788937937 PUSH9 0x56BC75E2D63100000 DUP5 MUL SDIV SWAP3 POP PUSH9 0x15AF1D78B58C40000 ADD JUMPDEST PUSH9 0x6248F33704B286603 DUP4 SLT PUSH2 0x42E2 JUMPI PUSH9 0x6248F33704B286603 PUSH9 0x56BC75E2D63100000 DUP5 MUL SDIV SWAP3 POP PUSH8 0xAD78EBC5AC620000 ADD JUMPDEST PUSH9 0x5C548670B9510E7AC DUP4 SLT PUSH2 0x4316 JUMPI PUSH9 0x5C548670B9510E7AC PUSH9 0x56BC75E2D63100000 DUP5 MUL SDIV SWAP3 POP PUSH8 0x56BC75E2D6310000 ADD JUMPDEST PUSH1 0x0 PUSH9 0x56BC75E2D63100000 DUP5 ADD PUSH9 0x56BC75E2D63100000 DUP1 DUP7 SUB MUL DUP2 PUSH2 0x433F JUMPI PUSH2 0x433F PUSH2 0x4FA8 JUMP JUMPDEST SDIV SWAP1 POP PUSH1 0x0 PUSH9 0x56BC75E2D63100000 DUP3 DUP1 MUL SDIV SWAP1 POP DUP2 DUP1 PUSH9 0x56BC75E2D63100000 DUP2 DUP5 MUL SDIV SWAP2 POP PUSH1 0x3 DUP3 SDIV ADD PUSH9 0x56BC75E2D63100000 DUP3 DUP5 MUL SDIV SWAP2 POP PUSH1 0x5 DUP3 SDIV ADD PUSH9 0x56BC75E2D63100000 DUP3 DUP5 MUL SDIV SWAP2 POP PUSH1 0x7 DUP3 SDIV ADD PUSH9 0x56BC75E2D63100000 DUP3 DUP5 MUL SDIV SWAP2 POP PUSH1 0x9 DUP3 SDIV ADD PUSH9 0x56BC75E2D63100000 DUP3 DUP5 MUL SDIV SWAP2 POP PUSH1 0xB DUP3 SDIV ADD PUSH1 0x2 MUL PUSH1 0x64 DUP6 DUP3 ADD SDIV SWAP8 SWAP7 POP POP POP POP POP POP POP JUMP JUMPDEST PUSH1 0x0 PUSH2 0x4402 PUSH9 0x238FD42C5CF03FFFF NOT DUP4 SLT ISZERO DUP1 ISZERO PUSH2 0x43FB JUMPI POP PUSH9 0x70C1CC73B00C80000 DUP4 SGT ISZERO JUMPDEST PUSH1 0x9 PUSH2 0x3770 JUMP JUMPDEST PUSH1 0x0 DUP3 SLT ISZERO PUSH2 0x443B JUMPI PUSH2 0x4417 DUP3 PUSH1 0x0 SUB PUSH2 0x43D3 JUMP JUMPDEST PUSH15 0xC097CE7BC90715B34B9F1000000000 DUP2 PUSH2 0x4434 JUMPI PUSH2 0x4434 PUSH2 0x4FA8 JUMP JUMPDEST SDIV SWAP3 SWAP2 POP POP JUMP JUMPDEST PUSH1 0x0 PUSH9 0x6F05B59D3B2000000 DUP4 SLT PUSH2 0x447B JUMPI POP PUSH9 0x6F05B59D3B1FFFFFF NOT SWAP1 SWAP2 ADD SWAP1 PUSH24 0x195E54C5DD42177F53A27172FA9EC630262827000000000 PUSH2 0x44B1 JUMP JUMPDEST PUSH9 0x3782DACE9D9000000 DUP4 SLT PUSH2 0x44AD JUMPI POP PUSH9 0x3782DACE9D8FFFFFF NOT SWAP1 SWAP2 ADD SWAP1 PUSH12 0x1425982CF597CD205CEF7380 PUSH2 0x44B1 JUMP JUMPDEST POP PUSH1 0x1 JUMPDEST PUSH1 0x64 SWAP3 SWAP1 SWAP3 MUL SWAP2 PUSH9 0x56BC75E2D63100000 PUSH9 0xAD78EBC5AC62000000 DUP5 SLT PUSH2 0x4501 JUMPI PUSH9 0xAD78EBC5AC61FFFFFF NOT SWAP1 SWAP4 ADD SWAP3 PUSH9 0x56BC75E2D63100000 PUSH15 0x1855144814A7FF805980FF0084000 DUP3 MUL SDIV SWAP1 POP JUMPDEST PUSH9 0x56BC75E2D631000000 DUP5 SLT PUSH2 0x453D JUMPI PUSH9 0x56BC75E2D630FFFFFF NOT SWAP1 SWAP4 ADD SWAP3 PUSH9 0x56BC75E2D63100000 PUSH12 0x2DF0AB5A80A22C61AB5A700 DUP3 MUL SDIV SWAP1 POP JUMPDEST PUSH9 0x2B5E3AF16B18800000 DUP5 SLT PUSH2 0x4577 JUMPI PUSH9 0x2B5E3AF16B187FFFFF NOT SWAP1 SWAP4 ADD SWAP3 PUSH9 0x56BC75E2D63100000 PUSH10 0x3F1FCE3DA636EA5CF850 DUP3 MUL SDIV SWAP1 POP JUMPDEST PUSH9 0x15AF1D78B58C400000 DUP5 SLT PUSH2 0x45B1 JUMPI PUSH9 0x15AF1D78B58C3FFFFF NOT SWAP1 SWAP4 ADD SWAP3 PUSH9 0x56BC75E2D63100000 PUSH10 0x127FA27722CC06CC5E2 DUP3 MUL SDIV SWAP1 POP JUMPDEST PUSH9 0xAD78EBC5AC6200000 DUP5 SLT PUSH2 0x45EA JUMPI PUSH9 0xAD78EBC5AC61FFFFF NOT SWAP1 SWAP4 ADD SWAP3 PUSH9 0x56BC75E2D63100000 PUSH9 0x280E60114EDB805D03 DUP3 MUL SDIV SWAP1 POP JUMPDEST PUSH9 0x56BC75E2D63100000 DUP5 SLT PUSH2 0x4623 JUMPI PUSH9 0x56BC75E2D630FFFFF NOT SWAP1 SWAP4 ADD SWAP3 PUSH9 0x56BC75E2D63100000 PUSH9 0xEBC5FB41746121110 DUP3 MUL SDIV SWAP1 POP JUMPDEST PUSH9 0x2B5E3AF16B1880000 DUP5 SLT PUSH2 0x465C JUMPI PUSH9 0x2B5E3AF16B187FFFF NOT SWAP1 SWAP4 ADD SWAP3 PUSH9 0x56BC75E2D63100000 PUSH9 0x8F00F760A4B2DB55D DUP3 MUL SDIV SWAP1 POP JUMPDEST PUSH9 0x15AF1D78B58C40000 DUP5 SLT PUSH2 0x4695 JUMPI PUSH9 0x15AF1D78B58C3FFFF NOT SWAP1 SWAP4 ADD SWAP3 PUSH9 0x56BC75E2D63100000 PUSH9 0x6F5F1775788937937 DUP3 MUL SDIV SWAP1 POP JUMPDEST PUSH9 0x56BC75E2D63100000 DUP5 DUP2 ADD SWAP1 DUP6 SWAP1 PUSH1 0x2 SWAP1 DUP3 DUP1 MUL SDIV SDIV SWAP2 DUP3 ADD SWAP2 SWAP1 POP PUSH1 0x3 PUSH9 0x56BC75E2D63100000 DUP8 DUP4 MUL SDIV SDIV SWAP2 DUP3 ADD SWAP2 SWAP1 POP PUSH1 0x4 PUSH9 0x56BC75E2D63100000 DUP8 DUP4 MUL SDIV SDIV SWAP2 DUP3 ADD SWAP2 SWAP1 POP PUSH1 0x5 PUSH9 0x56BC75E2D63100000 DUP8 DUP4 MUL SDIV SDIV SWAP2 DUP3 ADD SWAP2 SWAP1 POP PUSH1 0x6 PUSH9 0x56BC75E2D63100000 DUP8 DUP4 MUL SDIV SDIV SWAP2 DUP3 ADD SWAP2 SWAP1 POP PUSH1 0x7 PUSH9 0x56BC75E2D63100000 DUP8 DUP4 MUL SDIV SDIV SWAP2 DUP3 ADD SWAP2 SWAP1 POP PUSH1 0x8 PUSH9 0x56BC75E2D63100000 DUP8 DUP4 MUL SDIV SDIV SWAP2 DUP3 ADD SWAP2 SWAP1 POP PUSH1 0x9 PUSH9 0x56BC75E2D63100000 DUP8 DUP4 MUL SDIV SDIV SWAP2 DUP3 ADD SWAP2 SWAP1 POP PUSH1 0xA PUSH9 0x56BC75E2D63100000 DUP8 DUP4 MUL SDIV SDIV SWAP2 DUP3 ADD SWAP2 SWAP1 POP PUSH1 0xB PUSH9 0x56BC75E2D63100000 DUP8 DUP4 MUL SDIV SDIV SWAP2 DUP3 ADD SWAP2 SWAP1 POP PUSH1 0xC PUSH9 0x56BC75E2D63100000 DUP8 DUP4 MUL SDIV SDIV SWAP2 DUP3 ADD SWAP2 SWAP1 POP PUSH1 0x64 PUSH9 0x56BC75E2D63100000 DUP5 DUP5 MUL SDIV DUP6 MUL SDIV SWAP7 SWAP6 POP POP POP POP POP POP JUMP JUMPDEST PUSH2 0x47DA PUSH1 0x40 MLOAD DUP1 PUSH1 0x60 ADD PUSH1 0x40 MSTORE DUP1 PUSH1 0x0 DUP2 MSTORE PUSH1 0x20 ADD PUSH1 0x0 DUP2 MSTORE PUSH1 0x20 ADD PUSH1 0x0 DUP2 MSTORE POP SWAP1 JUMP JUMPDEST PUSH2 0x47FE PUSH1 0x40 MLOAD DUP1 PUSH1 0x60 ADD PUSH1 0x40 MSTORE DUP1 PUSH1 0x0 DUP2 MSTORE PUSH1 0x20 ADD PUSH1 0x0 DUP2 MSTORE PUSH1 0x20 ADD PUSH1 0x0 DUP2 MSTORE POP SWAP1 JUMP JUMPDEST PUSH1 0x0 PUSH1 0x3C PUSH2 0x480D DUP6 PUSH1 0x1 PUSH2 0x4D80 JUMP JUMPDEST PUSH2 0xFFFF AND PUSH2 0x481B SWAP2 SWAP1 PUSH2 0x4F47 JUMP JUMPDEST SWAP1 POP PUSH1 0x0 PUSH1 0x1 PUSH2 0x482C PUSH1 0x3C DUP5 PUSH2 0x4DA6 JUMP JUMPDEST PUSH2 0x4836 SWAP2 SWAP1 PUSH2 0x4ECD JUMP JUMPDEST SWAP1 POP PUSH1 0x0 JUMPDEST PUSH1 0x2 PUSH2 0x4847 DUP4 DUP6 PUSH2 0x4DA6 JUMP JUMPDEST PUSH2 0x4851 SWAP2 SWAP1 PUSH2 0x4E22 JUMP JUMPDEST SWAP1 POP DUP8 PUSH2 0x485F PUSH1 0x3C DUP4 PUSH2 0x4F47 JUMP JUMPDEST PUSH1 0x3C DUP2 LT PUSH2 0x486F JUMPI PUSH2 0x486F PUSH2 0x4FBE JUMP JUMPDEST PUSH1 0x3 MUL ADD PUSH1 0x40 MLOAD DUP1 PUSH1 0x60 ADD PUSH1 0x40 MSTORE SWAP1 DUP2 PUSH1 0x0 DUP3 ADD SLOAD DUP2 MSTORE PUSH1 0x20 ADD PUSH1 0x1 DUP3 ADD SLOAD DUP2 MSTORE PUSH1 0x20 ADD PUSH1 0x2 DUP3 ADD SLOAD DUP2 MSTORE POP POP SWAP5 POP PUSH1 0x1 DUP6 PUSH1 0x0 ADD MLOAD GT PUSH2 0x48BC JUMPI PUSH2 0x48B5 DUP2 PUSH1 0x1 PUSH2 0x4DA6 JUMP JUMPDEST SWAP3 POP PUSH2 0x483B JUMP JUMPDEST DUP8 PUSH1 0x3C PUSH2 0x48CA DUP4 PUSH1 0x1 PUSH2 0x4DA6 JUMP JUMPDEST PUSH2 0x48D4 SWAP2 SWAP1 PUSH2 0x4F47 JUMP JUMPDEST PUSH1 0x3C DUP2 LT PUSH2 0x48E4 JUMPI PUSH2 0x48E4 PUSH2 0x4FBE JUMP JUMPDEST PUSH1 0x3 MUL ADD PUSH1 0x40 MLOAD DUP1 PUSH1 0x60 ADD PUSH1 0x40 MSTORE SWAP1 DUP2 PUSH1 0x0 DUP3 ADD SLOAD DUP2 MSTORE PUSH1 0x20 ADD PUSH1 0x1 DUP3 ADD SLOAD DUP2 MSTORE PUSH1 0x20 ADD PUSH1 0x2 DUP3 ADD SLOAD DUP2 MSTORE POP POP SWAP4 POP PUSH1 0x0 DUP8 PUSH4 0xFFFFFFFF AND DUP7 PUSH1 0x0 ADD MLOAD GT ISZERO SWAP1 POP DUP1 DUP1 ISZERO PUSH2 0x4939 JUMPI POP DUP5 MLOAD PUSH4 0xFFFFFFFF DUP10 AND GT ISZERO JUMPDEST ISZERO PUSH2 0x4944 JUMPI POP PUSH2 0x496F JUMP JUMPDEST DUP1 PUSH2 0x495B JUMPI PUSH2 0x4954 PUSH1 0x1 DUP4 PUSH2 0x4ECD JUMP JUMPDEST SWAP3 POP PUSH2 0x4969 JUMP JUMPDEST PUSH2 0x4966 DUP3 PUSH1 0x1 PUSH2 0x4DA6 JUMP JUMPDEST SWAP4 POP JUMPDEST POP PUSH2 0x483B JUMP JUMPDEST POP POP POP SWAP4 POP SWAP4 SWAP2 POP POP JUMP JUMPDEST PUSH1 0x0 DUP3 PUSH1 0x1F DUP4 ADD SLT PUSH2 0x498B JUMPI PUSH1 0x0 DUP1 REVERT JUMPDEST DUP2 MLOAD PUSH1 0x20 PUSH2 0x49A0 PUSH2 0x499B DUP4 PUSH2 0x4D5C JUMP JUMPDEST PUSH2 0x4D2B JUMP JUMPDEST DUP1 DUP4 DUP3 MSTORE DUP3 DUP3 ADD SWAP2 POP DUP3 DUP7 ADD DUP8 DUP5 DUP7 PUSH1 0x5 SHL DUP10 ADD ADD GT ISZERO PUSH2 0x49C0 JUMPI PUSH1 0x0 DUP1 REVERT JUMPDEST PUSH1 0x0 JUMPDEST DUP6 DUP2 LT ISZERO PUSH2 0x49E8 JUMPI DUP2 MLOAD PUSH2 0x49D6 DUP2 PUSH2 0x4FEA JUMP JUMPDEST DUP5 MSTORE SWAP3 DUP5 ADD SWAP3 SWAP1 DUP5 ADD SWAP1 PUSH1 0x1 ADD PUSH2 0x49C3 JUMP JUMPDEST POP SWAP1 SWAP8 SWAP7 POP POP POP POP POP POP POP JUMP JUMPDEST PUSH1 0x0 PUSH1 0x20 DUP3 DUP5 SUB SLT ISZERO PUSH2 0x4A07 JUMPI PUSH1 0x0 DUP1 REVERT JUMPDEST DUP2 CALLDATALOAD PUSH2 0x2782 DUP2 PUSH2 0x4FEA JUMP JUMPDEST PUSH1 0x0 DUP1 PUSH1 0x40 DUP4 DUP6 SUB SLT ISZERO PUSH2 0x4A25 JUMPI PUSH1 0x0 DUP1 REVERT JUMPDEST DUP3 MLOAD PUSH8 0xFFFFFFFFFFFFFFFF DUP1 DUP3 GT ISZERO PUSH2 0x4A3D JUMPI PUSH1 0x0 DUP1 REVERT JUMPDEST DUP2 DUP6 ADD SWAP2 POP DUP6 PUSH1 0x1F DUP4 ADD SLT PUSH2 0x4A51 JUMPI PUSH1 0x0 DUP1 REVERT JUMPDEST DUP2 MLOAD PUSH1 0x20 PUSH2 0x4A61 PUSH2 0x499B DUP4 PUSH2 0x4D5C JUMP JUMPDEST DUP1 DUP4 DUP3 MSTORE DUP3 DUP3 ADD SWAP2 POP DUP3 DUP7 ADD DUP11 DUP5 DUP7 PUSH1 0x5 SHL DUP10 ADD ADD GT ISZERO PUSH2 0x4A81 JUMPI PUSH1 0x0 DUP1 REVERT JUMPDEST PUSH1 0x0 SWAP7 POP JUMPDEST DUP5 DUP8 LT ISZERO PUSH2 0x4AB3 JUMPI DUP1 MLOAD DUP1 PUSH1 0x6 SIGNEXTEND DUP2 EQ PUSH2 0x4A9F JUMPI PUSH1 0x0 DUP1 REVERT JUMPDEST DUP4 MSTORE PUSH1 0x1 SWAP7 SWAP1 SWAP7 ADD SWAP6 SWAP2 DUP4 ADD SWAP2 DUP4 ADD PUSH2 0x4A86 JUMP JUMPDEST POP SWAP2 DUP9 ADD MLOAD SWAP2 SWAP7 POP SWAP1 SWAP4 POP POP POP DUP1 DUP3 GT ISZERO PUSH2 0x4ACD JUMPI PUSH1 0x0 DUP1 REVERT JUMPDEST POP PUSH2 0x4ADA DUP6 DUP3 DUP7 ADD PUSH2 0x497A JUMP JUMPDEST SWAP2 POP POP SWAP3 POP SWAP3 SWAP1 POP JUMP JUMPDEST PUSH1 0x0 PUSH1 0x20 DUP3 DUP5 SUB SLT ISZERO PUSH2 0x4AF6 JUMPI PUSH1 0x0 DUP1 REVERT JUMPDEST DUP2 MLOAD PUSH2 0x2782 DUP2 PUSH2 0x4FFF JUMP JUMPDEST PUSH1 0x0 DUP1 PUSH1 0x0 DUP1 PUSH1 0x0 DUP1 PUSH1 0xC0 DUP8 DUP10 SUB SLT ISZERO PUSH2 0x4B1A JUMPI PUSH1 0x0 DUP1 REVERT JUMPDEST DUP7 CALLDATALOAD PUSH2 0x4B25 DUP2 PUSH2 0x4FFF JUMP JUMPDEST SWAP6 POP PUSH1 0x20 DUP8 ADD CALLDATALOAD PUSH2 0x4B35 DUP2 PUSH2 0x4FFF JUMP JUMPDEST SWAP6 SWAP9 SWAP6 SWAP8 POP POP POP POP PUSH1 0x40 DUP5 ADD CALLDATALOAD SWAP4 PUSH1 0x60 DUP2 ADD CALLDATALOAD SWAP4 PUSH1 0x80 DUP3 ADD CALLDATALOAD SWAP4 POP PUSH1 0xA0 SWAP1 SWAP2 ADD CALLDATALOAD SWAP2 POP JUMP JUMPDEST PUSH1 0x0 DUP1 PUSH1 0x0 PUSH1 0x60 DUP5 DUP7 SUB SLT ISZERO PUSH2 0x4B6F JUMPI PUSH1 0x0 DUP1 REVERT JUMPDEST DUP4 CALLDATALOAD PUSH2 0x4B7A DUP2 PUSH2 0x4FFF JUMP JUMPDEST SWAP6 PUSH1 0x20 DUP6 ADD CALLDATALOAD SWAP6 POP PUSH1 0x40 SWAP1 SWAP5 ADD CALLDATALOAD SWAP4 SWAP3 POP POP POP JUMP JUMPDEST PUSH1 0x0 PUSH1 0x20 DUP3 DUP5 SUB SLT ISZERO PUSH2 0x4BA1 JUMPI PUSH1 0x0 DUP1 REVERT JUMPDEST DUP2 MLOAD PUSH2 0x2782 DUP2 PUSH2 0x4FEA JUMP JUMPDEST PUSH1 0x0 PUSH1 0x20 DUP3 DUP5 SUB SLT ISZERO PUSH2 0x4BBE JUMPI PUSH1 0x0 DUP1 REVERT JUMPDEST POP CALLDATALOAD SWAP2 SWAP1 POP JUMP JUMPDEST PUSH1 0x0 PUSH1 0x20 DUP3 DUP5 SUB SLT ISZERO PUSH2 0x4BD7 JUMPI PUSH1 0x0 DUP1 REVERT JUMPDEST POP MLOAD SWAP2 SWAP1 POP JUMP JUMPDEST PUSH1 0x0 DUP1 PUSH1 0x40 DUP4 DUP6 SUB SLT ISZERO PUSH2 0x4BF1 JUMPI PUSH1 0x0 DUP1 REVERT JUMPDEST POP POP DUP1 CALLDATALOAD SWAP3 PUSH1 0x20 SWAP1 SWAP2 ADD CALLDATALOAD SWAP2 POP JUMP JUMPDEST PUSH1 0x0 DUP1 PUSH1 0x0 PUSH1 0x60 DUP5 DUP7 SUB SLT ISZERO PUSH2 0x4C15 JUMPI PUSH1 0x0 DUP1 REVERT JUMPDEST POP POP DUP2 CALLDATALOAD SWAP4 PUSH1 0x20 DUP4 ADD CALLDATALOAD SWAP4 POP PUSH1 0x40 SWAP1 SWAP3 ADD CALLDATALOAD SWAP2 SWAP1 POP JUMP JUMPDEST PUSH1 0x0 DUP1 PUSH1 0x0 DUP1 PUSH1 0x0 DUP1 PUSH1 0xC0 DUP8 DUP10 SUB SLT ISZERO PUSH2 0x4C45 JUMPI PUSH1 0x0 DUP1 REVERT JUMPDEST POP POP DUP5 CALLDATALOAD SWAP7 PUSH1 0x20 DUP7 ADD CALLDATALOAD SWAP7 POP PUSH1 0x40 DUP7 ADD CALLDATALOAD SWAP6 PUSH1 0x60 DUP2 ADD CALLDATALOAD SWAP6 POP PUSH1 0x80 DUP2 ADD CALLDATALOAD SWAP5 POP PUSH1 0xA0 ADD CALLDATALOAD SWAP3 POP SWAP1 POP JUMP JUMPDEST PUSH1 0x0 DUP1 PUSH1 0x0 DUP1 PUSH1 0x0 DUP1 PUSH1 0x0 DUP1 PUSH1 0x0 DUP1 PUSH1 0x0 PUSH2 0x160 DUP13 DUP15 SUB SLT ISZERO PUSH2 0x4C91 JUMPI PUSH1 0x0 DUP1 REVERT JUMPDEST POP POP DUP10 CALLDATALOAD SWAP12 PUSH1 0x20 DUP12 ADD CALLDATALOAD SWAP12 POP PUSH1 0x40 DUP12 ADD CALLDATALOAD SWAP11 PUSH1 0x60 DUP2 ADD CALLDATALOAD SWAP11 POP PUSH1 0x80 DUP2 ADD CALLDATALOAD SWAP10 POP PUSH1 0xA0 DUP2 ADD CALLDATALOAD SWAP9 POP PUSH1 0xC0 DUP2 ADD CALLDATALOAD SWAP8 POP PUSH1 0xE0 DUP2 ADD CALLDATALOAD SWAP7 POP PUSH2 0x100 DUP2 ADD CALLDATALOAD SWAP6 POP PUSH2 0x120 DUP2 ADD CALLDATALOAD SWAP5 POP PUSH2 0x140 ADD CALLDATALOAD SWAP3 POP SWAP1 POP JUMP JUMPDEST PUSH1 0x20 DUP1 DUP3 MSTORE DUP3 MLOAD DUP3 DUP3 ADD DUP2 SWAP1 MSTORE PUSH1 0x0 SWAP2 SWAP1 DUP5 DUP3 ADD SWAP1 PUSH1 0x40 DUP6 ADD SWAP1 DUP5 JUMPDEST DUP2 DUP2 LT ISZERO PUSH2 0x4D1F JUMPI DUP4 MLOAD PUSH4 0xFFFFFFFF AND DUP4 MSTORE SWAP3 DUP5 ADD SWAP3 SWAP2 DUP5 ADD SWAP2 PUSH1 0x1 ADD PUSH2 0x4CFD JUMP JUMPDEST POP SWAP1 SWAP7 SWAP6 POP POP POP POP POP POP JUMP JUMPDEST PUSH1 0x40 MLOAD PUSH1 0x1F DUP3 ADD PUSH1 0x1F NOT AND DUP2 ADD PUSH8 0xFFFFFFFFFFFFFFFF DUP2 GT DUP3 DUP3 LT OR ISZERO PUSH2 0x4D54 JUMPI PUSH2 0x4D54 PUSH2 0x4FD4 JUMP JUMPDEST PUSH1 0x40 MSTORE SWAP2 SWAP1 POP JUMP JUMPDEST PUSH1 0x0 PUSH8 0xFFFFFFFFFFFFFFFF DUP3 GT ISZERO PUSH2 0x4D76 JUMPI PUSH2 0x4D76 PUSH2 0x4FD4 JUMP JUMPDEST POP PUSH1 0x5 SHL PUSH1 0x20 ADD SWAP1 JUMP JUMPDEST PUSH1 0x0 PUSH2 0xFFFF DUP1 DUP4 AND DUP2 DUP6 AND DUP1 DUP4 SUB DUP3 GT ISZERO PUSH2 0x4D9D JUMPI PUSH2 0x4D9D PUSH2 0x4F92 JUMP JUMPDEST ADD SWAP5 SWAP4 POP POP POP POP JUMP JUMPDEST PUSH1 0x0 DUP3 NOT DUP3 GT ISZERO PUSH2 0x4DB9 JUMPI PUSH2 0x4DB9 PUSH2 0x4F92 JUMP JUMPDEST POP ADD SWAP1 JUMP JUMPDEST PUSH1 0x0 DUP2 PUSH1 0x6 SIGNEXTEND DUP4 PUSH1 0x6 SIGNEXTEND DUP1 PUSH2 0x4DD5 JUMPI PUSH2 0x4DD5 PUSH2 0x4FA8 JUMP JUMPDEST PUSH7 0x7FFFFFFFFFFFFF NOT DUP3 EQ PUSH1 0x0 NOT DUP3 EQ AND ISZERO PUSH2 0x4DF3 JUMPI PUSH2 0x4DF3 PUSH2 0x4F92 JUMP JUMPDEST SWAP1 SDIV SWAP4 SWAP3 POP POP POP JUMP JUMPDEST PUSH1 0x0 PUSH1 0x1 PUSH1 0x1 PUSH1 0xA0 SHL SUB DUP1 DUP5 AND DUP1 PUSH2 0x4E16 JUMPI PUSH2 0x4E16 PUSH2 0x4FA8 JUMP JUMPDEST SWAP3 AND SWAP2 SWAP1 SWAP2 DIV SWAP3 SWAP2 POP POP JUMP JUMPDEST PUSH1 0x0 DUP3 PUSH2 0x4E31 JUMPI PUSH2 0x4E31 PUSH2 0x4FA8 JUMP JUMPDEST POP DIV SWAP1 JUMP JUMPDEST PUSH1 0x0 DUP2 PUSH1 0x0 NOT DIV DUP4 GT DUP3 ISZERO ISZERO AND ISZERO PUSH2 0x4E50 JUMPI PUSH2 0x4E50 PUSH2 0x4F92 JUMP JUMPDEST POP MUL SWAP1 JUMP JUMPDEST PUSH1 0x0 DUP2 PUSH1 0x6 SIGNEXTEND DUP4 PUSH1 0x6 SIGNEXTEND PUSH1 0x0 DUP2 SLT DUP2 PUSH7 0x7FFFFFFFFFFFFF NOT ADD DUP4 SLT DUP2 ISZERO AND ISZERO PUSH2 0x4E80 JUMPI PUSH2 0x4E80 PUSH2 0x4F92 JUMP JUMPDEST DUP2 PUSH7 0x7FFFFFFFFFFFFF ADD DUP4 SGT DUP2 AND ISZERO PUSH2 0x4E9B JUMPI PUSH2 0x4E9B PUSH2 0x4F92 JUMP JUMPDEST POP SWAP1 SUB SWAP4 SWAP3 POP POP POP JUMP JUMPDEST PUSH1 0x0 PUSH1 0x1 PUSH1 0x1 PUSH1 0xA0 SHL SUB DUP4 DUP2 AND SWAP1 DUP4 AND DUP2 DUP2 LT ISZERO PUSH2 0x4EC5 JUMPI PUSH2 0x4EC5 PUSH2 0x4F92 JUMP JUMPDEST SUB SWAP4 SWAP3 POP POP POP JUMP JUMPDEST PUSH1 0x0 DUP3 DUP3 LT ISZERO PUSH2 0x4EDF JUMPI PUSH2 0x4EDF PUSH2 0x4F92 JUMP JUMPDEST POP SUB SWAP1 JUMP JUMPDEST PUSH1 0x0 PUSH4 0xFFFFFFFF DUP4 DUP2 AND SWAP1 DUP4 AND DUP2 DUP2 LT ISZERO PUSH2 0x4EC5 JUMPI PUSH2 0x4EC5 PUSH2 0x4F92 JUMP JUMPDEST PUSH1 0x0 DUP2 PUSH1 0x2 SIGNEXTEND PUSH3 0x7FFFFF NOT DUP2 EQ ISZERO PUSH2 0x4F1B JUMPI PUSH2 0x4F1B PUSH2 0x4F92 JUMP JUMPDEST PUSH1 0x0 NOT ADD SWAP3 SWAP2 POP POP JUMP JUMPDEST PUSH1 0x0 DUP3 PUSH1 0x6 SIGNEXTEND DUP1 PUSH2 0x4F38 JUMPI PUSH2 0x4F38 PUSH2 0x4FA8 JUMP JUMPDEST DUP1 DUP4 PUSH1 0x6 SIGNEXTEND SMOD SWAP2 POP POP SWAP3 SWAP2 POP POP JUMP JUMPDEST PUSH1 0x0 DUP3 PUSH2 0x4F56 JUMPI PUSH2 0x4F56 PUSH2 0x4FA8 JUMP JUMPDEST POP MOD SWAP1 JUMP JUMPDEST PUSH1 0x0 DUP2 PUSH1 0x2 SIGNEXTEND PUSH3 0x7FFFFF NOT DUP2 EQ ISZERO PUSH2 0x4061 JUMPI PUSH2 0x4061 PUSH2 0x4F92 JUMP JUMPDEST PUSH1 0x0 PUSH1 0x1 PUSH1 0xFF SHL DUP3 EQ ISZERO PUSH2 0x4F8B JUMPI PUSH2 0x4F8B PUSH2 0x4F92 JUMP JUMPDEST POP PUSH1 0x0 SUB SWAP1 JUMP JUMPDEST PUSH4 0x4E487B71 PUSH1 0xE0 SHL PUSH1 0x0 MSTORE PUSH1 0x11 PUSH1 0x4 MSTORE PUSH1 0x24 PUSH1 0x0 REVERT JUMPDEST PUSH4 0x4E487B71 PUSH1 0xE0 SHL PUSH1 0x0 MSTORE PUSH1 0x12 PUSH1 0x4 MSTORE PUSH1 0x24 PUSH1 0x0 REVERT JUMPDEST PUSH4 0x4E487B71 PUSH1 0xE0 SHL PUSH1 0x0 MSTORE PUSH1 0x32 PUSH1 0x4 MSTORE PUSH1 0x24 PUSH1 0x0 REVERT JUMPDEST PUSH4 0x4E487B71 PUSH1 0xE0 SHL PUSH1 0x0 MSTORE PUSH1 0x41 PUSH1 0x4 MSTORE PUSH1 0x24 PUSH1 0x0 REVERT JUMPDEST PUSH1 0x1 PUSH1 0x1 PUSH1 0xA0 SHL SUB DUP2 AND DUP2 EQ PUSH2 0x173D JUMPI PUSH1 0x0 DUP1 REVERT JUMPDEST DUP1 ISZERO ISZERO DUP2 EQ PUSH2 0x173D JUMPI PUSH1 0x0 DUP1 REVERT INVALID BYTE PUSH9 0x38EFA4183E08FE3607 CALLDATALOAD SWAP14 SLT MSIZE 0x27 0x2A 0xF9 0xD4 PUSH18 0x6F65E1A7B5921F78FD5A3C6AA26469706673 PC 0x22 SLT KECCAK256 PC SWAP9 0x5C PUSH32 0x51A6CAAAFAF8CE91240CBA2873809F0F1640D55111C93FF500F3ABE364736F6C PUSH4 0x43000807 STOP CALLER ",
  "sha1": "1d390ffd5c3fcfb11f1903d9112769b6f0b888a8",
  "source": "// SPDX-License-Identifier: MIT\npragma solidity ^0.8.7;\n\nimport \"./libraries/FixedPoint.sol\";\nimport \"./libraries/UniswapV3OracleLibrary/UniswapV3OracleLibraryV2.sol\";\nimport \"./interfaces/IUniswapV3Pool.sol\";\nimport \"./market/OverlayV1Market.sol\";\n\ncontract OverlayV1UniswapV3Market is OverlayV1Market {\n\n    using FixedPoint for uint256;\n\n    uint256 internal X96 = 0x1000000000000000000000000;\n\n    uint256 public immutable macroWindow; // window size for main TWAP\n    uint256 public immutable microWindow; // window size for bid/ask TWAP\n\n    address public immutable marketFeed;\n    address public immutable ovlFeed;\n    address public immutable base;\n    address public immutable quote;\n    uint128 internal immutable amountIn;\n\n    address internal immutable eth;\n    bool internal immutable ethIs0;\n\n    constructor(\n        address _mothership,\n        address _ovlFeed,\n        address _marketFeed,\n        address _quote,\n        address _eth,\n        uint128 _amountIn,\n        uint256 _macroWindow,\n        uint256 _microWindow\n    ) OverlayV1Market(\n        _mothership\n    ) {\n\n        // immutables\n        eth = _eth;\n        ethIs0 = IUniswapV3Pool(_ovlFeed).token0() == _eth;\n        ovlFeed = _ovlFeed;\n        marketFeed = _marketFeed;\n        amountIn = _amountIn;\n        macroWindow = _macroWindow;\n        microWindow = _microWindow;\n\n        address _token0 = IUniswapV3Pool(_marketFeed).token0();\n        address _token1 = IUniswapV3Pool(_marketFeed).token1();\n\n        base = _token0 != _quote ? _token0 : _token1;\n        quote = _token0 == _quote ? _token0 : _token1;\n\n        int24 _tick = OracleLibraryV2.consult(\n            _marketFeed,\n            uint32(_macroWindow),\n            uint32(0)\n        );\n\n        uint _price = OracleLibraryV2.getQuoteAtTick(\n            _tick,\n            uint128(_amountIn),\n            _token0 != _quote ? _token0 : _token1,\n            _token0 == _quote ? _token0 : _token1\n        );\n\n        setPricePointCurrent(PricePoint(_price, _price, _price));\n\n        toUpdate = type(uint256).max;\n        updated = block.timestamp;\n        compounded = block.timestamp;\n\n    }\n\n    function price (\n        uint _ago\n    ) public view override returns (\n        PricePoint memory\n    ) {\n\n        uint32[] memory _secondsAgo = new uint32[](3);\n        _secondsAgo[0] = uint32(_ago + macroWindow);\n        _secondsAgo[1] = uint32(_ago + microWindow);\n        _secondsAgo[2] = uint32(_ago);\n\n        ( int56[] memory _ticks, ) = IUniswapV3Pool(marketFeed).observe(_secondsAgo);\n\n        uint _macroPrice = OracleLibraryV2.getQuoteAtTick(\n            int24((_ticks[2] - _ticks[0]) / int56(int32(int(macroWindow)))),\n            amountIn,\n            base,\n            quote\n        );\n\n        uint _microPrice = OracleLibraryV2.getQuoteAtTick(\n            int24((_ticks[2] - _ticks[1]) / int56(int32(int(microWindow)))),\n            amountIn,\n            base,\n            quote\n        );\n\n        return insertSpread(_microPrice, _macroPrice);\n\n    }\n\n    function depth () internal virtual override view returns (uint256 depth_) {\n\n        uint32[] memory _secondsAgo = new uint32[](2);\n        _secondsAgo[0] = uint32(microWindow);\n        _secondsAgo[1] = 0;\n\n        ( int56[] memory _ticks, uint160[] memory _invLiqs ) = IUniswapV3Pool(marketFeed).observe(_secondsAgo);\n\n        uint256 _sqrtPrice = TickMath.getSqrtRatioAtTick(\n            int24((_ticks[1] - _ticks[0]) / int56(int32(int(microWindow))))\n        );\n\n        uint256 _liquidity = (uint160(microWindow) << 128) / ( _invLiqs[1] - _invLiqs[0] );\n\n        uint _ethAmount = ethIs0\n            ? ( uint256(_liquidity) << 96 ) / _sqrtPrice\n            : FullMath.mulDiv(uint256(_liquidity), _sqrtPrice, X96);\n\n        ( _ticks, ) = IUniswapV3Pool(ovlFeed).observe(_secondsAgo);\n\n        uint _price = OracleLibraryV2.getQuoteAtTick(\n            int24((_ticks[1] - _ticks[0]) / int56(int32(int(microWindow)))),\n            1e18,\n            address(ovl),\n            eth\n        );\n\n        depth_ = lmbda.mulUp(( _ethAmount * 1e18 ) / _price).divDown(2e18);\n\n    }\n\n    function epochs () public view returns (\n        uint updatesThen_,\n        uint updatesNow_,\n        uint tUpdate_,\n        uint t1Update_,\n        uint compoundings_,\n        uint tCompounding_,\n        uint t1Compounding_\n    ) {\n\n        return epochs(block.timestamp, updated, toUpdate);\n\n    }\n\n    function epochs (\n        uint _time,\n        uint _from,\n        uint _between\n    ) public view returns (\n        uint updatesThen_,\n        uint updatesNow_,\n        uint tUpdate_,\n        uint t1Update_,\n        uint compoundings_,\n        uint tCompounding_,\n        uint t1Compounding_\n    ) {\n\n        uint _updatePeriod = updatePeriod;\n        uint _compoundPeriod = compoundingPeriod;\n        uint _compounded = compounded;\n\n        if (_between < _time) {\n\n            updatesThen_ = ( _between - _from ) / _updatePeriod;\n\n            updatesNow_ = ( _time - _between ) / _updatePeriod;\n\n        } else {\n\n            updatesNow_ = ( _time - _from ) / _updatePeriod;\n\n        }\n\n        tUpdate_ = _from + ( ( updatesThen_ + updatesNow_ ) * _updatePeriod );\n\n        t1Update_ = tUpdate_ + _updatePeriod;\n\n        compoundings_ = ( _time - compounded ) / _compoundPeriod;\n\n        tCompounding_ = _compounded + ( compoundings_ * _compoundPeriod );\n\n        t1Compounding_ = tCompounding_ + _compoundPeriod;\n\n    }\n\n    function staticUpdate () internal override returns (bool updated_) {\n\n        uint _toUpdate = toUpdate;\n        uint _updated = updated;\n\n        (   uint _updatesThen,,,,\n            uint _compoundings,\n            uint _tCompounding, ) = epochs(block.timestamp, _updated, _toUpdate);\n\n        // only update if there is a position to update\n        if (0 < _updatesThen) {\n\n            uint _then = block.timestamp - _toUpdate;\n            PricePoint memory _price = price(_then);\n            setPricePointCurrent(_price);\n            updated = _toUpdate;\n            toUpdate = type(uint256).max;\n            updated_ = true;\n\n        }\n\n        if (0 < _compoundings) {\n\n            if (_toUpdate != type(uint256).max) {\n\n                updateFunding(1);\n                updateFunding(_compoundings - 1);\n\n            } else updateFunding(_compoundings);\n\n            compounded = _tCompounding;\n\n        }\n\n    }\n\n    function entryUpdate () internal override returns (\n        uint256 t1Compounding_\n    ) {\n\n        uint _toUpdate = toUpdate;\n\n        (   uint _updatesThen,,,\n            uint _tp1Update,\n            uint _compoundings,\n            uint _tCompounding,\n            uint _t1Compounding ) = epochs(block.timestamp, updated, _toUpdate);\n\n        if (0 < _updatesThen) {\n            uint _then = block.timestamp - _toUpdate;\n            PricePoint memory _price = price(_then);\n            setPricePointCurrent(_price);\n            updated = _toUpdate;\n        }\n\n        if (0 < _compoundings) {\n\n            // If there was an update queued up, that means\n            // there was queued oi, which is not involved in\n            // funding until one compounding epoch has passed.\n            // We pay funding for one compounding epoch, then\n            // compound the rest of the epochs.\n            if (_toUpdate != type(uint256).max) {\n\n                updateFunding(1);\n                updateFunding(_compoundings - 1);\n\n            } else updateFunding(_compoundings);\n\n            compounded = _tCompounding;\n\n        }\n\n        if (_toUpdate != _tp1Update) toUpdate = _tp1Update;\n\n        t1Compounding_ = _t1Compounding;\n\n    }\n\n    function exitUpdate () internal override returns (uint tCompounding_) {\n\n        uint _toUpdate = toUpdate;\n        uint _now = block.timestamp;\n\n        (   uint _updatesThen,\n            uint _updatesNow,\n            uint _tUpdate,,\n            uint _compoundings,\n            uint _tCompounding, ) = epochs(_now, updated, _toUpdate);\n\n        if (0 < _updatesThen) {\n\n            uint _then = _now - _toUpdate;\n            PricePoint memory _price = price(_then);\n            setPricePointCurrent(_price);\n\n        }\n\n        if (0 < _updatesNow) {\n\n            uint _then = _now - _tUpdate;\n            PricePoint memory _price = price(_then);\n            setPricePointCurrent(_price);\n\n            updated = _tUpdate;\n            toUpdate = type(uint256).max;\n\n        }\n\n        if (0 < _compoundings) {\n\n            if (_toUpdate != type(uint256).max) {\n\n                updateFunding(1);\n                updateFunding(_compoundings - 1);\n\n            } else updateFunding(_compoundings);\n\n            compounded = _tCompounding;\n\n        }\n\n        tCompounding_ = _tCompounding;\n\n    }\n\n    function oi () public view returns (\n        uint oiLong_,\n        uint oiShort_,\n        uint oiLongShares_,\n        uint oiShortShares_,\n        uint queuedOiLong_,\n        uint queuedOiShort_\n    ) {\n\n        ( ,,,,uint _compoundings,, ) = epochs(block.timestamp, updated, toUpdate);\n\n        (   oiLong_,\n            oiShort_,\n            oiLongShares_,\n            oiShortShares_,\n            queuedOiLong_,\n            queuedOiShort_ ) = _oi(_compoundings);\n\n    }\n\n    function _oi (\n        uint _compoundings\n    ) internal view returns (\n        uint oiLong_,\n        uint oiShort_,\n        uint oiLongShares_,\n        uint oiShortShares_,\n        uint queuedOiLong_,\n        uint queuedOiShort_\n    ) {\n\n        oiLong_ = __oiLong__;\n        oiShort_ = __oiShort__;\n        oiLongShares_ = __oiLongShares__;\n        oiShortShares_ = __oiShortShares__;\n        queuedOiLong_ = __queuedOiLong__;\n        queuedOiShort_ = __queuedOiShort__;\n\n        uint _k = k;\n\n        if (0 < _compoundings) {\n\n            ( oiLong_, oiShort_, ) = computeFunding(\n                oiLong_,\n                oiShort_,\n                1,\n                _k\n            );\n\n            ( oiLong_, oiShort_, ) = computeFunding(\n                oiLong_ += queuedOiLong_,\n                oiShort_ += queuedOiShort_,\n                _compoundings - 1,\n                _k\n            );\n\n            oiLongShares_ += queuedOiLong_;\n            oiShortShares_ += queuedOiShort_;\n\n            queuedOiLong_ = 0;\n            queuedOiShort_ = 0;\n\n        }\n\n    }\n\n    function oiLong () external view returns (uint oiLong_) {\n        (   oiLong_,,,,, ) = oi();\n    }\n\n    function oiShort () external view returns (uint oiShort_) {\n        (  ,oiShort_,,,, ) = oi();\n    }\n\n    function oiLongShares () external view returns (uint256 oiLongShares_) {\n        ( ,,oiLongShares_,,, ) = oi();\n    }\n\n    function oiShortShares () external view returns (uint256 oiShortShares_) {\n        ( ,,,oiShortShares_,, ) = oi();\n    }\n\n    function queuedOiLong () external view returns (uint256 queuedOiLong_) {\n        ( ,,,,queuedOiLong_, ) = oi();\n    }\n\n    function queuedOiShort () external view returns (uint256 queuedOiShort_) {\n        ( ,,,,,queuedOiShort_ ) = oi();\n    }\n\n    function positionInfo (\n        bool _isLong,\n        uint _entryIndex,\n        uint _compounding\n    ) external view returns (\n        uint256 oi_,\n        uint256 oiShares_,\n        uint256 priceFrame_\n    ) {\n\n        (   uint _updatesThen,,\n            uint _tUpdate,,\n            uint _compoundings,\n            uint _tCompounding, ) = epochs(block.timestamp, updated, toUpdate);\n\n        priceFrame_ = priceFrame(\n            _isLong,\n            _entryIndex,\n            _updatesThen,\n            _tUpdate\n        );\n\n        (   uint _oiLong,\n            uint _oiShort,\n            uint _oiLongShares,\n            uint _oiShortShares,\n            uint _queuedOiLong,\n            uint _queuedOiShort ) = _oi(_compoundings);\n\n        if (_compounding < _tCompounding) {\n\n            if (_isLong) ( oi_ = _oiLong, oiShares_ = _oiLongShares );\n            else ( oi_ = _oiShort, oiShares_ = _oiShortShares );\n\n        } else {\n\n            if (_isLong) oi_ = oiShares_ = _queuedOiLong;\n            else oi_ = oiShares_ = _queuedOiShort;\n\n        }\n\n    }\n\n    function priceFrame (\n        bool _isLong,\n        uint _entryIndex,\n        uint _updatesThen,\n        uint _tUpdate\n    ) internal view returns (\n        uint256 priceFrame_\n    ) {\n\n        PricePoint memory _priceEntry;\n        PricePoint memory _priceExit;\n\n        if (_entryIndex < _pricePoints.length - 1) {\n\n            _priceEntry = _pricePoints[_entryIndex];\n\n        } else if (0 < _updatesThen ) {\n\n            _priceEntry = price(block.timestamp - toUpdate);\n\n        // TODO: do we allow exit without settlement\n        } else revert(\"OVLV1:!settled\");\n\n        // TODO: what if price has settled\n        _priceExit = price(block.timestamp - _tUpdate);\n\n        priceFrame_ = _isLong\n            ? Math.min(_priceExit.bid.divDown(_priceEntry.ask), priceFrameCap)\n            : _priceExit.ask.divUp(_priceEntry.bid);\n\n    }\n\n}\n",
  "sourcePath": "contracts/OverlayV1UniswapV3Market.sol",
  "type": "contract"
}