{
  "abi": [
    {
      "inputs": [
        {
          "internalType": "address",
          "name": "_mothership",
          "type": "address"
        },
        {
          "internalType": "address",
          "name": "_ovlFeed",
          "type": "address"
        },
        {
          "internalType": "address",
          "name": "_marketFeed",
          "type": "address"
        },
        {
          "internalType": "address",
          "name": "_quote",
          "type": "address"
        },
        {
          "internalType": "address",
          "name": "_eth",
          "type": "address"
        },
        {
          "internalType": "uint128",
          "name": "_baseAmount",
          "type": "uint128"
        },
        {
          "internalType": "uint256",
          "name": "_macroWindow",
          "type": "uint256"
        },
        {
          "internalType": "uint256",
          "name": "_microWindow",
          "type": "uint256"
        },
        {
          "internalType": "uint256",
          "name": "_priceFrameCap",
          "type": "uint256"
        }
      ],
      "stateMutability": "nonpayable",
      "type": "constructor"
    },
    {
      "anonymous": false,
      "inputs": [
        {
          "indexed": false,
          "internalType": "uint256",
          "name": "oiLong",
          "type": "uint256"
        },
        {
          "indexed": false,
          "internalType": "uint256",
          "name": "oiShort",
          "type": "uint256"
        },
        {
          "indexed": false,
          "internalType": "int256",
          "name": "fundingPaid",
          "type": "int256"
        }
      ],
      "name": "FundingPaid",
      "type": "event"
    },
    {
      "anonymous": false,
      "inputs": [
        {
          "indexed": false,
          "internalType": "uint256",
          "name": "bid",
          "type": "uint256"
        },
        {
          "indexed": false,
          "internalType": "uint256",
          "name": "ask",
          "type": "uint256"
        },
        {
          "indexed": false,
          "internalType": "uint256",
          "name": "depth",
          "type": "uint256"
        }
      ],
      "name": "NewPricePoint",
      "type": "event"
    },
    {
      "anonymous": false,
      "inputs": [
        {
          "indexed": false,
          "internalType": "string",
          "name": "k",
          "type": "string"
        },
        {
          "indexed": false,
          "internalType": "uint256",
          "name": "v",
          "type": "uint256"
        }
      ],
      "name": "log",
      "type": "event"
    },
    {
      "inputs": [],
      "name": "MIN_COLLAT",
      "outputs": [
        {
          "internalType": "uint256",
          "name": "",
          "type": "uint256"
        }
      ],
      "stateMutability": "view",
      "type": "function"
    },
    {
      "inputs": [
        {
          "internalType": "address",
          "name": "_collateral",
          "type": "address"
        }
      ],
      "name": "addCollateral",
      "outputs": [],
      "stateMutability": "nonpayable",
      "type": "function"
    },
    {
      "inputs": [],
      "name": "base",
      "outputs": [
        {
          "internalType": "address",
          "name": "",
          "type": "address"
        }
      ],
      "stateMutability": "view",
      "type": "function"
    },
    {
      "inputs": [
        {
          "internalType": "uint256",
          "name": "",
          "type": "uint256"
        }
      ],
      "name": "brrrrdAccumulator",
      "outputs": [
        {
          "internalType": "uint256",
          "name": "",
          "type": "uint256"
        }
      ],
      "stateMutability": "view",
      "type": "function"
    },
    {
      "inputs": [],
      "name": "brrrrdCycloid",
      "outputs": [
        {
          "internalType": "uint256",
          "name": "",
          "type": "uint256"
        }
      ],
      "stateMutability": "view",
      "type": "function"
    },
    {
      "inputs": [],
      "name": "brrrrdExpected",
      "outputs": [
        {
          "internalType": "uint256",
          "name": "",
          "type": "uint256"
        }
      ],
      "stateMutability": "view",
      "type": "function"
    },
    {
      "inputs": [],
      "name": "brrrrdFiling",
      "outputs": [
        {
          "internalType": "uint256",
          "name": "",
          "type": "uint256"
        }
      ],
      "stateMutability": "view",
      "type": "function"
    },
    {
      "inputs": [
        {
          "internalType": "uint256",
          "name": "",
          "type": "uint256"
        }
      ],
      "name": "brrrrdRollers",
      "outputs": [
        {
          "internalType": "uint256",
          "name": "time",
          "type": "uint256"
        },
        {
          "internalType": "uint256",
          "name": "ying",
          "type": "uint256"
        },
        {
          "internalType": "uint256",
          "name": "yang",
          "type": "uint256"
        }
      ],
      "stateMutability": "view",
      "type": "function"
    },
    {
      "inputs": [],
      "name": "brrrrdWindowMacro",
      "outputs": [
        {
          "internalType": "uint256",
          "name": "",
          "type": "uint256"
        }
      ],
      "stateMutability": "view",
      "type": "function"
    },
    {
      "inputs": [],
      "name": "brrrrdWindowMicro",
      "outputs": [
        {
          "internalType": "uint256",
          "name": "",
          "type": "uint256"
        }
      ],
      "stateMutability": "view",
      "type": "function"
    },
    {
      "inputs": [],
      "name": "compounded",
      "outputs": [
        {
          "internalType": "uint256",
          "name": "",
          "type": "uint256"
        }
      ],
      "stateMutability": "view",
      "type": "function"
    },
    {
      "inputs": [],
      "name": "compoundingPeriod",
      "outputs": [
        {
          "internalType": "uint256",
          "name": "",
          "type": "uint256"
        }
      ],
      "stateMutability": "view",
      "type": "function"
    },
    {
      "inputs": [
        {
          "internalType": "uint256",
          "name": "_marketLiquidity",
          "type": "uint256"
        },
        {
          "internalType": "uint256",
          "name": "_ovlPrice",
          "type": "uint256"
        }
      ],
      "name": "computeDepth",
      "outputs": [
        {
          "internalType": "uint256",
          "name": "depth_",
          "type": "uint256"
        }
      ],
      "stateMutability": "view",
      "type": "function"
    },
    {
      "inputs": [],
      "name": "depth",
      "outputs": [
        {
          "internalType": "uint256",
          "name": "depth_",
          "type": "uint256"
        }
      ],
      "stateMutability": "view",
      "type": "function"
    },
    {
      "inputs": [
        {
          "internalType": "bool",
          "name": "_isLong",
          "type": "bool"
        },
        {
          "internalType": "uint256",
          "name": "_collateral",
          "type": "uint256"
        },
        {
          "internalType": "uint256",
          "name": "_leverage",
          "type": "uint256"
        }
      ],
      "name": "enterOI",
      "outputs": [
        {
          "internalType": "uint256",
          "name": "oiAdjusted_",
          "type": "uint256"
        },
        {
          "internalType": "uint256",
          "name": "collateralAdjusted_",
          "type": "uint256"
        },
        {
          "internalType": "uint256",
          "name": "debtAdjusted_",
          "type": "uint256"
        },
        {
          "internalType": "uint256",
          "name": "fee_",
          "type": "uint256"
        },
        {
          "internalType": "uint256",
          "name": "impact_",
          "type": "uint256"
        },
        {
          "internalType": "uint256",
          "name": "pricePointNext_",
          "type": "uint256"
        }
      ],
      "stateMutability": "nonpayable",
      "type": "function"
    },
    {
      "inputs": [
        {
          "internalType": "uint256",
          "name": "_now",
          "type": "uint256"
        },
        {
          "internalType": "uint256",
          "name": "_compounded",
          "type": "uint256"
        }
      ],
      "name": "epochs",
      "outputs": [
        {
          "internalType": "uint256",
          "name": "compoundings_",
          "type": "uint256"
        },
        {
          "internalType": "uint256",
          "name": "tCompounding_",
          "type": "uint256"
        }
      ],
      "stateMutability": "view",
      "type": "function"
    },
    {
      "inputs": [
        {
          "internalType": "bool",
          "name": "_isLong",
          "type": "bool"
        },
        {
          "internalType": "uint256",
          "name": "_pricePoint",
          "type": "uint256"
        }
      ],
      "name": "exitData",
      "outputs": [
        {
          "internalType": "uint256",
          "name": "oi_",
          "type": "uint256"
        },
        {
          "internalType": "uint256",
          "name": "oiShares_",
          "type": "uint256"
        },
        {
          "internalType": "uint256",
          "name": "priceFrame_",
          "type": "uint256"
        }
      ],
      "stateMutability": "nonpayable",
      "type": "function"
    },
    {
      "inputs": [
        {
          "internalType": "bool",
          "name": "_isLong",
          "type": "bool"
        },
        {
          "internalType": "uint256",
          "name": "_oi",
          "type": "uint256"
        },
        {
          "internalType": "uint256",
          "name": "_oiShares",
          "type": "uint256"
        },
        {
          "internalType": "uint256",
          "name": "_brrrr",
          "type": "uint256"
        },
        {
          "internalType": "uint256",
          "name": "_antiBrrrr",
          "type": "uint256"
        }
      ],
      "name": "exitOI",
      "outputs": [],
      "stateMutability": "nonpayable",
      "type": "function"
    },
    {
      "inputs": [],
      "name": "fetchPricePoint",
      "outputs": [
        {
          "components": [
            {
              "internalType": "int24",
              "name": "macroTick",
              "type": "int24"
            },
            {
              "internalType": "int24",
              "name": "microTick",
              "type": "int24"
            },
            {
              "internalType": "uint256",
              "name": "depth",
              "type": "uint256"
            }
          ],
          "internalType": "struct OverlayV1PricePoint.PricePoint",
          "name": "price_",
          "type": "tuple"
        }
      ],
      "stateMutability": "view",
      "type": "function"
    },
    {
      "inputs": [],
      "name": "getBrrrrd",
      "outputs": [
        {
          "internalType": "uint256",
          "name": "brrrrd_",
          "type": "uint256"
        },
        {
          "internalType": "uint256",
          "name": "antiBrrrrd_",
          "type": "uint256"
        }
      ],
      "stateMutability": "view",
      "type": "function"
    },
    {
      "inputs": [
        {
          "internalType": "bool",
          "name": "_isLong",
          "type": "bool"
        },
        {
          "internalType": "uint256",
          "name": "_oi",
          "type": "uint256"
        },
        {
          "internalType": "uint256",
          "name": "_cap",
          "type": "uint256"
        }
      ],
      "name": "impact",
      "outputs": [
        {
          "internalType": "uint256",
          "name": "impact_",
          "type": "uint256"
        }
      ],
      "stateMutability": "view",
      "type": "function"
    },
    {
      "inputs": [],
      "name": "impactCycloid",
      "outputs": [
        {
          "internalType": "uint256",
          "name": "",
          "type": "uint256"
        }
      ],
      "stateMutability": "view",
      "type": "function"
    },
    {
      "inputs": [
        {
          "internalType": "uint256",
          "name": "",
          "type": "uint256"
        }
      ],
      "name": "impactRollers",
      "outputs": [
        {
          "internalType": "uint256",
          "name": "time",
          "type": "uint256"
        },
        {
          "internalType": "uint256",
          "name": "ying",
          "type": "uint256"
        },
        {
          "internalType": "uint256",
          "name": "yang",
          "type": "uint256"
        }
      ],
      "stateMutability": "view",
      "type": "function"
    },
    {
      "inputs": [],
      "name": "impactWindow",
      "outputs": [
        {
          "internalType": "uint256",
          "name": "",
          "type": "uint256"
        }
      ],
      "stateMutability": "view",
      "type": "function"
    },
    {
      "inputs": [
        {
          "internalType": "address",
          "name": "",
          "type": "address"
        }
      ],
      "name": "isCollateral",
      "outputs": [
        {
          "internalType": "bool",
          "name": "",
          "type": "bool"
        }
      ],
      "stateMutability": "view",
      "type": "function"
    },
    {
      "inputs": [],
      "name": "k",
      "outputs": [
        {
          "internalType": "uint256",
          "name": "",
          "type": "uint256"
        }
      ],
      "stateMutability": "view",
      "type": "function"
    },
    {
      "inputs": [],
      "name": "leverageMax",
      "outputs": [
        {
          "internalType": "uint256",
          "name": "",
          "type": "uint256"
        }
      ],
      "stateMutability": "view",
      "type": "function"
    },
    {
      "inputs": [],
      "name": "lmbda",
      "outputs": [
        {
          "internalType": "uint256",
          "name": "",
          "type": "uint256"
        }
      ],
      "stateMutability": "view",
      "type": "function"
    },
    {
      "inputs": [],
      "name": "macroWindow",
      "outputs": [
        {
          "internalType": "uint256",
          "name": "",
          "type": "uint256"
        }
      ],
      "stateMutability": "view",
      "type": "function"
    },
    {
      "inputs": [],
      "name": "marketFeed",
      "outputs": [
        {
          "internalType": "address",
          "name": "",
          "type": "address"
        }
      ],
      "stateMutability": "view",
      "type": "function"
    },
    {
      "inputs": [],
      "name": "microWindow",
      "outputs": [
        {
          "internalType": "uint256",
          "name": "",
          "type": "uint256"
        }
      ],
      "stateMutability": "view",
      "type": "function"
    },
    {
      "inputs": [],
      "name": "mothership",
      "outputs": [
        {
          "internalType": "contract IOverlayV1Mothership",
          "name": "",
          "type": "address"
        }
      ],
      "stateMutability": "view",
      "type": "function"
    },
    {
      "inputs": [],
      "name": "oi",
      "outputs": [
        {
          "internalType": "uint256",
          "name": "oiLong_",
          "type": "uint256"
        },
        {
          "internalType": "uint256",
          "name": "oiShort_",
          "type": "uint256"
        },
        {
          "internalType": "uint256",
          "name": "oiLongShares_",
          "type": "uint256"
        },
        {
          "internalType": "uint256",
          "name": "oiShortShares_",
          "type": "uint256"
        }
      ],
      "stateMutability": "view",
      "type": "function"
    },
    {
      "inputs": [],
      "name": "oiCap",
      "outputs": [
        {
          "internalType": "uint256",
          "name": "cap_",
          "type": "uint256"
        }
      ],
      "stateMutability": "view",
      "type": "function"
    },
    {
      "inputs": [],
      "name": "oiLong",
      "outputs": [
        {
          "internalType": "uint256",
          "name": "oiLong_",
          "type": "uint256"
        }
      ],
      "stateMutability": "view",
      "type": "function"
    },
    {
      "inputs": [],
      "name": "oiLongShares",
      "outputs": [
        {
          "internalType": "uint256",
          "name": "",
          "type": "uint256"
        }
      ],
      "stateMutability": "view",
      "type": "function"
    },
    {
      "inputs": [],
      "name": "oiShort",
      "outputs": [
        {
          "internalType": "uint256",
          "name": "oiShort_",
          "type": "uint256"
        }
      ],
      "stateMutability": "view",
      "type": "function"
    },
    {
      "inputs": [],
      "name": "oiShortShares",
      "outputs": [
        {
          "internalType": "uint256",
          "name": "",
          "type": "uint256"
        }
      ],
      "stateMutability": "view",
      "type": "function"
    },
    {
      "inputs": [],
      "name": "ovl",
      "outputs": [
        {
          "internalType": "address",
          "name": "",
          "type": "address"
        }
      ],
      "stateMutability": "view",
      "type": "function"
    },
    {
      "inputs": [],
      "name": "ovlFeed",
      "outputs": [
        {
          "internalType": "address",
          "name": "",
          "type": "address"
        }
      ],
      "stateMutability": "view",
      "type": "function"
    },
    {
      "inputs": [],
      "name": "pbnj",
      "outputs": [
        {
          "internalType": "uint256",
          "name": "",
          "type": "uint256"
        }
      ],
      "stateMutability": "view",
      "type": "function"
    },
    {
      "inputs": [
        {
          "internalType": "bool",
          "name": "_isLong",
          "type": "bool"
        },
        {
          "internalType": "uint256",
          "name": "_priceEntry",
          "type": "uint256"
        }
      ],
      "name": "positionInfo",
      "outputs": [
        {
          "internalType": "uint256",
          "name": "oi_",
          "type": "uint256"
        },
        {
          "internalType": "uint256",
          "name": "oiShares_",
          "type": "uint256"
        },
        {
          "internalType": "uint256",
          "name": "priceFrame_",
          "type": "uint256"
        }
      ],
      "stateMutability": "view",
      "type": "function"
    },
    {
      "inputs": [
        {
          "internalType": "bool",
          "name": "_isLong",
          "type": "bool"
        },
        {
          "internalType": "uint256",
          "name": "_oi",
          "type": "uint256"
        },
        {
          "internalType": "uint256",
          "name": "_cap",
          "type": "uint256"
        }
      ],
      "name": "pressure",
      "outputs": [
        {
          "internalType": "uint256",
          "name": "pressure_",
          "type": "uint256"
        }
      ],
      "stateMutability": "view",
      "type": "function"
    },
    {
      "inputs": [],
      "name": "priceFrameCap",
      "outputs": [
        {
          "internalType": "uint256",
          "name": "",
          "type": "uint256"
        }
      ],
      "stateMutability": "view",
      "type": "function"
    },
    {
      "inputs": [],
      "name": "pricePointCurrent",
      "outputs": [
        {
          "internalType": "uint256",
          "name": "bid_",
          "type": "uint256"
        },
        {
          "internalType": "uint256",
          "name": "ask_",
          "type": "uint256"
        },
        {
          "internalType": "uint256",
          "name": "depth_",
          "type": "uint256"
        }
      ],
      "stateMutability": "view",
      "type": "function"
    },
    {
      "inputs": [],
      "name": "pricePointNextIndex",
      "outputs": [
        {
          "internalType": "uint256",
          "name": "nextIndex_",
          "type": "uint256"
        }
      ],
      "stateMutability": "view",
      "type": "function"
    },
    {
      "inputs": [
        {
          "internalType": "uint256",
          "name": "_pricePointIndex",
          "type": "uint256"
        }
      ],
      "name": "pricePoints",
      "outputs": [
        {
          "internalType": "uint256",
          "name": "bid_",
          "type": "uint256"
        },
        {
          "internalType": "uint256",
          "name": "ask_",
          "type": "uint256"
        },
        {
          "internalType": "uint256",
          "name": "depth_",
          "type": "uint256"
        }
      ],
      "stateMutability": "view",
      "type": "function"
    },
    {
      "inputs": [],
      "name": "quote",
      "outputs": [
        {
          "internalType": "address",
          "name": "",
          "type": "address"
        }
      ],
      "stateMutability": "view",
      "type": "function"
    },
    {
      "inputs": [
        {
          "components": [
            {
              "internalType": "int24",
              "name": "macroTick",
              "type": "int24"
            },
            {
              "internalType": "int24",
              "name": "microTick",
              "type": "int24"
            },
            {
              "internalType": "uint256",
              "name": "depth",
              "type": "uint256"
            }
          ],
          "internalType": "struct OverlayV1PricePoint.PricePoint",
          "name": "_pricePoint",
          "type": "tuple"
        }
      ],
      "name": "readPricePoint",
      "outputs": [
        {
          "internalType": "uint256",
          "name": "bid_",
          "type": "uint256"
        },
        {
          "internalType": "uint256",
          "name": "ask_",
          "type": "uint256"
        },
        {
          "internalType": "uint256",
          "name": "depth_",
          "type": "uint256"
        }
      ],
      "stateMutability": "view",
      "type": "function"
    },
    {
      "inputs": [
        {
          "internalType": "uint256",
          "name": "_pricePoint",
          "type": "uint256"
        }
      ],
      "name": "readPricePoint",
      "outputs": [
        {
          "internalType": "uint256",
          "name": "bid_",
          "type": "uint256"
        },
        {
          "internalType": "uint256",
          "name": "ask_",
          "type": "uint256"
        },
        {
          "internalType": "uint256",
          "name": "depth_",
          "type": "uint256"
        }
      ],
      "stateMutability": "view",
      "type": "function"
    },
    {
      "inputs": [
        {
          "internalType": "address",
          "name": "_collateral",
          "type": "address"
        }
      ],
      "name": "removeCollateral",
      "outputs": [],
      "stateMutability": "nonpayable",
      "type": "function"
    },
    {
      "inputs": [
        {
          "internalType": "uint256",
          "name": "_lmbda",
          "type": "uint256"
        },
        {
          "internalType": "uint256",
          "name": "_staticCap",
          "type": "uint256"
        },
        {
          "internalType": "uint256",
          "name": "_brrrrExpected",
          "type": "uint256"
        },
        {
          "internalType": "uint256",
          "name": "_brrrrdWindowMacro",
          "type": "uint256"
        },
        {
          "internalType": "uint256",
          "name": "_brrrrdWindowMicro",
          "type": "uint256"
        }
      ],
      "name": "setComptrollerParams",
      "outputs": [],
      "stateMutability": "nonpayable",
      "type": "function"
    },
    {
      "inputs": [
        {
          "internalType": "uint256",
          "name": "_k",
          "type": "uint256"
        },
        {
          "internalType": "uint256",
          "name": "_pbnj",
          "type": "uint256"
        },
        {
          "internalType": "uint256",
          "name": "_compoundPeriod",
          "type": "uint256"
        },
        {
          "internalType": "uint256",
          "name": "_lmbda",
          "type": "uint256"
        },
        {
          "internalType": "uint256",
          "name": "_staticCap",
          "type": "uint256"
        },
        {
          "internalType": "uint256",
          "name": "_brrrrdExpected",
          "type": "uint256"
        },
        {
          "internalType": "uint256",
          "name": "_brrrrdWindowMacro",
          "type": "uint256"
        },
        {
          "internalType": "uint256",
          "name": "_brrrrdWindowMicro",
          "type": "uint256"
        }
      ],
      "name": "setEverything",
      "outputs": [],
      "stateMutability": "nonpayable",
      "type": "function"
    },
    {
      "inputs": [
        {
          "internalType": "uint256",
          "name": "_k",
          "type": "uint256"
        }
      ],
      "name": "setK",
      "outputs": [],
      "stateMutability": "nonpayable",
      "type": "function"
    },
    {
      "inputs": [
        {
          "internalType": "uint256",
          "name": "_compoundingPeriod",
          "type": "uint256"
        }
      ],
      "name": "setPeriods",
      "outputs": [],
      "stateMutability": "nonpayable",
      "type": "function"
    },
    {
      "inputs": [
        {
          "internalType": "uint256",
          "name": "_pbnj",
          "type": "uint256"
        }
      ],
      "name": "setSpread",
      "outputs": [],
      "stateMutability": "nonpayable",
      "type": "function"
    },
    {
      "inputs": [],
      "name": "update",
      "outputs": [
        {
          "internalType": "uint256",
          "name": "cap_",
          "type": "uint256"
        }
      ],
      "stateMutability": "nonpayable",
      "type": "function"
    },
    {
      "inputs": [],
      "name": "updated",
      "outputs": [
        {
          "internalType": "uint256",
          "name": "",
          "type": "uint256"
        }
      ],
      "stateMutability": "view",
      "type": "function"
    }
  ],
  "bytecode": "610220604052600161017e556c0100000000000000000000000061017f553480156200002a57600080fd5b5060405162005de238038062005de28339810160408190526200004d9162001005565b88808284858060808181525050604051806060016040528042815260200160008152602001600081525060026000603c81106200008e576200008e6200144b565b60030201600082015181600001556020820151816001015560408201518160020155905050604051806060016040528042815260200160008152602001600081525060b66000603c8110620000e757620000e76200144b565b8251600391909102919091019081556020820151600182015560409091015160029091015550610172554261017355670de0b6b3a7640000811015620001685760405162461bcd60e51b81526020600482015260116024820152704f564c56313a2170726963654672616d6560781b60448201526064015b60405180910390fd5b60a0524261017a556001600160601b0319606082901b1660e0526040805163b29fa9c360e01b815290516001600160a01b0383169163b29fa9c3916004808301926020929190829003018186803b158015620001c357600080fd5b505afa158015620001d8573d6000803e3d6000fd5b505050506040513d601f19601f82011682018060405250810190620001fe919062000fe5565b60601b6001600160601b03191660c0525050828210620002565760405162461bcd60e51b81526020600482015260126024820152714f564c56313a6d6963726f3e3d6d6163726f60701b60448201526064016200015f565b6001600160601b0319606086811b82166101e05289811b82166101605288901b16610140526001600160801b0319608085901b166101c05261010083905261012082905260408051630dfe168160e01b815290516000916001600160a01b038a1691630dfe168191600480820192602092909190829003018186803b158015620002df57600080fd5b505afa158015620002f4573d6000803e3d6000fd5b505050506040513d601f19601f820116820180604052508101906200031a919062000fe5565b90506000886001600160a01b031663d21220a76040518163ffffffff1660e01b815260040160206040518083038186803b1580156200035857600080fd5b505afa1580156200036d573d6000803e3d6000fd5b505050506040513d601f19601f8201168201806040525081019062000393919062000fe5565b9050866001600160a01b0316826001600160a01b03161480620003c75750866001600160a01b0316816001600160a01b0316145b620004095760405162461bcd60e51b815260206004820152601160248201527009eac98ac6274e8ded6cadc427aae8aa89607b1b60448201526064016200015f565b6001600160a01b03828116818916811460f81b61020052908916141562000431578062000433565b815b60601b6001600160601b031916610180526001600160a01b03888116908316146200045f578062000461565b815b6001600160a01b03166101a0816001600160a01b031660601b815250506000620004998a876000620005f860201b62001e831760201c565b60408051606081018252600283810b80835260208301908152600093830184815261017b805460018101825590865293519383027f46985247fac81b794ada23f07cfef771057cf55c53a3d12054bcb524935683d7810180549351850b62ffffff90811663010000000265ffffffffffff199095169690950b9094169490941791909117909155517f46985247fac81b794ada23f07cfef771057cf55c53a3d12054bcb524935683d890910155909150620005a182896001600160a01b03878116908e1614156200056b57856200056d565b865b8d6001600160a01b0316886001600160a01b0316146200058e578662000590565b875b620007f160201b6200205c1760201c565b604080518281526020810183905260008183015290519192507f8371b63c1831915158cdb0bbb5e03eb9c0188dc41aaa16c5ab3598b538a23d20919081900360600190a15050505050505050505050505062001490565b6000806200060783856200134e565b905063ffffffff8116620006435760405162461bcd60e51b8152602060048201526002602482015261042560f41b60448201526064016200015f565b60408051600280825260608201835260009260208301908036833701905050905084816000815181106200067b576200067b6200144b565b602002602001019063ffffffff16908163ffffffff16815250508381600181518110620006ac57620006ac6200144b565b63ffffffff9092166020928302919091019091015260405163883bdbfd60e01b81526000906001600160a01b0388169063883bdbfd90620006f2908590600401620011a1565b60006040518083038186803b1580156200070b57600080fd5b505afa15801562000720573d6000803e3d6000fd5b505050506040513d6000823e601f3d908101601f191682016040526200074a9190810190620010c3565b5090506000816000815181106200076557620007656200144b565b6020026020010151826001815181106200078357620007836200144b565b6020026020010151620007979190620012de565b9050620007a9600385900b8262001261565b945060008160060b128015620007d05750620007ca600385900b826200139d565b60060b15155b15620007e65784620007e28162001376565b9550505b505050509392505050565b6000806200080a866200095e60201b6200216a1760201c565b90506001600160801b036001600160a01b03821611620008b05760006200083b6001600160a01b03831680620012bc565b9050836001600160a01b0316856001600160a01b03161062000882576200087c600160c01b876001600160801b03168362000dbf60201b620025891760201c565b620008a7565b620008a781876001600160801b0316600160c01b62000dbf60201b620025891760201c565b92505062000955565b6000620008e5826001600160a01b0316836001600160a01b03166801000000000000000062000dbf60201b620025891760201c565b9050836001600160a01b0316856001600160a01b0316106200092c5762000926600160801b876001600160801b03168362000dbf60201b620025891760201c565b62000951565b6200095181876001600160801b0316600160801b62000dbf60201b620025891760201c565b9250505b50949350505050565b60008060008360020b1262000977578260020b62000986565b8260020b6200098690620013ff565b905062000997620d89e719620013d9565b62ffffff16811115620009d15760405162461bcd60e51b81526020600482015260016024820152601560fa1b60448201526064016200015f565b600060018216620009e757600160801b620009f9565b6ffffcb933bd6fad37aa2d162d1a5940015b6001600160881b03169050600282161562000a3157608062000a2c826ffff97272373d413259a46990580e213a620012bc565b901c90505b600482161562000a5e57608062000a59826ffff2e50f5f656932ef12357cf3c7fdcc620012bc565b901c90505b600882161562000a8b57608062000a86826fffe5caca7e10e4e61c3624eaa0941cd0620012bc565b901c90505b601082161562000ab857608062000ab3826fffcb9843d60f6159c9db58835c926644620012bc565b901c90505b602082161562000ae557608062000ae0826fff973b41fa98c081472e6896dfb254c0620012bc565b901c90505b604082161562000b1257608062000b0d826fff2ea16466c96a3843ec78b326b52861620012bc565b901c90505b608082161562000b3f57608062000b3a826ffe5dee046a99a2a811c461f1969c3053620012bc565b901c90505b61010082161562000b6d57608062000b68826ffcbe86c7900a88aedcffc83b479aa3a4620012bc565b901c90505b61020082161562000b9b57608062000b96826ff987a7253ac413176f2b074cf7815e54620012bc565b901c90505b61040082161562000bc957608062000bc4826ff3392b0822b70005940c7a398e4b70f3620012bc565b901c90505b61080082161562000bf757608062000bf2826fe7159475a2c29b7443b29c7fa6e889d9620012bc565b901c90505b61100082161562000c2557608062000c20826fd097f3bdfd2022b8845ad8f792aa5825620012bc565b901c90505b61200082161562000c5357608062000c4e826fa9f746462d870fdf8a65dc1f90e061e5620012bc565b901c90505b61400082161562000c8157608062000c7c826f70d869a156d2a1b890bb3df62baf32f7620012bc565b901c90505b61800082161562000caf57608062000caa826f31be135f97d08fd981231505542fcfa6620012bc565b901c90505b6201000082161562000cde57608062000cd9826f09aa508b5b7a84e1c677de54f3e99bc9620012bc565b901c90505b6202000082161562000d0c57608062000d07826e5d6af8dedb81196699c329225ee604620012bc565b901c90505b6204000082161562000d3957608062000d34826d2216e584f5fa1ea926041bedfe98620012bc565b901c90505b6208000082161562000d6457608062000d5f826b048a170391f7dc42444e8fa2620012bc565b901c90505b60008460020b131562000d825762000d7f81600019620012a5565b90505b62000d9364010000000082620013c2565b1562000da157600162000da4565b60005b62000db79060ff16602083901c62001246565b949350505050565b60008080600019858709858702925082811083820303915050806000141562000dfc576000841162000df057600080fd5b50829004905062000f59565b80841162000e0957600080fd5b60008486880980840393811190920391905060008562000e2981620013ff565b1695869004959384900493600081900304600101905062000e4b8184620012bc565b90931792600062000e5e876003620012bc565b600218905062000e6f8188620012bc565b62000e7c90600262001334565b62000e889082620012bc565b905062000e968188620012bc565b62000ea390600262001334565b62000eaf9082620012bc565b905062000ebd8188620012bc565b62000eca90600262001334565b62000ed69082620012bc565b905062000ee48188620012bc565b62000ef190600262001334565b62000efd9082620012bc565b905062000f0b8188620012bc565b62000f1890600262001334565b62000f249082620012bc565b905062000f328188620012bc565b62000f3f90600262001334565b62000f4b9082620012bc565b9050620007e28186620012bc565b9392505050565b600082601f83011262000f7257600080fd5b8151602062000f8b62000f858362001220565b620011ed565b80838252828201915082860187848660051b890101111562000fac57600080fd5b60005b8581101562000fd857815162000fc58162001477565b8452928401929084019060010162000faf565b5090979650505050505050565b60006020828403121562000ff857600080fd5b815162000f598162001477565b60008060008060008060008060006101208a8c0312156200102557600080fd5b8951620010328162001477565b60208b0151909950620010458162001477565b60408b0151909850620010588162001477565b60608b01519097506200106b8162001477565b60808b01519096506200107e8162001477565b60a08b01519095506001600160801b03811681146200109c57600080fd5b8094505060c08a0151925060e08a015191506101008a015190509295985092959850929598565b60008060408385031215620010d757600080fd5b82516001600160401b0380821115620010ef57600080fd5b818501915085601f8301126200110457600080fd5b815160206200111762000f858362001220565b8083825282820191508286018a848660051b89010111156200113857600080fd5b600096505b848710156200116d5780518060060b81146200115857600080fd5b8352600196909601959183019183016200113d565b50918801519196509093505050808211156200118857600080fd5b50620011978582860162000f60565b9150509250929050565b6020808252825182820181905260009190848201906040850190845b81811015620011e157835163ffffffff1683529284019291840191600101620011bd565b50909695505050505050565b604051601f8201601f191681016001600160401b038111828210171562001218576200121862001461565b604052919050565b60006001600160401b038211156200123c576200123c62001461565b5060051b60200190565b600082198211156200125c576200125c6200141f565b500190565b60008160060b8360060b806200127b576200127b62001435565b667fffffffffffff198214600019821416156200129c576200129c6200141f565b90059392505050565b600082620012b757620012b762001435565b500490565b6000816000190483118215151615620012d957620012d96200141f565b500290565b60008160060b8360060b6000811281667fffffffffffff19018312811516156200130c576200130c6200141f565b81667fffffffffffff0183138116156200132a576200132a6200141f565b5090039392505050565b6000828210156200134957620013496200141f565b500390565b600063ffffffff838116908316818110156200136e576200136e6200141f565b039392505050565b60008160020b627fffff198114156200139357620013936200141f565b6000190192915050565b60008260060b80620013b357620013b362001435565b808360060b0791505092915050565b600082620013d457620013d462001435565b500690565b60008160020b627fffff19811415620013f657620013f66200141f565b60000392915050565b6000600160ff1b8214156200141857620014186200141f565b5060000390565b634e487b7160e01b600052601160045260246000fd5b634e487b7160e01b600052601260045260246000fd5b634e487b7160e01b600052603260045260246000fd5b634e487b7160e01b600052604160045260246000fd5b6001600160a01b03811681146200148d57600080fd5b50565b60805160a05160c05160601c60e05160601c61010051610120516101405160601c6101605160601c6101805160601c6101a05160601c6101c05160801c6101e05160601c6102005160f81c6147d66200160c600039600061158901526000611795015260008181612be201528181612c1b01528181612cd90152612d120152600081816106e301528181612b810152612c780152600081816105af01528181612bab0152612ca2015260008181610580015261166a01526000818161075e01526113730152600081816104c401528181611315015281816114760152611554015260008181610798015281816112c7015281816114060152818161160c01526116fd0152600081816105370152818161099701528181610b4f01528181610fd6015281816111b80152818161188701528181611a1801528181611b230152611d76015260008181610712015261177401526000818161044f015261299d0152600081816107fa01528181610e86015261308a01526147d66000f3fe608060405234801561001057600080fd5b506004361061038e5760003560e01c80637d2eaf4c116101de578063d14ca93c1161010f578063ef9b45dc116100ad578063fbaca1131161007c578063fbaca11314610872578063fbefb4b91461087c578063fd84e4de14610886578063ff1e62f01461088f57600080fd5b8063ef9b45dc1461082f578063f0d2d5a814610842578063f333fe1314610855578063f8fecbc41461085f57600080fd5b8063e06fc927116100e9578063e06fc927146107e1578063e07b877a146107eb578063e6b44e52146107f5578063e8fd2b771461081c57600080fd5b8063d14ca93c146107ba578063d28d04fb146107cd578063de51da07146107d757600080fd5b8063b29fa9c31161017c578063b77461a511610156578063b77461a514610751578063bf8f1d5a14610759578063c99d3a0614610780578063ca2e4f1d1461079357600080fd5b8063b29fa9c31461070d578063b4f40c6114610734578063b66a261c1461073e57600080fd5b80639563dbcf116101b85780639563dbcf146106995780639972b3f8146106ac578063999b93af146106de578063a2e620451461070557600080fd5b80637d2eaf4c146106545780638b759831146106675780638d5a63de1461067157600080fd5b8063401d56d2116102c357806358c489bd1161026157806367de8be91161023057806367de8be91461061a578063683009811461062d5780637836efd5146106375780637b2aab031461064a57600080fd5b806358c489bd146105e45780635dedde6d146105f75780636261a6b9146105ff578063631c56ef1461061257600080fd5b806343e4a2731161029d57806343e4a2731461057b5780634c9ea13e146105a25780635001f3b5146105aa578063561fed02146105d157600080fd5b8063401d56d21461051f5780634187b7d61461053257806341a3a0921461057157600080fd5b8063205f4711116103305780632acb38101161030a5780632acb3810146104e65780632c9c34b9146104f05780633669813914610503578063373e056b1461051657600080fd5b8063205f4711146104a157806324557b25146104aa5780632869f965146104bf57600080fd5b80630f2938391161036c5780630f2938391461040a5780630fce79531461044a5780631351caa1146104715780631827696d1461049457600080fd5b806309163014146103935780630a88bd04146103ae5780630ee21e54146103d6575b600080fd5b61039b6108a2565b6040519081526020015b60405180910390f35b6103c16103bc36600461439f565b6108b5565b604080519283526020830191909152016103a5565b6103fa6103e436600461415e565b61017d6020526000908152604090205460ff1681565b60405190151581526020016103a5565b61041d61041836600461428c565b6108f3565b604080519687526020870195909552938501929092526060840152608083015260a082015260c0016103a5565b61039b7f000000000000000000000000000000000000000000000000000000000000000081565b610479610ad8565b604080519384526020840192909252908201526060016103a5565b61039b655af3107a400081565b61039b60005481565b6104bd6104b83660046143fc565b610b26565b005b61039b7f000000000000000000000000000000000000000000000000000000000000000081565b61039b6101765481565b6104796104fe36600461436d565b610c41565b61039b61051136600461428c565b610cda565b61017b5461039b565b61047961052d366004614260565b610d4d565b6105597f000000000000000000000000000000000000000000000000000000000000000081565b6040516001600160a01b0390911681526020016103a5565b61039b61016b5481565b6105597f000000000000000000000000000000000000000000000000000000000000000081565b6103c1610de7565b6105597f000000000000000000000000000000000000000000000000000000000000000081565b61039b6105df36600461428c565b610e77565b6104796105f236600461436d565b610f01565b61039b610f28565b61047961060d366004614260565b610f3b565b61039b610f9c565b6104bd61062836600461436d565b610fad565b61039b6101715481565b610479610645366004614305565b61109c565b61039b61017a5481565b61039b61066236600461439f565b611125565b61039b6101735481565b61067961115f565b6040805194855260208501939093529183015260608201526080016103a5565b6104bd6106a736600461436d565b61118f565b6106b461127e565b604080518251600290810b825260208085015190910b9082015291810151908201526060016103a5565b6105597f000000000000000000000000000000000000000000000000000000000000000081565b61039b6117f0565b6105597f000000000000000000000000000000000000000000000000000000000000000081565b61039b6101785481565b6104bd61074c36600461436d565b61185e565b61039b61194d565b6105597f000000000000000000000000000000000000000000000000000000000000000081565b6104bd61078e36600461415e565b6119ef565b61039b7f000000000000000000000000000000000000000000000000000000000000000081565b6104bd6107c83660046143c1565b611afa565b61039b6101705481565b61039b61016e5481565b61039b61016f5481565b61039b61017c5481565b61039b7f000000000000000000000000000000000000000000000000000000000000000081565b6104bd61082a3660046142c1565b611bff565b61047961083d36600461436d565b611cd5565b6104bd61085036600461415e565b611d4d565b61039b6101775481565b61047961086d36600461436d565b611e5b565b61039b6101725481565b61039b6101795481565b61039b60015481565b61039b61089d36600461436d565b611e6b565b60006108ac61115f565b50909392505050565b610172546000908190806108c9858761463d565b6108d39190614592565b92506108df81846145a6565b6108e99085614516565b9150509250929050565b33600090815261017d60205260408120548190819081908190819060ff166109565760405162461bcd60e51b815260206004820152601160248201527013d593158c4e8858dbdb1b185d195c985b607a1b60448201526064015b60405180910390fd5b60006109606117f0565b61017b549091506109739060019061463d565b91506000610981898b6145a6565b905060006109908c83856126f3565b9050610a2d7f00000000000000000000000000000000000000000000000000000000000000006001600160a01b031663ddca3f436040518163ffffffff1660e01b815260040160206040518083038186803b1580156109ee57600080fd5b505afa158015610a02573d6000803e3d6000fd5b505050506040513d601f19601f82011682018060405250810190610a269190614386565b839061273d565b955093508385610a4382655af3107a4000614516565b610a4d9190614516565b8b1015610a8f5760405162461bcd60e51b815260206004820152601060248201526f27ab262b189d31b7b63630ba1e36b4b760811b604482015260640161094d565b85610a9a828d61463d565b610aa4919061463d565b9750610ab08a896145a6565b9850610abc888a61463d565b9650610ac98c8a85612787565b50505093975093979195509350565b61017a54600090819081904290808214610b0357610af761064561127e565b91965094509250610b1f565b61017b54610b179061083d9060019061463d565b919650945092505b5050909192565b604051632474521560e21b815260008051602061478183398151915260048201523360248201527f00000000000000000000000000000000000000000000000000000000000000006001600160a01b0316906391d148549060440160206040518083038186803b158015610b9957600080fd5b505afa158015610bad573d6000803e3d6000fd5b505050506040513d601f19601f82011682018060405250810190610bd19190614243565b610c0f5760405162461bcd60e51b815260206004820152600f60248201526e27ab262b189d10b3b7bb32b93737b960891b604482015260640161094d565b610c1888610fad565b610c218761185e565b610c2a8661118f565b610c378585858585611afa565b5050505050505050565b61017b546000908190819080851080610c6757508085148015610c6757504261017a5414155b610ca25760405162461bcd60e51b815260206004820152600c60248201526b4f564c56313a21707269636560a01b604482015260640161094d565b80851415610cc157610cb561064561127e565b91955093509150610cd2565b610cca85611cd5565b919550935091505b509193909250565b600080610ce8858585610e77565b90506000610d028261016b5461273d90919063ffffffff16565b9050600082610d12576000610d36565b610d36610d2767051af86713316a9a84612871565b670de0b6b3a7640000906128d6565b9050610d4286826128f2565b979650505050505050565b33600090815261017d60205260408120548190819060ff16610da55760405162461bcd60e51b815260206004820152601160248201527013d593158c4e8858dbdb1b185d195c985b607a1b604482015260640161094d565b610dad6117f0565b508415610dc65761017454610176549093509150610dd4565b610175546101775490935091505b610dde8585612957565b90509250925092565b600080600080610dfe60b660015461016f546129c1565b92509250508060200151826020015161016c600060028110610e2257610e2261472e565b0154610e2e9190614516565b610e38919061463d565b93508060400151826040015161016c600160028110610e5957610e5961472e565b0154610e659190614516565b610e6f919061463d565b925050509091565b6000806000610eaa60026000547f00000000000000000000000000000000000000000000000000000000000000006129c1565b925092505085610ecd5780604001518260400151610ec8919061463d565b610ee1565b80602001518260200151610ee1919061463d565b9250610eed8585612ab6565b610ef79084614516565b9695505050505050565b60b681603c8110610f1157600080fd5b600302018054600182015460029092015490925083565b6000610f3261115f565b50919392505050565b600080600080610f4e42610173546108b5565b509050600080600080610f6085612b10565b93509350935093508915610f7b578397508782975050610f84565b82975087819750505b610f8e8a8a612957565b955050505050509250925092565b6000610fa6610ad8565b9392505050565b604051632474521560e21b815260008051602061478183398151915260048201523360248201527f00000000000000000000000000000000000000000000000000000000000000006001600160a01b0316906391d148549060440160206040518083038186803b15801561102057600080fd5b505afa158015611034573d6000803e3d6000fd5b505050506040513d601f19601f820116820180604052508101906110589190614243565b6110965760405162461bcd60e51b815260206004820152600f60248201526e27ab262b189d10b3b7bb32b93737b960891b604482015260640161094d565b61017855565b6000806000806110af8560200151612b43565b905060006110c08660000151612b43565b610179549091506110ec6110dc6725b946ebc0b3635183612871565b6110e68486612d4a565b906128f2565b945061111361110367051af86713316a9a83612871565b61110d8486612d61565b9061273d565b60409097015196979496955050505050565b6000610fa6671bc16d674ec8000061115961016b548587670de0b6b3a764000061114f91906145a6565b6110e69190614592565b90612ab6565b600080600080600061117442610173546108b5565b50905061118081612b10565b92989197509550909350915050565b604051632474521560e21b815260008051602061478183398151915260048201523360248201527f00000000000000000000000000000000000000000000000000000000000000006001600160a01b0316906391d148549060440160206040518083038186803b15801561120257600080fd5b505afa158015611216573d6000803e3d6000fd5b505050506040513d601f19601f8201168201806040525081019061123a9190614243565b6112785760405162461bcd60e51b815260206004820152600f60248201526e27ab262b189d10b3b7bb32b93737b960891b604482015260640161094d565b61017255565b60408051606080820183526000808352602080840182905283850182905284516003808252608082019096529394929384938392839283928392820188803683370190505090507f0000000000000000000000000000000000000000000000000000000000000000816002815181106112f9576112f961472e565b602002602001019063ffffffff16908163ffffffff16815250507f0000000000000000000000000000000000000000000000000000000000000000816001815181106113475761134761472e565b63ffffffff9092166020928302919091019091015260405163883bdbfd60e01b81526001600160a01b037f0000000000000000000000000000000000000000000000000000000000000000169063883bdbfd906113a8908490600401614451565b60006040518083038186803b1580156113c057600080fd5b505afa1580156113d4573d6000803e3d6000fd5b505050506040513d6000823e601f3d908101601f191682016040526113fc919081019061417b565b80975081985050507f000000000000000000000000000000000000000000000000000000000000000060030b8760028151811061143b5761143b61472e565b6020026020010151886000815181106114565761145661472e565b602002602001015161146891906145c5565b611472919061452e565b91507f000000000000000000000000000000000000000000000000000000000000000060030b876001815181106114ab576114ab61472e565b6020026020010151886000815181106114c6576114c661472e565b60200260200101516114d891906145c5565b6114e2919061452e565b925060006114ef8461216a565b6001600160a01b0316905060008760018151811061150f5761150f61472e565b60200260200101518860008151811061152a5761152a61472e565b602002602001015161153c9190614615565b61157c906fffffffffffffffffffffffffffffffff197f000000000000000000000000000000000000000000000000000000000000000060801b1661456c565b6001600160a01b031690507f00000000000000000000000000000000000000000000000000000000000000006115bf576115ba818361017f54612589565b6115cd565b6115cd82606083901b614592565b955060009250600291506115de9050565b604051908082528060200260200182016040528015611607578160200160208202803683370190505b5090507f00000000000000000000000000000000000000000000000000000000000000008160018151811061163e5761163e61472e565b63ffffffff9092166020928302919091019091015260405163883bdbfd60e01b81526001600160a01b037f0000000000000000000000000000000000000000000000000000000000000000169063883bdbfd9061169f908490600401614451565b60006040518083038186803b1580156116b757600080fd5b505afa1580156116cb573d6000803e3d6000fd5b505050506040513d6000823e601f3d908101601f191682016040526116f3919081019061417b565b50809750506117b97f000000000000000000000000000000000000000000000000000000000000000060030b886001815181106117325761173261472e565b60200260200101518960008151811061174d5761174d61472e565b602002602001015161175f91906145c5565b611769919061452e565b670de0b6b3a76400007f00000000000000000000000000000000000000000000000000000000000000007f000000000000000000000000000000000000000000000000000000000000000061205c565b94505060405180606001604052808360020b81526020018260020b81526020016117e38587611125565b9052979650505050505050565b61017a54600090429080821461181d57600061180a61127e565b905061181581612d70565b5061017a8290555b60008061182d84610173546108b5565b9092509050811561184d576118456101785483612e60565b506101738190555b61185561194d565b94505050505090565b604051632474521560e21b815260008051602061478183398151915260048201523360248201527f00000000000000000000000000000000000000000000000000000000000000006001600160a01b0316906391d148549060440160206040518083038186803b1580156118d157600080fd5b505afa1580156118e5573d6000803e3d6000fd5b505050506040513d601f19601f820116820180604052508101906119099190614243565b6119475760405162461bcd60e51b815260206004820152600f60248201526e27ab262b189d10b3b7bb32b93737b960891b604482015260640161094d565b61017955565b600080600061195a610de7565b61017054919350915060008080848610156119785760019250611999565b611982858761463d565b955083861091506119948460026145a6565b861190505b806119e15782806119a75750815b6119c8576119c360016119b8610f9c565b61016a548988612ed4565b6119e4565b6119c360006119d5610f9c565b61016a54600080612ed4565b60005b965050505050505090565b604051632474521560e21b815260008051602061478183398151915260048201523360248201527f00000000000000000000000000000000000000000000000000000000000000006001600160a01b0316906391d148549060440160206040518083038186803b158015611a6257600080fd5b505afa158015611a76573d6000803e3d6000fd5b505050506040513d601f19601f82011682018060405250810190611a9a9190614243565b611ad85760405162461bcd60e51b815260206004820152600f60248201526e27ab262b189d10b3b7bb32b93737b960891b604482015260640161094d565b6001600160a01b0316600090815261017d60205260409020805460ff19169055565b604051632474521560e21b815260008051602061478183398151915260048201523360248201527f00000000000000000000000000000000000000000000000000000000000000006001600160a01b0316906391d148549060440160206040518083038186803b158015611b6d57600080fd5b505afa158015611b81573d6000803e3d6000fd5b505050506040513d601f19601f82011682018060405250810190611ba59190614243565b611be35760405162461bcd60e51b815260206004820152600f60248201526e27ab262b189d10b3b7bb32b93737b960891b604482015260640161094d565b61016b9490945561016a929092556101705561016f5561016e55565b33600090815261017d602052604090205460ff16611c535760405162461bcd60e51b815260206004820152601160248201527013d593158c4e8858dbdb1b185d195c985b607a1b604482015260640161094d565b611c5d8282612f25565b8415611c9b57836101746000828254611c76919061463d565b925050819055836101766000828254611c8f919061463d565b90915550611cce915050565b836101756000828254611cae919061463d565b925050819055836101776000828254611cc7919061463d565b9091555050505b5050505050565b6000806000611d4061017b8581548110611cf157611cf161472e565b6000918252602091829020604080516060810182526002938402909201805480850b850b850b845263010000009004840b840b90930b938201939093526001909101549181019190915261109c565b9250925092509193909250565b604051632474521560e21b815260008051602061478183398151915260048201523360248201527f00000000000000000000000000000000000000000000000000000000000000006001600160a01b0316906391d148549060440160206040518083038186803b158015611dc057600080fd5b505afa158015611dd4573d6000803e3d6000fd5b505050506040513d601f19601f82011682018060405250810190611df89190614243565b611e365760405162461bcd60e51b815260206004820152600f60248201526e27ab262b189d10b3b7bb32b93737b960891b604482015260640161094d565b6001600160a01b0316600090815261017d60205260409020805460ff19166001179055565b600281603c8110610f1157600080fd5b61016c8160028110611e7c57600080fd5b0154905081565b600080611e908385614654565b905063ffffffff8116611eca5760405162461bcd60e51b8152602060048201526002602482015261042560f41b604482015260640161094d565b6040805160028082526060820183526000926020830190803683370190505090508481600081518110611eff57611eff61472e565b602002602001019063ffffffff16908163ffffffff16815250508381600181518110611f2d57611f2d61472e565b63ffffffff9092166020928302919091019091015260405163883bdbfd60e01b81526000906001600160a01b0388169063883bdbfd90611f71908590600401614451565b60006040518083038186803b158015611f8957600080fd5b505afa158015611f9d573d6000803e3d6000fd5b505050506040513d6000823e601f3d908101601f19168201604052611fc5919081019061417b565b509050600081600081518110611fdd57611fdd61472e565b602002602001015182600181518110611ff857611ff861472e565b602002602001015161200a91906145c5565b905061201a600385900b8261452e565b945060008160060b12801561203e5750612038600385900b82614695565b60060b15155b15612051578461204d81614671565b9550505b505050509392505050565b6000806120688661216a565b90506001600160801b036001600160a01b038216116120ee5760006120966001600160a01b038316806145a6565b9050836001600160a01b0316856001600160a01b0316106120ce576120c9600160c01b876001600160801b031683612589565b6120e6565b6120e681876001600160801b0316600160c01b612589565b925050612161565b600061210d6001600160a01b0383168068010000000000000000612589565b9050836001600160a01b0316856001600160a01b03161061214557612140600160801b876001600160801b031683612589565b61215d565b61215d81876001600160801b0316600160801b612589565b9250505b50949350505050565b60008060008360020b12612181578260020b61218e565b8260020b61218e906146e5565b905061219d620d89e7196146cb565b62ffffff168111156121d55760405162461bcd60e51b81526020600482015260016024820152601560fa1b604482015260640161094d565b6000600182166121e957600160801b6121fb565b6ffffcb933bd6fad37aa2d162d1a5940015b70ffffffffffffffffffffffffffffffffff169050600282161561223a576080612235826ffff97272373d413259a46990580e213a6145a6565b901c90505b600482161561226457608061225f826ffff2e50f5f656932ef12357cf3c7fdcc6145a6565b901c90505b600882161561228e576080612289826fffe5caca7e10e4e61c3624eaa0941cd06145a6565b901c90505b60108216156122b85760806122b3826fffcb9843d60f6159c9db58835c9266446145a6565b901c90505b60208216156122e25760806122dd826fff973b41fa98c081472e6896dfb254c06145a6565b901c90505b604082161561230c576080612307826fff2ea16466c96a3843ec78b326b528616145a6565b901c90505b6080821615612336576080612331826ffe5dee046a99a2a811c461f1969c30536145a6565b901c90505b61010082161561236157608061235c826ffcbe86c7900a88aedcffc83b479aa3a46145a6565b901c90505b61020082161561238c576080612387826ff987a7253ac413176f2b074cf7815e546145a6565b901c90505b6104008216156123b75760806123b2826ff3392b0822b70005940c7a398e4b70f36145a6565b901c90505b6108008216156123e25760806123dd826fe7159475a2c29b7443b29c7fa6e889d96145a6565b901c90505b61100082161561240d576080612408826fd097f3bdfd2022b8845ad8f792aa58256145a6565b901c90505b612000821615612438576080612433826fa9f746462d870fdf8a65dc1f90e061e56145a6565b901c90505b61400082161561246357608061245e826f70d869a156d2a1b890bb3df62baf32f76145a6565b901c90505b61800082161561248e576080612489826f31be135f97d08fd981231505542fcfa66145a6565b901c90505b620100008216156124ba5760806124b5826f09aa508b5b7a84e1c677de54f3e99bc96145a6565b901c90505b620200008216156124e55760806124e0826e5d6af8dedb81196699c329225ee6046145a6565b901c90505b6204000082161561250f57608061250a826d2216e584f5fa1ea926041bedfe986145a6565b901c90505b62080000821615612537576080612532826b048a170391f7dc42444e8fa26145a6565b901c90505b60008460020b13156125525761254f81600019614592565b90505b612561640100000000826146b7565b1561256d576001612570565b60005b6125819060ff16602083901c614516565b949350505050565b6000808060001985870985870292508281108382030391505080600014156125c357600084116125b857600080fd5b508290049050610fa6565b8084116125cf57600080fd5b6000848688098084039381119092039190506000856125ed816146e5565b1695869004959384900493600081900304600101905061260d81846145a6565b90931792600061261e8760036145a6565b600218905061262d81886145a6565b61263890600261463d565b61264290826145a6565b905061264e81886145a6565b61265990600261463d565b61266390826145a6565b905061266f81886145a6565b61267a90600261463d565b61268490826145a6565b905061269081886145a6565b61269b90600261463d565b6126a590826145a6565b90506126b181886145a6565b6126bc90600261463d565b6126c690826145a6565b90506126d281886145a6565b6126dd90600261463d565b6126e790826145a6565b905061204d81866145a6565b600080600080612704878787613054565b92509250925061271960028484600054613177565b60005561272686826128f2565b9350612733600085612f25565b5050509392505050565b60008061274a83856145a6565b905061276b8415806127645750836127628684614592565b145b60036131dc565b61277d670de0b6b3a764000082614592565b9150505b92915050565b82156127ff578161017660008282546127a09190614516565b9091555050610174546000906127b7908490614516565b9050818111156127f65760405162461bcd60e51b815260206004820152600a60248201526904f564c56313a3e6361760b41b604482015260640161094d565b61017455505050565b8161017760008282546128129190614516565b909155505061017554600090612829908490614516565b9050818111156128685760405162461bcd60e51b815260206004820152600a60248201526904f564c56313a3e6361760b41b604482015260640161094d565b61017555505050565b600082670de0b6b3a76400001480612887575081155b1561289b5750670de0b6b3a7640000612781565b60006128a784846131ee565b905060006128c16128ba836127106128f2565b60016132ce565b90506128cd82826132ce565b95945050505050565b60006128e68383111560016131dc565b600061277d838561463d565b6000806128ff83856145a6565b90506129178415806127645750836127628684614592565b80612926576000915050612781565b670de0b6b3a764000061293a60018361463d565b6129449190614592565b61294f906001614516565b915050612781565b600080600061296584611cd5565b5091509150600080612975610ad8565b50915091508661298e5761298981856132eb565b610d42565b610d4261299b8385612ab6565b7f0000000000000000000000000000000000000000000000000000000000000000612d61565b60006129e760405180606001604052806000815260200160008152602001600081525090565b612a0b60405180606001604052806000815260200160008152602001600081525090565b428686603c8110612a1e57612a1e61472e565b60030201604051806060016040529081600082015481526020016001820154815260200160028201548152505092508260000151935060008582612a62919061463d565b905080846000015111612a8b575082526020808301519082015260408083015190820152612aad565b83518214612a97578184525b600080612aa58a8a8561333f565b509450505050505b93509350939050565b6000612ac582151560046131dc565b82612ad257506000612781565b6000612ae6670de0b6b3a7640000856145a6565b9050612b06670de0b6b3a7640000612afe8684614592565b1460056131dc565b61294f8382614592565b610174546101755461017654610177548415612b3c57612b35848487610178546134b1565b5090945092505b9193509193565b600080612b4f8361216a565b90506001600160801b036001600160a01b03821611612c55576000612b7d6001600160a01b038316806145a6565b90507f00000000000000000000000000000000000000000000000000000000000000006001600160a01b03167f00000000000000000000000000000000000000000000000000000000000000006001600160a01b031610612c1557612c10600160c01b7f00000000000000000000000000000000000000000000000000000000000000006001600160801b031683612589565b612c4d565b612c4d817f00000000000000000000000000000000000000000000000000000000000000006001600160801b0316600160c01b612589565b925050612d44565b6000612c746001600160a01b0383168068010000000000000000612589565b90507f00000000000000000000000000000000000000000000000000000000000000006001600160a01b03167f00000000000000000000000000000000000000000000000000000000000000006001600160a01b031610612d0c57612d07600160801b7f00000000000000000000000000000000000000000000000000000000000000006001600160801b031683612589565b612581565b612581817f00000000000000000000000000000000000000000000000000000000000000006001600160801b0316600160801b612589565b50919050565b600081831015612d5a5781610fa6565b5090919050565b6000818310612d5a5781610fa6565b61017b80546001810182556000918252825160029182027f46985247fac81b794ada23f07cfef771057cf55c53a3d12054bcb524935683d7810180546020870151850b62ffffff90811663010000000265ffffffffffff199092169490950b9094169290921792909217905560408301517f46985247fac81b794ada23f07cfef771057cf55c53a3d12054bcb524935683d8909101558080612e118461109c565b604080518481526020810184905290810182905292955090935091507f8371b63c1831915158cdb0bbb5e03eb9c0188dc41aaa16c5ab3598b538a23d209060600160405180910390a150505050565b6000806000612e77610174546101755486886134b1565b610174839055610175829055604080518481526020810184905290810182905290955091935091507fbd9b2eb2e69e8d71702753e645d1fbcda9b8473629152f5a3cbc18bc2ceecc2f9060600160405180910390a1505092915050565b60008515612f1b576000612efe85612eec8686612ab6565b61110d90671bc16d674ec8000061463d565b9050612f1385612f0e8389612d61565b612d61565b9150506128cd565b610ef78486612d61565b6101715442908082111561301657600154600060b682603c8110612f4b57612f4b61472e565b604080516060810182526003929092029290920180546001820154602084018181526002909301549484019490945286835261016c5492945092612f90908390614516565b90525061016d54604083018051612fa8908390614516565b905250612fb860b6838386613177565b60015561016c87905561016d86905561016e548080612fd7878961463d565b612fe19190614592565b612feb91906145a6565b612ff59082614516565b61017160008282546130079190614516565b9091555061304e945050505050565b8361016c600001600082825461302c9190614516565b9091555083905061016c60010160008282546130489190614516565b90915550505b50505050565b61307860405180606001604052806000815260200160008152602001600081525090565b60008060008060006130ae60026000547f00000000000000000000000000000000000000000000000000000000000000006129c1565b9194509250905060006130c18989612ab6565b905089156130e35780836020018181516130db9190614516565b9052506130f9565b80836040018181516130f59190614516565b9052505b600061313a8b61311c5783604001518560400151613117919061463d565b613130565b83602001518560200151613130919061463d565b61016b549061273d565b90508496508397508160001415613152576000613167565b613167610d2767051af86713316a9a83612871565b9550505050505093509350939050565b8251600090831461319c57603c61318f836001614516565b61319991906146b7565b91505b838583603c81106131af576131af61472e565b82516003919091029190910190815560208201516001820155604090910151600290910155509392505050565b816131ea576131ea816135ff565b5050565b6000613201600160ff1b841060066131dc565b82613227770bce5086492111aea88f4bb1ca6bcf584181ea8059f76532841060076131dc565b826000670c7d713b49da0000831380156132485750670f43fc2c04ee000083125b1561327f57600061325884613652565b9050670de0b6b3a764000080820784020583670de0b6b3a76400008305020191505061328d565b816132898461377a565b0290505b670de0b6b3a764000090056132c5680238fd42c5cf03ffff1982128015906132be575068070c1cc73b00c800008213155b60086131dc565b610ef781613b25565b6000806132db8385614516565b9050610fa68482101560006131dc565b60006132fa82151560046131dc565b8261330757506000612781565b600061331b670de0b6b3a7640000856145a6565b9050613333670de0b6b3a7640000612afe8684614592565b8261293a60018361463d565b61336360405180606001604052806000815260200160008152602001600081525090565b61338760405180606001604052806000815260200160008152602001600081525090565b8484603c81106133995761339961472e565b6003020160405180606001604052908160008201548152602001600182015481526020016002820154815250509150828260000151116133fd5781518314156133e1576134a9565b42815260208083015190820152604080830151908201526134a9565b603c61340a856001614516565b61341491906146b7565b93508484603c81106134285761342861472e565b6003020160405180606001604052908160008201548152602001600182015481526020016002820154815250509150600182600001511161348a5760408051606081018252865481526001870154602082015260028701549181019190915291505b815183116134995750806134a9565b6134a4858486613f08565b915091505b935093915050565b60008080861580156134c1575085155b156134d4575060009150819050806135f5565b846134e7575085915084905060006135f5565b6000613509610d27613502670de0b6b3a764000060026145a6565b87906128f2565b905061352761352087670de0b6b3a76400006145a6565b8290612871565b90508787808211801590613539579091905b8161355f57600061354a858561273d565b9050613556818561463d565b955092506135d0565b600061357561356e848661463d565b869061273d565b905060006135838486614516565b90506002613591858761463d565b61359b9190614592565b965060026135a98383614516565b6135b39190614592565b945060026135c1838361463d565b6135cb9190614592565b935050505b806135e55782826135e0876146e5565b6135e9565b8183865b91985096509450505050505b9450945094915050565b62461bcd60e51b6000908152602060045260076024526642414c23000030600a808404818106603090810160081b95839006959095019082900491820690940160101b939093010160c81b604452606490fd5b670de0b6b3a7640000026000806ec097ce7bc90715b34b9f1000000000808401906ec097ce7bc90715b34b9f0fffffffff198501028161369457613694614718565b05905060006ec097ce7bc90715b34b9f100000000082800205905081806ec097ce7bc90715b34b9f100000000081840205915060038205016ec097ce7bc90715b34b9f100000000082840205915060058205016ec097ce7bc90715b34b9f100000000082840205915060078205016ec097ce7bc90715b34b9f100000000082840205915060098205016ec097ce7bc90715b34b9f1000000000828402059150600b8205016ec097ce7bc90715b34b9f1000000000828402059150600d8205016ec097ce7bc90715b34b9f1000000000828402059150600f82050160020295945050505050565b6000670de0b6b3a76400008212156137bc576137b3826ec097ce7bc90715b34b9f1000000000816137ad576137ad614718565b0561377a565b60000392915050565b60007e1600ef3172e58d2e933ec884fde10064c63b5372d805e203c0000000000000831261380d57770195e54c5dd42177f53a27172fa9ec630262827000000000830592506806f05b59d3b2000000015b73011798004d755d3c8bc8e03204cf44619e0000008312613845576b1425982cf597cd205cef7380830592506803782dace9d9000000015b606492830292026e01855144814a7ff805980ff0084000831261388d576e01855144814a7ff805980ff008400068056bc75e2d63100000840205925068ad78ebc5ac62000000015b6b02df0ab5a80a22c61ab5a70083126138c8576b02df0ab5a80a22c61ab5a70068056bc75e2d6310000084020592506856bc75e2d631000000015b693f1fce3da636ea5cf85083126138ff57693f1fce3da636ea5cf85068056bc75e2d631000008402059250682b5e3af16b18800000015b690127fa27722cc06cc5e2831261393657690127fa27722cc06cc5e268056bc75e2d6310000084020592506815af1d78b58c400000015b68280e60114edb805d03831261396b5768280e60114edb805d0368056bc75e2d631000008402059250680ad78ebc5ac6200000015b680ebc5fb41746121110831261399657680ebc5fb4174612111068056bc75e2d631000009384020592015b6808f00f760a4b2db55d83126139cb576808f00f760a4b2db55d68056bc75e2d6310000084020592506802b5e3af16b1880000015b6806f5f17757889379378312613a00576806f5f177578893793768056bc75e2d63100000840205925068015af1d78b58c40000015b6806248f33704b2866038312613a34576806248f33704b28660368056bc75e2d63100000840205925067ad78ebc5ac620000015b6805c548670b9510e7ac8312613a68576805c548670b9510e7ac68056bc75e2d6310000084020592506756bc75e2d6310000015b600068056bc75e2d63100000840168056bc75e2d631000008086030281613a9157613a91614718565b059050600068056bc75e2d63100000828002059050818068056bc75e2d63100000818402059150600382050168056bc75e2d63100000828402059150600582050168056bc75e2d63100000828402059150600782050168056bc75e2d63100000828402059150600982050168056bc75e2d63100000828402059150600b820501600202606485820105979650505050505050565b6000613b54680238fd42c5cf03ffff198312158015613b4d575068070c1cc73b00c800008313155b60096131dc565b6000821215613b8d57613b6982600003613b25565b6ec097ce7bc90715b34b9f100000000081613b8657613b86614718565b0592915050565b60006806f05b59d3b20000008312613bcd57506806f05b59d3b1ffffff1990910190770195e54c5dd42177f53a27172fa9ec630262827000000000613c03565b6803782dace9d90000008312613bff57506803782dace9d8ffffff19909101906b1425982cf597cd205cef7380613c03565b5060015b6064929092029168056bc75e2d6310000068ad78ebc5ac620000008412613c535768ad78ebc5ac61ffffff199093019268056bc75e2d631000006e01855144814a7ff805980ff008400082020590505b6856bc75e2d6310000008412613c8f576856bc75e2d630ffffff199093019268056bc75e2d631000006b02df0ab5a80a22c61ab5a70082020590505b682b5e3af16b188000008412613cc957682b5e3af16b187fffff199093019268056bc75e2d63100000693f1fce3da636ea5cf85082020590505b6815af1d78b58c4000008412613d03576815af1d78b58c3fffff199093019268056bc75e2d63100000690127fa27722cc06cc5e282020590505b680ad78ebc5ac62000008412613d3c57680ad78ebc5ac61fffff199093019268056bc75e2d6310000068280e60114edb805d0382020590505b68056bc75e2d631000008412613d755768056bc75e2d630fffff199093019268056bc75e2d63100000680ebc5fb4174612111082020590505b6802b5e3af16b18800008412613dae576802b5e3af16b187ffff199093019268056bc75e2d631000006808f00f760a4b2db55d82020590505b68015af1d78b58c400008412613de75768015af1d78b58c3ffff199093019268056bc75e2d631000006806f5f177578893793782020590505b68056bc75e2d631000008481019085906002908280020505918201919050600368056bc75e2d631000008783020505918201919050600468056bc75e2d631000008783020505918201919050600568056bc75e2d631000008783020505918201919050600668056bc75e2d631000008783020505918201919050600768056bc75e2d631000008783020505918201919050600868056bc75e2d631000008783020505918201919050600968056bc75e2d631000008783020505918201919050600a68056bc75e2d631000008783020505918201919050600b68056bc75e2d631000008783020505918201919050600c68056bc75e2d631000008783020505918201919050606468056bc75e2d63100000848402058502059695505050505050565b613f2c60405180606001604052806000815260200160008152602001600081525090565b613f5060405180606001604052806000815260200160008152602001600081525090565b6000603c613f5f8560016144f0565b61ffff16613f6d91906146b7565b905060006001613f7e603c84614516565b613f88919061463d565b905060005b6002613f998385614516565b613fa39190614592565b905087613fb1603c836146b7565b603c8110613fc157613fc161472e565b6003020160405180606001604052908160008201548152602001600182015481526020016002820154815250509450600185600001511161400e57614007816001614516565b9250613f8d565b87603c61401c836001614516565b61402691906146b7565b603c81106140365761403661472e565b600302016040518060600160405290816000820154815260200160018201548152602001600282015481525050935060008763ffffffff1686600001511115905080801561408b5750845163ffffffff891611155b1561409657506140c1565b806140ad576140a660018361463d565b92506140bb565b6140b8826001614516565b93505b50613f8d565b505050935093915050565b600082601f8301126140dd57600080fd5b815160206140f26140ed836144cc565b61449b565b80838252828201915082860187848660051b890101111561411257600080fd5b60005b8581101561413a5781516141288161475a565b84529284019290840190600101614115565b5090979650505050505050565b8035600281900b811461415957600080fd5b919050565b60006020828403121561417057600080fd5b8135610fa68161475a565b6000806040838503121561418e57600080fd5b825167ffffffffffffffff808211156141a657600080fd5b818501915085601f8301126141ba57600080fd5b815160206141ca6140ed836144cc565b8083825282820191508286018a848660051b89010111156141ea57600080fd5b600096505b8487101561421c5780518060060b811461420857600080fd5b8352600196909601959183019183016141ef565b509188015191965090935050508082111561423657600080fd5b506108e9858286016140cc565b60006020828403121561425557600080fd5b8151610fa681614772565b6000806040838503121561427357600080fd5b823561427e81614772565b946020939093013593505050565b6000806000606084860312156142a157600080fd5b83356142ac81614772565b95602085013595506040909401359392505050565b600080600080600060a086880312156142d957600080fd5b85356142e481614772565b97602087013597506040870135966060810135965060800135945092505050565b60006060828403121561431757600080fd5b6040516060810181811067ffffffffffffffff8211171561433a5761433a614744565b60405261434683614147565b815261435460208401614147565b6020820152604083013560408201528091505092915050565b60006020828403121561437f57600080fd5b5035919050565b60006020828403121561439857600080fd5b5051919050565b600080604083850312156143b257600080fd5b50508035926020909101359150565b600080600080600060a086880312156143d957600080fd5b505083359560208501359550604085013594606081013594506080013592509050565b600080600080600080600080610100898b03121561441957600080fd5b505086359860208801359850604088013597606081013597506080810135965060a0810135955060c0810135945060e0013592509050565b6020808252825182820181905260009190848201906040850190845b8181101561448f57835163ffffffff168352928401929184019160010161446d565b50909695505050505050565b604051601f8201601f1916810167ffffffffffffffff811182821017156144c4576144c4614744565b604052919050565b600067ffffffffffffffff8211156144e6576144e6614744565b5060051b60200190565b600061ffff80831681851680830382111561450d5761450d614702565b01949350505050565b6000821982111561452957614529614702565b500190565b60008160060b8360060b8061454557614545614718565b667fffffffffffff1982146000198214161561456357614563614702565b90059392505050565b60006001600160a01b038084168061458657614586614718565b92169190910492915050565b6000826145a1576145a1614718565b500490565b60008160001904831182151516156145c0576145c0614702565b500290565b60008160060b8360060b6000811281667fffffffffffff19018312811516156145f0576145f0614702565b81667fffffffffffff01831381161561460b5761460b614702565b5090039392505050565b60006001600160a01b038381169083168181101561463557614635614702565b039392505050565b60008282101561464f5761464f614702565b500390565b600063ffffffff8381169083168181101561463557614635614702565b60008160020b627fffff1981141561468b5761468b614702565b6000190192915050565b60008260060b806146a8576146a8614718565b808360060b0791505092915050565b6000826146c6576146c6614718565b500690565b60008160020b627fffff198114156137b3576137b3614702565b6000600160ff1b8214156146fb576146fb614702565b5060000390565b634e487b7160e01b600052601160045260246000fd5b634e487b7160e01b600052601260045260246000fd5b634e487b7160e01b600052603260045260246000fd5b634e487b7160e01b600052604160045260246000fd5b6001600160a01b038116811461476f57600080fd5b50565b801515811461476f57600080fdfe1a6838efa4183e08fe3607359d1259272af9d4716f65e1a7b5921f78fd5a3c6aa2646970667358221220ff188534afec1dd75d17dfbc5aa74cd99afefcd9c2442e9227e2d14a8baf730264736f6c63430008070033",
  "bytecodeSha1": "63b980002dc80714b7e7e8a210305bd4ea39887e",
  "compiler": {
    "evm_version": "london",
    "optimizer": {
      "enabled": true,
      "runs": 400
    },
    "version": "0.8.7+commit.e28d00a7"
  },
  "contractName": "OverlayV1UniswapV3Market",
  "language": "Solidity",
  "natspec": {
    "kind": "dev",
    "methods": {
      "computeDepth(uint256,uint256)": {
        "details": "Derived from constant product formula X*Y=K and tailored to Uniswap V3 selective liquidity provision.",
        "params": {
          "_marketLiquidity": "Amount of liquidity in market in ETH terms.",
          "_ovlPrice": "Price of OVL against ETH."
        },
        "returns": {
          "depth_": "Depth criteria for market in OVL terms."
        }
      },
      "depth()": {
        "details": "Returns the time weighted liquidity of the market feed in OVL termsat the current block.",
        "notice": "The depth of the market feed in OVL terms at the current block.",
        "returns": {
          "depth_": "The time weighted liquidity in OVL terms."
        }
      },
      "enterOI(bool,uint256,uint256)": {
        "details": "This is invoked by Overlay collateral manager contracts, which devcan be for OVL, ERC20's, Overlay positions, NFTs, or what have you.The calculations for impact and fees are performed here.Calls OverlayV1Comptroller contract function: intakeCalls FixedPoint contract function: mulDownCalls OverlayV1OI contract function: addOi",
        "notice": "Adds open interest to the market",
        "params": {
          "_collateral": "The amount of collateral in OVL terms to take the position out with",
          "_isLong": "The side of the market to enter open interest on",
          "_leverage": "The leverage with which to take out the position"
        },
        "returns": {
          "collateralAdjusted_": "Amount of collateral after impact and fees",
          "debtAdjusted_": "Amount of debt after impact and fees",
          "fee_": "The protocol fee to be taken",
          "impact_": "The market impact for the build",
          "oiAdjusted_": "Amount of open interest after impact and fees",
          "pricePointNext_": "The index of the price point for the position"
        }
      },
      "epochs(uint256,uint256)": {
        "details": "This returns the number of compoundings that have passed since the last time funding was paid as well as the timestamp of the current compounding epoch, which come at regular intervals according to the compounding period.Called by `OverlayV1Market` function: `update`",
        "notice": "The compounding information for computing funding.",
        "params": {
          "_compounded": "The last time compounding occurred.",
          "_now": "The timestamp of the current block."
        },
        "returns": {
          "compoundings_": "The number of compounding periods passed since the last time funding was compounded.",
          "tCompounding_": "The current compounding epoch."
        }
      },
      "exitData(bool,uint256)": {
        "details": "This is called by the collateral managers to retrieve the necessaryinformation to calculate the specifics of each position, forinstance the PnL or if it is liquidatable.",
        "notice": "First part of the flow to remove OI from the system",
        "params": {
          "_isLong": "Whether the data is being retrieved for a long or short",
          "_pricePoint": "Index of the initial price point",
          "oiShares_": "Total outstanding open interest shares on that side",
          "oi_": "Total outstanding open interest on that side of the market",
          "priceFrame_": "The price multiple comprised of the entry and exit prices for the position, with the exit price being the current one. Longs receive the bid on exit and the ask on entry shorts the opposite"
        }
      },
      "exitOI(bool,uint256,uint256,uint256,uint256)": {
        "details": "Called as the second part of exiting oi, this function reports theopen interest in OVL terms to remove as well as open interest sharesto remove. It also registers printing or burning of OVL in theprocess.",
        "notice": "Removes open interest from the market",
        "params": {
          "_antiBrrrr": "How much was burnt on closing the position",
          "_brrrr": "How much was printed on closing the position",
          "_isLong": "The side from which to remove open interest",
          "_oi": "The open interest to remove in OVL terms",
          "_oiShares": "The open interest shares to remove"
        }
      },
      "fetchPricePoint()": {
        "details": "Reads price and depth of market feed",
        "notice": "Reads the current price and depth information",
        "returns": {
          "price_": "Price point"
        }
      },
      "getBrrrrd()": {
        "details": "Called by internal contract function: _oiCapCalls internal contract function: scry",
        "returns": {
          "antiBrrrrd_": "TODO",
          "brrrrd_": "TODO"
        }
      },
      "oi()": {
        "details": "Returns all up to date open interest data for the market.",
        "notice": "The current open interest on both sides of the market.",
        "returns": {
          "oiLongShares_": "Current open interest shares on the long side.",
          "oiLong_": "Current open interest on long side.",
          "oiShortShares_": "Current open interest shares on the short side.",
          "oiShort_": "Current open interest on short side."
        }
      },
      "oiCap()": {
        "details": "Calls internal function _oiCap to determine the cap relative to depthand dynamic or staticCalls internal contract function: getBrrrrd, _oiCap",
        "notice": "Public function to compute open interest cap for the market.",
        "returns": {
          "cap_": "The open interest cap for the market"
        }
      },
      "oiLong()": {
        "notice": "The current open interest on the long side.",
        "returns": {
          "oiLong_": "The current open interest on the long side."
        }
      },
      "oiShort()": {
        "notice": "The current open interest on the short side.",
        "returns": {
          "oiShort_": "The current open interest on the short side."
        }
      },
      "positionInfo(bool,uint256)": {
        "details": "These values are required to feed to the position calculations.",
        "notice": "Exposes important info for calculating position metrics.",
        "params": {
          "_isLong": "Whether position is on short or long side of market.",
          "_priceEntry": "Index of entry price"
        },
        "returns": {
          "oiShares_": "The current open interest shares on the chosen side.",
          "oi_": "The current open interest on the chosen side.",
          "priceFrame_": "Price frame resulting from e entry and exit prices."
        }
      },
      "pricePointCurrent()": {
        "details": "Returns the price point if it exists.Called by OverlayV1Market function: _updateCalls internal contract function: readPricePoint",
        "notice": "Current price point.",
        "returns": {
          "ask_": "Ask",
          "bid_": "Bid",
          "depth_": "Market liquidity in OVL terms"
        }
      },
      "pricePointNextIndex()": {
        "details": "Returns the index of the _next_ price",
        "notice": "Get the index of the next price to be realized",
        "returns": {
          "nextIndex_": "The length of the price point array"
        }
      },
      "pricePoints(uint256)": {
        "details": "Returns the price point if it exists.Calls internal contract function: readPricePoint",
        "notice": "All past price points.",
        "params": {
          "_pricePointIndex": "Index of the price point being queried"
        },
        "returns": {
          "ask_": "Ask",
          "bid_": "Bid",
          "depth_": "Market liquidity in OVL terms"
        }
      },
      "update()": {
        "details": "This function updates the market with the latest price andconditionally reads the depth of the market feed. The market needsan update on the first call of any block.Calls OverlayV1PricePoint contract function: fetchPricePointCalls OverlayV1PricePoint contract function: setPricePointNextCalls OverlayV1PricePoint contract function: pricePointCurrentCalls OverlayV1OI contract function: epochsCalls OverlayV1OI contract function: payFundingCalls OverlayV1Comptroller contract function: oiCap",
        "notice": "Updates price, cap, and pay funding.",
        "returns": {
          "cap_": "TODO"
        }
      }
    },
    "version": 1
  },
  "opcodes": "PUSH1 0x80 PUSH1 0x40 MSTORE CALLVALUE DUP1 ISZERO PUSH2 0x10 JUMPI PUSH1 0x0 DUP1 REVERT JUMPDEST POP PUSH1 0x4 CALLDATASIZE LT PUSH2 0x38E JUMPI PUSH1 0x0 CALLDATALOAD PUSH1 0xE0 SHR DUP1 PUSH4 0x7D2EAF4C GT PUSH2 0x1DE JUMPI DUP1 PUSH4 0xD14CA93C GT PUSH2 0x10F JUMPI DUP1 PUSH4 0xEF9B45DC GT PUSH2 0xAD JUMPI DUP1 PUSH4 0xFBACA113 GT PUSH2 0x7C JUMPI DUP1 PUSH4 0xFBACA113 EQ PUSH2 0x872 JUMPI DUP1 PUSH4 0xFBEFB4B9 EQ PUSH2 0x87C JUMPI DUP1 PUSH4 0xFD84E4DE EQ PUSH2 0x886 JUMPI DUP1 PUSH4 0xFF1E62F0 EQ PUSH2 0x88F JUMPI PUSH1 0x0 DUP1 REVERT JUMPDEST DUP1 PUSH4 0xEF9B45DC EQ PUSH2 0x82F JUMPI DUP1 PUSH4 0xF0D2D5A8 EQ PUSH2 0x842 JUMPI DUP1 PUSH4 0xF333FE13 EQ PUSH2 0x855 JUMPI DUP1 PUSH4 0xF8FECBC4 EQ PUSH2 0x85F JUMPI PUSH1 0x0 DUP1 REVERT JUMPDEST DUP1 PUSH4 0xE06FC927 GT PUSH2 0xE9 JUMPI DUP1 PUSH4 0xE06FC927 EQ PUSH2 0x7E1 JUMPI DUP1 PUSH4 0xE07B877A EQ PUSH2 0x7EB JUMPI DUP1 PUSH4 0xE6B44E52 EQ PUSH2 0x7F5 JUMPI DUP1 PUSH4 0xE8FD2B77 EQ PUSH2 0x81C JUMPI PUSH1 0x0 DUP1 REVERT JUMPDEST DUP1 PUSH4 0xD14CA93C EQ PUSH2 0x7BA JUMPI DUP1 PUSH4 0xD28D04FB EQ PUSH2 0x7CD JUMPI DUP1 PUSH4 0xDE51DA07 EQ PUSH2 0x7D7 JUMPI PUSH1 0x0 DUP1 REVERT JUMPDEST DUP1 PUSH4 0xB29FA9C3 GT PUSH2 0x17C JUMPI DUP1 PUSH4 0xB77461A5 GT PUSH2 0x156 JUMPI DUP1 PUSH4 0xB77461A5 EQ PUSH2 0x751 JUMPI DUP1 PUSH4 0xBF8F1D5A EQ PUSH2 0x759 JUMPI DUP1 PUSH4 0xC99D3A06 EQ PUSH2 0x780 JUMPI DUP1 PUSH4 0xCA2E4F1D EQ PUSH2 0x793 JUMPI PUSH1 0x0 DUP1 REVERT JUMPDEST DUP1 PUSH4 0xB29FA9C3 EQ PUSH2 0x70D JUMPI DUP1 PUSH4 0xB4F40C61 EQ PUSH2 0x734 JUMPI DUP1 PUSH4 0xB66A261C EQ PUSH2 0x73E JUMPI PUSH1 0x0 DUP1 REVERT JUMPDEST DUP1 PUSH4 0x9563DBCF GT PUSH2 0x1B8 JUMPI DUP1 PUSH4 0x9563DBCF EQ PUSH2 0x699 JUMPI DUP1 PUSH4 0x9972B3F8 EQ PUSH2 0x6AC JUMPI DUP1 PUSH4 0x999B93AF EQ PUSH2 0x6DE JUMPI DUP1 PUSH4 0xA2E62045 EQ PUSH2 0x705 JUMPI PUSH1 0x0 DUP1 REVERT JUMPDEST DUP1 PUSH4 0x7D2EAF4C EQ PUSH2 0x654 JUMPI DUP1 PUSH4 0x8B759831 EQ PUSH2 0x667 JUMPI DUP1 PUSH4 0x8D5A63DE EQ PUSH2 0x671 JUMPI PUSH1 0x0 DUP1 REVERT JUMPDEST DUP1 PUSH4 0x401D56D2 GT PUSH2 0x2C3 JUMPI DUP1 PUSH4 0x58C489BD GT PUSH2 0x261 JUMPI DUP1 PUSH4 0x67DE8BE9 GT PUSH2 0x230 JUMPI DUP1 PUSH4 0x67DE8BE9 EQ PUSH2 0x61A JUMPI DUP1 PUSH4 0x68300981 EQ PUSH2 0x62D JUMPI DUP1 PUSH4 0x7836EFD5 EQ PUSH2 0x637 JUMPI DUP1 PUSH4 0x7B2AAB03 EQ PUSH2 0x64A JUMPI PUSH1 0x0 DUP1 REVERT JUMPDEST DUP1 PUSH4 0x58C489BD EQ PUSH2 0x5E4 JUMPI DUP1 PUSH4 0x5DEDDE6D EQ PUSH2 0x5F7 JUMPI DUP1 PUSH4 0x6261A6B9 EQ PUSH2 0x5FF JUMPI DUP1 PUSH4 0x631C56EF EQ PUSH2 0x612 JUMPI PUSH1 0x0 DUP1 REVERT JUMPDEST DUP1 PUSH4 0x43E4A273 GT PUSH2 0x29D JUMPI DUP1 PUSH4 0x43E4A273 EQ PUSH2 0x57B JUMPI DUP1 PUSH4 0x4C9EA13E EQ PUSH2 0x5A2 JUMPI DUP1 PUSH4 0x5001F3B5 EQ PUSH2 0x5AA JUMPI DUP1 PUSH4 0x561FED02 EQ PUSH2 0x5D1 JUMPI PUSH1 0x0 DUP1 REVERT JUMPDEST DUP1 PUSH4 0x401D56D2 EQ PUSH2 0x51F JUMPI DUP1 PUSH4 0x4187B7D6 EQ PUSH2 0x532 JUMPI DUP1 PUSH4 0x41A3A092 EQ PUSH2 0x571 JUMPI PUSH1 0x0 DUP1 REVERT JUMPDEST DUP1 PUSH4 0x205F4711 GT PUSH2 0x330 JUMPI DUP1 PUSH4 0x2ACB3810 GT PUSH2 0x30A JUMPI DUP1 PUSH4 0x2ACB3810 EQ PUSH2 0x4E6 JUMPI DUP1 PUSH4 0x2C9C34B9 EQ PUSH2 0x4F0 JUMPI DUP1 PUSH4 0x36698139 EQ PUSH2 0x503 JUMPI DUP1 PUSH4 0x373E056B EQ PUSH2 0x516 JUMPI PUSH1 0x0 DUP1 REVERT JUMPDEST DUP1 PUSH4 0x205F4711 EQ PUSH2 0x4A1 JUMPI DUP1 PUSH4 0x24557B25 EQ PUSH2 0x4AA JUMPI DUP1 PUSH4 0x2869F965 EQ PUSH2 0x4BF JUMPI PUSH1 0x0 DUP1 REVERT JUMPDEST DUP1 PUSH4 0xF293839 GT PUSH2 0x36C JUMPI DUP1 PUSH4 0xF293839 EQ PUSH2 0x40A JUMPI DUP1 PUSH4 0xFCE7953 EQ PUSH2 0x44A JUMPI DUP1 PUSH4 0x1351CAA1 EQ PUSH2 0x471 JUMPI DUP1 PUSH4 0x1827696D EQ PUSH2 0x494 JUMPI PUSH1 0x0 DUP1 REVERT JUMPDEST DUP1 PUSH4 0x9163014 EQ PUSH2 0x393 JUMPI DUP1 PUSH4 0xA88BD04 EQ PUSH2 0x3AE JUMPI DUP1 PUSH4 0xEE21E54 EQ PUSH2 0x3D6 JUMPI JUMPDEST PUSH1 0x0 DUP1 REVERT JUMPDEST PUSH2 0x39B PUSH2 0x8A2 JUMP JUMPDEST PUSH1 0x40 MLOAD SWAP1 DUP2 MSTORE PUSH1 0x20 ADD JUMPDEST PUSH1 0x40 MLOAD DUP1 SWAP2 SUB SWAP1 RETURN JUMPDEST PUSH2 0x3C1 PUSH2 0x3BC CALLDATASIZE PUSH1 0x4 PUSH2 0x439F JUMP JUMPDEST PUSH2 0x8B5 JUMP JUMPDEST PUSH1 0x40 DUP1 MLOAD SWAP3 DUP4 MSTORE PUSH1 0x20 DUP4 ADD SWAP2 SWAP1 SWAP2 MSTORE ADD PUSH2 0x3A5 JUMP JUMPDEST PUSH2 0x3FA PUSH2 0x3E4 CALLDATASIZE PUSH1 0x4 PUSH2 0x415E JUMP JUMPDEST PUSH2 0x17D PUSH1 0x20 MSTORE PUSH1 0x0 SWAP1 DUP2 MSTORE PUSH1 0x40 SWAP1 KECCAK256 SLOAD PUSH1 0xFF AND DUP2 JUMP JUMPDEST PUSH1 0x40 MLOAD SWAP1 ISZERO ISZERO DUP2 MSTORE PUSH1 0x20 ADD PUSH2 0x3A5 JUMP JUMPDEST PUSH2 0x41D PUSH2 0x418 CALLDATASIZE PUSH1 0x4 PUSH2 0x428C JUMP JUMPDEST PUSH2 0x8F3 JUMP JUMPDEST PUSH1 0x40 DUP1 MLOAD SWAP7 DUP8 MSTORE PUSH1 0x20 DUP8 ADD SWAP6 SWAP1 SWAP6 MSTORE SWAP4 DUP6 ADD SWAP3 SWAP1 SWAP3 MSTORE PUSH1 0x60 DUP5 ADD MSTORE PUSH1 0x80 DUP4 ADD MSTORE PUSH1 0xA0 DUP3 ADD MSTORE PUSH1 0xC0 ADD PUSH2 0x3A5 JUMP JUMPDEST PUSH2 0x39B PUSH32 0x0 DUP2 JUMP JUMPDEST PUSH2 0x479 PUSH2 0xAD8 JUMP JUMPDEST PUSH1 0x40 DUP1 MLOAD SWAP4 DUP5 MSTORE PUSH1 0x20 DUP5 ADD SWAP3 SWAP1 SWAP3 MSTORE SWAP1 DUP3 ADD MSTORE PUSH1 0x60 ADD PUSH2 0x3A5 JUMP JUMPDEST PUSH2 0x39B PUSH6 0x5AF3107A4000 DUP2 JUMP JUMPDEST PUSH2 0x39B PUSH1 0x0 SLOAD DUP2 JUMP JUMPDEST PUSH2 0x4BD PUSH2 0x4B8 CALLDATASIZE PUSH1 0x4 PUSH2 0x43FC JUMP JUMPDEST PUSH2 0xB26 JUMP JUMPDEST STOP JUMPDEST PUSH2 0x39B PUSH32 0x0 DUP2 JUMP JUMPDEST PUSH2 0x39B PUSH2 0x176 SLOAD DUP2 JUMP JUMPDEST PUSH2 0x479 PUSH2 0x4FE CALLDATASIZE PUSH1 0x4 PUSH2 0x436D JUMP JUMPDEST PUSH2 0xC41 JUMP JUMPDEST PUSH2 0x39B PUSH2 0x511 CALLDATASIZE PUSH1 0x4 PUSH2 0x428C JUMP JUMPDEST PUSH2 0xCDA JUMP JUMPDEST PUSH2 0x17B SLOAD PUSH2 0x39B JUMP JUMPDEST PUSH2 0x479 PUSH2 0x52D CALLDATASIZE PUSH1 0x4 PUSH2 0x4260 JUMP JUMPDEST PUSH2 0xD4D JUMP JUMPDEST PUSH2 0x559 PUSH32 0x0 DUP2 JUMP JUMPDEST PUSH1 0x40 MLOAD PUSH1 0x1 PUSH1 0x1 PUSH1 0xA0 SHL SUB SWAP1 SWAP2 AND DUP2 MSTORE PUSH1 0x20 ADD PUSH2 0x3A5 JUMP JUMPDEST PUSH2 0x39B PUSH2 0x16B SLOAD DUP2 JUMP JUMPDEST PUSH2 0x559 PUSH32 0x0 DUP2 JUMP JUMPDEST PUSH2 0x3C1 PUSH2 0xDE7 JUMP JUMPDEST PUSH2 0x559 PUSH32 0x0 DUP2 JUMP JUMPDEST PUSH2 0x39B PUSH2 0x5DF CALLDATASIZE PUSH1 0x4 PUSH2 0x428C JUMP JUMPDEST PUSH2 0xE77 JUMP JUMPDEST PUSH2 0x479 PUSH2 0x5F2 CALLDATASIZE PUSH1 0x4 PUSH2 0x436D JUMP JUMPDEST PUSH2 0xF01 JUMP JUMPDEST PUSH2 0x39B PUSH2 0xF28 JUMP JUMPDEST PUSH2 0x479 PUSH2 0x60D CALLDATASIZE PUSH1 0x4 PUSH2 0x4260 JUMP JUMPDEST PUSH2 0xF3B JUMP JUMPDEST PUSH2 0x39B PUSH2 0xF9C JUMP JUMPDEST PUSH2 0x4BD PUSH2 0x628 CALLDATASIZE PUSH1 0x4 PUSH2 0x436D JUMP JUMPDEST PUSH2 0xFAD JUMP JUMPDEST PUSH2 0x39B PUSH2 0x171 SLOAD DUP2 JUMP JUMPDEST PUSH2 0x479 PUSH2 0x645 CALLDATASIZE PUSH1 0x4 PUSH2 0x4305 JUMP JUMPDEST PUSH2 0x109C JUMP JUMPDEST PUSH2 0x39B PUSH2 0x17A SLOAD DUP2 JUMP JUMPDEST PUSH2 0x39B PUSH2 0x662 CALLDATASIZE PUSH1 0x4 PUSH2 0x439F JUMP JUMPDEST PUSH2 0x1125 JUMP JUMPDEST PUSH2 0x39B PUSH2 0x173 SLOAD DUP2 JUMP JUMPDEST PUSH2 0x679 PUSH2 0x115F JUMP JUMPDEST PUSH1 0x40 DUP1 MLOAD SWAP5 DUP6 MSTORE PUSH1 0x20 DUP6 ADD SWAP4 SWAP1 SWAP4 MSTORE SWAP2 DUP4 ADD MSTORE PUSH1 0x60 DUP3 ADD MSTORE PUSH1 0x80 ADD PUSH2 0x3A5 JUMP JUMPDEST PUSH2 0x4BD PUSH2 0x6A7 CALLDATASIZE PUSH1 0x4 PUSH2 0x436D JUMP JUMPDEST PUSH2 0x118F JUMP JUMPDEST PUSH2 0x6B4 PUSH2 0x127E JUMP JUMPDEST PUSH1 0x40 DUP1 MLOAD DUP3 MLOAD PUSH1 0x2 SWAP1 DUP2 SIGNEXTEND DUP3 MSTORE PUSH1 0x20 DUP1 DUP6 ADD MLOAD SWAP1 SWAP2 SIGNEXTEND SWAP1 DUP3 ADD MSTORE SWAP2 DUP2 ADD MLOAD SWAP1 DUP3 ADD MSTORE PUSH1 0x60 ADD PUSH2 0x3A5 JUMP JUMPDEST PUSH2 0x559 PUSH32 0x0 DUP2 JUMP JUMPDEST PUSH2 0x39B PUSH2 0x17F0 JUMP JUMPDEST PUSH2 0x559 PUSH32 0x0 DUP2 JUMP JUMPDEST PUSH2 0x39B PUSH2 0x178 SLOAD DUP2 JUMP JUMPDEST PUSH2 0x4BD PUSH2 0x74C CALLDATASIZE PUSH1 0x4 PUSH2 0x436D JUMP JUMPDEST PUSH2 0x185E JUMP JUMPDEST PUSH2 0x39B PUSH2 0x194D JUMP JUMPDEST PUSH2 0x559 PUSH32 0x0 DUP2 JUMP JUMPDEST PUSH2 0x4BD PUSH2 0x78E CALLDATASIZE PUSH1 0x4 PUSH2 0x415E JUMP JUMPDEST PUSH2 0x19EF JUMP JUMPDEST PUSH2 0x39B PUSH32 0x0 DUP2 JUMP JUMPDEST PUSH2 0x4BD PUSH2 0x7C8 CALLDATASIZE PUSH1 0x4 PUSH2 0x43C1 JUMP JUMPDEST PUSH2 0x1AFA JUMP JUMPDEST PUSH2 0x39B PUSH2 0x170 SLOAD DUP2 JUMP JUMPDEST PUSH2 0x39B PUSH2 0x16E SLOAD DUP2 JUMP JUMPDEST PUSH2 0x39B PUSH2 0x16F SLOAD DUP2 JUMP JUMPDEST PUSH2 0x39B PUSH2 0x17C SLOAD DUP2 JUMP JUMPDEST PUSH2 0x39B PUSH32 0x0 DUP2 JUMP JUMPDEST PUSH2 0x4BD PUSH2 0x82A CALLDATASIZE PUSH1 0x4 PUSH2 0x42C1 JUMP JUMPDEST PUSH2 0x1BFF JUMP JUMPDEST PUSH2 0x479 PUSH2 0x83D CALLDATASIZE PUSH1 0x4 PUSH2 0x436D JUMP JUMPDEST PUSH2 0x1CD5 JUMP JUMPDEST PUSH2 0x4BD PUSH2 0x850 CALLDATASIZE PUSH1 0x4 PUSH2 0x415E JUMP JUMPDEST PUSH2 0x1D4D JUMP JUMPDEST PUSH2 0x39B PUSH2 0x177 SLOAD DUP2 JUMP JUMPDEST PUSH2 0x479 PUSH2 0x86D CALLDATASIZE PUSH1 0x4 PUSH2 0x436D JUMP JUMPDEST PUSH2 0x1E5B JUMP JUMPDEST PUSH2 0x39B PUSH2 0x172 SLOAD DUP2 JUMP JUMPDEST PUSH2 0x39B PUSH2 0x179 SLOAD DUP2 JUMP JUMPDEST PUSH2 0x39B PUSH1 0x1 SLOAD DUP2 JUMP JUMPDEST PUSH2 0x39B PUSH2 0x89D CALLDATASIZE PUSH1 0x4 PUSH2 0x436D JUMP JUMPDEST PUSH2 0x1E6B JUMP JUMPDEST PUSH1 0x0 PUSH2 0x8AC PUSH2 0x115F JUMP JUMPDEST POP SWAP1 SWAP4 SWAP3 POP POP POP JUMP JUMPDEST PUSH2 0x172 SLOAD PUSH1 0x0 SWAP1 DUP2 SWAP1 DUP1 PUSH2 0x8C9 DUP6 DUP8 PUSH2 0x463D JUMP JUMPDEST PUSH2 0x8D3 SWAP2 SWAP1 PUSH2 0x4592 JUMP JUMPDEST SWAP3 POP PUSH2 0x8DF DUP2 DUP5 PUSH2 0x45A6 JUMP JUMPDEST PUSH2 0x8E9 SWAP1 DUP6 PUSH2 0x4516 JUMP JUMPDEST SWAP2 POP POP SWAP3 POP SWAP3 SWAP1 POP JUMP JUMPDEST CALLER PUSH1 0x0 SWAP1 DUP2 MSTORE PUSH2 0x17D PUSH1 0x20 MSTORE PUSH1 0x40 DUP2 KECCAK256 SLOAD DUP2 SWAP1 DUP2 SWAP1 DUP2 SWAP1 DUP2 SWAP1 DUP2 SWAP1 PUSH1 0xFF AND PUSH2 0x956 JUMPI PUSH1 0x40 MLOAD PUSH3 0x461BCD PUSH1 0xE5 SHL DUP2 MSTORE PUSH1 0x20 PUSH1 0x4 DUP3 ADD MSTORE PUSH1 0x11 PUSH1 0x24 DUP3 ADD MSTORE PUSH17 0x13D593158C4E8858DBDB1B185D195C985B PUSH1 0x7A SHL PUSH1 0x44 DUP3 ADD MSTORE PUSH1 0x64 ADD JUMPDEST PUSH1 0x40 MLOAD DUP1 SWAP2 SUB SWAP1 REVERT JUMPDEST PUSH1 0x0 PUSH2 0x960 PUSH2 0x17F0 JUMP JUMPDEST PUSH2 0x17B SLOAD SWAP1 SWAP2 POP PUSH2 0x973 SWAP1 PUSH1 0x1 SWAP1 PUSH2 0x463D JUMP JUMPDEST SWAP2 POP PUSH1 0x0 PUSH2 0x981 DUP10 DUP12 PUSH2 0x45A6 JUMP JUMPDEST SWAP1 POP PUSH1 0x0 PUSH2 0x990 DUP13 DUP4 DUP6 PUSH2 0x26F3 JUMP JUMPDEST SWAP1 POP PUSH2 0xA2D PUSH32 0x0 PUSH1 0x1 PUSH1 0x1 PUSH1 0xA0 SHL SUB AND PUSH4 0xDDCA3F43 PUSH1 0x40 MLOAD DUP2 PUSH4 0xFFFFFFFF AND PUSH1 0xE0 SHL DUP2 MSTORE PUSH1 0x4 ADD PUSH1 0x20 PUSH1 0x40 MLOAD DUP1 DUP4 SUB DUP2 DUP7 DUP1 EXTCODESIZE ISZERO DUP1 ISZERO PUSH2 0x9EE JUMPI PUSH1 0x0 DUP1 REVERT JUMPDEST POP GAS STATICCALL ISZERO DUP1 ISZERO PUSH2 0xA02 JUMPI RETURNDATASIZE PUSH1 0x0 DUP1 RETURNDATACOPY RETURNDATASIZE PUSH1 0x0 REVERT JUMPDEST POP POP POP POP PUSH1 0x40 MLOAD RETURNDATASIZE PUSH1 0x1F NOT PUSH1 0x1F DUP3 ADD AND DUP3 ADD DUP1 PUSH1 0x40 MSTORE POP DUP2 ADD SWAP1 PUSH2 0xA26 SWAP2 SWAP1 PUSH2 0x4386 JUMP JUMPDEST DUP4 SWAP1 PUSH2 0x273D JUMP JUMPDEST SWAP6 POP SWAP4 POP DUP4 DUP6 PUSH2 0xA43 DUP3 PUSH6 0x5AF3107A4000 PUSH2 0x4516 JUMP JUMPDEST PUSH2 0xA4D SWAP2 SWAP1 PUSH2 0x4516 JUMP JUMPDEST DUP12 LT ISZERO PUSH2 0xA8F JUMPI PUSH1 0x40 MLOAD PUSH3 0x461BCD PUSH1 0xE5 SHL DUP2 MSTORE PUSH1 0x20 PUSH1 0x4 DUP3 ADD MSTORE PUSH1 0x10 PUSH1 0x24 DUP3 ADD MSTORE PUSH16 0x27AB262B189D31B7B63630BA1E36B4B7 PUSH1 0x81 SHL PUSH1 0x44 DUP3 ADD MSTORE PUSH1 0x64 ADD PUSH2 0x94D JUMP JUMPDEST DUP6 PUSH2 0xA9A DUP3 DUP14 PUSH2 0x463D JUMP JUMPDEST PUSH2 0xAA4 SWAP2 SWAP1 PUSH2 0x463D JUMP JUMPDEST SWAP8 POP PUSH2 0xAB0 DUP11 DUP10 PUSH2 0x45A6 JUMP JUMPDEST SWAP9 POP PUSH2 0xABC DUP9 DUP11 PUSH2 0x463D JUMP JUMPDEST SWAP7 POP PUSH2 0xAC9 DUP13 DUP11 DUP6 PUSH2 0x2787 JUMP JUMPDEST POP POP POP SWAP4 SWAP8 POP SWAP4 SWAP8 SWAP2 SWAP6 POP SWAP4 POP JUMP JUMPDEST PUSH2 0x17A SLOAD PUSH1 0x0 SWAP1 DUP2 SWAP1 DUP2 SWAP1 TIMESTAMP SWAP1 DUP1 DUP3 EQ PUSH2 0xB03 JUMPI PUSH2 0xAF7 PUSH2 0x645 PUSH2 0x127E JUMP JUMPDEST SWAP2 SWAP7 POP SWAP5 POP SWAP3 POP PUSH2 0xB1F JUMP JUMPDEST PUSH2 0x17B SLOAD PUSH2 0xB17 SWAP1 PUSH2 0x83D SWAP1 PUSH1 0x1 SWAP1 PUSH2 0x463D JUMP JUMPDEST SWAP2 SWAP7 POP SWAP5 POP SWAP3 POP JUMPDEST POP POP SWAP1 SWAP2 SWAP3 JUMP JUMPDEST PUSH1 0x40 MLOAD PUSH4 0x24745215 PUSH1 0xE2 SHL DUP2 MSTORE PUSH1 0x0 DUP1 MLOAD PUSH1 0x20 PUSH2 0x4781 DUP4 CODECOPY DUP2 MLOAD SWAP2 MSTORE PUSH1 0x4 DUP3 ADD MSTORE CALLER PUSH1 0x24 DUP3 ADD MSTORE PUSH32 0x0 PUSH1 0x1 PUSH1 0x1 PUSH1 0xA0 SHL SUB AND SWAP1 PUSH4 0x91D14854 SWAP1 PUSH1 0x44 ADD PUSH1 0x20 PUSH1 0x40 MLOAD DUP1 DUP4 SUB DUP2 DUP7 DUP1 EXTCODESIZE ISZERO DUP1 ISZERO PUSH2 0xB99 JUMPI PUSH1 0x0 DUP1 REVERT JUMPDEST POP GAS STATICCALL ISZERO DUP1 ISZERO PUSH2 0xBAD JUMPI RETURNDATASIZE PUSH1 0x0 DUP1 RETURNDATACOPY RETURNDATASIZE PUSH1 0x0 REVERT JUMPDEST POP POP POP POP PUSH1 0x40 MLOAD RETURNDATASIZE PUSH1 0x1F NOT PUSH1 0x1F DUP3 ADD AND DUP3 ADD DUP1 PUSH1 0x40 MSTORE POP DUP2 ADD SWAP1 PUSH2 0xBD1 SWAP2 SWAP1 PUSH2 0x4243 JUMP JUMPDEST PUSH2 0xC0F JUMPI PUSH1 0x40 MLOAD PUSH3 0x461BCD PUSH1 0xE5 SHL DUP2 MSTORE PUSH1 0x20 PUSH1 0x4 DUP3 ADD MSTORE PUSH1 0xF PUSH1 0x24 DUP3 ADD MSTORE PUSH15 0x27AB262B189D10B3B7BB32B93737B9 PUSH1 0x89 SHL PUSH1 0x44 DUP3 ADD MSTORE PUSH1 0x64 ADD PUSH2 0x94D JUMP JUMPDEST PUSH2 0xC18 DUP9 PUSH2 0xFAD JUMP JUMPDEST PUSH2 0xC21 DUP8 PUSH2 0x185E JUMP JUMPDEST PUSH2 0xC2A DUP7 PUSH2 0x118F JUMP JUMPDEST PUSH2 0xC37 DUP6 DUP6 DUP6 DUP6 DUP6 PUSH2 0x1AFA JUMP JUMPDEST POP POP POP POP POP POP POP POP JUMP JUMPDEST PUSH2 0x17B SLOAD PUSH1 0x0 SWAP1 DUP2 SWAP1 DUP2 SWAP1 DUP1 DUP6 LT DUP1 PUSH2 0xC67 JUMPI POP DUP1 DUP6 EQ DUP1 ISZERO PUSH2 0xC67 JUMPI POP TIMESTAMP PUSH2 0x17A SLOAD EQ ISZERO JUMPDEST PUSH2 0xCA2 JUMPI PUSH1 0x40 MLOAD PUSH3 0x461BCD PUSH1 0xE5 SHL DUP2 MSTORE PUSH1 0x20 PUSH1 0x4 DUP3 ADD MSTORE PUSH1 0xC PUSH1 0x24 DUP3 ADD MSTORE PUSH12 0x4F564C56313A217072696365 PUSH1 0xA0 SHL PUSH1 0x44 DUP3 ADD MSTORE PUSH1 0x64 ADD PUSH2 0x94D JUMP JUMPDEST DUP1 DUP6 EQ ISZERO PUSH2 0xCC1 JUMPI PUSH2 0xCB5 PUSH2 0x645 PUSH2 0x127E JUMP JUMPDEST SWAP2 SWAP6 POP SWAP4 POP SWAP2 POP PUSH2 0xCD2 JUMP JUMPDEST PUSH2 0xCCA DUP6 PUSH2 0x1CD5 JUMP JUMPDEST SWAP2 SWAP6 POP SWAP4 POP SWAP2 POP JUMPDEST POP SWAP2 SWAP4 SWAP1 SWAP3 POP JUMP JUMPDEST PUSH1 0x0 DUP1 PUSH2 0xCE8 DUP6 DUP6 DUP6 PUSH2 0xE77 JUMP JUMPDEST SWAP1 POP PUSH1 0x0 PUSH2 0xD02 DUP3 PUSH2 0x16B SLOAD PUSH2 0x273D SWAP1 SWAP2 SWAP1 PUSH4 0xFFFFFFFF AND JUMP JUMPDEST SWAP1 POP PUSH1 0x0 DUP3 PUSH2 0xD12 JUMPI PUSH1 0x0 PUSH2 0xD36 JUMP JUMPDEST PUSH2 0xD36 PUSH2 0xD27 PUSH8 0x51AF86713316A9A DUP5 PUSH2 0x2871 JUMP JUMPDEST PUSH8 0xDE0B6B3A7640000 SWAP1 PUSH2 0x28D6 JUMP JUMPDEST SWAP1 POP PUSH2 0xD42 DUP7 DUP3 PUSH2 0x28F2 JUMP JUMPDEST SWAP8 SWAP7 POP POP POP POP POP POP POP JUMP JUMPDEST CALLER PUSH1 0x0 SWAP1 DUP2 MSTORE PUSH2 0x17D PUSH1 0x20 MSTORE PUSH1 0x40 DUP2 KECCAK256 SLOAD DUP2 SWAP1 DUP2 SWAP1 PUSH1 0xFF AND PUSH2 0xDA5 JUMPI PUSH1 0x40 MLOAD PUSH3 0x461BCD PUSH1 0xE5 SHL DUP2 MSTORE PUSH1 0x20 PUSH1 0x4 DUP3 ADD MSTORE PUSH1 0x11 PUSH1 0x24 DUP3 ADD MSTORE PUSH17 0x13D593158C4E8858DBDB1B185D195C985B PUSH1 0x7A SHL PUSH1 0x44 DUP3 ADD MSTORE PUSH1 0x64 ADD PUSH2 0x94D JUMP JUMPDEST PUSH2 0xDAD PUSH2 0x17F0 JUMP JUMPDEST POP DUP5 ISZERO PUSH2 0xDC6 JUMPI PUSH2 0x174 SLOAD PUSH2 0x176 SLOAD SWAP1 SWAP4 POP SWAP2 POP PUSH2 0xDD4 JUMP JUMPDEST PUSH2 0x175 SLOAD PUSH2 0x177 SLOAD SWAP1 SWAP4 POP SWAP2 POP JUMPDEST PUSH2 0xDDE DUP6 DUP6 PUSH2 0x2957 JUMP JUMPDEST SWAP1 POP SWAP3 POP SWAP3 POP SWAP3 JUMP JUMPDEST PUSH1 0x0 DUP1 PUSH1 0x0 DUP1 PUSH2 0xDFE PUSH1 0xB6 PUSH1 0x1 SLOAD PUSH2 0x16F SLOAD PUSH2 0x29C1 JUMP JUMPDEST SWAP3 POP SWAP3 POP POP DUP1 PUSH1 0x20 ADD MLOAD DUP3 PUSH1 0x20 ADD MLOAD PUSH2 0x16C PUSH1 0x0 PUSH1 0x2 DUP2 LT PUSH2 0xE22 JUMPI PUSH2 0xE22 PUSH2 0x472E JUMP JUMPDEST ADD SLOAD PUSH2 0xE2E SWAP2 SWAP1 PUSH2 0x4516 JUMP JUMPDEST PUSH2 0xE38 SWAP2 SWAP1 PUSH2 0x463D JUMP JUMPDEST SWAP4 POP DUP1 PUSH1 0x40 ADD MLOAD DUP3 PUSH1 0x40 ADD MLOAD PUSH2 0x16C PUSH1 0x1 PUSH1 0x2 DUP2 LT PUSH2 0xE59 JUMPI PUSH2 0xE59 PUSH2 0x472E JUMP JUMPDEST ADD SLOAD PUSH2 0xE65 SWAP2 SWAP1 PUSH2 0x4516 JUMP JUMPDEST PUSH2 0xE6F SWAP2 SWAP1 PUSH2 0x463D JUMP JUMPDEST SWAP3 POP POP POP SWAP1 SWAP2 JUMP JUMPDEST PUSH1 0x0 DUP1 PUSH1 0x0 PUSH2 0xEAA PUSH1 0x2 PUSH1 0x0 SLOAD PUSH32 0x0 PUSH2 0x29C1 JUMP JUMPDEST SWAP3 POP SWAP3 POP POP DUP6 PUSH2 0xECD JUMPI DUP1 PUSH1 0x40 ADD MLOAD DUP3 PUSH1 0x40 ADD MLOAD PUSH2 0xEC8 SWAP2 SWAP1 PUSH2 0x463D JUMP JUMPDEST PUSH2 0xEE1 JUMP JUMPDEST DUP1 PUSH1 0x20 ADD MLOAD DUP3 PUSH1 0x20 ADD MLOAD PUSH2 0xEE1 SWAP2 SWAP1 PUSH2 0x463D JUMP JUMPDEST SWAP3 POP PUSH2 0xEED DUP6 DUP6 PUSH2 0x2AB6 JUMP JUMPDEST PUSH2 0xEF7 SWAP1 DUP5 PUSH2 0x4516 JUMP JUMPDEST SWAP7 SWAP6 POP POP POP POP POP POP JUMP JUMPDEST PUSH1 0xB6 DUP2 PUSH1 0x3C DUP2 LT PUSH2 0xF11 JUMPI PUSH1 0x0 DUP1 REVERT JUMPDEST PUSH1 0x3 MUL ADD DUP1 SLOAD PUSH1 0x1 DUP3 ADD SLOAD PUSH1 0x2 SWAP1 SWAP3 ADD SLOAD SWAP1 SWAP3 POP DUP4 JUMP JUMPDEST PUSH1 0x0 PUSH2 0xF32 PUSH2 0x115F JUMP JUMPDEST POP SWAP2 SWAP4 SWAP3 POP POP POP JUMP JUMPDEST PUSH1 0x0 DUP1 PUSH1 0x0 DUP1 PUSH2 0xF4E TIMESTAMP PUSH2 0x173 SLOAD PUSH2 0x8B5 JUMP JUMPDEST POP SWAP1 POP PUSH1 0x0 DUP1 PUSH1 0x0 DUP1 PUSH2 0xF60 DUP6 PUSH2 0x2B10 JUMP JUMPDEST SWAP4 POP SWAP4 POP SWAP4 POP SWAP4 POP DUP10 ISZERO PUSH2 0xF7B JUMPI DUP4 SWAP8 POP DUP8 DUP3 SWAP8 POP POP PUSH2 0xF84 JUMP JUMPDEST DUP3 SWAP8 POP DUP8 DUP2 SWAP8 POP POP JUMPDEST PUSH2 0xF8E DUP11 DUP11 PUSH2 0x2957 JUMP JUMPDEST SWAP6 POP POP POP POP POP POP SWAP3 POP SWAP3 POP SWAP3 JUMP JUMPDEST PUSH1 0x0 PUSH2 0xFA6 PUSH2 0xAD8 JUMP JUMPDEST SWAP4 SWAP3 POP POP POP JUMP JUMPDEST PUSH1 0x40 MLOAD PUSH4 0x24745215 PUSH1 0xE2 SHL DUP2 MSTORE PUSH1 0x0 DUP1 MLOAD PUSH1 0x20 PUSH2 0x4781 DUP4 CODECOPY DUP2 MLOAD SWAP2 MSTORE PUSH1 0x4 DUP3 ADD MSTORE CALLER PUSH1 0x24 DUP3 ADD MSTORE PUSH32 0x0 PUSH1 0x1 PUSH1 0x1 PUSH1 0xA0 SHL SUB AND SWAP1 PUSH4 0x91D14854 SWAP1 PUSH1 0x44 ADD PUSH1 0x20 PUSH1 0x40 MLOAD DUP1 DUP4 SUB DUP2 DUP7 DUP1 EXTCODESIZE ISZERO DUP1 ISZERO PUSH2 0x1020 JUMPI PUSH1 0x0 DUP1 REVERT JUMPDEST POP GAS STATICCALL ISZERO DUP1 ISZERO PUSH2 0x1034 JUMPI RETURNDATASIZE PUSH1 0x0 DUP1 RETURNDATACOPY RETURNDATASIZE PUSH1 0x0 REVERT JUMPDEST POP POP POP POP PUSH1 0x40 MLOAD RETURNDATASIZE PUSH1 0x1F NOT PUSH1 0x1F DUP3 ADD AND DUP3 ADD DUP1 PUSH1 0x40 MSTORE POP DUP2 ADD SWAP1 PUSH2 0x1058 SWAP2 SWAP1 PUSH2 0x4243 JUMP JUMPDEST PUSH2 0x1096 JUMPI PUSH1 0x40 MLOAD PUSH3 0x461BCD PUSH1 0xE5 SHL DUP2 MSTORE PUSH1 0x20 PUSH1 0x4 DUP3 ADD MSTORE PUSH1 0xF PUSH1 0x24 DUP3 ADD MSTORE PUSH15 0x27AB262B189D10B3B7BB32B93737B9 PUSH1 0x89 SHL PUSH1 0x44 DUP3 ADD MSTORE PUSH1 0x64 ADD PUSH2 0x94D JUMP JUMPDEST PUSH2 0x178 SSTORE JUMP JUMPDEST PUSH1 0x0 DUP1 PUSH1 0x0 DUP1 PUSH2 0x10AF DUP6 PUSH1 0x20 ADD MLOAD PUSH2 0x2B43 JUMP JUMPDEST SWAP1 POP PUSH1 0x0 PUSH2 0x10C0 DUP7 PUSH1 0x0 ADD MLOAD PUSH2 0x2B43 JUMP JUMPDEST PUSH2 0x179 SLOAD SWAP1 SWAP2 POP PUSH2 0x10EC PUSH2 0x10DC PUSH8 0x25B946EBC0B36351 DUP4 PUSH2 0x2871 JUMP JUMPDEST PUSH2 0x10E6 DUP5 DUP7 PUSH2 0x2D4A JUMP JUMPDEST SWAP1 PUSH2 0x28F2 JUMP JUMPDEST SWAP5 POP PUSH2 0x1113 PUSH2 0x1103 PUSH8 0x51AF86713316A9A DUP4 PUSH2 0x2871 JUMP JUMPDEST PUSH2 0x110D DUP5 DUP7 PUSH2 0x2D61 JUMP JUMPDEST SWAP1 PUSH2 0x273D JUMP JUMPDEST PUSH1 0x40 SWAP1 SWAP8 ADD MLOAD SWAP7 SWAP8 SWAP5 SWAP7 SWAP6 POP POP POP POP POP JUMP JUMPDEST PUSH1 0x0 PUSH2 0xFA6 PUSH8 0x1BC16D674EC80000 PUSH2 0x1159 PUSH2 0x16B SLOAD DUP6 DUP8 PUSH8 0xDE0B6B3A7640000 PUSH2 0x114F SWAP2 SWAP1 PUSH2 0x45A6 JUMP JUMPDEST PUSH2 0x10E6 SWAP2 SWAP1 PUSH2 0x4592 JUMP JUMPDEST SWAP1 PUSH2 0x2AB6 JUMP JUMPDEST PUSH1 0x0 DUP1 PUSH1 0x0 DUP1 PUSH1 0x0 PUSH2 0x1174 TIMESTAMP PUSH2 0x173 SLOAD PUSH2 0x8B5 JUMP JUMPDEST POP SWAP1 POP PUSH2 0x1180 DUP2 PUSH2 0x2B10 JUMP JUMPDEST SWAP3 SWAP9 SWAP2 SWAP8 POP SWAP6 POP SWAP1 SWAP4 POP SWAP2 POP POP JUMP JUMPDEST PUSH1 0x40 MLOAD PUSH4 0x24745215 PUSH1 0xE2 SHL DUP2 MSTORE PUSH1 0x0 DUP1 MLOAD PUSH1 0x20 PUSH2 0x4781 DUP4 CODECOPY DUP2 MLOAD SWAP2 MSTORE PUSH1 0x4 DUP3 ADD MSTORE CALLER PUSH1 0x24 DUP3 ADD MSTORE PUSH32 0x0 PUSH1 0x1 PUSH1 0x1 PUSH1 0xA0 SHL SUB AND SWAP1 PUSH4 0x91D14854 SWAP1 PUSH1 0x44 ADD PUSH1 0x20 PUSH1 0x40 MLOAD DUP1 DUP4 SUB DUP2 DUP7 DUP1 EXTCODESIZE ISZERO DUP1 ISZERO PUSH2 0x1202 JUMPI PUSH1 0x0 DUP1 REVERT JUMPDEST POP GAS STATICCALL ISZERO DUP1 ISZERO PUSH2 0x1216 JUMPI RETURNDATASIZE PUSH1 0x0 DUP1 RETURNDATACOPY RETURNDATASIZE PUSH1 0x0 REVERT JUMPDEST POP POP POP POP PUSH1 0x40 MLOAD RETURNDATASIZE PUSH1 0x1F NOT PUSH1 0x1F DUP3 ADD AND DUP3 ADD DUP1 PUSH1 0x40 MSTORE POP DUP2 ADD SWAP1 PUSH2 0x123A SWAP2 SWAP1 PUSH2 0x4243 JUMP JUMPDEST PUSH2 0x1278 JUMPI PUSH1 0x40 MLOAD PUSH3 0x461BCD PUSH1 0xE5 SHL DUP2 MSTORE PUSH1 0x20 PUSH1 0x4 DUP3 ADD MSTORE PUSH1 0xF PUSH1 0x24 DUP3 ADD MSTORE PUSH15 0x27AB262B189D10B3B7BB32B93737B9 PUSH1 0x89 SHL PUSH1 0x44 DUP3 ADD MSTORE PUSH1 0x64 ADD PUSH2 0x94D JUMP JUMPDEST PUSH2 0x172 SSTORE JUMP JUMPDEST PUSH1 0x40 DUP1 MLOAD PUSH1 0x60 DUP1 DUP3 ADD DUP4 MSTORE PUSH1 0x0 DUP1 DUP4 MSTORE PUSH1 0x20 DUP1 DUP5 ADD DUP3 SWAP1 MSTORE DUP4 DUP6 ADD DUP3 SWAP1 MSTORE DUP5 MLOAD PUSH1 0x3 DUP1 DUP3 MSTORE PUSH1 0x80 DUP3 ADD SWAP1 SWAP7 MSTORE SWAP4 SWAP5 SWAP3 SWAP4 DUP5 SWAP4 DUP4 SWAP3 DUP4 SWAP3 DUP4 SWAP3 DUP4 SWAP3 DUP3 ADD DUP9 DUP1 CALLDATASIZE DUP4 CALLDATACOPY ADD SWAP1 POP POP SWAP1 POP PUSH32 0x0 DUP2 PUSH1 0x2 DUP2 MLOAD DUP2 LT PUSH2 0x12F9 JUMPI PUSH2 0x12F9 PUSH2 0x472E JUMP JUMPDEST PUSH1 0x20 MUL PUSH1 0x20 ADD ADD SWAP1 PUSH4 0xFFFFFFFF AND SWAP1 DUP2 PUSH4 0xFFFFFFFF AND DUP2 MSTORE POP POP PUSH32 0x0 DUP2 PUSH1 0x1 DUP2 MLOAD DUP2 LT PUSH2 0x1347 JUMPI PUSH2 0x1347 PUSH2 0x472E JUMP JUMPDEST PUSH4 0xFFFFFFFF SWAP1 SWAP3 AND PUSH1 0x20 SWAP3 DUP4 MUL SWAP2 SWAP1 SWAP2 ADD SWAP1 SWAP2 ADD MSTORE PUSH1 0x40 MLOAD PUSH4 0x883BDBFD PUSH1 0xE0 SHL DUP2 MSTORE PUSH1 0x1 PUSH1 0x1 PUSH1 0xA0 SHL SUB PUSH32 0x0 AND SWAP1 PUSH4 0x883BDBFD SWAP1 PUSH2 0x13A8 SWAP1 DUP5 SWAP1 PUSH1 0x4 ADD PUSH2 0x4451 JUMP JUMPDEST PUSH1 0x0 PUSH1 0x40 MLOAD DUP1 DUP4 SUB DUP2 DUP7 DUP1 EXTCODESIZE ISZERO DUP1 ISZERO PUSH2 0x13C0 JUMPI PUSH1 0x0 DUP1 REVERT JUMPDEST POP GAS STATICCALL ISZERO DUP1 ISZERO PUSH2 0x13D4 JUMPI RETURNDATASIZE PUSH1 0x0 DUP1 RETURNDATACOPY RETURNDATASIZE PUSH1 0x0 REVERT JUMPDEST POP POP POP POP PUSH1 0x40 MLOAD RETURNDATASIZE PUSH1 0x0 DUP3 RETURNDATACOPY PUSH1 0x1F RETURNDATASIZE SWAP1 DUP2 ADD PUSH1 0x1F NOT AND DUP3 ADD PUSH1 0x40 MSTORE PUSH2 0x13FC SWAP2 SWAP1 DUP2 ADD SWAP1 PUSH2 0x417B JUMP JUMPDEST DUP1 SWAP8 POP DUP2 SWAP9 POP POP POP PUSH32 0x0 PUSH1 0x3 SIGNEXTEND DUP8 PUSH1 0x2 DUP2 MLOAD DUP2 LT PUSH2 0x143B JUMPI PUSH2 0x143B PUSH2 0x472E JUMP JUMPDEST PUSH1 0x20 MUL PUSH1 0x20 ADD ADD MLOAD DUP9 PUSH1 0x0 DUP2 MLOAD DUP2 LT PUSH2 0x1456 JUMPI PUSH2 0x1456 PUSH2 0x472E JUMP JUMPDEST PUSH1 0x20 MUL PUSH1 0x20 ADD ADD MLOAD PUSH2 0x1468 SWAP2 SWAP1 PUSH2 0x45C5 JUMP JUMPDEST PUSH2 0x1472 SWAP2 SWAP1 PUSH2 0x452E JUMP JUMPDEST SWAP2 POP PUSH32 0x0 PUSH1 0x3 SIGNEXTEND DUP8 PUSH1 0x1 DUP2 MLOAD DUP2 LT PUSH2 0x14AB JUMPI PUSH2 0x14AB PUSH2 0x472E JUMP JUMPDEST PUSH1 0x20 MUL PUSH1 0x20 ADD ADD MLOAD DUP9 PUSH1 0x0 DUP2 MLOAD DUP2 LT PUSH2 0x14C6 JUMPI PUSH2 0x14C6 PUSH2 0x472E JUMP JUMPDEST PUSH1 0x20 MUL PUSH1 0x20 ADD ADD MLOAD PUSH2 0x14D8 SWAP2 SWAP1 PUSH2 0x45C5 JUMP JUMPDEST PUSH2 0x14E2 SWAP2 SWAP1 PUSH2 0x452E JUMP JUMPDEST SWAP3 POP PUSH1 0x0 PUSH2 0x14EF DUP5 PUSH2 0x216A JUMP JUMPDEST PUSH1 0x1 PUSH1 0x1 PUSH1 0xA0 SHL SUB AND SWAP1 POP PUSH1 0x0 DUP8 PUSH1 0x1 DUP2 MLOAD DUP2 LT PUSH2 0x150F JUMPI PUSH2 0x150F PUSH2 0x472E JUMP JUMPDEST PUSH1 0x20 MUL PUSH1 0x20 ADD ADD MLOAD DUP9 PUSH1 0x0 DUP2 MLOAD DUP2 LT PUSH2 0x152A JUMPI PUSH2 0x152A PUSH2 0x472E JUMP JUMPDEST PUSH1 0x20 MUL PUSH1 0x20 ADD ADD MLOAD PUSH2 0x153C SWAP2 SWAP1 PUSH2 0x4615 JUMP JUMPDEST PUSH2 0x157C SWAP1 PUSH16 0xFFFFFFFFFFFFFFFFFFFFFFFFFFFFFFFF NOT PUSH32 0x0 PUSH1 0x80 SHL AND PUSH2 0x456C JUMP JUMPDEST PUSH1 0x1 PUSH1 0x1 PUSH1 0xA0 SHL SUB AND SWAP1 POP PUSH32 0x0 PUSH2 0x15BF JUMPI PUSH2 0x15BA DUP2 DUP4 PUSH2 0x17F SLOAD PUSH2 0x2589 JUMP JUMPDEST PUSH2 0x15CD JUMP JUMPDEST PUSH2 0x15CD DUP3 PUSH1 0x60 DUP4 SWAP1 SHL PUSH2 0x4592 JUMP JUMPDEST SWAP6 POP PUSH1 0x0 SWAP3 POP PUSH1 0x2 SWAP2 POP PUSH2 0x15DE SWAP1 POP JUMP JUMPDEST PUSH1 0x40 MLOAD SWAP1 DUP1 DUP3 MSTORE DUP1 PUSH1 0x20 MUL PUSH1 0x20 ADD DUP3 ADD PUSH1 0x40 MSTORE DUP1 ISZERO PUSH2 0x1607 JUMPI DUP2 PUSH1 0x20 ADD PUSH1 0x20 DUP3 MUL DUP1 CALLDATASIZE DUP4 CALLDATACOPY ADD SWAP1 POP JUMPDEST POP SWAP1 POP PUSH32 0x0 DUP2 PUSH1 0x1 DUP2 MLOAD DUP2 LT PUSH2 0x163E JUMPI PUSH2 0x163E PUSH2 0x472E JUMP JUMPDEST PUSH4 0xFFFFFFFF SWAP1 SWAP3 AND PUSH1 0x20 SWAP3 DUP4 MUL SWAP2 SWAP1 SWAP2 ADD SWAP1 SWAP2 ADD MSTORE PUSH1 0x40 MLOAD PUSH4 0x883BDBFD PUSH1 0xE0 SHL DUP2 MSTORE PUSH1 0x1 PUSH1 0x1 PUSH1 0xA0 SHL SUB PUSH32 0x0 AND SWAP1 PUSH4 0x883BDBFD SWAP1 PUSH2 0x169F SWAP1 DUP5 SWAP1 PUSH1 0x4 ADD PUSH2 0x4451 JUMP JUMPDEST PUSH1 0x0 PUSH1 0x40 MLOAD DUP1 DUP4 SUB DUP2 DUP7 DUP1 EXTCODESIZE ISZERO DUP1 ISZERO PUSH2 0x16B7 JUMPI PUSH1 0x0 DUP1 REVERT JUMPDEST POP GAS STATICCALL ISZERO DUP1 ISZERO PUSH2 0x16CB JUMPI RETURNDATASIZE PUSH1 0x0 DUP1 RETURNDATACOPY RETURNDATASIZE PUSH1 0x0 REVERT JUMPDEST POP POP POP POP PUSH1 0x40 MLOAD RETURNDATASIZE PUSH1 0x0 DUP3 RETURNDATACOPY PUSH1 0x1F RETURNDATASIZE SWAP1 DUP2 ADD PUSH1 0x1F NOT AND DUP3 ADD PUSH1 0x40 MSTORE PUSH2 0x16F3 SWAP2 SWAP1 DUP2 ADD SWAP1 PUSH2 0x417B JUMP JUMPDEST POP DUP1 SWAP8 POP POP PUSH2 0x17B9 PUSH32 0x0 PUSH1 0x3 SIGNEXTEND DUP9 PUSH1 0x1 DUP2 MLOAD DUP2 LT PUSH2 0x1732 JUMPI PUSH2 0x1732 PUSH2 0x472E JUMP JUMPDEST PUSH1 0x20 MUL PUSH1 0x20 ADD ADD MLOAD DUP10 PUSH1 0x0 DUP2 MLOAD DUP2 LT PUSH2 0x174D JUMPI PUSH2 0x174D PUSH2 0x472E JUMP JUMPDEST PUSH1 0x20 MUL PUSH1 0x20 ADD ADD MLOAD PUSH2 0x175F SWAP2 SWAP1 PUSH2 0x45C5 JUMP JUMPDEST PUSH2 0x1769 SWAP2 SWAP1 PUSH2 0x452E JUMP JUMPDEST PUSH8 0xDE0B6B3A7640000 PUSH32 0x0 PUSH32 0x0 PUSH2 0x205C JUMP JUMPDEST SWAP5 POP POP PUSH1 0x40 MLOAD DUP1 PUSH1 0x60 ADD PUSH1 0x40 MSTORE DUP1 DUP4 PUSH1 0x2 SIGNEXTEND DUP2 MSTORE PUSH1 0x20 ADD DUP3 PUSH1 0x2 SIGNEXTEND DUP2 MSTORE PUSH1 0x20 ADD PUSH2 0x17E3 DUP6 DUP8 PUSH2 0x1125 JUMP JUMPDEST SWAP1 MSTORE SWAP8 SWAP7 POP POP POP POP POP POP POP JUMP JUMPDEST PUSH2 0x17A SLOAD PUSH1 0x0 SWAP1 TIMESTAMP SWAP1 DUP1 DUP3 EQ PUSH2 0x181D JUMPI PUSH1 0x0 PUSH2 0x180A PUSH2 0x127E JUMP JUMPDEST SWAP1 POP PUSH2 0x1815 DUP2 PUSH2 0x2D70 JUMP JUMPDEST POP PUSH2 0x17A DUP3 SWAP1 SSTORE JUMPDEST PUSH1 0x0 DUP1 PUSH2 0x182D DUP5 PUSH2 0x173 SLOAD PUSH2 0x8B5 JUMP JUMPDEST SWAP1 SWAP3 POP SWAP1 POP DUP2 ISZERO PUSH2 0x184D JUMPI PUSH2 0x1845 PUSH2 0x178 SLOAD DUP4 PUSH2 0x2E60 JUMP JUMPDEST POP PUSH2 0x173 DUP2 SWAP1 SSTORE JUMPDEST PUSH2 0x1855 PUSH2 0x194D JUMP JUMPDEST SWAP5 POP POP POP POP POP SWAP1 JUMP JUMPDEST PUSH1 0x40 MLOAD PUSH4 0x24745215 PUSH1 0xE2 SHL DUP2 MSTORE PUSH1 0x0 DUP1 MLOAD PUSH1 0x20 PUSH2 0x4781 DUP4 CODECOPY DUP2 MLOAD SWAP2 MSTORE PUSH1 0x4 DUP3 ADD MSTORE CALLER PUSH1 0x24 DUP3 ADD MSTORE PUSH32 0x0 PUSH1 0x1 PUSH1 0x1 PUSH1 0xA0 SHL SUB AND SWAP1 PUSH4 0x91D14854 SWAP1 PUSH1 0x44 ADD PUSH1 0x20 PUSH1 0x40 MLOAD DUP1 DUP4 SUB DUP2 DUP7 DUP1 EXTCODESIZE ISZERO DUP1 ISZERO PUSH2 0x18D1 JUMPI PUSH1 0x0 DUP1 REVERT JUMPDEST POP GAS STATICCALL ISZERO DUP1 ISZERO PUSH2 0x18E5 JUMPI RETURNDATASIZE PUSH1 0x0 DUP1 RETURNDATACOPY RETURNDATASIZE PUSH1 0x0 REVERT JUMPDEST POP POP POP POP PUSH1 0x40 MLOAD RETURNDATASIZE PUSH1 0x1F NOT PUSH1 0x1F DUP3 ADD AND DUP3 ADD DUP1 PUSH1 0x40 MSTORE POP DUP2 ADD SWAP1 PUSH2 0x1909 SWAP2 SWAP1 PUSH2 0x4243 JUMP JUMPDEST PUSH2 0x1947 JUMPI PUSH1 0x40 MLOAD PUSH3 0x461BCD PUSH1 0xE5 SHL DUP2 MSTORE PUSH1 0x20 PUSH1 0x4 DUP3 ADD MSTORE PUSH1 0xF PUSH1 0x24 DUP3 ADD MSTORE PUSH15 0x27AB262B189D10B3B7BB32B93737B9 PUSH1 0x89 SHL PUSH1 0x44 DUP3 ADD MSTORE PUSH1 0x64 ADD PUSH2 0x94D JUMP JUMPDEST PUSH2 0x179 SSTORE JUMP JUMPDEST PUSH1 0x0 DUP1 PUSH1 0x0 PUSH2 0x195A PUSH2 0xDE7 JUMP JUMPDEST PUSH2 0x170 SLOAD SWAP2 SWAP4 POP SWAP2 POP PUSH1 0x0 DUP1 DUP1 DUP5 DUP7 LT ISZERO PUSH2 0x1978 JUMPI PUSH1 0x1 SWAP3 POP PUSH2 0x1999 JUMP JUMPDEST PUSH2 0x1982 DUP6 DUP8 PUSH2 0x463D JUMP JUMPDEST SWAP6 POP DUP4 DUP7 LT SWAP2 POP PUSH2 0x1994 DUP5 PUSH1 0x2 PUSH2 0x45A6 JUMP JUMPDEST DUP7 GT SWAP1 POP JUMPDEST DUP1 PUSH2 0x19E1 JUMPI DUP3 DUP1 PUSH2 0x19A7 JUMPI POP DUP2 JUMPDEST PUSH2 0x19C8 JUMPI PUSH2 0x19C3 PUSH1 0x1 PUSH2 0x19B8 PUSH2 0xF9C JUMP JUMPDEST PUSH2 0x16A SLOAD DUP10 DUP9 PUSH2 0x2ED4 JUMP JUMPDEST PUSH2 0x19E4 JUMP JUMPDEST PUSH2 0x19C3 PUSH1 0x0 PUSH2 0x19D5 PUSH2 0xF9C JUMP JUMPDEST PUSH2 0x16A SLOAD PUSH1 0x0 DUP1 PUSH2 0x2ED4 JUMP JUMPDEST PUSH1 0x0 JUMPDEST SWAP7 POP POP POP POP POP POP POP SWAP1 JUMP JUMPDEST PUSH1 0x40 MLOAD PUSH4 0x24745215 PUSH1 0xE2 SHL DUP2 MSTORE PUSH1 0x0 DUP1 MLOAD PUSH1 0x20 PUSH2 0x4781 DUP4 CODECOPY DUP2 MLOAD SWAP2 MSTORE PUSH1 0x4 DUP3 ADD MSTORE CALLER PUSH1 0x24 DUP3 ADD MSTORE PUSH32 0x0 PUSH1 0x1 PUSH1 0x1 PUSH1 0xA0 SHL SUB AND SWAP1 PUSH4 0x91D14854 SWAP1 PUSH1 0x44 ADD PUSH1 0x20 PUSH1 0x40 MLOAD DUP1 DUP4 SUB DUP2 DUP7 DUP1 EXTCODESIZE ISZERO DUP1 ISZERO PUSH2 0x1A62 JUMPI PUSH1 0x0 DUP1 REVERT JUMPDEST POP GAS STATICCALL ISZERO DUP1 ISZERO PUSH2 0x1A76 JUMPI RETURNDATASIZE PUSH1 0x0 DUP1 RETURNDATACOPY RETURNDATASIZE PUSH1 0x0 REVERT JUMPDEST POP POP POP POP PUSH1 0x40 MLOAD RETURNDATASIZE PUSH1 0x1F NOT PUSH1 0x1F DUP3 ADD AND DUP3 ADD DUP1 PUSH1 0x40 MSTORE POP DUP2 ADD SWAP1 PUSH2 0x1A9A SWAP2 SWAP1 PUSH2 0x4243 JUMP JUMPDEST PUSH2 0x1AD8 JUMPI PUSH1 0x40 MLOAD PUSH3 0x461BCD PUSH1 0xE5 SHL DUP2 MSTORE PUSH1 0x20 PUSH1 0x4 DUP3 ADD MSTORE PUSH1 0xF PUSH1 0x24 DUP3 ADD MSTORE PUSH15 0x27AB262B189D10B3B7BB32B93737B9 PUSH1 0x89 SHL PUSH1 0x44 DUP3 ADD MSTORE PUSH1 0x64 ADD PUSH2 0x94D JUMP JUMPDEST PUSH1 0x1 PUSH1 0x1 PUSH1 0xA0 SHL SUB AND PUSH1 0x0 SWAP1 DUP2 MSTORE PUSH2 0x17D PUSH1 0x20 MSTORE PUSH1 0x40 SWAP1 KECCAK256 DUP1 SLOAD PUSH1 0xFF NOT AND SWAP1 SSTORE JUMP JUMPDEST PUSH1 0x40 MLOAD PUSH4 0x24745215 PUSH1 0xE2 SHL DUP2 MSTORE PUSH1 0x0 DUP1 MLOAD PUSH1 0x20 PUSH2 0x4781 DUP4 CODECOPY DUP2 MLOAD SWAP2 MSTORE PUSH1 0x4 DUP3 ADD MSTORE CALLER PUSH1 0x24 DUP3 ADD MSTORE PUSH32 0x0 PUSH1 0x1 PUSH1 0x1 PUSH1 0xA0 SHL SUB AND SWAP1 PUSH4 0x91D14854 SWAP1 PUSH1 0x44 ADD PUSH1 0x20 PUSH1 0x40 MLOAD DUP1 DUP4 SUB DUP2 DUP7 DUP1 EXTCODESIZE ISZERO DUP1 ISZERO PUSH2 0x1B6D JUMPI PUSH1 0x0 DUP1 REVERT JUMPDEST POP GAS STATICCALL ISZERO DUP1 ISZERO PUSH2 0x1B81 JUMPI RETURNDATASIZE PUSH1 0x0 DUP1 RETURNDATACOPY RETURNDATASIZE PUSH1 0x0 REVERT JUMPDEST POP POP POP POP PUSH1 0x40 MLOAD RETURNDATASIZE PUSH1 0x1F NOT PUSH1 0x1F DUP3 ADD AND DUP3 ADD DUP1 PUSH1 0x40 MSTORE POP DUP2 ADD SWAP1 PUSH2 0x1BA5 SWAP2 SWAP1 PUSH2 0x4243 JUMP JUMPDEST PUSH2 0x1BE3 JUMPI PUSH1 0x40 MLOAD PUSH3 0x461BCD PUSH1 0xE5 SHL DUP2 MSTORE PUSH1 0x20 PUSH1 0x4 DUP3 ADD MSTORE PUSH1 0xF PUSH1 0x24 DUP3 ADD MSTORE PUSH15 0x27AB262B189D10B3B7BB32B93737B9 PUSH1 0x89 SHL PUSH1 0x44 DUP3 ADD MSTORE PUSH1 0x64 ADD PUSH2 0x94D JUMP JUMPDEST PUSH2 0x16B SWAP5 SWAP1 SWAP5 SSTORE PUSH2 0x16A SWAP3 SWAP1 SWAP3 SSTORE PUSH2 0x170 SSTORE PUSH2 0x16F SSTORE PUSH2 0x16E SSTORE JUMP JUMPDEST CALLER PUSH1 0x0 SWAP1 DUP2 MSTORE PUSH2 0x17D PUSH1 0x20 MSTORE PUSH1 0x40 SWAP1 KECCAK256 SLOAD PUSH1 0xFF AND PUSH2 0x1C53 JUMPI PUSH1 0x40 MLOAD PUSH3 0x461BCD PUSH1 0xE5 SHL DUP2 MSTORE PUSH1 0x20 PUSH1 0x4 DUP3 ADD MSTORE PUSH1 0x11 PUSH1 0x24 DUP3 ADD MSTORE PUSH17 0x13D593158C4E8858DBDB1B185D195C985B PUSH1 0x7A SHL PUSH1 0x44 DUP3 ADD MSTORE PUSH1 0x64 ADD PUSH2 0x94D JUMP JUMPDEST PUSH2 0x1C5D DUP3 DUP3 PUSH2 0x2F25 JUMP JUMPDEST DUP5 ISZERO PUSH2 0x1C9B JUMPI DUP4 PUSH2 0x174 PUSH1 0x0 DUP3 DUP3 SLOAD PUSH2 0x1C76 SWAP2 SWAP1 PUSH2 0x463D JUMP JUMPDEST SWAP3 POP POP DUP2 SWAP1 SSTORE DUP4 PUSH2 0x176 PUSH1 0x0 DUP3 DUP3 SLOAD PUSH2 0x1C8F SWAP2 SWAP1 PUSH2 0x463D JUMP JUMPDEST SWAP1 SWAP2 SSTORE POP PUSH2 0x1CCE SWAP2 POP POP JUMP JUMPDEST DUP4 PUSH2 0x175 PUSH1 0x0 DUP3 DUP3 SLOAD PUSH2 0x1CAE SWAP2 SWAP1 PUSH2 0x463D JUMP JUMPDEST SWAP3 POP POP DUP2 SWAP1 SSTORE DUP4 PUSH2 0x177 PUSH1 0x0 DUP3 DUP3 SLOAD PUSH2 0x1CC7 SWAP2 SWAP1 PUSH2 0x463D JUMP JUMPDEST SWAP1 SWAP2 SSTORE POP POP POP JUMPDEST POP POP POP POP POP JUMP JUMPDEST PUSH1 0x0 DUP1 PUSH1 0x0 PUSH2 0x1D40 PUSH2 0x17B DUP6 DUP2 SLOAD DUP2 LT PUSH2 0x1CF1 JUMPI PUSH2 0x1CF1 PUSH2 0x472E JUMP JUMPDEST PUSH1 0x0 SWAP2 DUP3 MSTORE PUSH1 0x20 SWAP2 DUP3 SWAP1 KECCAK256 PUSH1 0x40 DUP1 MLOAD PUSH1 0x60 DUP2 ADD DUP3 MSTORE PUSH1 0x2 SWAP4 DUP5 MUL SWAP1 SWAP3 ADD DUP1 SLOAD DUP1 DUP6 SIGNEXTEND DUP6 SIGNEXTEND DUP6 SIGNEXTEND DUP5 MSTORE PUSH4 0x1000000 SWAP1 DIV DUP5 SIGNEXTEND DUP5 SIGNEXTEND SWAP1 SWAP4 SIGNEXTEND SWAP4 DUP3 ADD SWAP4 SWAP1 SWAP4 MSTORE PUSH1 0x1 SWAP1 SWAP2 ADD SLOAD SWAP2 DUP2 ADD SWAP2 SWAP1 SWAP2 MSTORE PUSH2 0x109C JUMP JUMPDEST SWAP3 POP SWAP3 POP SWAP3 POP SWAP2 SWAP4 SWAP1 SWAP3 POP JUMP JUMPDEST PUSH1 0x40 MLOAD PUSH4 0x24745215 PUSH1 0xE2 SHL DUP2 MSTORE PUSH1 0x0 DUP1 MLOAD PUSH1 0x20 PUSH2 0x4781 DUP4 CODECOPY DUP2 MLOAD SWAP2 MSTORE PUSH1 0x4 DUP3 ADD MSTORE CALLER PUSH1 0x24 DUP3 ADD MSTORE PUSH32 0x0 PUSH1 0x1 PUSH1 0x1 PUSH1 0xA0 SHL SUB AND SWAP1 PUSH4 0x91D14854 SWAP1 PUSH1 0x44 ADD PUSH1 0x20 PUSH1 0x40 MLOAD DUP1 DUP4 SUB DUP2 DUP7 DUP1 EXTCODESIZE ISZERO DUP1 ISZERO PUSH2 0x1DC0 JUMPI PUSH1 0x0 DUP1 REVERT JUMPDEST POP GAS STATICCALL ISZERO DUP1 ISZERO PUSH2 0x1DD4 JUMPI RETURNDATASIZE PUSH1 0x0 DUP1 RETURNDATACOPY RETURNDATASIZE PUSH1 0x0 REVERT JUMPDEST POP POP POP POP PUSH1 0x40 MLOAD RETURNDATASIZE PUSH1 0x1F NOT PUSH1 0x1F DUP3 ADD AND DUP3 ADD DUP1 PUSH1 0x40 MSTORE POP DUP2 ADD SWAP1 PUSH2 0x1DF8 SWAP2 SWAP1 PUSH2 0x4243 JUMP JUMPDEST PUSH2 0x1E36 JUMPI PUSH1 0x40 MLOAD PUSH3 0x461BCD PUSH1 0xE5 SHL DUP2 MSTORE PUSH1 0x20 PUSH1 0x4 DUP3 ADD MSTORE PUSH1 0xF PUSH1 0x24 DUP3 ADD MSTORE PUSH15 0x27AB262B189D10B3B7BB32B93737B9 PUSH1 0x89 SHL PUSH1 0x44 DUP3 ADD MSTORE PUSH1 0x64 ADD PUSH2 0x94D JUMP JUMPDEST PUSH1 0x1 PUSH1 0x1 PUSH1 0xA0 SHL SUB AND PUSH1 0x0 SWAP1 DUP2 MSTORE PUSH2 0x17D PUSH1 0x20 MSTORE PUSH1 0x40 SWAP1 KECCAK256 DUP1 SLOAD PUSH1 0xFF NOT AND PUSH1 0x1 OR SWAP1 SSTORE JUMP JUMPDEST PUSH1 0x2 DUP2 PUSH1 0x3C DUP2 LT PUSH2 0xF11 JUMPI PUSH1 0x0 DUP1 REVERT JUMPDEST PUSH2 0x16C DUP2 PUSH1 0x2 DUP2 LT PUSH2 0x1E7C JUMPI PUSH1 0x0 DUP1 REVERT JUMPDEST ADD SLOAD SWAP1 POP DUP2 JUMP JUMPDEST PUSH1 0x0 DUP1 PUSH2 0x1E90 DUP4 DUP6 PUSH2 0x4654 JUMP JUMPDEST SWAP1 POP PUSH4 0xFFFFFFFF DUP2 AND PUSH2 0x1ECA JUMPI PUSH1 0x40 MLOAD PUSH3 0x461BCD PUSH1 0xE5 SHL DUP2 MSTORE PUSH1 0x20 PUSH1 0x4 DUP3 ADD MSTORE PUSH1 0x2 PUSH1 0x24 DUP3 ADD MSTORE PUSH2 0x425 PUSH1 0xF4 SHL PUSH1 0x44 DUP3 ADD MSTORE PUSH1 0x64 ADD PUSH2 0x94D JUMP JUMPDEST PUSH1 0x40 DUP1 MLOAD PUSH1 0x2 DUP1 DUP3 MSTORE PUSH1 0x60 DUP3 ADD DUP4 MSTORE PUSH1 0x0 SWAP3 PUSH1 0x20 DUP4 ADD SWAP1 DUP1 CALLDATASIZE DUP4 CALLDATACOPY ADD SWAP1 POP POP SWAP1 POP DUP5 DUP2 PUSH1 0x0 DUP2 MLOAD DUP2 LT PUSH2 0x1EFF JUMPI PUSH2 0x1EFF PUSH2 0x472E JUMP JUMPDEST PUSH1 0x20 MUL PUSH1 0x20 ADD ADD SWAP1 PUSH4 0xFFFFFFFF AND SWAP1 DUP2 PUSH4 0xFFFFFFFF AND DUP2 MSTORE POP POP DUP4 DUP2 PUSH1 0x1 DUP2 MLOAD DUP2 LT PUSH2 0x1F2D JUMPI PUSH2 0x1F2D PUSH2 0x472E JUMP JUMPDEST PUSH4 0xFFFFFFFF SWAP1 SWAP3 AND PUSH1 0x20 SWAP3 DUP4 MUL SWAP2 SWAP1 SWAP2 ADD SWAP1 SWAP2 ADD MSTORE PUSH1 0x40 MLOAD PUSH4 0x883BDBFD PUSH1 0xE0 SHL DUP2 MSTORE PUSH1 0x0 SWAP1 PUSH1 0x1 PUSH1 0x1 PUSH1 0xA0 SHL SUB DUP9 AND SWAP1 PUSH4 0x883BDBFD SWAP1 PUSH2 0x1F71 SWAP1 DUP6 SWAP1 PUSH1 0x4 ADD PUSH2 0x4451 JUMP JUMPDEST PUSH1 0x0 PUSH1 0x40 MLOAD DUP1 DUP4 SUB DUP2 DUP7 DUP1 EXTCODESIZE ISZERO DUP1 ISZERO PUSH2 0x1F89 JUMPI PUSH1 0x0 DUP1 REVERT JUMPDEST POP GAS STATICCALL ISZERO DUP1 ISZERO PUSH2 0x1F9D JUMPI RETURNDATASIZE PUSH1 0x0 DUP1 RETURNDATACOPY RETURNDATASIZE PUSH1 0x0 REVERT JUMPDEST POP POP POP POP PUSH1 0x40 MLOAD RETURNDATASIZE PUSH1 0x0 DUP3 RETURNDATACOPY PUSH1 0x1F RETURNDATASIZE SWAP1 DUP2 ADD PUSH1 0x1F NOT AND DUP3 ADD PUSH1 0x40 MSTORE PUSH2 0x1FC5 SWAP2 SWAP1 DUP2 ADD SWAP1 PUSH2 0x417B JUMP JUMPDEST POP SWAP1 POP PUSH1 0x0 DUP2 PUSH1 0x0 DUP2 MLOAD DUP2 LT PUSH2 0x1FDD JUMPI PUSH2 0x1FDD PUSH2 0x472E JUMP JUMPDEST PUSH1 0x20 MUL PUSH1 0x20 ADD ADD MLOAD DUP3 PUSH1 0x1 DUP2 MLOAD DUP2 LT PUSH2 0x1FF8 JUMPI PUSH2 0x1FF8 PUSH2 0x472E JUMP JUMPDEST PUSH1 0x20 MUL PUSH1 0x20 ADD ADD MLOAD PUSH2 0x200A SWAP2 SWAP1 PUSH2 0x45C5 JUMP JUMPDEST SWAP1 POP PUSH2 0x201A PUSH1 0x3 DUP6 SWAP1 SIGNEXTEND DUP3 PUSH2 0x452E JUMP JUMPDEST SWAP5 POP PUSH1 0x0 DUP2 PUSH1 0x6 SIGNEXTEND SLT DUP1 ISZERO PUSH2 0x203E JUMPI POP PUSH2 0x2038 PUSH1 0x3 DUP6 SWAP1 SIGNEXTEND DUP3 PUSH2 0x4695 JUMP JUMPDEST PUSH1 0x6 SIGNEXTEND ISZERO ISZERO JUMPDEST ISZERO PUSH2 0x2051 JUMPI DUP5 PUSH2 0x204D DUP2 PUSH2 0x4671 JUMP JUMPDEST SWAP6 POP POP JUMPDEST POP POP POP POP SWAP4 SWAP3 POP POP POP JUMP JUMPDEST PUSH1 0x0 DUP1 PUSH2 0x2068 DUP7 PUSH2 0x216A JUMP JUMPDEST SWAP1 POP PUSH1 0x1 PUSH1 0x1 PUSH1 0x80 SHL SUB PUSH1 0x1 PUSH1 0x1 PUSH1 0xA0 SHL SUB DUP3 AND GT PUSH2 0x20EE JUMPI PUSH1 0x0 PUSH2 0x2096 PUSH1 0x1 PUSH1 0x1 PUSH1 0xA0 SHL SUB DUP4 AND DUP1 PUSH2 0x45A6 JUMP JUMPDEST SWAP1 POP DUP4 PUSH1 0x1 PUSH1 0x1 PUSH1 0xA0 SHL SUB AND DUP6 PUSH1 0x1 PUSH1 0x1 PUSH1 0xA0 SHL SUB AND LT PUSH2 0x20CE JUMPI PUSH2 0x20C9 PUSH1 0x1 PUSH1 0xC0 SHL DUP8 PUSH1 0x1 PUSH1 0x1 PUSH1 0x80 SHL SUB AND DUP4 PUSH2 0x2589 JUMP JUMPDEST PUSH2 0x20E6 JUMP JUMPDEST PUSH2 0x20E6 DUP2 DUP8 PUSH1 0x1 PUSH1 0x1 PUSH1 0x80 SHL SUB AND PUSH1 0x1 PUSH1 0xC0 SHL PUSH2 0x2589 JUMP JUMPDEST SWAP3 POP POP PUSH2 0x2161 JUMP JUMPDEST PUSH1 0x0 PUSH2 0x210D PUSH1 0x1 PUSH1 0x1 PUSH1 0xA0 SHL SUB DUP4 AND DUP1 PUSH9 0x10000000000000000 PUSH2 0x2589 JUMP JUMPDEST SWAP1 POP DUP4 PUSH1 0x1 PUSH1 0x1 PUSH1 0xA0 SHL SUB AND DUP6 PUSH1 0x1 PUSH1 0x1 PUSH1 0xA0 SHL SUB AND LT PUSH2 0x2145 JUMPI PUSH2 0x2140 PUSH1 0x1 PUSH1 0x80 SHL DUP8 PUSH1 0x1 PUSH1 0x1 PUSH1 0x80 SHL SUB AND DUP4 PUSH2 0x2589 JUMP JUMPDEST PUSH2 0x215D JUMP JUMPDEST PUSH2 0x215D DUP2 DUP8 PUSH1 0x1 PUSH1 0x1 PUSH1 0x80 SHL SUB AND PUSH1 0x1 PUSH1 0x80 SHL PUSH2 0x2589 JUMP JUMPDEST SWAP3 POP POP JUMPDEST POP SWAP5 SWAP4 POP POP POP POP JUMP JUMPDEST PUSH1 0x0 DUP1 PUSH1 0x0 DUP4 PUSH1 0x2 SIGNEXTEND SLT PUSH2 0x2181 JUMPI DUP3 PUSH1 0x2 SIGNEXTEND PUSH2 0x218E JUMP JUMPDEST DUP3 PUSH1 0x2 SIGNEXTEND PUSH2 0x218E SWAP1 PUSH2 0x46E5 JUMP JUMPDEST SWAP1 POP PUSH2 0x219D PUSH3 0xD89E7 NOT PUSH2 0x46CB JUMP JUMPDEST PUSH3 0xFFFFFF AND DUP2 GT ISZERO PUSH2 0x21D5 JUMPI PUSH1 0x40 MLOAD PUSH3 0x461BCD PUSH1 0xE5 SHL DUP2 MSTORE PUSH1 0x20 PUSH1 0x4 DUP3 ADD MSTORE PUSH1 0x1 PUSH1 0x24 DUP3 ADD MSTORE PUSH1 0x15 PUSH1 0xFA SHL PUSH1 0x44 DUP3 ADD MSTORE PUSH1 0x64 ADD PUSH2 0x94D JUMP JUMPDEST PUSH1 0x0 PUSH1 0x1 DUP3 AND PUSH2 0x21E9 JUMPI PUSH1 0x1 PUSH1 0x80 SHL PUSH2 0x21FB JUMP JUMPDEST PUSH16 0xFFFCB933BD6FAD37AA2D162D1A594001 JUMPDEST PUSH17 0xFFFFFFFFFFFFFFFFFFFFFFFFFFFFFFFFFF AND SWAP1 POP PUSH1 0x2 DUP3 AND ISZERO PUSH2 0x223A JUMPI PUSH1 0x80 PUSH2 0x2235 DUP3 PUSH16 0xFFF97272373D413259A46990580E213A PUSH2 0x45A6 JUMP JUMPDEST SWAP1 SHR SWAP1 POP JUMPDEST PUSH1 0x4 DUP3 AND ISZERO PUSH2 0x2264 JUMPI PUSH1 0x80 PUSH2 0x225F DUP3 PUSH16 0xFFF2E50F5F656932EF12357CF3C7FDCC PUSH2 0x45A6 JUMP JUMPDEST SWAP1 SHR SWAP1 POP JUMPDEST PUSH1 0x8 DUP3 AND ISZERO PUSH2 0x228E JUMPI PUSH1 0x80 PUSH2 0x2289 DUP3 PUSH16 0xFFE5CACA7E10E4E61C3624EAA0941CD0 PUSH2 0x45A6 JUMP JUMPDEST SWAP1 SHR SWAP1 POP JUMPDEST PUSH1 0x10 DUP3 AND ISZERO PUSH2 0x22B8 JUMPI PUSH1 0x80 PUSH2 0x22B3 DUP3 PUSH16 0xFFCB9843D60F6159C9DB58835C926644 PUSH2 0x45A6 JUMP JUMPDEST SWAP1 SHR SWAP1 POP JUMPDEST PUSH1 0x20 DUP3 AND ISZERO PUSH2 0x22E2 JUMPI PUSH1 0x80 PUSH2 0x22DD DUP3 PUSH16 0xFF973B41FA98C081472E6896DFB254C0 PUSH2 0x45A6 JUMP JUMPDEST SWAP1 SHR SWAP1 POP JUMPDEST PUSH1 0x40 DUP3 AND ISZERO PUSH2 0x230C JUMPI PUSH1 0x80 PUSH2 0x2307 DUP3 PUSH16 0xFF2EA16466C96A3843EC78B326B52861 PUSH2 0x45A6 JUMP JUMPDEST SWAP1 SHR SWAP1 POP JUMPDEST PUSH1 0x80 DUP3 AND ISZERO PUSH2 0x2336 JUMPI PUSH1 0x80 PUSH2 0x2331 DUP3 PUSH16 0xFE5DEE046A99A2A811C461F1969C3053 PUSH2 0x45A6 JUMP JUMPDEST SWAP1 SHR SWAP1 POP JUMPDEST PUSH2 0x100 DUP3 AND ISZERO PUSH2 0x2361 JUMPI PUSH1 0x80 PUSH2 0x235C DUP3 PUSH16 0xFCBE86C7900A88AEDCFFC83B479AA3A4 PUSH2 0x45A6 JUMP JUMPDEST SWAP1 SHR SWAP1 POP JUMPDEST PUSH2 0x200 DUP3 AND ISZERO PUSH2 0x238C JUMPI PUSH1 0x80 PUSH2 0x2387 DUP3 PUSH16 0xF987A7253AC413176F2B074CF7815E54 PUSH2 0x45A6 JUMP JUMPDEST SWAP1 SHR SWAP1 POP JUMPDEST PUSH2 0x400 DUP3 AND ISZERO PUSH2 0x23B7 JUMPI PUSH1 0x80 PUSH2 0x23B2 DUP3 PUSH16 0xF3392B0822B70005940C7A398E4B70F3 PUSH2 0x45A6 JUMP JUMPDEST SWAP1 SHR SWAP1 POP JUMPDEST PUSH2 0x800 DUP3 AND ISZERO PUSH2 0x23E2 JUMPI PUSH1 0x80 PUSH2 0x23DD DUP3 PUSH16 0xE7159475A2C29B7443B29C7FA6E889D9 PUSH2 0x45A6 JUMP JUMPDEST SWAP1 SHR SWAP1 POP JUMPDEST PUSH2 0x1000 DUP3 AND ISZERO PUSH2 0x240D JUMPI PUSH1 0x80 PUSH2 0x2408 DUP3 PUSH16 0xD097F3BDFD2022B8845AD8F792AA5825 PUSH2 0x45A6 JUMP JUMPDEST SWAP1 SHR SWAP1 POP JUMPDEST PUSH2 0x2000 DUP3 AND ISZERO PUSH2 0x2438 JUMPI PUSH1 0x80 PUSH2 0x2433 DUP3 PUSH16 0xA9F746462D870FDF8A65DC1F90E061E5 PUSH2 0x45A6 JUMP JUMPDEST SWAP1 SHR SWAP1 POP JUMPDEST PUSH2 0x4000 DUP3 AND ISZERO PUSH2 0x2463 JUMPI PUSH1 0x80 PUSH2 0x245E DUP3 PUSH16 0x70D869A156D2A1B890BB3DF62BAF32F7 PUSH2 0x45A6 JUMP JUMPDEST SWAP1 SHR SWAP1 POP JUMPDEST PUSH2 0x8000 DUP3 AND ISZERO PUSH2 0x248E JUMPI PUSH1 0x80 PUSH2 0x2489 DUP3 PUSH16 0x31BE135F97D08FD981231505542FCFA6 PUSH2 0x45A6 JUMP JUMPDEST SWAP1 SHR SWAP1 POP JUMPDEST PUSH3 0x10000 DUP3 AND ISZERO PUSH2 0x24BA JUMPI PUSH1 0x80 PUSH2 0x24B5 DUP3 PUSH16 0x9AA508B5B7A84E1C677DE54F3E99BC9 PUSH2 0x45A6 JUMP JUMPDEST SWAP1 SHR SWAP1 POP JUMPDEST PUSH3 0x20000 DUP3 AND ISZERO PUSH2 0x24E5 JUMPI PUSH1 0x80 PUSH2 0x24E0 DUP3 PUSH15 0x5D6AF8DEDB81196699C329225EE604 PUSH2 0x45A6 JUMP JUMPDEST SWAP1 SHR SWAP1 POP JUMPDEST PUSH3 0x40000 DUP3 AND ISZERO PUSH2 0x250F JUMPI PUSH1 0x80 PUSH2 0x250A DUP3 PUSH14 0x2216E584F5FA1EA926041BEDFE98 PUSH2 0x45A6 JUMP JUMPDEST SWAP1 SHR SWAP1 POP JUMPDEST PUSH3 0x80000 DUP3 AND ISZERO PUSH2 0x2537 JUMPI PUSH1 0x80 PUSH2 0x2532 DUP3 PUSH12 0x48A170391F7DC42444E8FA2 PUSH2 0x45A6 JUMP JUMPDEST SWAP1 SHR SWAP1 POP JUMPDEST PUSH1 0x0 DUP5 PUSH1 0x2 SIGNEXTEND SGT ISZERO PUSH2 0x2552 JUMPI PUSH2 0x254F DUP2 PUSH1 0x0 NOT PUSH2 0x4592 JUMP JUMPDEST SWAP1 POP JUMPDEST PUSH2 0x2561 PUSH5 0x100000000 DUP3 PUSH2 0x46B7 JUMP JUMPDEST ISZERO PUSH2 0x256D JUMPI PUSH1 0x1 PUSH2 0x2570 JUMP JUMPDEST PUSH1 0x0 JUMPDEST PUSH2 0x2581 SWAP1 PUSH1 0xFF AND PUSH1 0x20 DUP4 SWAP1 SHR PUSH2 0x4516 JUMP JUMPDEST SWAP5 SWAP4 POP POP POP POP JUMP JUMPDEST PUSH1 0x0 DUP1 DUP1 PUSH1 0x0 NOT DUP6 DUP8 MULMOD DUP6 DUP8 MUL SWAP3 POP DUP3 DUP2 LT DUP4 DUP3 SUB SUB SWAP2 POP POP DUP1 PUSH1 0x0 EQ ISZERO PUSH2 0x25C3 JUMPI PUSH1 0x0 DUP5 GT PUSH2 0x25B8 JUMPI PUSH1 0x0 DUP1 REVERT JUMPDEST POP DUP3 SWAP1 DIV SWAP1 POP PUSH2 0xFA6 JUMP JUMPDEST DUP1 DUP5 GT PUSH2 0x25CF JUMPI PUSH1 0x0 DUP1 REVERT JUMPDEST PUSH1 0x0 DUP5 DUP7 DUP9 MULMOD DUP1 DUP5 SUB SWAP4 DUP2 GT SWAP1 SWAP3 SUB SWAP2 SWAP1 POP PUSH1 0x0 DUP6 PUSH2 0x25ED DUP2 PUSH2 0x46E5 JUMP JUMPDEST AND SWAP6 DUP7 SWAP1 DIV SWAP6 SWAP4 DUP5 SWAP1 DIV SWAP4 PUSH1 0x0 DUP2 SWAP1 SUB DIV PUSH1 0x1 ADD SWAP1 POP PUSH2 0x260D DUP2 DUP5 PUSH2 0x45A6 JUMP JUMPDEST SWAP1 SWAP4 OR SWAP3 PUSH1 0x0 PUSH2 0x261E DUP8 PUSH1 0x3 PUSH2 0x45A6 JUMP JUMPDEST PUSH1 0x2 XOR SWAP1 POP PUSH2 0x262D DUP2 DUP9 PUSH2 0x45A6 JUMP JUMPDEST PUSH2 0x2638 SWAP1 PUSH1 0x2 PUSH2 0x463D JUMP JUMPDEST PUSH2 0x2642 SWAP1 DUP3 PUSH2 0x45A6 JUMP JUMPDEST SWAP1 POP PUSH2 0x264E DUP2 DUP9 PUSH2 0x45A6 JUMP JUMPDEST PUSH2 0x2659 SWAP1 PUSH1 0x2 PUSH2 0x463D JUMP JUMPDEST PUSH2 0x2663 SWAP1 DUP3 PUSH2 0x45A6 JUMP JUMPDEST SWAP1 POP PUSH2 0x266F DUP2 DUP9 PUSH2 0x45A6 JUMP JUMPDEST PUSH2 0x267A SWAP1 PUSH1 0x2 PUSH2 0x463D JUMP JUMPDEST PUSH2 0x2684 SWAP1 DUP3 PUSH2 0x45A6 JUMP JUMPDEST SWAP1 POP PUSH2 0x2690 DUP2 DUP9 PUSH2 0x45A6 JUMP JUMPDEST PUSH2 0x269B SWAP1 PUSH1 0x2 PUSH2 0x463D JUMP JUMPDEST PUSH2 0x26A5 SWAP1 DUP3 PUSH2 0x45A6 JUMP JUMPDEST SWAP1 POP PUSH2 0x26B1 DUP2 DUP9 PUSH2 0x45A6 JUMP JUMPDEST PUSH2 0x26BC SWAP1 PUSH1 0x2 PUSH2 0x463D JUMP JUMPDEST PUSH2 0x26C6 SWAP1 DUP3 PUSH2 0x45A6 JUMP JUMPDEST SWAP1 POP PUSH2 0x26D2 DUP2 DUP9 PUSH2 0x45A6 JUMP JUMPDEST PUSH2 0x26DD SWAP1 PUSH1 0x2 PUSH2 0x463D JUMP JUMPDEST PUSH2 0x26E7 SWAP1 DUP3 PUSH2 0x45A6 JUMP JUMPDEST SWAP1 POP PUSH2 0x204D DUP2 DUP7 PUSH2 0x45A6 JUMP JUMPDEST PUSH1 0x0 DUP1 PUSH1 0x0 DUP1 PUSH2 0x2704 DUP8 DUP8 DUP8 PUSH2 0x3054 JUMP JUMPDEST SWAP3 POP SWAP3 POP SWAP3 POP PUSH2 0x2719 PUSH1 0x2 DUP5 DUP5 PUSH1 0x0 SLOAD PUSH2 0x3177 JUMP JUMPDEST PUSH1 0x0 SSTORE PUSH2 0x2726 DUP7 DUP3 PUSH2 0x28F2 JUMP JUMPDEST SWAP4 POP PUSH2 0x2733 PUSH1 0x0 DUP6 PUSH2 0x2F25 JUMP JUMPDEST POP POP POP SWAP4 SWAP3 POP POP POP JUMP JUMPDEST PUSH1 0x0 DUP1 PUSH2 0x274A DUP4 DUP6 PUSH2 0x45A6 JUMP JUMPDEST SWAP1 POP PUSH2 0x276B DUP5 ISZERO DUP1 PUSH2 0x2764 JUMPI POP DUP4 PUSH2 0x2762 DUP7 DUP5 PUSH2 0x4592 JUMP JUMPDEST EQ JUMPDEST PUSH1 0x3 PUSH2 0x31DC JUMP JUMPDEST PUSH2 0x277D PUSH8 0xDE0B6B3A7640000 DUP3 PUSH2 0x4592 JUMP JUMPDEST SWAP2 POP POP JUMPDEST SWAP3 SWAP2 POP POP JUMP JUMPDEST DUP3 ISZERO PUSH2 0x27FF JUMPI DUP2 PUSH2 0x176 PUSH1 0x0 DUP3 DUP3 SLOAD PUSH2 0x27A0 SWAP2 SWAP1 PUSH2 0x4516 JUMP JUMPDEST SWAP1 SWAP2 SSTORE POP POP PUSH2 0x174 SLOAD PUSH1 0x0 SWAP1 PUSH2 0x27B7 SWAP1 DUP5 SWAP1 PUSH2 0x4516 JUMP JUMPDEST SWAP1 POP DUP2 DUP2 GT ISZERO PUSH2 0x27F6 JUMPI PUSH1 0x40 MLOAD PUSH3 0x461BCD PUSH1 0xE5 SHL DUP2 MSTORE PUSH1 0x20 PUSH1 0x4 DUP3 ADD MSTORE PUSH1 0xA PUSH1 0x24 DUP3 ADD MSTORE PUSH10 0x4F564C56313A3E63617 PUSH1 0xB4 SHL PUSH1 0x44 DUP3 ADD MSTORE PUSH1 0x64 ADD PUSH2 0x94D JUMP JUMPDEST PUSH2 0x174 SSTORE POP POP POP JUMP JUMPDEST DUP2 PUSH2 0x177 PUSH1 0x0 DUP3 DUP3 SLOAD PUSH2 0x2812 SWAP2 SWAP1 PUSH2 0x4516 JUMP JUMPDEST SWAP1 SWAP2 SSTORE POP POP PUSH2 0x175 SLOAD PUSH1 0x0 SWAP1 PUSH2 0x2829 SWAP1 DUP5 SWAP1 PUSH2 0x4516 JUMP JUMPDEST SWAP1 POP DUP2 DUP2 GT ISZERO PUSH2 0x2868 JUMPI PUSH1 0x40 MLOAD PUSH3 0x461BCD PUSH1 0xE5 SHL DUP2 MSTORE PUSH1 0x20 PUSH1 0x4 DUP3 ADD MSTORE PUSH1 0xA PUSH1 0x24 DUP3 ADD MSTORE PUSH10 0x4F564C56313A3E63617 PUSH1 0xB4 SHL PUSH1 0x44 DUP3 ADD MSTORE PUSH1 0x64 ADD PUSH2 0x94D JUMP JUMPDEST PUSH2 0x175 SSTORE POP POP POP JUMP JUMPDEST PUSH1 0x0 DUP3 PUSH8 0xDE0B6B3A7640000 EQ DUP1 PUSH2 0x2887 JUMPI POP DUP2 ISZERO JUMPDEST ISZERO PUSH2 0x289B JUMPI POP PUSH8 0xDE0B6B3A7640000 PUSH2 0x2781 JUMP JUMPDEST PUSH1 0x0 PUSH2 0x28A7 DUP5 DUP5 PUSH2 0x31EE JUMP JUMPDEST SWAP1 POP PUSH1 0x0 PUSH2 0x28C1 PUSH2 0x28BA DUP4 PUSH2 0x2710 PUSH2 0x28F2 JUMP JUMPDEST PUSH1 0x1 PUSH2 0x32CE JUMP JUMPDEST SWAP1 POP PUSH2 0x28CD DUP3 DUP3 PUSH2 0x32CE JUMP JUMPDEST SWAP6 SWAP5 POP POP POP POP POP JUMP JUMPDEST PUSH1 0x0 PUSH2 0x28E6 DUP4 DUP4 GT ISZERO PUSH1 0x1 PUSH2 0x31DC JUMP JUMPDEST PUSH1 0x0 PUSH2 0x277D DUP4 DUP6 PUSH2 0x463D JUMP JUMPDEST PUSH1 0x0 DUP1 PUSH2 0x28FF DUP4 DUP6 PUSH2 0x45A6 JUMP JUMPDEST SWAP1 POP PUSH2 0x2917 DUP5 ISZERO DUP1 PUSH2 0x2764 JUMPI POP DUP4 PUSH2 0x2762 DUP7 DUP5 PUSH2 0x4592 JUMP JUMPDEST DUP1 PUSH2 0x2926 JUMPI PUSH1 0x0 SWAP2 POP POP PUSH2 0x2781 JUMP JUMPDEST PUSH8 0xDE0B6B3A7640000 PUSH2 0x293A PUSH1 0x1 DUP4 PUSH2 0x463D JUMP JUMPDEST PUSH2 0x2944 SWAP2 SWAP1 PUSH2 0x4592 JUMP JUMPDEST PUSH2 0x294F SWAP1 PUSH1 0x1 PUSH2 0x4516 JUMP JUMPDEST SWAP2 POP POP PUSH2 0x2781 JUMP JUMPDEST PUSH1 0x0 DUP1 PUSH1 0x0 PUSH2 0x2965 DUP5 PUSH2 0x1CD5 JUMP JUMPDEST POP SWAP2 POP SWAP2 POP PUSH1 0x0 DUP1 PUSH2 0x2975 PUSH2 0xAD8 JUMP JUMPDEST POP SWAP2 POP SWAP2 POP DUP7 PUSH2 0x298E JUMPI PUSH2 0x2989 DUP2 DUP6 PUSH2 0x32EB JUMP JUMPDEST PUSH2 0xD42 JUMP JUMPDEST PUSH2 0xD42 PUSH2 0x299B DUP4 DUP6 PUSH2 0x2AB6 JUMP JUMPDEST PUSH32 0x0 PUSH2 0x2D61 JUMP JUMPDEST PUSH1 0x0 PUSH2 0x29E7 PUSH1 0x40 MLOAD DUP1 PUSH1 0x60 ADD PUSH1 0x40 MSTORE DUP1 PUSH1 0x0 DUP2 MSTORE PUSH1 0x20 ADD PUSH1 0x0 DUP2 MSTORE PUSH1 0x20 ADD PUSH1 0x0 DUP2 MSTORE POP SWAP1 JUMP JUMPDEST PUSH2 0x2A0B PUSH1 0x40 MLOAD DUP1 PUSH1 0x60 ADD PUSH1 0x40 MSTORE DUP1 PUSH1 0x0 DUP2 MSTORE PUSH1 0x20 ADD PUSH1 0x0 DUP2 MSTORE PUSH1 0x20 ADD PUSH1 0x0 DUP2 MSTORE POP SWAP1 JUMP JUMPDEST TIMESTAMP DUP7 DUP7 PUSH1 0x3C DUP2 LT PUSH2 0x2A1E JUMPI PUSH2 0x2A1E PUSH2 0x472E JUMP JUMPDEST PUSH1 0x3 MUL ADD PUSH1 0x40 MLOAD DUP1 PUSH1 0x60 ADD PUSH1 0x40 MSTORE SWAP1 DUP2 PUSH1 0x0 DUP3 ADD SLOAD DUP2 MSTORE PUSH1 0x20 ADD PUSH1 0x1 DUP3 ADD SLOAD DUP2 MSTORE PUSH1 0x20 ADD PUSH1 0x2 DUP3 ADD SLOAD DUP2 MSTORE POP POP SWAP3 POP DUP3 PUSH1 0x0 ADD MLOAD SWAP4 POP PUSH1 0x0 DUP6 DUP3 PUSH2 0x2A62 SWAP2 SWAP1 PUSH2 0x463D JUMP JUMPDEST SWAP1 POP DUP1 DUP5 PUSH1 0x0 ADD MLOAD GT PUSH2 0x2A8B JUMPI POP DUP3 MSTORE PUSH1 0x20 DUP1 DUP4 ADD MLOAD SWAP1 DUP3 ADD MSTORE PUSH1 0x40 DUP1 DUP4 ADD MLOAD SWAP1 DUP3 ADD MSTORE PUSH2 0x2AAD JUMP JUMPDEST DUP4 MLOAD DUP3 EQ PUSH2 0x2A97 JUMPI DUP2 DUP5 MSTORE JUMPDEST PUSH1 0x0 DUP1 PUSH2 0x2AA5 DUP11 DUP11 DUP6 PUSH2 0x333F JUMP JUMPDEST POP SWAP5 POP POP POP POP POP JUMPDEST SWAP4 POP SWAP4 POP SWAP4 SWAP1 POP JUMP JUMPDEST PUSH1 0x0 PUSH2 0x2AC5 DUP3 ISZERO ISZERO PUSH1 0x4 PUSH2 0x31DC JUMP JUMPDEST DUP3 PUSH2 0x2AD2 JUMPI POP PUSH1 0x0 PUSH2 0x2781 JUMP JUMPDEST PUSH1 0x0 PUSH2 0x2AE6 PUSH8 0xDE0B6B3A7640000 DUP6 PUSH2 0x45A6 JUMP JUMPDEST SWAP1 POP PUSH2 0x2B06 PUSH8 0xDE0B6B3A7640000 PUSH2 0x2AFE DUP7 DUP5 PUSH2 0x4592 JUMP JUMPDEST EQ PUSH1 0x5 PUSH2 0x31DC JUMP JUMPDEST PUSH2 0x294F DUP4 DUP3 PUSH2 0x4592 JUMP JUMPDEST PUSH2 0x174 SLOAD PUSH2 0x175 SLOAD PUSH2 0x176 SLOAD PUSH2 0x177 SLOAD DUP5 ISZERO PUSH2 0x2B3C JUMPI PUSH2 0x2B35 DUP5 DUP5 DUP8 PUSH2 0x178 SLOAD PUSH2 0x34B1 JUMP JUMPDEST POP SWAP1 SWAP5 POP SWAP3 POP JUMPDEST SWAP2 SWAP4 POP SWAP2 SWAP4 JUMP JUMPDEST PUSH1 0x0 DUP1 PUSH2 0x2B4F DUP4 PUSH2 0x216A JUMP JUMPDEST SWAP1 POP PUSH1 0x1 PUSH1 0x1 PUSH1 0x80 SHL SUB PUSH1 0x1 PUSH1 0x1 PUSH1 0xA0 SHL SUB DUP3 AND GT PUSH2 0x2C55 JUMPI PUSH1 0x0 PUSH2 0x2B7D PUSH1 0x1 PUSH1 0x1 PUSH1 0xA0 SHL SUB DUP4 AND DUP1 PUSH2 0x45A6 JUMP JUMPDEST SWAP1 POP PUSH32 0x0 PUSH1 0x1 PUSH1 0x1 PUSH1 0xA0 SHL SUB AND PUSH32 0x0 PUSH1 0x1 PUSH1 0x1 PUSH1 0xA0 SHL SUB AND LT PUSH2 0x2C15 JUMPI PUSH2 0x2C10 PUSH1 0x1 PUSH1 0xC0 SHL PUSH32 0x0 PUSH1 0x1 PUSH1 0x1 PUSH1 0x80 SHL SUB AND DUP4 PUSH2 0x2589 JUMP JUMPDEST PUSH2 0x2C4D JUMP JUMPDEST PUSH2 0x2C4D DUP2 PUSH32 0x0 PUSH1 0x1 PUSH1 0x1 PUSH1 0x80 SHL SUB AND PUSH1 0x1 PUSH1 0xC0 SHL PUSH2 0x2589 JUMP JUMPDEST SWAP3 POP POP PUSH2 0x2D44 JUMP JUMPDEST PUSH1 0x0 PUSH2 0x2C74 PUSH1 0x1 PUSH1 0x1 PUSH1 0xA0 SHL SUB DUP4 AND DUP1 PUSH9 0x10000000000000000 PUSH2 0x2589 JUMP JUMPDEST SWAP1 POP PUSH32 0x0 PUSH1 0x1 PUSH1 0x1 PUSH1 0xA0 SHL SUB AND PUSH32 0x0 PUSH1 0x1 PUSH1 0x1 PUSH1 0xA0 SHL SUB AND LT PUSH2 0x2D0C JUMPI PUSH2 0x2D07 PUSH1 0x1 PUSH1 0x80 SHL PUSH32 0x0 PUSH1 0x1 PUSH1 0x1 PUSH1 0x80 SHL SUB AND DUP4 PUSH2 0x2589 JUMP JUMPDEST PUSH2 0x2581 JUMP JUMPDEST PUSH2 0x2581 DUP2 PUSH32 0x0 PUSH1 0x1 PUSH1 0x1 PUSH1 0x80 SHL SUB AND PUSH1 0x1 PUSH1 0x80 SHL PUSH2 0x2589 JUMP JUMPDEST POP SWAP2 SWAP1 POP JUMP JUMPDEST PUSH1 0x0 DUP2 DUP4 LT ISZERO PUSH2 0x2D5A JUMPI DUP2 PUSH2 0xFA6 JUMP JUMPDEST POP SWAP1 SWAP2 SWAP1 POP JUMP JUMPDEST PUSH1 0x0 DUP2 DUP4 LT PUSH2 0x2D5A JUMPI DUP2 PUSH2 0xFA6 JUMP JUMPDEST PUSH2 0x17B DUP1 SLOAD PUSH1 0x1 DUP2 ADD DUP3 SSTORE PUSH1 0x0 SWAP2 DUP3 MSTORE DUP3 MLOAD PUSH1 0x2 SWAP2 DUP3 MUL PUSH32 0x46985247FAC81B794ADA23F07CFEF771057CF55C53A3D12054BCB524935683D7 DUP2 ADD DUP1 SLOAD PUSH1 0x20 DUP8 ADD MLOAD DUP6 SIGNEXTEND PUSH3 0xFFFFFF SWAP1 DUP2 AND PUSH4 0x1000000 MUL PUSH6 0xFFFFFFFFFFFF NOT SWAP1 SWAP3 AND SWAP5 SWAP1 SWAP6 SIGNEXTEND SWAP1 SWAP5 AND SWAP3 SWAP1 SWAP3 OR SWAP3 SWAP1 SWAP3 OR SWAP1 SSTORE PUSH1 0x40 DUP4 ADD MLOAD PUSH32 0x46985247FAC81B794ADA23F07CFEF771057CF55C53A3D12054BCB524935683D8 SWAP1 SWAP2 ADD SSTORE DUP1 DUP1 PUSH2 0x2E11 DUP5 PUSH2 0x109C JUMP JUMPDEST PUSH1 0x40 DUP1 MLOAD DUP5 DUP2 MSTORE PUSH1 0x20 DUP2 ADD DUP5 SWAP1 MSTORE SWAP1 DUP2 ADD DUP3 SWAP1 MSTORE SWAP3 SWAP6 POP SWAP1 SWAP4 POP SWAP2 POP PUSH32 0x8371B63C1831915158CDB0BBB5E03EB9C0188DC41AAA16C5AB3598B538A23D20 SWAP1 PUSH1 0x60 ADD PUSH1 0x40 MLOAD DUP1 SWAP2 SUB SWAP1 LOG1 POP POP POP POP JUMP JUMPDEST PUSH1 0x0 DUP1 PUSH1 0x0 PUSH2 0x2E77 PUSH2 0x174 SLOAD PUSH2 0x175 SLOAD DUP7 DUP9 PUSH2 0x34B1 JUMP JUMPDEST PUSH2 0x174 DUP4 SWAP1 SSTORE PUSH2 0x175 DUP3 SWAP1 SSTORE PUSH1 0x40 DUP1 MLOAD DUP5 DUP2 MSTORE PUSH1 0x20 DUP2 ADD DUP5 SWAP1 MSTORE SWAP1 DUP2 ADD DUP3 SWAP1 MSTORE SWAP1 SWAP6 POP SWAP2 SWAP4 POP SWAP2 POP PUSH32 0xBD9B2EB2E69E8D71702753E645D1FBCDA9B8473629152F5A3CBC18BC2CEECC2F SWAP1 PUSH1 0x60 ADD PUSH1 0x40 MLOAD DUP1 SWAP2 SUB SWAP1 LOG1 POP POP SWAP3 SWAP2 POP POP JUMP JUMPDEST PUSH1 0x0 DUP6 ISZERO PUSH2 0x2F1B JUMPI PUSH1 0x0 PUSH2 0x2EFE DUP6 PUSH2 0x2EEC DUP7 DUP7 PUSH2 0x2AB6 JUMP JUMPDEST PUSH2 0x110D SWAP1 PUSH8 0x1BC16D674EC80000 PUSH2 0x463D JUMP JUMPDEST SWAP1 POP PUSH2 0x2F13 DUP6 PUSH2 0x2F0E DUP4 DUP10 PUSH2 0x2D61 JUMP JUMPDEST PUSH2 0x2D61 JUMP JUMPDEST SWAP2 POP POP PUSH2 0x28CD JUMP JUMPDEST PUSH2 0xEF7 DUP5 DUP7 PUSH2 0x2D61 JUMP JUMPDEST PUSH2 0x171 SLOAD TIMESTAMP SWAP1 DUP1 DUP3 GT ISZERO PUSH2 0x3016 JUMPI PUSH1 0x1 SLOAD PUSH1 0x0 PUSH1 0xB6 DUP3 PUSH1 0x3C DUP2 LT PUSH2 0x2F4B JUMPI PUSH2 0x2F4B PUSH2 0x472E JUMP JUMPDEST PUSH1 0x40 DUP1 MLOAD PUSH1 0x60 DUP2 ADD DUP3 MSTORE PUSH1 0x3 SWAP3 SWAP1 SWAP3 MUL SWAP3 SWAP1 SWAP3 ADD DUP1 SLOAD PUSH1 0x1 DUP3 ADD SLOAD PUSH1 0x20 DUP5 ADD DUP2 DUP2 MSTORE PUSH1 0x2 SWAP1 SWAP4 ADD SLOAD SWAP5 DUP5 ADD SWAP5 SWAP1 SWAP5 MSTORE DUP7 DUP4 MSTORE PUSH2 0x16C SLOAD SWAP3 SWAP5 POP SWAP3 PUSH2 0x2F90 SWAP1 DUP4 SWAP1 PUSH2 0x4516 JUMP JUMPDEST SWAP1 MSTORE POP PUSH2 0x16D SLOAD PUSH1 0x40 DUP4 ADD DUP1 MLOAD PUSH2 0x2FA8 SWAP1 DUP4 SWAP1 PUSH2 0x4516 JUMP JUMPDEST SWAP1 MSTORE POP PUSH2 0x2FB8 PUSH1 0xB6 DUP4 DUP4 DUP7 PUSH2 0x3177 JUMP JUMPDEST PUSH1 0x1 SSTORE PUSH2 0x16C DUP8 SWAP1 SSTORE PUSH2 0x16D DUP7 SWAP1 SSTORE PUSH2 0x16E SLOAD DUP1 DUP1 PUSH2 0x2FD7 DUP8 DUP10 PUSH2 0x463D JUMP JUMPDEST PUSH2 0x2FE1 SWAP2 SWAP1 PUSH2 0x4592 JUMP JUMPDEST PUSH2 0x2FEB SWAP2 SWAP1 PUSH2 0x45A6 JUMP JUMPDEST PUSH2 0x2FF5 SWAP1 DUP3 PUSH2 0x4516 JUMP JUMPDEST PUSH2 0x171 PUSH1 0x0 DUP3 DUP3 SLOAD PUSH2 0x3007 SWAP2 SWAP1 PUSH2 0x4516 JUMP JUMPDEST SWAP1 SWAP2 SSTORE POP PUSH2 0x304E SWAP5 POP POP POP POP POP JUMP JUMPDEST DUP4 PUSH2 0x16C PUSH1 0x0 ADD PUSH1 0x0 DUP3 DUP3 SLOAD PUSH2 0x302C SWAP2 SWAP1 PUSH2 0x4516 JUMP JUMPDEST SWAP1 SWAP2 SSTORE POP DUP4 SWAP1 POP PUSH2 0x16C PUSH1 0x1 ADD PUSH1 0x0 DUP3 DUP3 SLOAD PUSH2 0x3048 SWAP2 SWAP1 PUSH2 0x4516 JUMP JUMPDEST SWAP1 SWAP2 SSTORE POP POP JUMPDEST POP POP POP POP JUMP JUMPDEST PUSH2 0x3078 PUSH1 0x40 MLOAD DUP1 PUSH1 0x60 ADD PUSH1 0x40 MSTORE DUP1 PUSH1 0x0 DUP2 MSTORE PUSH1 0x20 ADD PUSH1 0x0 DUP2 MSTORE PUSH1 0x20 ADD PUSH1 0x0 DUP2 MSTORE POP SWAP1 JUMP JUMPDEST PUSH1 0x0 DUP1 PUSH1 0x0 DUP1 PUSH1 0x0 PUSH2 0x30AE PUSH1 0x2 PUSH1 0x0 SLOAD PUSH32 0x0 PUSH2 0x29C1 JUMP JUMPDEST SWAP2 SWAP5 POP SWAP3 POP SWAP1 POP PUSH1 0x0 PUSH2 0x30C1 DUP10 DUP10 PUSH2 0x2AB6 JUMP JUMPDEST SWAP1 POP DUP10 ISZERO PUSH2 0x30E3 JUMPI DUP1 DUP4 PUSH1 0x20 ADD DUP2 DUP2 MLOAD PUSH2 0x30DB SWAP2 SWAP1 PUSH2 0x4516 JUMP JUMPDEST SWAP1 MSTORE POP PUSH2 0x30F9 JUMP JUMPDEST DUP1 DUP4 PUSH1 0x40 ADD DUP2 DUP2 MLOAD PUSH2 0x30F5 SWAP2 SWAP1 PUSH2 0x4516 JUMP JUMPDEST SWAP1 MSTORE POP JUMPDEST PUSH1 0x0 PUSH2 0x313A DUP12 PUSH2 0x311C JUMPI DUP4 PUSH1 0x40 ADD MLOAD DUP6 PUSH1 0x40 ADD MLOAD PUSH2 0x3117 SWAP2 SWAP1 PUSH2 0x463D JUMP JUMPDEST PUSH2 0x3130 JUMP JUMPDEST DUP4 PUSH1 0x20 ADD MLOAD DUP6 PUSH1 0x20 ADD MLOAD PUSH2 0x3130 SWAP2 SWAP1 PUSH2 0x463D JUMP JUMPDEST PUSH2 0x16B SLOAD SWAP1 PUSH2 0x273D JUMP JUMPDEST SWAP1 POP DUP5 SWAP7 POP DUP4 SWAP8 POP DUP2 PUSH1 0x0 EQ ISZERO PUSH2 0x3152 JUMPI PUSH1 0x0 PUSH2 0x3167 JUMP JUMPDEST PUSH2 0x3167 PUSH2 0xD27 PUSH8 0x51AF86713316A9A DUP4 PUSH2 0x2871 JUMP JUMPDEST SWAP6 POP POP POP POP POP POP SWAP4 POP SWAP4 POP SWAP4 SWAP1 POP JUMP JUMPDEST DUP3 MLOAD PUSH1 0x0 SWAP1 DUP4 EQ PUSH2 0x319C JUMPI PUSH1 0x3C PUSH2 0x318F DUP4 PUSH1 0x1 PUSH2 0x4516 JUMP JUMPDEST PUSH2 0x3199 SWAP2 SWAP1 PUSH2 0x46B7 JUMP JUMPDEST SWAP2 POP JUMPDEST DUP4 DUP6 DUP4 PUSH1 0x3C DUP2 LT PUSH2 0x31AF JUMPI PUSH2 0x31AF PUSH2 0x472E JUMP JUMPDEST DUP3 MLOAD PUSH1 0x3 SWAP2 SWAP1 SWAP2 MUL SWAP2 SWAP1 SWAP2 ADD SWAP1 DUP2 SSTORE PUSH1 0x20 DUP3 ADD MLOAD PUSH1 0x1 DUP3 ADD SSTORE PUSH1 0x40 SWAP1 SWAP2 ADD MLOAD PUSH1 0x2 SWAP1 SWAP2 ADD SSTORE POP SWAP4 SWAP3 POP POP POP JUMP JUMPDEST DUP2 PUSH2 0x31EA JUMPI PUSH2 0x31EA DUP2 PUSH2 0x35FF JUMP JUMPDEST POP POP JUMP JUMPDEST PUSH1 0x0 PUSH2 0x3201 PUSH1 0x1 PUSH1 0xFF SHL DUP5 LT PUSH1 0x6 PUSH2 0x31DC JUMP JUMPDEST DUP3 PUSH2 0x3227 PUSH24 0xBCE5086492111AEA88F4BB1CA6BCF584181EA8059F76532 DUP5 LT PUSH1 0x7 PUSH2 0x31DC JUMP JUMPDEST DUP3 PUSH1 0x0 PUSH8 0xC7D713B49DA0000 DUP4 SGT DUP1 ISZERO PUSH2 0x3248 JUMPI POP PUSH8 0xF43FC2C04EE0000 DUP4 SLT JUMPDEST ISZERO PUSH2 0x327F JUMPI PUSH1 0x0 PUSH2 0x3258 DUP5 PUSH2 0x3652 JUMP JUMPDEST SWAP1 POP PUSH8 0xDE0B6B3A7640000 DUP1 DUP3 SMOD DUP5 MUL SDIV DUP4 PUSH8 0xDE0B6B3A7640000 DUP4 SDIV MUL ADD SWAP2 POP POP PUSH2 0x328D JUMP JUMPDEST DUP2 PUSH2 0x3289 DUP5 PUSH2 0x377A JUMP JUMPDEST MUL SWAP1 POP JUMPDEST PUSH8 0xDE0B6B3A7640000 SWAP1 SDIV PUSH2 0x32C5 PUSH9 0x238FD42C5CF03FFFF NOT DUP3 SLT DUP1 ISZERO SWAP1 PUSH2 0x32BE JUMPI POP PUSH9 0x70C1CC73B00C80000 DUP3 SGT ISZERO JUMPDEST PUSH1 0x8 PUSH2 0x31DC JUMP JUMPDEST PUSH2 0xEF7 DUP2 PUSH2 0x3B25 JUMP JUMPDEST PUSH1 0x0 DUP1 PUSH2 0x32DB DUP4 DUP6 PUSH2 0x4516 JUMP JUMPDEST SWAP1 POP PUSH2 0xFA6 DUP5 DUP3 LT ISZERO PUSH1 0x0 PUSH2 0x31DC JUMP JUMPDEST PUSH1 0x0 PUSH2 0x32FA DUP3 ISZERO ISZERO PUSH1 0x4 PUSH2 0x31DC JUMP JUMPDEST DUP3 PUSH2 0x3307 JUMPI POP PUSH1 0x0 PUSH2 0x2781 JUMP JUMPDEST PUSH1 0x0 PUSH2 0x331B PUSH8 0xDE0B6B3A7640000 DUP6 PUSH2 0x45A6 JUMP JUMPDEST SWAP1 POP PUSH2 0x3333 PUSH8 0xDE0B6B3A7640000 PUSH2 0x2AFE DUP7 DUP5 PUSH2 0x4592 JUMP JUMPDEST DUP3 PUSH2 0x293A PUSH1 0x1 DUP4 PUSH2 0x463D JUMP JUMPDEST PUSH2 0x3363 PUSH1 0x40 MLOAD DUP1 PUSH1 0x60 ADD PUSH1 0x40 MSTORE DUP1 PUSH1 0x0 DUP2 MSTORE PUSH1 0x20 ADD PUSH1 0x0 DUP2 MSTORE PUSH1 0x20 ADD PUSH1 0x0 DUP2 MSTORE POP SWAP1 JUMP JUMPDEST PUSH2 0x3387 PUSH1 0x40 MLOAD DUP1 PUSH1 0x60 ADD PUSH1 0x40 MSTORE DUP1 PUSH1 0x0 DUP2 MSTORE PUSH1 0x20 ADD PUSH1 0x0 DUP2 MSTORE PUSH1 0x20 ADD PUSH1 0x0 DUP2 MSTORE POP SWAP1 JUMP JUMPDEST DUP5 DUP5 PUSH1 0x3C DUP2 LT PUSH2 0x3399 JUMPI PUSH2 0x3399 PUSH2 0x472E JUMP JUMPDEST PUSH1 0x3 MUL ADD PUSH1 0x40 MLOAD DUP1 PUSH1 0x60 ADD PUSH1 0x40 MSTORE SWAP1 DUP2 PUSH1 0x0 DUP3 ADD SLOAD DUP2 MSTORE PUSH1 0x20 ADD PUSH1 0x1 DUP3 ADD SLOAD DUP2 MSTORE PUSH1 0x20 ADD PUSH1 0x2 DUP3 ADD SLOAD DUP2 MSTORE POP POP SWAP2 POP DUP3 DUP3 PUSH1 0x0 ADD MLOAD GT PUSH2 0x33FD JUMPI DUP2 MLOAD DUP4 EQ ISZERO PUSH2 0x33E1 JUMPI PUSH2 0x34A9 JUMP JUMPDEST TIMESTAMP DUP2 MSTORE PUSH1 0x20 DUP1 DUP4 ADD MLOAD SWAP1 DUP3 ADD MSTORE PUSH1 0x40 DUP1 DUP4 ADD MLOAD SWAP1 DUP3 ADD MSTORE PUSH2 0x34A9 JUMP JUMPDEST PUSH1 0x3C PUSH2 0x340A DUP6 PUSH1 0x1 PUSH2 0x4516 JUMP JUMPDEST PUSH2 0x3414 SWAP2 SWAP1 PUSH2 0x46B7 JUMP JUMPDEST SWAP4 POP DUP5 DUP5 PUSH1 0x3C DUP2 LT PUSH2 0x3428 JUMPI PUSH2 0x3428 PUSH2 0x472E JUMP JUMPDEST PUSH1 0x3 MUL ADD PUSH1 0x40 MLOAD DUP1 PUSH1 0x60 ADD PUSH1 0x40 MSTORE SWAP1 DUP2 PUSH1 0x0 DUP3 ADD SLOAD DUP2 MSTORE PUSH1 0x20 ADD PUSH1 0x1 DUP3 ADD SLOAD DUP2 MSTORE PUSH1 0x20 ADD PUSH1 0x2 DUP3 ADD SLOAD DUP2 MSTORE POP POP SWAP2 POP PUSH1 0x1 DUP3 PUSH1 0x0 ADD MLOAD GT PUSH2 0x348A JUMPI PUSH1 0x40 DUP1 MLOAD PUSH1 0x60 DUP2 ADD DUP3 MSTORE DUP7 SLOAD DUP2 MSTORE PUSH1 0x1 DUP8 ADD SLOAD PUSH1 0x20 DUP3 ADD MSTORE PUSH1 0x2 DUP8 ADD SLOAD SWAP2 DUP2 ADD SWAP2 SWAP1 SWAP2 MSTORE SWAP2 POP JUMPDEST DUP2 MLOAD DUP4 GT PUSH2 0x3499 JUMPI POP DUP1 PUSH2 0x34A9 JUMP JUMPDEST PUSH2 0x34A4 DUP6 DUP5 DUP7 PUSH2 0x3F08 JUMP JUMPDEST SWAP2 POP SWAP2 POP JUMPDEST SWAP4 POP SWAP4 SWAP2 POP POP JUMP JUMPDEST PUSH1 0x0 DUP1 DUP1 DUP7 ISZERO DUP1 ISZERO PUSH2 0x34C1 JUMPI POP DUP6 ISZERO JUMPDEST ISZERO PUSH2 0x34D4 JUMPI POP PUSH1 0x0 SWAP2 POP DUP2 SWAP1 POP DUP1 PUSH2 0x35F5 JUMP JUMPDEST DUP5 PUSH2 0x34E7 JUMPI POP DUP6 SWAP2 POP DUP5 SWAP1 POP PUSH1 0x0 PUSH2 0x35F5 JUMP JUMPDEST PUSH1 0x0 PUSH2 0x3509 PUSH2 0xD27 PUSH2 0x3502 PUSH8 0xDE0B6B3A7640000 PUSH1 0x2 PUSH2 0x45A6 JUMP JUMPDEST DUP8 SWAP1 PUSH2 0x28F2 JUMP JUMPDEST SWAP1 POP PUSH2 0x3527 PUSH2 0x3520 DUP8 PUSH8 0xDE0B6B3A7640000 PUSH2 0x45A6 JUMP JUMPDEST DUP3 SWAP1 PUSH2 0x2871 JUMP JUMPDEST SWAP1 POP DUP8 DUP8 DUP1 DUP3 GT DUP1 ISZERO SWAP1 PUSH2 0x3539 JUMPI SWAP1 SWAP2 SWAP1 JUMPDEST DUP2 PUSH2 0x355F JUMPI PUSH1 0x0 PUSH2 0x354A DUP6 DUP6 PUSH2 0x273D JUMP JUMPDEST SWAP1 POP PUSH2 0x3556 DUP2 DUP6 PUSH2 0x463D JUMP JUMPDEST SWAP6 POP SWAP3 POP PUSH2 0x35D0 JUMP JUMPDEST PUSH1 0x0 PUSH2 0x3575 PUSH2 0x356E DUP5 DUP7 PUSH2 0x463D JUMP JUMPDEST DUP7 SWAP1 PUSH2 0x273D JUMP JUMPDEST SWAP1 POP PUSH1 0x0 PUSH2 0x3583 DUP5 DUP7 PUSH2 0x4516 JUMP JUMPDEST SWAP1 POP PUSH1 0x2 PUSH2 0x3591 DUP6 DUP8 PUSH2 0x463D JUMP JUMPDEST PUSH2 0x359B SWAP2 SWAP1 PUSH2 0x4592 JUMP JUMPDEST SWAP7 POP PUSH1 0x2 PUSH2 0x35A9 DUP4 DUP4 PUSH2 0x4516 JUMP JUMPDEST PUSH2 0x35B3 SWAP2 SWAP1 PUSH2 0x4592 JUMP JUMPDEST SWAP5 POP PUSH1 0x2 PUSH2 0x35C1 DUP4 DUP4 PUSH2 0x463D JUMP JUMPDEST PUSH2 0x35CB SWAP2 SWAP1 PUSH2 0x4592 JUMP JUMPDEST SWAP4 POP POP POP JUMPDEST DUP1 PUSH2 0x35E5 JUMPI DUP3 DUP3 PUSH2 0x35E0 DUP8 PUSH2 0x46E5 JUMP JUMPDEST PUSH2 0x35E9 JUMP JUMPDEST DUP2 DUP4 DUP7 JUMPDEST SWAP2 SWAP9 POP SWAP7 POP SWAP5 POP POP POP POP POP JUMPDEST SWAP5 POP SWAP5 POP SWAP5 SWAP2 POP POP JUMP JUMPDEST PUSH3 0x461BCD PUSH1 0xE5 SHL PUSH1 0x0 SWAP1 DUP2 MSTORE PUSH1 0x20 PUSH1 0x4 MSTORE PUSH1 0x7 PUSH1 0x24 MSTORE PUSH7 0x42414C23000030 PUSH1 0xA DUP1 DUP5 DIV DUP2 DUP2 MOD PUSH1 0x30 SWAP1 DUP2 ADD PUSH1 0x8 SHL SWAP6 DUP4 SWAP1 MOD SWAP6 SWAP1 SWAP6 ADD SWAP1 DUP3 SWAP1 DIV SWAP2 DUP3 MOD SWAP1 SWAP5 ADD PUSH1 0x10 SHL SWAP4 SWAP1 SWAP4 ADD ADD PUSH1 0xC8 SHL PUSH1 0x44 MSTORE PUSH1 0x64 SWAP1 REVERT JUMPDEST PUSH8 0xDE0B6B3A7640000 MUL PUSH1 0x0 DUP1 PUSH15 0xC097CE7BC90715B34B9F1000000000 DUP1 DUP5 ADD SWAP1 PUSH15 0xC097CE7BC90715B34B9F0FFFFFFFFF NOT DUP6 ADD MUL DUP2 PUSH2 0x3694 JUMPI PUSH2 0x3694 PUSH2 0x4718 JUMP JUMPDEST SDIV SWAP1 POP PUSH1 0x0 PUSH15 0xC097CE7BC90715B34B9F1000000000 DUP3 DUP1 MUL SDIV SWAP1 POP DUP2 DUP1 PUSH15 0xC097CE7BC90715B34B9F1000000000 DUP2 DUP5 MUL SDIV SWAP2 POP PUSH1 0x3 DUP3 SDIV ADD PUSH15 0xC097CE7BC90715B34B9F1000000000 DUP3 DUP5 MUL SDIV SWAP2 POP PUSH1 0x5 DUP3 SDIV ADD PUSH15 0xC097CE7BC90715B34B9F1000000000 DUP3 DUP5 MUL SDIV SWAP2 POP PUSH1 0x7 DUP3 SDIV ADD PUSH15 0xC097CE7BC90715B34B9F1000000000 DUP3 DUP5 MUL SDIV SWAP2 POP PUSH1 0x9 DUP3 SDIV ADD PUSH15 0xC097CE7BC90715B34B9F1000000000 DUP3 DUP5 MUL SDIV SWAP2 POP PUSH1 0xB DUP3 SDIV ADD PUSH15 0xC097CE7BC90715B34B9F1000000000 DUP3 DUP5 MUL SDIV SWAP2 POP PUSH1 0xD DUP3 SDIV ADD PUSH15 0xC097CE7BC90715B34B9F1000000000 DUP3 DUP5 MUL SDIV SWAP2 POP PUSH1 0xF DUP3 SDIV ADD PUSH1 0x2 MUL SWAP6 SWAP5 POP POP POP POP POP JUMP JUMPDEST PUSH1 0x0 PUSH8 0xDE0B6B3A7640000 DUP3 SLT ISZERO PUSH2 0x37BC JUMPI PUSH2 0x37B3 DUP3 PUSH15 0xC097CE7BC90715B34B9F1000000000 DUP2 PUSH2 0x37AD JUMPI PUSH2 0x37AD PUSH2 0x4718 JUMP JUMPDEST SDIV PUSH2 0x377A JUMP JUMPDEST PUSH1 0x0 SUB SWAP3 SWAP2 POP POP JUMP JUMPDEST PUSH1 0x0 PUSH31 0x1600EF3172E58D2E933EC884FDE10064C63B5372D805E203C0000000000000 DUP4 SLT PUSH2 0x380D JUMPI PUSH24 0x195E54C5DD42177F53A27172FA9EC630262827000000000 DUP4 SDIV SWAP3 POP PUSH9 0x6F05B59D3B2000000 ADD JUMPDEST PUSH20 0x11798004D755D3C8BC8E03204CF44619E000000 DUP4 SLT PUSH2 0x3845 JUMPI PUSH12 0x1425982CF597CD205CEF7380 DUP4 SDIV SWAP3 POP PUSH9 0x3782DACE9D9000000 ADD JUMPDEST PUSH1 0x64 SWAP3 DUP4 MUL SWAP3 MUL PUSH15 0x1855144814A7FF805980FF0084000 DUP4 SLT PUSH2 0x388D JUMPI PUSH15 0x1855144814A7FF805980FF0084000 PUSH9 0x56BC75E2D63100000 DUP5 MUL SDIV SWAP3 POP PUSH9 0xAD78EBC5AC62000000 ADD JUMPDEST PUSH12 0x2DF0AB5A80A22C61AB5A700 DUP4 SLT PUSH2 0x38C8 JUMPI PUSH12 0x2DF0AB5A80A22C61AB5A700 PUSH9 0x56BC75E2D63100000 DUP5 MUL SDIV SWAP3 POP PUSH9 0x56BC75E2D631000000 ADD JUMPDEST PUSH10 0x3F1FCE3DA636EA5CF850 DUP4 SLT PUSH2 0x38FF JUMPI PUSH10 0x3F1FCE3DA636EA5CF850 PUSH9 0x56BC75E2D63100000 DUP5 MUL SDIV SWAP3 POP PUSH9 0x2B5E3AF16B18800000 ADD JUMPDEST PUSH10 0x127FA27722CC06CC5E2 DUP4 SLT PUSH2 0x3936 JUMPI PUSH10 0x127FA27722CC06CC5E2 PUSH9 0x56BC75E2D63100000 DUP5 MUL SDIV SWAP3 POP PUSH9 0x15AF1D78B58C400000 ADD JUMPDEST PUSH9 0x280E60114EDB805D03 DUP4 SLT PUSH2 0x396B JUMPI PUSH9 0x280E60114EDB805D03 PUSH9 0x56BC75E2D63100000 DUP5 MUL SDIV SWAP3 POP PUSH9 0xAD78EBC5AC6200000 ADD JUMPDEST PUSH9 0xEBC5FB41746121110 DUP4 SLT PUSH2 0x3996 JUMPI PUSH9 0xEBC5FB41746121110 PUSH9 0x56BC75E2D63100000 SWAP4 DUP5 MUL SDIV SWAP3 ADD JUMPDEST PUSH9 0x8F00F760A4B2DB55D DUP4 SLT PUSH2 0x39CB JUMPI PUSH9 0x8F00F760A4B2DB55D PUSH9 0x56BC75E2D63100000 DUP5 MUL SDIV SWAP3 POP PUSH9 0x2B5E3AF16B1880000 ADD JUMPDEST PUSH9 0x6F5F1775788937937 DUP4 SLT PUSH2 0x3A00 JUMPI PUSH9 0x6F5F1775788937937 PUSH9 0x56BC75E2D63100000 DUP5 MUL SDIV SWAP3 POP PUSH9 0x15AF1D78B58C40000 ADD JUMPDEST PUSH9 0x6248F33704B286603 DUP4 SLT PUSH2 0x3A34 JUMPI PUSH9 0x6248F33704B286603 PUSH9 0x56BC75E2D63100000 DUP5 MUL SDIV SWAP3 POP PUSH8 0xAD78EBC5AC620000 ADD JUMPDEST PUSH9 0x5C548670B9510E7AC DUP4 SLT PUSH2 0x3A68 JUMPI PUSH9 0x5C548670B9510E7AC PUSH9 0x56BC75E2D63100000 DUP5 MUL SDIV SWAP3 POP PUSH8 0x56BC75E2D6310000 ADD JUMPDEST PUSH1 0x0 PUSH9 0x56BC75E2D63100000 DUP5 ADD PUSH9 0x56BC75E2D63100000 DUP1 DUP7 SUB MUL DUP2 PUSH2 0x3A91 JUMPI PUSH2 0x3A91 PUSH2 0x4718 JUMP JUMPDEST SDIV SWAP1 POP PUSH1 0x0 PUSH9 0x56BC75E2D63100000 DUP3 DUP1 MUL SDIV SWAP1 POP DUP2 DUP1 PUSH9 0x56BC75E2D63100000 DUP2 DUP5 MUL SDIV SWAP2 POP PUSH1 0x3 DUP3 SDIV ADD PUSH9 0x56BC75E2D63100000 DUP3 DUP5 MUL SDIV SWAP2 POP PUSH1 0x5 DUP3 SDIV ADD PUSH9 0x56BC75E2D63100000 DUP3 DUP5 MUL SDIV SWAP2 POP PUSH1 0x7 DUP3 SDIV ADD PUSH9 0x56BC75E2D63100000 DUP3 DUP5 MUL SDIV SWAP2 POP PUSH1 0x9 DUP3 SDIV ADD PUSH9 0x56BC75E2D63100000 DUP3 DUP5 MUL SDIV SWAP2 POP PUSH1 0xB DUP3 SDIV ADD PUSH1 0x2 MUL PUSH1 0x64 DUP6 DUP3 ADD SDIV SWAP8 SWAP7 POP POP POP POP POP POP POP JUMP JUMPDEST PUSH1 0x0 PUSH2 0x3B54 PUSH9 0x238FD42C5CF03FFFF NOT DUP4 SLT ISZERO DUP1 ISZERO PUSH2 0x3B4D JUMPI POP PUSH9 0x70C1CC73B00C80000 DUP4 SGT ISZERO JUMPDEST PUSH1 0x9 PUSH2 0x31DC JUMP JUMPDEST PUSH1 0x0 DUP3 SLT ISZERO PUSH2 0x3B8D JUMPI PUSH2 0x3B69 DUP3 PUSH1 0x0 SUB PUSH2 0x3B25 JUMP JUMPDEST PUSH15 0xC097CE7BC90715B34B9F1000000000 DUP2 PUSH2 0x3B86 JUMPI PUSH2 0x3B86 PUSH2 0x4718 JUMP JUMPDEST SDIV SWAP3 SWAP2 POP POP JUMP JUMPDEST PUSH1 0x0 PUSH9 0x6F05B59D3B2000000 DUP4 SLT PUSH2 0x3BCD JUMPI POP PUSH9 0x6F05B59D3B1FFFFFF NOT SWAP1 SWAP2 ADD SWAP1 PUSH24 0x195E54C5DD42177F53A27172FA9EC630262827000000000 PUSH2 0x3C03 JUMP JUMPDEST PUSH9 0x3782DACE9D9000000 DUP4 SLT PUSH2 0x3BFF JUMPI POP PUSH9 0x3782DACE9D8FFFFFF NOT SWAP1 SWAP2 ADD SWAP1 PUSH12 0x1425982CF597CD205CEF7380 PUSH2 0x3C03 JUMP JUMPDEST POP PUSH1 0x1 JUMPDEST PUSH1 0x64 SWAP3 SWAP1 SWAP3 MUL SWAP2 PUSH9 0x56BC75E2D63100000 PUSH9 0xAD78EBC5AC62000000 DUP5 SLT PUSH2 0x3C53 JUMPI PUSH9 0xAD78EBC5AC61FFFFFF NOT SWAP1 SWAP4 ADD SWAP3 PUSH9 0x56BC75E2D63100000 PUSH15 0x1855144814A7FF805980FF0084000 DUP3 MUL SDIV SWAP1 POP JUMPDEST PUSH9 0x56BC75E2D631000000 DUP5 SLT PUSH2 0x3C8F JUMPI PUSH9 0x56BC75E2D630FFFFFF NOT SWAP1 SWAP4 ADD SWAP3 PUSH9 0x56BC75E2D63100000 PUSH12 0x2DF0AB5A80A22C61AB5A700 DUP3 MUL SDIV SWAP1 POP JUMPDEST PUSH9 0x2B5E3AF16B18800000 DUP5 SLT PUSH2 0x3CC9 JUMPI PUSH9 0x2B5E3AF16B187FFFFF NOT SWAP1 SWAP4 ADD SWAP3 PUSH9 0x56BC75E2D63100000 PUSH10 0x3F1FCE3DA636EA5CF850 DUP3 MUL SDIV SWAP1 POP JUMPDEST PUSH9 0x15AF1D78B58C400000 DUP5 SLT PUSH2 0x3D03 JUMPI PUSH9 0x15AF1D78B58C3FFFFF NOT SWAP1 SWAP4 ADD SWAP3 PUSH9 0x56BC75E2D63100000 PUSH10 0x127FA27722CC06CC5E2 DUP3 MUL SDIV SWAP1 POP JUMPDEST PUSH9 0xAD78EBC5AC6200000 DUP5 SLT PUSH2 0x3D3C JUMPI PUSH9 0xAD78EBC5AC61FFFFF NOT SWAP1 SWAP4 ADD SWAP3 PUSH9 0x56BC75E2D63100000 PUSH9 0x280E60114EDB805D03 DUP3 MUL SDIV SWAP1 POP JUMPDEST PUSH9 0x56BC75E2D63100000 DUP5 SLT PUSH2 0x3D75 JUMPI PUSH9 0x56BC75E2D630FFFFF NOT SWAP1 SWAP4 ADD SWAP3 PUSH9 0x56BC75E2D63100000 PUSH9 0xEBC5FB41746121110 DUP3 MUL SDIV SWAP1 POP JUMPDEST PUSH9 0x2B5E3AF16B1880000 DUP5 SLT PUSH2 0x3DAE JUMPI PUSH9 0x2B5E3AF16B187FFFF NOT SWAP1 SWAP4 ADD SWAP3 PUSH9 0x56BC75E2D63100000 PUSH9 0x8F00F760A4B2DB55D DUP3 MUL SDIV SWAP1 POP JUMPDEST PUSH9 0x15AF1D78B58C40000 DUP5 SLT PUSH2 0x3DE7 JUMPI PUSH9 0x15AF1D78B58C3FFFF NOT SWAP1 SWAP4 ADD SWAP3 PUSH9 0x56BC75E2D63100000 PUSH9 0x6F5F1775788937937 DUP3 MUL SDIV SWAP1 POP JUMPDEST PUSH9 0x56BC75E2D63100000 DUP5 DUP2 ADD SWAP1 DUP6 SWAP1 PUSH1 0x2 SWAP1 DUP3 DUP1 MUL SDIV SDIV SWAP2 DUP3 ADD SWAP2 SWAP1 POP PUSH1 0x3 PUSH9 0x56BC75E2D63100000 DUP8 DUP4 MUL SDIV SDIV SWAP2 DUP3 ADD SWAP2 SWAP1 POP PUSH1 0x4 PUSH9 0x56BC75E2D63100000 DUP8 DUP4 MUL SDIV SDIV SWAP2 DUP3 ADD SWAP2 SWAP1 POP PUSH1 0x5 PUSH9 0x56BC75E2D63100000 DUP8 DUP4 MUL SDIV SDIV SWAP2 DUP3 ADD SWAP2 SWAP1 POP PUSH1 0x6 PUSH9 0x56BC75E2D63100000 DUP8 DUP4 MUL SDIV SDIV SWAP2 DUP3 ADD SWAP2 SWAP1 POP PUSH1 0x7 PUSH9 0x56BC75E2D63100000 DUP8 DUP4 MUL SDIV SDIV SWAP2 DUP3 ADD SWAP2 SWAP1 POP PUSH1 0x8 PUSH9 0x56BC75E2D63100000 DUP8 DUP4 MUL SDIV SDIV SWAP2 DUP3 ADD SWAP2 SWAP1 POP PUSH1 0x9 PUSH9 0x56BC75E2D63100000 DUP8 DUP4 MUL SDIV SDIV SWAP2 DUP3 ADD SWAP2 SWAP1 POP PUSH1 0xA PUSH9 0x56BC75E2D63100000 DUP8 DUP4 MUL SDIV SDIV SWAP2 DUP3 ADD SWAP2 SWAP1 POP PUSH1 0xB PUSH9 0x56BC75E2D63100000 DUP8 DUP4 MUL SDIV SDIV SWAP2 DUP3 ADD SWAP2 SWAP1 POP PUSH1 0xC PUSH9 0x56BC75E2D63100000 DUP8 DUP4 MUL SDIV SDIV SWAP2 DUP3 ADD SWAP2 SWAP1 POP PUSH1 0x64 PUSH9 0x56BC75E2D63100000 DUP5 DUP5 MUL SDIV DUP6 MUL SDIV SWAP7 SWAP6 POP POP POP POP POP POP JUMP JUMPDEST PUSH2 0x3F2C PUSH1 0x40 MLOAD DUP1 PUSH1 0x60 ADD PUSH1 0x40 MSTORE DUP1 PUSH1 0x0 DUP2 MSTORE PUSH1 0x20 ADD PUSH1 0x0 DUP2 MSTORE PUSH1 0x20 ADD PUSH1 0x0 DUP2 MSTORE POP SWAP1 JUMP JUMPDEST PUSH2 0x3F50 PUSH1 0x40 MLOAD DUP1 PUSH1 0x60 ADD PUSH1 0x40 MSTORE DUP1 PUSH1 0x0 DUP2 MSTORE PUSH1 0x20 ADD PUSH1 0x0 DUP2 MSTORE PUSH1 0x20 ADD PUSH1 0x0 DUP2 MSTORE POP SWAP1 JUMP JUMPDEST PUSH1 0x0 PUSH1 0x3C PUSH2 0x3F5F DUP6 PUSH1 0x1 PUSH2 0x44F0 JUMP JUMPDEST PUSH2 0xFFFF AND PUSH2 0x3F6D SWAP2 SWAP1 PUSH2 0x46B7 JUMP JUMPDEST SWAP1 POP PUSH1 0x0 PUSH1 0x1 PUSH2 0x3F7E PUSH1 0x3C DUP5 PUSH2 0x4516 JUMP JUMPDEST PUSH2 0x3F88 SWAP2 SWAP1 PUSH2 0x463D JUMP JUMPDEST SWAP1 POP PUSH1 0x0 JUMPDEST PUSH1 0x2 PUSH2 0x3F99 DUP4 DUP6 PUSH2 0x4516 JUMP JUMPDEST PUSH2 0x3FA3 SWAP2 SWAP1 PUSH2 0x4592 JUMP JUMPDEST SWAP1 POP DUP8 PUSH2 0x3FB1 PUSH1 0x3C DUP4 PUSH2 0x46B7 JUMP JUMPDEST PUSH1 0x3C DUP2 LT PUSH2 0x3FC1 JUMPI PUSH2 0x3FC1 PUSH2 0x472E JUMP JUMPDEST PUSH1 0x3 MUL ADD PUSH1 0x40 MLOAD DUP1 PUSH1 0x60 ADD PUSH1 0x40 MSTORE SWAP1 DUP2 PUSH1 0x0 DUP3 ADD SLOAD DUP2 MSTORE PUSH1 0x20 ADD PUSH1 0x1 DUP3 ADD SLOAD DUP2 MSTORE PUSH1 0x20 ADD PUSH1 0x2 DUP3 ADD SLOAD DUP2 MSTORE POP POP SWAP5 POP PUSH1 0x1 DUP6 PUSH1 0x0 ADD MLOAD GT PUSH2 0x400E JUMPI PUSH2 0x4007 DUP2 PUSH1 0x1 PUSH2 0x4516 JUMP JUMPDEST SWAP3 POP PUSH2 0x3F8D JUMP JUMPDEST DUP8 PUSH1 0x3C PUSH2 0x401C DUP4 PUSH1 0x1 PUSH2 0x4516 JUMP JUMPDEST PUSH2 0x4026 SWAP2 SWAP1 PUSH2 0x46B7 JUMP JUMPDEST PUSH1 0x3C DUP2 LT PUSH2 0x4036 JUMPI PUSH2 0x4036 PUSH2 0x472E JUMP JUMPDEST PUSH1 0x3 MUL ADD PUSH1 0x40 MLOAD DUP1 PUSH1 0x60 ADD PUSH1 0x40 MSTORE SWAP1 DUP2 PUSH1 0x0 DUP3 ADD SLOAD DUP2 MSTORE PUSH1 0x20 ADD PUSH1 0x1 DUP3 ADD SLOAD DUP2 MSTORE PUSH1 0x20 ADD PUSH1 0x2 DUP3 ADD SLOAD DUP2 MSTORE POP POP SWAP4 POP PUSH1 0x0 DUP8 PUSH4 0xFFFFFFFF AND DUP7 PUSH1 0x0 ADD MLOAD GT ISZERO SWAP1 POP DUP1 DUP1 ISZERO PUSH2 0x408B JUMPI POP DUP5 MLOAD PUSH4 0xFFFFFFFF DUP10 AND GT ISZERO JUMPDEST ISZERO PUSH2 0x4096 JUMPI POP PUSH2 0x40C1 JUMP JUMPDEST DUP1 PUSH2 0x40AD JUMPI PUSH2 0x40A6 PUSH1 0x1 DUP4 PUSH2 0x463D JUMP JUMPDEST SWAP3 POP PUSH2 0x40BB JUMP JUMPDEST PUSH2 0x40B8 DUP3 PUSH1 0x1 PUSH2 0x4516 JUMP JUMPDEST SWAP4 POP JUMPDEST POP PUSH2 0x3F8D JUMP JUMPDEST POP POP POP SWAP4 POP SWAP4 SWAP2 POP POP JUMP JUMPDEST PUSH1 0x0 DUP3 PUSH1 0x1F DUP4 ADD SLT PUSH2 0x40DD JUMPI PUSH1 0x0 DUP1 REVERT JUMPDEST DUP2 MLOAD PUSH1 0x20 PUSH2 0x40F2 PUSH2 0x40ED DUP4 PUSH2 0x44CC JUMP JUMPDEST PUSH2 0x449B JUMP JUMPDEST DUP1 DUP4 DUP3 MSTORE DUP3 DUP3 ADD SWAP2 POP DUP3 DUP7 ADD DUP8 DUP5 DUP7 PUSH1 0x5 SHL DUP10 ADD ADD GT ISZERO PUSH2 0x4112 JUMPI PUSH1 0x0 DUP1 REVERT JUMPDEST PUSH1 0x0 JUMPDEST DUP6 DUP2 LT ISZERO PUSH2 0x413A JUMPI DUP2 MLOAD PUSH2 0x4128 DUP2 PUSH2 0x475A JUMP JUMPDEST DUP5 MSTORE SWAP3 DUP5 ADD SWAP3 SWAP1 DUP5 ADD SWAP1 PUSH1 0x1 ADD PUSH2 0x4115 JUMP JUMPDEST POP SWAP1 SWAP8 SWAP7 POP POP POP POP POP POP POP JUMP JUMPDEST DUP1 CALLDATALOAD PUSH1 0x2 DUP2 SWAP1 SIGNEXTEND DUP2 EQ PUSH2 0x4159 JUMPI PUSH1 0x0 DUP1 REVERT JUMPDEST SWAP2 SWAP1 POP JUMP JUMPDEST PUSH1 0x0 PUSH1 0x20 DUP3 DUP5 SUB SLT ISZERO PUSH2 0x4170 JUMPI PUSH1 0x0 DUP1 REVERT JUMPDEST DUP2 CALLDATALOAD PUSH2 0xFA6 DUP2 PUSH2 0x475A JUMP JUMPDEST PUSH1 0x0 DUP1 PUSH1 0x40 DUP4 DUP6 SUB SLT ISZERO PUSH2 0x418E JUMPI PUSH1 0x0 DUP1 REVERT JUMPDEST DUP3 MLOAD PUSH8 0xFFFFFFFFFFFFFFFF DUP1 DUP3 GT ISZERO PUSH2 0x41A6 JUMPI PUSH1 0x0 DUP1 REVERT JUMPDEST DUP2 DUP6 ADD SWAP2 POP DUP6 PUSH1 0x1F DUP4 ADD SLT PUSH2 0x41BA JUMPI PUSH1 0x0 DUP1 REVERT JUMPDEST DUP2 MLOAD PUSH1 0x20 PUSH2 0x41CA PUSH2 0x40ED DUP4 PUSH2 0x44CC JUMP JUMPDEST DUP1 DUP4 DUP3 MSTORE DUP3 DUP3 ADD SWAP2 POP DUP3 DUP7 ADD DUP11 DUP5 DUP7 PUSH1 0x5 SHL DUP10 ADD ADD GT ISZERO PUSH2 0x41EA JUMPI PUSH1 0x0 DUP1 REVERT JUMPDEST PUSH1 0x0 SWAP7 POP JUMPDEST DUP5 DUP8 LT ISZERO PUSH2 0x421C JUMPI DUP1 MLOAD DUP1 PUSH1 0x6 SIGNEXTEND DUP2 EQ PUSH2 0x4208 JUMPI PUSH1 0x0 DUP1 REVERT JUMPDEST DUP4 MSTORE PUSH1 0x1 SWAP7 SWAP1 SWAP7 ADD SWAP6 SWAP2 DUP4 ADD SWAP2 DUP4 ADD PUSH2 0x41EF JUMP JUMPDEST POP SWAP2 DUP9 ADD MLOAD SWAP2 SWAP7 POP SWAP1 SWAP4 POP POP POP DUP1 DUP3 GT ISZERO PUSH2 0x4236 JUMPI PUSH1 0x0 DUP1 REVERT JUMPDEST POP PUSH2 0x8E9 DUP6 DUP3 DUP7 ADD PUSH2 0x40CC JUMP JUMPDEST PUSH1 0x0 PUSH1 0x20 DUP3 DUP5 SUB SLT ISZERO PUSH2 0x4255 JUMPI PUSH1 0x0 DUP1 REVERT JUMPDEST DUP2 MLOAD PUSH2 0xFA6 DUP2 PUSH2 0x4772 JUMP JUMPDEST PUSH1 0x0 DUP1 PUSH1 0x40 DUP4 DUP6 SUB SLT ISZERO PUSH2 0x4273 JUMPI PUSH1 0x0 DUP1 REVERT JUMPDEST DUP3 CALLDATALOAD PUSH2 0x427E DUP2 PUSH2 0x4772 JUMP JUMPDEST SWAP5 PUSH1 0x20 SWAP4 SWAP1 SWAP4 ADD CALLDATALOAD SWAP4 POP POP POP JUMP JUMPDEST PUSH1 0x0 DUP1 PUSH1 0x0 PUSH1 0x60 DUP5 DUP7 SUB SLT ISZERO PUSH2 0x42A1 JUMPI PUSH1 0x0 DUP1 REVERT JUMPDEST DUP4 CALLDATALOAD PUSH2 0x42AC DUP2 PUSH2 0x4772 JUMP JUMPDEST SWAP6 PUSH1 0x20 DUP6 ADD CALLDATALOAD SWAP6 POP PUSH1 0x40 SWAP1 SWAP5 ADD CALLDATALOAD SWAP4 SWAP3 POP POP POP JUMP JUMPDEST PUSH1 0x0 DUP1 PUSH1 0x0 DUP1 PUSH1 0x0 PUSH1 0xA0 DUP7 DUP9 SUB SLT ISZERO PUSH2 0x42D9 JUMPI PUSH1 0x0 DUP1 REVERT JUMPDEST DUP6 CALLDATALOAD PUSH2 0x42E4 DUP2 PUSH2 0x4772 JUMP JUMPDEST SWAP8 PUSH1 0x20 DUP8 ADD CALLDATALOAD SWAP8 POP PUSH1 0x40 DUP8 ADD CALLDATALOAD SWAP7 PUSH1 0x60 DUP2 ADD CALLDATALOAD SWAP7 POP PUSH1 0x80 ADD CALLDATALOAD SWAP5 POP SWAP3 POP POP POP JUMP JUMPDEST PUSH1 0x0 PUSH1 0x60 DUP3 DUP5 SUB SLT ISZERO PUSH2 0x4317 JUMPI PUSH1 0x0 DUP1 REVERT JUMPDEST PUSH1 0x40 MLOAD PUSH1 0x60 DUP2 ADD DUP2 DUP2 LT PUSH8 0xFFFFFFFFFFFFFFFF DUP3 GT OR ISZERO PUSH2 0x433A JUMPI PUSH2 0x433A PUSH2 0x4744 JUMP JUMPDEST PUSH1 0x40 MSTORE PUSH2 0x4346 DUP4 PUSH2 0x4147 JUMP JUMPDEST DUP2 MSTORE PUSH2 0x4354 PUSH1 0x20 DUP5 ADD PUSH2 0x4147 JUMP JUMPDEST PUSH1 0x20 DUP3 ADD MSTORE PUSH1 0x40 DUP4 ADD CALLDATALOAD PUSH1 0x40 DUP3 ADD MSTORE DUP1 SWAP2 POP POP SWAP3 SWAP2 POP POP JUMP JUMPDEST PUSH1 0x0 PUSH1 0x20 DUP3 DUP5 SUB SLT ISZERO PUSH2 0x437F JUMPI PUSH1 0x0 DUP1 REVERT JUMPDEST POP CALLDATALOAD SWAP2 SWAP1 POP JUMP JUMPDEST PUSH1 0x0 PUSH1 0x20 DUP3 DUP5 SUB SLT ISZERO PUSH2 0x4398 JUMPI PUSH1 0x0 DUP1 REVERT JUMPDEST POP MLOAD SWAP2 SWAP1 POP JUMP JUMPDEST PUSH1 0x0 DUP1 PUSH1 0x40 DUP4 DUP6 SUB SLT ISZERO PUSH2 0x43B2 JUMPI PUSH1 0x0 DUP1 REVERT JUMPDEST POP POP DUP1 CALLDATALOAD SWAP3 PUSH1 0x20 SWAP1 SWAP2 ADD CALLDATALOAD SWAP2 POP JUMP JUMPDEST PUSH1 0x0 DUP1 PUSH1 0x0 DUP1 PUSH1 0x0 PUSH1 0xA0 DUP7 DUP9 SUB SLT ISZERO PUSH2 0x43D9 JUMPI PUSH1 0x0 DUP1 REVERT JUMPDEST POP POP DUP4 CALLDATALOAD SWAP6 PUSH1 0x20 DUP6 ADD CALLDATALOAD SWAP6 POP PUSH1 0x40 DUP6 ADD CALLDATALOAD SWAP5 PUSH1 0x60 DUP2 ADD CALLDATALOAD SWAP5 POP PUSH1 0x80 ADD CALLDATALOAD SWAP3 POP SWAP1 POP JUMP JUMPDEST PUSH1 0x0 DUP1 PUSH1 0x0 DUP1 PUSH1 0x0 DUP1 PUSH1 0x0 DUP1 PUSH2 0x100 DUP10 DUP12 SUB SLT ISZERO PUSH2 0x4419 JUMPI PUSH1 0x0 DUP1 REVERT JUMPDEST POP POP DUP7 CALLDATALOAD SWAP9 PUSH1 0x20 DUP9 ADD CALLDATALOAD SWAP9 POP PUSH1 0x40 DUP9 ADD CALLDATALOAD SWAP8 PUSH1 0x60 DUP2 ADD CALLDATALOAD SWAP8 POP PUSH1 0x80 DUP2 ADD CALLDATALOAD SWAP7 POP PUSH1 0xA0 DUP2 ADD CALLDATALOAD SWAP6 POP PUSH1 0xC0 DUP2 ADD CALLDATALOAD SWAP5 POP PUSH1 0xE0 ADD CALLDATALOAD SWAP3 POP SWAP1 POP JUMP JUMPDEST PUSH1 0x20 DUP1 DUP3 MSTORE DUP3 MLOAD DUP3 DUP3 ADD DUP2 SWAP1 MSTORE PUSH1 0x0 SWAP2 SWAP1 DUP5 DUP3 ADD SWAP1 PUSH1 0x40 DUP6 ADD SWAP1 DUP5 JUMPDEST DUP2 DUP2 LT ISZERO PUSH2 0x448F JUMPI DUP4 MLOAD PUSH4 0xFFFFFFFF AND DUP4 MSTORE SWAP3 DUP5 ADD SWAP3 SWAP2 DUP5 ADD SWAP2 PUSH1 0x1 ADD PUSH2 0x446D JUMP JUMPDEST POP SWAP1 SWAP7 SWAP6 POP POP POP POP POP POP JUMP JUMPDEST PUSH1 0x40 MLOAD PUSH1 0x1F DUP3 ADD PUSH1 0x1F NOT AND DUP2 ADD PUSH8 0xFFFFFFFFFFFFFFFF DUP2 GT DUP3 DUP3 LT OR ISZERO PUSH2 0x44C4 JUMPI PUSH2 0x44C4 PUSH2 0x4744 JUMP JUMPDEST PUSH1 0x40 MSTORE SWAP2 SWAP1 POP JUMP JUMPDEST PUSH1 0x0 PUSH8 0xFFFFFFFFFFFFFFFF DUP3 GT ISZERO PUSH2 0x44E6 JUMPI PUSH2 0x44E6 PUSH2 0x4744 JUMP JUMPDEST POP PUSH1 0x5 SHL PUSH1 0x20 ADD SWAP1 JUMP JUMPDEST PUSH1 0x0 PUSH2 0xFFFF DUP1 DUP4 AND DUP2 DUP6 AND DUP1 DUP4 SUB DUP3 GT ISZERO PUSH2 0x450D JUMPI PUSH2 0x450D PUSH2 0x4702 JUMP JUMPDEST ADD SWAP5 SWAP4 POP POP POP POP JUMP JUMPDEST PUSH1 0x0 DUP3 NOT DUP3 GT ISZERO PUSH2 0x4529 JUMPI PUSH2 0x4529 PUSH2 0x4702 JUMP JUMPDEST POP ADD SWAP1 JUMP JUMPDEST PUSH1 0x0 DUP2 PUSH1 0x6 SIGNEXTEND DUP4 PUSH1 0x6 SIGNEXTEND DUP1 PUSH2 0x4545 JUMPI PUSH2 0x4545 PUSH2 0x4718 JUMP JUMPDEST PUSH7 0x7FFFFFFFFFFFFF NOT DUP3 EQ PUSH1 0x0 NOT DUP3 EQ AND ISZERO PUSH2 0x4563 JUMPI PUSH2 0x4563 PUSH2 0x4702 JUMP JUMPDEST SWAP1 SDIV SWAP4 SWAP3 POP POP POP JUMP JUMPDEST PUSH1 0x0 PUSH1 0x1 PUSH1 0x1 PUSH1 0xA0 SHL SUB DUP1 DUP5 AND DUP1 PUSH2 0x4586 JUMPI PUSH2 0x4586 PUSH2 0x4718 JUMP JUMPDEST SWAP3 AND SWAP2 SWAP1 SWAP2 DIV SWAP3 SWAP2 POP POP JUMP JUMPDEST PUSH1 0x0 DUP3 PUSH2 0x45A1 JUMPI PUSH2 0x45A1 PUSH2 0x4718 JUMP JUMPDEST POP DIV SWAP1 JUMP JUMPDEST PUSH1 0x0 DUP2 PUSH1 0x0 NOT DIV DUP4 GT DUP3 ISZERO ISZERO AND ISZERO PUSH2 0x45C0 JUMPI PUSH2 0x45C0 PUSH2 0x4702 JUMP JUMPDEST POP MUL SWAP1 JUMP JUMPDEST PUSH1 0x0 DUP2 PUSH1 0x6 SIGNEXTEND DUP4 PUSH1 0x6 SIGNEXTEND PUSH1 0x0 DUP2 SLT DUP2 PUSH7 0x7FFFFFFFFFFFFF NOT ADD DUP4 SLT DUP2 ISZERO AND ISZERO PUSH2 0x45F0 JUMPI PUSH2 0x45F0 PUSH2 0x4702 JUMP JUMPDEST DUP2 PUSH7 0x7FFFFFFFFFFFFF ADD DUP4 SGT DUP2 AND ISZERO PUSH2 0x460B JUMPI PUSH2 0x460B PUSH2 0x4702 JUMP JUMPDEST POP SWAP1 SUB SWAP4 SWAP3 POP POP POP JUMP JUMPDEST PUSH1 0x0 PUSH1 0x1 PUSH1 0x1 PUSH1 0xA0 SHL SUB DUP4 DUP2 AND SWAP1 DUP4 AND DUP2 DUP2 LT ISZERO PUSH2 0x4635 JUMPI PUSH2 0x4635 PUSH2 0x4702 JUMP JUMPDEST SUB SWAP4 SWAP3 POP POP POP JUMP JUMPDEST PUSH1 0x0 DUP3 DUP3 LT ISZERO PUSH2 0x464F JUMPI PUSH2 0x464F PUSH2 0x4702 JUMP JUMPDEST POP SUB SWAP1 JUMP JUMPDEST PUSH1 0x0 PUSH4 0xFFFFFFFF DUP4 DUP2 AND SWAP1 DUP4 AND DUP2 DUP2 LT ISZERO PUSH2 0x4635 JUMPI PUSH2 0x4635 PUSH2 0x4702 JUMP JUMPDEST PUSH1 0x0 DUP2 PUSH1 0x2 SIGNEXTEND PUSH3 0x7FFFFF NOT DUP2 EQ ISZERO PUSH2 0x468B JUMPI PUSH2 0x468B PUSH2 0x4702 JUMP JUMPDEST PUSH1 0x0 NOT ADD SWAP3 SWAP2 POP POP JUMP JUMPDEST PUSH1 0x0 DUP3 PUSH1 0x6 SIGNEXTEND DUP1 PUSH2 0x46A8 JUMPI PUSH2 0x46A8 PUSH2 0x4718 JUMP JUMPDEST DUP1 DUP4 PUSH1 0x6 SIGNEXTEND SMOD SWAP2 POP POP SWAP3 SWAP2 POP POP JUMP JUMPDEST PUSH1 0x0 DUP3 PUSH2 0x46C6 JUMPI PUSH2 0x46C6 PUSH2 0x4718 JUMP JUMPDEST POP MOD SWAP1 JUMP JUMPDEST PUSH1 0x0 DUP2 PUSH1 0x2 SIGNEXTEND PUSH3 0x7FFFFF NOT DUP2 EQ ISZERO PUSH2 0x37B3 JUMPI PUSH2 0x37B3 PUSH2 0x4702 JUMP JUMPDEST PUSH1 0x0 PUSH1 0x1 PUSH1 0xFF SHL DUP3 EQ ISZERO PUSH2 0x46FB JUMPI PUSH2 0x46FB PUSH2 0x4702 JUMP JUMPDEST POP PUSH1 0x0 SUB SWAP1 JUMP JUMPDEST PUSH4 0x4E487B71 PUSH1 0xE0 SHL PUSH1 0x0 MSTORE PUSH1 0x11 PUSH1 0x4 MSTORE PUSH1 0x24 PUSH1 0x0 REVERT JUMPDEST PUSH4 0x4E487B71 PUSH1 0xE0 SHL PUSH1 0x0 MSTORE PUSH1 0x12 PUSH1 0x4 MSTORE PUSH1 0x24 PUSH1 0x0 REVERT JUMPDEST PUSH4 0x4E487B71 PUSH1 0xE0 SHL PUSH1 0x0 MSTORE PUSH1 0x32 PUSH1 0x4 MSTORE PUSH1 0x24 PUSH1 0x0 REVERT JUMPDEST PUSH4 0x4E487B71 PUSH1 0xE0 SHL PUSH1 0x0 MSTORE PUSH1 0x41 PUSH1 0x4 MSTORE PUSH1 0x24 PUSH1 0x0 REVERT JUMPDEST PUSH1 0x1 PUSH1 0x1 PUSH1 0xA0 SHL SUB DUP2 AND DUP2 EQ PUSH2 0x476F JUMPI PUSH1 0x0 DUP1 REVERT JUMPDEST POP JUMP JUMPDEST DUP1 ISZERO ISZERO DUP2 EQ PUSH2 0x476F JUMPI PUSH1 0x0 DUP1 REVERT INVALID BYTE PUSH9 0x38EFA4183E08FE3607 CALLDATALOAD SWAP14 SLT MSIZE 0x27 0x2A 0xF9 0xD4 PUSH18 0x6F65E1A7B5921F78FD5A3C6AA26469706673 PC 0x22 SLT KECCAK256 SELFDESTRUCT XOR DUP6 CALLVALUE 0xAF 0xEC SAR 0xD7 0x5D OR 0xDF 0xBC GAS 0xA7 0x4C 0xD9 SWAP11 INVALID 0xFC 0xD9 0xC2 DIFFICULTY 0x2E SWAP3 0x27 0xE2 0xD1 0x4A DUP12 0xAF PUSH20 0x264736F6C634300080700330000000000000000 ",
  "sha1": "e74eec7766eb1fa123191cd96f0fd0399e374b46",
  "source": "// SPDX-License-Identifier: MIT\npragma solidity ^0.8.7;\n\nimport \"./libraries/FixedPoint.sol\";\nimport \"./libraries/UniswapV3OracleLibrary/UniswapV3OracleLibraryV2.sol\";\nimport \"./interfaces/IUniswapV3Pool.sol\";\nimport \"./market/OverlayV1Market.sol\";\nimport \"./libraries/UniswapV3OracleLibrary/TickMath.sol\";\n\ncontract OverlayV1UniswapV3Market is OverlayV1Market {\n\n    using FixedPoint for uint256;\n\n    uint256 internal X96 = 0x1000000000000000000000000;\n\n    uint256 public immutable macroWindow; // window size for main TWAP\n    uint256 public immutable microWindow; // window size for bid/ask TWAP\n\n    address public immutable marketFeed;\n    address public immutable ovlFeed;\n    address public immutable base;\n    address public immutable quote;\n    uint128 internal immutable baseAmount;\n\n    address internal immutable eth;\n    bool internal immutable ethIs0;\n\n    constructor(\n        address _mothership,\n        address _ovlFeed,\n        address _marketFeed,\n        address _quote,\n        address _eth,\n        uint128 _baseAmount,\n        uint256 _macroWindow,\n        uint256 _microWindow,\n        uint256 _priceFrameCap\n    ) OverlayV1Market (\n        _mothership\n    ) OverlayV1Comptroller (\n        _microWindow\n    ) OverlayV1OI (\n        _microWindow\n    ) OverlayV1PricePoint (\n        _priceFrameCap\n    ) {\n\n        require(_microWindow < _macroWindow, \"OVLV1:micro>=macro\");\n\n        // immutables\n        eth = _eth;\n        ovlFeed = _ovlFeed;\n        marketFeed = _marketFeed;\n        baseAmount = _baseAmount;\n        macroWindow = _macroWindow;\n        microWindow = _microWindow;\n\n        address _token0 = IUniswapV3Pool(_marketFeed).token0();\n        address _token1 = IUniswapV3Pool(_marketFeed).token1();\n\n        require(_token0 == _eth || _token1 == _eth, \"OVLV1:token!=WETH\");\n\n        ethIs0 = _token0 == _eth;\n        base = _token0 != _quote ? _token0 : _token1;\n        quote = _token0 == _quote ? _token0 : _token1;\n\n        int24 _tick = OracleLibraryV2.consult(\n            _marketFeed,\n            uint32(_macroWindow),\n            uint32(0)\n        );\n\n        _pricePoints.push(PricePoint(\n            _tick,\n            _tick,\n            0\n        ));\n\n        uint _price = OracleLibraryV2.getQuoteAtTick(\n            _tick,\n            uint128(_baseAmount),\n            _token0 != _quote ? _token0 : _token1,\n            _token0 == _quote ? _token0 : _token1\n        );\n\n        emit NewPricePoint(_price, _price, 0);\n\n    }\n\n\n    /// @notice Reads the current price and depth information\n    /// @dev Reads price and depth of market feed\n    /// @return price_ Price point\n    function fetchPricePoint () public view override returns (\n        PricePoint memory price_\n    ) {\n\n        int56[] memory _ticks;\n        uint160[] memory _liqs;\n\n        uint _ovlPrice;\n        uint _marketLiquidity;\n\n        int24 _microTick;\n        int24 _macroTick;\n\n        {\n\n            uint32[] memory _secondsAgo = new uint32[](3);\n            _secondsAgo[2] = uint32(macroWindow);\n            _secondsAgo[1] = uint32(microWindow);\n\n            ( _ticks, _liqs ) = IUniswapV3Pool(marketFeed).observe(_secondsAgo);\n\n            _macroTick = int24(( _ticks[0] - _ticks[2]) / int56(int32(int(macroWindow))));\n\n            _microTick = int24((_ticks[0] - _ticks[1]) / int56(int32(int(microWindow))));\n\n            uint _sqrtPrice = TickMath.getSqrtRatioAtTick(_microTick);\n\n            uint _liquidity = (uint160(microWindow) << 128) / ( _liqs[0] - _liqs[1] );\n\n            _marketLiquidity = ethIs0\n                ? ( uint256(_liquidity) << 96 ) / _sqrtPrice\n                : FullMath.mulDiv(uint256(_liquidity), _sqrtPrice, X96);\n\n        }\n\n\n        {\n\n            uint32[] memory _secondsAgo = new uint32[](2);\n\n            _secondsAgo[1] = uint32(macroWindow);\n\n            ( _ticks, ) = IUniswapV3Pool(ovlFeed).observe(_secondsAgo);\n\n            _ovlPrice = OracleLibraryV2.getQuoteAtTick(\n                int24((_ticks[0] - _ticks[1]) / int56(int32(int(macroWindow)))),\n                1e18,\n                ovl,\n                eth\n            );\n\n        }\n\n        price_ = PricePoint(\n            _microTick,\n            _macroTick,\n            computeDepth(_marketLiquidity, _ovlPrice)\n        );\n\n    }\n\n\n    /// @notice Arithmetic to get depth\n\n    /// @dev Derived from constant product formula X*Y=K and tailored\n    /// to Uniswap V3 selective liquidity provision.\n    /// @param _marketLiquidity Amount of liquidity in market in ETH terms.\n    /// @param _ovlPrice Price of OVL against ETH.\n    /// @return depth_ Depth criteria for market in OVL terms.\n    function computeDepth (\n        uint _marketLiquidity,\n        uint _ovlPrice\n    ) public override view returns (\n        uint depth_\n    ) {\n\n        depth_ = ((_marketLiquidity * 1e18) / _ovlPrice)\n            .mulUp(lmbda)\n            .divDown(2e18);\n\n    }\n\n    function _tickToPrice (\n        int24 _tick\n    ) internal override view returns (\n        uint quote_\n    ) {\n\n        uint160 sqrtRatioX96 = TickMath.getSqrtRatioAtTick(_tick);\n\n        // better precision if no overflow when squared\n        if (sqrtRatioX96 <= type(uint128).max) {\n\n            uint256 ratioX192 = uint256(sqrtRatioX96) * sqrtRatioX96;\n\n            quote_ = base < quote\n                ? FullMath.mulDiv(ratioX192, baseAmount, 1 << 192)\n                : FullMath.mulDiv(1 << 192, baseAmount, ratioX192);\n\n        } else {\n\n            uint256 ratioX128 = FullMath.mulDiv(sqrtRatioX96, sqrtRatioX96, 1 << 64);\n\n            quote_ = base < quote\n                ? FullMath.mulDiv(ratioX128, baseAmount, 1 << 128)\n                : FullMath.mulDiv(1 << 128, baseAmount, ratioX128);\n\n        }\n\n    }\n\n}\n",
  "sourcePath": "contracts/OverlayV1UniswapV3Market.sol",
  "type": "contract"
}